:1026000002B81D008F828E83E0540100000070F834
:102610002278FFE4F6D8FD02B8AB900018EEF0A3E4
:10262000EFF0781A7C007D017BFF7A6079927E065C
:102630007FD712852B9006F17406F0A374D7F0783B
:10264000F77C067D017BFF7A6779697E007F0F1238
:10265000852B78067C077D017BFF7A6779787E0081
:102660007F1C12852B78227C077D017BFF7A67799E
:10267000947E007F1B12852B783D7C077D017BFFBC
:102680007A6779AF7E007F1C12852B78597C077D95
:10269000017BFF7A6779CB7E007F2212852B787BC6
:1026A0007C077D017BFF7A6779ED7E007F271285AD
:1026B0002B78A27C077D017BFF7A6879147E007FEE
:1026C0001112852B78B37C077D017BFF7A68792511
:1026D0007E007F1912852B78CC7C077D017BFF7AE9
:1026E00068793E7E007F1112852B78DD7C077D01A5
:1026F0007BFF7A68794F7E007F1C12852B78F97CEE
:10270000077D017BFF7A68796B7E007F1D12852B28
:1027100078167C087D017BFF7A6879887E007F1BB4
:1027200012852B78317C087D017BFF7A6879A37E46
:10273000007F1412852B78457C087D017BFF7A6829
:1027400079B77E007F2512852B786A7C087D017B16
:10275000FF7A6879DC7E007F1512852B787F7C08F4
:102760007D017BFF7A6879F17E007F1512852B78D9
:10277000947C087D017BFF7A6979067E007F1412C4
:10278000852B78A87C087D017BFF7A69791A7E0009
:102790007F2412852B78CC7C087D017BFF7A6979B8
:1027A0003E7E007F1912852B78E57C087D017BFF3A
:1027B0007A6979577E007F1812852B78FD7C087D19
:1027C000017BFF7A69796F7E007F1412852B781167
:1027D0007C097D017BFF7A6979837E007F241285E5
:1027E0002B78357C097D017BFF7A6979A77E007F94
:1027F0002312852B78587C097D017BFF7A6979CA81
:102800007E007F1112852B78697C097D017BFF7A20
:102810006979DB7E007F1512852B787E7C097D012E
:102820007BFF7A6979F07E007F6312852B78E17CEB
:10283000097D017BFF7A6A79537E007F5C12852BCC
:10284000783D7C0A7D017BFF7A6A79AF7E007F2A22
:1028500012852B7B017A0679F712DE5D8F2C7B01C6
:102860007A07790612DE5D8F2D7B017A07792212B5
:10287000DE5D8F2E7B017A0779A212DE5D8F2F7BC2
:10288000017A0779B312DE5D8F307B017A0779CC4C
:1028900012DE5D8F317B017A0779F912DE5D8F32AE
:1028A0007B017A08791612DE5D8F337B017A087915
:1028B0003112DE5D8F347B017A08796A12DE5D8F1A
:1028C000357B017A08797F12DE5D8F367B017A08CD
:1028D000799412DE5D8F377B017A0879CC12DE5D48
:1028E0008F387B017A09796912DE5D8F397B017A35
:1028F00009797E12DE5D8F3A7B017A0979E112DE79
:102900005D8F3B7B017A0A793D12DE5D8F3C7B0156
:102910007A0879FD12DE5D8F3D7B017A097911120B
:10292000DE5D8F3E7B017A09793512DE5D8F3F7B5C
:10293000017A09795812DE5D8F4090001A740CF00C
:10294000A37419F0900018E0FEA3E0FFEE6003020C
:102950003DAFEFB41A004003023DAF902962F82862
:1029600028730229B002383D02384602391602396E
:10297000E60239F9023A02023A0B023A36023AB456
:10298000023AF1023AFA023BD0023C56023C66029D
:102990003C6F023C8E023CB7023CC0023CD4023C7D
:1029A000DD023CE6023D18023D2D023D60023D7510
:1029B00090001C7402F0A314F0900A71E090001EC5
:1029C000F0852C2AE52A6032FFC3E52C9FFFE494B2
:1029D00000FE74F72FF58274063EF583E0FFE52ACA
:1029E000FDE52CC39DFDE49400FC741F2DF582745D
:1029F000003CF583EFF0152A80CA90004E7407F072
:102A0000A37403F0900AA4E064036068900A72E083
:102A1000FCA3E0FDA3E0FEA3E0FFEC127E2AE4FBB2
:102A2000FA79807847127D1490005012839B900AA7
:102A300076E0FCA3E0FDA3E0FEA3E0FFEC127E2A1B
:102A4000E4FBFA79807847127D1490005412839B3E
:102A5000900A7AE0FCA3E0FDA3E0FEA3E0FFEC1205
:102A60007E2AE4FBFA79807847127D149000581290
:102A7000839B8066900A8AE0FCA3E0FDA3E0FEA3AE
:102A8000E0FFEC127E2AE4FBFA79807847127D148D
:102A900090005012839B900A8EE0FCA3E0FDA3E01F
:102AA000FEA3E0FFEC127E2AE4FBFA79807847125D
:102AB0007D1490005412839B900A92E0FCA3E0FDE9
:102AC000A3E0FEA3E0FFEC127E2AE4FBFA79807813
:102AD00047127D1490005812839B852D2AE52A60A9
:102AE00032FFC3E52D9FFFE49400FE74062FF582AC
:102AF00074073EF583E0FFE52AFDE52DC39DFDE467
:102B00009400FC745C2DF58274003CF583EFF015A5
:102B10002A80CA9000807407F0A37403F0900AA47E
:102B2000E064036068900A7EE0FCA3E0FDA3E0FEA1
:102B3000A3E0FFEC127E2AE4FBFA79807847127D4D
:102B40001490008212839B900A82E0FCA3E0FDA314
:102B5000E0FEA3E0FFEC127E2AE4FBFA79807847DE
:102B6000127D1490008612839B900A86E0FCA3E0FD
:102B7000FDA3E0FEA3E0FFEC127E2AE4FBFA7980DD
:102B80007847127D1490008A12839B8066900A9683
:102B9000E0FCA3E0FDA3E0FEA3E0FFEC127E2AE44C
:102BA000FBFA79807847127D1490008212839B9003
:102BB0000A9AE0FCA3E0FDA3E0FEA3E0FFEC127E96
:102BC0002AE4FBFA79807847127D149000861283FC
:102BD0009B900A9EE0FCA3E0FDA3E0FEA3E0FFECD7
:102BE000127E2AE4FBFA79807847127D1490008ADD
:102BF00012839B852E2AE52A6032FFC3E52E9FFFB4
:102C0000E49400FE74222FF58274073EF583E0FF02
:102C1000E52AFDE52EC39DFDE49400FC748E2DF5A0
:102C20008274003CF583EFF0152A80CAE49000B26C
:102C3000F0A304F0900AA2E09000B4F0900AA26021
:102C40001C900A6A74FFF0A37454F0A3747FF07BA5
:102C5000017A07793D12D154752B1C801A900A6AAB
:102C600074FFF0A37454F0A37485F07B017A0779A4
:102C70003D12D154752B1B852B2AE52A6032FFC3E8
:102C8000E52B9FFFE49400FE743D2FF58274073E10
:102C9000F583E0FFE52AFDE52BC39DFDE49400FCF0
:102CA00074B52DF58274003CF583EFF0152A80CAC7
:102CB00074B5252BF582E43400F5837403F0E490B9
:102CC00000E4F0A304F0900AA3E09000E6F0900A7C
:102CD000A314603314604C14606514607E14700398
:102CE000022D7724056003022D91900A6A74FFF08B
:102CF000A37454F0A3748AF07B017A07795912D136
:102D000054752B14022D91900A6A74FFF0A3745429
:102D1000F0A37490F07B017A07795912D154752B86
:102D200017806E900A6A74FFF0A37454F0A374992C
:102D3000F07B017A07795912D154752B218052907A
:102D40000A6A74FFF0A37454F0A374ACF07B017AA8
:102D500007795912D154752B1D8036900A6A74FF79
:102D6000F0A37454F0A374BBF07B017A0779591275
:102D7000D154752B19801A900A6A74FFF0A3745409
:102D8000F0A374C6F07B017A07795912D154752BE0
:102D900022852B2AE52A6032FFC3E52B9FFFE494AE
:102DA00000FE74592FF58274073EF583E0FFE52A93
:102DB000FDE52BC39DFDE49400FC74E72DF58274C2
:102DC000003CF583EFF0152A80CA74E7252BF582C5
:102DD000E43400F5837401F0E4900116F0A304F0EC
:102DE000900AA4E0900118F0900AA414602C1460DA
:102DF0004514605E14607724046003022E88900AF4
:102E00006A74FFF0A37454F0A374DAF07B017A07BC
:102E1000797B12D154752B1B806E900A6A74FFF077
:102E2000A37454F0A374E5F07B017A07797B12D187
:102E300054752B168052900A6A74FFF0A37454F0F4
:102E4000A374EBF07B017A07797B12D154752B1AAE
:102E50008036900A6A74FFF0A37454F0A374F5F0FE
:102E60007B017A07797B12D154752B27801A900A3F
:102E70006A74FFF0A37455F0A3740CF07B017A0719
:102E8000797B12D154752B24852B2AE52A6032FFD9
:102E9000C3E52B9FFFE49400FE747B2FF58274073B
:102EA0003EF583E0FFE52AFDE52BC39DFDE494009C
:102EB000FC74192DF58274013CF583EFF0152A801E
:102EC000CA7419252BF582E43401F5837402F0905D
:102ED0000148F0A304F0E4F52AE52AC39403501E48
:102EE00074A5252AF582E4340AF583E0FF744A25A7
:102EF0002AF582E43401F583EFF0052A80DB852F83
:102F00002AE52A6032FFC3E52F9FFFE49400FE7498
:102F1000A22FF58274073EF583E0FFE52AFDE52F39
:102F2000C39DFDE49400FC744D2DF58274013CF5C5
:102F300083EFF0152A80CA90017A7403F0A3F0E4BD
:102F4000F52AE52AC394035044E52A25E025E02428
:102F5000A8F582E4340AF583E0FCA3E0FDA3E0FEDB
:102F6000A3E0FF74A5252AF582E4340AF583E0F98D
:102F7000F812830E75F002E52AA4247CF582E5F0B0
:102F80003401F583EEF0A3EFF0052A80B585302AF1
:102F9000E52A6032FFC3E5309FFFE49400FE74B37E
:102FA0002FF58274073EF583E0FFE52AFDE530C387
:102FB0009DFDE49400FC74822DF58274013CF58340
:102FC000EFF0152A80CA9001AC7407F0A37403F0E7
:102FD000E4F52AE52AC394035031E52A25E025E0EB
:102FE00024B4F582E4340AF583E0FCA3E0FDA3E019
:102FF000FEA3E0FF75F004E52AA424AEF582E5F017
:103000003401F58312839B052A80C885312AE52A7D
:103010006032FFC3E5319FFFE49400FE74CC2FF5CE
:103020008274073EF583E0FFE52AFDE531C39DFD8F
:10303000E49400FC74BA2DF58274013CF583EFF042
:10304000152A80CAE49001DEF0A304F0900AC0E0E3
:103050009001E0F0900AC0601C900A6A74FFF0A32F
:103060007454F0A3747FF07B017A0779DD12D15498
:10307000752B1C801A900A6A74FFF0A37454F0A395
:103080007485F07B017A0779DD12D154752B1B858D
:103090002B2AE52A6032FFC3E52B9FFFE49400FE54
:1030A00074DD2FF58274073EF583E0FFE52AFDE528
:1030B0002BC39DFDE49400FC74E12DF58274013C6A
:1030C000F583EFF0152A80CA74E1252BF582E434EC
:1030D00001F5837403F09002107405F0A37402F0FC
:1030E000E4F52AE52AC39401400302316EE52A255E
:1030F000E025E024C1F582E4340AF583E0FCA3E096
:10310000FDA3E0FEA3E0FF74A5252AF582E4340ABE
:10311000F583E0F9F812830E75F008E52AA424126D
:10312000F582E5F03402F58312839BE52A25E0253C
:10313000E024C9F582E4340AF583E0FCA3E0FDA3B2
:10314000E0FEA3E0FF74A5252AF582E4340AF583A6
:10315000E0F9F812830E75F008E52AA42416F5822A
:10316000E5F03402F58312839B052A0230E38532B1
:103170002AE52A6032FFC3E5329FFFE49400FE7423
:10318000F92FF58274073EF583E0FFE52AFDE5326D
:10319000C39DFDE49400FC741A2DF58274023CF585
:1031A00083EFF0152A80CA9002427405F0A37402DE
:1031B000F0900AD5E0FCA3E0FDA3E0FEA3E0FF90C1
:1031C000024412839B900AD1E0FCA3E0FDA3E0FE41
:1031D000A3E0FF90024812839B85332AE52A6032E0
:1031E000FFC3E5339FFFE49400FE74162FF582744D
:1031F000083EF583E0FFE52AFDE533C39DFDE49439
:1032000000FC744C2DF58274023CF583EFF0152A16
:1032100080CA9002747403F0A37401F0900AD9E09C
:10322000FFA3E0900276CFF0A3EFF085342AE52AE1
:103230006032FFC3E5349FFFE49400FE74312FF544
:103240008274083EF583E0FFE52AFDE534C39DFD69
:10325000E49400FC74782DF58274023CF583EFF061
:10326000152A80CAE49002A6F0A304F0900ADFE0D9
:103270009002A8F0900ADF601C900A6A74FFF0A325
:103280007454F0A3747FF07B017A08794512D1540D
:10329000752B25801A900A6A74FFF0A37454F0A36A
:1032A0007485F07B017A08794512D154752B2485F9
:1032B0002B2AE52A6032FFC3E52B9FFFE49400FE32
:1032C00074452FF58274083EF583E0FFE52AFDE59D
:1032D0002BC39DFDE49400FC74A92DF58274023C7F
:1032E000F583EFF0152A80CA74A9252BF582E43402
:1032F00002F5837403F09002D804F0A37402F090F6
:103300000ADBE0FFA3E09002DACFF0A3EFF0900A2F
:10331000DDE0FFA3E09002DCCFF0A3EFF085352ADB
:10332000E52A6032FFC3E5359FFFE49400FE746A2E
:103330002FF58274083EF583E0FFE52AFDE535C3ED
:103340009DFDE49400FC74DE2DF58274023CF5834F
:10335000EFF0152A80CA90030A7406F0A37402F0F5
:10336000900AE0E0FCA3E0FDA3E0FEA3E0FF9003F1
:103370000C12839B900AE4E0FCA3E0FDA3E0FEA313
:10338000E0FF90031012839B85362AE52A6032FF06
:10339000C3E5369FFFE49400FE747F2FF582740826
:1033A0003EF583E0FFE52AFDE536C39DFDE494008C
:1033B000FC74142DF58274033CF583EFF0152A801C
:1033C000CA90033C7402F0A314F0900AE8E0900362
:1033D0003EF085372AE52A6032FFC3E5379FFFE4D8
:1033E0009400FE74942FF58274083EF583E0FFE5A7
:1033F0002AFDE537C39DFDE49400FC743F2DF58262
:1034000074033CF583EFF0152A80CAE490036EF054
:10341000A304F0900AE9E0900370F0900AE9601CC0
:10342000900A6A74FFF0A37454F0A3747FF07B01D8
:103430007A0879A812D154752B24801A900A6A74DC
:10344000FFF0A37454F0A37485F07B017A0879A887
:1034500012D154752B23852B2AE52A6032FFC3E550
:103460002B9FFFE49400FE74A82FF58274083EF5AC
:1034700083E0FFE52AFDE52BC39DFDE49400FC7489
:10348000712DF58274033CF583EFF0152A80CA7420
:1034900071252BF582E43403F5837403F09003A0C7
:1034A0007401F0A3F0900AEAE09003A2F085382AB4
:1034B000E52A6032FFC3E5389FFFE49400FE74CC38
:1034C0002FF58274083EF583E0FFE52AFDE538C359
:1034D0009DFDE49400FC74A32DF58274033CF583F8
:1034E000EFF0152A80CAE49003D2F0A304F0900A0A
:1034F000EBE09003D4F0900AEB601C900A6A74FF32
:10350000F0A37454F0A3747FF07B017A0879E5127C
:10351000D154752B18801A900A6A74FFF0A3745462
:10352000F0A37485F07B017A0879E512D154752BEC
:1035300017852B2AE52A6032FFC3E52B9FFFE49411
:1035400000FE74E52FF58274083EF583E0FFE52A5E
:10355000FDE52BC39DFDE49400FC74D52DF582742C
:10356000033CF583EFF0152A80CA74D5252BF5822C
:10357000E43403F5837403F09004047405F0A37439
:1035800001F0900B06E0FCA3E0FDA3E0FEA3E0FF4A
:10359000900AA5E0F9F812830E90040612839B8529
:1035A0003D2AE52A6032FFC3E53D9FFFE49400FE1B
:1035B00074FD2FF58274083EF583E0FFE52AFDE5F2
:1035C0003DC39DFDE49400FC740A2DF58274043C17
:1035D000F583EFF0152A80CA9004367407F0A374BF
:1035E00001F0900B0AE0FCA3E0FDA3E0FEA3E0FFE6
:1035F00090043812839B853E2AE52A6032FFC3E59A
:103600003E9FFFE49400FE74112FF58274093EF58D
:1036100083E0FFE52AFDE53EC39DFDE49400FC74D4
:103620003C2DF58274043CF583EFF0152A80CA9096
:1036300004687407F0A37401F0E4FFFE7D7A7C4413
:10364000900B0EE0F8A3E0F9A3E0FAA3E0FB127CF4
:103650000B90046A12839B853F2AE52A6032FFC3E0
:10366000E53F9FFFE49400FE74352FF58274093E18
:10367000F583E0FFE52AFDE53FC39DFDE49400FCF2
:10368000746E2DF58274043CF583EFF0152A80CA20
:1036900090049A7407F0A37401F0900B12E0FCA35D
:1036A000E0FDA3E0FEA3E0FF90049C12839B854015
:1036B0002AE52A6032FFC3E5409FFFE49400FE74D0
:1036C000582FF58274093EF583E0FFE52AFDE540B9
:1036D000C39DFDE49400FC74A02DF58274043CF5B8
:1036E00083EFF0152A80CA9004CC7407F0A314F07D
:1036F000E4F52AE52AC394065031E52A25E025E0C1
:1037000024ECF582E4340AF583E0FCA3E0FDA3E0B9
:10371000FEA3E0FF75F004E52AA424CEF582E5F0CF
:103720003404F58312839B052A80C885392AE52A4B
:103730006032FFC3E5399FFFE49400FE74692FF502
:103740008274093EF583E0FFE52AFDE539C39DFD5E
:10375000E49400FC74E62DF58274043CF583EFF0EC
:10376000152A80CA853A2AE52A6032FFC3E53A9FC6
:10377000FFE49400FE747E2FF58274093EF583E029
:10378000FFE52AFDE53AC39DFDE49400FC74FE2D9F
:10379000F58274043CF583EFF0152A80CA853B2A34
:1037A000E52A6032FFC3E53B9FFFE49400FE74E12D
:1037B0002FF58274093EF583E0FFE52AFDE53BC362
:1037C0009DFDE49400FC74942DF58274053CF58312
:1037D000EFF0152A80CA853C2AE52A6032FFC3E54E
:1037E0003C9FFFE49400FE743D2FF582740A3EF581
:1037F00083E0FFE52AFDE53CC39DFDE49400FC74F5
:103800002A2DF58274063CF583EFF0152A80CA7BD9
:10381000017A00791A9006F1E0A3E014FD12DA0BA8
:103820009006F1E0FCA3E0FD2419F58274003CF55C
:1038300083EFF07B017A00791A12C59022900C3B3D
:10384000E0900B31F022900AA4E064036064E4FF8E
:10385000FE7D807C47900C3BE0F8A3E0F9A3E0FA02
:10386000A3E0FB127C0B127E68900B3212839BE468
:10387000FFFE7D807C47900C3FE0F8A3E0F9A3E0D9
:10388000FAA3E0FB127C0B127E68900B3612839B2E
:10389000E4FFFE7D807C47900C43E0F8A3E0F9A3B1
:1038A000E0FAA3E0FB127C0B127E68900B3A1283C5
:1038B0009B22E4FFFE7D807C47900C3BE0F8A3E078
:1038C000F9A3E0FAA3E0FB127C0B127E68900B4A8E
:1038D00012839BE4FFFE7D807C47900C3FE0F8A3C1
:1038E000E0F9A3E0FAA3E0FB127C0B127E68900BD8
:1038F0004E12839BE4FFFE7D807C47900C43E0F8F2
:10390000A3E0F9A3E0FAA3E0FB127C0B127E68901F
:103910000B5212839B22900AA4E064036064E4FFCC
:10392000FE7D807C47900C3BE0F8A3E0F9A3E0FA31
:10393000A3E0FB127C0B127E68900B3E12839BE48B
:10394000FFFE7D807C47900C3FE0F8A3E0F9A3E008
:10395000FAA3E0FB127C0B127E68900B4212839B51
:10396000E4FFFE7D807C47900C43E0F8A3E0F9A3E0
:10397000E0FAA3E0FB127C0B127E68900B461283E8
:103980009B22E4FFFE7D807C47900C3BE0F8A3E0A7
:10399000F9A3E0FAA3E0FB127C0B127E68900B56B1
:1039A00012839BE4FFFE7D807C47900C3FE0F8A3F0
:1039B000E0F9A3E0FAA3E0FB127C0B127E68900B07
:1039C0005A12839BE4FFFE7D807C47900C43E0F815
:1039D000A3E0F9A3E0FAA3E0FB127C0B127E68904F
:1039E0000B5E12839B22900C3BE06007900B62748D
:1039F00003F022E4900B62F022900C3BE0900B630A
:103A0000F022900C3BE0900B64F022E4F52AE52ACA
:103A1000C394034003023DAF743B252AF582E4348E
:103A20000CF583E0FF7465252AF582E4340BF583F9
:103A3000EFF0052A80D8E4F52AE52AC394035071F3
:103A4000E52A25E0243BF582E4340CF583E0FEA36F
:103A5000E0FFEE3395E0FDFCE52A25E025E0246853
:103A6000F582E4340BF58312839BE52A25E025E0FB
:103A70002468F582E4340BF583C083C082E0FCA3A4
:103A8000E0FDA3E0FEA3E0FF7465252AF582E4349F
:103A90000BF583E0F9F8128322D082D08312839B46
:103AA000740F252AF582E4340DF583E4F0052A80AD
:103AB00088D20A22E4F52AE52AC394034003023D92
:103AC000AFE52A25E025E0243BF582E4340CF583BC
:103AD000E0FCA3E0FDA3E0FEA3E0FFE52A25E0254E
:103AE000E02474F582E4340BF58312839B052A806D
:103AF000C6900C3BE0900B80F022E4F52AE52AC347
:103B000094024003023DAFE52A75F008A4243BF57A
:103B100082E4340CF583E0FCA3E0FDA3E0FEA3E027
:103B2000FFE52A25E025E02481F582E4340BF583C6
:103B300012839BE52A75F008A4243FF582E4340C37
:103B4000F583E0FCA3E0FDA3E0FEA3E0FFE52A256A
:103B5000E025E02489F582E4340BF58312839BE5AC
:103B60002A25E025E02481F582E4340BF583C08327
:103B7000C082E0FCA3E0FDA3E0FEA3E0FF746525A6
:103B80002AF582E4340BF583E0F9F8128322D0821F
:103B9000D08312839BE52A25E025E02489F582E481
:103BA000340BF583C083C082E0FCA3E0FDA3E0FEFC
:103BB000A3E0FF7465252AF582E4340BF583E0F970
:103BC000F8128322D082D08312839B052A023AFD09
:103BD000900C3BE0FCA3E0FDA3E0FEA3E0FF900619
:103BE000F312839BE4FFFEFDFC9006F3E0F8A3E0F4
:103BF000F9A3E0FAA3E0FBD31282D450149006F3A9
:103C0000E0FCA3E0FDA3E0FEA3E0FF900B95128390
:103C10009B900C3FE0FCA3E0FDA3E0FEA3E0FF903F
:103C200006F312839BE4FFFEFDFC9006F3E0F8A38D
:103C3000E0F9A3E0FAA3E0FBC31282D45003023DF3
:103C4000AF9006F3E0FCA3E0FDA3E0FEA3E0FF904D
:103C50000B9112839B22900C3BE0FFA3E0900B9909
:103C6000CFF0A3EFF022900C3BE0900B9FF022905E
:103C70000C3BE0FFA3E0900B9BCFF0A3EFF0900C88
:103C80003DE0FFA3E0900B9DCFF0A3EFF022900C5E
:103C90003BE0FCA3E0FDA3E0FEA3E0FF900BA0123D
:103CA000839B900C3FE0FCA3E0FDA3E0FEA3E0FFBC
:103CB000900BA412839B22900C3BE0900BA8F02267
:103CC000900C3BE0FF6007900BA97401F022E49098
:103CD0000BA9F022900C3BE0900BAAF022900C3B39
:103CE000E0900BABF022900C3BE0FCA3E0FDA3E0E6
:103CF000FEA3E0FF900BC612839B900BC6E0FCA3D3
:103D0000E0FDA3E0FEA3E0FF900B65E0F9F812836D
:103D100022900BC612839B22900C3BE0FCA3E0FD9B
:103D2000A3E0FEA3E0FF900BCA12839B22900C3B02
:103D3000E0FCA3E0FDA3E0FEA3E0FF900BCE128326
:103D40009B900BCEE0FCA3E0FDA3E0FEA3E0FFE42C
:103D5000FBFA797A7844127D14900BCE12839B2261
:103D6000900C3BE0FCA3E0FDA3E0FEA3E0FF900B82
:103D7000D212839B22E4F52AE52AC394065030E54B
:103D80002A25E025E0243BF582E4340CF583E0FCB1
:103D9000A3E0FDA3E0FEA3E0FFE52A25E025E02463
:103DA000ACF582E4340BF58312839B052A80C9228B
:103DB0009005F6EBF0A3EAF0A3E9F0900A71E06455
:103DC000FA700302547E9005F6E0FBA3E0FAA3E04C
:103DD000F8AC02AD037BFF7A557920128609900A70
:103DE0006A74FFF0A37455F0A37421F09005F6E017
:103DF000FBA3E0FAA3E0F912D154900A6A74FFF031
:103E0000A37455F0A37424F09005F6E0FBA3E0FA48
:103E1000A3E0F912D154900A6A74FFF0A37455F02C
:103E2000A37437F09005F6E0FBA3E0FAA3E0F912E3
:103E3000D154900A6A74FFF0A37455F0A3745EF035
:103E40009005F6E0FBA3E0FAA3E0F912D154900A42
:103E50006A74FFF0A37455F0A37464F09005F6E063
:103E6000FBA3E0FAA3E0F912D15490066274FFF0CC
:103E7000A37455F0A37472F0900A71E0FF90066588
:103E8000E4F0A3EFF07B017A0579FB129B28900AFE
:103E90006A7401F0A37405F0A374FBF09005F6E0DA
:103EA000FBA3E0FAA3E0F912D154900A6A74FFF080
:103EB000A37455F0A3747BF09005F6E0FBA3E0FA41
:103EC000A3E0F912D154900AEBE0B4011E900A6A03
:103ED00074FFF0A37455F0A37496F09005F6E0FB20
:103EE000A3E0FAA3E0F912D154801C900A6A74FF8F
:103EF000F0A37455F0A3749BF09005F6E0FBA3E0EB
:103F0000FAA3E0F912D15490066274FFF0A374553D
:103F1000F0A3749FF0900D37E0FF900665E4F0A3E6
:103F2000EFF07B017A0579FB129B28900A6A7401F5
:103F3000F0A37405F0A374FBF09005F6E0FBA3E09A
:103F4000FAA3E0F912D154900A6A74FFF0A37455F1
:103F5000F0A37421F09005F6E0FBA3E0FAA3E0F9EA
:103F600012D154900A6A74FFF0A37455F0A374AF91
:103F7000F09005F6E0FBA3E0FAA3E0F912D154902B
:103F80000A6A74FFF0A37455F0A374BCF09005F6B0
:103F9000E0FBA3E0FAA3E0F912D154900B64E0B483
:103FA000021E900A6A74FFF0A37455F0A374CCF05B
:103FB0009005F6E0FBA3E0FAA3E0F912D1548041AA
:103FC000900B64E0B4011E900A6A74FFF0A374556C
:103FD000F0A374DAF09005F6E0FBA3E0FAA3E0F9B1
:103FE00012D154801C900A6A74FFF0A37455F0A398
:103FF00074E3F09005F6E0FBA3E0FAA3E0F912D138
:1040000054E49005F9F0A3F0C39005FAE09402900F
:1040100005F9E064809480400302416C900B64E0F9
:104020006402705F90066274FFF0A37455F0A3748D
:10403000F1F09005F9E0FEA3E07802C333CE33CE71
:10404000D8F9241FF582740B3EF583E0A3E0A3E0CA
:10405000FFA3E0900665CFF0A3EFF07B017A05792E
:10406000FB129B28900A6A7401F0A37405F0A374F4
:10407000FBF09005F6E0FBA3E0FAA3E0F912D154BF
:1040800002415B900B64E06401705E90066274FF15
:10409000F0A37455F0A374F1F09005F9E0FEA3E0ED
:1040A0007802C333CE33CED8F92427F582740B3E81
:1040B000F583E0A3E0A3E0FFA3E0900665CFF0A3C3
:1040C000EFF07B017A0579FB129B28900A6A740154
:1040D000F0A37405F0A374FBF09005F6E0FBA3E0F9
:1040E000FAA3E0F912D154807290066274FFF0A333
:1040F0007455F0A374F1F09005F9E0FAA3E0FBAE7B
:10410000027802C333CE33CED8F92417F582740B6C
:104110003EF583E0FCA3E0FDA3E0FEA3E0FF74A571
:104120002BF582740A3AF583E0F9F812830E9006B3
:1041300065EEF0A3EFF07B017A0579FB129B2890E6
:104140000A6A7401F0A37405F0A374FBF09005F6FD
:10415000E0FBA3E0FAA3E0F912D1549005FAE004E1
:10416000F070069005F9E004F0024008900A6A74C5
:10417000FFF0A37455F0A37421F09005F6E0FBA3C3
:10418000E0FAA3E0F912D154900A6A74FFF0A37424
:1041900055F0A37421F09005F6E0FBA3E0FAA3E04C
:1041A000F912D15490066274FFF0A37455F0A37411
:1041B000F5F07B017A0579FB129B28900B2FE054D8
:1041C000036019900A6A74FFF0A37456F0A3740593
:1041D000F07B017A0579FB12D1548017900A6A743A
:1041E000FFF0A37456F0A3740BF07B017A0579FB02
:1041F00012D154900A6A7401F0A37405F0A374FB01
:10420000F09005F6E0FBA3E0FAA3E0F912D1549098
:104210000A6A74FFF0A37456F0A37410F09005F6C8
:10422000E0FBA3E0FAA3E0F912D154900A6A74FF0C
:10423000F0A37456F0A37426F09005F6E0FBA3E01B
:10424000FAA3E0F912D154E49005F9F0A3F0C39079
:1042500005FAE094039005F9E0648094804003023D
:10426000431490066274FFF0A37456F0A37436F002
:104270009005F9E0FCA3E0FD2401FEE43C90066516
:10428000F0A3CEF0EDAE047802C333CE33CED8F92E
:1042900024FBF582740C3EF583E0FCA3E0FDA3E073
:1042A000FEA3E0FF9005F9E0FAA3E024A5F58274EF
:1042B0000A3AF583E0F9F812830E900667EEF0A350
:1042C000EFF07B017A0579FB129B28900A6A740152
:1042D000F0A37405F0A374FBF09005F6E0FBA3E0F7
:1042E000FAA3E0F912D154900A6A74FFF0A374554E
:1042F000F0A37421F09005F6E0FBA3E0FAA3E0F947
:1043000012D1549005FAE004F070069005F9E0042B
:10431000F002424E90066274FFF0A37456F0A3744C
:104320003FF0900C1BE0FCA3E0FDA3E0FEA3E0FF48
:1043300090066512839B7B017A0579FB129B28907E
:104340000A6A7401F0A37405F0A374FBF09005F6FB
:10435000E0FBA3E0FAA3E0F912D154900A6A74FFDB
:10436000F0A37455F0A37421F09005F6E0FBA3E0F0
:10437000FAA3E0F912D15490066274FFF0A37456C8
:10438000F0A37459F0900CE2E0FCA3E0FDA3E0FE82
:10439000A3E0FF90066512839B7B017A0579FB12EF
:1043A0009B28900A6A7401F0A37405F0A374FBF0D3
:1043B0009005F6E0FBA3E0FAA3E0F912D154900ACD
:1043C0006A74FFF0A37455F0A37421F09005F6E031
:1043D000FBA3E0FAA3E0F912D15490066274FFF057
:1043E000A37456F0A3747DF0900D07E0FCA3E0FDEC
:1043F000A3E0FEA3E0FF90066512839B7B017A0594
:1044000079FB129B28900A6A7401F0A37405F0A34B
:1044100074FBF09005F6E0FBA3E0FAA3E0F912D1FB
:1044200054900A6A74FFF0A37455F0A37421F090BD
:1044300005F6E0FBA3E0FAA3E0F912D154900A6A72
:1044400074FFF0A37456F0A3748FF09005F6E0FBB0
:10445000A3E0FAA3E0F912D154900A6A74FFF0A322
:104460007456F0A374A5F09005F6E0FBA3E0FAA360
:10447000E0F912D154900AA4E0640370030245826B
:1044800090066274FFF0A37456F0A374B7F0900A1C
:1044900072E0FCA3E0FDA3E0FEA3E0FFEC127E2AA5
:1044A000E4FBFA79807847127D1490066512839BAD
:1044B0007B017A0579FB129B28900A6A7401F0A3AC
:1044C0007405F0A374FBF09005F6E0FBA3E0FAA3FB
:1044D000E0F912D15490066274FFF0A37456F0A371
:1044E00074C1F0900A76E0FCA3E0FDA3E0FEA3E037
:1044F000FFEC127E2AE4FBFA79807847127D149053
:10450000066512839B7B017A0579FB129B28900A32
:104510006A7401F0A37405F0A374FBF09005F6E053
:10452000FBA3E0FAA3E0F912D15490066274FFF005
:10453000A37456F0A374CBF0900A7AE0FCA3E0FDDC
:10454000A3E0FEA3E0FFEC127E2AE4FBFA79807878
:1045500047127D1490066512839B7B017A0579FBD7
:10456000129B28900A6A7401F0A37405F0A374FBEF
:10457000F09005F6E0FBA3E0FAA3E0F912D15402B3
:10458000468190066274FFF0A37456F0A374B7F0EE
:10459000900A8AE0FCA3E0FDA3E0FEA3E0FFEC129A
:1045A0007E2AE4FBFA79807847127D149006651222
:1045B000839B7B017A0579FB129B28900A6A740120
:1045C000F0A37405F0A374FBF09005F6E0FBA3E004
:1045D000FAA3E0F912D15490066274FFF0A3745666
:1045E000F0A374C1F0900A8EE0FCA3E0FDA3E0FE0E
:1045F000A3E0FFEC127E2AE4FBFA79807847127D73
:104600001490066512839B7B017A0579FB129B2827
:10461000900A6A7401F0A37405F0A374FBF090058E
:10462000F6E0FBA3E0FAA3E0F912D154900662741D
:10463000FFF0A37456F0A374CBF0900A92E0FCA3B1
:10464000E0FDA3E0FEA3E0FFEC127E2AE4FBFA7992
:10465000807847127D1490066512839B7B017A0552
:1046600079FB129B28900A6A7401F0A37405F0A3E9
:1046700074FBF09005F6E0FBA3E0FAA3E0F912D199
:1046800054900A6A74FFF0A37456F0A374D5F090A6
:1046900005F6E0FBA3E0FAA3E0F912D154900AA4D6
:1046A000E0640370030247AA90066274FFF0A374EB
:1046B00056F0A374B7F0900A7EE0FCA3E0FDA3E0FF
:1046C000FEA3E0FFEC127E2AE4FBFA798078471221
:1046D0007D1490066512839B7B017A0579FB129B02
:1046E00028900A6A7401F0A37405F0A374FBF0909B
:1046F00005F6E0FBA3E0FAA3E0F912D154900662BC
:1047000074FFF0A37456F0A374C1F0900A82E0FC29
:10471000A3E0FDA3E0FEA3E0FFEC127E2AE4FBFA97
:1047200079807847127D1490066512839B7B017A0D
:104730000579FB129B28900A6A7401F0A37405F0B6
:10474000A374FBF09005F6E0FBA3E0FAA3E0F912F6
:10475000D15490066274FFF0A37456F0A374CBF0AA
:10476000900A86E0FCA3E0FDA3E0FEA3E0FFEC12CC
:104770007E2AE4FBFA79807847127D149006651250
:10478000839B7B017A0579FB129B28900A6A74014E
:10479000F0A37405F0A374FBF09005F6E0FBA3E032
:1047A000FAA3E0F912D1540248A990066274FFF00E
:1047B000A37456F0A374B7F0900A96E0FCA3E0FD52
:1047C000A3E0FEA3E0FFEC127E2AE4FBFA798078F6
:1047D00047127D1490066512839B7B017A0579FB55
:1047E000129B28900A6A7401F0A37405F0A374FB6D
:1047F000F09005F6E0FBA3E0FAA3E0F912D15490A3
:10480000066274FFF0A37456F0A374C1F0900A9A84
:10481000E0FCA3E0FDA3E0FEA3E0FFEC127E2AE4AF
:10482000FBFA79807847127D1490066512839B7B92
:10483000017A0579FB129B28900A6A7401F0A3742F
:1048400005F0A374FBF09005F6E0FBA3E0FAA3E00B
:10485000F912D15490066274FFF0A37456F0A37459
:10486000CBF0900A9EE0FCA3E0FDA3E0FEA3E0FFF6
:10487000EC127E2AE4FBFA79807847127D149006C8
:104880006512839B7B017A0579FB129B28900A6A4B
:104890007401F0A37405F0A374FBF09005F6E0FB3F
:1048A000A3E0FAA3E0F912D154900A6A74FFF0A3CE
:1048B0007455F0A37421F09005F6E0FBA3E0FAA391
:1048C000E0F912D154900AA2E0B4031E900A6A746F
:1048D000FFF0A37456F0A374EFF09005F6E0FBA38D
:1048E000E0FAA3E0F912D154801C900A6A74FFF038
:1048F000A37457F0A37409F09005F6E0FBA3E0FA67
:10490000A3E0F912D154900AA3E014603814605364
:1049100014606E14700302499F1470030249BD2491
:104920000560030249D9900A6A74FFF0A37457F036
:10493000A37422F09005F6E0FBA3E0FAA3E0F912DD
:10494000D1540249D9900A6A74FFF0A37457F0A3B6
:104950007434F09005F6E0FBA3E0FAA3E0F912D17D
:10496000548076900A6A74FFF0A37457F0A37449D8
:10497000F09005F6E0FBA3E0FAA3E0F912D1548031
:1049800058900A6A74FFF0A37457F0A37468F0900B
:1049900005F6E0FBA3E0FAA3E0F912D154803A90C7
:1049A0000A6A74FFF0A37457F0A37483F09005F6BD
:1049B000E0FBA3E0FAA3E0F912D154801C900A6A4C
:1049C00074FFF0A37457F0A3749AF09005F6E0FB1F
:1049D000A3E0FAA3E0F912D154900AA4E014602EE7
:1049E00014604914606414607F24046003024A84E4
:1049F000900A6A74FFF0A37457F0A374B5F09005A1
:104A0000F6E0FBA3E0FAA3E0F912D1548076900A15
:104A10006A74FFF0A37457F0A374CEF09005F6E02B
:104A2000FBA3E0FAA3E0F912D1548058900A6A740B
:104A3000FFF0A37457F0A374E2F09005F6E0FBA337
:104A4000E0FAA3E0F912D154803A900A6A74FFF0B8
:104A5000A37457F0A374FAF09005F6E0FBA3E0FA14
:104A6000A3E0F912D154801C900A6A74FFF0A37479
:104A700058F0A3741FF09005F6E0FBA3E0FAA3E062
:104A8000F912D154900AE9E0601E900A6A74FFF0AE
:104A9000A37458F0A37447F09005F6E0FBA3E0FA86
:104AA000A3E0F912D154801C900A6A74FFF0A37439
:104AB00058F0A37468F09005F6E0FBA3E0FAA3E0D9
:104AC000F912D15490066274FFF0A37458F0A374E5
:104AD00088F0900AEAE0FE3395E0900665F0A3CEF8
:104AE000F07B017A0579FB129B28900A6A7401F029
:104AF000A37405F0A374FBF09005F6E0FBA3E0FAC5
:104B0000A3E0F912D154900A6A74FFF0A37458F02C
:104B1000A374A1F09005F6E0FBA3E0FAA3E0F9127C
:104B2000D154E49005F9F0A3F0C39005FAE09403A2
:104B30009005F9E0648094804003024BC5900662C2
:104B400074FFF0A37456F0A37436F09005F9E0FCFE
:104B5000A3E0FD2401FEE43C900665F0A3CEF074D2
:104B6000A52DF582740A3CF583E0FF900667E4F01A
:104B7000A3EFF07B017A0579FB129B28900A6A74F7
:104B800001F0A37405F0A374FBF09005F6E0FBA31D
:104B9000E0FAA3E0F912D154900A6A74FFF0A3740A
:104BA00055F0A37421F09005F6E0FBA3E0FAA3E032
:104BB000F912D1549005FAE004F070069005F9E07E
:104BC00004F0024B29900A6A74FFF0A37458F0A312
:104BD00074B6F09005F6E0FBA3E0FAA3E0F912D179
:104BE00054E49005F9F0A3F0C39005FAE094039023
:104BF00005F9E0648094804003024CAC9006627436
:104C0000FFF0A37458F0A374CCF09005F9E0FCA376
:104C1000E0FD2401FEE43C900665F0A3CEF0EDAE8D
:104C2000047802C333CE33CED8F924A8F582740AAF
:104C30003EF583E0FCA3E0FDA3E0FEA3E0FF9005CA
:104C4000F9E0FAA3E024A5F582740A3AF583E0F9C5
:104C5000F812830E90066712839B7B017A0579FB1D
:104C6000129B28900A6A7401F0A37405F0A374FBE8
:104C7000F09005F6E0FBA3E0FAA3E0F912D154901E
:104C80000A6A74FFF0A37455F0A37421F09005F63E
:104C9000E0FBA3E0FAA3E0F912D1549005FAE00496
:104CA000F070069005F9E004F0024BE8900A6A748F
:104CB000FFF0A37458F0A374D6F09005F6E0FBA3C0
:104CC000E0FAA3E0F912D154E49005F9F0A3F0C39F
:104CD0009005FAE094039005F9E064809480400325
:104CE000024D7D90066274FFF0A37458F0A374F037
:104CF000F09005F9E0FCA3E0FD2401FEE43C900601
:104D000065F0A3CEF0EDAE047802C333CE33CED837
:104D1000F924B4F582740A3EF583E0FCA3E0FDA318
:104D2000E0FEA3E0FF90066712839B7B017A057982
:104D3000FB129B28900A6A7401F0A37405F0A37417
:104D4000FBF09005F6E0FBA3E0FAA3E0F912D154E2
:104D5000900A6A74FFF0A37455F0A37421F09005D3
:104D6000F6E0FBA3E0FAA3E0F912D1549005FAE0D3
:104D700004F070069005F9E004F0024CCF900A6A46
:104D800074FFF0A37458F0A374F9F09005F6E0FBFB
:104D9000A3E0FAA3E0F912D15490066274FFF0A3E5
:104DA0007459F0A37411F0900AECE0FCA3E0FDA3A9
:104DB000E0FEA3E0FF90066512839B900AF0E0FC02
:104DC000A3E0FDA3E0FEA3E0FF90066912839B90A1
:104DD0000AF4E0FCA3E0FDA3E0FEA3E0FF90066D73
:104DE00012839B7B017A0579FB129B28900A6A74D7
:104DF00001F0A37405F0A374FBF09005F6E0FBA3AB
:104E0000E0FAA3E0F912D15490066274FFF0A374A3
:104E100059F0A3742AF0900AF8E0FCA3E0FDA3E0A7
:104E2000FEA3E0FF90066512839B900AFCE0FCA3C2
:104E3000E0FDA3E0FEA3E0FF90066912839B900BC8
:104E400000E0FCA3E0FDA3E0FEA3E0FF90066D12EE
:104E5000839B7B017A0579FB129B28900A6A740177
:104E6000F0A37405F0A374FBF09005F6E0FBA3E05B
:104E7000FAA3E0F912D154900A6A74FFF0A37455B2
:104E8000F0A37421F09005F6E0FBA3E0FAA3E0F9AB
:104E900012D15490066274FFF0A37459F0A37443C6
:104EA000F0900B80E0FF900665E4F0A3EFF07B014B
:104EB0007A0579FB129B28900A6A7401F0A37405A5
:104EC000F0A374FBF09005F6E0FBA3E0FAA3E0F991
:104ED00012D154900A6A74FFF0A37455F0A37421A0
:104EE000F09005F6E0FBA3E0FAA3E0F912D154E458
:104EF0009005F9F0A3F0C39005FAE094019005F94C
:104F0000E064809480400302500E90066274FFF0CB
:104F1000A37459F0A3745DF09005F9E0FCA3E0FDE3
:104F20002401FEE43C900665F0A3CEF0EDAE0478DB
:104F300002C333CE33CED8F92481F582740B3EF50B
:104F400083E0FCA3E0FDA3E0FEA3E0FF9005F9E011
:104F5000FAA3E02465F582740B3AF583E0F9F812C0
:104F6000830E90066712839B7B017A0579FB129B67
:104F700028900A6A7401F0A37405F0A374FBF09002
:104F800005F6E0FBA3E0FAA3E0F912D15490066223
:104F900074FFF0A37459F0A37483F09005F9E0FA5C
:104FA000A3E0FBAE027802C333CE33CED8F9248916
:104FB000F582740B3EF583E0FCA3E0FDA3E0FEA3C5
:104FC000E0FF74652BF582740B3AF583E0F9F81273
:104FD000830E90066512839B7B017A0579FB129BF9
:104FE00028900A6A7401F0A37405F0A374FBF09092
:104FF00005F6E0FBA3E0FAA3E0F912D1549005FA1C
:10500000E004F070069005F9E004F0024EF6900618
:105010006274FFF0A37459F0A37490F0900B91E0C8
:10502000A3E0A3E0FFA3E0900665CFF0A3EFF0902C
:105030000B95E0A3E0A3E0FFA3E0900667CFF0A309
:10504000EFF07B017A0579FB129B28900A6A7401C4
:10505000F0A37405F0A374FBF09005F6E0FBA3E069
:10506000FAA3E0F912D154900A6A74FFF0A37455C0
:10507000F0A37421F09005F6E0FBA3E0FAA3E0F9B9
:1050800012D15490066274FFF0A37459F0A374AC6B
:10509000F0900B99E0FFA3E0900665CFF0A3EFF04E
:1050A0007B017A0579FB129B28900A6A7401F0A3B0
:1050B0007405F0A374FBF09005F6E0FBA3E0FAA3FF
:1050C000E0F912D154900A6A74FFF0A37455F0A36A
:1050D0007421F09005F6E0FBA3E0FAA3E0F912D109
:1050E0005490066274FFF0A37459F0A374BEF0905C
:1050F0000B9BE0FFA3E0900665CFF0A3EFF0900BD1
:105100009DE0FFA3E0900667CFF0A3EFF07B017A6C
:105110000579FB129B28900A6A7401F0A37405F0CC
:10512000A374FBF09005F6E0FBA3E0FAA3E0F9120C
:10513000D154900A6A74FFF0A37455F0A37421F05F
:105140009005F6E0FBA3E0FAA3E0F912D154900633
:105150006274FFF0A37459F0A374E0F0900BA0E028
:10516000FCA3E0FDA3E0FEA3E0FF90066512839B95
:10517000900BA4E0FCA3E0FDA3E0FEA3E0FF9006FB
:105180006912839B7B017A0579FB129B28900A6A3E
:105190007401F0A37405F0A374FBF09005F6E0FB36
:1051A000A3E0FAA3E0F912D154900A6A74FFF0A3C5
:1051B0007455F0A37421F09005F6E0FBA3E0FAA388
:1051C000E0F912D154900B9FE0601E900A6A74FFC0
:1051D000F0A3745AF0A37404F09005F6E0FBA3E08A
:1051E000FAA3E0F912D154801C900A6A74FFF0A36C
:1051F000745AF0A3741FF09005F6E0FBA3E0FAA345
:10520000E0F912D15490066274FFF0A3745AF0A32F
:105210007439F0900BA8E0FF900665E4F0A3EFF07E
:105220007B017A0579FB129B28900A6A7401F0A32E
:105230007405F0A374FBF09005F6E0FBA3E0FAA37D
:10524000E0F912D154900A6A74FFF0A37455F0A3E8
:105250007421F09005F6E0FBA3E0FAA3E0F912D187
:105260005490066274FFF0A3745AF0A3744BF0904C
:105270000BCAE0FCA3E0FDA3E0FEA3E0FF900665FF
:1052800012839B7B017A0579FB129B28900A6A7432
:1052900001F0A37405F0A374FBF09005F6E0FBA306
:1052A000E0FAA3E0F912D154900A6A74FFF0A374F3
:1052B00055F0A37421F09005F6E0FBA3E0FAA3E01B
:1052C000F912D15490066274FFF0A3745AF0A374DB
:1052D00064F0E4FFFE7D7A7C44900BCEE0F8A3E01E
:1052E000F9A3E0FAA3E0FB127C0B90066512839B06
:1052F0007B017A0579FB129B28900A6A7401F0A35E
:105300007405F0A374FBF09005F6E0FBA3E0FAA3AC
:10531000E0F912D154900A6A74FFF0A37455F0A317
:105320007421F09005F6E0FBA3E0FAA3E0F912D1B6
:105330005490066274FFF0A3745AF0A3748AF0903C
:105340000BC6E0FCA3E0FDA3E0FEA3E0FF900AA5EE
:10535000E0F9F812830E900665EEF0A3EFF07B0102
:105360007A0579FB129B28900A6A7401F0A37405F0
:10537000F0A374FBF09005F6E0FBA3E0FAA3E0F9DC
:1053800012D154900A6A74FFF0A37455F0A37421EB
:10539000F09005F6E0FBA3E0FAA3E0F912D15490F7
:1053A000066274FFF0A3745AF0A3749CF0900BD2C1
:1053B000E0FCA3E0FDA3E0FEA3E0FF9006651283FE
:1053C0009B7B017A0579FB129B28900A6A7401F095
:1053D000A37405F0A374FBF09005F6E0FBA3E0FADC
:1053E000A3E0F912D154900A6A74FFF0A37455F047
:1053F000A37421F09005F6E0FBA3E0FAA3E0F91214
:10540000D15490066274FFF0A3745AF0A374ABF009
:10541000900C17E0F8A3E0F9A3E0FAA3E0FB900CEE
:10542000E6E0FCA3E0FDA3E0FEA3E0C39BFFEE9A51
:10543000FEED99FDEC98FC90066512839B7B017A4A
:105440000579FB129B28900A6A7401F0A37405F099
:10545000A374FBF09005F6E0FBA3E0FAA3E0F912D9
:10546000D154900A6A74FFF0A37455F0A37421F02C
:105470009005F6E0FBA3E0FAA3E0F912D154222054
:105480005945530000204E4F000020557362000024
:105490002048616E646C65000020454D47207072A5
:1054A0006F706F7274696F6E616C000020454D47BC
:1054B00020696E74656772616C000020454D47205D
:1054C00046434653000020454D472046434653205F
:1054D000416476616E636564000020506F73697487
:1054E000696F6E00002050574D00002043757272A6
:1054F000656E74000020506F736974696F6E20616F
:105500006E642043757272656E74000020506F7374
:105510006974696F6E20616E642052657374000057
:10552000000D0A004669726D7761726520766572BA
:1055300073696F6E3A200053482D50524F207636D3
:105540002E312E31202D204D617374657220772FFE
:105550005265737420706F736974696F6E002E0DDD
:105560000A0D0A0044455649434520494E464F0D11
:105570000A0049443A2025640D0A0050574D207214
:10558000657363616C696E672061637469766174C9
:10559000696F6E3A20005945530A004E4F0A005079
:1055A000574D204C696D69743A2025640D0A004DF1
:1055B0004F544F5220494E464F0D0A004D6F746FA5
:1055C00072207265666572656E636500202D2043EA
:1055D000757272656E74733A2000202D2050776DBD
:1055E0003A2000202D20506F736974696F6E3A2045
:1055F00000256420004D6F746F7220656E61626CCF
:1056000065643A20005945530D0A004E4F0D0A00BB
:105610000D0A4D4541535552454D454E5453204971
:105620004E464F0D0A0053656E736F722076616CA3
:1056300075653A0D0A002564202D3E202564004240
:1056400061747465727920566F6C74616765202887
:105650006D56293A20256C640046756C6C20636891
:105660006172676520706F7765722074656E73690B
:105670006F6E20286D56293A20256C6400437572A0
:1056800072656E7420286D41293A20256C64000DE6
:105690000A44455649434520504152414D455445E1
:1056A00052530D0A0050494420436F6E74726F6C60
:1056B0006C65723A0D0A0050202D3E202566202090
:1056C0000049202D3E20256620200044202D3E202C
:1056D00025660D0A0043757272656E742050494448
:1056E00020436F6E74726F6C6C65723A0D0A0053D2
:1056F0007461727475702061637469766174696F26
:105700006E3A205945530D0A0053746172747570D6
:105710002061637469766174696F6E3A204E4F0D33
:105720000A00496E707574206D6F64653A20555398
:10573000420D0A00496E707574206D6F64653A20E1
:1057400048616E646C650D0A00496E707574206D59
:105750006F64653A20454D472070726F706F7274A8
:10576000696F6E616C0D0A00496E707574206D6F03
:1057700064653A20454D4720696E74656772616CB7
:105780000D0A00496E707574206D6F64653A20458E
:105790004D4720464346530D0A00496E70757420EC
:1057A0006D6F64653A20454D47204643465320417E
:1057B00044560D0A00436F6E74726F6C206D6F64F7
:1057C000653A20506F736974696F6E0D0A00436FFC
:1057D0006E74726F6C206D6F64653A2050574D0D7A
:1057E0000A00436F6E74726F6C206D6F64653A20AF
:1057F00043757272656E740D0A00436F6E74726F3A
:105800006C206D6F64653A20506F736974696F6EB8
:1058100020616E642043757272656E740D0A0043D8
:105820006F6E74726F6C206D6F64653A20506F7389
:105830006974696F6E20616E6420526573742063B1
:105840006865636B0D0A004162736F6C7574652047
:10585000656E636F64657220706F736974696F6ED3
:105860003A205945530D0A004162736F6C75746597
:1058700020656E636F64657220706F736974696F01
:105880006E3A204E4F0D0A004D6F746F722D4861B5
:105890006E646C6520526174696F3A2025640D0A4C
:1058A0000053656E736F72207265736F6C757469E7
:1058B0006F6E3A0D0A004D6561737572656D656EA8
:1058C00074204F66667365743A0D0A002564202DB6
:1058D0003E20256C64004D6561737572656D656E63
:1058E00074204D756C7469706C6965723A0D0A00AC
:1058F0002564202D3E2025660043757272656E7406
:10590000206C6F6F6B7570207461626C653A0D0A64
:1059100000705B305D202D20705B325D3A20256683
:105920002C2025662C2025660A00705B335D202D17
:1059300020705B355D3A2025662C2025662C2025BD
:10594000660A00506F736974696F6E206C696D69C7
:1059500074206163746976653A20256400506F7322
:105960006974696F6E206C696D6974206D6F746FF6
:10597000722025643A20696E66202D3E20256C64D5
:10598000202000737570202D3E20256C640D0A00C8
:105990004D6178207374657020706F7320616E6440
:1059A000206E65673A202564202564004375727275
:1059B000656E74206C696D69743A20256400454DEC
:1059C00047207468726573686F6C6473205B302065
:1059D0002D20313032345D3A2025752C202575007C
:1059E000454D47206D61782076616C756573205B4D
:1059F00030202D20343039365D3A20256C752C202E
:105A0000256C750043616C6962726174696F6E2008
:105A1000656E61626C65643A205945530D0A004316
:105A2000616C6962726174696F6E20656E61626C2F
:105A300065643A204E4F0D0A00454D47206D617850
:105A40002073706565643A20256400526573742084
:105A500074696D652064656C617920286D73293ADD
:105A600020256600526573742076656C6F636974D7
:105A70007920636C6F7375726520287469636B732A
:105A80002F736563293A2025660052657374207070
:105A90006F736974696F6E3A202564005265737480
:105AA00020726174696F3A202566006465627567CB
:105AB0003A20256C64000000000000000000000097
:105AC00000000000000000000000000000000000D6
:105AD00000000000000000000000000000000000C6
:105AE00000000000000000000000000000000000B6
:105AF00000000000000000000000000000000000A6
:1067600000000000000000000031202D204465766C
:106770006963652049443A0032202D20506F7369C7
:1067800074696F6E20504944205B502C20492C20A6
:10679000445D3A0033202D2043757272656E74207B
:1067A000504944205B502C20492C20445D3A003451
:1067B000202D205374617274757020416374697662
:1067C0006174696F6E3A000000000035202D204989
:1067D0006E707574206D6F64653A000000000000F3
:1067E0000000000000000000000000000036202D26
:1067F00020436F6E74726F6C206D6F64653A000099
:106800000000000000000000000000000000000088
:106810000000000037202D205265736F6C7574697D
:106820006F6E733A0038202D204D65617375726567
:106830006D656E74204F6666736574733A00392017
:106840002D204D756C7469706C696572733A0031F6
:1068500030202D20506F732E206C696D697420617B
:1068600063746976653A00000000003131202D2004
:10687000506F732E206C696D697473205B696E664E
:106880002C207375705D3A003132202D204D6178D7
:10689000207374657073205B6E65672C20706F7356
:1068A0005D3A003133202D2043757272656E74207D
:1068B0006C696D69743A003134202D20454D4720B4
:1068C00063616C6962726174696F6E206F6E2073B0
:1068D0007461727475703A00000000003135202D2B
:1068E00020454D47207468726573686F6C64733A15
:1068F000003136202D20454D47206D61782076618E
:106900006C7565733A003137202D20454D47206D59
:1069100061782073706565643A003138202D20411C
:1069200062736F6C75746520656E636F6465722049
:10693000706F736974696F6E3A000000000031393E
:10694000202D204D6F746F722068616E646C65201D
:10695000726174696F3A003230202D2050574D20FB
:1069600072657363616C696E673A00000000003203
:1069700031202D205265737420706F736974696FB4
:106980006E3A003232202D205265737420706F737E
:106990006974696F6E2074696D652064656C6179D6
:1069A00020286D73293A003233202D2052657374EC
:1069B0002076656C20636C6F73757265202874692E
:1069C000636B732F736563293A003234202D205294
:1069D00065737420726174696F3A003235202D201E
:1069E00043757272656E74206C6F6F6B75703A00D0
:1069F00030202D3E205573620A31202D3E20486103
:106A00006E646C650A32202D3E20454D4720707221
:106A10006F706F7274696F6E616C0A33202D3E2047
:106A2000454D4720496E74656772616C0A34202DAC
:106A30003E20454D4720464346530A35202D3E20F3
:106A4000454D47204643465320416476616E636559
:106A5000640A0030202D3E20506F736974696F6E98
:106A60000A31202D3E2050574D0A32202D3E204322
:106A7000757272656E740A33202D3E20506F7369F3
:106A800074696F6E20616E642043757272656E74F6
:106A90000A34202D3E20506F736974696F6E207721
:106AA0002E207265737420636865636B0A00003082
:106AB000202D3E2044656163746976617465205BB6
:106AC0004E4F5D0A31202D3E20416374697661741A
:106AD00065205B5945535D0A00E4F526F525F5244C
:106AE000F523900A72E0FCA3E0FDA3E0FEA3E0F52D
:106AF000428E418D408C3FA3E0FCA3E0FDA3E0FE6D
:106B0000A3E0F5468E458D448C43A3E0FCA3E0FD55
:106B1000A3E0FEA3E0F54A8E498D488C47A3E0FC34
:106B2000A3E0FDA3E0FEA3E0F54E8E4D8D4C8C4B13
:106B3000A3E0FCA3E0FDA3E0FEA3E0F5528E518D9F
:106B4000508C4FA3E0FCA3E0FDA3E0FEA3E0F556CC
:106B50008E558D548C53A3E0FCA3E0FDA3E0FEA36F
:106B6000E0F55A8E598D588C57A3E0FCA3E0FDA3A5
:106B7000E0FEA3E0F55E8E5D8D5C8C5BA3E0FCA384
:106B8000E0FDA3E0FEA3E0F5628E618D608C5FA363
:106B9000E0FCA3E0FDA3E0FEA3E0F5668E658D6456
:106BA0008C63A3E0FCA3E0FDA3E0FEA3E0F56A8E06
:106BB000698D688C67A3E0FCA3E0FDA3E0FEA3E081
:106BC000F56E8E6D8D6C8C6B900ADBE0FEA3E0FFA2
:106BD000FBAA06E4900D12E0FCA3E0FDA3E0FEA3F7
:106BE000E0C39BF53AEE9AF539ED9400F538EC9454
:106BF00000F537900ADDE0FEA3E0FFFBAA06E49073
:106C00000D16E0FCA3E0FDA3E0FEA3E0C39BF53E70
:106C1000EE9AF53DED9400F53CEC9400F53B900ABE
:106C2000A3E024FE7003026D8E147003026DEC1459
:106C30007003026EE11470030270442404600302C6
:106C400071DB900AE9E06024A3E0FF3395E0FEFDEC
:106C5000FC900D03E0F8A3E0F9A3E0FAA3E0FB1237
:106C6000819C8F368E358D348C338024900AEAE0F7
:106C7000FF3395E0FEFDFC900CFFE0F8A3E0F9A3E4
:106C8000E0FAA3E0FB12819C8F368E358D348C3375
:106C9000900B17E0F8A3E0F9A3E0FAA3E0FBC3E54B
:106CA000369BFFE5359AFEE53499FDE53398FC9077
:106CB0000AD1E0F8A3E0F9A3E0FAA3E0FBC3128253
:106CC000D45044E4FFFEFDFC900AD1E0F8A3E0A319
:106CD000E0A3E0C31282D4602E900B17E0FCA3E087
:106CE000FDA3E0FEA3E0FF900AD1E0F8A3E0A3E05B
:106CF000A3E0EF2BFFEE3AFEED39FDEC38FC900BF4
:106D00001712839B0271DB900B17E0F8A3E0F9A345
:106D1000E0FAA3E0FBC3E5369BFFE5359AFEE534D8
:106D200099FDE53398FC900AD5E0F8A3E0F9A3E0DB
:106D3000FAA3E0FBD31282D44043E4FFFEFDFC90B3
:106D40000AD5E0F8A3E0A3E0A3E01282D4602E907D
:106D50000B17E0FCA3E0FDA3E0FEA3E0FF900AD543
:106D6000E0F8A3E0A3E0A3E0EF2BFFEE3AFEED395D
:106D7000FDEC38FC900B1712839B0271DBAF36AE33
:106D800035AD34AC33900B1712839B0271DBE4FFFB
:106D9000FEFDFCAB3AAA39A938A837D31282D440F9
:106DA0003D900B89E0FCA3E0FDA3E0FEA3E0FFA87B
:106DB0003712819CC006C007900ADBE0FEA3E0FF0B
:106DC000C3E49FFF74049EFEAB07FAE4F9F8D00712
:106DD000D00612D644900B1712839B0271DBE4FF9E
:106DE000FEFDFC900B1712839B0271DB900C1FE0E1
:106DF000FCA3E0FDA3E0FEA3E0FF900B1712839B32
:106E0000E4FFFEFDFCAB3AAA39A938A837D31282B9
:106E1000D44056900BA8E0FFE4FCFDFEA837128199
:106E20009CE47B02FAF9F812819CC006C007900A24
:106E3000DBE0FEA3E0FFC3E49FFF74049EFEAB070C
:106E4000FAE4F9F8D007D00612D644900C1FE0F807
:106E5000A3E0F9A3E0FAA3E02FFFEA3EFEE93DFD3F
:106E6000E83CFC900B1712839BE4FFFEFDFCAB3E5D
:106E7000AA3DA93CA83BD31282D450030271DB90F7
:106E80000BA8E0FFE4FCFDFEA83B12819CE47B0222
:106E9000FAF9F812819CC006C007900ADDE0FEA353
:106EA000E0FFC3E49FFF74049EFEAB07FAE4F9F829
:106EB000D007D00612D644A804A905AA06AB0790AD
:106EC0000C1FE0FCA3E0FDA3E0FEA3E0C39BFFEEEC
:106ED0009AFEED99FDEC98FC900B1712839B0271C2
:106EE000DB900C1FE0FCA3E0FDA3E0FEA3E0FF901D
:106EF0000B1712839B900DD0E014604814700302AE
:106F00006FBE240260030271DBE4FFFEFDFCAB3ABE
:106F1000AA39A938A837D31282D44009900DD07469
:106F200001F00271DBE4FFFEFDFCAB3EAA3DA93C93
:106F3000A83BD31282D450030271DB900DD07402AF
:106F4000F00271DBE4FFFEFDFCAB3AAA39A938A8D8
:106F500037C31282D45008E4900DD0F00271DB9058
:106F60000BA8E0FFE4FCFDFEAB3AAA39A938A8372C
:106F700012819CE47B02FAF9F812819CC006C007DA
:106F8000900ADBE0FEA3E0FFC3E49FFF74049EFED3
:106F9000AB07FAE4F9F8D007D00612D644900C1FDC
:106FA000E0F8A3E0F9A3E0FAA3E02FFFEA3EFEE950
:106FB0003DFDE83CFC900B1712839B0271DBE4FF64
:106FC000FEFDFCAB3EAA3DA93CA83BC31282D450B7
:106FD00008E4900DD0F00271DB900BA8E0FFE4FC18
:106FE000FDFEAB3EAA3DA93CA83B12819CE47B027E
:106FF000FAF9F812819CC006C007900ADDE0FEA3F2
:10700000E0FFC3E49FFF74049EFEAB07FAE4F9F8C7
:10701000D007D00612D644A804A905AA06AB07904B
:107020000C1FE0FCA3E0FDA3E0FEA3E0C39BFFEE8A
:107030009AFEED99FDEC98FC900B1712839B027160
:10704000DB0271DB900C1FE0FCA3E0FDA3E0FEA3DC
:10705000E0FF900B1712839B900DD0E01460481452
:107060007003027140240260030271DBE4FFFEFD45
:10707000FCAB3AAA39A938A837D31282D440099078
:107080000DD07401F00271DBE4FFFEFDFCAB3EAA03
:107090003DA93CA83BD31282D450030271DB900D72
:1070A000D07402F00271DBE4FFFEFDFCAB3AAA39BA
:1070B000A938A837C31282D4501BE4FFFEFDFCABF5
:1070C0003EAA3DA93CA83BC31282D45008E4900DCF
:1070D000D0F00271DBE4FFFEFDFCAB3AAA39A9381F
:1070E000A837D31282D450030271DB900BA8E0FFC3
:1070F000E4FCFDFEA83712819C7802128322C006B0
:10710000C007900ADBE0FEA3E0FFC3E49FFF740426
:107110009EFEAB07FAE4F9F8D007D00612D64490E9
:107120000C1FE0F8A3E0F9A3E0FAA3E02FFFEA3E8A
:10713000FEE93DFDE83CFC900B1712839B0271DBDE
:10714000E4FFFEFDFCAB3AAA39A938A837C3128286
:10715000D4501AE4FFFEFDFCAB3EAA3DA93CA83B7F
:10716000C31282D45007E4900DD0F0806EE4FFFE8D
:10717000FDFCAB3EAA3DA93CA83BD31282D4405BA8
:10718000900AE8E0FFE4FCFDFEA83B12819C780237
:10719000128322C006C007900ADDE0FEA3E0FFC311
:1071A000E49FFF74049EFEAB07FAE4F9F8D007D021
:1071B0000612D644A804A905AA06AB07900C1FE046
:1071C000FCA3E0FDA3E0FEA3E0C39BFFEE9AFEED6F
:1071D00099FDEC98FC900B1712839B900AC0E0601D
:1071E0006AA3E0FCA3E0FDA3E0FEA3E0FF900B1781
:1071F000E0F8A3E0F9A3E0FAA3E0FBC31282D450C5
:1072000014900AC1E0FCA3E0FDA3E0FEA3E0FF9020
:107210000B1712839B900AC9E0FCA3E0FDA3E0FEDC
:10722000A3E0FF900B17E0F8A3E0F9A3E0FAA3E0D6
:10723000FBD31282D44014900AC9E0FCA3E0FDA362
:10724000E0FEA3E0FF900B1712839B900AA4E0706E
:10725000030276361470030279F01470030277C4C7
:10726000146003027A5E900CFBE0F8A3E0F9A3E05F
:10727000FAA3E0FB900B17E0FCA3E0FDA3E0FEA364
:10728000E0C39BF52AEE9AF529ED99F528EC98F5DF
:1072900027900DC0E0FCA3E0FDA3E0FEA3E0252ABB
:1072A000FFEE3529FEED3528FDEC3527FC900DC0AD
:1072B00012839B7F807EF07DFA7C02900DC0E0F807
:1072C000A3E0F9A3E0FAA3E0FBD31282D440107F3D
:1072D000807EF07DFA7C02900DC012839B802A7F15
:1072E000807E0F7D057CFD900DC0E0F8A3E0F9A342
:1072F000E0FAA3E0FBC31282D4500E7F807E0F7DA4
:10730000057CFD900DC012839BE4F532F531F5301C
:10731000F52FFFFEFDFCAB5AAA59A958A857C31276
:1073200082D46026AF2AAE29AD28AC27A857128197
:107330009C781012830EE5322FF532E5313EF5319F
:10734000E5303DF530E52F3CF52FE4FFFEFDFCABCD
:107350005EAA5DA95CA85BC31282D4602C900DC0AC
:10736000E0FCA3E0FDA3E0FEA3E0FFA85B12819C8C
:10737000781012830EE5322FF532E5313EF531E516
:10738000303DF530E52F3CF52FE4FFFEFDFCAB6210
:10739000AA61A960A85FC31282D46043900DC8E0BF
:1073A000F8A3E0F9A3E0FAA3E0FBC3E52A9BFFE51D
:1073B000299AFEE52899FDE52798FCAB62AA61A908
:1073C00060A85F12819C781012830EE5322FF5328F
:1073D000E5313EF531E5303DF530E52F3CF52FAF99
:1073E0002AAE29AD28AC27900DC812839BE4FFFE7E
:1073F000FDFCAB32AA31A930A82FC31282D44004BD
:10740000D20E8002C20E900AD9E0FEA3E0FFEE3356
:1074100095E0FDFCAB32AA31A930A82FD31282D45B
:107420004016900AD9E0FEA3E0FFEE3395E08F32DC
:107430008E31F530F52F803C900AD9E0FEA3E0FFB5
:10744000C3E49FFFE49EFE3395E0FDFCAB32AA311E
:10745000A930A82FC31282D4501A900AD9E0FEA3F3
:10746000E0FFC3E49FFFE49EFE3395E08F328E3150
:10747000F530F52F900D07E0F8A3E0F9A3E0FAA3AB
:10748000E0FBC3E5329BF52EE5319AF52DE5309909
:10749000F52CE52F98F52B900DC4E0FCA3E0FDA39F
:1074A000E0FEA3E0252EFFEE352DFEED352CFDECA4
:1074B000352BFC900DC412839B7FA07E867D017CC2
:1074C00000900DC4E0F8A3E0F9A3E0FAA3E0FBD339
:1074D0001282D440107FA07E867D017C00900DC476
:1074E00012839B802A7F607E797DFE7CFF900DC495
:1074F000E0F8A3E0F9A3E0FAA3E0FBC31282D450C2
:107500000E7F607E797DFE7CFF900DC412839BE42C
:10751000F526F525F524F523FFFEFDFCAB66AA65EF
:10752000A964A863C31282D46026AF2EAE2DAD2C01
:10753000AC2BA86312819C781012830EE5262FF5E0
:1075400026E5253EF525E5243DF524E5233CF523F8
:10755000E4FFFEFDFCAB6AAA69A968A867C31282B2
:10756000D4602C900DC4E0FCA3E0FDA3E0FEA3E0FA
:10757000FFA86712819C781012830EE5262FF5264E
:10758000E5253EF525E5243DF524E5233CF523E4FA
:10759000FFFEFDFCAB6EAA6DA96CA86BC31282D472
:1075A0006043900DCCE0F8A3E0F9A3E0FAA3E0FB80
:1075B000C3E52E9BFFE52D9AFEE52C99FDE52B9862
:1075C000FCAB6EAA6DA96CA86B12819C781012831B
:1075D0000EE5262FF526E5253EF525E5243DF52487
:1075E000E5233CF52374FF7F9CFEFDFCAB26AA251A
:1075F000A924A823C31282D4500D74FF75269CF5CC
:1076000025F524F523801EE47F64FEFDFCAB26AA4D
:1076100025A924A823D31282D4400AE4752664F550
:1076200025F524F523AF2EAE2DAD2CAC2B900DCC33
:1076300012839B027A5E900CFBE0F8A3E0F9A3E0D2
:10764000FAA3E0FB900B17E0FCA3E0FDA3E0FEA390
:10765000E0C39BF52AEE9AF529ED99F528EC98F50B
:1076600027900DC0E0FCA3E0FDA3E0FEA3E0252AE7
:10767000FFEE3529FEED3528FDEC3527FC900DC0D9
:1076800012839BE47FE87E03FDFC900DC0E0F8A32D
:10769000E0F9A3E0FAA3E0FBD31282D4400FE47F29
:1076A000E87E03FDFC900DC012839B802A7F187E2C
:1076B000FC7DFF7CFF900DC0E0F8A3E0F9A3E0FAA9
:1076C000A3E0FBC31282D4500E7F187EFC7DFF7CAA
:1076D000FF900DC012839BE4FFFEFDFCAB42AA416C
:1076E000A940A83FC31282D4601AAF2AAE29AD28A0
:1076F000AC27A83F12819C781012830E8F268E250E
:107700008D248C23E4FFFEFDFCAB46AA45A944A8CA
:1077100043C31282D4602C900DC0E0FCA3E0FDA313
:10772000E0FEA3E0FFA84312819C781012830EE5CF
:10773000262FF526E5253EF525E5243DF524E52310
:107740003CF523E4FFFEFDFCAB4AAA49A948A84743
:10775000C31282D46043900DC8E0F8A3E0F9A3E01F
:10776000FAA3E0FBC3E52A9BFFE5299AFEE52899E9
:10777000FDE52798FCAB4AAA49A948A84712819C75
:10778000781012830EE5262FF526E5253EF525E532
:10779000243DF524E5233CF523AF2AAE29AD28ACE2
:1077A00027900DC812839BE4FFFEFDFCAB26AA25A3
:1077B000A924A823D31282D44005D20E027A5EC235
:1077C0000E027A5E900B2FE07003027A5E200D03AA
:1077D000027A5E900B1FE0FCA3E0FDA3E0FEA3E0B5
:1077E000F5328E318D308C2F900AD9E0FEA3E0FF68
:1077F000EE3395E0FDFCAB32AA31A930A82FD312AD
:1078000082D44016900AD9E0FEA3E0FFEE3395E063
:107810008F328E31F530F52F803C900AD9E0FEA3EF
:10782000E0FFC3E49FFFE49EFE3395E0FDFCAB3236
:10783000AA31A930A82FC31282D4501A900AD9E0D5
:10784000FEA3E0FFC3E49FFFE49EFE3395E08F328A
:107850008E31F530F52F900D07E0F8A3E0F9A3E0A5
:10786000FAA3E0FBC3E5329BF52EE5319AF52DE551
:107870003099F52CE52F98F52B900DC4E0FCA3E092
:10788000FDA3E0FEA3E0252EFFEE352DFEED352C09
:10789000FDEC352BFC900DC412839B7FA07E867D72
:1078A000017C00900DC4E0F8A3E0F9A3E0FAA3E0A6
:1078B000FBD31282D440107FA07E867D017C009095
:1078C0000DC412839B802A7F607E797DFE7CFF90B1
:1078D0000DC4E0F8A3E0F9A3E0FAA3E0FBC3128231
:1078E000D4500E7F607E797DFE7CFF900DC41283A4
:1078F0009BE4F526F525F524F523FFFEFDFCAB4EB4
:10790000AA4DA94CA84BC31282D46026AF2EAE2D2F
:10791000AD2CAC2BA84B12819C781012830EE5265F
:107920002FF526E5253EF525E5243DF524E5233C08
:10793000F523E4FFFEFDFCAB52AA51A950A84FC3AA
:107940001282D4602C900DC4E0FCA3E0FDA3E0FE05
:10795000A3E0FFA84F12819C781012830EE5262F1A
:10796000F526E5253EF525E5243DF524E5233CF502
:1079700023E4FFFEFDFCAB56AA55A954A853C3123D
:1079800082D46043900DCCE0F8A3E0F9A3E0FAA321
:10799000E0FBC3E52E9BFFE52D9AFEE52C99FDE566
:1079A0002B98FCAB56AA55A954A85312819C781069
:1079B00012830EE5262FF526E5253EF525E5243D27
:1079C000F524E5233CF523AF2EAE2DAD2CAC2B904A
:1079D0000DCC12839BE4FFFEFDFCAB26AA25A92457
:1079E000A823C31282D44004D20E8072C20E806ECD
:1079F000900B27E0FCA3E0FDA3E0FEA3E0F5268EBC
:107A0000258D248C23E4FFFEFDFCAB26AA25A924AA
:107A1000A823D31282D44004D20E8002C20E74FF77
:107A20007F9CFEFDFCAB26AA25A924A823C31282B5
:107A3000D4500D74FF75269CF525F524F523801E82
:107A4000E47F64FEFDFCAB26AA25A924A823D3125B
:107A500082D4400AE4752664F525F524F523E47FF5
:107A600064FEFDFCAB26AA25A924A823D31282D448
:107A7000400AE4752664F525F524F52374FF7F9C00
:107A8000FEFDFCAB26AA25A924A823C31282D4504C
:107A90000B74FF75269CF525F524F523900AA4E0C8
:107AA00064016037AF26AE25AD24AC23780A12837B
:107AB00022E47B64FAF9F812D644A804A905AA06C0
:107AC000AB07900D37E0FFE4FCFDFE12819C780AC5
:107AD00012830E8F268E258D248C23E4FFFEFDFC61
:107AE000AB26AA25A924A823C31282D440047F016F
:107AF00080027FFF900CF6EFF0300E077F0112E15D
:107B0000F08005E4FF12E1F0AE25AF2612E0C412CA
:107B1000E1D822027ED4E86480F8E933E8336011CA
:107B20000460F0ED33EC337009E8FCE9FDEAFEEBAC
:107B3000FF220460DED3EB9FEA9EE99DE8C2E78C5A
:107B4000F0C2F795F0400CE8CCF8E9CDF9EACEFAAE
:107B5000EBCFFB127E9F85D0F05804700320D5B385
:107B6000E80470075002B2D5027EDE92D5EC0460C4
:107B7000F7E4CCC0E0C398F8603B94186008400D6F
:107B8000D0E0FB027EB6E4FBFAC9FC8028E830E4D2
:107B900006E4C9FBE4CAFCE830E305E4C9CACBFC4F
:107BA000E854076010F8C3E913F9EA13FAEB13FB82
:107BB000EC13FCD8F130F52FC3E49CFCEF9BFFEEF7
:107BC0009AFEED99FDD0E0FBEF4E4D4C701222DB9A
:107BD00003027EDBEC2CFCEF33FFEE33FEED33FDD6
:107BE000ED30E7EB027EB6EF2BFFEE3AFEED39FD0E
:107BF000D0E0FB50130BBB0003027EDEED13FDEE65
:107C000013FEEF13FFEC13FC027EB6EC4D6011E89F
:107C1000497017ED33EC3304600DE4FCFFFEFD22E8
:107C2000E933E8330470F8027ED4127E9F58046072
:107C300009E4CC24815006285009027EDE28400346
:107C4000027EDBC0E0EB4A7044B98006D0E0FB0264
:107C50007ECAEF4E701CBD8008EBFFEAFEE9FD8096
:107C6000EBE98DF0A4FEE5F0027CF4E9CDF9EAFE43
:107C7000EBFFEF89F0A4FCE5F0CE89F0A42EFFE441
:107C800035F0CD89F0A42DFEE435F08067EF4E701D
:107C900005BD80D780C3EF8BF0A4ACF0EE8BF0A4D1
:107CA0002CFCE435F0F8EF8AF0A42CE5F038FCE485
:107CB00033CB8DF0A42CFCE5F03BF8EE8AF0A42C3D
:107CC000FCE5F038F8E433CF89F0A42CFCE5F0387B
:107CD000CF3400CE89F0A42FFFE5F03EFEE433C997
:107CE0008DF0A42EFEE5F039CD8AF0A42FFFE5F04B
:107CF0003EFEE43DFD33D0E0FB50070BBB000F021E
:107D00007EDEEC2CFCEF33FFEE33FEED33FD027E26
:107D1000B6027EDEEC5D046005E859047003027E65
:107D2000D4127E9F580460F6EC4860F2EC7004FDBB
:107D3000FEFF22C860DB2481C85009C3986002504E
:107D400006027EDB9850CAF582E9294B4A7005ABE2
:107D500082027ECA75F0007C1A7880C3EF9BEE9A8F
:107D6000ED99400DC3EF9BFFEE9AFEED99FDE842C1
:107D7000F0DC23ACF0D0E0FFD0E0FED0E0FDAB8241
:107D800020E7101BEB60BAEC2CFCEF33FFEE33FE68
:107D9000ED33FD027EB6E803F830E705C0F075F07C
:107DA00000EF2FFFEE33FEED33FD40B830E7C28029
:107DB000AA74F8CC6480CCC86480C8F58204604F93
:107DC000C3EB9FF5F0EA9E42F0E99D42F0E89C4546
:107DD000F0603C501DE5825FFFE582D313CB5BCBA7
:107DE000F42B5582FB50280ABA002409B900200858
:107DF000801DE5825BFBE582D313CF5FCFF4C31315
:107E00002F5582FF50090EBE00050DBD00010CC3A9
:107E1000EB9FF5F0EA9E42F0E99D42F0E89C45F0C8
:107E20006007CC4820E701B3EC2275F020800E7586
:107E3000F010800575F0087D007E007F003392D53C
:107E400030D5031282C6EC334010EF33FFEE33FE21
:107E5000ED33FDEC33FCD5F0ED22E5F0247EA2D528
:107E600013CC92E7CDCEFF22EDD2E7CD33EC3392A7
:107E7000D524814006E4FFFEFDFC22FCE4CFCECDFC
:107E8000CC24E0501174FF80EDC3CC13CCCD13CDC6
:107E9000CE13CECF13CF0470F030D5DE0282C6E908
:107EA000D2E7C933E833F892D5EDD2E7CD33EC33DE
:107EB000FC5002B2D522EC30E7100FBF000C0EBE12
:107EC00000080DBD00040BEB6014A2D5EB13FCED14
:107ED00092E7FD2274FFFCFDFEFF22E480F8A2D5AC
:107EE00074FF13FC7D80E480EFED33EC336010040D
:107EF000700FED547F7005740292E0227404220426
:107F000022E422ED33EC33600A047003BD8004ECFC
:107F1000B2E7FC22F920E73624F950037907E4F4AC
:107F20002402FBE582158270021583DBF6E024FB58
:107F3000501BE96014E4F0E582158270021583E0BD
:107F400004F0B40A08E4F0D9EE7401F00A22C2D5B4
:107F500022ED33EC3392D5FA602AB4FF33EDC2E759
:107F60007BFF60067A7F7976E4227A7F797F20D55D
:107F7000047A7F797A224E614E002B494E46002DBD
:107F8000494E4600E47A08F0A3DAFC7B007407222D
:107F9000C083C082ECC0E0EDC0E0EEC0E0EFC0E026
:107FA000EA75F010A4CAABF075F04DA42BFBE435D4
:107FB000F0FCEA2410FAEB34C5FBEC34D9FCEDC23A
:107FC000E7FF75F056A4F42411C5F0F434C58FF022
:107FD000A42AE5F03BE43CF020E714128086D0E0D0
:107FE000FFD0E0FED0E0FDD0E0FC127D148014F460
:107FF00004128086D0E0FFD0E0FED0E0FDD0E0FCAF
:10800000127C0BD082D083E0FAEDD2E7CD33EC3393
:108010002482FBE4C3CF33CFCE33CECD33CD33DB9D
:10802000F37B0775F00A846004F0A31B0AE5F0F007
:10803000A38FF0740AA4FFACF08EF0740AA42CFE97
:10804000ACF050010C8DF0740AA42CFDE435F0F076
:10805000A3DBDE7407223F8000004120000042C8FD
:108060000000447A0000461C400047C35000497499
:1080700024004B1896804CBEBC205A0E1BCA675376
:10808000C21C749DC5AEFB60065407601C232312FE
:1080900080B4EB543860091280A01280AF127C0BC0
:1080A000ECF8EDF9EEFAEFCB22EB1280AF80F15451
:1080B0003803241C908056FE93FC0EEE93FD0EEECA
:1080C000930ECE93FF22C0E0EFFBEEFAEDF9ECF851
:1080D000127C0BD0E0F5F0EFFBEEFAEDF9ECF812C4
:1080E000836FA3A3A3A3E8C0E0E9C0E0EAC0E0EB8C
:1080F000C0E0C0F0127C0B12838BA3A3A3A3127B5E
:108100001AD0F0D0E0FBD0E0FAD0E0F9D0E0F8D51A
:10811000F0D422BB010689828A83E0225002E72242
:10812000BBFE02E32289828A83E49322BB010CE531
:108130008229F582E5833AF583E0225006E925821B
:10814000F8E622BBFE06E92582F8E222E58229F55F
:1081500082E5833AF583E49322BB010689828A8310
:10816000F0225002F722BBFE01F322EF8DF0A4A80B
:10817000F0CF8CF0A428CE8DF0A42EFE22BB010AF5
:1081800089828A83F0E5F0A3F0225006F709A7F070
:108190001922BBFE06F3E5F009F31922E88FF0A4DB
:1081A000CC8BF0A42CFCE98EF0A42CFC8AF0EDA47E
:1081B0002CFCEA8EF0A4CDA8F08BF0A42DCC3825B1
:1081C000F0FDE98FF0A42CCD35F0FCEB8EF0A4FE91
:1081D000A9F0EB8FF0A4CFC5F02ECD39FEE43CFC26
:1081E000EAA42DCE35F0FDE43CFC2275F008758242
:1081F00000EF2FFFEE33FECD33CDCC33CCC5823331
:10820000C5829BED9AEC99E58298400CF582EE9B35
:10821000FEED9AFDEC99FC0FD5F0D6E4CEFBE4CD53
:10822000FAE4CCF9A88222B800C1B90059BA002DED
:10823000EC8BF084CFCECDFCE5F0CBF97818EF2FA6
:10824000FFEE33FEED33FDEC33FCEB33FB10D703D5
:10825000994004EB99FB0FD8E5E4F9FA227818EF7E
:108260002FFFEE33FEED33FDEC33FCC933C910D7DD
:10827000059BE99A4007EC9BFCE99AF90FD8E0E4EA
:10828000C9FAE4CCFB2275F010EF2FFFEE33FEEDC0
:1082900033FDCC33CCC833C810D7079BEC9AE89990
:1082A000400AED9BFDEC9AFCE899F80FD5F0DAE472
:1082B000CDFBE4CCFAE4C8F922CFF4CFCEF4CECD96
:1082C000F4CDCCF4CC22C3E49FFFE49EFEE49DFDFC
:1082D000E49CFC22EB9FF5F0EA9E42F0E99D42F01F
:1082E000EC6480C864809845F022EB9FF5F0EA9E2C
:1082F00042F0E99D42F0E89C45F022E8600FECC3B3
:1083000013FCED13FDEE13FEEF13FFD8F122E8602E
:1083100010ECA2E713FCED13FDEE13FEEF13FFD8F4
:10832000F022E8600FEFC333FFEE33FEED33FDECD8
:1083300033FCD8F122BB010789828A8302865E5012
:1083400005E9F8028652BBFE05E9F802866A8982D1
:108350008A8302836FBB010789828A8302839B50D1
:1083600005E9F8028676BBFE05E9F802868222E47A
:1083700093FC740193FD740293FE740393FF22E057
:10838000F8A3E0F9A3E0FAA3E0FB22E493F8740178
:1083900093F9740293FA740393FB22ECF0A3EDF0CB
:1083A000A3EEF0A3EFF022A8828583F0D083D082E1
:1083B0001283BE1283BE1283BE1283BEE473E493A3
:1083C000A3C583C5F0C583C8C582C8F0A3C583C54E
:1083D000F0C583C8C582C822F8E0FBA3A3E0F92555
:1083E000F0F0E582158270021583E0FA38F022EB96
:1083F000F0A3EAF0A3E9F022D083D082F8E49370EE
:1084000012740193700DA3A393F8740193F58288FD
:1084100083E4737402936860EFA3A3A380DFE51382
:108420002582F582E5123583F583B5120485821322
:108430002210AF06858213F51222858213F512D21F
:10844000AF22EC8EF0A4CCC5F0CCCDF8EFA4CEC515
:10845000F02DFDE43CFCE8A42EC8C5F03DFDE43C55
:10846000FCEFA4FFE5F028FEE43DFDE43CFC22E740
:1084700009F608DFFA8046E709F208DFFA803E884D
:10848000828C83E709F0A3DFFA8032E309F608DF84
:10849000FA806EE309F208DFFA806688828C83E353
:1084A00009F0A3DFFA805A89828A83E0A3F608DF05
:1084B000FA804E89828A83E0A3F208DFFA80428044
:1084C000D280FA80C680D4805580F28029801080C6
:1084D000A680EA809A80A880DA80E280CA80298813
:1084E000848C8589828A83E493A30586F0A305861C
:1084F000DFF5DEF3800B89828A83E493A3F608DF3D
:10850000F9ECFAA9F0EDFB2288848C8589828A83B4
:10851000E0A30586F0A30586DFF6DEF480E389821A
:108520008A83E493A3F208DFF980D688F0EF600134
:108530000E4E60CD88F0ED2402B4040050C3F582E5
:10854000EB2402B4040050B923234582239084BF56
:1085500073E709F60870FA8046E709F20870FA80B6
:108560003E88828C83E709F0A370FA8074E309F6F1
:108570000870FA806CE309F20870FA806488828CD3
:1085800083E309F0A370FA805889828A83E0A3F616
:108590000870FA804C89828A83E0A3F20870FA801E
:1085A0004080D280FA80C680D4805180F2802780BB
:1085B0001080A680EA809A80A880DA80E280CA8053
:1085C0002788848C8589828A83E493A30586F0A317
:1085D000058670F5800B89828A83E493A3F6087080
:1085E000F9ECFAA9F0EDFB2288848C8589828A83D4
:1085F000E0A30586F0A3058670F680E589828A836C
:10860000E493A3F20870F980D888F0ED2402B40452
:108610000050CEF582EB2402B4040050C42323455D
:1086200082239085A173C5F0F8A3E028F0C5F0F887
:10863000E582158270021583E038F022A3F8E0C5C8
:10864000F025F0F0E582158270021583E0C838F05D
:10865000E822E6FC08E6FD08E6FE08E6FF22E0FC6C
:10866000A3E0FDA3E0FEA3E0FF22E2FC08E2FD0898
:10867000E2FE08E2FF22ECF608EDF608EEF608EF5F
:10868000F622ECF208EDF208EEF208EFF2228F2368
:10869000E523C394034003028EFF300A227B03AF1D
:1086A000031BEF6018E4FFFEFDFCEB25E025E02452
:1086B000D1F582E4340DF58312839B80E2C20AE592
:1086C00023701812E14178011282FBEFEEED5403A2
:1086D000FDE4FC90000212839B8033E523B4011873
:1086E00012E10F78011282FBEFEEED5403FDE4FC82
:1086F00090000212839B801612E10578011282FB22
:10870000EFEEED5403FDE4FC90000212839B7B012D
:108710007A00790212D0E94003028950900002E009
:10872000FCA3E0FDA3E0FEA3E054C0FFEEED540384
:10873000FDE42FFFE43EFEED34FEFDE434FFFC7863
:10874000021282FBEE3395E0FDFCE52325E025E0F7
:108750002468F582E4340BF583E0F8A3E0F9A3E0A4
:10876000FAA3E02FFFEA3EFEE93DFDE83CFC900065
:108770000612839B300F27900006E0FCA3E0FDA3C8
:10878000E0FEA3E0FFE52325E025E024D1F582E427
:10879000340DF58312839BE523B40202C20FE52357
:1087A00025E025E024D1F582E4340DF583E0F8A33B
:1087B000E0F9A3E0FAA3E0FB900006E0FCA3E0FDF3
:1087C000A3E0FEA3E0C39BFFEE9AFEED99FDEC98BB
:1087D000FC90001212839BE4FF7EC0FDFC9000120F
:1087E000E0F8A3E0F9A3E0FAA3E0FBD31282D440BF
:1087F00010740F2523F582E4340DF583E014F08026
:10880000687F007E407DFF7CFF900012E0F8A3E0CF
:10881000F9A3E0FAA3E0FBC31282D45010740F2531
:1088200023F582E4340DF583E004F0803C900012DF
:10883000E0A3E0A3E0FEA3E0FF12E0C4D3EF9400C6
:10884000EE648094C0402274DD2523F582E4340D6B
:10885000F583E004F074DD2523F582E4340DF5831F
:10886000E0C3940A5003028EFF74DD2523F582E4F1
:10887000340DF583E4F0900006E0FCA3E0FDA3E0F6
:10888000FEA3E0FFE52325E025E024D1F582E434D2
:108890000DF58312839B900006E0F8A3E0F9A3E0B6
:1088A000FAA3E0FBC000740F2523F582E4340DF534
:1088B00083E0FF3395E0FEFDFC7810128322D000A8
:1088C000EB2FFFEA3EFEE93DFDE83CFC900006127E
:1088D000839BE52325E025E024B4F582E4340AF502
:1088E00083E0FCA3E0FDA3E0FEA3E0FFE4FBFA7954
:1088F00080783F127DB16038900006E0FCA3E0FD77
:10890000A3E0FEA3E0FFEC127E2AE52325E025E0AC
:1089100024B4F582E4340AF583E0F8A3E0F9A3E097
:10892000FAA3E0FB127C0B127E6890000612839B78
:10893000900006E0FCA3E0FDA3E0FEA3E0FFE5233A
:1089400025E025E024FBF582E4340CF58312839BBB
:10895000E523147003028A06147003028AA7240216
:108960006003028B45E47F03FEFDFC900006E0F807
:10897000A3E0F9A3E0FAA3E0FB12819C900DE1E0F3
:10898000F8A3E0F9A3E0FAA3E02FFFEA3EFEE93DF9
:10899000FDE83CFC900DEDE0F8A3E0F9A3E0FAA3BC
:1089A000E0FBC3EF9BFFEE9AFEED99FDEC98FCC057
:1089B00004C005C006C007E47F03FEFDFC900DF96E
:1089C000E0F8A3E0F9A3E0FAA3E0FB12819CA8047D
:1089D000A905AA06AB07D007D006D005D004C3EF7F
:1089E0009BFFEE9AFEED99FDEC98FCE47B0AFAF908
:1089F000F812819C12C8BBEE3395E0FDFC90000A92
:108A000012839B028B45E47F03FEFDFC900006E091
:108A1000F8A3E0F9A3E0FAA3E0FB12819C900DE536
:108A2000E0F8A3E0F9A3E0FAA3E02FFFEA3EFEE9B5
:108A30003DFDE83CFC900DF1E0F8A3E0F9A3E0FA7D
:108A4000A3E0FBC3EF9BFFEE9AFEED99FDEC98FCD3
:108A5000C004C005C006C007E47F03FEFDFC900D06
:108A6000FDE0F8A3E0F9A3E0FAA3E0FB12819CA8E3
:108A700004A905AA06AB07D007D006D005D004C3C9
:108A8000EF9BFFEE9AFEED99FDEC98FCE47B0AFA71
:108A9000F9F812819C12C93EEE3395E0FDFC90007E
:108AA0000A12839B028B45E47F03FEFDFC900006C7
:108AB000E0F8A3E0F9A3E0FAA3E0FB12819C900D9B
:108AC000E9E0F8A3E0F9A3E0FAA3E02FFFEA3EFE15
:108AD000E93DFDE83CFC900DF5E0F8A3E0F9A3E0EA
:108AE000FAA3E0FBC3EF9BFFEE9AFEED99FDEC9835
:108AF000FCC004C005C006C007E47F03FEFDFC9077
:108B00000E01E0F8A3E0F9A3E0FAA3E0FB12819CD8
:108B1000A804A905AA06AB07D007D006D005D00443
:108B2000C3EF9BFFEE9AFEED99FDEC98FCE47B0A07
:108B3000FAF9F812819C12C9C1EE3395E0FDFC9060
:108B4000000A12839B90000AE0FCA3E0FDA3E0FE74
:108B5000A3E0FFE52325E025E0241AF582E4340DA7
:108B6000F58312839BE523147003028C1B1470039E
:108B7000028CBC24026003028D5AE47F03FEFDFCDC
:108B800090000AE0F8A3E0F9A3E0FAA3E0FB128169
:108B90009C900E05E0F8A3E0F9A3E0FAA3E02FFF14
:108BA000EA3EFEE93DFDE83CFC900E11E0F8A3E052
:108BB000F9A3E0FAA3E0FBC3EF9BFFEE9AFEED9969
:108BC000FDEC98FCC004C005C006C007E47F03FEAE
:108BD000FDFC900E1DE0F8A3E0F9A3E0FAA3E0FB92
:108BE00012819CA804A905AA06AB07D007D006D01D
:108BF00005D004C3EF9BFFEE9AFEED99FDEC98FCC7
:108C0000E47B0AFAF9F812819C12CA44EE3395E02B
:108C1000FDFC90000E12839B028D5AE47F03FEFD43
:108C2000FC90000AE0F8A3E0F9A3E0FAA3E0FB124D
:108C3000819C900E09E0F8A3E0F9A3E0FAA3E02FED
:108C4000FFEA3EFEE93DFDE83CFC900E15E0F8A38E
:108C5000E0F9A3E0FAA3E0FBC3EF9BFFEE9AFEED81
:108C600099FDEC98FCC004C005C006C007E47F0372
:108C7000FEFDFC900E21E0F8A3E0F9A3E0FAA3E0EA
:108C8000FB12819CA804A905AA06AB07D007D00651
:108C9000D005D004C3EF9BFFEE9AFEED99FDEC9852
:108CA000FCE47B0AFAF9F812819C12CAC7EE3395EC
:108CB000E0FDFC90000E12839B028D5AE47F03FEC0
:108CC000FDFC90000AE0F8A3E0F9A3E0FAA3E0FBC2
:108CD00012819C900E0DE0F8A3E0F9A3E0FAA3E066
:108CE0002FFFEA3EFEE93DFDE83CFC900E19E0F85E
:108CF000A3E0F9A3E0FAA3E0FBC3EF9BFFEE9AFE2B
:108D0000ED99FDEC98FCC004C005C006C007E47FE7
:108D100003FEFDFC900E25E0F8A3E0F9A3E0FAA322
:108D2000E0FB12819CA804A905AA06AB07D007D0D6
:108D300006D005D004C3EF9BFFEE9AFEED99FDEC43
