:1026000002CA65008F828E83E0540100000070F8DA
:102610002278FFE4F6D8FD02CAF3900020EEF0A382
:10262000EFF078227C007D017BFF7A53798C7E0964
:102630007F931295759009B57409F0A37493F0789F
:10264000BC7C097D017BFF7A5D791F7E007F0F12C4
:10265000957578CB7C097D017BFF7A5D792E7E00B4
:102660007F1C12957578E77C097D017BFF7A5D7987
:102670004A7E007F1B12957578027C0A7D017BFFE4
:102680007A5D79657E007F1C129575781E7C0A7DC7
:10269000017BFF7A5D79817E007F221295757840FB
:1026A0007C0A7D017BFF7A5D79A37E007F271295EE
:1026B0007578677C0A7D017BFF7A5D79CA7E007F31
:1026C0001112957578787C0A7D017BFF7A5D79DB44
:1026D0007E007F1912957578917C0A7D017BFF7AC7
:1026E0005D79F47E007F1112957578A27C0A7D01D8
:1026F0007BFF7A5E79057E007F1C12957578BE7C23
:102700000A7D017BFF7A5E79217E007F1D1295751F
:1027100078DB7C0A7D017BFF7A5E793E7E007F1B41
:1027200012957578F67C0A7D017BFF7A5E79597E79
:10273000007F14129575780A7C0B7D017BFF7A5E11
:10274000796D7E007F25129575782F7C0B7D017B3E
:10275000FF7A5E79927E007F1512957578447C0B26
:102760007D017BFF7A5E79A77E007F1512957578D3
:10277000597C0B7D017BFF7A5E79BC7E007F141251
:102780009575786D7C0B7D017BFF7A5E79D07E003C
:102790007F2412957578917C0B7D017BFF7A5E79A1
:1027A000F47E007F1912957578AA7C0B7D017BFF62
:1027B0007A5F790D7E007F1812957578C27C0B7D4B
:1027C000017BFF7A5F79257E007F1D12957578DF8A
:1027D0007C0B7D017BFF7A5F79427E007F1412952E
:1027E0007578F37C0B7D017BFF7A5F79567E007FE5
:1027F0002412957578177C0C7D017BFF7A5F797ABE
:102800007E007F23129575783A7C0C7D017BFF7AE0
:102810005F799D7E007F11129575784B7C0C7D0150
:102820007BFF7A5F79AE7E007F1512957578607CAC
:102830000C7D017BFF7A5F79C37E007F2412957542
:1028400078847C0C7D017BFF7A5F79E77E007F23B3
:1028500012957578A77C0C7D017BFF7A60790A7EE2
:10286000007F2912957578D07C0C7D017BFF7A6002
:1028700079337E007F2812957578F87C0C7D017B7A
:10288000FF7A60795B7E007F2C12957578247C0D31
:102890007D017BFF7A6079877E007F2012957578B5
:1028A000447C0D7D017BFF7A6079A77E007F231237
:1028B000957578677C0D7D017BFF7A6079CA7E0013
:1028C0007F25129575788C7C0D7D017BFF7A607970
:1028D000EF7E007F12129575789E7C0D7D017BFF47
:1028E0007A6179017E007F1612957578B47C0D7D32
:1028F000017BFF7A6179177E007F1F12957578D36F
:102900007C0D7D017BFF7A6179367E007F1D1295FB
:102910007578F07C0D7D017BFF7A6179537E007FB5
:102920001412957578047C0E7D017BFF7A617967BE
:102930007E007F6412957578687C0E7D017BFF7A3E
:102940006179CB7E007F3F12957578A77C0E7D0163
:102950007BFF7A62790A7E007F2A1295757B017A65
:102960000979BC12F0788F2E7B017A0979CB12F0AD
:10297000788F2F7B017A0979E712F0788F307B010D
:102980007A0A796712F0788F317B017A0A797812A6
:10299000F0788F327B017A0A799112F0788F337B4D
:1029A000017A0A79BE12F0788F347B017A0A79DBDA
:1029B00012F0788F357B017A0A79F612F0788F362B
:1029C0007B017A0B792F12F0788F377B017A0B79A4
:1029D0004412F0788F387B017A0B795912F0788F96
:1029E000397B017A0B799112F0788F3A7B017A0C5E
:1029F000794B12F0788F3B7B017A0E790412F078D4
:102A00008F3C7B017A0E796812F0788F3D7B017ADA
:102A10000E79A712F0788F3E7B017A0B79DF12F0E6
:102A2000788F3F7B017A0B79F312F0788F407B012E
:102A30007A0C791712F0788F417B017A0C793A126F
:102A4000F0788F427B017A0C79D012F0788F437B3B
:102A5000017A0C79F812F0788F447B017A0D792491
:102A600012F0788F457B017A0D794412F0788F4609
:102A70007B017A0D796712F0788F477B017A0D79A7
:102A80008C12F0788F487B017A0D799E12F0788F46
:102A9000497B017A0D79B412F0788F4A7B017A0D67
:102AA00079D312F0788F4B7B017A0D79F012F078A0
:102AB0008F4C900022740CF0A37427F0900020E05B
:102AC000FEA3E0FFEE60030245B7EFB42800400329
:102AD0000245B7902ADAF8282873022B52023F5891
:102AE000023F6102403102410102411402411D02D4
:102AF00041260241510241CF02420C0242150242DC
:102B0000EB02437102438102438A0243A90243D28A
:102B10000243DB0243F20243FB02440402440D027F
:102B2000443F02445402448702449C0244D9024474
:102B3000F002450702451E02453302454302455354
:102B400002456802457D02458602458F024598028E
:102B500045A89000247402F0A314F0900EDBE090DE
:102B60000026F0852E2CE52C6032FFC3E52E9FFF5A
:102B7000E49400FE74BC2FF58274093EF583E0FFF7
:102B8000E52CFDE52EC39DFDE49400FC74272DF596
:102B90008274003CF583EFF0152C80CA90005674C7
:102BA00007F0A37403F0900F0EE064036068900ECA
:102BB000DCE0FCA3E0FDA3E0FEA3E0FFEC128F4904
:102BC000E4FBFA79807847128E33900058129416FD
:102BD000900EE0E0FCA3E0FDA3E0FEA3E0FFEC121A
:102BE0008F49E4FBFA79807847128E3390005C12AB
:102BF0009416900EE4E0FCA3E0FDA3E0FEA3E0FF4A
:102C0000EC128F49E4FBFA79807847128E339000FA
:102C1000601294168066900EF4E0FCA3E0FDA3E041
:102C2000FEA3E0FFEC128F49E4FBFA7980784712AB
:102C30008E33900058129416900EF8E0FCA3E0FD3D
:102C4000A3E0FEA3E0FFEC128F49E4FBFA79807861
:102C500047128E3390005C129416900EFCE0FCA399
:102C6000E0FDA3E0FEA3E0FFEC128F49E4FBFA795C
:102C7000807847128E33900060129416852F2CE5D1
:102C80002C6032FFC3E52F9FFFE49400FE74CB2F2E
:102C9000F58274093EF583E0FFE52CFDE52FC39D29
:102CA000FDE49400FC74642DF58274003CF583EF20
:102CB000F0152C80CA9000887407F0A37403F0907C
:102CC0000F0EE064036068900EE8E0FCA3E0FDA353
:102CD000E0FEA3E0FFEC128F49E4FBFA798078472D
:102CE000128E3390008A129416900EECE0FCA3E052
:102CF000FDA3E0FEA3E0FFEC128F49E4FBFA79802C
:102D00007847128E3390008E129416900EF0E0FCED
:102D1000A3E0FDA3E0FEA3E0FFEC128F49E4FBFA81
:102D200079807847128E33900092129416806690C4
:102D30000F00E0FCA3E0FDA3E0FEA3E0FFEC128F98
:102D400049E4FBFA79807847128E3390008A129416
:102D500016900F04E0FCA3E0FDA3E0FEA3E0FFEC6F
:102D6000128F49E4FBFA79807847128E3390008EF7
:102D7000129416900F08E0FCA3E0FDA3E0FEA3E090
:102D8000FFEC128F49E4FBFA79807847128E33907A
:102D9000009212941685302CE52C6032FFC3E5308A
:102DA0009FFFE49400FE74E72FF58274093EF583DB
:102DB000E0FFE52CFDE530C39DFDE49400FC749636
:102DC0002DF58274003CF583EFF0152C80CAE49059
:102DD00000BAF0A304F0900F0CE09000BCF0900F4C
:102DE0000C601C900ED474FFF0A37445F0A374B86B
:102DF000F07B017A0A790212E2D9752D1C801A90B3
:102E00000ED474FFF0A37445F0A374BEF07B017A76
:102E10000A790212E2D9752D1B852D2CE52C603222
:102E2000FFC3E52D9FFFE49400FE74022FF582742A
:102E30000A3EF583E0FFE52CFDE52DC39DFDE494FE
:102E400000FC74BD2DF58274003CF583EFF0152C69
:102E500080CA74BD252DF582E43400F5837403F037
:102E6000E49000ECF0A304F0900F0DE09000EEF081
:102E7000900F0DB407004003022F5B902E82F828BC
:102E80002873022E97022EB4022ED1022EED022FAD
:102E900009022F25022F41900ED474FFF0A3744530
:102EA000F0A374C3F07B017A0A791E12E2D9752D62
:102EB00014022F5B900ED474FFF0A37445F0A3743A
:102EC000C9F07B017A0A791E12E2D9752D17022FFB
:102ED0005B900ED474FFF0A37445F0A374D2F07B22
:102EE000017A0A791E12E2D9752D21806E900ED4D6
:102EF00074FFF0A37445F0A374E5F07B017A0A79BE
:102F00001E12E2D9752D1D8052900ED474FFF0A3CD
:102F10007445F0A374F4F07B017A0A791E12E2D9A9
:102F2000752D198036900ED474FFF0A37445F0A36C
:102F300074FFF07B017A0A791E12E2D9752D228086
:102F40001A900ED474FFF0A37446F0A37413F07BB0
:102F5000017A0A791E12E2D9752D19852D2CE52CDE
:102F60006032FFC3E52D9FFFE49400FE741E2FF531
:102F700082740A3EF583E0FFE52CFDE52DC39DFD3F
:102F8000E49400FC74EF2DF58274003CF583EFF0BF
:102F9000152C80CA74EF252DF582E43400F5837476
:102FA00001F0E490011EF0A304F0900F0EE09001F8
:102FB00020F0900F0E14602614603F146058240314
:102FC000706E900ED474FFF0A37446F0A3741EF0DC
:102FD0007B017A0A794012E2D9752D1B8052900E3E
:102FE000D474FFF0A37446F0A37429F07B017A0A2D
:102FF000794012E2D9752D168036900ED474FFF008
:10300000A37446F0A3742FF07B017A0A794012E290
:10301000D9752D1A801A900ED474FFF0A37446F05F
:10302000A37439F07B017A0A794012E2D9752D2711
:10303000852D2CE52C6032FFC3E52D9FFFE4940025
:10304000FE74402FF582740A3EF583E0FFE52CFD07
:10305000E52DC39DFDE49400FC74212DF5827401DF
:103060003CF583EFF0152C80CA7421252DF582E400
:103070003401F5837402F0900150F0A304F0E4F5FC
:103080002CE52CC39403501E740F252CF582E434D8
:103090000FF583E0FF7452252CF582E43401F583AB
:1030A000EFF0052C80DB85312CE52C6032FFC3E589
:1030B000319FFFE49400FE74672FF582740A3EF599
:1030C00083E0FFE52CFDE531C39DFDE49400FC7435
:1030D000552DF58274013CF583EFF0152C80CA90D4
:1030E00001827403F0A3F0E4F52CE52CC3940350A3
:1030F00044E52C25E025E02412F582E4340FF58325
:10310000E0FCA3E0FDA3E0FEA3E0FF740F252CF597
:1031100082E4340FF583E0F9F81293B575F002E517
:103120002CA42484F582E5F03401F583EEF0A3EFBE
:10313000F0052C80B585322CE52C6032FFC3E532DA
:103140009FFFE49400FE74782FF582740A3EF583A5
:10315000E0FFE52CFDE532C39DFDE49400FC748A9C
:103160002DF58274013CF583EFF0152C80CA900197
:10317000B47407F0A37403F0E4F52CE52CC39403B6
:103180005031E52C25E025E0241EF582E4340FF5CE
:1031900083E0FCA3E0FDA3E0FEA3E0FF75F004E5FF
:1031A0002CA424B6F582E5F03401F58312941605BB
:1031B0002C80C885332CE52C6032FFC3E5339FFF9C
:1031C000E49400FE74912FF582740A3EF583E0FFCB
:1031D000E52CFDE533C39DFDE49400FC74C22DF5A0
:1031E0008274013CF583EFF0152C80CAE49001E66F
:1031F000F0A304F0900F2AE09001E8F0900F2A600D
:103200001C900ED474FFF0A37445F0A374B8F07B47
:10321000017A0A79A212E2D9752D1C801A900ED477
:1032200074FFF0A37445F0A374BEF07B017A0A79B1
:10323000A212E2D9752D1B852D2CE52C6032FFC31F
:10324000E52D9FFFE49400FE74A22FF582740A3EE0
:10325000F583E0FFE52CFDE52DC39DFDE49400FC26
:1032600074E92DF58274013CF583EFF0152C80CACA
:1032700074E9252DF582E43401F5837403F090029E
:10328000187405F0A37402F0E4F52CE52CC3940146
:103290004003023316E52C25E025E0242BF582E4DB
:1032A000340FF583E0FCA3E0FDA3E0FEA3E0FF7490
:1032B0000F252CF582E4340FF583E0F9F81293B56D
:1032C00075F008E52CA4241AF582E5F03402F583A4
:1032D000129416E52C25E025E02433F582E4340F22
:1032E000F583E0FCA3E0FDA3E0FEA3E0FF740F255F
:1032F0002CF582E4340FF583E0F9F81293B575F0FC
:1033000008E52CA4241EF582E5F03402F58312941E
:1033100016052C02328B85342CE52C6032FFC3E578
:10332000349FFFE49400FE74BE2FF582740A3EF5CC
:1033300083E0FFE52CFDE534C39DFDE49400FC74BF
:10334000222DF58274023CF583EFF0152C80CA9093
:10335000024A7405F0A37402F0900F3FE0FCA3E072
:10336000FDA3E0FEA3E0FF90024C129416900F3BE9
:10337000E0FCA3E0FDA3E0FEA3E0FF900250129466
:103380001685352CE52C6032FFC3E5359FFFE494AC
:1033900000FE74DB2FF582740A3EF583E0FFE52C16
:1033A000FDE535C39DFDE49400FC74542DF5827455
:1033B000023CF583EFF0152C80CA90027C7403F078
:1033C000A37401F0900F43E0FFA3E090027ECFF0E2
:1033D000A3EFF085362CE52C6032FFC3E5369FFF66
:1033E000E49400FE74F62FF582740A3EF583E0FF44
:1033F000E52CFDE536C39DFDE49400FC74802DF5BD
:103400008274023CF583EFF0152C80CAE49002AE82
:10341000F0A304F0900F49E09002B0F0900F4960E3
:103420001C900ED474FFF0A37445F0A374B8F07B25
:10343000017A0B790A12E2D9752D25801A900ED4E3
:1034400074FFF0A37445F0A374BEF07B017A0B798E
:103450000A12E2D9752D24852D2CE52C6032FFC38C
:10346000E52D9FFFE49400FE740A2FF582740B3E55
:10347000F583E0FFE52CFDE52DC39DFDE49400FC04
:1034800074B12DF58274023CF583EFF0152C80CADF
:1034900074B1252DF582E43402F5837403F09002B3
:1034A000E004F0A37402F0900F45E0FFA3E0900267
:1034B000E2CFF0A3EFF0900F47E0FFA3E09002E42B
:1034C000CFF0A3EFF085372CE52C6032FFC3E53752
:1034D0009FFFE49400FE742F2FF582740B3EF5835A
:1034E000E0FFE52CFDE537C39DFDE49400FC74E6A8
:1034F0002DF58274023CF583EFF0152C80CA900301
:10350000127406F0A37402F0900F4AE0FCA3E0FDF1
:10351000A3E0FEA3E0FF900314129416900F4EE078
:10352000FCA3E0FDA3E0FEA3E0FF900318129416B5
:1035300085382CE52C6032FFC3E5389FFFE494000A
:10354000FE74442FF582740B3EF583E0FFE52CFDFD
:10355000E538C39DFDE49400FC741C2DF5827403D2
:103560003CF583EFF0152C80CA9003447402F0A35D
:1035700014F0900F52E0900346F085392CE52C6052
:1035800032FFC3E5399FFFE49400FE74592FF582A2
:10359000740B3EF583E0FFE52CFDE539C39DFDE4AA
:1035A0009400FC74472DF58274033CF583EFF0150D
:1035B0002C80CAE4900376F0A304F0900F53E090BF
:1035C0000378F0900F53601C900ED474FFF0A37436
:1035D00045F0A374B8F07B017A0B796D12E2D975CE
:1035E0002D24801A900ED474FFF0A37445F0A374B8
:1035F000BEF07B017A0B796D12E2D9752D23852DF2
:103600002CE52C6032FFC3E52D9FFFE49400FE748F
:103610006D2FF582740B3EF583E0FFE52CFDE52D63
:10362000C39DFDE49400FC74792DF58274033CF590
:1036300083EFF0152C80CA7479252DF582E43403CC
:10364000F5837403F09003A87401F0A3F0900F5475
:10365000E09003AAF0853A2CE52C6032FFC3E53AEE
:103660009FFFE49400FE74912FF582740B3EF58366
:10367000E0FFE52CFDE53AC39DFDE49400FC74AB4E
:103680002DF58274033CF583EFF0152C80CAE4908D
:1036900003DAF0A304F0900F55E09003DCF0900FF4
:1036A00055601C900ED474FFF0A37445F0A374B859
:1036B000F07B017A0B79AA12E2D9752D18801A9045
:1036C0000ED474FFF0A37445F0A374BEF07B017AAE
:1036D0000B79AA12E2D9752D17852D2CE52C6032B5
:1036E000FFC3E52D9FFFE49400FE74AA2FF58274BA
:1036F0000B3EF583E0FFE52CFDE52DC39DFDE49435
:1037000000FC74DD2DF58274033CF583EFF0152C7D
:1037100080CA74DD252DF582E43403F5837403F04B
:10372000E490040CF0A304F0900F70E090040EF00D
:10373000900F70601C900ED474FFF0A37445F0A33A
:1037400074B8F07B017A0B79C212E2D9752D1D8015
:103750001A900ED474FFF0A37445F0A374BEF07BEE
:10376000017A0B79C212E2D9752D1C852D2CE52C1E
:103770006032FFC3E52D9FFFE49400FE74C22FF575
:1037800082740B3EF583E0FFE52CFDE52DC39DFD26
:10379000E49400FC740F2DF58274043CF583EFF083
:1037A000152C80CA740F252DF582E43404F583743A
:1037B00003F090043E7405F0A37401F0900F71E0E3
:1037C000FCA3E0FDA3E0FEA3E0FF900F0FE0F9F8FB
:1037D0001293B5900440129416853F2CE52C60326C
:1037E000FFC3E53F9FFFE49400FE74DF2FF5827472
:1037F0000B3EF583E0FFE52CFDE53FC39DFDE49422
:1038000000FC74442DF58274043CF583EFF0152C14
:1038100080CA9004707407F0A37401F0900F75E0F3
:10382000FCA3E0FDA3E0FEA3E0FF90047212941657
:1038300085402CE52C6032FFC3E5409FFFE49400F7
:10384000FE74F32FF582740B3EF583E0FFE52CFD4B
:10385000E540C39DFDE49400FC74762DF58274046C
:103860003CF583EFF0152C80CA9004A27407F0A3F6
:103870007401F0E4FFFE7D7A7C44900F79E0F8A3B8
:10388000E0F9A3E0FAA3E0FB128D2A9004A41294BD
:103890001685412CE52C6032FFC3E5419FFFE4947F
:1038A00000FE74172FF582740C3EF583E0FFE52CC3
:1038B000FDE541C39DFDE49400FC74A82DF58274E0
:1038C000043CF583EFF0152C80CA9004D47407F003
:1038D000A37401F0900F7DE0FCA3E0FDA3E0FEA344
:1038E000E0FF9004D612941685422CE52C6032FF3E
:1038F000C3E5429FFFE49400FE743A2FF582740CF6
:103900003EF583E0FFE52CFDE542C39DFDE4940018
:10391000FC74DA2DF58274043CF583EFF0152C80ED
:10392000CA9005067407F0A314F0E4F52CE52CC347
:1039300094065031E52C25E025E02456F582E43448
:103940000FF583E0FCA3E0FDA3E0FEA3E0FF75F02C
:1039500004E52CA42408F582E5F03405F5831294DF
:1039600016052C80C8853B2CE52C6032FFC3E53B57
:103970009FFFE49400FE744B2FF582740C3EF58398
:10398000E0FFE52CFDE53BC39DFDE49400FC7420C5
:103990002DF58274053CF583EFF0152C80CAE49078
:1039A0000538F0A304F0900F83E090053AF0900FF3
:1039B00083601C900ED474FFF0A37445F0A374B818
:1039C000F07B017A0C796012E2D9752D24801A906F
:1039D0000ED474FFF0A37445F0A374BEF07B017A9B
:1039E0000C796012E2D9752D23852D2CE52C6032DF
:1039F000FFC3E52D9FFFE49400FE74602FF58274F1
:103A00000C3EF583E0FFE52CFDE52DC39DFDE49420
:103A100000FC743B2DF58274053CF583EFF0152C0A
:103A200080CA743B252DF582E43405F5837403F0D8
:103A3000E490056AF0A304F0900F81E090056CF02B
:103A4000900F81601C900ED474FFF0A37445F0A316
:103A500074B8F07B017A0C798412E2D9752D238039
:103A60001A900ED474FFF0A37445F0A374BEF07BDB
:103A7000017A0C798412E2D9752D22852D2CE52C42
:103A80006032FFC3E52D9FFFE49400FE74842FF5A0
:103A900082740C3EF583E0FFE52CFDE52DC39DFD12
:103AA000E49400FC746D2DF58274053CF583EFF011
:103AB000152C80CA746D252DF582E43405F58374C8
:103AC00003F0E490059CF0A304F0900F82E09005D1
:103AD0009EF0900F82601C900ED474FFF0A374458A
:103AE000F0A374B8F07B017A0C79A712E2D9752D96
:103AF00029801A900ED474FFF0A37445F0A374BE0D
:103B0000F07B017A0C79A712E2D9752D28852D2C2E
:103B1000E52C6032FFC3E52D9FFFE49400FE74A7FF
:103B20002FF582740C3EF583E0FFE52CFDE52DC3F7
:103B30009DFDE49400FC749F2DF58274053CF58393
:103B4000EFF0152C80CA749F252DF582E43405F51D
:103B5000837403F09005CE7407F0A37401F0900F06
:103B600084E0FCA3E0FDA3E0FEA3E0FF9005D012FB
:103B7000941685432CE52C6032FFC3E5439FFFE498
:103B80009400FE74D02FF582740C3EF583E0FFE5BF
:103B90002CFDE543C39DFDE49400FC74D42DF58217
:103BA00074053CF583EFF0152C80CA900600740371
:103BB000F0A37401F0900F88E0FFA3E0900602CF1D
:103BC000F0A3EFF085442CE52C6032FFC3E5449F61
:103BD000FFE49400FE74F82FF582740C3EF583E048
:103BE000FFE52CFDE544C39DFDE49400FC74042D29
:103BF000F58274063CF583EFF0152C80CA900632EE
:103C00007403F0A37401F0900F8AE0FFA3E0900624
:103C100034CFF0A3EFF085452CE52C6032FFC3E5EF
:103C2000459FFFE49400FE74242FF582740D3EF549
:103C300083E0FFE52CFDE545C39DFDE49400FC74A5
:103C4000362DF58274063CF583EFF0152C80CA9072
:103C500006647405F0A37401F0900F8CE0FCA3E0FF
:103C6000FDA3E0FEA3E0FF90066612941685462CA5
:103C7000E52C6032FFC3E5469FFFE49400FE7444E8
:103C80002FF582740D3EF583E0FFE52CFDE546C37C
:103C90009DFDE49400FC746A2DF58274063CF58366
:103CA000EFF0152C80CA9006967405F0A37401F00D
:103CB000900F90E0FCA3E0FDA3E0FEA3E0FF9006E0
:103CC0009812941685472CE52C6032FFC3E5479F78
:103CD000FFE49400FE74672FF582740D3EF583E0D7
:103CE000FFE52CFDE547C39DFDE49400FC749C2D8D
:103CF000F58274063CF583EFF0152C80CA9006C857
:103D00007402F0A314F0900F94E09006CAF0854876
:103D10002CE52C6032FFC3E5489FFFE49400FE745D
:103D20008C2FF582740D3EF583E0FFE52CFDE54810
:103D3000C39DFDE49400FC74CB2DF58274063CF524
:103D400083EFF0152C80CA9006FA7402F0A314F0E9
:103D5000900F95E09006FCF085492CE52C6032FF31
:103D6000C3E5499FFFE49400FE749E2FF582740D15
:103D70003EF583E0FFE52CFDE549C39DFDE494009D
:103D8000FC74FD2DF58274063CF583EFF0152C8054
:103D9000CA90072C7402F0A314F0900F96E09007DD
:103DA0002EF0854A2CE52C6032FFC3E54A9FFFE4E4
:103DB0009400FE74B42FF582740D3EF583E0FFE5A8
:103DC0002CFDE54AC39DFDE49400FC742F2DF58283
:103DD00074073CF583EFF0152C80CA90075E7404DD
:103DE000F0A37401F0900F97E0FFA3E0900760CF7D
:103DF000F0A3EFF0854B2CE52C6032FFC3E54B9F21
:103E0000FFE49400FE74D32FF582740D3EF583E039
:103E1000FFE52CFDE54BC39DFDE49400FC74622D91
:103E2000F58274073CF583EFF0152C80CA9007905B
:103E30007404F0A37401F0900F99E0FFA3E09007E1
:103E400092CFF0A3EFF0854C2CE52C6032FFC3E558
:103E50004C9FFFE49400FE74F02FF582740D3EF544
:103E600083E0FFE52CFDE54CC39DFDE49400FC746C
:103E7000942DF58274073CF583EFF0152C80CA85EC
:103E80003C2CE52C6032FFC3E53C9FFFE49400FE30
:103E900074042FF582740E3EF583E0FFE52CFDE5FA
:103EA0003CC39DFDE49400FC74C22DF58274073C74
:103EB000F583EFF0152C80CA853D2CE52C6032FF90
:103EC000C3E53D9FFFE49400FE74682FF582740EF5
:103ED0003EF583E0FFE52CFDE53DC39DFDE4940048
:103EE000FC74582DF58274083CF583EFF0152C8096
:103EF000CA853E2CE52C6032FFC3E53E9FFFE4946B
:103F000000FE74A72FF582740E3EF583E0FFE52CCA
:103F1000FDE53EC39DFDE49400FC74EE2DF5827436
:103F2000083CF583EFF0152C80CA7B017A007922DA
:103F30009009B5E0A3E014FD12EC0B9009B5E0FC8C
:103F4000A3E0FD2421F58274003CF583EFF07B01B2
:103F50007A00792212D692229010DFE0900FBAF008
:103F600022900F0EE064036064E4FFFE7D807C47D6
:103F70009010DFE0F8A3E0F9A3E0FAA3E0FB128DD4
:103F80002A128F87900FBB129416E4FFFE7D807C6F
:103F9000479010E3E0F8A3E0F9A3E0FAA3E0FB12F6
:103FA0008D2A128F87900FBF129416E4FFFE7D803A
:103FB0007C479010E7E0F8A3E0F9A3E0FAA3E0FB68
:103FC000128D2A128F87900FC312941622E4FFFEDF
:103FD0007D807C479010DFE0F8A3E0F9A3E0FAA32E
:103FE000E0FB128D2A128F87900FD3129416E4FFF4
:103FF000FE7D807C479010E3E0F8A3E0F9A3E0FAAF
:10400000A3E0FB128D2A128F87900FD7129416E42B
:10401000FFFE7D807C479010E7E0F8A3E0F9A3E085
:10402000FAA3E0FB128D2A128F87900FDB129416F1
:1040300022900F0EE064036064E4FFFE7D807C4705
:104040009010DFE0F8A3E0F9A3E0FAA3E0FB128D03
:104050002A128F87900FC7129416E4FFFE7D807C92
:10406000479010E3E0F8A3E0F9A3E0FAA3E0FB1225
:104070008D2A128F87900FCB129416E4FFFE7D805D
:104080007C479010E7E0F8A3E0F9A3E0FAA3E0FB97
:10409000128D2A128F87900FCF12941622E4FFFE02
:1040A0007D807C479010DFE0F8A3E0F9A3E0FAA35D
:1040B000E0FB128D2A128F87900FDF129416E4FF17
:1040C000FE7D807C479010E3E0F8A3E0F9A3E0FADE
:1040D000A3E0FB128D2A128F87900FE3129416E44F
:1040E000FFFE7D807C479010E7E0F8A3E0F9A3E0B5
:1040F000FAA3E0FB128D2A128F87900FE712941615
:10410000229010DFE06007900FEB7403F022E49040
:104110000FEBF0229010DFE0900FECF0229010DF18
:10412000E0900FEDF022E4F52CE52CC3940340035E
:104130000245B774DF252CF582E43410F583E0FFE7
:1041400074EE252CF582E4340FF583EFF0052C8016
:10415000D8E4F52CE52CC394035071E52C25E0241C
:10416000DFF582E43410F583E0FEA3E0FFEE339543
:10417000E0FDFCE52C25E025E024F1F582E4340F98
:10418000F583129416E52C25E025E024F1F582E470
:10419000340FF583C083C082E0FCA3E0FDA3E0FE02
:1041A000A3E0FF74EE252CF582E4340FF583E0F9EB
:1041B000F81293C9D082D08312941674AB252CF5D3
:1041C00082E43411F583E4F0052C8088D20A22E4DD
:1041D000F52CE52CC3940340030245B7E52C25E0FC
:1041E00025E024DFF582E43410F583E0FCA3E0FD54
:1041F000A3E0FEA3E0FFE52C25E025E024FDF58209
:10420000E4340FF583129416052C80C69010DFE07D
:10421000901009F022E4F52CE52CC394024003022F
:1042200045B7E52C75F008A424DFF582E43410F5D9
:1042300083E0FCA3E0FDA3E0FEA3E0FFE52C25E086
:1042400025E0240AF582E43410F583129416E52C57
:1042500075F008A424E3F582E43410F583E0FCA3B0
:10426000E0FDA3E0FEA3E0FFE52C25E025E024121D
:10427000F582E43410F583129416E52C25E025E050
:10428000240AF582E43410F583C083C082E0FCA3E5
:10429000E0FDA3E0FEA3E0FF74EE252CF582E434FC
:1042A0000FF583E0F9F81293C9D082D083129416E7
:1042B000E52C25E025E02412F582E43410F583C0D6
:1042C00083C082E0FCA3E0FDA3E0FEA3E0FF74EE68
:1042D000252CF582E4340FF583E0F9F81293C9D068
:1042E00082D083129416052C0242189010DFE0FC55
:1042F000A3E0FDA3E0FEA3E0FF9009B7129416E44B
:10430000FFFEFDFC9009B7E0F8A3E0F9A3E0FAA3F3
:10431000E0FBD312937B50149009B7E0FCA3E0FDBF
:10432000A3E0FEA3E0FF90101E1294169010E3E0AD
:10433000FCA3E0FDA3E0FEA3E0FF9009B7129416F2
:10434000E4FFFEFDFC9009B7E0F8A3E0F9A3E0FA72
:10435000A3E0FBC312937B50030245B79009B7E07B
:10436000FCA3E0FDA3E0FEA3E0FF90101A12941658
:10437000229010DFE0FFA3E0901022CFF0A3EFF037
:10438000229010DFE0901028F0229010DFE0FFA3D1
:10439000E0901024CFF0A3EFF09010E1E0FFA3E055
:1043A000901026CFF0A3EFF0229010DFE0FCA3E006
:1043B000FDA3E0FEA3E0FF9010291294169010E3F5
:1043C000E0FCA3E0FDA3E0FEA3E0FF90102D12941B
:1043D00016229010DFE0901031F0229010DFE09074
:1043E00009BBF060079010327401F022E4901032A3
:1043F000F0229010DFE0901033F0229010DFE09078
:104400001034F0229010DFE090104FF0229010DF77
:10441000E0FCA3E0FDA3E0FEA3E0FF9010501294A7
:1044200016901050E0FCA3E0FDA3E0FEA3E0FF9097
:104430000FEEE0F9F81293C99010501294162290E2
:1044400010DFE0FCA3E0FDA3E0FEA3E0FF9010542A
:10445000129416229010DFE0FCA3E0FDA3E0FEA37F
:10446000E0FF901058129416901058E0FCA3E0FD65
:10447000A3E0FEA3E0FFE4FBFA797A7844128E33DE
:10448000901058129416229010DFE0FCA3E0FDA3D8
:10449000E0FEA3E0FF90105C12941622E4F52CE5F8
:1044A0002CC3940640030245B7E52C25E025E02403
:1044B000DFF582E43410F583E0FCA3E0FDA3E0FE29
:1044C000A3E0FFE52C25E025E02435F582E4341057
:1044D000F583129416052C80C69010DFE09009BB7E
:1044E000F060079010627401F022E4901062F022F4
:1044F0009010DFE09009BBF060079010607401F04D
:1045000022E4901060F0229010DFE09009BBF06090
:10451000079010617401F022E4901061F022901075
:10452000DFE0FCA3E0FDA3E0FEA3E0FF9010631238
:104530009416229010DFE0FFA3E0901067CFF0A365
:10454000EFF0229010DFE0FFA3E0901069CFF0A31E
:10455000EFF0229010DFE0FCA3E0FDA3E0FEA3E07B
:10456000FF90106B129416229010DFE0FCA3E0FD88
:10457000A3E0FEA3E0FF90106F129416229010DFCC
:10458000E0901073F0229010DFE0901074F0229011
:1045900010DFE0901075F0229010DFE0FFA3E090B4
:1045A0001076CFF0A3EFF0229010DFE0FFA3E090B1
:1045B0001078CFF0A3EFF022205945530000204E91
:1045C0004F00002055736200002048616E646C65E6
:1045D000000020454D472070726F706F7274696FD4
:1045E0006E616C000020454D4720696E74656772EE
:1045F000616C000020454D47204643465300002093
:10460000454D47204643465320416476616E6365BD
:10461000640000204A6F79737469636B0000205056
:104620006F736974696F6E00002050574D00002051
:1046300043757272656E74000020506F73697469FF
:104640006F6E20616E642043757272656E74000037
:10465000000D0A004669726D776172652076657299
:1046600073696F6E3A200053482D50524F207636B2
:104670002E312E32202D204D617374657220772FDC
:104680005265737420706F736974696F6E20616E08
:104690006420486170746963204665656462616383
:1046A0006B002E0D0A0D0A0044455649434520492A
:1046B0004E464F0D0A0049443A2025640D0A005029
:1046C000574D2072657363616C696E672061637416
:1046D00069766174696F6E3A20005945530A004E3D
:1046E0004F0A0050574D204C696D69743A2025647B
:1046F0000D0A004D4F544F5220494E464F0D0A00AF
:104700004D6F746F72207265666572656E636500C9
:10471000202D2043757272656E74733A2000202D2F
:104720002050776D3A2000202D20506F73697469F6
:104730006F6E3A2000256420004D6F746F72206503
:104740006E61626C65643A20005945530D0A004E53
:104750004F0D0A000D0A4D4541535552454D454EEA
:10476000545320494E464F0D0A0053656E736F72C5
:104770002076616C75653A0D0A002564202D3E2077
:104780002564004261747465727920566F6C74619F
:10479000676520286D56293A20256C640046756CA3
:1047A0006C2063686172676520706F776572207432
:1047B000656E73696F6E20286D56293A20256C64EA
:1047C0000043757272656E7420286D41293A202568
:1047D0006C64000D0A4445564943452050415241FE
:1047E0004D45544552530D0A0050494420436F6EC5
:1047F00074726F6C6C65723A0D0A0050202D3E2069
:10480000256620200049202D3E20256620200044DA
:10481000202D3E2025660D0A0043757272656E7468
:104820002050494420436F6E74726F6C6C65723A0D
:104830000D0A005374617274757020616374697637
:104840006174696F6E3A205945530D0A00537461C3
:10485000727475702061637469766174696F6E3A01
:10486000204E4F0D0A00496E707574206D6F64659F
:104870003A205553420D0A00496E707574206D6FD1
:1048800064653A2048616E646C650D0A00496E707B
:104890007574206D6F64653A20454D472070726FC6
:1048A000706F7274696F6E616C0D0A00496E70757D
:1048B00074206D6F64653A20454D4720696E7465BC
:1048C0006772616C0D0A00496E707574206D6F64BB
:1048D000653A20454D4720464346530D0A00496E30
:1048E000707574206D6F64653A20454D47204643CE
:1048F0004653204144560D0A00496E707574206D70
:104900006F64653A204A6F79737469636B0D0A00AE
:10491000436F6E74726F6C206D6F64653A20506FD8
:10492000736974696F6E0D0A00436F6E74726F6CF9
:10493000206D6F64653A2050574D0D0A00436F6E2D
:1049400074726F6C206D6F64653A20437572726586
:104950006E740D0A00436F6E74726F6C206D6F641D
:10496000653A20506F736974696F6E20616E6420C0
:1049700043757272656E740D0A004162736F6C75D7
:10498000746520656E636F64657220706F736974FF
:10499000696F6E3A205945530D0A004162736F6C7E
:1049A00075746520656E636F64657220706F7369DE
:1049B00074696F6E3A204E4F0D0A004D6F746F721E
:1049C0002D48616E646C6520526174696F3A2025D0
:1049D000640D0A0053656E736F72207265736F6C9D
:1049E0007574696F6E3A0D0A004D65617375726575
:1049F0006D656E74204F66667365743A0D0A002506
:104A000064202D3E20256C64004D656173757265D0
:104A10006D656E74204D756C7469706C6965723A61
:104A20000D0A002564202D3E202566004375727214
:104A3000656E74206C6F6F6B7570207461626C654D
:104A40003A0D0A00705B305D202D20705B325D3ABC
:104A50002025662C2025662C2025660A00705B33F5
:104A60005D202D20705B355D3A2025662C20256663
:104A70002C2025660A00506F736974696F6E206C74
:104A8000696D6974206163746976653A20256400F4
:104A9000506F736974696F6E206C696D6974206DF5
:104AA0006F746F722025643A20696E66202D3E2057
:104AB000256C64202000737570202D3E20256C64C9
:104AC0000D0A004D6178207374657020706F73203B
:104AD000616E64206E65673A20256420256400437A
:104AE000757272656E74206C696D69743A20256404
:104AF000004A6F79737469636B20636C6F737572AE
:104B0000652073706565643A202564004A6F797387
:104B10007469636B206761696E3A2025687500458A
:104B20004D47207468726573686F6C6473205B30E6
:104B3000202D20313032345D3A2025752C2025750A
:104B400000454D47206D61782076616C7565732056
:104B50005B30202D20343039365D3A20256C752CA1
:104B600020256C750043616C6962726174696F6EB7
:104B700020656E61626C65643A205945530D0A00E8
:104B800043616C6962726174696F6E20656E616207
:104B90006C65643A204E4F0D0A00454D47206D610B
:104BA000782073706565643A2025640052657374DB
:104BB0002074696D652064656C617920286D7329A6
:104BC0003A20256600526573742076656C6F6369C0
:104BD000747920636C6F7375726520287469636BD8
:104BE000732F736563293A2025660052657374201C
:104BF000706F736974696F6E3A2025640052657333
:104C00007420726174696F3A202566004D796F6572
:104C10006C65637472696320636173652032204D33
:104C200061737465723A205945530D0A004D796FCE
:104C3000656C6563747269632063617365203220FB
:104C40004D61737465723A204E4F0D0A004D6173C9
:104C5000746572207769746820466F72636520649A
:104C600065766963653A205945530D0A004D6173B5
:104C7000746572207769746820466F72636520647A
:104C800065766963653A204E4F0D0A004D61737475
:104C9000657220776974682050726F7072696F63F3
:104CA000657074697665206465766963653A205934
:104CB00045530D0A004D61737465722077697468FD
:104CC0002050726F7072696F6365707469766520C9
:104CD0006465766963653A204E4F0D0A006465622B
:104CE00075673A20256C6400000000000000000099
:104CF00000000000000000000000000000000000B4
:104D000000000000000000000000000000000000A3
:104D10000000000000000000000000000000000093
:104D20000000000000000000000000000000000083
:105D10000000000000000000000000000000003152
:105D2000202D204465766963652049443A0032207D
:105D30002D20506F736974696F6E20504944205B49
:105D4000502C20492C20445D3A0033202D204375EF
:105D50007272656E7420504944205B502C20492C8F
:105D600020445D3A0034202D2053746172747570A4
:105D70002041637469766174696F6E3A00000000B7
:105D80000035202D20496E707574206D6F64653A62
:105D90000000000000000000000000000000000003
:105DA00000000036202D20436F6E74726F6C206DE2
:105DB0006F64653A00000000000000000000000071
:105DC0000000000000000000000037202D20526578
:105DD000736F6C7574696F6E733A0038202D204DA7
:105DE0006561737572656D656E74204F6666736567
:105DF00074733A0039202D204D756C7469706C698C
:105E00006572733A003130202D20506F732E206C54
:105E1000696D6974206163746976653A00000000F9
:105E2000003131202D20506F732E206C696D697404
:105E300073205B696E662C207375705D3A00313299
:105E4000202D204D6178207374657073205B6E6522
:105E5000672C20706F735D3A003133202D2043751D
:105E60007272656E74206C696D69743A0031342009
:105E70002D20454D472063616C6962726174696FC2
:105E80006E206F6E20737461727475703A0000003A
:105E900000003135202D20454D4720746872657310
:105EA000686F6C64733A003136202D20454D4720D1
:105EB0006D61782076616C7565733A003137202DFD
:105EC00020454D47206D61782073706565643A0008
:105ED0003138202D204162736F6C75746520656EBA
:105EE000636F64657220706F736974696F6E3A00D6
:105EF000000000003139202D204D6F746F72206832
:105F0000616E646C6520726174696F3A0032302092
:105F10002D2050574D2072657363616C696E673A2E
:105F200000000000003231202D2052657374207073
:105F30006F736974696F6E20666C61673A00000068
:105F400000003232202D205265737420706F736907
:105F500074696F6E3A003233202D205265737420BD
:105F6000706F736974696F6E2074696D6520646504
:105F70006C617920286D73293A003234202D20522B
:105F80006573742076656C20636C6F737572652021
:105F9000287469636B732F736563293A0032352067
:105FA0002D205265737420726174696F3A00323625
:105FB000202D2043757272656E74206C6F6F6B7547
:105FC000703A003237202D204D796F656C6563740F
:105FD00072696320636173652032204D617374655B
:105FE000723A00000000003238202D204D61737499
:105FF0006572207769746820466F726365206465F6
:10600000766963653A00000000003239202D204D8A
:10601000617374657220776974682050726F707252
:10602000696F632E206465766963653A000000003D
:106030000000003330202D2043757272656E74208D
:1060400070726F706F7274696F6E616C20676169D6
:106050006E2028666F726365293A003331202D2047
:1060600043757272656E7420646966666572656EEA
:1060700063652073617475726174696F6E20286640
:106080006F726365293A003332202D204375727296
:10609000656E742064656164207A6F6E6520286681
:1060A0006F726365293A003333202D204D617820CB
:1060B000736C696465206D6F76656D656E742028FC
:1060C00070726F7072696F293A003334202D204D41
:1060D000617820536F667448616E6420636C6F73DF
:1060E000757265202870726F7072696F293A00337B
:1060F00035202D20536F667448616E642049443A00
:10610000003336202D20466F726365206465766902
:1061100063652049443A003337202D2050726F7058
:1061200072696F636570746976652064657669630A
:10613000652049443A003338202D204A6F79737422
:1061400069636B20636C6F7375726520737065652E
:10615000643A003339202D204A6F79737469636B78
:10616000206761696E3A0030202D3E205573620A27
:1061700031202D3E2048616E646C650A32202D3E30
:1061800020454D472070726F702E0A33202D3E201F
:10619000454D4720496E7465672E0A34202D3E20F8
:1061A000454D4720464346530A35202D3E20454D58
:1061B000472046434653204164762E0A36202D3E22
:1061C000204A6F79737469636B0A0030202D3E207A
:1061D000506F736974696F6E0A31202D3E205057DD
:1061E0004D0A32202D3E2043757272656E740A335B
:1061F000202D3E20506F736974696F6E20616E644C
:106200002043757272656E740A0030202D3E204462
:10621000656163746976617465205B4E4F5D0A3118
:10622000202D3E204163746976617465205B594579
:10623000535D0A009006C6EBF0A3EAF0A3E9F090E4
:106240000EDBE064FA7003027A819006C6E0FBA3DD
:10625000E0FAA3E0F8AC02AD037BFF7A4679501276
:106260009653900ED474FFF0A37446F0A37451F0CB
:106270009006C6E0FBA3E0FAA3E0F912E2D9900E83
:10628000D474FFF0A37446F0A37454F09006C6E0F3
:10629000FBA3E0FAA3E0F912E2D9900ED474FFF068
:1062A000A37446F0A37467F09006C6E0FBA3E0FA7F
:1062B000A3E0F912E2D9900ED474FFF0A37446F073
:1062C000A374A2F09006C6E0FBA3E0FAA3E0F912E3
:1062D000E2D9900ED474FFF0A37446F0A374A8F032
:1062E0009006C6E0FBA3E0FAA3E0F912E2D990071A
:1062F0003274FFF0A37446F0A374B6F0900EDBE0A6
:10630000FF900735E4F0A3EFF07B017A0679CB121A
:10631000AF3A900ED47401F0A37406F0A374CBF0DE
:106320009006C6E0FBA3E0FAA3E0F912E2D9900ED2
:10633000D474FFF0A37446F0A374BFF09006C6E0D7
:10634000FBA3E0FAA3E0F912E2D9900F55E0B40103
:106350001E900ED474FFF0A37446F0A374DAF0908C
:1063600006C6E0FBA3E0FAA3E0F912E2D9801C9094
:106370000ED474FFF0A37446F0A374DFF09006C649
:10638000E0FBA3E0FAA3E0F912E2D990073274FF30
:10639000F0A37446F0A374E3F09011D3E0FF9007EC
:1063A00035E4F0A3EFF07B017A0679CB12AF3A9097
:1063B0000ED47401F0A37406F0A374CBF09006C65B
:1063C000E0FBA3E0FAA3E0F912E2D9900ED474FF47
:1063D000F0A37446F0A37451F09006C6E0FBA3E06E
:1063E000FAA3E0F912E2D9900ED474FFF0A3744638
:1063F000F0A374F3F09006C6E0FBA3E0FAA3E0F983
:1064000012E2D9900ED474FFF0A37447F0A3740085
:10641000F09006C6E0FBA3E0FAA3E0F912E2D990FF
:106420000FEDE0B4021E900ED474FFF0A37447F099
:10643000A37410F09006C6E0FBA3E0FAA3E0F91203
:10644000E2D98041900FEDE0B4011E900ED474FFAC
:10645000F0A37447F0A3741EF09006C6E0FBA3E01F
:10646000FAA3E0F912E2D9801C900ED474FFF0A3D5
:106470007447F0A37427F09006C6E0FBA3E0FAA3EC
:10648000E0F912E2D9E49006C9F0A3F0C39006CA7D
:10649000E094029006C9E06480948040030265F0B5
:1064A000900FEDE06402705F90073274FFF0A37408
:1064B00047F0A37435F09006C9E0FEA3E07802C36C
:1064C00033CE33CED8F924A8F582740F3EF583E09D
:1064D000A3E0A3E0FFA3E0900735CFF0A3EFF07BAC
:1064E000017A0679CB12AF3A900ED47401F0A374FE
:1064F00006F0A374CBF09006C6E0FBA3E0FAA3E09D
:10650000F912E2D90265DF900FEDE06401705E9050
:10651000073274FFF0A37447F0A37435F09006C9F6
:10652000E0FEA3E07802C333CE33CED8F924B0F531
:1065300082740F3EF583E0A3E0A3E0FFA3E09007A1
:1065400035CFF0A3EFF07B017A0679CB12AF3A900A
:106550000ED47401F0A37406F0A374CBF09006C6B9
:10656000E0FBA3E0FAA3E0F912E2D98072900732CF
:1065700074FFF0A37447F0A37435F09006C9E0FAF5
:10658000A3E0FBAE027802C333CE33CED8F924A009
:10659000F582740F3EF583E0FCA3E0FDA3E0FEA3CB
:1065A000E0FF740F2BF582740F3AF583E0F9F812CF
:1065B00093B5900735EEF0A3EFF07B017A0679CB27
:1065C00012AF3A900ED47401F0A37406F0A374CB0A
:1065D000F09006C6E0FBA3E0FAA3E0F912E2D9903E
:1065E00006CAE004F070069006C9E004F002648C6C
:1065F000900ED474FFF0A37446F0A37451F090068B
:10660000C6E0FBA3E0FAA3E0F912E2D9900ED4743D
:10661000FFF0A37446F0A37451F09006C6E0FBA30C
:10662000E0FAA3E0F912E2D990073274FFF0A37404
:1066300047F0A37439F07B017A0679CB12AF3A9018
:106640000FB8E054036019900ED474FFF0A37447A0
:10665000F0A37449F07B017A0679CB12E2D9801756
:10666000900ED474FFF0A37447F0A3744FF07B0135
:106670007A0679CB12E2D9900ED47401F0A3740695
:10668000F0A374CBF09006C6E0FBA3E0FAA3E0F918
:1066900012E2D9900ED474FFF0A37447F0A374549F
:1066A000F09006C6E0FBA3E0FAA3E0F912E2D9906D
:1066B0000ED474FFF0A37447F0A3746AF09006C67A
:1066C000E0FBA3E0FAA3E0F912E2D9E49006C9F0F6
:1066D000A3F0C39006CAE094039006C9E0648094D6
:1066E00080400302679890073274FFF0A37447F06C
:1066F000A3747AF09006C9E0FCA3E0FD2401FEE457
:106700003C900735F0A3CEF0EDAE047802C333CE53
:1067100033CED8F92497F58274113EF583E0FCA3BB
:10672000E0FDA3E0FEA3E0FF9006C9E0FAA3E024A9
:106730000FF582740F3AF583E0F9F81293B59007DC
:1067400037EEF0A3EFF07B017A0679CB12AF3A90E7
:106750000ED47401F0A37406F0A374CBF09006C6B7
:10676000E0FBA3E0FAA3E0F912E2D9900ED474FFA3
:10677000F0A37446F0A37451F09006C6E0FBA3E0CA
:10678000FAA3E0F912E2D99006CAE004F07006908C
:1067900006C9E004F00266D290073274FFF0A374D9
:1067A00047F0A37483F09010BFE0FCA3E0FDA3E0EA
:1067B000FEA3E0FF9007351294167B017A0679CB91
:1067C00012AF3A900ED47401F0A37406F0A374CB08
:1067D000F09006C6E0FBA3E0FAA3E0F912E2D9903C
:1067E0000ED474FFF0A37446F0A37451F09006C663
:1067F000E0FBA3E0FAA3E0F912E2D990073274FFBC
:10680000F0A37447F0A3749DF090117EE0FCA3E028
:10681000FDA3E0FEA3E0FF9007351294167B017AFA
:106820000679CB12AF3A900ED47401F0A37406F03F
:10683000A374CBF09006C6E0FBA3E0FAA3E0F91244
:10684000E2D9900ED474FFF0A37446F0A37451F013
:106850009006C6E0FBA3E0FAA3E0F912E2D99007A4
:106860003274FFF0A37447F0A374C1F09011A3E059
:10687000FCA3E0FDA3E0FEA3E0FF90073512941611
:106880007B017A0679CB12AF3A900ED47401F0A353
:106890007406F0A374CBF09006C6E0FBA3E0FAA365
:1068A000E0F912E2D9900ED474FFF0A37446F0A37D
:1068B0007451F09006C6E0FBA3E0FAA3E0F912E2FF
:1068C000D9900ED474FFF0A37447F0A374D3F09062
:1068D00006C6E0FBA3E0FAA3E0F912E2D9900ED4D9
:1068E00074FFF0A37447F0A374E9F09006C6E0FBD0
:1068F000A3E0FAA3E0F912E2D9900F0EE06403706E
:1069000003026A0690073274FFF0A37447F0A37481
:10691000FBF0900EDCE0FCA3E0FDA3E0FEA3E0FFB3
:10692000EC128F49E4FBFA79807847128E33900796
:10693000351294167B017A0679CB12AF3A900ED4B9
:106940007401F0A37406F0A374CBF09006C6E0FBCC
:10695000A3E0FAA3E0F912E2D990073274FFF0A3A2
:106960007448F0A37405F0900EE0E0FCA3E0FDA3F2
:10697000E0FEA3E0FFEC128F49E4FBFA7980784750
:10698000128E339007351294167B017A0679CB125A
:10699000AF3A900ED47401F0A37406F0A374CBF058
:1069A0009006C6E0FBA3E0FAA3E0F912E2D9900753
:1069B0003274FFF0A37448F0A3740FF0900EE4E07B
:1069C000FCA3E0FDA3E0FEA3E0FFEC128F49E4FB93
:1069D000FA79807847128E339007351294167B012E
:1069E0007A0679CB12AF3A900ED47401F0A37406F4
:1069F000F0A374CBF09006C6E0FBA3E0FAA3E0F9A5
:106A000012E2D9026B0590073274FFF0A37447F0CD
:106A1000A374FBF0900EF4E0FCA3E0FDA3E0FEA362
:106A2000E0FFEC128F49E4FBFA79807847128E334D
:106A30009007351294167B017A0679CB12AF3A9003
:106A40000ED47401F0A37406F0A374CBF09006C6C4
:106A5000E0FBA3E0FAA3E0F912E2D990073274FF59
:106A6000F0A37448F0A37405F0900EF8E0FCA3E0E6
:106A7000FDA3E0FEA3E0FFEC128F49E4FBFA79806E
:106A80007847128E339007351294167B017A067977
:106A9000CB12AF3A900ED47401F0A37406F0A37435
:106AA000CBF09006C6E0FBA3E0FAA3E0F912E2D92E
:106AB00090073274FFF0A37448F0A3740FF0900EA7
:106AC000FCE0FCA3E0FDA3E0FEA3E0FFEC128F4995
:106AD000E4FBFA79807847128E33900735129416CA
:106AE0007B017A0679CB12AF3A900ED47401F0A3F1
:106AF0007406F0A374CBF09006C6E0FBA3E0FAA303
:106B0000E0F912E2D9900ED474FFF0A37448F0A318
:106B10007419F09006C6E0FBA3E0FAA3E0F912E2D4
:106B2000D9900F0EE064037003026C2E900732744C
:106B3000FFF0A37447F0A374FBF0900EE8E0FCA311
:106B4000E0FDA3E0FEA3E0FFEC128F49E4FBFA793D
:106B5000807847128E339007351294167B017A069F
:106B600079CB12AF3A900ED47401F0A37406F0A35F
:106B700074CBF09006C6E0FBA3E0FAA3E0F912E2C2
:106B8000D990073274FFF0A37448F0A37405F09015
:106B90000EECE0FCA3E0FDA3E0FEA3E0FFEC128F0F
:106BA00049E4FBFA79807847128E339007351294C6
:106BB000167B017A0679CB12AF3A900ED47401F0AD
:106BC000A37406F0A374CBF09006C6E0FBA3E0FA32
:106BD000A3E0F912E2D990073274FFF0A37448F0F1
:106BE000A3740FF0900EF0E0FCA3E0FDA3E0FEA381
:106BF000E0FFEC128F49E4FBFA79807847128E337C
:106C00009007351294167B017A0679CB12AF3A9031
:106C10000ED47401F0A37406F0A374CBF09006C6F2
:106C2000E0FBA3E0FAA3E0F912E2D9026D2D900790
:106C30003274FFF0A37447F0A374FBF0900F00E0F0
:106C4000FCA3E0FDA3E0FEA3E0FFEC128F49E4FB10
:106C5000FA79807847128E339007351294167B01AB
:106C60007A0679CB12AF3A900ED47401F0A3740671
:106C7000F0A374CBF09006C6E0FBA3E0FAA3E0F922
:106C800012E2D990073274FFF0A37448F0A37405A0
:106C9000F0900F04E0FCA3E0FDA3E0FEA3E0FFEC16
:106CA000128F49E4FBFA79807847128E33900735CA
:106CB0001294167B017A0679CB12AF3A900ED474F7
:106CC00001F0A37406F0A374CBF09006C6E0FBA31A
:106CD000E0FAA3E0F912E2D990073274FFF0A3744E
:106CE00048F0A3740FF0900F08E0FCA3E0FDA3E0D0
:106CF000FEA3E0FFEC128F49E4FBFA79807847129B
:106D00008E339007351294167B017A0679CB12AF39
:106D10003A900ED47401F0A37406F0A374CBF090F3
:106D200006C6E0FBA3E0FAA3E0F912E2D9900ED484
:106D300074FFF0A37446F0A37451F09006C6E0FB14
:106D4000A3E0FAA3E0F912E2D9900F0CE0B4031E1D
:106D5000900ED474FFF0A37448F0A37433F090063F
:106D6000C6E0FBA3E0FAA3E0F912E2D9801C900E82
:106D7000D474FFF0A37448F0A3744DF09006C6E0FD
:106D8000FBA3E0FAA3E0F912E2D9900F0DE0B407FB
:106D9000004003026E84906D9DF8282873026DB246
:106DA000026DD1026DF0026E0E026E2C026E4A026E
:106DB0006E68900ED474FFF0A37448F0A37466F06C
:106DC0009006C6E0FBA3E0FAA3E0F912E2D9026E56
:106DD00084900ED474FFF0A37448F0A37478F090FC
:106DE00006C6E0FBA3E0FAA3E0F912E2D9026E8442
:106DF000900ED474FFF0A37448F0A3748DF0900645
:106E0000C6E0FBA3E0FAA3E0F912E2D98076900E87
:106E1000D474FFF0A37448F0A374ACF09006C6E0FD
:106E2000FBA3E0FAA3E0F912E2D98058900ED474E3
:106E3000FFF0A37448F0A374C7F09006C6E0FBA36C
:106E4000E0FAA3E0F912E2D9803A900ED474FFF090
:106E5000A37448F0A374DEF09006C6E0FBA3E0FA4A
:106E6000A3E0F912E2D9801C900ED474FFF0A37451
:106E700048F0A374F9F09006C6E0FBA3E0FAA3E0A3
:106E8000F912E2D9900F0EE01460281460431460E8
:106E90005E24037076900ED474FFF0A37449F0A3BF
:106EA0007410F09006C6E0FBA3E0FAA3E0F912E24A
:106EB000D98058900ED474FFF0A37449F0A37429BC
:106EC000F09006C6E0FBA3E0FAA3E0F912E2D98055
:106ED0003A900ED474FFF0A37449F0A3743DF0907F
:106EE00006C6E0FBA3E0FAA3E0F912E2D9801C9009
:106EF0000ED474FFF0A37449F0A37455F09006C645
:106F0000E0FBA3E0FAA3E0F912E2D9900F53E060AE
:106F10001E900ED474FFF0A37449F0A3747AF0901D
:106F200006C6E0FBA3E0FAA3E0F912E2D9801C90C8
:106F30000ED474FFF0A37449F0A3749BF09006C6BE
:106F4000E0FBA3E0FAA3E0F912E2D990073274FF64
:106F5000F0A37449F0A374BBF0900F54E0FE339596
:106F6000E0900735F0A3CEF07B017A0679CB12AF23
:106F70003A900ED47401F0A37406F0A374CBF09091
:106F800006C6E0FBA3E0FAA3E0F912E2D9900ED422
:106F900074FFF0A37449F0A374D4F09006C6E0FB2C
:106FA000A3E0FAA3E0F912E2D9E49006C9F0A3F055
:106FB000C39006CAE094039006C9E06480948040C0
:106FC0000302704C90073274FFF0A37447F0A3746F
:106FD0007AF09006C9E0FCA3E0FD2401FEE43C90B9
:106FE0000735F0A3CEF0740F2DF582740F3CF583B6
:106FF000E0FF900737E4F0A3EFF07B017A0679CB4E
:1070000012AF3A900ED47401F0A37406F0A374CBBF
:10701000F09006C6E0FBA3E0FAA3E0F912E2D990F3
:107020000ED474FFF0A37446F0A37451F09006C61A
:10703000E0FBA3E0FAA3E0F912E2D99006CAE0046B
:10704000F070069006C9E004F0026FB0900ED474A0
:10705000FFF0A37449F0A374E9F09006C6E0FBA327
:10706000E0FAA3E0F912E2D9E49006C9F0A3F0C374
:107070009006CAE094039006C9E0648094804003BF
:1070800002713390073274FFF0A37449F0A374FFC8
:10709000F09006C9E0FCA3E0FD2401FEE43C90076B
:1070A00035F0A3CEF0EDAE047802C333CE33CED8A4
:1070B000F92412F582740F3EF583E0FCA3E0FDA3F2
:1070C000E0FEA3E0FF9006C9E0FAA3E0240FF582FA
:1070D000740F3AF583E0F9F81293B59007371294DC
:1070E000167B017A0679CB12AF3A900ED47401F078
:1070F000A37406F0A374CBF09006C6E0FBA3E0FAFD
:10710000A3E0F912E2D9900ED474FFF0A37446F014
:10711000A37451F09006C6E0FBA3E0FAA3E0F912D5
:10712000E2D99006CAE004F070069006C9E004F0C7
:1071300002706F900ED474FFF0A3744AF0A3740928
:10714000F09006C6E0FBA3E0FAA3E0F912E2D9E46E
:107150009006C9F0A3F0C39006CAE094039006C954
:10716000E064809480400302720490073274FFF060
:10717000A3744AF0A37423F09006C9E0FCA3E0FDD9
:107180002401FEE43C900735F0A3CEF0EDAE047888
:1071900002C333CE33CED8F9241EF582740F3EF5E8
:1071A00083E0FCA3E0FDA3E0FEA3E0FF900737121D
:1071B00094167B017A0679CB12AF3A900ED4740103
:1071C000F0A37406F0A374CBF09006C6E0FBA3E036
:1071D000FAA3E0F912E2D9900ED474FFF0A374463A
:1071E000F0A37451F09006C6E0FBA3E0FAA3E0F927
:1071F00012E2D99006CAE004F070069006C9E004D5
:10720000F0027156900ED474FFF0A3744AF0A37488
:107210002CF09006C6E0FBA3E0FAA3E0F912E2D955
:1072200090073274FFF0A3744AF0A37444F0900FF7
:1072300056E0FCA3E0FDA3E0FEA3E0FF90073512BB
:107240009416900F5AE0FCA3E0FDA3E0FEA3E0FF3C
:10725000900739129416900F5EE0FCA3E0FDA3E0C6
:10726000FEA3E0FF90073D1294167B017A0679CBCE
:1072700012AF3A900ED47401F0A37406F0A374CB4D
:10728000F09006C6E0FBA3E0FAA3E0F912E2D99081
:10729000073274FFF0A3744AF0A3745DF0900F629C
:1072A000E0FCA3E0FDA3E0FEA3E0FF90073512940D
:1072B00016900F66E0FCA3E0FDA3E0FEA3E0FF90C4
:1072C0000739129416900F6AE0FCA3E0FDA3E0FEDC
:1072D000A3E0FF90073D1294167B017A0679CB124A
:1072E000AF3A900ED47401F0A37406F0A374CBF0FF
:1072F0009006C6E0FBA3E0FAA3E0F912E2D9900EF3
:10730000D474FFF0A37446F0A37451F09006C6E065
:10731000FBA3E0FAA3E0F912E2D990073274FFF080
:10732000A3744AF0A37476F0901009E0FF9007353B
:10733000E4F0A3EFF07B017A0679CB12AF3A900E1E
:10734000D47401F0A37406F0A374CBF09006C6E0E9
:10735000FBA3E0FAA3E0F912E2D9900ED474FFF097
:10736000A37446F0A37451F09006C6E0FBA3E0FAC4
:10737000A3E0F912E2D9E49006C9F0A3F0C39006A5
:10738000CAE094019006C9E06480948040030274CE
:107390009590073274FFF0A3744AF0A37490F090B4
:1073A00006C9E0FCA3E0FD2401FEE43C900735F0B3
:1073B000A3CEF0EDAE047802C333CE33CED8F92499
:1073C0000AF58274103EF583E0FCA3E0FDA3E0FE25
:1073D000A3E0FF9006C9E0FAA3E024EEF582740F63
:1073E0003AF583E0F9F81293B59007371294167BBB
:1073F000017A0679CB12AF3A900ED47401F0A374DF
:1074000006F0A374CBF09006C6E0FBA3E0FAA3E07D
:10741000F912E2D990073274FFF0A3744AF0A37412
:10742000B6F09006C9E0FAA3E0FBAE027802C333DF
:10743000CE33CED8F92412F58274103EF583E0FCE9
:10744000A3E0FDA3E0FEA3E0FF74EE2BF582740F32
:107450003AF583E0F9F81293B59007351294167B4C
:10746000017A0679CB12AF3A900ED47401F0A3746E
:1074700006F0A374CBF09006C6E0FBA3E0FAA3E00D
:10748000F912E2D99006CAE004F070069006C9E04D
:1074900004F002737D90073274FFF0A3744AF0A3E6
:1074A00074C3F090101AE0A3E0A3E0FFA3E09007FC
:1074B00035CFF0A3EFF090101EE0A3E0A3E0FFA310
:1074C000E0900737CFF0A3EFF07B017A0679CB127B
:1074D000AF3A900ED47401F0A37406F0A374CBF00D
:1074E0009006C6E0FBA3E0FAA3E0F912E2D9900E01
:1074F000D474FFF0A37446F0A37451F09006C6E074
:10750000FBA3E0FAA3E0F912E2D990073274FFF08E
:10751000A3744AF0A374DFF0901022E0FFA3E09080
:107520000735CFF0A3EFF07B017A0679CB12AF3AA3
:10753000900ED47401F0A37406F0A374CBF09006FF
:10754000C6E0FBA3E0FAA3E0F912E2D9900ED474EE
:10755000FFF0A37446F0A37451F09006C6E0FBA3BD
:10756000E0FAA3E0F912E2D990073274FFF0A374B5
:107570004AF0A374F1F0900F97E0FFA3E090073575
:10758000CFF0A3EFF07B017A0679CB12AF3A900EE1
:10759000D47401F0A37406F0A374CBF09006C6E097
:1075A000FBA3E0FAA3E0F912E2D9900ED474FFF045
:1075B000A37446F0A37451F09006C6E0FBA3E0FA72
:1075C000A3E0F912E2D990073274FFF0A3744BF0F4
:1075D000A3740CF0900F99E0FFA3E0900735CFF073
:1075E000A3EFF07B017A0679CB12AF3A900ED474F8
:1075F00001F0A37406F0A374CBF09006C6E0FBA3E1
:10760000E0FAA3E0F912E2D9900ED474FFF0A3746B
:1076100046F0A37451F09006C6E0FBA3E0FAA3E0A5
:10762000F912E2D990073274FFF0A3744BF0A374FF
:107630001FF0901024E0FFA3E0900735CFF0A3EFF8
:10764000F0901026E0FFA3E0900737CFF0A3EFF013
:107650007B017A0679CB12AF3A900ED47401F0A375
:107660007406F0A374CBF09006C6E0FBA3E0FAA387
:10767000E0F912E2D9900ED474FFF0A37446F0A39F
:107680007451F09006C6E0FBA3E0FAA3E0F912E221
:10769000D990073274FFF0A3744BF0A37441F090BB
:1076A0001029E0FCA3E0FDA3E0FEA3E0FF90073576
:1076B00012941690102DE0FCA3E0FDA3E0FEA3E0E1
:1076C000FF9007391294167B017A0679CB12AF3AF4
:1076D000900ED47401F0A37406F0A374CBF090065E
:1076E000C6E0FBA3E0FAA3E0F912E2D9900ED4744D
:1076F000FFF0A37446F0A37451F09006C6E0FBA31C
:10770000E0FAA3E0F912E2D9901028E0601E900E92
:10771000D474FFF0A3744BF0A37465F09006C6E038
:10772000FBA3E0FAA3E0F912E2D9801C900ED47416
:10773000FFF0A3744BF0A37480F09006C6E0FBA3A7
:10774000E0FAA3E0F912E2D990073274FFF0A374D3
:107750004BF0A3749AF0901031E0FF900735E4F0FD
:10776000A3EFF07B017A0679CB12AF3A900ED47476
:1077700001F0A37406F0A374CBF09006C6E0FBA35F
:10778000E0FAA3E0F912E2D9900ED474FFF0A374EA
:1077900046F0A37451F09006C6E0FBA3E0FAA3E024
:1077A000F912E2D990073274FFF0A3744BF0A3747E
:1077B000ACF0901054E0FCA3E0FDA3E0FEA3E0FFDA
:1077C0009007351294167B017A0679CB12AF3A9066
:1077D0000ED47401F0A37406F0A374CBF09006C627
:1077E000E0FBA3E0FAA3E0F912E2D9900ED474FF13
:1077F000F0A37446F0A37451F09006C6E0FBA3E03A
:10780000FAA3E0F912E2D990073274FFF0A3744BA7
:10781000F0A374C5F0E4FFFE7D7A7C44901058E03C
:10782000F8A3E0F9A3E0FAA3E0FB128D2A90073554
:107830001294167B017A0679CB12AF3A900ED4746B
:1078400001F0A37406F0A374CBF09006C6E0FBA38E
:10785000E0FAA3E0F912E2D9900ED474FFF0A37419
:1078600046F0A37451F09006C6E0FBA3E0FAA3E053
:10787000F912E2D990073274FFF0A3744BF0A374AD
:10788000EBF0901050E0FCA3E0FDA3E0FEA3E0FFCE
:10789000900F0FE0F9F81293B5900735EEF0A3EFD3
:1078A000F07B017A0679CB12AF3A900ED47401F0D6
:1078B000A37406F0A374CBF09006C6E0FBA3E0FA35
:1078C000A3E0F912E2D9900ED474FFF0A37446F04D
:1078D000A37451F09006C6E0FBA3E0FAA3E0F9120E
:1078E000E2D990073274FFF0A3744BF0A374FDF05B
:1078F00090105CE0FCA3E0FDA3E0FEA3E0FF900796
:10790000351294167B017A0679CB12AF3A900ED4D9
:107910007401F0A37406F0A374CBF09006C6E0FBEC
:10792000A3E0FAA3E0F912E2D9900ED474FFF0A319
:107930007446F0A37451F09006C6E0FBA3E0FAA3EE
:10794000E0F912E2D9901062E0601E900ED474FF4C
:10795000F0A3744CF0A3740CF09006C6E0FBA3E017
:10796000FAA3E0F912E2D9801C900ED474FFF0A3C0
:10797000744CF0A3742DF09006C6E0FBA3E0FAA3CC
:10798000E0F912E2D9901060E0601E900ED474FF0E
:10799000F0A3744CF0A3744DF09006C6E0FBA3E096
:1079A000FAA3E0F912E2D9801C900ED474FFF0A380
:1079B000744CF0A3746DF09006C6E0FBA3E0FAA34C
:1079C000E0F912E2D9901061E0601E900ED474FFCD
:1079D000F0A3744CF0A3748CF09006C6E0FBA3E017
:1079E000FAA3E0F912E2D9801C900ED474FFF0A340
:1079F000744CF0A374B5F09006C6E0FBA3E0FAA3C4
:107A0000E0F912E2D990073274FFF0A3744CF0A3AE
:107A100074DDF09010BBE0F8A3E0F9A3E0FAA3E076
:107A2000FB901182E0FCA3E0FDA3E0FEA3E0C39B7A
:107A3000FFEE9AFEED99FDEC98FC90073512941636
:107A40007B017A0679CB12AF3A900ED47401F0A381
:107A50007406F0A374CBF09006C6E0FBA3E0FAA393
:107A6000E0F912E2D9900ED474FFF0A37446F0A3AB
:107A70007451F09006C6E0FBA3E0FAA3E0F912E22D
:107A8000D922E4F526F525F524F523900EDCE0FC5B
:107A9000A3E0FDA3E0FEA3E0F5468E458D448C43B4
:107AA000A3E0FCA3E0FDA3E0FEA3E0F54A8E498D30
:107AB000488C47A3E0FCA3E0FDA3E0FEA3E0F54E65
:107AC0008E4D8D4C8C4BA3E0FCA3E0FDA3E0FEA308
:107AD000E0F5528E518D508C4FA3E0FCA3E0FDA346
:107AE000E0FEA3E0F5568E558D548C53A3E0FCA325
:107AF000E0FDA3E0FEA3E0F55A8E598D588C57A304
:107B0000E0FCA3E0FDA3E0FEA3E0F55E8E5D8D5CEE
:107B10008C5BA3E0FCA3E0FDA3E0FEA3E0F5628E96
:107B2000618D608C5FA3E0FCA3E0FDA3E0FEA3E019
:107B3000F5668E658D648C63A3E0FCA3E0FDA3E095
:107B4000FEA3E0F56A8E698D688C67A3E0FCA3E074
:107B5000FDA3E0FEA3E0F56E8E6D8D6C8C6BA3E053
:107B6000FCA3E0FDA3E0FEA3E0F5728E718D708CA6
:107B70006F900F45E0FEA3E0FFFBAA06E49011AE74
:107B8000E0FCA3E0FDA3E0FEA3E0C39BF53AEE9A80
:107B9000F539ED9400F538EC9400F537900F47E097
:107BA000FEA3E0FFFBAA06E49011B2E0FCA3E0FD17
:107BB000A3E0FEA3E0C39BF53EEE9AF53DED9400F5
:107BC000F53CEC9400F53B900F0DE024FE700302B1
:107BD0007D69147003027DC7147003027EBC1470AB
:107BE0000302801F1470030281C024056003028217
:107BF000419010B6E06026900F54E0FF3395E0FE10
:107C0000FDFC901197E0F8A3E0F9A3E0FAA3E0FBF4
:107C10001292438F368E358D348C33804E900F53B5
:107C2000E06024A3E0FF3395E0FEFDFC90119FE0AF
:107C3000F8A3E0F9A3E0FAA3E0FB1292438F368E9B
:107C4000358D348C338024900F54E0FF3395E0FE63
:107C5000FDFC90119BE0F8A3E0F9A3E0FAA3E0FBA0
:107C60001292438F368E358D348C33900FA0E0F80E
:107C7000A3E0F9A3E0FAA3E0FBC3E5369BFFE535FB
:107C80009AFEE53499FDE53398FC900F3BE0F8A3AC
:107C9000E0F9A3E0FAA3E0FBC312937B5044E4FFB6
:107CA000FEFDFC900F3BE0F8A3E0A3E0A3E0C312CD
:107CB000937B602E900FA0E0FCA3E0FDA3E0FEA369
:107CC000E0FF900F3BE0F8A3E0A3E0A3E0EF2BFF81
:107CD000EE3AFEED39FDEC38FC900FA0129416023E
:107CE0008241900FA0E0F8A3E0F9A3E0FAA3E0FB43
:107CF000C3E5369BFFE5359AFEE53499FDE53398FB
:107D0000FC900F3FE0F8A3E0F9A3E0FAA3E0FBD377
:107D100012937B4043E4FFFEFDFC900F3FE0F8A38D
:107D2000E0A3E0A3E012937B602E900FA0E0FCA301
:107D3000E0FDA3E0FEA3E0FF900F3FE0F8A3E0A387
:107D4000E0A3E0EF2BFFEE3AFEED39FDEC38FC90BE
:107D50000FA0129416028241AF36AE35AD34AC336B
:107D6000900FA0129416028241E4FFFEFDFCAB3A94
:107D7000AA39A938A837D312937B403D901012E05E
:107D8000FCA3E0FDA3E0FEA3E0FFA837129243C0EE
:107D900006C007900F45E0FEA3E0FFC3E49FFF7419
:107DA000049EFEAB07FAE4F9F8D007D00612E7C844
:107DB000900FA0129416028241E4FFFEFDFC900F8A
:107DC000A01294160282419010C3E0FCA3E0FDA330
:107DD000E0FEA3E0FF900FA0129416E4FFFEFDFC6E
:107DE000AB3AAA39A938A837D312937B40569010E2
:107DF00031E0FFE4FCFDFEA837129243E47B02FA77
:107E0000F9F8129243C006C007900F45E0FEA3E0C8
:107E1000FFC3E49FFF74049EFEAB07FAE4F9F8D0B9
:107E200007D00612E7C89010C3E0F8A3E0F9A3E07A
:107E3000FAA3E02FFFEA3EFEE93DFDE83CFC900F8F
:107E4000A0129416E4FFFEFDFCAB3EAA3DA93CA89F
:107E50003BD312937B5003028241901031E0FFE448
:107E6000FCFDFEA83B129243E47B02FAF9F8129261
:107E700043C006C007900F47E0FEA3E0FFC3E49FA6
:107E8000FF74049EFEAB07FAE4F9F8D007D006129F
:107E9000E7C8A804A905AA06AB079010C3E0FCA395
:107EA000E0FDA3E0FEA3E0C39BFFEE9AFEED99FD8B
:107EB000EC98FC900FA01294160282419010C3E03F
:107EC000FCA3E0FDA3E0FEA3E0FF900FA012941638
:107ED00090126CE0146048147003027F99240260D1
:107EE00003028241E4FFFEFDFCAB3AAA39A938A89F
:107EF00037D312937B400990126C7401F0028241D7
:107F0000E4FFFEFDFCAB3EAA3DA93CA83BD3129387
:107F10007B500302824190126C7402F0028241E4B1
:107F2000FFFEFDFCAB3AAA39A938A837C312937BF0
:107F30005008E490126CF0028241901031E0FFE4AE
:107F4000FCFDFEAB3AAA39A938A837129243E47B6C
:107F500002FAF9F8129243C006C007900F45E0FEFE
:107F6000A3E0FFC3E49FFF74049EFEAB07FAE4F9AD
:107F7000F8D007D00612E7C89010C3E0F8A3E0F9E4
:107F8000A3E0FAA3E02FFFEA3EFEE93DFDE83CFC5A
:107F9000900FA0129416028241E4FFFEFDFCAB3E5E
:107FA000AA3DA93CA83BC312937B5008E490126CF5
:107FB000F0028241901031E0FFE4FCFDFEAB3EAAEE
:107FC0003DA93CA83B129243E47B02FAF9F81292D5
:107FD00043C006C007900F47E0FEA3E0FFC3E49F45
:107FE000FF74049EFEAB07FAE4F9F8D007D006123E
:107FF000E7C8A804A905AA06AB079010C3E0FCA334
:10800000E0FDA3E0FEA3E0C39BFFEE9AFEED99FD29
:10801000EC98FC900FA012941602824102824190CB
:1080200010C3E0FCA3E0FDA3E0FEA3E0FF900FA0DF
:1080300012941690126CE014604814700302811BB5
:1080400024026003028241E4FFFEFDFCAB3AAA3940
:10805000A938A837D312937B400990126C7401F0B1
:10806000028241E4FFFEFDFCAB3EAA3DA93CA83BD9
:10807000D312937B500302824190126C7402F0027F
:108080008241E4FFFEFDFCAB3AAA39A938A837C308
:1080900012937B501BE4FFFEFDFCAB3EAA3DA93CC6
:1080A000A83BC312937B5008E490126CF00282410B
:1080B000E4FFFEFDFCAB3AAA39A938A837D31293E6
:1080C0007B5003028241901031E0FFE4FCFDFEA8EA
:1080D0003712924378021293C9C006C007900F4529
:1080E000E0FEA3E0FFC3E49FFF74049EFEAB07FA2B
:1080F000E4F9F8D007D00612E7C89010C3E0F8A35F
:10810000E0F9A3E0FAA3E02FFFEA3EFEE93DFDE837
:108110003CFC900FA0129416028241E4FFFEFDFC8D
:10812000AB3AAA39A938A837C312937B501BE4FF96
:10813000FEFDFCAB3EAA3DA93CA83BC312937B507D
:1081400008E490126CF0028241E4FFFEFDFCAB3EBD
:10815000AA3DA93CA83BD312937B500302824190D5
:108160000F52E0FFE4FCFDFEA83B1292437802129E
:1081700093C9C006C007900F47E0FEA3E0FFC3E429
:108180009FFF74049EFEAB07FAE4F9F8D007D0060F
:1081900012E7C8A804A905AA06AB079010C3E0FC23
:1081A000A3E0FDA3E0FEA3E0C39BFFEE9AFEED99E2
:1081B000FDEC98FC900FA0129416028241028241BD
:1081C000900F99E0FCA3E0FDE4128F4EE4FBFAF976
:1081D0007840128E33C004C005C006C0079011CE8F
:1081E000E0FCA3E0FDEC128F4ED003D002D001D012
:1081F00000128E338F428E418D408C3F900F97E05E
:10820000FCA3E0FDE4128F4EAB42AA41A940A83F77
:10821000128D2AC004C005C006C0079010C3E0FC40
:10822000A3E0FDA3E0FEA3E0FFEC128F49D003D052
:1082300002D001D000128C39128F87900FA01294B7
:1082400016900F2AE0606AA3E0FCA3E0FDA3E0FE25
:10825000A3E0FF900FA0E0F8A3E0F9A3E0FAA3E009
:10826000FBC312937B5014900F2BE0FCA3E0FDA303
:10827000E0FEA3E0FF900FA0129416900F33E0FCF5
:10828000A3E0FDA3E0FEA3E0FF900FA0E0F8A3E0D1
:10829000F9A3E0FAA3E0FBD312937B4014900F33D1
:1082A000E0FCA3E0FDA3E0FEA3E0FF900FA012948A
:1082B00016900F70E06401600302836A9011D2E0AF
:1082C000B4011490117AE0FCA3E0FDA3E0FEA3E06A
:1082D000FF900FA012941690107AE06401600302E0
:1082E000836AFFFEFDFCAB3EAA3DA93CA83BD3122E
:1082F000937B405D901050E0FCA3E0FDA3E0FEA363
:10830000E0FFA83B129243C006C007900F47E0FE73
:10831000A3E0FFC3E49FFF74049EFEAB07FAE4F9F9
:10832000F8D007D00612E7C8A804A905AA06AB072B
:10833000901050E0FCA3E0FDA3E0FEA3E0C39BFF90
:10834000EE9AFEED99FDEC98FC900FA01294168029
:1083500019901050E0FCA3E0FDA3E0FEA3E0FF9025
:108360000FA0129416E490107AF0900F0EE07003B4
:10837000028755147003028B0F1470030288E314F4
:108380006003028B7D901197E0F8A3E0F9A3E0FA77
:10839000A3E0FB900FA0E0FCA3E0FDA3E0FEA3E0C0
:1083A000C39BF52AEE9AF529ED99F528EC98F52767
:1083B00090125CE0FCA3E0FDA3E0FEA3E0252AFF11
:1083C000EE3529FEED3528FDEC3527FC90125C12C8
:1083D00094167F807EF07DFA7C0290125CE0F8A318
:1083E000E0F9A3E0FAA3E0FBD312937B40107F8077
:1083F0007EF07DFA7C0290125C129416802A7F80B7
:108400007E0F7D057CFD90125CE0F8A3E0F9A3E00F
:10841000FAA3E0FBC312937B500E7F807E0F7D0595
:108420007CFD90125C129416E4F532F531F530F5CE
:108430002FFFFEFDFCAB5EAA5DA95CA85BC3129397
:108440007B6026AF2AAE29AD28AC27A85B129243E9
:1084500078101293B5E5322FF532E5313EF531E56E
:10846000303DF530E52F3CF52FE4FFFEFDFCAB621F
:10847000AA61A960A85FC312937B602C90125CE094
:10848000FCA3E0FDA3E0FEA3E0FFA85F1292437807
:10849000101293B5E5322FF532E5313EF531E53076
:1084A0003DF530E52F3CF52FE4FFFEFDFCAB66AA61
:1084B00065A964A863C312937B6043901264E0F8DB
:1084C000A3E0F9A3E0FAA3E0FBC3E52A9BFFE529BB
:1084D0009AFEE52899FDE52798FCAB66AA65A96494
:1084E000A86312924378101293B5E5322FF532E566
:1084F000313EF531E5303DF530E52F3CF52FAF2A23
:10850000AE29AD28AC27901264129416E4FFFEFD4C
:10851000FCAB32AA31A930A82FC312937B4004D2FE
:108520000E8002C20E900F43E0FEA3E0FFEE3395F3
:10853000E0FDFCAB32AA31A930A82FD312937B40C7
:1085400016900F43E0FEA3E0FFEE3395E08F328EEE
:1085500031F530F52F803C900F43E0FEA3E0FFC3E0
:10856000E49FFFE49EFE3395E0FDFCAB32AA31A907
:1085700030A82FC312937B501A900F43E0FEA3E064
:10858000FFC3E49FFFE49EFE3395E08F328E31F50A
:1085900030F52F9011A3E0F8A3E0F9A3E0FAA3E0EF
:1085A000FBC3E5329BF52EE5319AF52DE53099F5C3
:1085B0002CE52F98F52B901260E0FCA3E0FDA3E0E2
:1085C000FEA3E0252EFFEE352DFEED352CFDEC351E
:1085D0002BFC9012601294167FA07E867D017C0099
:1085E000901260E0F8A3E0F9A3E0FAA3E0FBD31255
:1085F000937B40107FA07E867D017C0090126012EC
:108600009416802A7F607E797DFE7CFF901260E068
:10861000F8A3E0F9A3E0FAA3E0FBC312937B500EAA
:108620007F607E797DFE7CFF901260129416E4F5E7
:1086300026F525F524F523FFFEFDFCAB6AAA69A902
:1086400068A867C312937B6026AF2EAE2DAD2CAC0D
:108650002BA86712924378101293B5E5262FF526C2
:10866000E5253EF525E5243DF524E5233CF523E409
:10867000FFFEFDFCAB6EAA6DA96CA86BC312937BC9
:10868000602C901260E0FCA3E0FDA3E0FEA3E0FFFD
:10869000A86B12924378101293B5E5262FF526E5C4
:1086A000253EF525E5243DF524E5233CF523E4FFAF
:1086B000FEFDFCAB72AA71A970A86FC312937B6018
:1086C00043901268E0F8A3E0F9A3E0FAA3E0FBC34B
:1086D000E52E9BFFE52D9AFEE52C99FDE52B98FCF8
:1086E000AB72AA71A970A86F12924378101293B559
:1086F000E5262FF526E5253EF525E5243DF524E57F
:10870000233CF52374FF7F9CFEFDFCAB26AA25A924
:1087100024A823C312937B500D74FF75269CF52566
:10872000F524F523801EE47F64FEFDFCAB26AA251C
:10873000A924A823D312937B400AE4752664F52567
:10874000F524F523AF2EAE2DAD2CAC2B9012681274
:108750009416028B7D901197E0F8A3E0F9A3E0FA5C
:10876000A3E0FB900FA0E0FCA3E0FDA3E0FEA3E0EC
:10877000C39BF52AEE9AF529ED99F528EC98F52793
:1087800090125CE0FCA3E0FDA3E0FEA3E0252AFF3D
:10879000EE3529FEED3528FDEC3527FC90125C12F4
:1087A0009416E47FE87E03FDFC90125CE0F8A3E001
:1087B000F9A3E0FAA3E0FBD312937B400FE47FE838
:1087C0007E03FDFC90125C129416802A7F187EFCBA
:1087D0007DFF7CFF90125CE0F8A3E0F9A3E0FAA330
:1087E000E0FBC312937B500E7F187EFC7DFF7CFF65
:1087F00090125C129416E4FFFEFDFCAB46AA45A95C
:1088000044A843C312937B601AAF2AAE29AD28ACAB
:1088100027A84312924378101293B58F268E258D88
:10882000248C23E4FFFEFDFCAB4AAA49A948A847D3
:10883000C312937B602C90125CE0FCA3E0FDA3E0EC
:10884000FEA3E0FFA84712924378101293B5E526E5
:108850002FF526E5253EF525E5243DF524E5233CC9
:10886000F523E4FFFEFDFCAB4EAA4DA94CA84BC37B
:1088700012937B6043901264E0F8A3E0F9A3E0FA5E
:10888000A3E0FBC3E52A9BFFE5299AFEE52899FDB5
:10889000E52798FCAB4EAA4DA94CA84B1292437801
:1088A000101293B5E5262FF526E5253EF525E5249E
:1088B0003DF524E5233CF523AF2AAE29AD28AC27AE
:1088C000901264129416E4FFFEFDFCAB26AA25A9C3
:1088D00024A823D312937B4005D20E028B7DC20EB7
:1088E000028B7D900FB8E07003028B7D200D030298
:1088F0008B7D900FA8E0FCA3E0FDA3E0FEA3E0F5D4
:10890000328E318D308C2F900F43E0FEA3E0FFEECE
:108910003395E0FDFCAB32AA31A930A82FD31293D6
:108920007B4016900F43E0FEA3E0FFEE3395E08F0F
:10893000328E31F530F52F803C900F43E0FEA3E0FE
:10894000FFC3E49FFFE49EFE3395E0FDFCAB32AA3B
:1089500031A930A82FC312937B501A900F43E0FE29
:10896000A3E0FFC3E49FFFE49EFE3395E08F328EC9
:1089700031F530F52F9011A3E0F8A3E0F9A3E0FA68
:10898000A3E0FBC3E5329BF52EE5319AF52DE530EA
:1089900099F52CE52F98F52B901260E0FCA3E0FDF3
:1089A000A3E0FEA3E0252EFFEE352DFEED352CFDD8
:1089B000EC352BFC9012601294167FA07E867D0110
:1089C0007C00901260E0F8A3E0F9A3E0FAA3E0FBDA
:1089D000D312937B40107FA07E867D017C00901295
:1089E00060129416802A7F607E797DFE7CFF901253
:1089F00060E0F8A3E0F9A3E0FAA3E0FBC312937BE5
:108A0000500E7F607E797DFE7CFF9012601294167E
:108A1000E4F526F525F524F523FFFEFDFCAB52AA6F
:108A200051A950A84FC312937B6026AF2EAE2DAD37
:108A30002CAC2BA84F12924378101293B5E5262F39
:108A4000F526E5253EF525E5243DF524E5233CF511
:108A500023E4FFFEFDFCAB56AA55A954A853C3124C
:108A6000937B602C901260E0FCA3E0FDA3E0FEA3EA
:108A7000E0FFA85312924378101293B5E5262FF524
:108A800026E5253EF525E5243DF524E5233CF523A3
:108A9000E4FFFEFDFCAB5AAA59A958A857C312938C
:108AA0007B6043901268E0F8A3E0F9A3E0FAA3E04A
:108AB000FBC3E52E9BFFE52D9AFEE52C99FDE52BEA
:108AC00098FCAB5AAA59A958A85712924378101289
:108AD00093B5E5262FF526E5253EF525E5243DF55C
:108AE00024E5233CF523AF2EAE2DAD2CAC2B9012FC
:108AF00068129416E4FFFEFDFCAB26AA25A924A863
:108B000023C312937B4004D20E8072C20E806E90FB
:108B10000FB0E0FCA3E0FDA3E0FEA3E0F5268E2568
:108B20008D248C23E4FFFEFDFCAB26AA25A924A8F6
:108B300023D312937B4004D20E8002C20E74FF7FB7
:108B40009CFEFDFCAB26AA25A924A823C312937B77
:108B5000500D74FF75269CF525F524F523801EE441
:108B60007F64FEFDFCAB26AA25A924A823D312937B
:108B70007B400AE4752664F525F524F523E47F643B
:108B8000FEFDFCAB26AA25A924A823D312937B4083
:108B90000AE4752664F525F524F52374FF7F9CFE11
:108BA000FDFCAB26AA25A924A823C312937B500B56
:108BB00074FF75269CF525F524F523900F0EE064CF
:108BC000016037AF26AE25AD24AC23780A1293C9D5
:108BD000E47B64FAF9F812E7C8A804A905AA06AB71
:108BE000079011D3E0FFE4FCFDFE129243780A12D5
:108BF00093B58F268E258D248C23E4FFFEFDFCABE0
:108C000026AA25A924A823C312937B40047F0180B0
:108C1000027FFF901192EFF0300E077F0112F40BEC
:108C20008005E4FF12F40BAE25AF2612F2DF12F33B
:108C3000F322028FF3E86480F8E933E8336011042B
:108C400060F0ED33EC337009E8FCE9FDEAFEEBFF80
:108C5000220460DED3EB9FEA9EE99DE8C2E78CF038
:108C6000C2F795F0400CE8CCF8E9CDF9EACEFAEB82
:108C7000CFFB128FBE85D0F05804700320D5B3E827
:108C80000470075002B2D5028FFD92D5EC0460F754
:108C9000E4CCC0E0C398F8603B94186008400DD065
:108CA000E0FB028FD5E4FBFAC9FC8028E830E4063B
:108CB000E4C9FBE4CAFCE830E305E4C9CACBFCE83C
:108CC00054076010F8C3E913F9EA13FAEB13FBEC4D
:108CD00013FCD8F130F52FC3E49CFCEF9BFFEE9A18
:108CE000FEED99FDD0E0FBEF4E4D4C701222DB0300
:108CF000028FFAEC2CFCEF33FFEE33FEED33FDED8B
:108D000030E7EB028FD5EF2BFFEE3AFEED39FDD0C9
:108D1000E0FB50130BBB0003028FFDED13FDEE13C0
:108D2000FEEF13FFEC13FC028FD5EC4D6011E84908
:108D30007017ED33EC3304600DE4FCFFFEFD22E917
:108D400033E8330470F8028FF3128FBE58046009C1
:108D5000E4CC24815006285009028FFD28400302EC
:108D60008FFAC0E0EB4A7044B98006D0E0FB028F76
:108D7000E9EF4E701CBD8008EBFFEAFEE9FD80EBD9
:108D8000E98DF0A4FEE5F0028E13E9CDF9EAFEEBE1
:108D9000FFEF89F0A4FCE5F0CE89F0A42EFFE435C6
:108DA000F0CD89F0A42DFEE435F08067EF4E70051C
:108DB000BD80D780C3EF8BF0A4ACF0EE8BF0A42C79
:108DC000FCE435F0F8EF8AF0A42CE5F038FCE4334D
:108DD000CB8DF0A42CFCE5F03BF8EE8AF0A42CFC43
:108DE000E5F038F8E433CF89F0A42CFCE5F038CF77
:108DF0003400CE89F0A42FFFE5F03EFEE433C98DA8
:108E0000F0A42EFEE5F039CD8AF0A42FFFE5F03E68
:108E1000FEE43DFD33D0E0FB50070BBB000F028F9B
:108E2000FDEC2CFCEF33FFEE33FEED33FD028FD56E
:108E3000028FFDEC5D046005E859047003028FF3B6
:108E4000128FBE580460F6EC4860F2EC7004FDFE30
:108E5000FF22C860DB2481C85009C3986002500615
:108E6000028FFA9850CAF582E9294B4A7005AB8205
:108E7000028FE975F0007C1A7880C3EF9BEE9AEDC3
:108E800099400DC3EF9BFFEE9AFEED99FDE842F08D
:108E9000DC23ACF0D0E0FFD0E0FED0E0FDAB8220E0
:108EA000E7101BEB60BAEC2CFCEF33FFEE33FEED6A
:108EB00033FD028FD5E803F830E705C0F075F00008
:108EC000EF2FFFEE33FEED33FD40B830E7C280AA4E
:108ED00074F8CC6480CCC86480C8F58204604FC349
:108EE000EB9FF5F0EA9E42F0E99D42F0E89C45F0E8
:108EF000603C501DE5825FFFE582D313CB5BCBF472
:108F00002B5582FB50280ABA002409B9002008809A
:108F10001DE5825BFBE582D313CF5FCFF4C3132F34
:108F20005582FF50090EBE00050DBD00010CC3EBBC
:108F30009FF5F0EA9E42F0E99D42F0E89C45F06022
:108F400007CC4820E701B3EC2275F020800E75F0C5
:108F500010800575F0087D007E007F003392D530CB
:108F6000D50312936DEC334010EF33FFEE33FEED7B
:108F700033FDEC33FCD5F0ED22E5F0247EA2D513D1
:108F8000CC92E7CDCEFF22EDD2E7CD33EC3392D5B4
:108F900024814006E4FFFEFDFC22FCE4CFCECDCCD4
:108FA00024E0501174FF80EDC3CC13CCCD13CDCE93
:108FB00013CECF13CF0470F030D5DE02936DE9D21B
:108FC000E7C933E833F892D5EDD2E7CD33EC33FC83
:108FD0005002B2D522EC30E7100FBF000C0EBE00DD
:108FE000080DBD00040BEB6014A2D5EB13FCED9251
:108FF000E7FD2274FFFCFDFEFF22E480F8A2D57499
:10900000FF13FC7D80E480EFF920E73624F950035C
:109010007907E4F42402FBE582158270021583DBF4
:10902000F6E024FB501BE96014E4F0E58215827041
:10903000021583E004F0B40A08E4F0D9EE7401F0FC
:109040000A22C2D522ED33EC3392D5FA602AB4FF5E
:1090500033EDC2E77BFF60067A90796AE4227A906A
:10906000797320D5047A90796E224E614E002B4997
:109070004E46002D494E4600E47A08F0A3DAFC7B08
:1090800000740722C083C082ECC0E0EDC0E0EEC0F7
:10909000E0EFC0E0EA75F010A4CAABF075F04DA4A3
:1090A0002BFBE435F0FCEA2410FAEB34C5FBEC347E
:1090B000D9FCEDC2E7FF75F056A4F42411C5F0F415
