:1026000002A627008F828E83E0540100000070F83C
:102610002278FFE4F6D8FD02A6B5205573620000CB
:102620002048616E646C65000020454D4720707243
:102630006F706F7274696F6E616C000020454D475A
:1026400020696E74656772616C000020454D4720FB
:1026500046434653000020454D47204643465320FD
:10266000416476616E6365640000204A6F7973741B
:1026700069636B0000205945530000204E4F000055
:10268000204C656674000020526967687400000081
:102690000D0A004669726D77617265207665727306
:1026A000696F6E3A200053482D50524F2076362ED7
:1026B000322E31202D204D617374657220772F48A2
:1026C000617074696320466565646261636B206D47
:1026D000616E6167656D656E74002E0D0A0D0A00EE
:1026E00044455649434520494E464F0D0A0049444A
:1026F0003A2025640D0A000D0A4D454153555245B7
:102700004D454E545320494E464F0D0A0053656EB9
:10271000736F722076616C75653A0D0A002564202E
:102720002D3E202564004261747465727920566FD5
:102730006C7461676520286D56293A20256C640009
:1027400046756C6C2063686172676520706F776591
:10275000722074656E73696F6E20286D56293A2059
:10276000256C64000D0A44455649434520504152AA
:10277000414D45544552530D0A00496E7075742001
:102780006D6F64653A205553420D0A00496E7075AD
:1027900074206D6F64653A2048616E646C650D0A43
:1027A00000496E707574206D6F64653A20454D4721
:1027B0002070726F706F7274696F6E616C0D0A00B9
:1027C000496E707574206D6F64653A20454D4720E1
:1027D000696E74656772616C0D0A00496E7075747C
:1027E000206D6F64653A20454D4720464346530DA2
:1027F0000A00496E707574206D6F64653A20454D0E
:10280000472046434653204144560D0A00496E7006
:102810007574206D6F64653A204A6F7973746963CB
:102820006B0D0A004D6F746F722D48616E646C659C
:1028300020526174696F3A2025640D0A0053656E59
:10284000736F72207265736F6C7574696F6E3A0D79
:102850000A004D6561737572656D656E74204F6613
:10286000667365743A0D0A002564202D3E20256CA0
:1028700064004D6561737572656D656E74204D758C
:102880006C7469706C6965723A0D0A002564202DBC
:102890003E20256600506F736974696F6E206C6905
:1028A0006D6974206163746976653A20256400500F
:1028B0006F736974696F6E206C696D6974206D6FD8
:1028C000746F722025643A20696E66202D3E2025A3
:1028D0006C64202000737570202D3E20256C640DE3
:1028E0000A004D6178207374657020706F732061E9
:1028F0006E64206E65673A202564202564004A6F67
:1029000079737469636B20636C6F73757265207380
:10291000706565643A202564004A6F797374696351
:102920006B206761696E3A2025687500454D472028
:102930007468726573686F6C6473205B30202D203F
:10294000313032345D3A2025752C20257500454DF7
:1029500047206D61782076616C756573205B30204F
:102960002D20343039365D3A20256C752C20256CAD
:10297000750043616C6962726174696F6E20656E87
:1029800061626C65643A205945530D0A0043616CDD
:102990006962726174696F6E20656E61626C6564F4
:1029A0003A204E4F0D0A00454D47206D6178207347
:1029B000706565643A2025640052657374207469FB
:1029C0006D652064656C617920286D73293A202536
:1029D0006400526573742076656C6F636974792046
:1029E000636C6F7375726520287469636B732F73E2
:1029F0006563293A202564005265737420706F73F3
:102A00006974696F6E3A202564004D796F656C6555
:102A1000637472696320636173652032204D617352
:102A20007465723A205945530D0A004D796F656CF3
:102A300065637472696320636173652032204D6140
:102A4000737465723A204E4F0D0A004D61737465C0
:102A500072207769746820466F72636520646576BA
:102A60006963653A205945530D0A004D61737465D9
:102A700072207769746820466F726365206465769A
:102A80006963653A204E4F0D0A004D61737465729B
:102A900020776974682050726F7072696F63657017
:102AA00074697665206465766963653A2059455393
:102AB0000D0A004D61737465722077697468205047
:102AC000726F7072696F6365707469766520646592
:102AD000766963653A204E4F0D0A0064656275673A
:102AE0003A20256C64000000000000000000000097
:102AF00000000000000000000000000000000000D6
:102B000000000000000000000000000000000000C5
:102B100000000000000000000000000000000000B5
:102B200000000000000000000000000000000000A5
:103980000000000000000000000000000031202DB9
:10399000204465766963652049443A0032202D2031
:1039A000496E707574206D6F64653A000000000008
:1039B00000000000000000000000000000003320B4
:1039C0002D205265736F6C7574696F6E733A003495
:1039D000202D204D6561737572656D656E74204F85
:1039E0006666736574733A0035202D204D756C74CE
:1039F00069706C696572733A0036202D20506F73C0
:103A00002E206C696D6974206163746976653A0073
:103A10000000000037202D20506F732E206C696D40
:103A2000697473205B696E662C207375705D3A0053
:103A300038202D204D6178207374657073205B6E83
:103A400065672C20706F735D3A0039202D20454D3D
:103A5000472063616C6962726174696F6E206F6E7A
:103A600020737461727475703A0000000000313088
:103A7000202D20454D47207468726573686F6C6413
:103A8000733A003131202D20454D47206D6178205B
:103A900076616C7565733A003132202D20454D47B3
:103AA000206D61782073706565643A003133202D94
:103AB000204D6F746F722068616E646C6520726156
:103AC00074696F3A003134202D204A6F797374691C
:103AD000636B20636C6F73757265207370656564CA
:103AE0003A003135202D204A6F79737469636B2059
:103AF0006761696E3A003136202D204D796F656C13
:103B000065637472696320636173652032204D615F
:103B1000737465723A00000000003137202D205286
:103B200065737420706F736974696F6E20666C6161
:103B3000673A00000000003138202D205265737470
:103B400020706F736974696F6E3A003139202D20CF
:103B50005265737420706F736974696F6E20746935
:103B60006D652064656C617920283E3130206D736D
:103B7000293A003230202D20526573742076656C0E
:103B800020636C6F7375726520287469636B732F83
:103B9000736563293A003231202D204375727265B6
:103BA0006E742070726F706F7274696F6E616C20CA
:103BB0006761696E2028666F726365293A00323248
:103BC000202D2043757272656E7420646966666587
:103BD00072656E63652073617475726174696F6E6E
:103BE0002028666F726365293A003233202D204306
:103BF000757272656E742064656164207A6F6E659B
:103C00002028666F726365293A003234202D204DDA
:103C1000617820736C696465206D6F76656D656E83
:103C200074202870726F7072696F293A00323520E3
:103C30002D204D617820536F667448616E64206357
:103C40006C6F73757265202870726F7072696F295E
:103C50003A003236202D204D6173746572207769E9
:103C6000746820466F726365206465766963653A9F
:103C700000000000003237202D204D617374657202
:103C800020776974682050726F7072696F632E209C
:103C90006465766963653A00000000003238202DC3
:103CA00020536F667448616E642049443A0032398B
:103CB000202D20466F7263652064657669636520F8
:103CC00049443A003330202D2050726F7072696F72
:103CD00063657074697665206465766963652049FB
:103CE000443A003331202D2041726D2073696465A0
:103CF0003A0000000000000030202D3E2055736285
:103D00000A31202D3E2048616E646C650A32202DF8
:103D10003E20454D472070726F702E0A33202D3E95
:103D200020454D4720496E7465672E0A34202D3E8C
:103D300020454D4720464346530A35202D3E204519
:103D40004D472046434653204164762E0A36202DA7
:103D50003E204A6F79737469636B0A0030202D3EF0
:103D60002052696768740A31202D3E204C656674C4
:103D70000A0030202D3E20446561637469766174C9
:103D800065205B4E4F5D0A31202D3E2041637469F2
:103D900076617465205B5945535D0A00900036EEEC
:103DA000F0A3EFF078387C007D017BFF7A31798ACF
:103DB0007E087F03126B2E90083B7408F0A37403F7
:103DC000F078427C087D017BFF7A39798D7E007F17
:103DD0000F126B2E78517C087D017BFF7A39799C1C
:103DE0007E007F22126B2E78737C087D017BFF7A28
:103DF0003979BE7E007F11126B2E78847C087D019C
:103E00007BFF7A3979CF7E007F19126B2E789D7CEB
:103E1000087D017BFF7A3979E87E007F11126B2ED5
:103E200078AE7C087D017BFF7A3979F97E007F1BB3
:103E3000126B2E78C97C087D017BFF7A3A79147E5B
:103E4000007F1C126B2E78E57C087D017BFF7A3A9F
:103E500079307E007F1A126B2E78FF7C087D017B03
:103E6000FF7A3A794A7E007F24126B2E78237C09F0
:103E70007D017BFF7A3A796E7E007F15126B2E787A
:103E8000387C097D017BFF7A3A79837E007F1512A9
:103E90006B2E784D7C097D017BFF7A3A79987E0004
:103EA0007F14126B2E78617C097D017BFF7A3A7951
:103EB000AC7E007F19126B2E787A7C097D017BFF26
:103EC0007A3A79C57E007F1D126B2E78977C097D2A
:103ED000017BFF7A3A79E27E007F14126B2E78AB79
:103EE0007C097D017BFF7A3A79F67E007F24126B94
:103EF0002E78CF7C097D017BFF7A3B791A7E007F8B
:103F00001D126B2E78EC7C097D017BFF7A3B7937A3
:103F10007E007F14126B2E78007C0A7D017BFF7A75
:103F20003B794B7E007F28126B2E78287C0A7D011E
:103F30007BFF7A3B79737E007F23126B2E784B7C5C
:103F40000A7D017BFF7A3B79967E007F28126B2EDB
:103F500078737C0A7D017BFF7A3B79BE7E007F2CE3
:103F6000126B2E789F7C0A7D017BFF7A3B79EA7E7B
:103F7000007F20126B2E78BF7C0A7D017BFF7A3C8C
:103F8000790A7E007F23126B2E78E27C0A7D017B0A
:103F9000FF7A3C792D7E007F25126B2E78077C0BF3
:103FA0007D017BFF7A3C79527E007F23126B2E7855
:103FB0002A7C0B7D017BFF7A3C79757E007F27127E
:103FC0006B2E78517C0B7D017BFF7A3C799C7E00C7
:103FD0007F12126B2E78637C0B7D017BFF7A3C791C
:103FE000AE7E007F16126B2E78797C0B7D017BFFF5
:103FF0007A3C79C47E007F1F126B2E78987C0B7DF3
:10400000017BFF7A3C79E37E007F15126B2E78AD41
:104010007C0B7D017BFF7A3C79F87E007F64126B1C
:104020002E78117C0C7D017BFF7A3D795C7E007FD0
:1040300016126B2E78277C0C7D017BFF7A3D7972FE
:104040007E007F2A126B2E7B017A08794212C85CAF
:104050008F2D7B017A08797312C85C8F2E7B017AD1
:1040600008798412C85C8F2F7B017A08799D12C869
:104070005C8F307B017A0879C912C85C8F317B0173
:104080007A0879E512C85C8F327B017A09792312AC
:10409000C85C8F337B017A09793812C85C8F347B16
:1040A000017A09794D12C85C8F357B017A097961F3
:1040B00012C85C8F367B017A09797A12C85C8F3717
:1040C0007B017A09799712C85C8F387B017A09796C
:1040D000EC12C85C8F397B017A0A790012C85C8FB8
:1040E0003A7B017A0A792812C85C8F3B7B017A0AF5
:1040F000794B12C85C8F3C7B017A0A797312C85CD9
:104100008F3D7B017A0A799F12C85C8F3E7B017AD2
:104110000A79BF12C85C8F3F7B017A0A79E212C824
:104120005C8F407B017A0B795112C85C8F417B0117
:104130007A0B796312C85C8F427B017A0B79791212
:10414000C85C8F437B017A0B79AD12C85C8F447BCE
:10415000017A0C791112C85C8F457B017A0C7927A2
:1041600012C85C8F46900038740CF0A3741FF09056
:104170000036E0FEA3E0FFEE60030254CDEFB42072
:104180000040030254CD90418DF82828730241ED80
:104190000250980250A10250AA0250D50251530277
:1041A000519002519902526F0252F50252FE02538F
:1041B0001D02534602534F0253580253680253786C
:1041C00002538F0253980253CA02540802541D022C
:1041D000543202544202545202546702547C025434
:1041E000930254AA0254B30254BC0254C590003A3C
:1041F0007402F0A314F0900C5BE090003CF0852D6D
:104200002BE52B6032FFC3E52D9FFFE49400FE7485
:10421000422FF58274083EF583E0FFE52BFDE52D86
:10422000C39DFDE49400FC743D2DF58274003CF5C3
:1042300083EFF0152B80CAE490006CF0A304F0909B
:104240000C5CE090006EF0900C5CB4070040030240
:104250004332904259F828287302426E02428B0280
:1042600042A80242C40242E00242FC024318900CFF
:104270005474FFF0A37426F0A3741AF07B017A083B
:10428000795112BC2C752C14024332900C5474FFDB
:10429000F0A37426F0A37420F07B017A0879511200
:1042A000BC2C752C17024332900C5474FFF0A3748D
:1042B00026F0A37429F07B017A08795112BC2C7581
:1042C0002C21806E900C5474FFF0A37426F0A3741C
:1042D0003CF07B017A08795112BC2C752C1D805260
:1042E000900C5474FFF0A37426F0A3744BF07B0180
:1042F0007A08795112BC2C752C198036900C5474A4
:10430000FFF0A37426F0A37456F07B017A0879516C
:1043100012BC2C752C22801A900C5474FFF0A374DC
:1043200026F0A3746AF07B017A08795112BC2C75CF
:104330002C19852C2BE52B6032FFC3E52C9FFFE465
:104340009400FE74512FF58274083EF583E0FFE57A
:104350002BFDE52CC39DFDE49400FC746F2DF582CC
:1043600074003CF583EFF0152B80CA746F252CF593
:1043700082E43400F5837401F090009E04F0A304FD
:10438000F0E4F52BE52BC39403501E745D252BF54B
:1043900082E4340CF583E0FF74A0252BF582E4342D
:1043A00000F583EFF0052B80DB852E2BE52B6032AB
:1043B000FFC3E52E9FFFE49400FE74732FF5827413
:1043C000083EF583E0FFE52BFDE52EC39DFDE4945B
:1043D00000FC74A32DF58274003CF583EFF0152BDF
:1043E00080CA9000D07403F0A3F0E4F52BE52BC352
:1043F00094035044E52B25E025E02460F582E43465
:104400000CF583E0FCA3E0FDA3E0FEA3E0FF745DF8
:10441000252BF582E4340CF583E0F9F812696E750A
:10442000F002E52BA424D2F582E5F03400F583EE0A
:10443000F0A3EFF0052B80B5852F2BE52B6032FF25
:10444000C3E52F9FFFE49400FE74842FF582740867
:104450003EF583E0FFE52BFDE52FC39DFDE49400D1
:10446000FC74D82DF58274003CF583EFF0152B8099
:10447000CA9001027407F0A37403F0E4F52BE52B56
:10448000C394035031E52B25E025E0246CF582E44C
:10449000340CF583E0FCA3E0FDA3E0FEA3E0FF7590
:1044A000F004E52BA42404F582E5F03401F5831231
:1044B00069CF052B80C885302BE52B6032FFC3E523
:1044C000309FFFE49400FE749D2FF58274083EF542
:1044D00083E0FFE52BFDE530C39DFDE49400FC7413
:1044E000102DF58274013CF583EFF0152B80CAE4A2
:1044F000900134F0A304F0900C78E0900136F09035
:104500000C78601C900C5474FFF0A37426F0A37414
:1045100075F07B017A0879AE12BC2C752C1B801AC1
:10452000900C5474FFF0A37426F0A3747BF07B010D
:104530007A0879AE12BC2C752C1A852C2BE52B60D1
:1045400032FFC3E52C9FFFE49400FE74AE2FF5828A
:1045500074083EF583E0FFE52BFDE52CC39DFDE4EB
:104560009400FC74372DF58274013CF583EFF0154F
:104570002B80CA7437252CF582E43401F58374034B
:10458000F09001667405F0A37402F0E4F52BE52BBE
:10459000C394014003024619E52B25E025E0247968
:1045A000F582E4340CF583E0FCA3E0FDA3E0FEA378
:1045B000E0FF745D252BF582E4340CF583E0F9F817
:1045C00012696E75F008E52BA42468F582E5F034D5
:1045D00001F5831269CFE52B25E025E02481F582E2
:1045E000E4340CF583E0FCA3E0FDA3E0FEA3E0FFD0
:1045F000745D252BF582E4340CF583E0F9F812693B
:104600006E75F008E52BA4246CF582E5F03401F515
:10461000831269CF052B02458E85312BE52B603245
:10462000FFC3E5319FFFE49400FE74C92FF5827447
:10463000083EF583E0FFE52BFDE531C39DFDE494E5
:1046400000FC74702DF58274013CF583EFF0152B9E
:1046500080CA9001987405F0A37402F0900C8DE06C
:10466000FCA3E0FDA3E0FEA3E0FF90019A1269CF56
:10467000900C89E0FCA3E0FDA3E0FEA3E0FF900125
:104680009E1269CF85322BE52B6032FFC3E5329F46
:10469000FFE49400FE74E52FF58274083EF583E094
:1046A000FFE52BFDE532C39DFDE49400FC74A22DD3
:1046B000F58274013CF583EFF0152B80CAE490017C
:1046C000CAF0A304F0900C95E09001CCF0900C950A
:1046D000601C900C5474FFF0A37426F0A37475F062
:1046E0007B017A0879FF12BC2C752C24801A900C5F
:1046F0005474FFF0A37426F0A3747BF07B017A0856
:1047000079FF12BC2C752C23852C2BE52B6032FFF6
:10471000C3E52C9FFFE49400FE74FF2FF58274081C
:104720003EF583E0FFE52BFDE52CC39DFDE4940001
:10473000FC74CD2DF58274013CF583EFF0152B80D0
:10474000CA74CD252CF582E43401F5837403F0900E
:1047500001FC04F0A37402F0900C91E0FFA3E09040
:1047600001FECFF0A3EFF0900C93E0FFA3E09002E6
:1047700000CFF0A3EFF085332BE52B6032FFC3E5CC
:10478000339FFFE49400FE74232FF58274093EF5F5
:1047900083E0FFE52BFDE533C39DFDE49400FC744D
:1047A000022DF58274023CF583EFF0152B80CA9040
:1047B000022E7406F0A37402F0900C96E0FCA3E0C5
:1047C000FDA3E0FEA3E0FF9002301269CF900C9AA7
:1047D000E0FCA3E0FDA3E0FEA3E0FF900234126939
:1047E000CF85342BE52B6032FFC3E5349FFFE49483
:1047F00000FE74382FF58274093EF583E0FFE52B47
:10480000FDE534C39DFDE49400FC74382DF58274FD
:10481000023CF583EFF0152B80CA9002607402F021
:10482000A314F0900C9EE0900262F085352BE52BEE
:104830006032FFC3E5359FFFE49400FE744D2FF511
:104840008274093EF583E0FFE52BFDE535C39DFD50
:10485000E49400FC74632DF58274023CF583EFF060
:10486000152B80CA9002927401F0A3F0900C9FE087
:10487000900294F085362BE52B6032FFC3E5369F1E
:10488000FFE49400FE74612FF58274093EF583E025
:10489000FFE52BFDE536C39DFDE49400FC74952DEA
:1048A000F58274023CF583EFF0152B80CA9002C4A8
:1048B0007404F0A37401F0900CC5E0FFA3E0900233
:1048C000C6CFF0A3EFF085372BE52B6032FFC3E5B1
:1048D000379FFFE49400FE747A2FF58274093EF549
:1048E00083E0FFE52BFDE537C39DFDE49400FC74F8
:1048F000C82DF58274023CF583EFF0152B80CA9029
:1049000002F67404F0A37401F0900CC7E0FFA3E07A
:104910009002F8CFF0A3EFF085382BE52B6032FF43
:10492000C3E5389FFFE49400FE74972FF582740965
:104930003EF583E0FFE52BFDE538C39DFDE49400E3
:10494000FC74FA2DF58274023CF583EFF0152B8090
:10495000CAE4900328F0A304F0900CB0E090032A7E
:10496000F0900CB0601C900C5474FFF0A37426F00F
:10497000A37475F07B017A0979AB12BC2C752C24D9
:10498000801A900C5474FFF0A37426F0A3747BF08B
:104990007B017A0979AB12BC2C752C23852C2BE575
:1049A0002B6032FFC3E52C9FFFE49400FE74AB2F15
:1049B000F58274093EF583E0FFE52BFDE52CC39DF0
:1049C000FDE49400FC742B2DF58274033CF583EF19
:1049D000F0152B80CA742B252CF582E43403F58363
:1049E0007403F0E490035AF0A304F0900CA1E0905B
:1049F000035CF0900CA1601C900C5474FFF0A37445
:104A000026F0A37475F07B017A0979CF12BC2C755E
:104A10002C1D801A900C5474FFF0A37426F0A3741C
:104A20007BF07B017A0979CF12BC2C752C1C852C6C
:104A30002BE52B6032FFC3E52C9FFFE49400FE744E
:104A4000CF2FF58274093EF583E0FFE52BFDE52CC1
:104A5000C39DFDE49400FC745D2DF58274033CF568
:104A600083EFF0152B80CA745D252CF582E43403A6
:104A7000F5837403F090038C7405F0A37401F09037
:104A80000CA2E0FCA3E0FDA3E0FEA3E0FF900C5D20
:104A9000E0F9F812696E90038E1269CF85392BE523
:104AA0002B6032FFC3E5399FFFE49400FE74EC2FC6
:104AB000F58274093EF583E0FFE52BFDE539C39DE2
:104AC000FDE49400FC74922DF58274033CF583EFB1
:104AD000F0152B80CA9003BE7405F0A37401F0900A
:104AE0000CA6E0FCA3E0FDA3E0FEA3E0FF9003C062
:104AF0001269CF853A2BE52B6032FFC3E53A9FFF61
:104B0000E49400FE74002FF582740A3EF583E0FF02
:104B1000E52BFDE53AC39DFDE49400FC74C42DF53E
:104B20008274033CF583EFF0152B80CA9003F07478
:104B300005F0A37401F0900CAAE0FCA3E0FDA3E053
:104B4000FEA3E0FF9003F21269CF853B2BE52B60BB
:104B500032FFC3E53B9FFFE49400FE74282FF582EB
:104B6000740A3EF583E0FFE52BFDE53BC39DFDE4C4
:104B70009400FC74F62DF58274033CF583EFF01578
:104B80002B80CA9004227407F0A37401F0900CB13A
:104B9000E0FCA3E0FDA3E0FEA3E0FF900424126983
:104BA000CF853C2BE52B6032FFC3E53C9FFFE494AF
:104BB00000FE744B2FF582740A3EF583E0FFE52B6F
:104BC000FDE53CC39DFDE49400FC74282DF5827442
:104BD000043CF583EFF0152B80CA9004547403F065
:104BE000A37401F0900CB5E0FFA3E0900456CFF061
:104BF000A3EFF0853D2BE52B6032FFC3E53D9FFF22
:104C0000E49400FE74732FF582740A3EF583E0FF8E
:104C1000E52BFDE53DC39DFDE49400FC74582DF5A6
:104C20008274043CF583EFF0152B80CA90048674DF
:104C300003F0A37401F0900CB7E0FFA3E0900488A8
:104C4000CFF0A3EFF0853E2BE52B6032FFC3E53EAE
:104C50009FFFE49400FE749F2FF582740A3EF58353
:104C6000E0FFE52BFDE53EC39DFDE49400FC748A66
:104C70002DF58274043CF583EFF0152B80CA900467
:104C8000B87405F0A37401F0900CB9E0FCA3E0FD4A
:104C9000A3E0FEA3E0FF9004BA1269CF853F2BE5A5
:104CA0002B6032FFC3E53F9FFFE49400FE74BF2FEB
:104CB000F582740A3EF583E0FFE52BFDE53FC39DD9
:104CC000FDE49400FC74BE2DF58274043CF583EF82
:104CD000F0152B80CA9004EA7405F0A37401F090DB
:104CE0000CBDE0FCA3E0FDA3E0FEA3E0FF9004EC1C
:104CF0001269CF85402BE52B6032FFC3E5409FFF53
:104D0000E49400FE74E22FF582740A3EF583E0FF1E
:104D1000E52BFDE540C39DFDE49400FC74F02DF50A
:104D20008274043CF583EFF0152B80CAE490051CD7
:104D3000F0A304F0900CAEE090051EF0900CAE6075
:104D40001C900C5474FFF0A37426F0A37475F07BD0
:104D5000017A0B790712BC2C752C23801A900C5405
:104D600074FFF0A37426F0A3747BF07B017A0B79B7
:104D70000712BC2C752C22852C2BE52B6032FFC32F
:104D8000E52C9FFFE49400FE74072FF582740B3E20
:104D9000F583E0FFE52BFDE52CC39DFDE49400FCCD
:104DA000741F2DF58274053CF583EFF0152B80CA36
:104DB000741F252CF582E43405F5837403F0E49028
:104DC000054EF0A304F0900CAFE0900550F0900C6D
:104DD000AF601C900C5474FFF0A37426F0A374759C
:104DE000F07B017A0B792A12BC2C752C27801A9043
:104DF0000C5474FFF0A37426F0A3747BF07B017A4B
:104E00000B792A12BC2C752C26852C2BE52B6032B5
:104E1000FFC3E52C9FFFE49400FE742A2FF58274F3
:104E20000B3EF583E0FFE52BFDE52CC39DFDE494EF
:104E300000FC74512DF58274053CF583EFF0152BC1
:104E400080CA7451252CF582E43405F5837403F08F
:104E500090058014F0A314F0900CC1E0900582F04E
:104E600085412BE52B6032FFC3E5419FFFE49400B1
:104E7000FE74512FF582740B3EF583E0FFE52BFDA8
:104E8000E541C39DFDE49400FC74832DF582740517
:104E90003CF583EFF0152B80CA9005B27402F0A3A5
:104EA00014F0900CC2E09005B4F085422BE52B6025
:104EB00032FFC3E5429FFFE49400FE74632FF58246
:104EC000740B3EF583E0FFE52BFDE542C39DFDE459
:104ED0009400FC74B52DF58274053CF583EFF01554
:104EE0002B80CA9005E47402F0A314F0900CC3E088
:104EF0009005E6F085432BE52B6032FFC3E5439F29
:104F0000FFE49400FE74792FF582740B3EF583E084
:104F1000FFE52BFDE543C39DFDE49400FC74E72D04
:104F2000F58274053CF583EFF0152B80CAE49006FA
:104F300016F0A304F0900CC4E0900618F0900CC496
:104F4000601C900C5474FFF0A37426F0A37480F0DE
:104F50007B017A0B799812BC2C752C14801A900C5A
:104F60005474FFF0A37426F0A37487F07B017A0BCE
:104F7000799812BC2C752C15852C2BE52B6032FFF3
:104F8000C3E52C9FFFE49400FE74982FF582740B08
:104F90003EF583E0FFE52BFDE52CC39DFDE4940089
:104FA000FC74192DF58274063CF583EFF0152B8007
:104FB000CA7419252CF582E43406F5837402F08551
:104FC000442BE52B6032FFC3E5449FFFE49400FED1
:104FD00074AD2FF582740B3EF583E0FFE52BFDE504
:104FE00044C39DFDE49400FC74482DF58274063C96
:104FF000F583EFF0152B80CA85452BE52B6032FF3A
:10500000C3E5459FFFE49400FE74112FF582740CF4
:105010003EF583E0FFE52BFDE545C39DFDE49400EF
:10502000FC74DE2DF58274063CF583EFF0152B80C1
:10503000CA85462BE52B6032FFC3E5469FFFE4940B
:1050400000FE74272FF582740C3EF583E0FFE52BFC
:10505000FDE546C39DFDE49400FC74742DF5827457
:10506000073CF583EFF0152B80CA7B017A00793875
:1050700090083BE0A3E014FD12C46E90083BE0FCF6
:10508000A3E0FD2437F58274003CF583EFF07B014B
:105090007A00793812B2C022900D91E0900CD7F0CE
:1050A00022900D91E0900CD8F022E4F52BE52BC373
:1050B000940340030254CD7491252BF582E4340D02
:1050C000F583E0FF74D9252BF582E4340CF583EFEA
:1050D000F0052B80D8E4F52BE52BC394035071E544
:1050E0002B25E02491F582E4340DF583E0FEA3E066
:1050F000FFEE3395E0FDFCE52B25E025E024DCF513
:1051000082E4340CF5831269CFE52B25E025E024F9
:10511000DCF582E4340CF583C083C082E0FCA3E0BC
:10512000FDA3E0FEA3E0FF74D9252BF582E4340C47
:10513000F583E0F9F8126982D082D0831269CF74C6
:1051400043252BF582E4340EF583E4F0052B8088AB
:10515000D20A22E4F52BE52BC3940340030254CD7D
:10516000E52B25E025E02491F582E4340DF583E07C
:10517000FCA3E0FDA3E0FEA3E0FFE52B25E025E096
:1051800024E8F582E4340CF5831269CF052B80C640
:10519000900D91E0900CF4F022E4F52BE52BC394F4
:1051A0000240030254CDE52B75F008A42491F5824A
:1051B000E4340DF583E0FCA3E0FDA3E0FEA3E0FFF3
:1051C000E52B25E025E024F5F582E4340CF5831287
:1051D00069CFE52B75F008A42495F582E4340DF52C
:1051E00083E0FCA3E0FDA3E0FEA3E0FFE52B25E0C8
:1051F00025E024FDF582E4340CF5831269CFE52B1C
:1052000025E025E024F5F582E4340CF583C083C065
:1052100082E0FCA3E0FDA3E0FEA3E0FF74D9252B10
:10522000F582E4340CF583E0F9F8126982D082D07B
:10523000831269CFE52B25E025E024FDF582E434D7
:105240000CF583C083C082E0FCA3E0FDA3E0FEA3D5
:10525000E0FF74D9252BF582E4340CF583E0F9F8EE
:10526000126982D082D0831269CF052B02519C90A3
:105270000D91E0FCA3E0FDA3E0FEA3E0FF90083D5C
:105280001269CFE4FFFEFDFC90083DE0F8A3E0F9D1
:10529000A3E0FAA3E0FBD3126934501490083DE078
:1052A000FCA3E0FDA3E0FEA3E0FF900D091269CF8F
:1052B000900D95E0FCA3E0FDA3E0FEA3E0FF9008C5
:1052C0003D1269CFE4FFFEFDFC90083DE0F8A3E04D
:1052D000F9A3E0FAA3E0FBC312693450030254CDF2
:1052E00090083DE0FCA3E0FDA3E0FEA3E0FF900DED
:1052F000051269CF22900D91E0900D11F022900DD2
:1053000091E0FFA3E0900D0DCFF0A3EFF0900D938F
:10531000E0FFA3E0900D0FCFF0A3EFF022900D91EE
:10532000E0FCA3E0FDA3E0FEA3E0FF900D121269F4
:10533000CF900D95E0FCA3E0FDA3E0FEA3E0FF907D
:105340000D161269CF22900D91E0900D1AF0229067
:105350000D91E0900D1BF022900D91E0FFA3E090E5
:105360000D41CFF0A3EFF022900D91E0FFA3E0906C
:105370000D43CFF0A3EFF022900D91E0900841F0A3
:105380006007900D2C7401F022E4900D2CF0229017
:105390000D91E0900D1DF022900D91E0FCA3E0FD39
:1053A000A3E0FEA3E0FF900D1E1269CF900D1EE05A
:1053B000FCA3E0FDA3E0FEA3E0FF900CD9E0F9F828
:1053C000126982900D1E1269CF22900D91E0FCA30C
:1053D000E0FDA3E0FEA3E0FF900D221269CFE47F81
:1053E0000AFEFDFC900D22E0F8A3E0F9A3E0FAA389
:1053F000E0FBC312693440030254CDE47F0AFEFD92
:10540000FC900D221269CF22900D91E0FCA3E0FDEB
:10541000A3E0FEA3E0FF900D261269CF22900D912C
:10542000E0FCA3E0FDA3E0FEA3E0FF900D2D1269D8
:10543000CF22900D91E0FFA3E0900D31CFF0A3EFCC
:10544000F022900D91E0FFA3E0900D33CFF0A3EF99
:10545000F022900D91E0FCA3E0FDA3E0FEA3E0FFAD
:10546000900D351269CF22900D91E0FCA3E0FDA3D1
:10547000E0FEA3E0FF900D391269CF22900D91E07C
:10548000900841F06007900D2A7401F022E4900D1D
:105490002AF022900D91E0900841F06007900D2BCA
:1054A0007401F022E4900D2BF022900D91E0900D0C
:1054B0003DF022900D91E0900D3EF022900D91E094
:1054C000900D3FF022900D91E0900D40F02290065B
:1054D000DCEBF0A3EAF0A3E9F0900C5BE064FA7077
:1054E000030261FC9006DCE0FBA3E0FAA3E0F8AC69
:1054F00002AD037BFF7A26798F126C0C900C5474EA
:10550000FFF0A37426F0A37490F09006DCE0FBA3F8
:10551000E0FAA3E0F912BC2C900C5474FFF0A374D1
:1055200026F0A37493F09006DCE0FBA3E0FAA3E07E
:10553000F912BC2C900C5474FFF0A37426F0A374E1
:10554000A6F09006DCE0FBA3E0FAA3E0F912BC2C85
:10555000900C5474FFF0A37426F0A374DAF0900654
:10556000DCE0FBA3E0FAA3E0F912BC2C900C54742D
:10557000FFF0A37426F0A374E0F09006DCE0FBA338
:10558000E0FAA3E0F912BC2C90074874FFF0A37472
:1055900026F0A374EEF0900C5BE0FF90074BE4F074
:1055A000A3EFF07B017A0679E1128B07900C54741B
:1055B00001F0A37406F0A374E1F09006DCE0FBA315
:1055C000E0FAA3E0F912BC2C900C5474FFF0A37421
:1055D00026F0A374F7F09006DCE0FBA3E0FAA3E06A
:1055E000F912BC2C900C5474FFF0A37427F0A37430
:1055F0000DF09006DCE0FBA3E0FAA3E0F912BC2C6E
:10560000E49006DFF0A3F0C39006E0E09403900678
:10561000DFE06480948040030256CD90074874FF19
:10562000F0A37427F0A3741DF09006DFE0FCA3E064
:10563000FD2401FEE43C90074BF0A3CEF0EDAE0458
:105640007802C333CE33CED8F92437F582740E3EB8
:10565000F583E0FCA3E0FDA3E0FEA3E0FF9006DFFE
:10566000E0FAA3E0245DF582740C3AF583E0F9F8E2
:1056700012696E90074DEEF0A3EFF07B017A067988
:10568000E1128B07900C547401F0A37406F0A3741C
:10569000E1F09006DCE0FBA3E0FAA3E0F912BC2CF9
:1056A000900C5474FFF0A37426F0A37490F090064D
:1056B000DCE0FBA3E0FAA3E0F912BC2C9006E0E0EA
:1056C00004F070069006DFE004F0025607900748E9
:1056D00074FFF0A37427F0A37426F0900D82E0FC11
:1056E000A3E0FDA3E0FEA3E0FF90074B1269CF7B90
:1056F000017A0679E1128B07900C547401F0A374BF
:1057000006F0A374E1F09006DCE0FBA3E0FAA3E06E
:10571000F912BC2C900C5474FFF0A37426F0A374FF
:1057200090F09006DCE0FBA3E0FAA3E0F912BC2CB9
:1057300090074874FFF0A37427F0A37440F0900E14
:105740001FE0FCA3E0FDA3E0FEA3E0FF90074B12E7
:1057500069CF7B017A0679E1128B07900C547401B2
:10576000F0A37406F0A374E1F09006DCE0FBA3E084
:10577000FAA3E0F912BC2C900C5474FFF0A3742629
:10578000F0A37490F09006DCE0FBA3E0FAA3E0F94C
:1057900012BC2C900C5474FFF0A37427F0A3746413
:1057A000F09006DCE0FBA3E0FAA3E0F912BC2C9039
:1057B0000C5CE0B4070040030258A99057C2F828D7
:1057C00028730257D70257F6025815025833025869
:1057D0005102586F02588D900C5474FFF0A3742737
:1057E000F0A3747AF09006DCE0FBA3E0FAA3E0F902
:1057F00012BC2C0258A9900C5474FFF0A37427F02B
:10580000A3748CF09006DCE0FBA3E0FAA3E0F912AD
:10581000BC2C0258A9900C5474FFF0A37427F0A379
:1058200074A1F09006DCE0FBA3E0FAA3E0F912BC5F
:105830002C8076900C5474FFF0A37427F0A374C0EE
:10584000F09006DCE0FBA3E0FAA3E0F912BC2C80A8
:1058500058900C5474FFF0A37427F0A374DBF090FD
:1058600006DCE0FBA3E0FAA3E0F912BC2C803A903E
:105870000C5474FFF0A37427F0A374F2F09006DCCC
:10588000E0FBA3E0FAA3E0F912BC2C801C900C54BE
:1058900074FFF0A37428F0A3740DF09006DCE0FB15
:1058A000A3E0FAA3E0F912BC2C90074874FFF0A320
:1058B0007428F0A37424F0900C9FE0FE3395E090E0
:1058C000074BF0A3CEF07B017A0679E1128B0790AB
:1058D0000C547401F0A37406F0A374E1F09006DC9C
:1058E000E0FBA3E0FAA3E0F912BC2C900C5474FF87
:1058F000F0A37428F0A3743DF09006DCE0FBA3E075
:10590000FAA3E0F912BC2CE49006DFF0A3F0C390F8
:1059100006E0E094039006DFE06480948040030298
:1059200059AA90074874FFF0A37427F0A3741DF0E0
:105930009006DFE0FCA3E0FD2401FEE43C90074B71
:10594000F0A3CEF0745D2DF582740C3CF583E0FF7E
:1059500090074DE4F0A3EFF07B017A0679E1128B1A
:1059600007900C547401F0A37406F0A374E1F09056
:1059700006DCE0FBA3E0FAA3E0F912BC2C900C5487
:1059800074FFF0A37426F0A37490F09006DCE0FBA3
:10599000A3E0FAA3E0F912BC2C9006E0E004F0705A
:1059A000069006DFE004F002590E900C5474FFF0EC
:1059B000A37428F0A37452F09006DCE0FBA3E0FA95
:1059C000A3E0F912BC2CE49006DFF0A3F0C390062C
:1059D000E0E094039006DFE0648094804003025A84
:1059E0009190074874FFF0A37428F0A37468F090B6
:1059F00006DFE0FCA3E0FD2401FEE43C90074BF051
:105A0000A3CEF0EDAE047802C333CE33CED8F92462
:105A100060F582740C3EF583E0FCA3E0FDA3E0FE9C
:105A2000A3E0FF9006DFE0FAA3E0245DF582740CAA
:105A30003AF583E0F9F812696E90074D1269CF7B51
:105A4000017A0679E1128B07900C547401F0A3746B
:105A500006F0A374E1F09006DCE0FBA3E0FAA3E01B
:105A6000F912BC2C900C5474FFF0A37426F0A374AC
:105A700090F09006DCE0FBA3E0FAA3E0F912BC2C66
:105A80009006E0E004F070069006DFE004F00259B2
:105A9000CD900C5474FFF0A37428F0A37472F090AE
:105AA00006DCE0FBA3E0FAA3E0F912BC2CE49006CC
:105AB000DFF0A3F0C39006E0E094039006DFE0641B
:105AC0008094804003025B6290074874FFF0A374E7
:105AD00028F0A3748CF09006DFE0FCA3E0FD240125
:105AE000FEE43C90074BF0A3CEF0EDAE047802C389
:105AF00033CE33CED8F9246CF582740C3EF583E0B6
:105B0000FCA3E0FDA3E0FEA3E0FF90074D1269CFE8
:105B10007B017A0679E1128B07900C547401F0A393
:105B20007406F0A374E1F09006DCE0FBA3E0FAA3B6
:105B3000E0F912BC2C900C5474FFF0A37426F0A36F
:105B40007490F09006DCE0FBA3E0FAA3E0F912BC4D
:105B50002C9006E0E004F070069006DFE004F0020E
:105B60005AB490074874FFF0A37428F0A37495F01A
:105B7000900CF4E0FF90074BE4F0A3EFF07B017A88
:105B80000679E1128B07900C547401F0A37406F0AF
:105B9000A374E1F09006DCE0FBA3E0FAA3E0F912C5
:105BA000BC2C900C5474FFF0A37426F0A37490F0F6
:105BB0009006DCE0FBA3E0FAA3E0F912BC2CE49031
:105BC00006DFF0A3F0C39006E0E094019006DFE06A
:105BD000648094804003025CDD90074874FFF0A36A
:105BE0007428F0A374AFF09006DFE0FCA3E0FD247E
:105BF00001FEE43C90074BF0A3CEF0EDAE0478023A
:105C0000C333CE33CED8F924F5F582740C3EF58338
:105C1000E0FCA3E0FDA3E0FEA3E0FF9006DFE0FAD6
:105C2000A3E024D9F582740C3AF583E0F9F81269FF
:105C30006E90074D1269CF7B017A0679E1128B07CE
:105C4000900C547401F0A37406F0A374E1F0900674
:105C5000DCE0FBA3E0FAA3E0F912BC2C9007487447
:105C6000FFF0A37428F0A374D5F09006DFE0FAA348
:105C7000E0FBAE027802C333CE33CED8F924FDF573
:105C800082740C3EF583E0FCA3E0FDA3E0FEA3E0FC
:105C9000FF74D92BF582740C3AF583E0F9F8126998
:105CA0006E90074B1269CF7B017A0679E1128B0760
:105CB000900C547401F0A37406F0A374E1F0900604
:105CC000DCE0FBA3E0FAA3E0F912BC2C9006E0E0D4
:105CD00004F070069006DFE004F0025BC590074810
:105CE00074FFF0A37428F0A374E2F0900D05E0A314
:105CF000E0A3E0FFA3E090074BCFF0A3EFF0900DFF
:105D000009E0A3E0A3E0FFA3E090074DCFF0A3EFED
:105D1000F07B017A0679E1128B07900C547401F044
:105D2000A37406F0A374E1F09006DCE0FBA3E0FAB4
:105D3000A3E0F912BC2C900C5474FFF0A37426F06D
:105D4000A37490F09006DCE0FBA3E0FAA3E0F91264
:105D5000BC2C90074874FFF0A37428F0A374FEF0E5
:105D6000900CC5E0FFA3E090074BCFF0A3EFF07BD2
:105D7000017A0679E1128B07900C547401F0A37438
:105D800006F0A374E1F09006DCE0FBA3E0FAA3E0E8
:105D9000F912BC2C900C5474FFF0A37426F0A37479
:105DA00090F09006DCE0FBA3E0FAA3E0F912BC2C33
:105DB00090074874FFF0A37429F0A37419F0900CB5
:105DC000C7E0FFA3E090074BCFF0A3EFF07B017A91
:105DD0000679E1128B07900C547401F0A37406F05D
:105DE000A374E1F09006DCE0FBA3E0FAA3E0F91273
:105DF000BC2C900C5474FFF0A37426F0A37490F0A4
:105E00009006DCE0FBA3E0FAA3E0F912BC2C9007BB
:105E10004874FFF0A37429F0A3742CF0900D0DE0EA
:105E2000FFA3E090074BCFF0A3EFF0900D0FE0FF42
:105E3000A3E090074DCFF0A3EFF07B017A0679E164
:105E4000128B07900C547401F0A37406F0A374E154
:105E5000F09006DCE0FBA3E0FAA3E0F912BC2C9082
:105E60000C5474FFF0A37426F0A37490F09006DC39
:105E7000E0FBA3E0FAA3E0F912BC2C90074874FF02
:105E8000F0A37429F0A3744EF0900D12E0FCA3E08F
:105E9000FDA3E0FEA3E0FF90074B1269CF900D1623
:105EA000E0FCA3E0FDA3E0FEA3E0FF90074F126932
:105EB000CF7B017A0679E1128B07900C547401F0C4
:105EC000A37406F0A374E1F09006DCE0FBA3E0FA13
:105ED000A3E0F912BC2C900C5474FFF0A37426F0CC
:105EE000A37490F09006DCE0FBA3E0FAA3E0F912C3
:105EF000BC2C900D11E0601E900C5474FFF0A37444
:105F000029F0A37472F09006DCE0FBA3E0FAA3E0B2
:105F1000F912BC2C801C900C5474FFF0A37429F06F
:105F2000A3748DF09006DCE0FBA3E0FAA3E0F91285
:105F3000BC2C90074874FFF0A37429F0A374A7F059
:105F4000900D1AE0FF90074BE4F0A3EFF07B017A8D
:105F50000679E1128B07900C547401F0A37406F0DB
:105F6000A374E1F09006DCE0FBA3E0FAA3E0F912F1
:105F7000BC2C900C5474FFF0A37426F0A37490F022
:105F80009006DCE0FBA3E0FAA3E0F912BC2C90073A
:105F90004874FFF0A37429F0A374B9F0900D22E0C7
:105FA000A3E0A3E0FFA3E090074BCFF0A3EFF07BCB
:105FB000017A0679E1128B07900C547401F0A374F6
:105FC00006F0A374E1F09006DCE0FBA3E0FAA3E0A6
:105FD000F912BC2C900C5474FFF0A37426F0A37437
:105FE00090F09006DCE0FBA3E0FAA3E0F912BC2CF1
:105FF00090074874FFF0A37429F0A374D2F0900DB9
:1060000026E0A3E0A3E0FFA3E090074BCFF0A3EFCF
:10601000F07B017A0679E1128B07900C547401F041
:10602000A37406F0A374E1F09006DCE0FBA3E0FAB1
:10603000A3E0F912BC2C900C5474FFF0A37426F06A
:10604000A37490F09006DCE0FBA3E0FAA3E0F91261
:10605000BC2C90074874FFF0A37429F0A374F8F0E7
:10606000900D1EE0FCA3E0FDA3E0FEA3E0FF900C7A
:106070005DE0F9F812696E90074BEEF0A3EFF07B4C
:10608000017A0679E1128B07900C547401F0A37425
:1060900006F0A374E1F09006DCE0FBA3E0FAA3E0D5
:1060A000F912BC2C900C5474FFF0A37426F0A37466
:1060B00090F09006DCE0FBA3E0FAA3E0F912BC2C20
:1060C000900D2CE0601E900C5474FFF0A3742AF025
:1060D000A3740AF09006DCE0FBA3E0FAA3E0F91257
:1060E000BC2C801C900C5474FFF0A3742AF0A37491
:1060F0002BF09006DCE0FBA3E0FAA3E0F912BC2C45
:10610000900D2AE0601E900C5474FFF0A3742AF0E6
:10611000A3744BF09006DCE0FBA3E0FAA3E0F912D5
:10612000BC2C801C900C5474FFF0A3742AF0A37450
:106130006BF09006DCE0FBA3E0FAA3E0F912BC2CC4
:10614000900D2BE0601E900C5474FFF0A3742AF0A5
:10615000A3748AF09006DCE0FBA3E0FAA3E0F91256
:10616000BC2C801C900C5474FFF0A3742AF0A37410
:10617000B3F09006DCE0FBA3E0FAA3E0F912BC2C3C
:1061800090074874FFF0A3742AF0A374DBF0900D1D
:106190007EE0F8A3E0F9A3E0FAA3E0FB900E23E091
:1061A000FCA3E0FDA3E0FEA3E0C39BFFEE9AFEED9F
:1061B00099FDEC98FC90074B1269CF7B017A067928
:1061C000E1128B07900C547401F0A37406F0A374D1
:1061D000E1F09006DCE0FBA3E0FAA3E0F912BC2CAE
:1061E000900C5474FFF0A37426F0A37490F0900602
:1061F000DCE0FBA3E0FAA3E0F912BC2C220265BEAE
:10620000E86480F8E933E83360110460F0ED33ECC2
:10621000337009E8FCE9FDEAFEEBFF220460DED3FF
:10622000EB9FEA9EE99DE8C2E78CF0C2F795F0404B
:106230000CE8CCF8E9CDF9EACEFAEBCFFB12658990
:1062400085D0F05804700320D5B3E80470075002DD
:10625000B2D50265C892D5EC0460F7E4CCC0E0C3C7
:1062600098F8603B94186008400DD0E0FB0265A0F0
:10627000E4FBFAC9FC8028E830E406E4C9FBE4CA80
:10628000FCE830E305E4C9CACBFCE854076010F829
:10629000C3E913F9EA13FAEB13FBEC13FCD8F13062
:1062A000F52FC3E49CFCEF9BFFEE9AFEED99FDD029
:1062B000E0FBEF4E4D4C701222DB030265C5EC2C67
:1062C000FCEF33FFEE33FEED33FDED30E7EB02651F
:1062D000A0EF2BFFEE3AFEED39FDD0E0FB50130BA3
:1062E000BB00030265C8ED13FDEE13FEEF13FFECD8
:1062F00013FC0265A0EC4D6011E8497017ED33EC1A
:106300003304600DE4FCFFFEFD22E933E833047042
:10631000F80265BE12658958046009E4CC248150F6
:10632000062850090265C82840030265C5C0E0EB95
:106330004A7044B98006D0E0FB0265B4EF4E701C91
:10634000BD8008EBFFEAFEE9FD80EBE98DF0A4FEDD
:10635000E5F00263DEE9CDF9EAFEEBFFEF89F0A498
:10636000FCE5F0CE89F0A42EFFE435F0CD89F0A451
:106370002DFEE435F08067EF4E7005BD80D780C3F9
:10638000EF8BF0A4ACF0EE8BF0A42CFCE435F0F82D
:10639000EF8AF0A42CE5F038FCE433CB8DF0A42C8C
:1063A000FCE5F03BF8EE8AF0A42CFCE5F038F8E4CC
:1063B00033CF89F0A42CFCE5F038CF3400CE89F03F
:1063C000A42FFFE5F03EFEE433C98DF0A42EFEE5D8
:1063D000F039CD8AF0A42FFFE5F03EFEE43DFD3319
:1063E000D0E0FB50070BBB000F0265C8EC2CFCEFA4
:1063F00033FFEE33FEED33FD0265A00265C8EC5DB0
:10640000046005E8590470030265BE1265895804EA
:1064100060F6EC4860F2EC7004FDFEFF22C860DB21
:106420002481C85009C398600250060265C598507F
:10643000CAF582E9294B4A7005AB820265B475F052
:10644000007C1A7880C3EF9BEE9AED99400DC3EF64
:106450009BFFEE9AFEED99FDE842F0DC23ACF0D014
:10646000E0FFD0E0FED0E0FDAB8220E7101BEB6048
:10647000BAEC2CFCEF33FFEE33FEED33FD0265A0EA
:10648000E803F830E705C0F075F000EF2FFFEE33BA
:10649000FEED33FD40B830E7C280AA74F8CC6480CA
:1064A000CCC86480C8F58204604FC3EB9FF5F0EA66
:1064B0009E42F0E99D42F0E89C45F0603C501DE5AD
:1064C000825FFFE582D313CB5BCBF42B5582FB506D
:1064D000280ABA002409B9002008801DE5825BFB68
:1064E000E582D313CF5FCFF4C3132F5582FF50093A
:1064F0000EBE00050DBD00010CC3EB9FF5F0EA9E3A
:1065000042F0E99D42F0E89C45F06007CC4820E766
:1065100001B3EC2275F020800E75F010800575F047
:10652000087D007E007F003392D530D503126926A6
:10653000EC334010EF33FFEE33FEED33FDEC33FC74
:10654000D5F0ED22E5F0247EA2D513CC92E7CDCE96
:10655000FF22EDD2E7CD33EC3392D524814006E41F
:10656000FFFEFDFC22FCE4CFCECDCC24E050117424
:10657000FF80EDC3CC13CCCD13CDCE13CECF13CF34
:106580000470F030D5DE026926E9D2E7C933E8337A
:10659000F892D5EDD2E7CD33EC33FC5002B2D522E0
:1065A000EC30E7100FBF000C0EBE00080DBD00045C
:1065B0000BEB6014A2D5EB13FCED92E7FD2274FF08
:1065C000FCFDFEFF22E480F8A2D574FF13FC7D8061
:1065D000E480EFF920E73624F950037907E4F42446
:1065E00002FBE582158270021583DBF6E024FB5086
:1065F0001BE96014E4F0E582158270021583E00463
:10660000F0B40A08E4F0D9EE7401F00A22C2D522EF
:10661000ED33EC3392D5FA602AB4FF33EDC2E77B59
:10662000FF60067A667935E4227A66793E20D504E1
:106630007A667939224E614E002B494E46002D492B
:106640004E4600E47A08F0A3DAFC7B00740722C00F
:1066500083C082ECC0E0EDC0E0EEC0E0EFC0E0EA55
:1066600075F010A4CAABF075F04DA42BFBE435F027
:10667000FCEA2410FAEB34C5FBEC34D9FCEDC2E79C
:10668000FF75F056A4F42411C5F0F434C58FF0A4BE
:106690002AE5F03BE43CF020E714126745D0E0FF28
:1066A000D0E0FED0E0FDD0E0FC1263FE8014F404E4
:1066B000126745D0E0FFD0E0FED0E0FDD0E0FC1254
:1066C00062F5D082D083E0FAEDD2E7CD33EC33240B
:1066D00082FBE4C3CF33CFCE33CECD33CD33DBF328
:1066E0007B0775F00A846004F0A31B0AE5F0F0A3B1
:1066F0008FF0740AA4FFACF08EF0740AA42CFEACE8
:10670000F050010C8DF0740AA42CFDE435F0F0A3D8
:10671000DBDE7407223F8000004120000042C800F9
:1067200000447A0000461C400047C35000497424CE
:10673000004B1896804CBEBC205A0E1BCA6753C231
:106740001C749DC5AEFB60065407601C23231267B2
:1067500073EB5438600912675F12676E1262F5ECD2
:10676000F8EDF9EEFAEFCB22EB12676E80F15438B8
:1067700003241C906715FE93FC0EEE93FD0EEE9322
:106780000ECE93FF22BB010689828A83E02250024B
:10679000E722BBFE02E32289828A83E49322BB01C3
:1067A0000CE58229F582E5833AF583E0225006E97B
:1067B0002582F8E622BBFE06E92582F8E222E58280
:1067C00029F582E5833AF583E49322BB01068982A9
:1067D0008A83F0225002F722BBFE01F322BB010A9A
:1067E00089828A83F0E5F0A3F0225006F709A7F02A
:1067F0001922BBFE06F3E5F009F31922E88FF0A495
:10680000CC8BF0A42CFCE98EF0A42CFC8AF0EDA437
:106810002CFCEA8EF0A4CDA8F08BF0A42DCC38256A
:10682000F0FDE98FF0A42CCD35F0FCEB8EF0A4FE4A
:10683000A9F0EB8FF0A4CFC5F02ECD39FEE43CFCDF
:10684000EAA42DCE35F0FDE43CFC2275F0087582FB
:1068500000EF2FFFEE33FECD33CDCC33CCC58233EA
:10686000C5829BED9AEC99E58298400CF582EE9BEF
:10687000FEED9AFDEC99FC0FD5F0D6E4CEFBE4CD0D
:10688000FAE4CCF9A88222B800C1B90059BA002DA7
:10689000EC8BF084CFCECDFCE5F0CBF97818EF2F60
:1068A000FFEE33FEED33FDEC33FCEB33FB10D7038F
:1068B000994004EB99FB0FD8E5E4F9FA227818EF38
:1068C0002FFFEE33FEED33FDEC33FCC933C910D797
:1068D000059BE99A4007EC9BFCE99AF90FD8E0E4A4
:1068E000C9FAE4CCFB2275F010EF2FFFEE33FEED7A
:1068F00033FDCC33CCC833C810D7079BEC9AE8994A
:10690000400AED9BFDEC9AFCE899F80FD5F0DAE42B
:10691000CDFBE4CCFAE4C8F922CFF4CFCEF4CECD4F
:10692000F4CDCCF4CC22C3E49FFFE49EFEE49DFDB5
:10693000E49CFC22EB9FF5F0EA9E42F0E99D42F0D8
:10694000EC6480C864809845F022EB9FF5F0EA9EE5
:1069500042F0E99D42F0E89C45F022E8600FECC36C
:1069600013FCED13FDEE13FEEF13FFD8F122E860E8
:1069700010ECA2E713FCED13FDEE13FEEF13FFD8AE
:10698000F022E8600FEFC333FFEE33FEED33FDEC92
:1069900033FCD8F122BB010789828A83026C6150E3
:1069A00005E9F8026C55BBFE05E9F8026C6D8982B9
:1069B0008A83026C79BB010789828A830269CF507E
:1069C00005E9F8026C89BBFE05E9F8026C9522EC3A
:1069D000F0A3EDF0A3EEF0A3EFF022F8E0FBA3A309
:1069E000E0F925F0F0E582158270021583E0FA38AF
:1069F000F022EBF0A3EAF0A3E9F022D083D082F8F2
:106A0000E4937012740193700DA3A393F87401932F
:106A1000F5828883E4737402936860EFA3A3A38074
:106A2000DFE54A2582F582E5493583F583B54904DA
:106A300085824A2210AF0685824AF5492285824A1C
:106A4000F549D2AF22EC8EF0A4CCC5F0CCCDF8EF56
:106A5000A4CEC5F02DFDE43CFCE8A42EC8C5F03D55
:106A6000FDE43CFCEFA4FFE5F028FEE43DFDE43C42
:106A7000FC22E709F608DFFA8046E709F208DFFAA8
:106A8000803E88828C83E709F0A3DFFA8032E30935
:106A9000F608DFFA806EE309F208DFFA8066888282
:106AA0008C83E309F0A3DFFA805A89828A83E0A30A
:106AB000F608DFFA804E89828A83E0A3F208DFFAC3
:106AC000804280D280FA80C680D4805580F28029AE
:106AD000801080A680EA809A80A880DA80E280CA4E
:106AE000802988848C8589828A83E493A30586F033
:106AF000A30586DFF5DEF3800B89828A83E493A306
:106B0000F608DFF9ECFAA9F0EDFB2288848C858980
:106B1000828A83E0A30586F0A30586DFF6DEF48093
:106B2000E389828A83E493A3F208DFF980D688F0B0
:106B3000EF60010E4E60CD88F0ED2402B4040050E9
:106B4000C3F582EB2402B4040050B9232345822309
:106B5000906AC273E709F60870FA8046E709F208FE
:106B600070FA803E88828C83E709F0A370FA807403
:106B7000E309F60870FA806CE309F20870FA8064A1
:106B800088828C83E309F0A370FA805889828A8313
:106B9000E0A3F60870FA804C89828A83E0A3F208A9
:106BA00070FA804080D280FA80C680D4805180F212
:106BB0008027801080A680EA809A80A880DA80E210
:106BC00080CA802788848C8589828A83E493A30580
:106BD00086F0A3058670F5800B89828A83E493A3EF
:106BE000F60870F9ECFAA9F0EDFB2288848C85890F
:106BF000828A83E0A30586F0A3058670F680E58986
:106C0000828A83E493A3F20870F980D888F0ED2497
:106C100002B4040050CEF582EB2402B4040050C448
:106C20002323458223906BA473C5F0F8A3E028F0DA
:106C3000C5F0F8E582158270021583E038F022A3D2
:106C4000F8E0C5F025F0F0E582158270021583E0CA
:106C5000C838F0E822E6FC08E6FD08E6FE08E6FF94
:106C600022E0FCA3E0FDA3E0FEA3E0FF22E2FC089B
:106C7000E2FD08E2FE08E2FF22E493FC740193FDCA
:106C8000740293FE740393FF22ECF608EDF608EE0F
:106C9000F608EFF622ECF208EDF208EEF208EFF259
:106CA0002212CBD5EF700A300CF7C20C12A29E80D4
:106CB000F0900E2CE0249AFF900E2BE034F9FE3376
:106CC00095E0FDFCE47BA07A07F9F81267FC7807F1
:106CD00012696E900D821269CF300C05C20C12A29F
:106CE0009E900CC9E06077300D74900F4FE004F077
:106CF000E064E87002740370657F287E23FDFC90D9
:106D00000D82E0F8A3E0F9A3E0FAA3E0FBC3126967
:106D100034500FE47F407E1FFDFC900E1F1269CFA0
:106D20008037E47FC87E32FDFC900D82E0F8A3E05E
:106D3000F9A3E0FAA3E0FBC3126934500FE47FE04B
:106D40007E2EFDFC900E1F1269CF800DE47FC07E69
:106D50005DFDFC900E1F1269CFE4900CC9F0E47F3A
:106D6000587E1BFDFC900D82E0F8A3E0F9A3E0FA49
:106D7000A3E0FBD31269345003027588E47FE87EF8
:106D800003FDFC900F50E0F8A3E0F9A3E0FAA3E0C4
:106D9000FB12694A7004D20D8036900F50E0FCA3BC
:106DA000E0FDA3E0FEA3E02401FFE43EFEE43DFDA0
:106DB000E43CFC900F501269CF900D82E0FCA3E000
:106DC000FDA3E0FEA3E0FF12B8FC900E331269CFE2
:106DD000300C05C20C12A29E900D11E07004F50E4D
:106DE000F50F900C5CE064066003027138E5101446
:106DF0007003026EEB147003026EFE147003026FD8
:106E00001D147003026F8024046003026F8B900EC8
:106E10002FE0FEA3E0FFEE3395E08F258E24F523CF
:106E2000F522C3E5259519FFE5249518FEE5239580
:106E300017FDE5229516FC126514C004C005C006B6
:106E4000C007AF19AE18AD17AC16EC126514A80444
:106E5000A905AA06AB07D007D006D005D004126357
:106E6000FEC004C005C006C007900D43E0FCA3E0CF
:106E7000FDE4126519D003D002D001D0001262F5F2
:106E80001265528F258E248D238C22300C05C20C66
:106E900012A29E7F007EFC7DFF7CFFAB25AA24A969
:106EA00023A822C3126934500C7525007524FC7583
:106EB00023FF7522FFE4FF7E04FDFCAB25AA24A975
:106EC00023A822D3126934400AE4F525752404F579
:106ED00023F522900E68E524F0A3E525F0200C03AD
:106EE000026F8BC20C12A29E026F8BE4F512F51397
:106EF000F519F518F517F516751004026F8B0513C3
:106F0000E5137002051264644512707FF512F513E3
:106F1000300C05C20C12A29E751003806E0513E59D
:106F20001370020512900E2FE0FEA3E0FFEE3395E2
:106F3000E0FDFCE5192FF519E5183EF518E5173DBC
:106F4000F517E5163CF516300C05C20C12A29EE5AD
:106F50001364C845127034AF19AE18AD17AC167B68
:106F6000C8FAF9F812C11B8F198E188D178C1630BC
:106F70000C05C20C12A29EE4F512F513F510800B5D
:106F8000E50E7007E50F7003751002300C05C20C9A
:106F900012A29EE51114700302708E147003027029
:106FA000A11470030270C014700302711B240460EA
:106FB0000302712A900E31E0FEA3E0FFEE3395E06C
:106FC0008F258E24F523F522C3E525951DFFE524A5
:106FD000951CFEE523951BFDE522951AFC12651410
:106FE000C004C005C006C007AF1DAE1CAD1BAC1A67
:106FF000EC126514A804A905AA06AB07D007D006B1
:10700000D005D0041263FEC004C005C006C00790BE
:107010000D43E0FCA3E0FDE4126519D003D002D0DB
:1070200001D0001262F51265528F258E248D238CBB
:1070300022300C05C20C12A29E7F007EFC7DFF7CDC
:10704000FFAB25AA24A923A822C3126934500C75CA
:1070500025007524FC7523FF7522FFE4FF7E04FDE7
:10706000FCAB25AA24A923A822D3126934400AE440
:10707000F525752404F523F522300C05C20C12A267
:107080009E900E66E524F0A3E525F002712AE4F552
:1070900014F515F51DF51CF51BF51A751104027193
:1070A0002A0515E5157002051464644514707BF516
:1070B00014F515300C05C20C12A29E751103806ADE
:1070C0000515E51570020514900E31E0FEA3E0FFF2
:1070D000EE3395E0FDFCE51D2FF51DE51C3EF51C8E
:1070E000E51B3DF51BE51A3CF51AE51564C845148A
:1070F0007038AF1DAE1CAD1BAC1A7BC8FAF9F81284
:10710000C11B8F1D8E1C8D1B8C1A300C05C20C12DE
:10711000A29EE4F514F515F511800FE50E700BE550
:107120000F7007E5107003751102200C030275C97A
:10713000C20C12A29E0275C9E50E147003027214ED
:1071400014700302722B147003027268240360032C
:10715000027315900E2FE0FEA3E0FFEE3395E08F53
:10716000258E24F523F522E4FFFEFDFCAB25AA24A1
:10717000A923A822C31269345009E4F525F524F5A2
:1071800023F522AF25AE24AD23AC2212ACAF8F2560
:107190008E248D238C22780A126982900D12E0F8D9
:1071A000A3E0F9A3E0FAA3E0FB1268878F258E2401
:1071B0008D238C22300C05C20C12A29EE4FFFEFD32
:1071C000FCAB25AA24A923A822C3126934500BE4DE
:1071D000F525F524F523F522801EE4FF7E04FDFC51
:1071E000AB25AA24A923A822D3126934400AE4F5C6
:1071F00025752404F523F522AF25AE24AD23AC225A
:10720000900E461269CF200C03027315C20C12A215
:107210009E027315E4900F4BF0A3F0FFFEFDFC906F
:107220000D121269CF750E02027315900F4CE00417
:10723000F07006900F4BE004F0900F4BE06401708B
:1072400004A3E064F46003027315900F4BF0A3F005
:107250007F0112CBF3E4FF12CBF9300C05C20C1204
:10726000A29E750E03027315900F4CE004F0700699
:10727000900F4BE004F0C3900E2FE0648094805098
:1072800004E4F0A3F0900D12E0F8A3E0F9A3E0FA13
:10729000A3E0FBC000C001C002C003900E2FE0FEBF
:1072A000A3E0FFEE3395E0FDFC12ACAFD003D002BB
:1072B000D001D000EB2FFFEA3EFEE93DFDE83CFCAB
:1072C000900D121269CF300C05C20C12A29E900FC5
:1072D0004BE064037004A3E064E87039900D12E0A1
:1072E000FCA3E0FDA3E0FEA3E0FFE47BE87A03F962
:1072F000F8126887900D121269CF300C05C20C127B
:10730000A29EE4FF12CBF3E4FF12CBF9E4900F4B03
:10731000F0A3F0F50E300C05C20C12A29EE50F147E
:1073200070030273FA147003027419147003027468
:107330005614700302750914700302751224056057
:107340000302757E900E31E0FEA3E0FFEE3395E080
:107350008F258E24F523F522E4FFFEFDFCAB25AA44
:1073600024A923A822C31269345009E4F525F52481
:10737000F523F522AF25AE24AD23AC2212AD648FE8
:10738000258E248D238C22780A126982900D16E0B6
:10739000F8A3E0F9A3E0FAA3E0FB1268878F258E3B
:1073A000248D238C22300C05C20C12A29EE4FFFE19
:1073B000FDFCAB25AA24A923A822C3126934500BD3
:1073C000E4F525F524F523F522801EE4FF7E04FD77
:1073D000FCAB25AA24A923A822D3126934400AE4CD
:1073E000F525752404F523F522AF25AE24AD23AC95
:1073F00022900E4A1269CF02757EE4900F4DF0A3E1
:10740000F0FFFEFDFC900D161269CF300C05C20C8A
:1074100012A29E750F0402757E900F4EE004F0706C
:1074200006900F4DE004F0900F4DE064017004A34E
:10743000E064F4600302757E900F4DF0A3F07F01CD
:1074400012CBF3E4FF12CBF9300C05C20C12A29E52
:10745000750F0302757E900F4EE004F07006900FDA
:107460004DE004F0C3900E31E0648094805004E459
:10747000F0A3F0900D16E0F8A3E0F9A3E0FAA3E082
:10748000FBC000C001C002C003900E31E0FEA3E0CB
:10749000FFEE3395E0FDFC12AD64D003D002D001C5
:1074A000D000EB2FFFEA3EFEE93DFDE83CFC900DED
:1074B000161269CF300C05C20C12A29E900F4DE03F
:1074C00064037004A3E064E8600302757E900D1607
:1074D000E0FCA3E0FDA3E0FEA3E0FFE47BE87A0389
:1074E000F9F8126887900D161269CFE4FF12CBF3FA
:1074F000E4FF12CBF9E4900F4DF0A3F0300C05C27D
:107500000C12A29E750F058075E50E7071750F0245
:10751000806C900F4EE004F07006900F4DE004F088
:10752000900F4DE064017004A3E064F47050900F7C
:107530004DF0A3F0300C05C20C12A29E900C5CE042
:10754000FF6402600EEF64036009EF64046004EFFF
:10755000B40528900E37E0FCA3E0FDA3E0FEA3E015
:10756000FF900CCE1269CF900E3BE0FCA3E0FDA390
:10757000E0FEA3E0FF900CD21269CFE4F50F300CCF
:1075800048C20C12A29E8041750E01750F01751044
:1075900001751101C20D7F0112CBF3E4FF12CBF98B
:1075A000300C05C20C12A29EE4FFFEFDFC900E46BC
:1075B0001269CFE4FFFEFDFC900E4A1269CFE49001
:1075C0000E66F0A3F0A3F0A3F0900CC9E0600302F4
:1075D0007677200D03027677E50E6003027677E575
:1075E0000F6003027677900D82E0FCA3E0FDA3E03C
:1075F000FEA3E0FF12B8FC900E331269CF900E1F6D
:10760000E0FCA3E0FDA3E0FEA3E0FFEC1265147B29
:107610001F7A85796B783F1262F5C004C005C006F9
:10762000C007900E33E0FCA3E0FDA3E0FEA3E0FF63
:10763000EC126514A804A905AA06AB07D007D0066A
:10764000D005D00412649B600E400C7F0112CBF376
:10765000E4FF12CBF98020E4FF12CBF37F0112CBC1
:10766000F9900D79E0601012BDB3300C05C20C1218
:10767000A29EE4900D79F0300C05C20C12A29E225D
:107680008F22E522C394034003027E5C300A227BF2
:1076900003AF031BEF6018E4FFFEFDFCEB25E025C4
:1076A000E024F4F582E4340EF5831269CF80E2C25F
:1076B0000AE522701812CAFE780112695BEFEEED3E
:1076C0005403FDE4FC9000021269CF8033E522B43C
:1076D000011812CACC780112695BEFEEED5403FD7C
:1076E000E4FC9000021269CF801612CAC27801121F
:1076F000695BEFEEED5403FDE4FC9000021269CFEC
:107700007B017A00790212BBC140030279429000EA
:1077100002E0FCA3E0FDA3E0FEA3E054C0FFEEED19
:107720005403FDE42FFFE43EFEED34FEFDE434FFA0
:10773000FC780212695BEE3395E0FDFCE52225E062
:1077400025E024DCF582E4340CF583E0F8A3E0F9CD
:10775000A3E0FAA3E02FFFEA3EFEE93DFDE83CFC92
:107760009000061269CF300E27900006E0FCA3E0DF
:10777000FDA3E0FEA3E0FFE52225E025E024F4F5EB
:1077800082E4340EF5831269CFE522B40202C20E00
:10779000E52225E025E024F4F582E4340EF583E0CB
:1077A000F8A3E0F9A3E0FAA3E0FB900006E0FCA355
:1077B000E0FDA3E0FEA3E0C39BFFEE9AFEED99FD82
:1077C000EC98FC9000121269CFE4FF7EC0FDFC90A3
:1077D0000012E0F8A3E0F9A3E0FAA3E0FBD31269FA
:1077E00034401074432522F582E4340EF583E0140E
:1077F000F080687F007E407DFF7CFF900012E0F803
:10780000A3E0F9A3E0FAA3E0FBC3126934501074BB
:10781000432522F582E4340EF583E004F0803C90A9
:107820000012E0A3E0A3E0FEA3E0FF12CA81D3EFC1
:107830009400EE648094C0402274002522F582E416
:10784000340FF583E004F074002522F582E4340F50
:10785000F583E0C3940A5003027E5C74002522F590
:1078600082E4340FF583E4F0900006E0FCA3E0FD31
:10787000A3E0FEA3E0FFE52225E025E024F4F58265
:10788000E4340EF5831269CF900006E0F8A3E0F926
:10789000A3E0FAA3E0FBC00074432522F582E434A0
:1078A0000EF583E0FF3395E0FEFDFC78101269824F
:1078B000D000EB2FFFEA3EFEE93DFDE83CFC9000E6
:1078C000061269CFE52225E025E0246CF582E43438
:1078D0000CF583E0FCA3E0FDA3E0FEA3E0FFE4FBE6
:1078E000FA7980783F12649B6038900006E0FCA330
:1078F000E0FDA3E0FEA3E0FFEC126514E52225E025
:1079000025E0246CF582E4340CF583E0F8A3E0F97B
:10791000A3E0FAA3E0FB1262F51265529000061292
:1079200069CF900006E0FCA3E0FDA3E0FEA3E0FF2A
:10793000E52225E025E02437F582E4340EF58312B4
:1079400069CFE5221470030279F8147003027A9962
:1079500024026003027B37E47F03FEFDFC900006F7
:10796000E0F8A3E0F9A3E0FAA3E0FB1267FC900FB4
:1079700003E0F8A3E0F9A3E0FAA3E02FFFEA3EFE5C
:10798000E93DFDE83CFC900F0FE0F8A3E0F9A3E02F
:10799000FAA3E0FBC3EF9BFFEE9AFEED99FDEC9896
:1079A000FCC004C005C006C007E47F03FEFDFC90D8
:1079B0000F1BE0F8A3E0F9A3E0FAA3E0FB1267FCD9
:1079C000A804A905AA06AB07D007D006D005D004A5
:1079D000C3EF9BFFEE9AFEED99FDEC98FCE47B0A69
:1079E000FAF9F81267FC12B5EAEE3395E0FDFC9067
:1079F000000A1269CF027B37E47F03FEFDFC900092
:107A000006E0F8A3E0F9A3E0FAA3E0FB1267FC901C
:107A10000F07E0F8A3E0F9A3E0FAA3E02FFFEA3EA6
:107A2000FEE93DFDE83CFC900F13E0F8A3E0F9A36C
:107A3000E0FAA3E0FBC3EF9BFFEE9AFEED99FDECAD
:107A400098FCC004C005C006C007E47F03FEFDFC2F
:107A5000900F1FE0F8A3E0F9A3E0FAA3E0FB1267A0
:107A6000FCA804A905AA06AB07D007D006D005D00C
:107A700004C3EF9BFFEE9AFEED99FDEC98FCE47BCE
:107A80000AFAF9F81267FC12B66DEE3395E0FDFCC8
:107A900090000A1269CF027B37E47F03FEFDFC9061
:107AA0000006E0F8A3E0F9A3E0FAA3E0FB1267FC0C
:107AB000900F0BE0F8A3E0F9A3E0FAA3E02FFFEAB0
:107AC0003EFEE93DFDE83CFC900F17E0F8A3E0F92D
:107AD000A3E0FAA3E0FBC3EF9BFFEE9AFEED99FD56
:107AE000EC98FCC004C005C006C007E47F03FEFD9F
:107AF000FC900F23E0F8A3E0F9A3E0FAA3E0FB1267
:107B000067FCA804A905AA06AB07D007D006D005D4
:107B1000D004C3EF9BFFEE9AFEED99FDEC98FCE4D8
:107B20007B0AFAF9F81267FC12B6F0EE3395E0FD25
:107B3000FC90000A1269CF90000AE0FCA3E0FDA3CC
:107B4000E0FEA3E0FFE52225E025E0244EF582E4F7
:107B5000340EF5831269CFE522147003027C0D14F4
:107B60007003027CAE24026003027D4CE47F03FEBE
:107B7000FDFC90000AE0F8A3E0F9A3E0FAA3E0FB23
:107B80001267FC900F27E0F8A3E0F9A3E0FAA3E066
:107B90002FFFEA3EFEE93DFDE83CFC900F33E0F8A4
:107BA000A3E0F9A3E0FAA3E0FBC3EF9BFFEE9AFE8C
:107BB000ED99FDEC98FCC004C005C006C007E47F49
:107BC00003FEFDFC900F3FE0F8A3E0F9A3E0FAA369
:107BD000E0FB1267FCA804A905AA06AB07D007D0F2
:107BE00006D005D004C3EF9BFFEE9AFEED99FDECA5
:107BF00098FCE47B0AFAF9F81267FC12B773EE33CB
:107C000095E0FDFC90000E1269CF027D4CE47F03ED
:107C1000FEFDFC90000AE0F8A3E0F9A3E0FAA3E07F
:107C2000FB1267FC900F2BE0F8A3E0F9A3E0FAA3A6
:107C3000E02FFFEA3EFEE93DFDE83CFC900F37E017
:107C4000F8A3E0F9A3E0FAA3E0FBC3EF9BFFEE9AF1
:107C5000FEED99FDEC98FCC004C005C006C007E429
:107C60007F03FEFDFC900F43E0F8A3E0F9A3E0FAE8
:107C7000A3E0FB1267FCA804A905AA06AB07D0077E
:107C8000D006D005D004C3EF9BFFEE9AFEED99FD20
:107C9000EC98FCE47B0AFAF9F81267FC12B7F6EEEE
:107CA0003395E0FDFC90000E1269CF027D4CE47F1D
:107CB00003FEFDFC90000AE0F8A3E0F9A3E0FAA3BC
:107CC000E0FB1267FC900F2FE0F8A3E0F9A3E0FAC5
:107CD000A3E02FFFEA3EFEE93DFDE83CFC900F3BB0
:107CE000E0F8A3E0F9A3E0FAA3E0FBC3EF9BFFEE0B
:107CF0009AFEED99FDEC98FCC004C005C006C007D3
:107D0000E47F03FEFDFC900F47E0F8A3E0F9A3E059
:107D1000FAA3E0FB1267FCA804A905AA06AB07D0EA
:107D200007D006D005D004C3EF9BFFEE9AFEED9975
:107D3000FDEC98FCE47B0AFAF9F81267FC12B879BA
:107D4000EE3395E0FDFC90000E1269CF90000EE03E
:107D5000FCA3E0FDA3E0FEA3E0FFE52225E025E093
:107D6000245AF582E4340EF5831269CFE52225E02A
:107D700025E0240FF582E4340FF583E0FCA3E0FD59
:107D8000A3E0FEA3E0FFE52225E025E0241BF58229
:107D9000E4340FF5831269CFE52225E025E02403C2
:107DA000F582E4340FF583E0FCA3E0FDA3E0FEA33D
:107DB000E0FFE52225E025E0240FF582E4340FF50D
:107DC000831269CF900006E0FCA3E0FDA3E0FEA3D0
:107DD000E0FFE52225E025E02403F582E4340FF5F9
:107DE000831269CFE52225E025E02433F582E434CF
:107DF0000FF583E0FCA3E0FDA3E0FEA3E0FFE52296
:107E000025E025E0243FF582E4340FF5831269CFA5
:107E1000E52225E025E02427F582E4340FF583E010
:107E2000FCA3E0FDA3E0FEA3E0FFE52225E025E0C2
:107E30002433F582E4340FF5831269CF90000AE011
:107E4000FCA3E0FDA3E0FEA3E0FFE52225E025E0A2
:107E50002427F582E4340FF5831269CF22900C9128
:107E6000E0FEA3E0FFFBAA06E4900E46E0FCA3E0E0
:107E7000FDA3E0FEA3E0C39BF529EE9AF528ED945F
:107E800000F527EC9400F526900C93E0FEA3E0FFAC
:107E9000FBAA06E4900E4AE0FCA3E0FDA3E0FEA3EB
:107EA000E0C39BF52DEE9AF52CED9400F52BEC94A8
:107EB00000F52A900C5CE024FE7003028010147020
:107EC0000302806E1470030281631470030282C681
:107ED000147003028467240560030284E8900D791E
:107EE000E06026900C9FE0FF3395E0FEFDFC900ED5
:107EF00037E0F8A3E0F9A3E0FAA3E0FB1267FC8FF8
:107F0000258E248D238C228009E4F525F524F52384
:107F1000F522900CCEE0F8A3E0F9A3E0FAA3E0FB91
:107F2000C3E5259BFFE5249AFEE52399FDE522980C
:107F3000FC900C89E0F8A3E0F9A3E0FAA3E0FBC30E
:107F40001269345044E4FFFEFDFC900C89E0F8A374
:107F5000E0A3E0A3E0C3126934602E900CCEE0FCF5
:107F6000A3E0FDA3E0FEA3E0FF900C89E0F8A3E00E
:107F7000A3E0A3E0EF2BFFEE3AFEED39FDEC38FC79
:107F8000900CCE1269CF0284E8900CCEE0F8A3E00A
:107F9000F9A3E0FAA3E0FBC3E5259BFFE5249AFEE5
:107FA000E52399FDE52298FC900C8DE0F8A3E0F91B
:107FB000A3E0FAA3E0FBD31269344043E4FFFEFDE3
:107FC000FC900C8DE0F8A3E0A3E0A3E0126934601C
:107FD0002E900CCEE0FCA3E0FDA3E0FEA3E0FF901A
:107FE0000C8DE0F8A3E0A3E0A3E0EF2BFFEE3AFE58
:107FF000ED39FDEC38FC900CCE1269CF0284E8AF6D
:1080000025AE24AD23AC22900CCE1269CF0284E8B9
:10801000E4FFFEFDFCAB29AA28A927A826D31269F4
:1080200034403D900CFDE0FCA3E0FDA3E0FEA3E0A6
:10803000FFA8261267FCC006C007900C91E0FEA3C3
:10804000E0FFC3E49FFF74049EFEAB07FAE4F9F877
:10805000D007D00612C11B900CCE1269CF0284E863
:10806000E4FFFEFDFC900CCE1269CF0284E8900D77
:1080700086E0FCA3E0FDA3E0FEA3E0FF900CCE129F
:1080800069CFE4FFFEFDFCAB29AA28A927A826D3C7
:108090001269344056900D1AE0FFE4FCFDFEA8265C
:1080A0001267FCE47B02FAF9F81267FCC006C0070D
:1080B000900C91E0FEA3E0FFC3E49FFF74049EFEDA
:1080C000AB07FAE4F9F8D007D00612C11B900D8671
:1080D000E0F8A3E0F9A3E0FAA3E02FFFEA3EFEE90F
:1080E0003DFDE83CFC900CCE1269CFE4FFFEFDFCA8
:1080F000AB2DAA2CA92BA82AD312693450030284D1
:10810000E8900D1AE0FFE4FCFDFEA82A1267FCE4EB
:108110007B02FAF9F81267FCC006C007900C93E0E6
:10812000FEA3E0FFC3E49FFF74049EFEAB07FAE4E6
:10813000F9F8D007D00612C11BA804A905AA06ABFE
:1081400007900D86E0FCA3E0FDA3E0FEA3E0C39B47
:10815000FFEE9AFEED99FDEC98FC900CCE1269CFE3
:108160000284E8900D86E0FCA3E0FDA3E0FEA3E01E
:10817000FF900CCE1269CF900EF3E014604814709B
:1081800003028240240260030284E8E4FFFEFDFC57
:10819000AB29AA28A927A826D31269344009900E32
:1081A000F37401F00284E8E4FFFEFDFCAB2DAA2C81
:1081B000A92BA82AD312693450030284E8900EF345
:1081C0007402F00284E8E4FFFEFDFCAB29AA28A9B2
:1081D00027A826C31269345008E4900EF3F00284F5
:1081E000E8900D1AE0FFE4FCFDFEAB29AA28A927C0
:1081F000A8261267FCE47B02FAF9F81267FCC006B5
:10820000C007900C91E0FEA3E0FFC3E49FFF74045D
:108210009EFEAB07FAE4F9F8D007D00612C11B9016
:108220000D86E0F8A3E0F9A3E0FAA3E02FFFEA3E11
:10823000FEE93DFDE83CFC900CCE1269CF0284E8DB
:10824000E4FFFEFDFCAB2DAA2CA92BA82AC31269C2
:10825000345008E4900EF3F00284E8900D1AE0FF29
:10826000E4FCFDFEAB2DAA2CA92BA82A1267FCE486
:108270007B02FAF9F81267FCC006C007900C93E085
:10828000FEA3E0FFC3E49FFF74049EFEAB07FAE485
:10829000F9F8D007D00612C11BA804A905AA06AB9D
:1082A00007900D86E0FCA3E0FDA3E0FEA3E0C39BE6
:1082B000FFEE9AFEED99FDEC98FC900CCE1269CF82
:1082C0000284E80284E8900D86E0FCA3E0FDA3E0D0
:1082D000FEA3E0FF900CCE1269CF900EF3E0146085
:1082E000481470030283C2240260030284E8E4FF9E
:1082F000FEFDFCAB29AA28A927A826D31269344081
:1083000009900EF37401F00284E8E4FFFEFDFCAB7B
:108310002DAA2CA92BA82AD312693450030284E871
:10832000900EF37402F00284E8E4FFFEFDFCAB293A
:10833000AA28A927A826C3126934501BE4FFFEFD12
:10834000FCAB2DAA2CA92BA82AC31269345008E42F
:10835000900EF3F00284E8E4FFFEFDFCAB29AA28AE
:10836000A927A826D312693450030284E8900D1A75
:10837000E0FFE4FCFDFEA8261267FC780212698289
:10838000C006C007900C91E0FEA3E0FFC3E49FFF8E
:1083900074049EFEAB07FAE4F9F8D007D00612C1C8
:1083A0001B900D86E0F8A3E0F9A3E0FAA3E02FFF0D
:1083B000EA3EFEE93DFDE83CFC900CCE1269CF029E
:1083C00084E8E4FFFEFDFCAB29AA28A927A826C360
:1083D000126934501BE4FFFEFDFCAB2DAA2CA92B27
:1083E000A82AC31269345008E4900EF3F00284E81E
:1083F000E4FFFEFDFCAB2DAA2CA92BA82AD3126901
:108400003450030284E8900C9EE0FFE4FCFDFEA8DB
:108410002A1267FC7802126982C006C007900C938A
:10842000E0FEA3E0FFC3E49FFF74049EFEAB07FAE7
:10843000E4F9F8D007D00612C11BA804A905AA06C2
:10844000AB07900D86E0FCA3E0FDA3E0FEA3E0C334
:108450009BFFEE9AFEED99FDEC98FC900CCE126914
:10846000CF0284E80284E8900CC7E0FCA3E0FDE4BE
:10847000126519E4FBFAF978401263FEC004C005E6
:10848000C006C007900E66E0FCA3E0FDEC12651983
:10849000D003D002D001D0001263FE8F318E308D18
:1084A0002F8C2E900CC5E0FCA3E0FDE4126519AB07
:1084B00031AA30A92FA82E1262F5C004C005C0064B
:1084C000C007900D86E0FCA3E0FDA3E0FEA3E0FF63
:1084D000EC126514D003D002D001D0001262041255
:1084E0006552900CCE1269CF900C78E0606AA3E0E0
:1084F000FCA3E0FDA3E0FEA3E0FF900CCEE0F8A318
:10850000E0F9A3E0FAA3E0FBC31269345014900C25
:1085100079E0FCA3E0FDA3E0FEA3E0FF900CCE1207
:1085200069CF900C81E0FCA3E0FDA3E0FEA3E0FF97
:10853000900CCEE0F8A3E0F9A3E0FAA3E0FBD3129D
:1085400069344014900C81E0FCA3E0FDA3E0FEA39D
:10855000E0FF900CCE1269CF900CA1E064016003A3
:10856000028610900E6AE0B40114900E1BE0FCA38A
:10857000E0FDA3E0FEA3E0FF900CCE1269CF900DCA
:1085800045E064016003028610FFFEFDFCAB2DAAEE
:108590002CA92BA82AD3126934405C900D1EE0FC54
:1085A000A3E0FDA3E0FEA3E0FFA82A1267FCC0063B
:1085B000C007900C93E0FEA3E0FFC3E49FFF7404A8
:1085C0009EFEAB07FAE4F9F8D007D00612C11BA84B
:1085D00004A905AA06AB07900D1EE0FCA3E0FDA3CD
:1085E000E0FEA3E0C39BFFEE9AFEED99FDEC98FC44
:1085F000900CCE1269CF22900D1EE0FCA3E0FDA3EB
:10860000E0FEA3E0FF900CCE1269CFE4900D45F0A0
:1086100022E4FFFEFDFC9000021269CF900D26E0DF
:10862000FCA3E0FDA3E0FEA3E0FFEC126514E4FB75
:10863000FA797A78441263FE9000061269CF900F9F
:10864000B4E06010E4FFFEFDFC900FAF1269CFE4D0
:10865000900FB4F0900D7AE0FCA3E0FDA3E0FEA340
:10866000E0FF900CD9E0F9F812696E9000021269EF
:10867000CF900C5CE0FFC39402403AEFD3940550D6
:1086800034E47FC8FEFDFC900E46E0F8A3E0F9A3B9
:10869000E0FAA3E0FBC3126934501AE47FC8FEFD80
:1086A000FC900E4AE0F8A3E0F9A3E0FAA3E0FBC3D4
:1086B0001269344024900C5CE06406705F900E6692
:1086C000E0FEA3E0FFC39432EE64809480504DEF4F
:1086D00094CEEE6480947F4043E47F107E27FDFCBF
:1086E000900002E0F8A3E0F9A3E0FAA3E0FBC312D4
:1086F00069345028900FB3E0B40136900FAFE0FC1E
:10870000A3E0FDA3E0FEA3E02401FFE43EFEE43D80
:10871000FDE43CFC900FAF1269CF8015E4FFFEFD35
:10872000FC900FAF1269CFE4900E6AF0900FB30483
:10873000F0E47B0AFAF9F8900D22E0FCA3E0FDA337
:10874000E0FEA3E0FF12C11B900FAFE0F8A3E0F939
:10875000A3E0FAA3E0FBC312694A60030288F79022
:108760000E6A04F0900D7AE0FCA3E0FDA3E0FEA306
:10877000E0FF900E1B1269CF900D7AE0F8A3E0F9AC
:10878000A3E0FAA3E0FB900D1EE0FCA3E0FDA3E054
:10879000FEA3E0C39BFFEE9AFEED99FDEC98FC1260
:1087A0006514C004C005C006C007900D1EE0FCA300
:1087B000E0FDA3E0FEA3E0FFEC126514A804A90508
:1087C000AA06AB07D007D006D005D0041263FE90EE
:1087D0000006E0F8A3E0F9A3E0FAA3E0FB1262F5DB
:1087E000900FB51269CFE4FFFE7DC87C42900FB5B3
:1087F000E0F8A3E0F9A3E0FAA3E0FB1262F512654A
:1088000052900CD9E0F9F8126982900FB91269CF31
:10881000E4FFFEFDFC900FB9E0F8A3E0F9A3E0FA55
:10882000A3E0FBD31269344010900FB9E0FCA3E041
:10883000FDA3E0FEA3E0FF8011900FB9E0FCA3E0F0
:10884000FDA3E0FEA3E0FF126926900FB91269CFE5
:10885000900D7AE0F8A3E0F9A3E0FAA3E0FB900D15
:108860001EE0FCA3E0FDA3E0FEA3E0C39BFFEE9AA5
:10887000FEED99FDEC98FC900FC11269CFE4FFFE6C
:108880007D207C41900FB5E0F8A3E0F9A3E0FAA3C6
:10889000E0FB1262F5126552900CD9E0F9F812690A
:1088A00082900FBD1269CFE4FFFEFDFC900FBDE08A
:1088B000F8A3E0F9A3E0FAA3E0FBD3126934401077
:1088C000900FBDE0FCA3E0FDA3E0FEA3E0FF80115C
:1088D000900FBDE0FCA3E0FDA3E0FEA3E0FF126962
:1088E00026900FBD1269CFE4FFFEFDFC900FAF1282
:1088F00069CFE4900FB3F0900E6AE07003028A3102
:10890000900FB9E0FCA3E0FDA3E0FEA3E0FF900F11
:10891000C1E0F8A3E0F9A3E0FAA3E0FBC3126934D5
:108920005053900FB9E0FCA3E0FDA3E0FEA3E0FFED
:10893000126926900FC1E0F8A3E0A3E0A3E0D312F0
:1089400069344031900D1EE0FCA3E0FDA3E0FEA3DE
:10895000E0FF900E1B1269CF900C5CE0C3940240C4
:1089600006900D457401F0E4FFFEFDFC900FAF1280
:1089700069CF028A31900D7AE0F8A3E0F9A3E0FA1A
:10898000A3E0FB900D1EE0FCA3E0FDA3E0FEA3E04E
:10899000C39BFFEE9AFEED99FDEC98FC900FC1127F
:1089A00069CFE4FFFEFDFC900FC1E0F8A3E0F9A35E
:1089B000E0FAA3E0FBD3126934402E900E1BE0FCDA
:1089C000A3E0FDA3E0FEA3E0FF900FBDE0F8A3E06D
:1089D000F9A3E0FAA3E0FBEF2BFFEE3AFEED39FD41
:1089E000EC38FC900E1B1269CFE4FFFEFDFC900FEB
:1089F000C1E0F8A3E0F9A3E0FAA3E0FBC3126934F5
:108A0000502F900E1BE0FCA3E0FDA3E0FEA3E0FFCF
:108A1000900FBDE0F8A3E0F9A3E0FAA3E0FBC3EFF9
:108A20009BFFEE9AFEED99FDEC98FC900E1B1269EF
:108A3000CF900C78E0606AA3E0FCA3E0FDA3E0FE29
:108A4000A3E0FF900E1BE0F8A3E0F9A3E0FAA3E097
:108A5000FBC31269345014900C79E0FCA3E0FDA331
:108A6000E0FEA3E0FF900E1B1269CF900C81E0FCAA
:108A7000A3E0FDA3E0FEA3E0FF900E1BE0F8A3E05F
:108A8000F9A3E0FAA3E0FBD31269344014900C81FF
:108A9000E0FCA3E0FDA3E0FEA3E0FF900E1B126943
:108AA000CF22E52B2448F582E43407F583E0052B3B
:108AB00022900745300803900748E475F0011269D9
:108AC000DB0267852001E97F2ED2018018EF540F69
:108AD0002490D43440D4FF30050BEF24BFB41A00E7
:108AE00050032461FFE52C6002152C052FE52F7043
:108AF00002052E30080E900745E475F0011269DB7F
:108B0000EF0267CB02C6427403D2088003E4C208B6
:108B1000F52B9007451269F2E4F52CF52EF52FE5BB
:108B20002C60077F20128AE580F5752DFFC202C2F6
:108B300001C203C204C206C207C209128AB1FF7091
:108B40000D3008057F00128AF6AF2FAE2E22B42515
:108B50005FC2D5C205128AB1FF24D0B40A00501AF0
:108B600075F00A782C30D50508B6FF0106C6A42694
:108B7000F620D5047002D20480D924CFB41A00EFB5
:108B80005004C2E5D205028DE8D20280C6D201802F
:108B9000C0D20380BCD2D580BAD20680B47F201266
:108BA0008AE52003077401B52C0040F1128AA2FF68
:108BB000128AE5028B1FD209D2078095128AA2FB86
:108BC000128AA2FA128AA2F94A4B700679E67A8EC4
:108BD0007BFF20032EE52C602A7E008E82758300A9
:108BE00012679E60060EEE652D70F0C2D5EBC0E0F8
:108BF000EAC0E0E9C0E0EE128E49D0E0F9D0E0FA38
:108C0000D0E0FB126785FF60AAEBC0E0EAC0E0E9B4
:108C1000C0E0128AE5D0E02401F9D0E03400FAD0B7
:108C2000E0FBE52D0460DCD52DD98087D20380A23E
:108C3000128E2B60F7E52D7001041265D3A92D600B
:108C40000DE52D600914F52D128ED3EF60F3EA3097
:108C5000E702F404C3995079EAF4252D0430E701C2
:108C6000E404F52D800D128E2B60C1EA052D252D13
:108C70001265D3EA900774F030E701E4252D04D59E
:108C80002D0420060114128E49E4C0E0128ED39008
:108C90000774E0601320E70714F0128ACD802204E5
:108CA000F0D0E014C0E07F00128ACDE52D600712FD
:108CB0008AC4152D800B300603128AC4D0E0028BC3
:108CC0001FD0E00480C4128E2B609EE52D04126537
:108CD000D3900774EAF0E52D200602600104240415
:108CE000128E4974FF04C0E0128ED3128ACDE52D96
:108CF0002006026003128AC4D0E0B52DE87F451239
:108D00008AD7900774E07F2B30E7047F2DF404C0EE
:108D1000E0128AE5D0E075F00A84C0F0128ACED065
:108D2000E0128ACE028B1F791080027908C207C236
:108D3000098008D2D5790A8004790AC2D5E52D04C4
:108D40007002F52DE4FAFDFEFF128AA2FC7B0820DA
:108D50000213128AA2FD7B1030010A128AA2FE12AF
:108D60008AA2FF7B20EC3382D592D55013C3E43026
:108D700001069FFFE49EFEE42002039DFDE49CFCAF
:108D8000E4CBF8C202EC700CCFCECDCCE824F8F8DE
:108D900070F38017C3EF33FFEE33FEED33FDEC339A
:108DA000FCEB33FB994002FB0FD8E9EB300205F8EE
:108DB000D0E0C448B202C0E00AEC4D4E4F78207BB0
:108DC0000070C2EAB52D0040BCC0E0128E4BD0F05E
:108DD000D0E0200204C4C0E0C4B202C0F0128ACEC7
:108DE000D0F0D5F0EB028B1F1269FB8BBC538D27A3
:108DF000588B8D4C8B89428D2B4F8D33448D33494D
:108E00008BA2438D39558C66468CC6458C30478F76
:108E100006508B912D8B952E8BB82B8B99238BB66F
:108E2000208EEF2A8B514800008BB0E52DB4FF0354
:108E3000752D06128AA2FC128AA2FD128AA2FE12C7
:108E40008AA2FF90076D026610790AA2D520041449
:108E5000300609B910020404B9080104A2D520079C
:108E6000025001042003689203B52C005034C0E086
:108E70007F203004197F30A20372077206500F1250
:108E80008EA2C203C207C206C2097F30800F30061D
:108E900003E9C0E0128AE5300603D0E0F9D0E0B57E
:108EA0002CCC3006177F30B9100C128AE57F583071
:108EB00005077F788003B90803128AE53003057F30
:108EC0002D028AE57F202009F87F2B2007F32292CC
:108ED0000380CF7F00B40700500B246DF582E4348B
:108EE00007F583E0FF22286E756C6C2900D2021210
:108EF0008AA23002F8C202782C30D50108F6028B23
:108F0000512D50434958128AA22403B40500400150
:108F1000E4908F0193128AD6743A128AD6D20475DD
:108F20002C04028D27752B02900C5CE060030291EB
