:1026000002A824008F828E83E0540100000070F83D
:102610002278FFE4F6D8FD02A8B2900002EEF0A303
:10262000EFF078047C007D017BFF7A59795D7E06AE
:102630007F0F127CA59006137406F0A3740FF07838
:10264000197C067D017BFF7A5F796C7E00FF127C2E
:10265000A578287C067D017BFF7A5F797B7E007FF1
:102660001C127CA578447C067D017BFF7A5F7997FC
:102670007E007F1B127CA5785F7C067D017BFF7A44
:102680005F79B27E007F1C127CA5787B7C067D0181
:102690007BFF7A5F79CE7E007F22127CA5789D7CBD
:1026A000067D017BFF7A5F79F07E007F27127CA593
:1026B00078C47C067D017BFF7A6079177E007F11EC
:1026C000127CA578D57C067D017BFF7A6079287E17
:1026D000007F19127CA578EE7C067D017BFF7A6075
:1026E00079417E007F11127CA578FF7C067D017BFD
:1026F000FF7A6079527E007F1C127CA5781B7C07D4
:102700007D017BFF7A60796E7E007F1D127CA5784B
:10271000387C077D017BFF7A60798B7E007F1B12FE
:102720007CA578537C077D017BFF7A6079A67E00CB
:102730007F14127CA578677C077D017BFF7A607926
:10274000BA7E007F25127CA5788C7C077D017BFFFB
:102750007A6079DF7E007F15127CA578A17C077DE9
:10276000017BFF7A6079F47E007F15127CA578B634
:102770007C077D017BFF7A6179097E007F14127CE2
:10278000A578CA7C077D017BFF7A61791D7E007F79
:1027900024127CA578EE7C077D017BFF7A6179416C
:1027A0007E007F19127CA578077C087D017BFF7A6B
:1027B00061795A7E007F18127CA5781F7C087D0104
:1027C0007BFF7A6179727E007F15127CA578347C5C
:1027D000087D017BFF7A6179877E007F63127CA58B
:1027E00078977C087D017BFF7A6179EA7E007F3FE4
:1027F000127CA578D67C087D017BFF7A6279297EE0
:10280000007F2A127CA57B017A06791912CCFD8FF4
:102810002C7B017A06792812CCFD8F2D7B017A065C
:10282000794412CCFD8F2E7B017A0679C412CCFD3F
:102830008F2F7B017A0679D512CCFD8F307B017A00
:102840000679EE12CCFD8F317B017A07791B12CC11
:10285000FD8F327B017A07793812CCFD8F337B01F3
:102860007A07795312CCFD8F347B017A07798C1269
:10287000CCFD8F357B017A0779A112CCFD8F367B99
:10288000017A0779B612CCFD8F377B017A0779EE92
:1028900012CCFD8F387B017A08791F12CCFD8F395D
:1028A0007B017A08793412CCFD8F3A7B017A087962
:1028B0009712CCFD8F3B7B017A0879D612CCFD8F25
:1028C0003C900004740CF0A37415F0900002E0FE3C
:1028D000A3E0FFEE6003023B0AEFB41600400302E0
:1028E0003B0A9028E9F828287302292B0236270290
:1028F00036300237000237D00237E30237EC0237B6
:10290000F502382002389E0238DB0238E40239BA78
:10291000023A40023A50023A59023A78023AA10287
:102920003AAA023ABE023AC7023AD09000067402AE
:10293000F0A314F090090AE0900008F0852C2AE535
:102940002A6032FFC3E52C9FFFE49400FE74192F28
:10295000F58274063EF583E0FFE52AFDE52CC39D74
:10296000FDE49400FC74092DF58274003CF583EFBE
:10297000F0152A80CA9000387407F0A37403F09011
:10298000093DE06403606890090BE0FCA3E0FDA34F
:10299000E0FEA3E0FFEC1275A4E4FBFA798078472F
:1029A00012748E90003A127B1590090FE0FCA3E0A0
:1029B000FDA3E0FEA3E0FFEC1275A4E4FBFA79802E
:1029C000784712748E90003E127B15900913E0FC3C
:1029D000A3E0FDA3E0FEA3E0FFEC1275A4E4FBFA84
:1029E0007980784712748E900042127B1580669031
:1029F0000923E0FCA3E0FDA3E0FEA3E0FFEC1275D9
:102A0000A4E4FBFA7980784712748E90003A127B26
:102A100015900927E0FCA3E0FDA3E0FEA3E0FFEC96
:102A20001275A4E4FBFA7980784712748E90003E08
:102A3000127B1590092BE0FCA3E0FDA3E0FEA3E0D0
:102A4000FFEC1275A4E4FBFA7980784712748E903B
:102A50000042127B15852D2AE52A6032FFC3E52D41
:102A60009FFFE49400FE74282FF58274063EF583E0
:102A7000E0FFE52AFDE52DC39DFDE49400FC7446CE
:102A80002DF58274003CF583EFF0152A80CA900082
:102A90006A7407F0A37403F090093DE06403606872
:102AA000900917E0FCA3E0FDA3E0FEA3E0FFEC1219
:102AB00075A4E4FBFA7980784712748E90006C124A
:102AC0007B1590091BE0FCA3E0FDA3E0FEA3E0FF63
:102AD000EC1275A4E4FBFA7980784712748E9000AA
:102AE00070127B1590091FE0FCA3E0FDA3E0FEA39C
:102AF000E0FFEC1275A4E4FBFA7980784712748E3B
:102B0000900074127B15806690092FE0FCA3E0FD15
:102B1000A3E0FEA3E0FFEC1275A4E4FBFA79807851
:102B20004712748E90006C127B15900933E0FCA361
:102B3000E0FDA3E0FEA3E0FFEC1275A4E4FBFA794C
:102B400080784712748E900070127B15900937E0E0
:102B5000FCA3E0FDA3E0FEA3E0FFEC1275A4E4FB00
:102B6000FA7980784712748E900074127B15852E46
:102B70002AE52A6032FFC3E52E9FFFE49400FE742D
:102B8000442FF58274063EF583E0FFE52AFDE52E2D
:102B9000C39DFDE49400FC74782DF58274003CF52F
:102BA00083EFF0152A80CAE490009CF0A304F09013
:102BB000093BE090009EF090093B601C9009037473
:102BC000FFF0A3744FF0A374B2F07B017A06795F33
:102BD00012C062752B1C801A90090374FFF0A37455
:102BE0004FF0A374B8F07B017A06795F12C062756A
:102BF0002B1B852B2AE52A6032FFC3E52B9FFFE4C0
:102C00009400FE745F2FF58274063EF583E0FFE5C5
:102C10002AFDE52BC39DFDE49400FC749F2DF582F5
:102C200074003CF583EFF0152A80CA749F252BF5BC
:102C300082E43400F5837403F0E49000CEF0A30442
:102C4000F090093CE09000D0F090093C14603314FF
:102C5000604C14606514607E147003022CF224052D
:102C60006003022D0C90090374FFF0A3744FF0A3CE
:102C700074BDF07B017A06797B12C062752B140259
:102C80002D0C90090374FFF0A3744FF0A374C3F0EC
:102C90007B017A06797B12C062752B17806E9009D2
:102CA0000374FFF0A3744FF0A374CCF07B017A0699
:102CB000797B12C062752B21805290090374FFF05A
:102CC000A3744FF0A374DFF07B017A06797B12C006
:102CD00062752B1D803690090374FFF0A3744FF0CA
:102CE000A374EEF07B017A06797B12C062752B1912
:102CF000801A90090374FFF0A3744FF0A374F9F0E5
:102D00007B017A06797B12C062752B22852B2AE51E
:102D10002A6032FFC3E52B9FFFE49400FE747B2FF3
:102D2000F58274063EF583E0FFE52AFDE52BC39DA1
:102D3000FDE49400FC74D12DF58274003CF583EF22
:102D4000F0152A80CA74D1252BF582E43400F5836E
:102D50007401F0E4900100F0A304F090093DE090CC
:102D60000102F090093D14602614603F146058245D
:102D700003706E90090374FFF0A37450F0A3740DF8
:102D8000F07B017A06799D12C062752B1B805290F0
:102D9000090374FFF0A37450F0A37418F07B017A58
:102DA00006799D12C062752B16803690090374FF58
:102DB000F0A37450F0A3741EF07B017A06799D1283
:102DC000C062752B1A801A90090374FFF0A3745027
:102DD000F0A37428F07B017A06799D12C062752BEE
:102DE00027852B2AE52A6032FFC3E52B9FFFE49459
:102DF00000FE749D2FF58274063EF583E0FFE52A00
:102E0000FDE52BC39DFDE49400FC74032DF5827455
:102E1000013CF583EFF0152A80CA7403252BF58257
:102E2000E43401F5837402F0900132F0A304F0E47D
:102E3000F52AE52AC39403501E743E252AF582E440
:102E40003409F583E0FF7434252AF582E43401F572
:102E500083EFF0052A80DB852F2AE52A6032FFC345
:102E6000E52F9FFFE49400FE74C42FF58274063EA4
:102E7000F583E0FFE52AFDE52FC39DFDE49400FC0A
:102E800074372DF58274013CF583EFF0152A80CA62
:102E90009001647403F0A3F0E4F52AE52AC39403D7
:102EA0005044E52A25E025E02441F582E43409F583
:102EB00083E0FCA3E0FDA3E0FEA3E0FF743E252A2F
:102EC000F582E43409F583E0F9F8127A8875F002A6
:102ED000E52AA42466F582E5F03401F583EEF0A33B
:102EE000EFF0052A80B585302AE52A6032FFC3E578
:102EF000309FFFE49400FE74D52FF58274063EF5F2
:102F000083E0FFE52AFDE530C39DFDE49400FC74F9
:102F10006C2DF58274013CF583EFF0152A80CA9080
:102F200001967407F0A37403F0E4F52AE52AC3942C
:102F3000035031E52A25E025E0244DF582E43409EB
:102F4000F583E0FCA3E0FDA3E0FEA3E0FF75F00441
:102F5000E52AA42498F582E5F03401F583127B1567
:102F6000052A80C885312AE52A6032FFC3E5319FF2
:102F7000FFE49400FE74EE2FF58274063EF583E0C4
:102F8000FFE52AFDE531C39DFDE49400FC74A42D0A
:102F9000F58274013CF583EFF0152A80CAE49001B4
:102FA000C8F0A304F0900959E09001CAF0900959C3
:102FB000601C90090374FFF0A3744FF0A374B2F087
:102FC0007B017A0679FF12C062752B1C801A90096A
:102FD0000374FFF0A3744FF0A374B8F07B017A067A
:102FE00079FF12C062752B1B852B2AE52A6032FF00
:102FF000C3E52B9FFFE49400FE74FF2FF582740657
:103000003EF583E0FFE52AFDE52BC39DFDE494003A
:10301000FC74CB2DF58274013CF583EFF0152A800A
:10302000CA74CB252BF582E43401F5837403F09048
:1030300001FA7405F0A37402F0E4F52AE52AC394BA
:103040000140030230C7E52A25E025E0245AF58235
:10305000E43409F583E0FCA3E0FDA3E0FEA3E0FF78
:10306000743E252AF582E43409F583E0F9F8127AF2
:103070008875F008E52AA424FCF582E5F03401F512
:1030800083127B15E52A25E025E02462F582E434ED
:1030900009F583E0FCA3E0FDA3E0FEA3E0FF743E9E
:1030A000252AF582E43409F583E0F9F8127A887567
:1030B000F008E52AA42400F582E5F03402F5831235
:1030C0007B15052A02303C85322AE52A6032FFC38F
:1030D000E5329FFFE49400FE741B2FF58274073ED7
:1030E000F583E0FFE52AFDE532C39DFDE49400FC95
:1030F00074042DF58274023CF583EFF0152A80CA22
:1031000090022C7405F0A37402F090096EE0FCA309
:10311000E0FDA3E0FEA3E0FF90022E127B159009D4
:103120006AE0FCA3E0FDA3E0FEA3E0FF9002321200
:103130007B1585332AE52A6032FFC3E5339FFFE420
:103140009400FE74382FF58274073EF583E0FFE5A6
:103150002AFDE533C39DFDE49400FC74362DF58211
:1031600074023CF583EFF0152A80CA90025E740366
:10317000F0A37401F0900972E0FFA3E0900260CF29
:10318000F0A3EFF085342AE52A6032FFC3E5349FCF
:10319000FFE49400FE74532FF58274073EF583E03C
:1031A000FFE52AFDE534C39DFDE49400FC74622D27
:1031B000F58274023CF583EFF0152A80CAE4900290
:1031C00090F0A304F0900978E0900292F0900978D2
:1031D000601C90090374FFF0A3744FF0A374B2F065
:1031E0007B017A07796712C062752B25801A9009D6
:1031F0000374FFF0A3744FF0A374B8F07B017A0757
:10320000796712C062752B24852B2AE52A6032FF6C
:10321000C3E52B9FFFE49400FE74672FF5827407CB
:103220003EF583E0FFE52AFDE52BC39DFDE4940018
:10323000FC74932DF58274023CF583EFF0152A801F
:10324000CA7493252BF582E43402F5837403F0905D
:1032500002C204F0A37402F0900974E0FFA3E090AE
:1032600002C4CFF0A3EFF0900976E0FFA3E0900254
:10327000C6CFF0A3EFF085352AE52A6032FFC3E51B
:10328000359FFFE49400FE748C2FF58274073EF5A1
:1032900083E0FFE52AFDE535C39DFDE49400FC7461
:1032A000C82DF58274023CF583EFF0152A80CA9090
:1032B00002F47406F0A37402F0900979E0FCA3E034
:1032C000FDA3E0FEA3E0FF9002F6127B1590097DBE
:1032D000E0FCA3E0FDA3E0FEA3E0FF9002FA127B76
:1032E0001585362AE52A6032FFC3E5369FFFE49450
:1032F00000FE74A12FF58274073EF583E0FFE52AF6
:10330000FDE536C39DFDE49400FC74FE2DF582744A
:10331000023CF583EFF0152A80CA9003267402F070
:10332000A314F0900981E0900328F085372AE52A5C
:103330006032FFC3E5379FFFE49400FE74B62FF5BB
:103340008274073EF583E0FFE52AFDE537C39DFD66
:10335000E49400FC74292DF58274033CF583EFF0AE
:10336000152A80CAE4900358F0A304F0900982E083
:1033700090035AF0900982601C90090374FFF0A337
:10338000744FF0A374B2F07B017A0779CA12C0625D
:10339000752B24801A90090374FFF0A3744FF0A3D7
:1033A00074B8F07B017A0779CA12C062752B238545
:1033B0002B2AE52A6032FFC3E52B9FFFE49400FE31
:1033C00074CA2FF58274073EF583E0FFE52AFDE518
:1033D0002BC39DFDE49400FC745B2DF58274033CCB
:1033E000F583EFF0152A80CA745B252BF582E4344F
:1033F00003F5837403F090038A7401F0A3F090093D
:1034000083E090038CF085382AE52A6032FFC3E51B
:10341000389FFFE49400FE74EE2FF58274073EF5AA
:1034200083E0FFE52AFDE538C39DFDE49400FC74CC
:103430008D2DF58274033CF583EFF0152A80CAE4E4
:103440009003BCF0A304F0900984E09003BEF090D8
:103450000984601C90090374FFF0A3744FF0A374F7
:10346000B2F07B017A08790712C062752B18801AB6
:1034700090090374FFF0A3744FF0A374B8F07B01BC
:103480007A08790712C062752B17852B2AE52A6006
:1034900032FFC3E52B9FFFE49400FE74072FF582F3
:1034A00074083EF583E0FFE52AFDE52BC39DFDE4AE
:1034B0009400FC74BF2DF58274033CF583EFF01586
:1034C0002A80CA74BF252BF582E43403F583740384
:1034D000F09003EE7407F0A314F0E4F52AE52AC394
:1034E00094065031E52A25E025E02485F582E43470
:1034F00009F583E0FCA3E0FDA3E0FEA3E0FF75F087
:1035000004E52AA424F0F582E5F03403F583127B68
:1035100015052A80C885392AE52A6032FFC3E539B6
:103520009FFFE49400FE741F2FF58274083EF5831C
:10353000E0FFE52AFDE539C39DFDE49400FC740835
:103540002DF58274043CF583EFF0152A80CA853A84
:103550002AE52A6032FFC3E53A9FFFE49400FE7437
:10356000342FF58274083EF583E0FFE52AFDE53A45
:10357000C39DFDE49400FC74202DF58274043CF599
:1035800083EFF0152A80CA853B2AE52A6032FFC303
:10359000E53B9FFFE49400FE74972FF58274083E8C
:1035A000F583E0FFE52AFDE53BC39DFDE49400FCC7
:1035B00074B62DF58274043CF583EFF0152A80CAA9
:1035C000853C2AE52A6032FFC3E53C9FFFE4940076
:1035D000FE74D62FF58274083EF583E0FFE52AFDE0
:1035E000E53CC39DFDE49400FC744C2DF58274050C
:1035F0003CF583EFF0152A80CA7B017A00790490AC
:103600000613E0A3E014FD12C8D6900613E0FCA355
:10361000E0FD2403F58274003CF583EFF07B017A32
:1036200000790412B41322900AAAE09009B9F0229A
:1036300090093DE064036064E4FFFE7D807C479078
:103640000AAAE0F8A3E0F9A3E0FAA3E0FB1273856D
:103650001275E29009BA127B15E4FFFE7D807C476B
:10366000900AAEE0F8A3E0F9A3E0FAA3E0FB12733E
:10367000851275E29009BE127B15E4FFFE7D807C09
:1036800047900AB2E0F8A3E0F9A3E0FAA3E0FB1246
:1036900073851275E29009C2127B1522E4FFFE7D4C
:1036A000807C47900AAAE0F8A3E0F9A3E0FAA3E03F
:1036B000FB1273851275E29009D2127B15E4FFFEAE
:1036C0007D807C47900AAEE0F8A3E0F9A3E0FAA37E
:1036D000E0FB1273851275E29009D6127B15E4FFA8
:1036E000FE7D807C47900AB2E0F8A3E0F9A3E0FAFF
:1036F000A3E0FB1273851275E29009DA127B1522A2
:1037000090093DE064036064E4FFFE7D807C4790A7
:103710000AAAE0F8A3E0F9A3E0FAA3E0FB1273859C
:103720001275E29009C6127B15E4FFFE7D807C478E
:10373000900AAEE0F8A3E0F9A3E0FAA3E0FB12736D
:10374000851275E29009CA127B15E4FFFE7D807C2C
:1037500047900AB2E0F8A3E0F9A3E0FAA3E0FB1275
:1037600073851275E29009CE127B1522E4FFFE7D6F
:10377000807C47900AAAE0F8A3E0F9A3E0FAA3E06E
:10378000FB1273851275E29009DE127B15E4FFFED1
:103790007D807C47900AAEE0F8A3E0F9A3E0FAA3AD
:1037A000E0FB1273851275E29009E2127B15E4FFCB
:1037B000FE7D807C47900AB2E0F8A3E0F9A3E0FA2E
:1037C000A3E0FB1273851275E29009E6127B1522C5
:1037D000900AAAE060079009EA7403F022E49009D5
:1037E000EAF022900AAAE09009EBF022900AAAE0FF
:1037F0009009ECF022E4F52AE52AC3940340030281
:103800003B0A74AA252AF582E4340AF583E0FF74A2
:10381000ED252AF582E43409F583EFF0052A80D8F6
:10382000E4F52AE52AC394035071E52A25E024AA89
:10383000F582E4340AF583E0FEA3E0FFEE3395E081
:10384000FDFCE52A25E025E024F0F582E43409F5C5
:1038500083127B15E52A25E025E024F0F582E43487
:1038600009F583C083C082E0FCA3E0FDA3E0FEA3D2
:10387000E0FF74ED252AF582E43409F583E0F9F8D8
:10388000127A9CD082D083127B15746A252AF58225
:10389000E4340BF583E4F0052A8088D20A22E4F5AB
:1038A0002AE52AC394034003023B0AE52A25E025C2
:1038B000E024AAF582E4340AF583E0FCA3E0FDA34A
:1038C000E0FEA3E0FFE52A25E025E024FCF582E404
:1038D0003409F583127B15052A80C6900AAAE09068
:1038E0000A08F022E4F52AE52AC394024003023BC9
:1038F0000AE52A75F008A424AAF582E4340AF583BF
:10390000E0FCA3E0FDA3E0FEA3E0FFE52A25E0251F
:10391000E02409F582E4340AF583127B15E52A7563
:10392000F008A424AEF582E4340AF583E0FCA3E0B9
:10393000FDA3E0FEA3E0FFE52A25E025E02411F544
:1039400082E4340AF583127B15E52A25E025E0247C
:1039500009F582E4340AF583C083C082E0FCA3E069
:10396000FDA3E0FEA3E0FF74ED252AF582E434090F
:10397000F583E0F9F8127A9CD082D083127B15E5AA
:103980002A25E025E02411F582E4340AF583C0837A
:10399000C082E0FCA3E0FDA3E0FEA3E0FF74ED2500
:1039A0002AF582E43409F583E0F9F8127A9CD08292
:1039B000D083127B15052A0238E7900AAAE0FCA3FF
:1039C000E0FDA3E0FEA3E0FF900615127B15E4FFE7
:1039D000FEFDFC900615E0F8A3E0F9A3E0FAA3E0F1
:1039E000FBD3127A4E5014900615E0FCA3E0FDA321
:1039F000E0FEA3E0FF900A1D127B15900AAEE0FCEA
:103A0000A3E0FDA3E0FEA3E0FF900615127B15E402
:103A1000FFFEFDFC900615E0F8A3E0F9A3E0FAA391
:103A2000E0FBC3127A4E5003023B0A900615E0FCFD
:103A3000A3E0FDA3E0FEA3E0FF900A19127B15228C
:103A4000900AAAE0FFA3E0900A21CFF0A3EFF022B2
:103A5000900AAAE0900A27F022900AAAE0FFA3E0C9
:103A6000900A23CFF0A3EFF0900AACE0FFA3E09020
:103A70000A25CFF0A3EFF022900AAAE0FCA3E0FD14
:103A8000A3E0FEA3E0FF900A28127B15900AAEE0A7
:103A9000FCA3E0FDA3E0FEA3E0FF900A2C127B153F
:103AA00022900AAAE0900A30F022900AAAE0FF6071
:103AB00007900A317401F022E4900A31F022900A52
:103AC000AAE0900A32F022900AAAE0900A33F0228B
:103AD000E4F52AE52AC394065030E52A25E025E0DE
:103AE00024AAF582E4340AF583E0FCA3E0FDA3E018
:103AF000FEA3E0FFE52A25E025E02434F582E43446
:103B00000AF583127B15052A80C922900450EBF038
:103B1000A3EAF0A3E9F090090AE064FA7003024F07
:103B2000B1900450E0FBA3E0FAA3E0F8AC02AD03CF
:103B30007BFF7A50793F127D8390090374FFF0A3D5
:103B40007450F0A37440F0900450E0FBA3E0FAA39B
:103B5000E0F912C06290090374FFF0A37450F0A35F
:103B60007443F0900450E0FBA3E0FAA3E0F912C024
:103B70006290090374FFF0A37450F0A37456F090A0
:103B80000450E0FBA3E0FAA3E0F912C0629009033D
:103B900074FFF0A37450F0A3746DF0900450E0FB38
:103BA000A3E0FAA3E0F912C06290090374FFF0A346
:103BB0007450F0A37473F0900450E0FBA3E0FAA3F8
:103BC000E0F912C0629004BC74FFF0A37450F0A33B
:103BD0007481F090090AE0FF9004BFE4F0A3EFF0D5
:103BE0007B017A047955128C9C9009037401F0A32F
:103BF0007404F0A37455F0900450E0FBA3E0FAA322
:103C0000E0F912C06290090374FFF0A37450F0A3AE
:103C1000748AF0900450E0FBA3E0FAA3E0F912C02C
:103C200062900984E0B4011E90090374FFF0A3744C
:103C300050F0A374A5F0900450E0FBA3E0FAA3E0D9
:103C4000F912C062801C90090374FFF0A37450F055
:103C5000A374AAF0900450E0FBA3E0FAA3E0F912E9
:103C6000C0629004BC74FFF0A37450F0A374AEF073
:103C7000900B8DE0FF9004BFE4F0A3EFF07B017A9E
:103C8000047955128C9C9009037401F0A37404F01C
:103C9000A37455F0900450E0FBA3E0FAA3E0F912FE
:103CA000C06290090374FFF0A37450F0A37440F055
:103CB000900450E0FBA3E0FAA3E0F912C06290097F
:103CC0000374FFF0A37450F0A374BEF0900450E0AE
:103CD000FBA3E0FAA3E0F912C06290090374FFF0BD
:103CE000A37450F0A374CBF0900450E0FBA3E0FA6F
:103CF000A3E0F912C0629009ECE0B4021E9009033F
:103D000074FFF0A37450F0A374DBF0900450E0FB58
:103D1000A3E0FAA3E0F912C06280419009ECE0B49C
:103D2000011E90090374FFF0A37450F0A374E9F02E
:103D3000900450E0FBA3E0FAA3E0F912C062801CFB
:103D400090090374FFF0A37450F0A374F2F0900490
:103D500050E0FBA3E0FAA3E0F912C062E490045340
:103D6000F0A3F0C3900454E09402900453E0648004
:103D700094804003023EC79009ECE06402705F90BB
:103D800004BC74FFF0A37451F0A37400F0900453CA
:103D9000E0FEA3E07802C333CE33CED8F924A7F5F2
:103DA0008274093EF583E0A3E0A3E0FFA3E0900462
:103DB000BFCFF0A3EFF07B017A047955128C9C9071
:103DC00009037401F0A37404F0A37455F090045037
:103DD000E0FBA3E0FAA3E0F912C062023EB690094C
:103DE000ECE06401705E9004BC74FFF0A37451F0C9
:103DF000A37400F0900453E0FEA3E07802C333CE36
:103E000033CED8F924AFF58274093EF583E0A3E000
:103E1000A3E0FFA3E09004BFCFF0A3EFF07B017A13
:103E2000047955128C9C9009037401F0A37404F07A
:103E3000A37455F0900450E0FBA3E0FAA3E0F9125C
:103E4000C06280729004BC74FFF0A37451F0A3743C
:103E500000F0900453E0FAA3E0FBAE027802C33313
:103E6000CE33CED8F9249FF58274093EF583E0FC69
:103E7000A3E0FDA3E0FEA3E0FF743E2BF5827409EE
:103E80003AF583E0F9F8127A889004BFEEF0A3EFD8
:103E9000F07B017A047955128C9C9009037401F02F
:103EA000A37404F0A37455F0900450E0FBA3E0FA6F
:103EB000A3E0F912C062900454E004F0700690048C
:103EC00053E004F0023D6390090374FFF0A37450C3
:103ED000F0A37440F0900450E0FBA3E0FAA3E0F9F3
:103EE00012C06290090374FFF0A37450F0A37440F1
:103EF000F0900450E0FBA3E0FAA3E0F912C0629056
:103F000004BC74FFF0A37451F0A37404F07B017A35
:103F1000047955128C9C9009B7E0540360199009FC
:103F20000374FFF0A37451F0A37414F07B017A04BE
:103F3000795512C062801790090374FFF0A3745181
:103F4000F0A3741AF07B017A04795512C0629009CB
:103F5000037401F0A37404F0A37455F0900450E0CE
:103F6000FBA3E0FAA3E0F912C06290090374FFF02A
:103F7000A37451F0A3741FF0900450E0FBA3E0FA87
:103F8000A3E0F912C06290090374FFF0A37451F02A
:103F9000A37435F0900450E0FBA3E0FAA3E0F9121B
:103FA000C062E4900453F0A3F0C3900454E094037F
:103FB000900453E064809480400302406F9004BCFE
:103FC00074FFF0A37451F0A37445F0900453E0FC27
:103FD000A3E0FD2401FEE43C9004BFF0A3CEF0ED8D
:103FE000AE047802C333CE33CED8F92456F58274AA
:103FF0000B3EF583E0FCA3E0FDA3E0FEA3E0FF9011
:104000000453E0FAA3E0243EF58274093AF583E014
:10401000F9F8127A889004C1EEF0A3EFF07B017AF0
:10402000047955128C9C9009037401F0A37404F078
:10403000A37455F0900450E0FBA3E0FAA3E0F9125A
:10404000C06290090374FFF0A37450F0A37440F0B1
:10405000900450E0FBA3E0FAA3E0F912C0629004E0
:1040600054E004F07006900453E004F0023FA9907D
:1040700004BC74FFF0A37451F0A3744EF0900A8A4C
:10408000E0FCA3E0FDA3E0FEA3E0FF9004BF127BF1
:10409000157B017A047955128C9C9009037401F008
:1040A000A37404F0A37455F0900450E0FBA3E0FA6D
:1040B000A3E0F912C06290090374FFF0A37450F0FA
:1040C000A37440F0900450E0FBA3E0FAA3E0F912DF
:1040D000C0629004BC74FFF0A37451F0A37460F04C
:1040E000900B62E0FCA3E0FDA3E0FEA3E0FF9004E0
:1040F000BF127B157B017A047955128C9C900903C1
:104100007401F0A37404F0A37455F0900450E0FB24
:10411000A3E0FAA3E0F912C06290090374FFF0A3D0
:104120007450F0A37440F0900450E0FBA3E0FAA3B5
:10413000E0F912C06290090374FFF0A37451F0A378
:104140007472F0900450E0FBA3E0FAA3E0F912C00F
:104150006290090374FFF0A37451F0A37488F09087
:104160000450E0FBA3E0FAA3E0F912C06290093D1D
:10417000E06403700302427A9004BC74FFF0A374FD
:1041800051F0A3749AF090090BE0FCA3E0FDA3E0CA
:10419000FEA3E0FFEC1275A4E4FBFA7980784712E5
:1041A000748E9004BF127B157B017A047955128CB2
:1041B0009C9009037401F0A37404F0A37455F0906B
:1041C0000450E0FBA3E0FAA3E0F912C0629004BC43
:1041D00074FFF0A37451F0A374A4F090090FE0FCF5
:1041E000A3E0FDA3E0FEA3E0FFEC1275A4E4FBFA5C
:1041F0007980784712748E9004BF127B157B017A08
:10420000047955128C9C9009037401F0A37404F096
:10421000A37455F0900450E0FBA3E0FAA3E0F91278
:10422000C0629004BC74FFF0A37451F0A374AEF0AC
:10423000900913E0FCA3E0FDA3E0FEA3E0FFEC1275
:1042400075A4E4FBFA7980784712748E9004BF124B
:104250007B157B017A047955128C9C9009037401BB
:10426000F0A37404F0A37455F0900450E0FBA3E0B5
:10427000FAA3E0F912C0620243799004BC74FFF023
:10428000A37451F0A3749AF0900923E0FCA3E0FD1D
:10429000A3E0FEA3E0FFEC1275A4E4FBFA798078BA
:1042A0004712748E9004BF127B157B017A047955F6
:1042B000128C9C9009037401F0A37404F0A374554C
:1042C000F0900450E0FBA3E0FAA3E0F912C0629082
:1042D00004BC74FFF0A37451F0A374A4F0900927F8
:1042E000E0FCA3E0FDA3E0FEA3E0FFEC1275A4E474
:1042F000FBFA7980784712748E9004BF127B157B8D
:10430000017A047955128C9C9009037401F0A3740E
:1043100004F0A37455F0900450E0FBA3E0FAA3E08E
:10432000F912C0629004BC74FFF0A37451F0A3743E
:10433000AEF090092BE0FCA3E0FDA3E0FEA3E0FFBC
:10434000EC1275A4E4FBFA7980784712748E90041D
:10435000BF127B157B017A047955128C9C9009035E
:104360007401F0A37404F0A37455F0900450E0FBC2
:10437000A3E0FAA3E0F912C06290090374FFF0A36E
:104380007451F0A374B8F0900450E0FBA3E0FAA3DA
:10439000E0F912C06290093DE0640370030244A298
:1043A0009004BC74FFF0A37451F0A3749AF09009C8
:1043B00017E0FCA3E0FDA3E0FEA3E0FFEC1275A470
:1043C000E4FBFA7980784712748E9004BF127B1553
:1043D0007B017A047955128C9C9009037401F0A337
:1043E0007404F0A37455F0900450E0FBA3E0FAA32A
:1043F000E0F912C0629004BC74FFF0A37451F0A302
:1044000074A4F090091BE0FCA3E0FDA3E0FEA3E090
:10441000FFEC1275A4E4FBFA7980784712748E9051
:1044200004BF127B157B017A047955128C9C90098C
:10443000037401F0A37404F0A37455F0900450E0E9
:10444000FBA3E0FAA3E0F912C0629004BC74FFF091
:10445000A37451F0A374AEF090091FE0FCA3E0FD3B
:10446000A3E0FEA3E0FFEC1275A4E4FBFA798078E8
:104470004712748E9004BF127B157B017A04795524
:10448000128C9C9009037401F0A37404F0A374557A
:10449000F0900450E0FBA3E0FAA3E0F912C062023E
:1044A00045A19004BC74FFF0A37451F0A3749AF07A
:1044B00090092FE0FCA3E0FDA3E0FEA3E0FFEC12D7
:1044C00075A4E4FBFA7980784712748E9004BF12C9
:1044D0007B157B017A047955128C9C900903740139
:1044E000F0A37404F0A37455F0900450E0FBA3E033
:1044F000FAA3E0F912C0629004BC74FFF0A37451F7
:10450000F0A374A4F0900933E0FCA3E0FDA3E0FE67
:10451000A3E0FFEC1275A4E4FBFA798078471274EB
:104520008E9004BF127B157B017A047955128C9C06
:104530009009037401F0A37404F0A37455F090047F
:1045400050E0FBA3E0FAA3E0F912C0629004BC744F
:10455000FFF0A37451F0A374AEF0900937E0FCA310
:10456000E0FDA3E0FEA3E0FFEC1275A4E4FBFA7902
:1045700080784712748E9004BF127B157B017A04F9
:104580007955128C9C9009037401F0A37404F0A374
:104590007455F0900450E0FBA3E0FAA3E0F912C0D8
:1045A0006290090374FFF0A37450F0A37440F0907C
:1045B0000450E0FBA3E0FAA3E0F912C06290093BCB
:1045C000E0B4031E90090374FFF0A37451F0A374C8
:1045D000D2F0900450E0FBA3E0FAA3E0F912C0622D
:1045E000801C90090374FFF0A37451F0A374ECF0E5
:1045F000900450E0FBA3E0FAA3E0F912C062900936
:104600003CE014603814605314606E14700302466A
:10461000971470030246B5240560030246D1900941
:104620000374FFF0A37452F0A37405F0900450E0FB
:10463000FBA3E0FAA3E0F912C0620246D19009039D
:1046400074FFF0A37452F0A37417F0900450E0FBD1
:10465000A3E0FAA3E0F912C062807690090374FF28
:10466000F0A37452F0A3742CF0900450E0FBA3E08C
:10467000FAA3E0F912C062805890090374FFF0A316
:104680007452F0A3744BF0900450E0FBA3E0FAA343
:10469000E0F912C062803A90090374FFF0A37452EB
:1046A000F0A37466F0900450E0FBA3E0FAA3E0F9F5
:1046B00012C062801C90090374FFF0A37452F0A32F
:1046C000747DF0900450E0FBA3E0FAA3E0F912C07F
:1046D0006290093DE014602814604314605E240376
:1046E000707690090374FFF0A37452F0A37498F0ED
:1046F000900450E0FBA3E0FAA3E0F912C0628058F6
:1047000090090374FFF0A37452F0A374B1F0900405
:1047100050E0FBA3E0FAA3E0F912C062803A9009EE
:104720000374FFF0A37452F0A374C5F0900450E03A
:10473000FBA3E0FAA3E0F912C062801C90090374A5
:10474000FFF0A37452F0A374DDF0900450E0FBA3DB
:10475000E0FAA3E0F912C062900982E0601E9009BD
:104760000374FFF0A37453F0A37402F0900450E0BC
:10477000FBA3E0FAA3E0F912C062801C9009037465
:10478000FFF0A37453F0A37423F0900450E0FBA354
:10479000E0FAA3E0F912C0629004BC74FFF0A374C5
:1047A00053F0A37443F0900983E0FE3395E0900446
:1047B000BFF0A3CEF07B017A047955128C9C90094E
:1047C000037401F0A37404F0A37455F0900450E056
:1047D000FBA3E0FAA3E0F912C06290090374FFF0B2
:1047E000A37453F0A3745CF0900450E0FBA3E0FAD0
:1047F000A3E0F912C062E4900453F0A3F0C3900464
:1048000054E09403900453E0648094804003024891
:10481000999004BC74FFF0A37451F0A37445F09018
:104820000453E0FCA3E0FD2401FEE43C9004BFF04F
:10483000A3CEF0743E2DF58274093CF583E0FF9021
:1048400004C1E4F0A3EFF07B017A047955128C9C4B
:104850009009037401F0A37404F0A37455F090045C
:1048600050E0FBA3E0FAA3E0F912C06290090374E0
:10487000FFF0A37450F0A37440F0900450E0FBA349
:10488000E0FAA3E0F912C062900454E004F070066C
:10489000900453E004F00247FD90090374FFF0A375
:1048A0007453F0A37471F0900450E0FBA3E0FAA3FA
:1048B000E0F912C062E4900453F0A3F0C3900454F2
:1048C000E09403900453E0648094804003024980A4
:1048D0009004BC74FFF0A37453F0A37487F09004A9
:1048E00053E0FCA3E0FD2401FEE43C9004BFF0A3F0
:1048F000CEF0EDAE047802C333CE33CED8F92441E6
:10490000F58274093EF583E0FCA3E0FDA3E0FEA37D
:10491000E0FF900453E0FAA3E0243EF58274093AE4
:10492000F583E0F9F8127A889004C1127B157B01B7
:104930007A047955128C9C9009037401F0A37404D5
:10494000F0A37455F0900450E0FBA3E0FAA3E0F963
:1049500012C06290090374FFF0A37450F0A3744076
:10496000F0900450E0FBA3E0FAA3E0F912C06290DB
:104970000454E004F07006900453E004F00248BCD4
:1049800090090374FFF0A37453F0A37491F09004A2
:1049900050E0FBA3E0FAA3E0F912C062E4900453F4
:1049A000F0A3F0C3900454E09403900453E06480B7
:1049B00094804003024A519004BC74FFF0A37453E6
:1049C000F0A374ABF0900453E0FCA3E0FD2401FEDF
:1049D000E43C9004BFF0A3CEF0EDAE047802C33304
:1049E000CE33CED8F9244DF58274093EF583E0FC30
:1049F000A3E0FDA3E0FEA3E0FF9004C1127B157BC2
:104A0000017A047955128C9C9009037401F0A37407
:104A100004F0A37455F0900450E0FBA3E0FAA3E087
:104A2000F912C06290090374FFF0A37450F0A374EC
:104A300040F0900450E0FBA3E0FAA3E0F912C0625A
:104A4000900454E004F07006900453E004F002492E
:104A5000A390090374FFF0A37453F0A374B4F0900F
:104A60000450E0FBA3E0FAA3E0F912C0629004BC9A
:104A700074FFF0A37453F0A374CCF0900985E0FCAC
:104A8000A3E0FDA3E0FEA3E0FF9004BF127B15901E
:104A90000989E0FCA3E0FDA3E0FEA3E0FF9004C3CE
:104AA000127B1590098DE0FCA3E0FDA3E0FEA3E0DE
:104AB000FF9004C7127B157B017A047955128C9CF8
:104AC0009009037401F0A37404F0A37455F09004EA
:104AD00050E0FBA3E0FAA3E0F912C0629004BC74BA
:104AE000FFF0A37453F0A374E5F0900991E0FCA3E8
:104AF000E0FDA3E0FEA3E0FF9004BF127B15900948
:104B000095E0FCA3E0FDA3E0FEA3E0FF9004C31248
:104B10007B15900999E0FCA3E0FDA3E0FEA3E0FF74
:104B20009004C7127B157B017A047955128C9C90F6
:104B300009037401F0A37404F0A37455F0900450B9
:104B4000E0FBA3E0FAA3E0F912C06290090374FF4E
:104B5000F0A37450F0A37440F0900450E0FBA3E085
:104B6000FAA3E0F912C0629004BC74FFF0A374537E
:104B7000F0A374FEF0900A08E0FF9004BFE4F0A3F5
:104B8000EFF07B017A047955128C9C900903740133
:104B9000F0A37404F0A37455F0900450E0FBA3E07C
:104BA000FAA3E0F912C06290090374FFF0A37450F5
:104BB000F0A37440F0900450E0FBA3E0FAA3E0F906
:104BC00012C062E4900453F0A3F0C3900454E09444
:104BD00001900453E0648094804003024CE290040E
:104BE000BC74FFF0A37454F0A37418F0900453E065
:104BF000FCA3E0FD2401FEE43C9004BFF0A3CEF052
:104C0000EDAE047802C333CE33CED8F92409F58251
:104C1000740A3EF583E0FCA3E0FDA3E0FEA3E0FF01
:104C2000900453E0FAA3E024EDF58274093AF58389
:104C3000E0F9F8127A889004C1127B157B017A049E
:104C40007955128C9C9009037401F0A37404F0A3AD
:104C50007455F0900450E0FBA3E0FAA3E0F912C011
:104C6000629004BC74FFF0A37454F0A3743EF090FF
:104C70000453E0FAA3E0FBAE027802C333CE33CE96
:104C8000D8F92411F582740A3EF583E0FCA3E0FD17
:104C9000A3E0FEA3E0FF74ED2BF58274093AF583DF
:104CA000E0F9F8127A889004BF127B157B017A0430
:104CB0007955128C9C9009037401F0A37404F0A33D
:104CC0007455F0900450E0FBA3E0FAA3E0F912C0A1
:104CD00062900454E004F07006900453E004F00283
:104CE0004BCA9004BC74FFF0A37454F0A3744BF04F
:104CF000900A19E0A3E0A3E0FFA3E09004BFCFF087
:104D0000A3EFF0900A1DE0A3E0A3E0FFA3E090046E
:104D1000C1CFF0A3EFF07B017A047955128C9C90FF
:104D200009037401F0A37404F0A37455F0900450C7
:104D3000E0FBA3E0FAA3E0F912C06290090374FF5C
:104D4000F0A37450F0A37440F0900450E0FBA3E093
:104D5000FAA3E0F912C0629004BC74FFF0A374548B
:104D6000F0A37467F0900A21E0FFA3E09004BFCFA6
:104D7000F0A3EFF07B017A047955128C9C90090323
:104D80007401F0A37404F0A37455F0900450E0FB98
:104D9000A3E0FAA3E0F912C06290090374FFF0A344
:104DA0007450F0A37440F0900450E0FBA3E0FAA329
:104DB000E0F912C0629004BC74FFF0A37454F0A335
:104DC0007479F0900A23E0FFA3E09004BFCFF0A332
:104DD000EFF0900A25E0FFA3E09004C1CFF0A3EF2D
:104DE000F07B017A047955128C9C9009037401F0D0
:104DF000A37404F0A37455F0900450E0FBA3E0FA10
:104E0000A3E0F912C06290090374FFF0A37450F09C
:104E1000A37440F0900450E0FBA3E0FAA3E0F91281
:104E2000C0629004BC74FFF0A37454F0A3749BF0B0
:104E3000900A28E0FCA3E0FDA3E0FEA3E0FF9004BD
:104E4000BF127B15900A2CE0FCA3E0FDA3E0FEA3BB
:104E5000E0FF9004C3127B157B017A047955128C14
:104E60009C9009037401F0A37404F0A37455F090AE
:104E70000450E0FBA3E0FAA3E0F912C0629009033A
:104E800074FFF0A37450F0A37440F0900450E0FB62
:104E9000A3E0FAA3E0F912C062900A27E0601E9036
:104EA000090374FFF0A37454F0A374BFF09004508E
:104EB000E0FBA3E0FAA3E0F912C062801C900903B2
:104EC00074FFF0A37454F0A374DAF0900450E0FB84
:104ED000A3E0FAA3E0F912C0629004BC74FFF0A34F
:104EE0007454F0A374F4F0900A30E0FF9004BFE42F
:104EF000F0A3EFF07B017A047955128C9C900903A2
:104F00007401F0A37404F0A37455F0900450E0FB16
:104F1000A3E0FAA3E0F912C06290090374FFF0A3C2
:104F20007450F0A37440F0900450E0FBA3E0FAA3A7
:104F3000E0F912C0629004BC74FFF0A37455F0A3B2
:104F40007406F0900A86E0F8A3E0F9A3E0FAA3E083
:104F5000FB900B45E0FCA3E0FDA3E0FEA3E0C39BB8
:104F6000FFEE9AFEED99FDEC98FC9004BF127B15C4
:104F70007B017A047955128C9C9009037401F0A38B
:104F80007404F0A37455F0900450E0FBA3E0FAA37E
:104F9000E0F912C06290090374FFF0A37450F0A30B
:104FA0007440F0900450E0FBA3E0FAA3E0F912C0D3
:104FB0006222205945530000204E4F0000205573B7
:104FC0006200002048616E646C65000020454D471A
:104FD0002070726F706F7274696F6E616C00002068
:104FE000454D4720696E74656772616C000020450D
:104FF0004D472046434653000020454D4720464339
:10500000465320416476616E636564000020506FF2
:10501000736974696F6E00002050574D0000204383
:10502000757272656E74000020506F736974696FD9
:105030006E20616E642043757272656E74000000AC
:105040000D0A004669726D7761726520766572732C
:10505000696F6E3A200053482D50524F2076362EFD
:10506000312E30202D204D6173746572002E0D0A93
:105070000D0A0044455649434520494E464F0D0A06
:105080000049443A2025640D0A0050574D207265AE
:105090007363616C696E67206163746976617469BA
:1050A0006F6E3A20005945530A004E4F0A00505780
:1050B0004D204C696D69743A2025640D0A004D4FEE
:1050C000544F5220494E464F0D0A004D6F746F7277
:1050D000207265666572656E636500202D204375DC
:1050E0007272656E74733A2000202D2050776D3AED
:1050F0002000202D20506F736974696F6E3A200074
:10510000256420004D6F746F7220656E61626C655E
:10511000643A20005945530D0A004E4F0D0A000D08
:105120000A4D4541535552454D454E545320494E25
:10513000464F0D0A0053656E736F722076616C7571
:10514000653A0D0A002564202D3E20256400566F27
:105150006C7461676520286D56293A20256C6400BF
:1051600043757272656E7420286D41293A20256C52
:1051700064000D0A44455649434520504152414D73
:1051800045544552530D0A0050494420436F6E74F4
:10519000726F6C6C65723A0D0A0050202D3E20250E
:1051A0006620200049202D3E202566202000442036
:1051B0002D3E2025660D0A0043757272656E7420BF
:1051C00050494420436F6E74726F6C6C65723A0D77
:1051D0000A0053746172747570206163746976613A
:1051E00074696F6E3A205945530D0A005374617209
:1051F0007475702061637469766174696F6E3A20AA
:105200004E4F0D0A00496E707574206D6F64653ADB
:10521000205553420D0A00496E707574206D6F64FD
:10522000653A2048616E646C650D0A00496E7075C0
:1052300074206D6F64653A20454D472070726F7021
:105240006F7274696F6E616C0D0A00496E707574CF
:10525000206D6F64653A20454D4720696E7465671F
:1052600072616C0D0A00496E707574206D6F646513
:105270003A20454D4720464346530D0A00496E707B
:105280007574206D6F64653A20454D47204643464E
:1052900053204144560D0A00436F6E74726F6C20A8
:1052A0006D6F64653A20506F736974696F6E0D0A93
:1052B00000436F6E74726F6C206D6F64653A20509E
:1052C000574D0D0A00436F6E74726F6C206D6F64E2
:1052D000653A2043757272656E740D0A00436F6EF5
:1052E00074726F6C206D6F64653A20506F736974CF
:1052F000696F6E20616E642043757272656E740D05
:105300000A004162736F6C75746520656E636F642B
:10531000657220706F736974696F6E3A20594553D6
:105320000D0A004162736F6C75746520656E636F62
:1053300064657220706F736974696F6E3A204E4FA6
:105340000D0A004D6F746F722D48616E646C65209C
:10535000526174696F3A2025640D0A0053656E73BB
:105360006F72207265736F6C7574696F6E3A0D0A97
:10537000004D6561737572656D656E74204F66666C
:105380007365743A0D0A002564202D3E20256C6457
:10539000004D6561737572656D656E74204D756C39
:1053A0007469706C6965723A0D0A002564202D3E9F
:1053B0002025660043757272656E74206C6F6F6B8A
:1053C0007570207461626C653A0D0A00705B305D27
:1053D000202D20705B325D3A2025662C2025662C1E
:1053E0002025660A00705B335D202D20705B355DE3
:1053F0003A2025662C2025662C2025660A00506F51
:10540000736974696F6E206C696D6974206163746F
:105410006976653A20256400506F736974696F6E10
:10542000206C696D6974206D6F746F722025643A09
:1054300020696E66202D3E20256C64202000737547
:1054400070202D3E20256C640D0A004D617820737C
:1054500074657020706F7320616E64206E65673AAA
:105460002025642025640043757272656E74206C7B
:10547000696D69743A20256400454D47207468724F
:105480006573686F6C6473205B30202D203130327F
:10549000345D3A2025752C20257500454D47206D3B
:1054A00061782076616C756573205B30202D203427
:1054B0003039365D3A20256C752C20256C750043FB
:1054C000616C6962726174696F6E20656E61626C95
:1054D00065643A205945530D0A0043616C69627254
:1054E0006174696F6E20656E61626C65643A204E0E
:1054F0004F0D0A00454D47206D617820737065653A
:10550000643A2025640064656275673A20256C64FE
:10551000000000000000000000000000000000008B
:10552000000000000000000000000000000000007B
:10553000000000000000000000000000000000006B
:10554000000000000000000000000000000000005B
:105F600000000000000000000000000031202D2093
:105F70004465766963652049443A0032202D2050FB
:105F80006F736974696F6E20504944205B502C20F8
:105F9000492C20445D3A0033202D204375727265F0
:105FA0006E7420504944205B502C20492C20445DC5
:105FB0003A0034202D20537461727475702041634F
:105FC0007469766174696F6E3A00000000003520D4
:105FD0002D20496E707574206D6F64653A00000065
:105FE00000000000000000000000000000000000B1
:105FF00036202D20436F6E74726F6C206D6F646558
:106000003A00000000000000000000000000000056
:106010000000000000000037202D205265736F6CD7
:106020007574696F6E733A0038202D204D65617369
:106030007572656D656E74204F6666736574733A2C
:106040000039202D204D756C7469706C6965727310
:106050003A003130202D20506F732E206C696D690D
:1060600074206163746976653A0000000000313184
:10607000202D20506F732E206C696D697473205B26
:10608000696E662C207375705D3A003132202D20C8
:106090004D6178207374657073205B6E65672C208A
:1060A000706F735D3A003133202D20437572726535
:1060B0006E74206C696D69743A003134202D20456E
:1060C0004D472063616C6962726174696F6E206F05
:1060D0006E20737461727475703A000000000031B4
:1060E00035202D20454D47207468726573686F6CAC
:1060F00064733A003136202D20454D47206D61787C
:106100002076616C7565733A003137202D20454D3E
:1061100047206D61782073706565643A00313820DE
:106120002D204162736F6C75746520656E636F64BA
:10613000657220706F736974696F6E3A00000000B9
:10614000003139202D204D6F746F722068616E64AC
:106150006C6520726174696F3A003230202D2050D6
:10616000574D2072657363616C696E673A00000079
:1061700000003231202D2043757272656E74206CE0
:106180006F6F6B75703A0030202D3E205573620A98
:1061900031202D3E2048616E646C650A32202D3E10
:1061A00020454D472070726F706F7274696F6E6119
:1061B0006C0A33202D3E20454D4720496E7465679B
:1061C00072616C0A34202D3E20454D4720464346DF
:1061D000530A35202D3E20454D4720464346532047
:1061E000416476616E6365640A0030202D3E205064
:1061F0006F736974696F6E0A31202D3E2050574DC0
:106200000A32202D3E2043757272656E740A332067
:106210002D3E20506F736974696F6E20616E64202B
:1062200043757272656E740A0030202D3E204465FD
:106230006163746976617465205B4E4F5D0A31203D
:106240002D3E204163746976617465205B59455326
:106250005D0A00E4F526F525F524F52390090BE009
:10626000FCA3E0FDA3E0FEA3E0F5428E418D408C4F
:106270003FA3E0FCA3E0FDA3E0FEA3E0F5468E45CE
:106280008D448C43A3E0FCA3E0FDA3E0FEA3E0F576
:106290004A8E498D488C47A3E0FCA3E0FDA3E0FEB5
:1062A000A3E0F54E8E4D8D4C8C4BA3E0FCA3E0FD9E
:1062B000A3E0FEA3E0F5528E518D508C4FA3E0FC7D
:1062C000A3E0FDA3E0FEA3E0F5568E558D548C535C
:1062D000A3E0FCA3E0FDA3E0FEA3E0F55A8E598DF8
:1062E000588C57A3E0FCA3E0FDA3E0FEA3E0F55E1D
:1062F0008E5D8D5C8C5BA3E0FCA3E0FDA3E0FEA3C0
:10630000E0F5628E618D608C5FA3E0FCA3E0FDA3ED
:10631000E0FEA3E0F5668E658D648C63A3E0FCA3CC
:10632000E0FDA3E0FEA3E0F56A8E698D688C67A3AB
:10633000E0FCA3E0FDA3E0FEA3E0F56E8E6D8D6CA6
:106340008C6B900974E0FEA3E0FFFBAA06E4900BBF
:106350006DE0FCA3E0FDA3E0FEA3E0C39BF53AEEF5
:106360009AF539ED9400F538EC9400F537900976FC
:10637000E0FEA3E0FFFBAA06E4900B71E0FCA3E0C3
:10638000FDA3E0FEA3E0C39BF53EEE9AF53DED9440
:1063900000F53CEC9400F53B90093CE024FE7003D2
:1063A00002650814700302656614700302665B14CC
:1063B00070030267BE24046003026955900982E0FD
:1063C0006024A3E0FF3395E0FEFDFC900B5EE0F857
:1063D000A3E0F9A3E0FAA3E0FB1279168F368E351D
:1063E0008D348C338024900983E0FF3395E0FEFDEB
:1063F000FC900B5AE0F8A3E0F9A3E0FAA3E0FB124B
:1064000079168F368E358D348C3390099FE0F8A342
:10641000E0F9A3E0FAA3E0FBC3E5369BFFE5359A7C
:10642000FEE53499FDE53398FC90096AE0F8A3E0B5
:10643000F9A3E0FAA3E0FBC3127A4E5044E4FFFE56
:10644000FDFC90096AE0F8A3E0A3E0A3E0C3127AA0
:106450004E602E90099FE0FCA3E0FDA3E0FEA3E0C8
:10646000FF90096AE0F8A3E0A3E0A3E0EF2BFFEEC2
:106470003AFEED39FDEC38FC90099F127B1502695C
:106480005590099FE0F8A3E0F9A3E0FAA3E0FBC36D
:10649000E5369BFFE5359AFEE53499FDE53398FC3A
:1064A00090096EE0F8A3E0F9A3E0FAA3E0FBD312B1
:1064B0007A4E4043E4FFFEFDFC90096EE0F8A3E055
:1064C000A3E0A3E0127A4E602E90099FE0FCA3E0C7
:1064D000FDA3E0FEA3E0FF90096EE0F8A3E0A3E0D7
:1064E000A3E0EF2BFFEE3AFEED39FDEC38FC90090E
:1064F0009F127B15026955AF36AE35AD34AC339083
:10650000099F127B15026955E4FFFEFDFCAB3AAA18
:1065100039A938A837D3127A4E403D900A11E0FCD1
:10652000A3E0FDA3E0FEA3E0FFA837127916C006A2
:10653000C007900974E0FEA3E0FFC3E49FFF74046A
:106540009EFEAB07FAE4F9F8D007D00612C4F89023
:10655000099F127B15026955E4FFFEFDFC90099F1F
:10656000127B15026955900A8EE0FCA3E0FDA3E0C2
:10657000FEA3E0FF90099F127B15E4FFFEFDFCAB3C
:106580003AAA39A938A837D3127A4E4056900A3021
:10659000E0FFE4FCFDFEA837127916E47B02FAF96D
:1065A000F8127916C006C007900974E0FEA3E0FF58
:1065B000C3E49FFF74049EFEAB07FAE4F9F8D0072A
:1065C000D00612C4F8900A8EE0F8A3E0F9A3E0FA2E
:1065D000A3E02FFFEA3EFEE93DFDE83CFC90099F69
:1065E000127B15E4FFFEFDFCAB3EAA3DA93CA83B97
:1065F000D3127A4E5003026955900A30E0FFE4FC52
:10660000FDFEA83B127916E47B02FAF9F81279161E
:10661000C006C007900976E0FEA3E0FFC3E49FFF39
:1066200074049EFEAB07FAE4F9F8D007D00612C452
:10663000F8A804A905AA06AB07900A8EE0FCA3E01F
:10664000FDA3E0FEA3E0C39BFFEE9AFEED99FDECF7
:1066500098FC90099F127B15026955900A8EE0FC08
:10666000A3E0FDA3E0FEA3E0FF90099F127B15903D
:106670000C26E0146048147003026738240260039B
:10668000026955E4FFFEFDFCAB3AAA39A938A837E8
:10669000D3127A4E4009900C267401F0026955E439
:1066A000FFFEFDFCAB3EAA3DA93CA83BD3127A4EAF
:1066B0005003026955900C267402F0026955E4FFFC
:1066C000FEFDFCAB3AAA39A938A837C3127A4E505E
:1066D00008E4900C26F0026955900A30E0FFE4FCD3
:1066E000FDFEAB3AAA39A938A837127916E47B0225
:1066F000FAF9F8127916C006C007900974E0FEA3F3
:10670000E0FFC3E49FFF74049EFEAB07FAE4F9F8D0
:10671000D007D00612C4F8900A8EE0F8A3E0F9A3DF
:10672000E0FAA3E02FFFEA3EFEE93DFDE83CFC90E5
:10673000099F127B15026955E4FFFEFDFCAB3EAAE2
:106740003DA93CA83BC3127A4E5008E4900C26F0B9
:10675000026955900A30E0FFE4FCFDFEAB3EAA3D25
:10676000A93CA83B127916E47B02FAF9F8127916D3
:10677000C006C007900976E0FEA3E0FFC3E49FFFD8
:1067800074049EFEAB07FAE4F9F8D007D00612C4F1
:10679000F8A804A905AA06AB07900A8EE0FCA3E0BE
:1067A000FDA3E0FEA3E0C39BFFEE9AFEED99FDEC96
:1067B00098FC90099F127B15026955026955900A51
:1067C0008EE0FCA3E0FDA3E0FEA3E0FF90099F1292
:1067D0007B15900C26E01460481470030268BA24FC
:1067E000026003026955E4FFFEFDFCAB3AAA39A939
:1067F00038A837D3127A4E4009900C267401F00263
:106800006955E4FFFEFDFCAB3EAA3DA93CA83BD385
:10681000127A4E5003026955900C267402F00269F8
:1068200055E4FFFEFDFCAB3AAA39A938A837C312DC
:106830007A4E501BE4FFFEFDFCAB3EAA3DA93CA8EE
:106840003BC3127A4E5008E4900C26F0026955E4DE
:10685000FFFEFDFCAB3AAA39A938A837D3127A4E0D
:106860005003026955900A30E0FFE4FCFDFEA837B2
:106870001279167802127A9CC006C007900974E05B
:10688000FEA3E0FFC3E49FFF74049EFEAB07FAE49F
:10689000F9F8D007D00612C4F8900A8EE0F8A3E009
:1068A000F9A3E0FAA3E02FFFEA3EFEE93DFDE83C54
:1068B000FC90099F127B15026955E4FFFEFDFCABBD
:1068C0003AAA39A938A837C3127A4E501AE4FFFE03
:1068D000FDFCAB3EAA3DA93CA83BC3127A4E500733
:1068E000E4900C26F0806EE4FFFEFDFCAB3EAA3D7A
:1068F000A93CA83BD3127A4E405B900981E0FFE4AB
:10690000FCFDFEA83B1279167802127A9CC006C0E4
:1069100007900976E0FEA3E0FFC3E49FFF74049EA6
:10692000FEAB07FAE4F9F8D007D00612C4F8A804C1
:10693000A905AA06AB07900A8EE0FCA3E0FDA3E040
:10694000FEA3E0C39BFFEE9AFEED99FDEC98FC9050
:10695000099F127B15900959E0606AA3E0FCA3E04F
:10696000FDA3E0FEA3E0FF90099FE0F8A3E0F9A3F8
:10697000E0FAA3E0FBC3127A4E501490095AE0FCEF
:10698000A3E0FDA3E0FEA3E0FF90099F127B15901A
:106990000962E0FCA3E0FDA3E0FEA3E0FF90099FF5
:1069A000E0F8A3E0F9A3E0FAA3E0FBD3127A4E40AB
:1069B00014900962E0FCA3E0FDA3E0FEA3E0FF90D9
:1069C000099F127B1590093DE07003026DB01470B1
:1069D0000302716A147003026F3E1460030271D8DF
:1069E000900B56E0F8A3E0F9A3E0FAA3E0FB9009CE
:1069F0009FE0FCA3E0FDA3E0FEA3E0C39BF52AEE2D
:106A00009AF529ED99F528EC98F527900C16E0FCFD
:106A1000A3E0FDA3E0FEA3E0252AFFEE3529FEED6D
:106A20003528FDEC3527FC900C16127B157F807EF7
:106A3000F07DFA7C02900C16E0F8A3E0F9A3E0FAEE
:106A4000A3E0FBD3127A4E40107F807EF07DFA7C6B
:106A500002900C16127B15802A7F807E0F7D057CAC
:106A6000FD900C16E0F8A3E0F9A3E0FAA3E0FBC365
:106A7000127A4E500E7F807E0F7D057CFD900C16A5
:106A8000127B15E4F532F531F530F52FFFFEFDFCF4
:106A9000AB5AAA59A958A857C3127A4E6026AF2AF2
:106AA000AE29AD28AC27A8571279167810127A882B
:106AB000E5322FF532E5313EF531E5303DF530E593
:106AC0002F3CF52FE4FFFEFDFCAB5EAA5DA95CA8A0
:106AD0005BC3127A4E602C900C16E0FCA3E0FDA381
:106AE000E0FEA3E0FFA85B1279167810127A88E521
:106AF000322FF532E5313EF531E5303DF530E52F09
:106B00003CF52FE4FFFEFDFCAB62AA61A960A85F23
:106B1000C3127A4E6043900C1EE0F8A3E0F9A3E0A4
:106B2000FAA3E0FBC3E52A9BFFE5299AFEE5289935
:106B3000FDE52798FCAB62AA61A960A85F127916EF
:106B40007810127A88E5322FF532E5313EF531E5DD
:106B5000303DF530E52F3CF52FAF2AAE29AD28ACFE
:106B600027900C1E127B15E4FFFEFDFCAB32AA3110
:106B7000A930A82FC3127A4E4004D20E8002C20E52
:106B8000900972E0FEA3E0FFEE3395E0FDFCAB322E
:106B9000AA31A930A82FD3127A4E4016900972E07C
:106BA000FEA3E0FFEE3395E08F328E31F530F52F06
:106BB000803C900972E0FEA3E0FFC3E49FFFE49EE7
:106BC000FE3395E0FDFCAB32AA31A930A82FC312E9
:106BD0007A4E501A900972E0FEA3E0FFC3E49FFFD3
:106BE000E49EFE3395E08F328E31F530F52F900B19
:106BF00062E0F8A3E0F9A3E0FAA3E0FBC3E5329B6F
:106C0000F52EE5319AF52DE53099F52CE52F98F51F
:106C10002B900C1AE0FCA3E0FDA3E0FEA3E0252EE0
:106C2000FFEE352DFEED352CFDEC352BFC900C1ACE
:106C3000127B157FA07E867D017C00900C1AE0F807
:106C4000A3E0F9A3E0FAA3E0FBD3127A4E40107F51
:106C5000A07E867D017C00900C1A127B15802A7F15
:106C6000607E797DFE7CFF900C1AE0F8A3E0F9A32A
:106C7000E0FAA3E0FBC3127A4E500E7F607E797D6E
:106C8000FE7CFF900C1A127B15E4F526F525F52401
:106C9000F523FFFEFDFCAB66AA65A964A863C312D9
:106CA0007A4E6026AF2EAE2DAD2CAC2BA863127998
:106CB000167810127A88E5262FF526E5253EF5256B
:106CC000E5243DF524E5233CF523E4FFFEFDFCAB84
:106CD0006AAA69A968A867C3127A4E602C900C1A38
:106CE000E0FCA3E0FDA3E0FEA3E0FFA86712791695
:106CF0007810127A88E5262FF526E5253EF525E55C
:106D0000243DF524E5233CF523E4FFFEFDFCAB6EBA
:106D1000AA6DA96CA86BC3127A4E6043900C22E056
:106D2000F8A3E0F9A3E0FAA3E0FBC3E52E9BFFE59F
:106D30002D9AFEE52C99FDE52B98FCAB6EAA6DA96A
:106D40006CA86B1279167810127A88E5262FF52632
:106D5000E5253EF525E5243DF524E5233CF52374A2
:106D6000FF7F9CFEFDFCAB26AA25A924A823C31205
:106D70007A4E500D74FF75269CF525F524F5238079
:106D80001EE47F64FEFDFCAB26AA25A924A823D31C
:106D9000127A4E400AE4752664F525F524F523AFF2
:106DA0002EAE2DAD2CAC2B900C22127B150271D87F
:106DB000900B56E0F8A3E0F9A3E0FAA3E0FB9009FA
:106DC0009FE0FCA3E0FDA3E0FEA3E0C39BF52AEE59
:106DD0009AF529ED99F528EC98F527900C16E0FC2A
:106DE000A3E0FDA3E0FEA3E0252AFFEE3529FEED9A
:106DF0003528FDEC3527FC900C16127B15E47FE856
:106E00007E03FDFC900C16E0F8A3E0F9A3E0FAA3E2
:106E1000E0FBD3127A4E400FE47FE87E03FDFC9046
:106E20000C16127B15802A7F187EFC7DFF7CFF905C
:106E30000C16E0F8A3E0F9A3E0FAA3E0FBC3127A92
:106E40004E500E7F187EFC7DFF7CFF900C16127B4F
:106E500015E4FFFEFDFCAB42AA41A940A83FC312C6
:106E60007A4E601AAF2AAE29AD28AC27A83F127916
:106E7000167810127A888F268E258D248C23E4FFB5
:106E8000FEFDFCAB46AA45A944A843C3127A4E6056
:106E90002C900C16E0FCA3E0FDA3E0FEA3E0FFA80D
:106EA000431279167810127A88E5262FF526E52503
:106EB0003EF525E5243DF524E5233CF523E4FFFEDE
:106EC000FDFCAB4AAA49A948A847C3127A4E6043C1
:106ED000900C1EE0F8A3E0F9A3E0FAA3E0FBC3E501
:106EE0002A9BFFE5299AFEE52899FDE52798FCAB4A
:106EF0004AAA49A948A8471279167810127A88E553
:106F0000262FF526E5253EF525E5243DF524E52348
:106F10003CF523AF2AAE29AD28AC27900C1E127B7E
:106F200015E4FFFEFDFCAB26AA25A924A823D31255
:106F30007A4E4005D20E0271D8C20E0271D8900965
:106F4000B7E070030271D8200D030271D89009A731
:106F5000E0FCA3E0FDA3E0FEA3E0F5328E318D302E
:106F60008C2F900972E0FEA3E0FFEE3395E0FDFC6C
:106F7000AB32AA31A930A82FD3127A4E401690090D
:106F800072E0FEA3E0FFEE3395E08F328E31F530F4
:106F9000F52F803C900972E0FEA3E0FFC3E49FFF61
:106FA000E49EFE3395E0FDFCAB32AA31A930A82F58
:106FB000C3127A4E501A900972E0FEA3E0FFC3E4B8
:106FC0009FFFE49EFE3395E08F328E31F530F52F32
:106FD000900B62E0F8A3E0F9A3E0FAA3E0FBC3E5BD
:106FE000329BF52EE5319AF52DE53099F52CE52FFC
:106FF00098F52B900C1AE0FCA3E0FDA3E0FEA3E0C3
:10700000252EFFEE352DFEED352CFDEC352BFC90BD
:107010000C1A127B157FA07E867D017C00900C1AD5
:10702000E0F8A3E0F9A3E0FAA3E0FBD3127A4E4024
:10703000107FA07E867D017C00900C1A127B15804B
:107040002A7F607E797DFE7CFF900C1AE0F8A3E039
:10705000F9A3E0FAA3E0FBC3127A4E500E7F607EE4
:10706000797DFE7CFF900C1A127B15E4F526F52540
:10707000F524F523FFFEFDFCAB4EAA4DA94CA84B11
:10708000C3127A4E6026AF2EAE2DAD2CAC2BA84B82
:107090001279167810127A88E5262FF526E5253E16
:1070A000F525E5243DF524E5233CF523E4FFFEFD2D
:1070B000FCAB52AA51A950A84FC3127A4E602C9033
:1070C0000C1AE0FCA3E0FDA3E0FEA3E0FFA84F1232
:1070D00079167810127A88E5262FF526E5253EF5F3
:1070E00025E5243DF524E5233CF523E4FFFEFDFCE6
:1070F000AB56AA55A954A853C3127A4E6043900CBC
:1071000022E0F8A3E0F9A3E0FAA3E0FBC3E52E9B9D
:10711000FFE52D9AFEE52C99FDE52B98FCAB56AAD0
:1071200055A954A8531279167810127A88E5262F9B
:10713000F526E5253EF525E5243DF524E5233CF53A
:1071400023AF2EAE2DAD2CAC2B900C22127B15E470
:10715000FFFEFDFCAB26AA25A924A823C3127A4E64
:107160004004D20E8072C20E806E9009AFE0FCA384
:10717000E0FDA3E0FEA3E0F5268E258D248C23E41C
:10718000FFFEFDFCAB26AA25A924A823D3127A4E24
:107190004004D20E8002C20E74FF7F9CFEFDFCAB49
:1071A00026AA25A924A823C3127A4E500D74FF7570
:1071B000269CF525F524F523801EE47F64FEFDFC66
:1071C000AB26AA25A924A823D3127A4E400AE47537
:1071D0002664F525F524F523E47F64FEFDFCAB264B
:1071E000AA25A924A823D3127A4E400AE47526645E
:1071F000F525F524F52374FF7F9CFEFDFCAB26AA44
:1072000025A924A823C3127A4E500B74FF75269C1F
:10721000F525F524F52390093DE064016037AF269C
:10722000AE25AD24AC23780A127A9CE47B64FAF98B
:10723000F812C4F8A804A905AA06AB07900B8DE0C4
:10724000FFE4FCFDFE127916780A127A888F268EEA
:10725000258D248C23E4FFFEFDFCAB26AA25A92462
:10726000A823C3127A4E40047F0180027FFF900B57
:1072700055EFF0300E077F0112D0908005E4FF1229
:10728000D090AE25AF2612CF6412D0782202764E6F
:10729000E86480F8E933E83360110460F0ED33EC22
:1072A000337009E8FCE9FDEAFEEBFF220460DED35F
:1072B000EB9FEA9EE99DE8C2E78CF0C2F795F040AB
:1072C0000CE8CCF8E9CDF9EACEFAEBCFFB1276194F
:1072D00085D0F05804700320D5B3E804700750023D
:1072E000B2D502765892D5EC0460F7E4CCC0E0C386
:1072F00098F8603B94186008400DD0E0FB027630AF
:10730000E4FBFAC9FC8028E830E406E4C9FBE4CADF
:10731000FCE830E305E4C9CACBFCE854076010F888
:10732000C3E913F9EA13FAEB13FBEC13FCD8F130C1
:10733000F52FC3E49CFCEF9BFFEE9AFEED99FDD088
:10734000E0FBEF4E4D4C701222DB03027655EC2C25
:10735000FCEF33FFEE33FEED33FDED30E7EB02766D
:1073600030EF2BFFEE3AFEED39FDD0E0FB50130B72
:10737000BB0003027658ED13FDEE13FEEF13FFEC96
:1073800013FC027630EC4D6011E8497017ED33ECD8
:107390003304600DE4FCFFFEFD22E933E8330470A2
:1073A000F802764E12761958046009E4CC24815014
:1073B00006285009027658284003027655C0E0EBB3
:1073C0004A7044B98006D0E0FB027644EF4E701C50
:1073D000BD8008EBFFEAFEE9FD80EBE98DF0A4FE3D
:1073E000E5F002746EE9CDF9EAFEEBFFEF89F0A457
:1073F000FCE5F0CE89F0A42EFFE435F0CD89F0A4B1
:107400002DFEE435F08067EF4E7005BD80D780C358
:10741000EF8BF0A4ACF0EE8BF0A42CFCE435F0F88C
:10742000EF8AF0A42CE5F038FCE433CB8DF0A42CEB
:10743000FCE5F03BF8EE8AF0A42CFCE5F038F8E42B
:1074400033CF89F0A42CFCE5F038CF3400CE89F09E
:10745000A42FFFE5F03EFEE433C98DF0A42EFEE537
:10746000F039CD8AF0A42FFFE5F03EFEE43DFD3378
:10747000D0E0FB50070BBB000F027658EC2CFCEF62
:1074800033FFEE33FEED33FD027630027658EC5DCD
:10749000046005E85904700302764E127619580408
:1074A00060F6EC4860F2EC7004FDFEFF22C860DB81
:1074B0002481C85009C3986002500602765598503E
:1074C000CAF582E9294B4A7005AB8202764475F011
:1074D000007C1A7880C3EF9BEE9AED99400DC3EFC4
:1074E0009BFFEE9AFEED99FDE842F0DC23ACF0D074
:1074F000E0FFD0E0FED0E0FDAB8220E7101BEB60A8
:10750000BAEC2CFCEF33FFEE33FEED33FD027630A8
:10751000E803F830E705C0F075F000EF2FFFEE3319
:10752000FEED33FD40B830E7C280AA74F8CC648029
:10753000CCC86480C8F58204604FC3EB9FF5F0EAC5
:107540009E42F0E99D42F0E89C45F0603C501DE50C
:10755000825FFFE582D313CB5BCBF42B5582FB50CC
:10756000280ABA002409B9002008801DE5825BFBC7
:10757000E582D313CF5FCFF4C3132F5582FF500999
:107580000EBE00050DBD00010CC3EB9FF5F0EA9E99
:1075900042F0E99D42F0E89C45F06007CC4820E7C6
:1075A00001B3EC2275F020800E75F010800575F0A7
:1075B000087D007E007F003392D530D503127A40DB
:1075C000EC334010EF33FFEE33FEED33FDEC33FCD4
:1075D000D5F0ED22E5F0247EA2D513CC92E7CDCEF6
:1075E000FF22EDD2E7CD33EC3392D524814006E47F
:1075F000FFFEFDFC22FCE4CFCECDCC24E050117484
:10760000FF80EDC3CC13CCCD13CDCE13CECF13CF93
:107610000470F030D5DE027A40E9D2E7C933E833AE
:10762000F892D5EDD2E7CD33EC33FC5002B2D5223F
:10763000EC30E7100FBF000C0EBE00080DBD0004BB
:107640000BEB6014A2D5EB13FCED92E7FD2274FF67
:10765000FCFDFEFF22E480F8A2D574FF13FC7D80C0
:10766000E480EFED33EC33601004700FED547F7065
:1076700005740292E0227404220422E422ED33EC29
:1076800033600A047003BD8004ECB2E7FC22F920E9
:10769000E73624F950037907E4F42402FBE5821568
:1076A0008270021583DBF6E024FB501BE96014E4D2
:1076B000F0E582158270021583E004F0B40A08E454
:1076C000F0D9EE7401F00A22C2D522ED33EC3392E8
:1076D000D5FA602AB4FF33EDC2E77BFF60067A7605
:1076E00079F0E4227A7679F920D5047A7679F42251
:1076F0004E614E002B494E46002D494E4600E47A1D
:1077000008F0A3DAFC7B00740722C083C082ECC0BF
:10771000E0EDC0E0EEC0E0EFC0E0EA75F010A4CA12
:10772000ABF075F04DA42BFBE435F0FCEA2410FA25
:10773000EB34C5FBEC34D9FCEDC2E7FF75F056A481
:10774000F42411C5F0F434C58FF0A42AE5F03BE42D
:107750003CF020E714127800D0E0FFD0E0FED0E04B
:10776000FDD0E0FC12748E8014F404127800D0E096
:10777000FFD0E0FED0E0FDD0E0FC127385D082D0D7
:1077800083E0FAEDD2E7CD33EC332482FBE4C3CFC0
:1077900033CFCE33CECD33CD33DBF37B0775F00A59
:1077A000846004F0A31B0AE5F0F0A38FF0740AA430
:1077B000FFACF08EF0740AA42CFEACF050010C8DDE
:1077C000F0740AA42CFDE435F0F0A3DBDE7407228C
:1077D0003F8000004120000042C80000447A0000C1
:1077E000461C400047C35000497424004B18968043
:1077F0004CBEBC205A0E1BCA6753C21C749DC5AE3A
:10780000FB60065407601C232312782EEB5438606B
:107810000912781A127829127385ECF8EDF9EEFA4C
:10782000EFCB22EB12782980F1543803241C907797
:10783000D0FE93FC0EEE93FD0EEE930ECE93FF2240
:10784000C0E0EFFBEEFAEDF9ECF8127385D0E0F54D
:10785000F0EFFBEEFAEDF9ECF8127AE9A3A3A3A39B
:10786000E8C0E0E9C0E0EAC0E0EBC0E0C0F01273BD
:1078700085127B05A3A3A3A3127294D0F0D0E0FBE2
:10788000D0E0FAD0E0F9D0E0F8D5F0D422BB010680
:1078900089828A83E0225002E722BBFE02E322892A
:1078A000828A83E49322BB010CE58229F582E58379
:1078B0003AF583E0225006E92582F8E622BBFE066F
:1078C000E92582F8E222E58229F582E5833AF5830B
:1078D000E49322BB010689828A83F0225002F722B8
:1078E000BBFE01F322EF8DF0A4A8F0CF8CF0A4280A
:1078F000CE8DF0A42EFE22BB010A89828A83F0E598
:10790000F0A3F0225006F709A7F01922BBFE06F3F8
:10791000E5F009F31922E88FF0A4CC8BF0A42CFC3D
:10792000E98EF0A42CFC8AF0EDA42CFCEA8EF0A4E5
:10793000CDA8F08BF0A42DCC3825F0FDE98FF0A474
:107940002CCD35F0FCEB8EF0A4FEA9F0EB8FF0A46B
:10795000CFC5F02ECD39FEE43CFCEAA42DCE35F0A7
:10796000FDE43CFC2275F008758200EF2FFFEE333A
:10797000FECD33CDCC33CCC58233C5829BED9AECA2
:1079800099E58298400CF582EE9BFEED9AFDEC990C
:10799000FC0FD5F0D6E4CEFBE4CDFAE4CCF9A88216
:1079A00022B800C1B90059BA002DEC8BF084CFCEBB
:1079B000CDFCE5F0CBF97818EF2FFFEE33FEED3379
:1079C000FDEC33FCEB33FB10D703994004EB99FB40
:1079D0000FD8E5E4F9FA227818EF2FFFEE33FEED29
:1079E00033FDEC33FCC933C910D7059BE99A400736
:1079F000EC9BFCE99AF90FD8E0E4C9FAE4CCFB224D
:107A000075F010EF2FFFEE33FEED33FDCC33CCC815
:107A100033C810D7079BEC9AE899400AED9BFDEC20
:107A20009AFCE899F80FD5F0DAE4CDFBE4CCFAE45F
:107A3000C8F922CFF4CFCEF4CECDF4CDCCF4CC2205
:107A4000C3E49FFFE49EFEE49DFDE49CFC22EB9FCB
:107A5000F5F0EA9E42F0E99D42F0EC6480C8648053
:107A60009845F022EB9FF5F0EA9E42F0E99D42F046
:107A7000E89C45F022E8600FECC313FCED13FDEE2B
:107A800013FEEF13FFD8F122E86010ECA2E713FC1D
:107A9000ED13FDEE13FEEF13FFD8F022E8600FEFB9
:107AA000C333FFEE33FEED33FDEC33FCD8F122BBE4
:107AB000010789828A83027DD85005E9F8027DCCCE
:107AC000BBFE05E9F8027DE489828A83027AE9BB7C
:107AD000010789828A83027B155005E9F8027DF04F
:107AE000BBFE05E9F8027DFC22E493FC740193FDE2
:107AF000740293FE740393FF22E0F8A3E0F9A3E07D
:107B0000FAA3E0FB22E493F8740193F9740293FA68
:107B1000740393FB22ECF0A3EDF0A3EEF0A3EFF0DF
:107B200022A8828583F0D083D082127B38127B38E2
:107B3000127B38127B38E473E493A3C583C5F0C588
:107B400083C8C582C8F0A3C583C5F0C583C8C582F4
:107B5000C822F8E0FBA3A3E0F925F0F0E582158246
:107B600070021583E0FA38F022EBF0A3EAF0A3E903
:107B7000F022D083D082F8E4937012740193700DD8
:107B8000A3A393F8740193F5828883E4737402933A
:107B90006860EFA3A3A380DFE5132582F582E512D9
:107BA0003583F583B512048582132210AF068582D2
:107BB00013F51222858213F512D2AF22EC8EF0A4B7
:107BC000CCC5F0CCCDF8EFA4CEC5F02DFDE43CFC47
:107BD000E8A42EC8C5F03DFDE43CFCEFA4FFE5F0B1
:107BE00028FEE43DFDE43CFC22E709F608DFFA80CC
:107BF00046E709F208DFFA803E88828C83E709F0C5
:107C0000A3DFFA8032E309F608DFFA806EE309F2B7
:107C100008DFFA806688828C83E309F0A3DFFA80AC
:107C20005A89828A83E0A3F608DFFA804E89828A25
:107C300083E0A3F208DFFA804280D280FA80C68017
:107C4000D4805580F28029801080A680EA809A80B6
:107C5000A880DA80E280CA802988848C8589828A1B
:107C600083E493A30586F0A30586DFF5DEF3800B9E
:107C700089828A83E493A3F608DFF9ECFAA9F0ED90
:107C8000FB2288848C8589828A83E0A30586F0A301
:107C90000586DFF6DEF480E389828A83E493A3F22B
:107CA00008DFF980D688F0EF60010E4E60CD88F0D5
:107CB000ED2402B4040050C3F582EB2402B40400A6
:107CC00050B92323458223907C3973E709F6087065
:107CD000FA8046E709F20870FA803E88828C83E7D2
:107CE00009F0A370FA8074E309F60870FA806CE377
:107CF00009F20870FA806488828C83E309F0A3702B
:107D0000FA805889828A83E0A3F60870FA804C8949
:107D1000828A83E0A3F20870FA804080D280FA80E1
:107D2000C680D4805180F28027801080A680EA80AF
:107D30009A80A880DA80E280CA802788848C85892E
:107D4000828A83E493A30586F0A3058670F5800BF1
:107D500089828A83E493A3F60870F9ECFAA9F0ED1E
:107D6000FB2288848C8589828A83E0A30586F0A320
:107D7000058670F680E589828A83E493A3F2087011
:107D8000F980D888F0ED2402B4040050CEF582EBDF
:107D90002402B4040050C42323458223907D1B7326
:107DA000C5F0F8A3E028F0C5F0F8E582158270026E
:107DB0001583E038F022A3F8E0C5F025F0F0E58265
:107DC000158270021583E0C838F0E822E6FC08E668
:107DD000FD08E6FE08E6FF22E0FCA3E0FDA3E0FECE
:107DE000A3E0FF22E2FC08E2FD08E2FE08E2FF2237
:107DF000ECF608EDF608EEF608EFF622ECF208EDE8
:107E0000F208EEF208EFF2228F23E523C394034039
:107E100003028679300A227B03AF031BEF6018E46C
:107E2000FFFEFDFCEB25E025E02427F582E4340C81
:107E3000F583127B1580E2C20AE523701812CFE1A8
:107E40007801127A75EFEEED5403FDE4FC90000228
:107E5000127B158033E523B4011812CFAF780112DD
:107E60007A75EFEEED5403FDE4FC900002127B15F1
:107E7000801612CFA57801127A75EFEEED5403FD4E
:107E8000E4FC900002127B157B017A00790212BF9C
:107E9000F740030280CA900002E0FCA3E0FDA3E0EB
:107EA000FEA3E054C0FFEEED5403FDE42FFFE43EDB
:107EB000FEED34FEFDE434FFFC7802127A75EE33F9
:107EC00095E0FDFCE52325E025E024F0F582E4348F
:107ED00009F583E0F8A3E0F9A3E0FAA3E02FFFEAB5
:107EE0003EFEE93DFDE83CFC900006127B15300F9C
:107EF00027900006E0FCA3E0FDA3E0FEA3E0FFE581
:107F00002325E025E02427F582E4340CF583127B59
:107F100015E523B40202C20FE52325E025E024275E
:107F2000F582E4340CF583E0F8A3E0F9A3E0FAA3CA
:107F3000E0FB900006E0FCA3E0FDA3E0FEA3E0C3AD
:107F40009BFFEE9AFEED99FDEC98FC900012127BDF
:107F500015E4FF7EC0FDFC900012E0F8A3E0F9A359
:107F6000E0FAA3E0FBD3127A4E4010746A2523F5A1
:107F700082E4340BF583E014F080687F007E407D5E
:107F8000FF7CFF900012E0F8A3E0F9A3E0FAA3E081
:107F9000FBC3127A4E5010746A2523F582E4340B29
:107FA000F583E004F0803C900012E0A3E0A3E0FE43
:107FB000A3E0FF12CF64D3EF9400EE648094C0403E
:107FC0002274332523F582E4340CF583E004F07445
:107FD000332523F582E4340CF583E0C3940A50037F
:107FE00002867974332523F582E4340CF583E4F0BA
:107FF000900006E0FCA3E0FDA3E0FEA3E0FFE52384
:1080000025E025E02427F582E4340CF583127B1566
:10801000900006E0F8A3E0F9A3E0FAA3E0FBC000BB
:10802000746A2523F582E4340BF583E0FF3395E091
:10803000FEFDFC7810127A9CD000EB2FFFEA3EFE8A
:10804000E93DFDE83CFC900006127B15E52325E0A8
:1080500025E0244DF582E43409F583E0FCA3E0FD3E
:10806000A3E0FEA3E0FFE4FBFA7980783F12752BD2
:108070006038900006E0FCA3E0FDA3E0FEA3E0FF73
:10808000EC1275A4E52325E025E0244DF582E434C7
:1080900009F583E0F8A3E0F9A3E0FAA3E0FB12738B
:1080A000851275E2900006127B15900006E0FCA395
:1080B000E0FDA3E0FEA3E0FFE52325E025E0245654
:1080C000F582E4340BF583127B15E523147003026B
:1080D0008180147003028221240260030282BFE4C3
:1080E0007F03FEFDFC900006E0F8A3E0F9A3E0FAB0
:1080F000A3E0FB127916900C37E0F8A3E0F9A3E0B7
:10810000FAA3E02FFFEA3EFEE93DFDE83CFC900CBF
:1081100043E0F8A3E0F9A3E0FAA3E0FBC3EF9BFF81
:10812000EE9AFEED99FDEC98FCC004C005C006C0B7
:1081300007E47F03FEFDFC900C4FE0F8A3E0F9A3F9
:10814000E0FAA3E0FB127916A804A905AA06AB077A
:10815000D007D006D005D004C3EF9BFFEE9AFEED0A
:1081600099FDEC98FCE47B0AFAF9F812791612B73B
:10817000C1EE3395E0FDFC90000A127B150282BF30
:10818000E47F03FEFDFC900006E0F8A3E0F9A3E025
:10819000FAA3E0FB127916900C3BE0F8A3E0F9A3F8
:1081A000E0FAA3E02FFFEA3EFEE93DFDE83CFC904B
:1081B0000C47E0F8A3E0F9A3E0FAA3E0FBC3EF9BD0
:1081C000FFEE9AFEED99FDEC98FCC004C005C006D8
:1081D000C007E47F03FEFDFC900C53E0F8A3E0F938
:1081E000A3E0FAA3E0FB127916A804A905AA06AB3E
:1081F00007D007D006D005D004C3EF9BFFEE9AFE50
:10820000ED99FDEC98FCE47B0AFAF9F81279161264
:10821000B844EE3395E0FDFC90000A127B15028213
:10822000BFE47F03FEFDFC900006E0F8A3E0F9A3A5
:10823000E0FAA3E0FB127916900C3FE0F8A3E0F916
:10824000A3E0FAA3E02FFFEA3EFEE93DFDE83CFC97
:10825000900C4BE0F8A3E0F9A3E0FAA3E0FBC3EF36
:108260009BFFEE9AFEED99FDEC98FCC004C005C0A2
:1082700006C007E47F03FEFDFC900C57E0F8A3E086
:10828000F9A3E0FAA3E0FB127916A804A905AA064F
:10829000AB07D007D006D005D004C3EF9BFFEE9A02
:1082A000FEED99FDEC98FCE47B0AFAF9F8127916D8
:1082B00012B8C7EE3395E0FDFC90000A127B1590D2
:1082C000000AE0FCA3E0FDA3E0FEA3E0FFE5232518
:1082D000E025E02475F582E4340BF583127B15E587
:1082E0002314700302839514700302843624026001
:1082F000030284D4E47F03FEFDFC90000AE0F8A3AF
:10830000E0F9A3E0FAA3E0FB127916900C5BE0F829
:10831000A3E0F9A3E0FAA3E02FFFEA3EFEE93DFD6A
:10832000E83CFC900C67E0F8A3E0F9A3E0FAA3E0D6
:10833000FBC3EF9BFFEE9AFEED99FDEC98FCC004A9
:10834000C005C006C007E47F03FEFDFC900C73E08F
:10835000F8A3E0F9A3E0FAA3E0FB127916A804A9B8
:1083600005AA06AB07D007D006D005D004C3EF9B03
:10837000FFEE9AFEED99FDEC98FCE47B0AFAF9F821
:1083800012791612B9CDEE3395E0FDFC90000E1275
:108390007B150284D4E47F03FEFDFC90000AE0F824
:1083A000A3E0F9A3E0FAA3E0FB127916900C5FE0DA
:1083B000F8A3E0F9A3E0FAA3E02FFFEA3EFEE93DCF
:1083C000FDE83CFC900C6BE0F8A3E0F9A3E0FAA315
:1083D000E0FBC3EF9BFFEE9AFEED99FDEC98FCC02D
:1083E00004C005C006C007E47F03FEFDFC900C77C7
:1083F000E0F8A3E0F9A3E0FAA3E0FB127916A804E1
:10840000A905AA06AB07D007D006D005D004C3EF54
:108410009BFFEE9AFEED99FDEC98FCE47B0AFAF9DD
:10842000F812791612BA50EE3395E0FDFC90000E6A
:10843000127B150284D4E47F03FEFDFC90000AE069
:10844000F8A3E0F9A3E0FAA3E0FB127916900C631D
:10845000E0F8A3E0F9A3E0FAA3E02FFFEA3EFEE98B
:108460003DFDE83CFC900C6FE0F8A3E0F9A3E0FAD6
:10847000A3E0FBC3EF9BFFEE9AFEED99FDEC98FCA9
:10848000C004C005C006C007E47F03FEFDFC900CDD
:108490007BE0F8A3E0F9A3E0FAA3E0FB127916A8C9
:1084A00004A905AA06AB07D007D006D005D004C39F
:1084B000EF9BFFEE9AFEED99FDEC98FCE47B0AFA47
:1084C000F9F812791612BAD3EE3395E0FDFC90005C
:1084D0000E127B1590000EE0FCA3E0FDA3E0FEA3CE
:1084E000E0FFE52325E025E02481F582E4340BF567
:1084F00083127B15E52325E025E02443F582E4344F
:108500000CF583E0FCA3E0FDA3E0FEA3E0FFE52380
:1085100025E025E0244FF582E4340CF583127B1529
:10852000E52325E025E02437F582E4340CF583E0EB
:10853000FCA3E0FDA3E0FEA3E0FFE52325E025E0AA
:108540002443F582E4340CF583127B15900006E099
:10855000FCA3E0FDA3E0FEA3E0FFE52325E025E08A
:108560002437F582E4340CF583127B15E52325E0EE
:1085700025E02467F582E4340CF583E0FCA3E0FDFC
:10858000A3E0FEA3E0FFE52325E025E02473F582C8
:10859000E4340CF583127B15E52325E025E0245B0C
:1085A000F582E4340CF583E0FCA3E0FDA3E0FEA338
:1085B000E0FFE52325E025E02467F582E4340CF5AF
:1085C00083127B1590000AE0FCA3E0FDA3E0FEA36C
:1085D000E0FFE52325E025E0245BF582E4340CF59B
:1085E00083127B15301003028679900C36E0C39419
:1085F000225004E004F022900982E0602A900B5A95
:10860000E0FCA3E0FDA3E0FEA3E0FF90001A127BD4
:1086100015900B56E0FCA3E0FDA3E0FEA3E0FF12E3
:10862000ADFB900B6AEFF0900B56E0F8A3E0F9A3D6
:10863000E0FAA3E0FBC000900B6AE0FF3395E0FE98
:10864000FDFC7810127A9CD000EB2FFFEA3EFEE989
:108650003DFDE83CFC900B56127B15900B56E0FC60
:10866000A3E0FDA3E0FEA3E0FF900B2C127B15908E
:1086700009B7E0FF12D0CCD2102212D0FCEF700A62
:10868000300CF7C20C12A6FD80F0900B4EE0249A3D
:10869000FF900B4DE034F9FE3395E0FDFCE47BA048
:1086A0007A07F9F81279167807127A88900A8A12EE
:1086B0007B15300C05C20C12A6FD900C83E060699E
:1086C000300D66E47F287E23FDFC900A8AE0F8A343
:1086D000E0F9A3E0FAA3E0FBC3127A4E500FE47F67
:1086E000407E1FFDFC900C84127B158037E47FC810
:1086F0007E32FDFC900A8AE0F8A3E0F9A3E0FAA339
:10870000E0FBC3127A4E500FE47FE07E2EFDFC901A
:108710000C84127B15800DE47FC07E5DFDFC900C07
:1087200084127B15E4900C83F0E4FFFEFDFC900ABC
:108730008AE0F8A3E0F9A3E0FAA3E0FBD3127A4EB3
:108740005003028B5AD20D900A33E0600312BDB978
:10875000900B50E0249AFF900B4FE034F9FE3395D4
:10876000E0FDFCE47BAB7A64F9F8127916780D121F
:108770007A88900B55E0FD3395E0FC1278E5EE33F6
:1087800095E0FDFC12BE2F900B62127B15300C059C
:10879000C20C12A6FD900A27E07004F50EF50FE555
:1087A0000E14700302885114700302886814700359
:1087B0000288A524036003028943900B51E0FEA3C5
:1087C000E0FFEE3395E0FDFC12B73E8F268E258D3F
:1087D000248C23780A127A9C900A28E0F8A3E0F906
:1087E000A3E0FAA3E0FB1279A18F268E258D248CBD
:1087F00023300C05C20C12A6FDE4FFFEFDFCAB26E7
:10880000AA25A924A823C3127A4E500BE4F526F515
:1088100025F524F523801EE4FF7E04FDFCAB26AA8B
:1088200025A924A823D3127A4E400AE4F5267525FB
:1088300004F524F523AF26AE25AD24AC23900B6DB3
:10884000127B15200C03028943C20C12A6FD02897B
:1088500043E4900C7FF0A3F0FFFEFDFC900A281289
:108860007B15750E02028943900C80E004F07006BF
:10887000900C7FE004F0900C7FE064017004A3E0B2
:1088800064F46003028943900C7FF0A3F07F01122F
:10889000D12CE4FF12D132300C05C20C12A6FD75AA
:1088A0000E03028943900C80E004F07006900C7F68
:1088B000E004F0900A28E0F8A3E0F9A3E0FAA3E0CE
:1088C000FBC000C001C002C003900B51E0FEA3E05A
:1088D000FFEE3395E0FDFC12B73ED003D002D0018D
:1088E000D000EB2FFFEA3EFEE93DFDE83CFC900A9C
:1088F00028127B15300C05C20C12A6FD900C7FE0EF
:1089000064037004A3E064E87039900A28E0FCA3D3
:10891000E0FDA3E0FEA3E0FFE47BE87A03F9F812B0
:1089200079A1900A28127B15300C05C20C12A6FD05
:10893000E4FF12D12CE4FF12D132E4900C7FF0A3BB
:10894000F0F50E300C05C20C12A6FDE50F147003F5
:108950000289F8147003028A17147003028A5414EF
:108960007003028B4924046003028B50900B53E088
:10897000FEA3E0FFEE3395E0FDFC12B94A8F268E90
:10898000258D248C23780A127A9C900A2CE0F8A377
:10899000E0F9A3E0FAA3E0FB1279A18F268E258DE2
:1089A000248C23300C05C20C12A6FDE4FFFEFDFC56
:1089B000AB26AA25A924A823C3127A4E500BE4F5AE
:1089C00026F525F524F523801EE4FF7E04FDFCAB8F
:1089D00026AA25A924A823D3127A4E400AE4F52614
:1089E000752504F524F523AF26AE25AD24AC2390E0
:1089F0000B71127B15028B50E4900C81F0A3F0FFF9
:108A0000FEFDFC900A2C127B15300C05C20C12A640
:108A1000FD750F04028B50900C82E004F0700690FC
:108A20000C81E004F0900C81E064017004A3E06428
:108A3000F46003028B50900C81F0A3F07F0112D1FF
:108A40002CE4FF12D132300C05C20C12A6FD750FBA
:108A500003028B50900C82E004F07006900C81E0D1
:108A600004F0900A2CE0F8A3E0F9A3E0FAA3E0FBFD
:108A7000C000C001C002C003900B53E0FEA3E0FFA2
:108A8000EE3395E0FDFC12B94AD003D002D001D0FC
:108A900000EB2FFFEA3EFEE93DFDE83CFC900A2C8E
:108AA000127B15300C05C20C12A6FD900C81E064FF
:108AB000037004A3E064E86003028B50900A2CE08A
:108AC000FCA3E0FDA3E0FEA3E0FFE47BE87A03F96A
:108AD000F81279A1900A2C127B15E4FF12D12CE434
:108AE000FF12D132E4900C81F0A3F0300C05C20CDF
