:40000000021415008F828E83E0540100000070F82278FFE4F6D8FD02147A900000EFF0E4F53FF540F541F54275430AC200121F87EF60057F00121FB7122067D2AF9044F4FC
:4000400074FDF0E4F53B754900754A00754B37900000E0FF70067EFF7FFF80008F4C7B017A0079017D2C7C011212FA8F3E900000E060021543E5436004E53E70C9E53E6046
:400080000302059FC3E5389407E53794004008900001E064016005753B04807E900004E0FE900003E0FDEEF53FEDF54074062540F5827400353FF583E0FE74052540F58228
:4000C0007400353FF583E0FDEEF53CEDF53DE5402407FFE4353FFED3EF9538EE95374005753B03803574072540F5827400353FF583E064176005753B04801F7B017A0079B1
:4001000001E5402404FDE4353FFC121C66EF653D7003EE653C6003753B08E4F539F53AE53B600302058E900005E0F536753B04900002E012088801553101823202083403A0
:400140007A3503883703D438020839040F3A05783B0000058B20000302058EE540453F600302058EFF120D84EF70047F0180027F00900005EFF0753900753A01E4F53B0260
:40018000058E20000302058EE5406401453F600302058EE536C39401400302058E900357E0FEA3E0F5828E83120842E4FBFA7901F81207188F24E536B5241E900357E0FE6B
:4001C000A3E0F5828E83120842E4FB7A01F9F81207187522008F238014E536D395244007E4F522F5238006752201752300E523900005F0E522A3F0A374FFF0E4A3F0F539B6
:40020000753A04F53B02058E900002E06434703C20000302058EE5406403453F600302058EE536C39440400FE536D3947F50087541007542108006754101754220AE41AF47
:40024000427D007B017A01792D1208FF20000302058EC3E5409403E53F9400500302058EE54024FDFFE53F34FFFE742D2542F974013541A801FC7D017B017A0079081209F7
:40028000E7E54024FDFFE53F34FFFEEF2542F542EE3541F541E536C394404012E536D3947F500B121DA8753F007540108006753F01754020E54265407004E541653F600369
:4002C00002036F900007E0FE900006E0FDEEF541EDF542E536D3943F506FE5367F00FEEF2542FFE5413E900259F0A3EFF0900357E0FEA3E0F5828E83120842E4FB7A01F9AA
:40030000F812071890025BEEF0A3EFF0900357E0FEA3E0F5828E83120842EFE4EF600A90025BE475F0011205DA90025BE0FEA3E0FFC390025AE09F900259E09E500B753BD5
:400340000AE4F541F54202058E7B017A01792D900263E53FF0A3E540F0AD42AC41AF36120F0BEF60047F0A80027F008F3B8003753B03E4F541F54202058E20000302058EC7
:40038000E4F541F54202059F20000302058EE5422540FFE541353FFED3EF942CEE9401502DE4F53BAE3FAF40742D2542F974013541A801FC7D017B017A0079051209E7E58F
:4003C000402542F542E53F3541F54102058E753B0302058EE540453F600302058E78257C00FD7BFF7A25791FFE7F081209E7D200753900753A08AE39AF3A78057C007D0105
:400400007B007A0079251209E7E4F53B02058E20000302058EE5406403453F600302058E900007E0FE900006E0FDEEF52FEDF530E536C394404038E536D3947F5031AE2F29
:40044000AF307C007D101208D28F348E338D328C318F4B8E4A8D498C48E4754F10F54EF54DF54CFF7E80FDFC12192C8F358050AE2FAF307C017D001208D2C004C005C006FC
:40048000C007AF36E4FCFDFEFBFA7901F812068DD003D002D001D0001206728F348E338D328C318F4B8E4A8D498C48E4F54F754E01F54DF54CFFFE7D10FC12192C8F35E588
:4004C00036D3943F5072AF367E007C207D001208D2E42FFFE43EFEED3408FDE43CFCC004A905AA06AB07AE2FAF307C007D201208D2D0001206728F348E338D328C31E4F5BA
:400500002DF52EC3E52E9420E52D9400502AE4E52E2534FFE52D3533FEE43532FDE43531A907AA06AB05121CF3EF2535F535052EE52E7002052D80CBE536702AAE2FAF301E
:40054000FCFD7BFFFAF9F8C31207C57019FD7F05120A3DC3E5359FF535E4FD7F06120A3DC3E5359FF535E535F404900005F0E4F53BF539753A018016E4FF120D84EF700604
:400580009046FA7480F01220718003753B057B017A007901853948853A49AF3B1215ED900000E0700302004330000302004322BB010689828A83E0225002E722BBFE02E399
:4005C0002289828A83E49322BB010689828A83F0225002F722BBFE01F322C5F0F8A3E028F0C5F0F8E582158270021583E038F022BB010A89828A83E0F5F0A3E022500687B6
:40060000F009E71922BBFE07E3F5F009E3192289828A83E493F5F074019322BB010789828A830205DA500B09C5F027F7C5F01937F722BBFE0D09F8E325F0F3C5F019E338A6
:40064000F322F889828A8374019325F0C5F0F8E4933822BB010A89828A83F0E5F0A3F0225006F709A7F01922BBFE06F3E5F009F31922EF2BFFEE3AFEED39FDEC38FC22C315
:40068000EF9BFFEE9AFEED99FDEC98FC22E88FF0A4CC8BF0A42CFCE98EF0A42CFC8AF0EDA42CFCEA8EF0A4CDA8F08BF0A42DCC3825F0FDE98FF0A42CCD35F0FCEB8EF0A47C
:4006C000FEA9F0EB8FF0A4CFC5F02ECD39FEE43CFCEAA42DCE35F0FDE43CFC2275F008758200EF2FFFEE33FECD33CDCC33CCC58233C5829BED9AEC99E58298400CF582EE4A
:400700009BFEED9AFDEC99FC0FD5F0D6E4CEFBE4CDFAE4CCF9A88222B800C1B90059BA002DEC8BF084CFCECDFCE5F0CBF97818EF2FFFEE33FEED33FDEC33FCEB33FB10D7C4
:4007400003994004EB99FB0FD8E5E4F9FA227818EF2FFFEE33FEED33FDEC33FCC933C910D7059BE99A4007EC9BFCE99AF90FD8E0E4C9FAE4CCFB2275F010EF2FFFEE33FE50
:40078000ED33FDCC33CCC833C810D7079BEC9AE899400AED9BFDEC9AFCE899F80FD5F0DAE4CDFBE4CCFAE4C8F922EF4BFFEE4AFEED49FDEC48FC22C3E49FFFE49EFEE49D2F
:4007C000FDE49CFC22EB9FF5F0EA9E42F0E99D42F0E89C45F022E8600FECC313FCED13FDEE13FEEF13FFD8F122E8600FEFC333FFEE33FEED33FDEC33FCD8F122BB010789DC
:40080000828A830208365005E9F8020A0DBBFE05E9F8020A1989828A83020842BB010789828A8302085E5005E9F8020A25BBFE05E9F8020A3122E0FCA3E0FDA3E0FEA3E06A
:40084000FF22E493FC740193FD740293FE740393FF22E0F8A3E0F9A3E0FAA3E0FB22ECF0A3EDF0A3EEF0A3EFF022E0FBA3E0FAA3E0F922EBF0A3EAF0A3E9F022E493FB74E9
:400880000193FA740293F922D083D082F8E4937012740193700DA3A393F8740193F5828883E4737402936860EFA3A3A380DFE5092582F582E5083583F583B50804858209B7
:4008C0002210AF06858209F50822858209F508D2AF22EC8EF0A4CCC5F0CCCDF8EFA4CEC5F02DFDE43CFCE8A42EC8C5F03DFDE43CFCEFA4FFE5F028FEE43DFDE43CFC22EF51
:400900004E6012EF60010EEDBB010B89828A83F0A3DFFCDEFA2289F05007F709DFFCA9F022BBFEFCF309DFFCA9F022E709F608DFFA8046E709F208DFFA803E88828C83E7AA
:4009400009F0A3DFFA8032E309F608DFFA806EE309F208DFFA806688828C83E309F0A3DFFA805A89828A83E0A3F608DFFA804E89828A83E0A3F208DFFA804280D280FA80F3
:40098000C680D4805580F28029801080A680EA809A80A880DA80E280CA802988848C8589828A83E493A30586F0A30586DFF5DEF3800B89828A83E493A3F608DFF9ECFAA95D
:4009C000F0EDFB2288848C8589828A83E0A30586F0A30586DFF6DEF480E389828A83E493A3F208DFF980D688F0EF60010E4E60CD88F0ED2402B4040050C3F582EB2402B455
:400A0000040050B9232345822390097B73E6FC08E6FD08E6FE08E6FF22E2FC08E2FD08E2FE08E2FF22ECF608EDF608EEF608EFF622ECF208EDF208EEF208EFF22290025D03
:400A4000EDF0AB079002627402F0E4FFFEFDFCA312085EEB1208880A79010AA6020ACB030AF0040B15050B40060B8F070B6B080BB3090BD70A00000C0190025DE0FF7E005E
:400A80007C017D001208D21207B7EF24C0FFEE34FFFEED3410FDE43CFCA312085E9002627401F0020C0C90025DE0FF7E007C017D001208D2C374C39FFF74FF9EFE74109DBD
:400AC000FDE49CFCA312085E020C0C90025DE0FF7E007C017D001208D2C374C79FFF74FF9EFE74109DFDE49CFCA312085E020C0C90025DE0FF7E007C017D001208D2C37433
:400B0000CB9FFF74FF9EFE74109DFDE49CFCA312085E020C0C90025DE0FF7E007C017D001208D2C374D09FFF74FF9EFE74109DFDE49CFCA312085E9002627401F0020C0C60
:400B400090025DE0FF7E007C017D001208D2C374D19FFF74FF9EFE74109DFDE49CFCA312085E9002627401F0020C0C90025DE0FF7E007C017D001208D2C374D69FFF74FF16
:400B80009EFE74109DFDE49CFCA312085E807D90025DE0FF7E007C017D001208D2C374D29FFF74FF9EFE74109DFDE49CFCA312085E805990025DE0FF7E007C017D00120811
:400BC000D2C374D49FFF74FF9EFE74109DFDE49CFCA312085E803590025DE0FF7E007C017D001208D2C374D89FFF74FF9EFE74109DFDE49CFCA312085E9002627404F08082
:400C00000BE4FFFEFDFC90025E12085E900262E0B4011990025E120836A907AA06AB05121CF3E4FCFDFE90026312085E900262E06402705C90025E120836EF2401FFE43E91
:400C4000FEE43DFDE43CA907AA06AB05121CF3E4FCFDFE90026312085E900263120852C000C001C002C00390025E120836A907AA06AB05121CF3E4FCFDFE78081207E9D0BA
:400C800003D002D001D0001207AA90026312085E900262E064046003020D7D90025E120836EF2403FFE43EFEE43DFDE43CA907AA06AB05121CF3E4FCFDFE90026312085E37
:400CC000900263120852C000C001C002C00390025E120836EF2402FFE43EFEE43DFDE43CA907AA06AB05121CF3E4FCFDFE78081207E9D003D002D001D0001207AA9002634F
:400D000012085E900263120852C000C001C002C00390025E120836EF2401FFE43EFEE43DFDE43CA907AA06AB05121CF3E4FCFDFE78101207E9D003D002D001D0001207AA84
:400D400090026312085E900263120852C000C001C002C00390025E120836A907AA06AB05121CF3E4FCFDFE78181207E9D003D002D001D0001207AA90026312085E90026356
:400D8000120836228F44AD447F03120A3DEF2401FFE43EFEE43DFDE43CFCE4FB7A01F9F812068DC004C005C006C007AD447F04120A3DD003D002D001D0001206728F4C8EA9
:400DC0004B8D4A8C49C201E4F54DAD447F03120A3DEF2401FFE43EFEE43DFDE43CFCE4FB7A01F9F812068D8F488E478D468C45AF4CAE4BAD4AAC49AB48AA47A946A845C337
:400E00001207C55032854882854783E493F54E6005F46002D201E54E254DF54DAF48AE47AD46AC45E47B01FAF9F81206728F488E478D468C4580B8AD447F03120A3DEF2479
:400E400001FFE43EFEE43DFDE43CFCE4FB7A01F9F812068D78031207D68F488E478D468C45E47FC07EFFFDFCAB4CAA4BA94AA849C31207C57007FF7E20FDFC800DAF4CAE21
:400E80004BAD4AAC4978031207D68F4C8E4B8D4A8C49AF4CAE4BAD4AAC49AB48AA47A946A845C31207C55039E42548FFE43547FEE5463408FDE43545A907AA06AB05121CB9
:400EC000F3EF254DF54DAF48AE47AD46AC45E47B01FAF9F81206728F488E478D468C4580B1E54DF404F54DAD447F01120A3DA804A905AA06AB07AF4DE4FCFDFEC31207C5CC
:400F000070032001037F06227F002290025EECF0A3EDF0A312087390025DEFF0E4900265F0EFD3943F500E90025DE0940140069002657401F090025DE0FFD3947F4006903A
:400F400002657401F0EFC39440400CEFD3944140069002657401F0EFD3943F501E90025EE0FEA3E0FFE4FCFDFB7A01F9F8C31207C5502F9002657401F08027D390025FE03C
:400F8000948090025EE0940040069002657401F0900263E07004A3E0641060069002657401F090026012086AE94A4B700590026504F0900265E0600302108A121EFEEF606E
:400FC0000302108490025EE0FCA3E0FDA312086A900263E0FFA3E090026CCFF0A3EFF090025DE0FF1211DE900265EFF06407600302107F904722E0540270087F01FE121EF6
:401000006480F0904722E054026009E0FF1313543FFF80027FFFEF7006900265F0800690026574FFF0900265E0705490025DE0FFA3E0FCA3E0FD900353E0FBA3E090026AD9
:40104000F0121A90900265EFF064077032904722E0540270087F01FE121E6480F0904722E054026009E0FF1313543FFF80027FFFEF7006900265F0800690026574FFF0124B
:40108000205180069002657404F0900265E0FF227B007A4679E8121CF3EF4401FD7B007A4679E8122045E4F52CE52CC3940A502CE52C75F005A42461F582E43424AF82F571
:4010C000218F22F58312087C8F82852183740393FC740493FD121F6E052C80CDE4F52CE52CC394015046E52C75F007A42413F582E43425AF82F5238F24F58312087C8B25E1
:401100008A2689278F82852383740393FE7404938E28F529740593F52A740693F52BAD29AC28FFAE2A121EB8052C80B37E207F92121DD97B017A507903121CF3EF4402FD3B
:401140007B017A5079031220457B017A507913121CF3EF4402FD7B017A5079131220459043A0E04440F09043C2E04410F07C207D827B007A5179127F087E00121EB87C2053
:401180007D8A7B007A5179227F087E00121EB89044F47401F0904322E04408F09046ECE0C394055006904689743AF090480074F1F012150690480074B1F0121F1D7B007A41
:4011C0004379A0C00179B0900005120873D0017F0E7E00121D749043B0E054FDF022900266EFF0A3ECF0A3EDF0A312087390026E7407F0904722E0540270030212EE904756
:401200002074B6F074D5F07402F0904722E0540260030212E6900266E0904720F0E490026FF0A3F090026CE0FEA3E0FF90026FE0FCA3E0FDC39FEC9E501F90026912086A8D
:40124000E92DF9EA3CFA1205AF904720F090026FE475F0011205DA80CB90026CE064017002A3E060030212F4900266E0FFD3943F40030212F47E007C207D001208D2E42F0A
:40128000FFE43EFEED3408FDE43CFCC004A905AA06AB07A3E0FEA3E0FF7C007D201208D2D00012067290027112085EE490026FF0A3F090026FE0FEA3E0FFC39420EE94005A
:4012C0005032E4FCFDA3120852120672A907AA06AB05121CF3904720EFF090026FE475F0011205DA80CC90026E7409F0800690026E7404F090026EE0FF228B448A4589469E
:401300008C478D48755505E4F54DF54EE54C75F00AA4FFC3E54E9FE54D95F0503B121B34EF6022121B347553008F54E47F19FEFDFC1218C7121B34D3EF9554E4955350E366
:40134000E4F5558013E47F01FEFDFC1218C7054EE54E7002054D80B4AB49AA4AA94BE4F5F0120653E4F54FF550121B34EFD394005003021412121B347551008F52AB49AA8D
:401380004AA94BE5518552F012061BAB49AA4AA94B1205F0C39548E5F09547505FE4F54DF54EC3E54E9552E54D95515025121C1CAB44E5462550F9E545354FFAEF1205C8C1
:4013C0000550E5507002054F054EE54E7002054D80D0AB44E55024FFFFE54F34FFFEE5462FF9E5453EFA1205AF64177003021369E47F05FEFDFC1218C7021369AB49AA4ABB
:40140000A94B1205F0C39552FFE5F095518FF0120653AF552275930078007583467582E8E04401F0009046ECE0F99046FAE0FA90034BF0B903225420B40012B8001AEA9014
:401440001FFFF07401901FFEF09046F6F0901FFEE06005901FFFE0FA90480074C0F0758156121EDE90000078007920E4F0A3D8FCD9FAEA90034BF002001175081F7509FD1F
:401480001210900214C1022079E493A3F8E493A34003F68001F208DFF48029E493A3F85407240CC8C333C4540F4420C8834004F456800146F6DFE4800B0102040810204063
:4014C00080901B83E47E019360BCA3FF543F30E509541FFEE493A360010ECF54C025E060A840B8E493A3FAE493A3F8E493A3C8C582C8CAC583CAF0A3C8C582C8CAC583CABE
:40150000DFE9DEE780BE7B007A4079807D337C001220279040827418F09043007402F09040007408F09042007403F07B0C7A017908121CF39046A1EFF07B007A4279227D68
:40154000087C001220277B007A4279207D517C12122027E4900004F07F19FEFDFC90000012085E900000120836D3EF9400EE9400403B900004E0FF64036032904225E05440
:4015800001FEEF25E04E5403900004F0E47FE07E01FDFC121D0090000012083674FFFBFAF9F812067290000012085E80B6900000120836EF4E70057F0312207F7B007A402A
:4015C00079047D007C011220279040047407F0904006E4F09040087448F0904004E4F09040017402F09043A2E04401F0228B458A46894774011205C8AB452547F9E43546AB
:40160000FAEF1205C8E549AB45E5472402F9E43546FAE5491205C8E548FFAB45E5472403F9E43546FAEF1205C8AB45AA46A947E5492404FDE43548FC121C668E4A8F4BEFCF
:40164000AB45E5492404FDE43548FCE5472DF9E5463CFAEF1205C8E54AFFAB45E5492405FDE43548FCE5472DF9E5463CFAEF1205C8AB45E5492406FFE43548FEE5472FF9FF
:40168000E5463EFA74171205C8E5492407FDE43548FC755100755200755348755496AB45AA46A947121BD122C0E0C083C082C085C084C086758600C093759300C0D075D09F
:4016C00000C001C002C003C006C007E4FBA2AF33FAD2AF9044F474FDF090646CE0FFFE541EF960069002FDE049F0EF30E54590644AE0FE9002F9E02478F582E43402F583E5
:40170000EEF07B01EB602C900276E060069002FC7401F09002F9E004F0E0C394404002E4F0900277E0FE9002F9E0B506069002767401F0EF20E5A2AF02EA24FF92AFD007BF
:40174000D006D003D002D001D0D0D093D086D084D085D082D083D0E032752106E4FF120D84EF7002F521E4F54BF54AF549F548900357E0FEA3E0F5828E831208428F4F8E82
:401780004E8D4D8C4CE4FFFE7D10FC12192C900355E0FCA3E0F5828C83E493FEC3EF9EFFF404FFB50612900357E0FEA3E0F5828E83120842EF4E70057F00121FB79046FAFB
:4017C000E054C064406004E52160099046FAE4F0FF12001A12205D22C0E0C083C082C085C084C086758600C093759300C0D075D000C006C007A2AFE433FFD2AF9044F4742E
:40180000FDF09002FAE0FE9002B8E06E602C90646EE020E2259002B8E0C394404002E4F09002B8E024B9F582E43402F583E090644DF09002B8E004F080C8EF24FF92AFD043
:4018400007D006D0D0D093D086D084D085D082D083D0E032A9079002FAE0FF9002B8E0FEEFC39E501AEE24FFFDE434FFFCEF7A00B50508EAB504047D0180027D00800CC346
:40188000EF9EB43F047D0180027D00ED70C8EEB5070D90646EE020E20690644DE9F022EFC394404002E4FF74B92FF582E43402F583E9F00F9002FAEFF090646EE030E10609
:4018C0009044D07402F02290FFFC1208AE12085E850883850982120836D3EF9400EE9480402E90034C120836121D00850883850982C083C082120836E42FFFEE3480FEEDC9
:4019000034FFFDEC34FFFCD082D08312085E80C090034212083685088385098212085212068D121D009000041208AE228F478E468D458C44E4F550D3E54F9400E54E940025
:40194000404BAF4FAE4EAD4DAC4C74FFFBFAF9F81206728F4F8E4E8D4D8C4CE547254BFFE546354AFEE5453549FDE5443548FCEF254FFFEE354EFEED354DFDEC354CA907BD
:40198000AA06AB051205AF2550F55080AAAF5022121FE190025E74FFF0121EFEEF703B7F01121E35EF6407702C7B017A0379537D021219E6EFB40215E490025EF090472228
:4019C000E0540270107F01FE121E6480F0904722E0540260D4122051800690025E7404F090025EE0FF2290025F120873900262EDF0E4A3F0900262E0FFA3E0C39F50379065
:401A00004722E054016003D38001C340097F017E00121E6480E9904720E0FF90025F12086A900263E029F9E43AFAEF1205C8900263E004F080BE900263E0FF2290025EEC49
:401A4000F0A3EDF090025DEFF0541F25E0FFE433FEE42FFFEE3444FAA9077B0112201A900260EEF0A3EFF090025DE075F002A42400FFE5F03444FAA9077B01A3E0FEA3E0EC
:401A8000FFFDAC06122029900260E0FEA3E0FF22900267ECF0A3EDF0AC077D07904722E05402603B90472074B6F074D8F07405F0904722E054027023904720ECF09002670F
:401AC000E0904720F0900267E0A3E0904720F0EBF090026AE0904720F080067D0980027D04AF0522121FE1121EFEEF703B121F3A90025EEFF06407702A904722E0540270A1
:401B0000087F01FE121E6480F0904722E054026009E0FF1313543FFF80027FFFEF700490025EF0122051800690025E7404F090025EE0FF229044C87401F09002F9E0FE905D
:401B40000277E0B5060E900276E060047F40802CE4FF80289002F9E0FE900277E0C39E500BE0FE9002F9E0C39EFF8010900277E0FEC374409EFE9002F9E02EFF9044C07420
:401B800001F022420355251A420357251B430350000000440347016E360044034200005DC04103461844034C2EE000004102FB004102B8004102FA004102FD00410277003B
:401BC0004102F900410276004102FC0041035B00008B4C8A4D894E8C4F8D50E4F555F556121E07C3E5569550E555954F501DAB4CE54E2556F9E54D3555FA1205AFFF121874
:401C0000540556E5567002055580D8AB51AA52A953E54F8550F01206537F00229044C87401F0900277E0FE9002F9E0FD900276E07004EE6D602474782EF582E43402F583EF
:401C4000E0FF0EEEC394404002E4FE900277EEF0900276E06009E4F0800590644AE0FF9044C07401F0228B4C8A4D894EE4F54FF550D3ED9400EC94004025AB4CED24FFFFD4
:401C8000EC34FFFEE54E2FF9E54D3EFA1205AF2550F550E4354FF54FED1D70011C80D2E550F4FFE54FF4FEEF2401FFE43EFE227C167DA8E4FF121A3C7D07E4FF121F55E4B7
:401CC0009002FDF090648A7469F090648C7420F07C177DD87F01121A3C7D077F01121F5590642E7406F090643E7447F090648E7402F0228B938A838982E0759300FF22000A
:401D0000EC4D4E700D78FCEF24E950032840FD2200007BF178DA0000EF28FF78FFEE38FEED38FDEC38FC50E7EF2BFFEE38FEED38FDEC38FC40F22205020304121FCC9002FD
:401D40005DEFF090649AE04420F090649CE04410F09044C07401F090649EE04410F09044D87402F09044C0F012203690025DE0FF121F9F22758600EF4E6027EF60010E75B2
:401D80009300900005E0F595A3E0F585A3E0F5848B938A838982E0A30586F0A31586DFF6DEF4E4F593F59522121FCC9043A0E04408F09043B0E04408F090470174C8F090A8
:401DC00043ACE04410F09043BCE04410F0904700E0542060F8121F9F22ACEAADA08E838F82E493F9601CA3E493F5EAA3E493F5A0A3E49360F1FAA3E493F8A3E493F2DAF6BC
:401E0000D9E48DA08CEA22121FCC90649AE04401F0E054FEF0121F9F9044C87401F0E4900277F09002F9F0900276F09002FCF09044C004F0227E07904722E05402601F9052
:401E4000472074B6F074E1F0740EF0904722E054027007904720EFF080067E0980027E04AF062200EEFA900346E0F88FF0A4FFAEF0E88AF0A42EFEE5F03400FDEF24C9FF5A
:401E800078FFEE38FEED38FDE438FC5003021D0022121FCC90649DE04401F0E054FEF0121F9F9044C87402F0E49002B8F09002FAF09044C07402F022758600EF4E601BEFCA
:401EC00060010E8C838D828B958A858984E493A30586F0A31586DFF5DEF3E4F595229046FAE054C064807015F0FD7F02120A3DEF4E600AE4FD7F02120A3D122009229002CC
:401F0000667404F0121FCC90035BE0700704F0E4900266F0121F9F900266E0FF227B0C7A0179CF121CF3EF540790586EF0EFC4540FA3F09058767444F0227F07904722E0DD
:401F40005402600E90472074B6F074E0F0740DF080027F0422AC07ED540775F020A4FFEC541F2480F582E43444F583EFF022EC4D6011ED60010C8B938A838982E4F0A3DDB0
:401F8000FCDCFA75930022121AE490025DEFF0700812199090025DEFF090025DE0FF22EF54016004D2AF8002C2AFEF5402FF9044F4E054FD4FF02290FFFF1208AEEFF090D7
:401FC00046EA7401F09000011208AE229044F4E0F84402F0E85402FF10AF012274014FFF22121FCC9043A0E04408F09043B0E04408F0121F9F229002FBE07009121CAF9087
:4020000002FB7401F0121D3B2290034BE0FA8E838F827400758101738B938A838982E0FFA3E0FE759300228B938A838982EDF0A3ECF0759300229043A2E04401F09043B26F
:40204000E04401F0228B938A838982EDF075930022121FCCE490035BF0121F9F229046FA7480F012207122121FF6121E07121E91229046F6E04401F02212175980FE2280DC
:40208000FE22007F7B007B00000030D8C800D800000016005205082309121098118814200064047E3F8A698C3A8E0F010101E204010301E6020105028702E008010604B82E
:4020C00002BE01D804DF010107021B02A702010A088501890195019901B101BF01D904DF01010B4F00400106038808010A040B111028130219641A041B0A202021082230E9
:40210000274028282A022B022E033080310232103304340836203708382239803A083C283E084028410843824A024B0152045B4068286A016B027090712072108D408E104D
:402140008F809042910493109621980199029B0C9D649E049F80A004A102A202A490A520A702AB01B021B405B602B744C00FC20FC40ECA0FCC6FCE6FD00FD208D608E0083A
:40218000E801010C4C0001021608E70A180E3F101E120114C6163918481C88208824DD262228232ADC2CC8301F320834E03A22541A560458045B045F018008824284F88698
:4021C000018704880F89028AF08D068EC792849308943996C698109C20A020A101A43FA6C0A906AA08AC30B031B106B308B501B6FFB702B982BE40BF11C062C101C5E0C6DA
:40220000CBC80EC9FFCAFFCBFFCEF0CF44D00CD804D904DA04DF01E6C0EA40EB02010D46002901100210030B04010709080209260A310D220E11108012481388151016502C
:402240001780180219021C081D021E201F20200421012208230128402920320238C839A43A083B10414042084921502053405E205F026540674887409088912093089502C2
:40228000978098409B4A9C029D259E049F04A420A504A72AB001B301C0DFC2FFC4FFCA05CC01CE0ED00CD204D6A0D8B0010E4E040906D007230B080C0C0D210E710F0E1048
:4022C00014141016AC170C18DC1A221B201E0321102410264029212A202B062D0C2F2330E03310350F361F37203A023B203F444004464049FF4A074BFF4C404D204EF04F8A
:4023000005500854015604580459045A045B045F01604061A862406320871F89198B0691019304950997029A01A506A719A919AA01AB06AF0FB201B310B507B708B908BB65
:4023400020BE04D804D904DB04DF01010F3C004404040504084809200A010B800E0810081210160418C01A011F042130224425102604270A280829212A802F2A303031047A
:402380003402370438883A103D284101500C5210581059015A886380680169046A206B406F0171407304821083408550868089048B04C005C24FC446CA7DCCC6CE6ED00101
:4023C000D60FD801E40C014005322035808180CC30E2200141038620A620E6400144058301870188C0E004E40401450F0C0857025B046401660193029889A040A301B009C2
:40240000C204D607D801E801EC0401460D8702900893029888A040A301A702AB04B40CB601E808EC02EE08014705900893029888A040A301014C0E5004544057015808607D
:40244000806702900893029888A040A301D406D607D80201500300010C010E01015101000F005100001000513000400051C000100051F000100100000A00010A800580018E
:40248000140008000140000A00014C000200015000002000008080207D050000040800130C0400030204200A031410130C0C7300088000400800004043003C404F003000DE
:4024C0000000734000303F0FC0800008002028000040003402010005C0000E12FFFFFF62A0F0410C00000000000210040404040000000100000000000040020010301000CE
:4025000010101200000000000000000000000000000000010A002493008061000026006930091E031E010100000000000000000000000000000000000000000000000000BD
:40254000000000000000000000000000000000000000000000000000000000000000000000000000000000000000000000000000000000000000000000000000000000005B
:40258000000000000000000000000000000000000000000000000000000000000000000000000000000000000000000000000000000000000000000000000000000000001B
:4025C00000000000000000000000000000000000000000000000000000000000000000000000000000000000000000000000000000000000000000000000000000000000DB
:4026000002A533008F828E83E0540100000070F82278FFE4F6D8FD02A5C12055736200002048616E646C65000020454D472070726F706F7274696F6E616C000020454D4760
:4026400020696E74656772616C000020454D472046434653000020454D47204643465320416476616E6365640000204A6F79737469636B0000205945530000204E4F0000FA
:40268000204C65667400002052696768740000000D0A004669726D776172652076657273696F6E3A2000536F667448616E642076362E33202D204D617374657220772F5644
:4026C0006962726F74616374696C6520666220536F636B6574205B544F4153545D002E0D0A0D0A0044455649434520494E464F0D0A0049443A2025640D0A000D0A4D454194
:40270000535552454D454E545320494E464F0D0A0053656E736F722076616C75653A0D0A002564202D3E202564004261747465727920566F6C7461676520286D56293A2050
:40274000256C640046756C6C2063686172676520706F7765722074656E73696F6E20286D56293A20256C64000D0A44455649434520504152414D45544552530D0A00496EAE
:40278000707574206D6F64653A205553420D0A00496E707574206D6F64653A2048616E646C650D0A00496E707574206D6F64653A20454D472070726F706F7274696F6E6129
:4027C0006C0D0A00496E707574206D6F64653A20454D4720696E74656772616C0D0A00496E707574206D6F64653A20454D4720464346530D0A00496E707574206D6F64658B
:402800003A20454D472046434653204144560D0A00496E707574206D6F64653A204A6F79737469636B0D0A004D6F746F722D48616E646C6520526174696F3A2025640D0AD8
:402840000053656E736F72207265736F6C7574696F6E3A0D0A004D6561737572656D656E74204F66667365743A0D0A002564202D3E20256C64004D6561737572656D656E80
:4028800074204D756C7469706C6965723A0D0A002564202D3E20256600506F736974696F6E206C696D6974206163746976653A20256400506F736974696F6E206C696D691A
:4028C00074206D6F746F722025643A20696E66202D3E20256C64202000737570202D3E20256C640D0A004D6178207374657020706F7320616E64206E65673A20256420259B
:4029000064004A6F79737469636B20636C6F737572652073706565643A202564004A6F79737469636B206761696E3A2025687500454D47207468726573686F6C6473205B93
:4029400030202D20313032345D3A2025752C20257500454D47206D61782076616C756573205B30202D20343039365D3A20256C752C20256C750043616C6962726174696FD9
:402980006E20656E61626C65643A205945530D0A0043616C6962726174696F6E20656E61626C65643A204E4F0D0A00454D47206D61782073706565643A202564005265737E
:4029C000742074696D652064656C617920286D73293A20256400526573742076656C6F6369747920636C6F7375726520287469636B732F736563293A20256400526573746D
:402A000020706F736974696F6E3A202564004D796F656C65637472696320636173652032204D61737465723A205945530D0A004D796F656C65637472696320636173652046
:402A400032204D61737465723A204E4F0D0A004D6173746572207769746820466F726365206465766963653A205945530D0A004D6173746572207769746820466F726365EA
:402A8000206465766963653A204E4F0D0A004D617374657220776974682050726F7072696F63657074697665206465766963653A205945530D0A004D6173746572207769D7
:402AC00074682050726F7072696F63657074697665206465766963653A204E4F0D0A004D6173746572207769746820566962726F74616374696C65206465766963653A2027
:402B00005945530D0A004D6173746572207769746820566962726F74616374696C65206465766963653A204E4F0D0A00494D5573206F6E20536F667448616E642F457874AD
:402B400065726E616C202D204C6173742052656164696E67733A200D0A0009494D55206E2E202564292025662025662025660D0A004D6173746572204D6F64652061637481
:402B8000697665206E6F773A205945530D0A004D6173746572204D6F646520616374697665206E6F773A204E4F0D0A0064656275673A20256C640000000000000000000076
:402BC00000000000000000000000000000000000000000000000000000000000000000000000000000000000000000000000000000000000000000000000000000000000D5
:402C00000000000000000000000000000000000000000000000000000000000000000000000000000000000000000000000000000000000000000000000000000000000094
:402C40000000000000000000000000000000000000000000000000000000000000000000000000000000000000000000000000000000000000000000000000000000000054
:402C80000000000000000000000000000000000000000000000000000000000000000000000000000000000000000000000000000000000000000000000000000000000014
:403AC0000000000000000000000000000000000000000000000000000000000000000000000000000000000000000000000000000000000031202D2044657669636520496F
:403B0000443A0032202D20496E707574206D6F64653A0000000000000000000000000000000000000033202D205265736F6C7574696F6E733A0034202D204D6561737572CA
:403B4000656D656E74204F6666736574733A0035202D204D756C7469706C696572733A0036202D20506F732E206C696D6974206163746976653A000000000037202D205076
:403B80006F732E206C696D697473205B696E662C207375705D3A0038202D204D6178207374657073205B6E65672C20706F735D3A0039202D20454D472063616C69627261DF
:403BC00074696F6E206F6E20737461727475703A00000000003130202D20454D47207468726573686F6C64733A003131202D20454D47206D61782076616C7565733A003137
:403C000032202D20454D47206D61782073706565643A003133202D204D6F746F722068616E646C6520726174696F3A003134202D204A6F79737469636B20636C6F7375727A
:403C4000652073706565643A003135202D204A6F79737469636B206761696E3A003136202D204D796F656C65637472696320636173652032204D61737465723A0000000030
:403C8000003137202D205265737420706F736974696F6E20666C61673A00000000003138202D205265737420706F736974696F6E3A003139202D205265737420706F736975
:403CC00074696F6E2074696D652064656C617920283E3130206D73293A003230202D20526573742076656C20636C6F7375726520287469636B732F736563293A003231201B
:403D00002D2043757272656E742070726F706F7274696F6E616C206761696E2028666F726365293A003232202D2043757272656E7420646966666572656E6365207361744A
:403D400075726174696F6E2028666F726365293A003233202D2043757272656E742064656164207A6F6E652028666F726365293A003234202D204D617820736C6964652044
:403D80006D6F76656D656E74202870726F7072696F293A003235202D204D617820536F667448616E6420636C6F73757265202870726F7072696F293A003236202D204D615B
:403DC00073746572207769746820466F726365206465766963653A00000000003237202D204D617374657220776974682050726F7072696F632E206465766963653A0000CC
:403E00000000003238202D204D6173746572207769746820566962726F54206465766963653A00000000003239202D20536F667448616E642049443A003330202D20466FC8
:403E4000726365206465766963652049443A003331202D2050726F7072696F63657074697665206465766963652049443A003332202D2041726D20736964653A000000007D
:403E800000000030202D3E205573620A31202D3E2048616E646C650A32202D3E20454D472070726F702E0A33202D3E20454D4720496E7465672E0A34202D3E20454D472014
:403EC000464346530A35202D3E20454D472046434653204164762E0A36202D3E204A6F79737469636B0A0030202D3E2052696768740A31202D3E204C6566740A0030202D1C
:403F00003E2044656163746976617465205B4E4F5D0A31202D3E204163746976617465205B5945535D0A00900037EEF0A3EFF078397C007D017BFF7A3279BF7E087F35124E
:403F40006F2B90086E7408F0A37435F078757C087D017BFF7A3A79F47E007F0F126F2B78847C087D017BFF7A3B79037E007F22126F2B78A67C087D017BFF7A3B79257E00D8
:403F80007F11126F2B78B77C087D017BFF7A3B79367E007F19126F2B78D07C087D017BFF7A3B794F7E007F11126F2B78E17C087D017BFF7A3B79607E007F1B126F2B78FC5E
:403FC0007C087D017BFF7A3B797B7E007F1C126F2B78187C097D017BFF7A3B79977E007F1A126F2B78327C097D017BFF7A3B79B17E007F24126F2B78567C097D017BFF7AAA
:404000003B79D57E007F15126F2B786B7C097D017BFF7A3B79EA7E007F15126F2B78807C097D017BFF7A3B79FF7E007F14126F2B78947C097D017BFF7A3C79137E007F19C3
:40404000126F2B78AD7C097D017BFF7A3C792C7E007F1D126F2B78CA7C097D017BFF7A3C79497E007F14126F2B78DE7C097D017BFF7A3C795D7E007F24126F2B78027C0AB1
:404080007D017BFF7A3C79817E007F1D126F2B781F7C0A7D017BFF7A3C799E7E007F14126F2B78337C0A7D017BFF7A3C79B27E007F28126F2B785B7C0A7D017BFF7A3C7998
:4040C000DA7E007F23126F2B787E7C0A7D017BFF7A3C79FD7E007F28126F2B78A67C0A7D017BFF7A3D79257E007F2C126F2B78D27C0A7D017BFF7A3D79517E007F20126FFC
:404100002B78F27C0A7D017BFF7A3D79717E007F23126F2B78157C0B7D017BFF7A3D79947E007F25126F2B783A7C0B7D017BFF7A3D79B97E007F23126F2B785D7C0B7D01A1
:404140007BFF7A3D79DC7E007F27126F2B78847C0B7D017BFF7A3E79037E007F24126F2B78A87C0B7D017BFF7A3E79277E007F12126F2B78BA7C0B7D017BFF7A3E79397E22
:40418000007F16126F2B78D07C0B7D017BFF7A3E794F7E007F1F126F2B78EF7C0B7D017BFF7A3E796E7E007F15126F2B78047C0C7D017BFF7A3E79837E007F64126F2B7837
:4041C000687C0C7D017BFF7A3E79E77E007F16126F2B787E7C0C7D017BFF7A3E79FD7E007F2A126F2B7B017A08797512C4268F2D7B017A0879A612C4268F2E7B017A087998
:40420000B712C4268F2F7B017A0879D012C4268F307B017A0879FC12C4268F317B017A09791812C4268F327B017A09795612C4268F337B017A09796B12C4268F347B017A6B
:4042400009798012C4268F357B017A09799412C4268F367B017A0979AD12C4268F377B017A0979CA12C4268F387B017A0A791F12C4268F397B017A0A793312C4268F3A7B7B
:40428000017A0A795B12C4268F3B7B017A0A797E12C4268F3C7B017A0A79A612C4268F3D7B017A0A79D212C4268F3E7B017A0A79F212C4268F3F7B017A0B791512C4268FD7
:4042C000407B017A0B79A812C4268F417B017A0B79BA12C4268F427B017A0B79D012C4268F437B017A0C790412C4268F447B017A0C796812C4268F457B017A0C797E12C4A7
:40430000268F46900039740CF0A37420F0900037E0FEA3E0FFEE6003025717EFB42100400302571790432BF828287302438E0252CB0252D40252DD0253080253860253C36F
:404340000253CC0254A202552802553102555002557902558202558B02559B0255AB0255C20255CB0255FD02563B02565002566502567502568502569A0256AF0256C602AD
:4043800056DD0256F40256FD02570602570F90003B7402F0A314F0900CB2E090003DF0852D2BE52B6032FFC3E52D9FFFE49400FE74752FF58274083EF583E0FFE52BFDE5A6
:4043C0002DC39DFDE49400FC743E2DF58274003CF583EFF0152B80CAE490006DF0A304F0900CB3E090006FF0900CB3B4070040030244D39043FAF828287302440F02442C9D
:4044000002444902446502448102449D0244B9900CAB74FFF0A37426F0A3741AF07B017A08798412B84F752C140244D3900CAB74FFF0A37426F0A37420F07B017A087984C6
:4044400012B84F752C170244D3900CAB74FFF0A37426F0A37429F07B017A08798412B84F752C21806E900CAB74FFF0A37426F0A3743CF07B017A08798412B84F752C1D801B
:4044800052900CAB74FFF0A37426F0A3744BF07B017A08798412B84F752C198036900CAB74FFF0A37426F0A37456F07B017A08798412B84F752C22801A900CAB74FFF0A30B
:4044C0007426F0A3746AF07B017A08798412B84F752C19852C2BE52B6032FFC3E52C9FFFE49400FE74842FF58274083EF583E0FFE52BFDE52CC39DFDE49400FC74702DF5EA
:404500008274003CF583EFF0152B80CA7470252CF582E43400F5837401F090009F04F0A304F0E4F52BE52BC39403501E74B4252BF582E4340CF583E0FF74A1252BF582E407
:404540003400F583EFF0052B80DB852E2BE52B6032FFC3E52E9FFFE49400FE74A62FF58274083EF583E0FFE52BFDE52EC39DFDE49400FC74A42DF58274003CF583EFF01522
:404580002B80CA9000D17403F0A3F0E4F52BE52BC394035044E52B25E025E024B7F582E4340CF583E0FCA3E0FDA3E0FEA3E0FF74B4252BF582E4340CF583E0F9F8126D5F88
:4045C00075F002E52BA424D3F582E5F03400F583EEF0A3EFF0052B80B5852F2BE52B6032FFC3E52F9FFFE49400FE74B72FF58274083EF583E0FFE52BFDE52FC39DFDE494A9
:4046000000FC74D92DF58274003CF583EFF0152B80CA9001037407F0A37403F0E4F52BE52BC394035031E52B25E025E024C3F582E4340CF583E0FCA3E0FDA3E0FEA3E0FF91
:4046400075F004E52BA42405F582E5F03401F583126DC0052B80C885302BE52B6032FFC3E5309FFFE49400FE74D02FF58274083EF583E0FFE52BFDE530C39DFDE49400FCE9
:4046800074112DF58274013CF583EFF0152B80CAE4900135F0A304F0900CCFE0900137F0900CCF601C900CAB74FFF0A37426F0A37475F07B017A0879E112B84F752C1B8024
:4046C0001A900CAB74FFF0A37426F0A3747BF07B017A0879E112B84F752C1A852C2BE52B6032FFC3E52C9FFFE49400FE74E12FF58274083EF583E0FFE52BFDE52CC39DFD2F
:40470000E49400FC74382DF58274013CF583EFF0152B80CA7438252CF582E43401F5837403F09001677405F0A37402F0E4F52BE52BC3940140030247BAE52B25E025E0245D
:40474000D0F582E4340CF583E0FCA3E0FDA3E0FEA3E0FF74B4252BF582E4340CF583E0F9F8126D5F75F008E52BA42469F582E5F03401F583126DC0E52B25E025E024D8F5CC
:4047800082E4340CF583E0FCA3E0FDA3E0FEA3E0FF74B4252BF582E4340CF583E0F9F8126D5F75F008E52BA4246DF582E5F03401F583126DC0052B02472F85312BE52B605F
:4047C00032FFC3E5319FFFE49400FE74FC2FF58274083EF583E0FFE52BFDE531C39DFDE49400FC74712DF58274013CF583EFF0152B80CA9001997405F0A37402F0900CE449
:40480000E0FCA3E0FDA3E0FEA3E0FF90019B126DC0900CE0E0FCA3E0FDA3E0FEA3E0FF90019F126DC085322BE52B6032FFC3E5329FFFE49400FE74182FF58274093EF5838E
:40484000E0FFE52BFDE532C39DFDE49400FC74A32DF58274013CF583EFF0152B80CAE49001CBF0A304F0900CECE09001CDF0900CEC601C900CAB74FFF0A37426F0A3747533
:40488000F07B017A09793212B84F752C24801A900CAB74FFF0A37426F0A3747BF07B017A09793212B84F752C23852C2BE52B6032FFC3E52C9FFFE49400FE74322FF58274E1
:4048C000093EF583E0FFE52BFDE52CC39DFDE49400FC74CE2DF58274013CF583EFF0152B80CA74CE252CF582E43401F5837403F09001FD04F0A37402F0900CE8E0FFA3E040
:404900009001FFCFF0A3EFF0900CEAE0FFA3E0900201CFF0A3EFF085332BE52B6032FFC3E5339FFFE49400FE74562FF58274093EF583E0FFE52BFDE533C39DFDE49400FCFF
:4049400074032DF58274023CF583EFF0152B80CA90022F7406F0A37402F0900CEDE0FCA3E0FDA3E0FEA3E0FF900231126DC0900CF1E0FCA3E0FDA3E0FEA3E0FF90023512A6
:404980006DC085342BE52B6032FFC3E5349FFFE49400FE746B2FF58274093EF583E0FFE52BFDE534C39DFDE49400FC74392DF58274023CF583EFF0152B80CA90026174027A
:4049C000F0A314F0900CF5E0900263F085352BE52B6032FFC3E5359FFFE49400FE74802FF58274093EF583E0FFE52BFDE535C39DFDE49400FC74642DF58274023CF583EF1A
:404A0000F0152B80CA9002937401F0A3F0900CF6E0900295F085362BE52B6032FFC3E5369FFFE49400FE74942FF58274093EF583E0FFE52BFDE536C39DFDE49400FC74961A
:404A40002DF58274023CF583EFF0152B80CA9002C57404F0A37401F0900D1DE0FFA3E09002C7CFF0A3EFF085372BE52B6032FFC3E5379FFFE49400FE74AD2FF58274093E85
:404A8000F583E0FFE52BFDE537C39DFDE49400FC74C92DF58274023CF583EFF0152B80CA9002F77404F0A37401F0900D1FE0FFA3E09002F9CFF0A3EFF085382BE52B6032C4
:404AC000FFC3E5389FFFE49400FE74CA2FF58274093EF583E0FFE52BFDE538C39DFDE49400FC74FB2DF58274023CF583EFF0152B80CAE4900329F0A304F0900D08E09003ED
:404B00002BF0900D08601C900CAB74FFF0A37426F0A37475F07B017A0979DE12B84F752C24801A900CAB74FFF0A37426F0A3747BF07B017A0979DE12B84F752C23852C2BB0
:404B4000E52B6032FFC3E52C9FFFE49400FE74DE2FF58274093EF583E0FFE52BFDE52CC39DFDE49400FC742C2DF58274033CF583EFF0152B80CA742C252CF582E43403F563
:404B8000837403F0E490035BF0A304F0900CF8E090035DF0900CF8601C900CAB74FFF0A37426F0A37475F07B017A0A790212B84F752C1D801A900CAB74FFF0A37426F0A395
:404BC000747BF07B017A0A790212B84F752C1C852C2BE52B6032FFC3E52C9FFFE49400FE74022FF582740A3EF583E0FFE52BFDE52CC39DFDE49400FC745E2DF58274033CD9
:404C0000F583EFF0152B80CA745E252CF582E43403F5837403F090038D7405F0A37401F0900CF9E0FCA3E0FDA3E0FEA3E0FF900CB4E0F9F8126D5F90038F126DC085392B31
:404C4000E52B6032FFC3E5399FFFE49400FE741F2FF582740A3EF583E0FFE52BFDE539C39DFDE49400FC74932DF58274033CF583EFF0152B80CA9003BF7405F0A37401F054
:404C8000900CFDE0FCA3E0FDA3E0FEA3E0FF9003C1126DC0853A2BE52B6032FFC3E53A9FFFE49400FE74332FF582740A3EF583E0FFE52BFDE53AC39DFDE49400FC74C52D25
:404CC000F58274033CF583EFF0152B80CA9003F17405F0A37401F0900D01E0FCA3E0FDA3E0FEA3E0FF9003F3126DC0853B2BE52B6032FFC3E53B9FFFE49400FE745B2FF57C
:404D000082740A3EF583E0FFE52BFDE53BC39DFDE49400FC74F72DF58274033CF583EFF0152B80CA9004237407F0A37401F0900D09E0FCA3E0FDA3E0FEA3E0FF9004251243
:404D40006DC0853C2BE52B6032FFC3E53C9FFFE49400FE747E2FF582740A3EF583E0FFE52BFDE53CC39DFDE49400FC74292DF58274043CF583EFF0152B80CA9004557403A1
:404D8000F0A37401F0900D0DE0FFA3E0900457CFF0A3EFF0853D2BE52B6032FFC3E53D9FFFE49400FE74A62FF582740A3EF583E0FFE52BFDE53DC39DFDE49400FC74592D6F
:404DC000F58274043CF583EFF0152B80CA9004877403F0A37401F0900D0FE0FFA3E0900489CFF0A3EFF0853E2BE52B6032FFC3E53E9FFFE49400FE74D22FF582740A3EF58B
:404E000083E0FFE52BFDE53EC39DFDE49400FC748B2DF58274043CF583EFF0152B80CA9004B97405F0A37401F0900D11E0FCA3E0FDA3E0FEA3E0FF9004BB126DC0853F2B8F
:404E4000E52B6032FFC3E53F9FFFE49400FE74F22FF582740A3EF583E0FFE52BFDE53FC39DFDE49400FC74BF2DF58274043CF583EFF0152B80CA9004EB7405F0A37401F019
:404E8000900D15E0FCA3E0FDA3E0FEA3E0FF9004ED126DC085402BE52B6032FFC3E5409FFFE49400FE74152FF582740B3EF583E0FFE52BFDE540C39DFDE49400FC74F12DBC
:404EC000F58274043CF583EFF0152B80CAE490051DF0A304F0900D05E090051FF0900D05601C900CAB74FFF0A37426F0A37475F07B017A0B793A12B84F752C23801A900C2B
:404F0000AB74FFF0A37426F0A3747BF07B017A0B793A12B84F752C22852C2BE52B6032FFC3E52C9FFFE49400FE743A2FF582740B3EF583E0FFE52BFDE52CC39DFDE4940064
:404F4000FC74202DF58274053CF583EFF0152B80CA7420252CF582E43405F5837403F0E490054FF0A304F0900D06E0900551F0900D06601C900CAB74FFF0A37426F0A3745A
:404F800075F07B017A0B795D12B84F752C27801A900CAB74FFF0A37426F0A3747BF07B017A0B795D12B84F752C26852C2BE52B6032FFC3E52C9FFFE49400FE745D2FF5824E
:404FC000740B3EF583E0FFE52BFDE52CC39DFDE49400FC74522DF58274053CF583EFF0152B80CA7452252CF582E43405F5837403F0E4900581F0A304F0900D07E090058307
:40500000F0900D07601C900CAB74FFF0A37426F0A37475F07B017A0B798412B84F752C24801A900CAB74FFF0A37426F0A3747BF07B017A0B798412B84F752C23852C2BE5A2
:405040002B6032FFC3E52C9FFFE49400FE74842FF582740B3EF583E0FFE52BFDE52CC39DFDE49400FC74842DF58274053CF583EFF0152B80CA7484252CF582E43405F58364
:405080007403F09005B314F0A314F0900D19E09005B5F085412BE52B6032FFC3E5419FFFE49400FE74A82FF582740B3EF583E0FFE52BFDE541C39DFDE49400FC74B62DF511
:4050C0008274053CF583EFF0152B80CA9005E57402F0A314F0900D1AE09005E7F085422BE52B6032FFC3E5429FFFE49400FE74BA2FF582740B3EF583E0FFE52BFDE542C39E
:405100009DFDE49400FC74E82DF58274053CF583EFF0152B80CA9006177402F0A314F0900D1BE0900619F085432BE52B6032FFC3E5439FFFE49400FE74D02FF582740B3EA0
:40514000F583E0FFE52BFDE543C39DFDE49400FC741A2DF58274063CF583EFF0152B80CAE4900649F0A304F0900D1CE090064BF0900D1C601C900CAB74FFF0A37426F0A3A6
:405180007480F07B017A0B79EF12B84F752C14801A900CAB74FFF0A37426F0A37487F07B017A0B79EF12B84F752C15852C2BE52B6032FFC3E52C9FFFE49400FE74EF2FF5B1
:4051C00082740B3EF583E0FFE52BFDE52CC39DFDE49400FC744C2DF58274063CF583EFF0152B80CA744C252CF582E43406F5837402F085442BE52B6032FFC3E5449FFFE4A8
:405200009400FE74042FF582740C3EF583E0FFE52BFDE544C39DFDE49400FC747B2DF58274063CF583EFF0152B80CA85452BE52B6032FFC3E5459FFFE49400FE74682FF5E1
:4052400082740C3EF583E0FFE52BFDE545C39DFDE49400FC74112DF58274073CF583EFF0152B80CA85462BE52B6032FFC3E5469FFFE49400FE747E2FF582740C3EF583E087
:40528000FFE52BFDE546C39DFDE49400FC74A72DF58274073CF583EFF0152B80CA7B017A00793990086EE0A3E014FD12BFCE90086EE0FCA3E0FD2438F58274003CF583EF82
:4052C000F07B017A00793912B26022900DEAE0900D2FF022900DEAE0900D30F022E4F52BE52BC39403400302571774EA252BF582E4340DF583E0FF7431252BF582E4340DF2
:40530000F583EFF0052B80D8E4F52BE52BC394035071E52B25E024EAF582E4340DF583E0FEA3E0FFEE3395E0FDFCE52B25E025E02434F582E4340DF583126DC0E52B25E05F
:4053400025E02434F582E4340DF583C083C082E0FCA3E0FDA3E0FEA3E0FF7431252BF582E4340DF583E0F9F8126D73D082D083126DC074B4252BF582E4340EF583E4F005C2
:405380002B8088D20A22E4F52BE52BC394034003025717E52B25E025E024EAF582E4340DF583E0FCA3E0FDA3E0FEA3E0FFE52B25E025E02440F582E4340DF583126DC0052A
:4053C0002B80C6900DEAE0900D4CF022E4F52BE52BC394024003025717E52B75F008A424EAF582E4340DF583E0FCA3E0FDA3E0FEA3E0FFE52B25E025E0244DF582E4340DF1
:40540000F583126DC0E52B75F008A424EEF582E4340DF583E0FCA3E0FDA3E0FEA3E0FFE52B25E025E02455F582E4340DF583126DC0E52B25E025E0244DF582E4340DF5838A
:40544000C083C082E0FCA3E0FDA3E0FEA3E0FF7431252BF582E4340DF583E0F9F8126D73D082D083126DC0E52B25E025E02455F582E4340DF583C083C082E0FCA3E0FDA36D
:40548000E0FEA3E0FF7431252BF582E4340DF583E0F9F8126D73D082D083126DC0052B0253CF900DEAE0FCA3E0FDA3E0FEA3E0FF900870126DC0E4FFFEFDFC900870E0F8A1
:4054C000A3E0F9A3E0FAA3E0FBD3126D255014900870E0FCA3E0FDA3E0FEA3E0FF900D61126DC0900DEEE0FCA3E0FDA3E0FEA3E0FF900870126DC0E4FFFEFDFC900870E0C3
:40550000F8A3E0F9A3E0FAA3E0FBC3126D255003025717900870E0FCA3E0FDA3E0FEA3E0FF900D5D126DC022900DEAE0900D69F022900DEAE0FFA3E0900D65CFF0A3EFF065
:40554000900DECE0FFA3E0900D67CFF0A3EFF022900DEAE0FCA3E0FDA3E0FEA3E0FF900D6A126DC0900DEEE0FCA3E0FDA3E0FEA3E0FF900D6E126DC022900DEAE0900D72E1
:40558000F022900DEAE0900D73F022900DEAE0FFA3E0900D9ACFF0A3EFF022900DEAE0FFA3E0900D9CCFF0A3EFF022900DEAE0900874F06007900D857401F022E4900D85CF
:4055C000F022900DEAE0900D75F022900DEAE0FCA3E0FDA3E0FEA3E0FF900D76126DC0900D76E0FCA3E0FDA3E0FEA3E0FF900D31E0F9F8126D73900D76126DC022900DEAD8
:40560000E0FCA3E0FDA3E0FEA3E0FF900D7A126DC0E47F0AFEFDFC900D7AE0F8A3E0F9A3E0FAA3E0FBC3126D254003025717E47F0AFEFDFC900D7A126DC022900DEAE0FC92
:40564000A3E0FDA3E0FEA3E0FF900D7E126DC022900DEAE0FCA3E0FDA3E0FEA3E0FF900D86126DC022900DEAE0FFA3E0900D8ACFF0A3EFF022900DEAE0FFA3E0900D8CCF6D
:40568000F0A3EFF022900DEAE0FCA3E0FDA3E0FEA3E0FF900D8E126DC022900DEAE0FCA3E0FDA3E0FEA3E0FF900D92126DC022900DEAE0900874F06007900D827401F022FE
:4056C000E4900D82F022900DEAE0900874F06007900D837401F022E4900D83F022900DEAE0900874F06007900D847401F022E4900D84F022900DEAE0900D96F022900DEA52
:40570000E0900D97F022900DEAE0900D98F022900DEAE0900D99F022900741EBF0A3EAF0A3E9F0900CB2E064FA70030265ED900741E0FBA3E0FAA3E0F8AC02AD037BFF7AEA
:4057400026798F127009900CAB74FFF0A37426F0A37490F0900741E0FBA3E0FAA3E0F912B84F900CAB74FFF0A37426F0A37493F0900741E0FBA3E0FAA3E0F912B84F900C6B
:40578000AB74FFF0A37426F0A374A6F0900741E0FBA3E0FAA3E0F912B84F900CAB74FFF0A37426F0A374DEF0900741E0FBA3E0FAA3E0F912B84F900CAB74FFF0A37426F0E4
:4057C000A374E4F0900741E0FBA3E0FAA3E0F912B84F9007AD74FFF0A37426F0A374F2F0900CB2E0FF9007B0E4F0A3EFF07B017A077946128726900CAB7401F0A37407F02D
:40580000A37446F0900741E0FBA3E0FAA3E0F912B84F900CAB74FFF0A37426F0A374FBF0900741E0FBA3E0FAA3E0F912B84F900CAB74FFF0A37427F0A37411F0900741E010
:40584000FBA3E0FAA3E0F912B84FE4900744F0A3F0C3900745E09403900744E06480948040030259179007AD74FFF0A37427F0A37421F0900744E0FCA3E0FD2401FEE43CE4
:405880009007B0F0A3CEF0EDAE047802C333CE33CED8F924A8F582740E3EF583E0FCA3E0FDA3E0FEA3E0FF900744E0FAA3E024B4F582740C3AF583E0F9F8126D5F9007B216
:4058C000EEF0A3EFF07B017A077946128726900CAB7401F0A37407F0A37446F0900741E0FBA3E0FAA3E0F912B84F900CAB74FFF0A37426F0A37490F0900741E0FBA3E0FA63
:40590000A3E0F912B84F900745E004F07006900744E004F00258519007AD74FFF0A37427F0A3742AF0900DDBE0FCA3E0FDA3E0FEA3E0FF9007B0126DC07B017A0779461221
:405940008726900CAB7401F0A37407F0A37446F0900741E0FBA3E0FAA3E0F912B84F900CAB74FFF0A37426F0A37490F0900741E0FBA3E0FAA3E0F912B84F9007AD74FFF0D4
:40598000A37427F0A37444F0900E78E0FCA3E0FDA3E0FEA3E0FF9007B0126DC07B017A077946128726900CAB7401F0A37407F0A37446F0900741E0FBA3E0FAA3E0F912B87B
:4059C0004F900CAB74FFF0A37426F0A37490F0900741E0FBA3E0FAA3E0F912B84F900CAB74FFF0A37427F0A37468F0900741E0FBA3E0FAA3E0F912B84F900CB3E0B407002F
:405A00004003025AF3905A0CF8282873025A21025A40025A5F025A7D025A9B025AB9025AD7900CAB74FFF0A37427F0A3747EF0900741E0FBA3E0FAA3E0F912B84F025AF3C6
:405A4000900CAB74FFF0A37427F0A37490F0900741E0FBA3E0FAA3E0F912B84F025AF3900CAB74FFF0A37427F0A374A5F0900741E0FBA3E0FAA3E0F912B84F8076900CAB1D
:405A800074FFF0A37427F0A374C4F0900741E0FBA3E0FAA3E0F912B84F8058900CAB74FFF0A37427F0A374DFF0900741E0FBA3E0FAA3E0F912B84F803A900CAB74FFF0A363
:405AC0007427F0A374F6F0900741E0FBA3E0FAA3E0F912B84F801C900CAB74FFF0A37428F0A37411F0900741E0FBA3E0FAA3E0F912B84F9007AD74FFF0A37428F0A37428F2
:405B0000F0900CF6E0FE3395E09007B0F0A3CEF07B017A077946128726900CAB7401F0A37407F0A37446F0900741E0FBA3E0FAA3E0F912B84F900CAB74FFF0A37428F0A302
:405B40007441F0900741E0FBA3E0FAA3E0F912B84FE4900744F0A3F0C3900745E09403900744E0648094804003025BF49007AD74FFF0A37427F0A37421F0900744E0FCA3C5
:405B8000E0FD2401FEE43C9007B0F0A3CEF074B42DF582740C3CF583E0FF9007B2E4F0A3EFF07B017A077946128726900CAB7401F0A37407F0A37446F0900741E0FBA3E0F7
:405BC000FAA3E0F912B84F900CAB74FFF0A37426F0A37490F0900741E0FBA3E0FAA3E0F912B84F900745E004F07006900744E004F0025B58900CAB74FFF0A37428F0A37469
:405C000056F0900741E0FBA3E0FAA3E0F912B84FE4900744F0A3F0C3900745E09403900744E0648094804003025CDB9007AD74FFF0A37428F0A3746CF0900744E0FCA3E04F
:405C4000FD2401FEE43C9007B0F0A3CEF0EDAE047802C333CE33CED8F924B7F582740C3EF583E0FCA3E0FDA3E0FEA3E0FF900744E0FAA3E024B4F582740C3AF583E0F9F82C
:405C8000126D5F9007B2126DC07B017A077946128726900CAB7401F0A37407F0A37446F0900741E0FBA3E0FAA3E0F912B84F900CAB74FFF0A37426F0A37490F0900741E011
:405CC000FBA3E0FAA3E0F912B84F900745E004F07006900744E004F0025C17900CAB74FFF0A37428F0A37476F0900741E0FBA3E0FAA3E0F912B84FE4900744F0A3F0C3909D
:405D00000745E09403900744E0648094804003025DAC9007AD74FFF0A37428F0A37490F0900744E0FCA3E0FD2401FEE43C9007B0F0A3CEF0EDAE047802C333CE33CED8F971
:405D400024C3F582740C3EF583E0FCA3E0FDA3E0FEA3E0FF9007B2126DC07B017A077946128726900CAB7401F0A37407F0A37446F0900741E0FBA3E0FAA3E0F912B84F90D1
:405D80000CAB74FFF0A37426F0A37490F0900741E0FBA3E0FAA3E0F912B84F900745E004F07006900744E004F0025CFE9007AD74FFF0A37428F0A37499F0900D4CE0FF9041
:405DC00007B0E4F0A3EFF07B017A077946128726900CAB7401F0A37407F0A37446F0900741E0FBA3E0FAA3E0F912B84F900CAB74FFF0A37426F0A37490F0900741E0FBA38B
:405E0000E0FAA3E0F912B84FE4900744F0A3F0C3900745E09401900744E0648094804003025F279007AD74FFF0A37428F0A374B3F0900744E0FCA3E0FD2401FEE43C90077E
:405E4000B0F0A3CEF0EDAE047802C333CE33CED8F9244DF582740D3EF583E0FCA3E0FDA3E0FEA3E0FF900744E0FAA3E02431F582740D3AF583E0F9F8126D5F9007B2126D46
:405E8000C07B017A077946128726900CAB7401F0A37407F0A37446F0900741E0FBA3E0FAA3E0F912B84F9007AD74FFF0A37428F0A374D9F0900744E0FAA3E0FBAE027802C8
:405EC000C333CE33CED8F92455F582740D3EF583E0FCA3E0FDA3E0FEA3E0FF74312BF582740D3AF583E0F9F8126D5F9007B0126DC07B017A077946128726900CAB7401F0B0
:405F0000A37407F0A37446F0900741E0FBA3E0FAA3E0F912B84F900745E004F07006900744E004F0025E0F9007AD74FFF0A37428F0A374E6F0900D5DE0A3E0A3E0FFA3E0D8
:405F40009007B0CFF0A3EFF0900D61E0A3E0A3E0FFA3E09007B2CFF0A3EFF07B017A077946128726900CAB7401F0A37407F0A37446F0900741E0FBA3E0FAA3E0F912B84F62
:405F8000900CAB74FFF0A37426F0A37490F0900741E0FBA3E0FAA3E0F912B84F9007AD74FFF0A37429F0A37402F0900D1DE0FFA3E09007B0CFF0A3EFF07B017A077946125C
:405FC0008726900CAB7401F0A37407F0A37446F0900741E0FBA3E0FAA3E0F912B84F900CAB74FFF0A37426F0A37490F0900741E0FBA3E0FAA3E0F912B84F9007AD74FFF04E
:40600000A37429F0A3741DF0900D1FE0FFA3E09007B0CFF0A3EFF07B017A077946128726900CAB7401F0A37407F0A37446F0900741E0FBA3E0FAA3E0F912B84F900CAB7464
:40604000FFF0A37426F0A37490F0900741E0FBA3E0FAA3E0F912B84F9007AD74FFF0A37429F0A37430F0900D65E0FFA3E09007B0CFF0A3EFF0900D67E0FFA3E09007B2CF30
:40608000F0A3EFF07B017A077946128726900CAB7401F0A37407F0A37446F0900741E0FBA3E0FAA3E0F912B84F900CAB74FFF0A37426F0A37490F0900741E0FBA3E0FAA3E6
:4060C000E0F912B84F9007AD74FFF0A37429F0A37452F0900D6AE0FCA3E0FDA3E0FEA3E0FF9007B0126DC0900D6EE0FCA3E0FDA3E0FEA3E0FF9007B4126DC07B017A077928
:4061000046128726900CAB7401F0A37407F0A37446F0900741E0FBA3E0FAA3E0F912B84F900CAB74FFF0A37426F0A37490F0900741E0FBA3E0FAA3E0F912B84F900D69E075
:40614000601E900CAB74FFF0A37429F0A37476F0900741E0FBA3E0FAA3E0F912B84F801C900CAB74FFF0A37429F0A37491F0900741E0FBA3E0FAA3E0F912B84F9007AD74FA
:40618000FFF0A37429F0A374ABF0900D72E0FF9007B0E4F0A3EFF07B017A077946128726900CAB7401F0A37407F0A37446F0900741E0FBA3E0FAA3E0F912B84F900CAB7481
:4061C000FFF0A37426F0A37490F0900741E0FBA3E0FAA3E0F912B84F9007AD74FFF0A37429F0A374BDF0900D7AE0A3E0A3E0FFA3E09007B0CFF0A3EFF07B017A07794612B7
:406200008726900CAB7401F0A37407F0A37446F0900741E0FBA3E0FAA3E0F912B84F900CAB74FFF0A37426F0A37490F0900741E0FBA3E0FAA3E0F912B84F9007AD74FFF00B
:40624000A37429F0A374D6F0900D7EE0A3E0A3E0FFA3E09007B0CFF0A3EFF07B017A077946128726900CAB7401F0A37407F0A37446F0900741E0FBA3E0FAA3E0F912B84FBF
:40628000900CAB74FFF0A37426F0A37490F0900741E0FBA3E0FAA3E0F912B84F9007AD74FFF0A37429F0A374FCF0900D76E0FCA3E0FDA3E0FEA3E0FF900CB4E0F9F8126DBF
:4062C0005F9007B0EEF0A3EFF07B017A077946128726900CAB7401F0A37407F0A37446F0900741E0FBA3E0FAA3E0F912B84F900CAB74FFF0A37426F0A37490F0900741E02B
:40630000FBA3E0FAA3E0F912B84F900D85E0601E900CAB74FFF0A3742AF0A3740EF0900741E0FBA3E0FAA3E0F912B84F801C900CAB74FFF0A3742AF0A3742FF0900741E0B6
:40634000FBA3E0FAA3E0F912B84F900D82E0601E900CAB74FFF0A3742AF0A3744FF0900741E0FBA3E0FAA3E0F912B84F801C900CAB74FFF0A3742AF0A3746FF0900741E0F8
:40638000FBA3E0FAA3E0F912B84F900D83E0601E900CAB74FFF0A3742AF0A3748EF0900741E0FBA3E0FAA3E0F912B84F801C900CAB74FFF0A3742AF0A374B7F0900741E030
:4063C000FBA3E0FAA3E0F912B84F900D84E0601E900CAB74FFF0A3742AF0A374DFF0900741E0FBA3E0FAA3E0F912B84F801C900CAB74FFF0A3742BF0A37406F0900741E04E
:40640000FBA3E0FAA3E0F912B84F900D84E07003026531900CAB74FFF0A3742BF0A3742CF0900741E0FBA3E0FAA3E0F912B84FE4900744F0A3F0C3900745E094029007443D
:40644000E06480948040030265159007AD74FFF0A3742BF0A3745AF0900744E0FCA3E0FD2401FEE43C9007B0F0A3CEF0900E7C75F00CED126DCCEC75F00CA42583F583E075
:40648000FCA3E0FDA3E0FEA3E0FF9007B2126DC0900744E0FAA3E0FB900E8075F00C126DCCEA75F00CA42583F583E0FCA3E0FDA3E0FEA3E0FF9007B6126DC0900E8475F037
:4064C0000CEB126DCCEA75F00CA42583F583E0FCA3E0FDA3E0FEA3E0FF9007BA126DC07B017A077946128726900CAB7401F0A37407F0A37446F0900741E0FBA3E0FAA3E017
:40650000F912B84F900745E004F07006900744E004F0026436900CAB74FFF0A37426F0A37490F0900741E0FBA3E0FAA3E0F912B84F900DD2E0601E900CAB74FFF0A3742BEC
:40654000F0A37471F0900741E0FBA3E0FAA3E0F912B84F801C900CAB74FFF0A3742BF0A3748FF0900741E0FBA3E0FAA3E0F912B84F9007AD74FFF0A3742BF0A374ACF090FF
:406580000DD7E0F8A3E0F9A3E0FAA3E0FB900E94E0FCA3E0FDA3E0FEA3E0C39BFFEE9AFEED99FDEC98FC9007B0126DC07B017A077946128726900CAB7401F0A37407F0A3D2
:4065C0007446F0900741E0FBA3E0FAA3E0F912B84F900CAB74FFF0A37426F0A37490F0900741E0FBA3E0FAA3E0F912B84F220269AFE86480F8E933E83360110460F0ED33DD
:40660000EC337009E8FCE9FDEAFEEBFF220460DED3EB9FEA9EE99DE8C2E78CF0C2F795F0400CE8CCF8E9CDF9EACEFAEBCFFB12697A85D0F05804700320D5B3E8047007509A
:4066400002B2D50269B992D5EC0460F7E4CCC0E0C398F8603B94186008400DD0E0FB026991E4FBFAC9FC8028E830E406E4C9FBE4CAFCE830E305E4C9CACBFCE854076010EE
:40668000F8C3E913F9EA13FAEB13FBEC13FCD8F130F52FC3E49CFCEF9BFFEE9AFEED99FDD0E0FBEF4E4D4C701222DB030269B6EC2CFCEF33FFEE33FEED33FDED30E7EB02CB
:4066C0006991EF2BFFEE3AFEED39FDD0E0FB50130BBB00030269B9ED13FDEE13FEEF13FFEC13FC026991EC4D6011E8497017ED33EC3304600DE4FCFFFEFD22E933E8330406
:4067000070F80269AF12697A58046009E4CC248150062850090269B92840030269B6C0E0EB4A7044B98006D0E0FB0269A5EF4E701CBD8008EBFFEAFEE9FD80EBE98DF0A483
:40674000FEE5F00267CFE9CDF9EAFEEBFFEF89F0A4FCE5F0CE89F0A42EFFE435F0CD89F0A42DFEE435F08067EF4E7005BD80D780C3EF8BF0A4ACF0EE8BF0A42CFCE435F099
:40678000F8EF8AF0A42CE5F038FCE433CB8DF0A42CFCE5F03BF8EE8AF0A42CFCE5F038F8E433CF89F0A42CFCE5F038CF3400CE89F0A42FFFE5F03EFEE433C98DF0A42EFEA1
:4067C000E5F039CD8AF0A42FFFE5F03EFEE43DFD33D0E0FB50070BBB000F0269B9EC2CFCEF33FFEE33FEED33FD0269910269B9EC5D046005E8590470030269AF12697A58B3
:406800000460F6EC4860F2EC7004FDFEFF22C860DB2481C85009C398600250060269B69850CAF582E9294B4A7005AB820269A575F0007C1A7880C3EF9BEE9AED99400DC31F
:40684000EF9BFFEE9AFEED99FDE842F0DC23ACF0D0E0FFD0E0FED0E0FDAB8220E7101BEB60BAEC2CFCEF33FFEE33FEED33FD026991E803F830E705C0F075F000EF2FFFEED7
:4068800033FEED33FD40B830E7C280AA74F8CC6480CCC86480C8F58204604FC3EB9FF5F0EA9E42F0E99D42F0E89C45F0603C501DE5825FFFE582D313CB5BCBF42B5582FBAF
:4068C00050280ABA002409B9002008801DE5825BFBE582D313CF5FCFF4C3132F5582FF50090EBE00050DBD00010CC3EB9FF5F0EA9E42F0E99D42F0E89C45F06007CC4820E2
:40690000E701B3EC2275F020800E75F010800575F0087D007E007F003392D530D503126D17EC334010EF33FFEE33FEED33FDEC33FCD5F0ED22E5F0247EA2D513CC92E7CDB4
:40694000CEFF22EDD2E7CD33EC3392D524814006E4FFFEFDFC22FCE4CFCECDCC24E0501174FF80EDC3CC13CCCD13CDCE13CECF13CF0470F030D5DE026D17E9D2E7C933E8EC
:4069800033F892D5EDD2E7CD33EC33FC5002B2D522EC30E7100FBF000C0EBE00080DBD00040BEB6014A2D5EB13FCED92E7FD2274FFFCFDFEFF22E480F8A2D574FF13FC7D3D
:4069C00080E480EFF920E73624F950037907E4F42402FBE582158270021583DBF6E024FB501BE96014E4F0E582158270021583E004F0B40A08E4F0D9EE7401F00A22C2D5CC
:406A000022ED33EC3392D5FA602AB4FF33EDC2E77BFF60067A6A7926E4227A6A792F20D5047A6A792A224E614E002B494E46002D494E4600E47A08F0A3DAFC7B0074072201
:406A4000C083C082ECC0E0EDC0E0EEC0E0EFC0E0EA75F010A4CAABF075F04DA42BFBE435F0FCEA2410FAEB34C5FBEC34D9FCEDC2E7FF75F056A4F42411C5F0F434C58FF048
:406A8000A42AE5F03BE43CF020E714126B36D0E0FFD0E0FED0E0FDD0E0FC1267EF8014F404126B36D0E0FFD0E0FED0E0FDD0E0FC1266E6D082D083E0FAEDD2E7CD33EC3365
:406AC0002482FBE4C3CF33CFCE33CECD33CD33DBF37B0775F00A846004F0A31B0AE5F0F0A38FF0740AA4FFACF08EF0740AA42CFEACF050010C8DF0740AA42CFDE435F0F027
:406B0000A3DBDE7407223F8000004120000042C80000447A0000461C400047C35000497424004B1896804CBEBC205A0E1BCA6753C21C749DC5AEFB60065407601C2323123F
:406B40006B64EB54386009126B50126B5F1266E6ECF8EDF9EEFAEFCB22EB126B5F80F1543803241C906B06FE93FC0EEE93FD0EEE930ECE93FF22BB010689828A83E0225065
:406B800002E722BBFE02E32289828A83E49322BB010CE58229F582E5833AF583E0225006E92582F8E622BBFE06E92582F8E222E58229F582E5833AF583E49322BB01068938
:406BC000828A83F0225002F722BBFE01F322BB010A89828A83F0E5F0A3F0225006F709A7F01922BBFE06F3E5F009F31922E88FF0A4CC8BF0A42CFCE98EF0A42CFC8AF0EDC4
:406C0000A42CFCEA8EF0A4CDA8F08BF0A42DCC3825F0FDE98FF0A42CCD35F0FCEB8EF0A4FEA9F0EB8FF0A4CFC5F02ECD39FEE43CFCEAA42DCE35F0FDE43CFC2275F0087540
:406C40008200EF2FFFEE33FECD33CDCC33CCC58233C5829BED9AEC99E58298400CF582EE9BFEED9AFDEC99FC0FD5F0D6E4CEFBE4CDFAE4CCF9A88222B800C1B90059BA00CC
:406C80002DEC8BF084CFCECDFCE5F0CBF97818EF2FFFEE33FEED33FDEC33FCEB33FB10D703994004EB99FB0FD8E5E4F9FA227818EF2FFFEE33FEED33FDEC33FCC933C910BC
:406CC000D7059BE99A4007EC9BFCE99AF90FD8E0E4C9FAE4CCFB2275F010EF2FFFEE33FEED33FDCC33CCC833C810D7079BEC9AE899400AED9BFDEC9AFCE899F80FD5F0DAB5
:406D0000E4CDFBE4CCFAE4C8F922CFF4CFCEF4CECDF4CDCCF4CC22C3E49FFFE49EFEE49DFDE49CFC22EB9FF5F0EA9E42F0E99D42F0EC6480C864809845F022EB9FF5F0EA52
:406D40009E42F0E99D42F0E89C45F022E8600FECC313FCED13FDEE13FEEF13FFD8F122E86010ECA2E713FCED13FDEE13FEEF13FFD8F022E8600FEFC333FFEE33FEED33FD79
:406D8000EC33FCD8F122BB010789828A8302705E5005E9F8027052BBFE05E9F802706A89828A83027076BB010789828A83026DC05005E9F8027086BBFE05E9F802709222B0
:406DC000ECF0A3EDF0A3EEF0A3EFF022A42582F582E5F03583F58322F8E0FBA3A3E0F925F0F0E582158270021583E0FA38F022EBF0A3EAF0A3E9F022D083D082F8E493708C
:406E000012740193700DA3A393F8740193F5828883E4737402936860EFA3A3A380DFE54A2582F582E5493583F583B5490485824A2210AF0685824AF5492285824AF549D20A
:406E4000AF22EC8EF0A4CCC5F0CCCDF8EFA4CEC5F02DFDE43CFCE8A42EC8C5F03DFDE43CFCEFA4FFE5F028FEE43DFDE43CFC22E709F608DFFA8046E709F208DFFA803E88B9
:406E8000828C83E709F0A3DFFA8032E309F608DFFA806EE309F208DFFA806688828C83E309F0A3DFFA805A89828A83E0A3F608DFFA804E89828A83E0A3F208DFFA804280A2
:406EC000D280FA80C680D4805580F28029801080A680EA809A80A880DA80E280CA802988848C8589828A83E493A30586F0A30586DFF5DEF3800B89828A83E493A3F608DF74
:406F0000F9ECFAA9F0EDFB2288848C8589828A83E0A30586F0A30586DFF6DEF480E389828A83E493A3F208DFF980D688F0EF60010E4E60CD88F0ED2402B4040050C3F582EC
:406F4000EB2402B4040050B92323458223906EBF73E709F60870FA8046E709F20870FA803E88828C83E709F0A370FA8074E309F60870FA806CE309F20870FA806488828CAB
:406F800083E309F0A370FA805889828A83E0A3F60870FA804C89828A83E0A3F20870FA804080D280FA80C680D4805180F28027801080A680EA809A80A880DA80E280CA80C7
:406FC0002788848C8589828A83E493A30586F0A3058670F5800B89828A83E493A3F60870F9ECFAA9F0EDFB2288848C8589828A83E0A30586F0A3058670F680E589828A831C
:40700000E493A3F20870F980D888F0ED2402B4040050CEF582EB2402B4040050C42323458223906FA173C5F0F8A3E028F0C5F0F8E582158270021583E038F022A3F8E0C51C
:40704000F025F0F0E582158270021583E0C838F0E822E6FC08E6FD08E6FE08E6FF22E0FCA3E0FDA3E0FEA3E0FF22E2FC08E2FD08E2FE08E2FF22E493FC740193FD740293B7
:40708000FE740393FF22ECF608EDF608EEF608EFF622ECF208EDF208EEF208EFF22212C664EF700A300CF7C20C129F3880F0900E9DE0249AFF900E9CE034F9FE3395E0FD66
:4070C000FCE47BA07A07F9F8126BED7807126D5F900DDB126DC0300C05C20C129F38900D21E06077300D74900F69E004F0E064E87002740370657F287E23FDFC900DDBE028
:40710000F8A3E0F9A3E0FAA3E0FBC3126D25500FE47F407E1FFDFC900E78126DC08037E47FC87E32FDFC900DDBE0F8A3E0F9A3E0FAA3E0FBC3126D25500FE47FE07E2EFD88
:40714000FC900E78126DC0800DE47FC07E5DFDFC900E78126DC0E4900D21F0E47F587E1BFDFC900DDBE0F8A3E0F9A3E0FAA3E0FBD3126D255003027985E47FE87E03FDFCB0
:40718000900F6AE0F8A3E0F9A3E0FAA3E0FB126D3B7004D20D8036900F6AE0FCA3E0FDA3E0FEA3E02401FFE43EFEE43DFDE43CFC900F6A126DC0900DDBE0FCA3E0FDA3E02E
:4071C000FEA3E0FF12B58A900EA4126DC0300C05C20C129F38900D69E07004F50EF50F900CB3E064066003027535E5101470030272E81470030272FB14700302731A1470D4
:407200000302737D24046003027388900EA0E0FEA3E0FFEE3395E08F258E24F523F522C3E5259519FFE5249518FEE5239517FDE5229516FC126905C004C005C006C007AF36
:4072400019AE18AD17AC16EC126905A804A905AA06AB07D007D006D005D0041267EFC004C005C006C007900D9CE0FCA3E0FDE412690AD003D002D001D0001266E61269434D
:407280008F258E248D238C22300C05C20C129F387F007EFC7DFF7CFFAB25AA24A923A822C3126D25500C7525007524FC7523FF7522FFE4FF7E04FDFCAB25AA24A923A8223D
:4072C000D3126D25400AE4F525752404F523F522900ED9E524F0A3E525F0200C03027388C20C129F38027388E4F512F513F519F518F517F5167510040273880513E51370EB
:4073000002051264644512707FF512F513300C05C20C129F38751003806E0513E51370020512900EA0E0FEA3E0FFEE3395E0FDFCE5192FF519E5183EF518E5173DF517E536
:40734000163CF516300C05C20C129F38E51364C845127034AF19AE18AD17AC167BC8FAF9F812BD3E8F198E188D178C16300C05C20C129F38E4F512F513F510800BE50E70D8
:4073800007E50F7003751002300C05C20C129F38E51114700302748B14700302749E1470030274BD14700302751824046003027527900EA2E0FEA3E0FFEE3395E08F258E56
:4073C00024F523F522C3E525951DFFE524951CFEE523951BFDE522951AFC126905C004C005C006C007AF1DAE1CAD1BAC1AEC126905A804A905AA06AB07D007D006D005D069
:40740000041267EFC004C005C006C007900D9CE0FCA3E0FDE412690AD003D002D001D0001266E61269438F258E248D238C22300C05C20C129F387F007EFC7DFF7CFFAB25EE
:40744000AA24A923A822C3126D25500C7525007524FC7523FF7522FFE4FF7E04FDFCAB25AA24A923A822D3126D25400AE4F525752404F523F522300C05C20C129F38900ED6
:40748000D7E524F0A3E525F0027527E4F514F515F51DF51CF51BF51A7511040275270515E5157002051464644514707BF514F515300C05C20C129F38751103806A0515E538
:4074C0001570020514900EA2E0FEA3E0FFEE3395E0FDFCE51D2FF51DE51C3EF51CE51B3DF51BE51A3CF51AE51564C845147038AF1DAE1CAD1BAC1A7BC8FAF9F812BD3E8F7E
:407500001D8E1C8D1B8C1A300C05C20C129F38E4F514F515F511800FE50E700BE50F7007E5107003751102200C030279C6C20C129F380279C6E50E147003027611147003F7
:4075400002762814700302766524036003027712900EA0E0FEA3E0FFEE3395E08F258E24F523F522E4FFFEFDFCAB25AA24A923A822C3126D255009E4F525F524F523F52215
:40758000AF25AE24AD23AC2212AB9B8F258E248D238C22780A126D73900D6AE0F8A3E0F9A3E0FAA3E0FB126C788F258E248D238C22300C05C20C129F38E4FFFEFDFCAB2545
:4075C000AA24A923A822C3126D25500BE4F525F524F523F522801EE4FF7E04FDFCAB25AA24A923A822D3126D25400AE4F525752404F523F522AF25AE24AD23AC22900EB7CB
:40760000126DC0200C03027712C20C129F38027712E4900F65F0A3F0FFFEFDFC900D6A126DC0750E02027712900F66E004F07006900F65E004F0900F65E064017004A3E0F1
:4076400064F46003027712900F65F0A3F07F0112C682E4FF12C688300C05C20C129F38750E03027712900F66E004F07006900F65E004F0C3900EA0E0648094805004E4F0EF
:40768000A3F0900D6AE0F8A3E0F9A3E0FAA3E0FBC000C001C002C003900EA0E0FEA3E0FFEE3395E0FDFC12AB9BD003D002D001D000EB2FFFEA3EFEE93DFDE83CFC900D6A87
:4076C000126DC0300C05C20C129F38900F65E064037004A3E064E87039900D6AE0FCA3E0FDA3E0FEA3E0FFE47BE87A03F9F8126C78900D6A126DC0300C05C20C129F38E4E9
:40770000FF12C682E4FF12C688E4900F65F0A3F0F50E300C05C20C129F38E50F1470030277F714700302781614700302785314700302790614700302790F240560030279D1
:407740007B900EA2E0FEA3E0FFEE3395E08F258E24F523F522E4FFFEFDFCAB25AA24A923A822C3126D255009E4F525F524F523F522AF25AE24AD23AC2212AC508F258E24F7
:407780008D238C22780A126D73900D6EE0F8A3E0F9A3E0FAA3E0FB126C788F258E248D238C22300C05C20C129F38E4FFFEFDFCAB25AA24A923A822C3126D25500BE4F5251D
:4077C000F524F523F522801EE4FF7E04FDFCAB25AA24A923A822D3126D25400AE4F525752404F523F522AF25AE24AD23AC22900EBB126DC002797BE4900F67F0A3F0FFFE4A
:40780000FDFC900D6E126DC0300C05C20C129F38750F0402797B900F68E004F07006900F67E004F0900F67E064017004A3E064F4600302797B900F67F0A3F07F0112C6820E
:40784000E4FF12C688300C05C20C129F38750F0302797B900F68E004F07006900F67E004F0C3900EA2E0648094805004E4F0A3F0900D6EE0F8A3E0F9A3E0FAA3E0FBC00075
:40788000C001C002C003900EA2E0FEA3E0FFEE3395E0FDFC12AC50D003D002D001D000EB2FFFEA3EFEE93DFDE83CFC900D6E126DC0300C05C20C129F38900F67E06403707E
:4078C00004A3E064E8600302797B900D6EE0FCA3E0FDA3E0FEA3E0FFE47BE87A03F9F8126C78900D6E126DC0E4FF12C682E4FF12C688E4900F67F0A3F0300C05C20C129F50
:4079000038750F058075E50E7071750F02806C900F68E004F07006900F67E004F0900F67E064017004A3E064F47050900F67F0A3F0300C05C20C129F38900CB3E0FF6402B1
:40794000600EEF64036009EF64046004EFB40528900EA8E0FCA3E0FDA3E0FEA3E0FF900D26126DC0900EACE0FCA3E0FDA3E0FEA3E0FF900D2A126DC0E4F50F300C48C20CBF
:40798000129F388041750E01750F01751001751101C20D7F0112C682E4FF12C688300C05C20C129F38E4FFFEFDFC900EB7126DC0E4FFFEFDFC900EBB126DC0E4900ED7F0FA
:4079C000A3F0A3F0A3F0900D21E06003027A73200D03027A73E50E6003027A73E50F6003027A73900DDBE0FCA3E0FDA3E0FEA3E0FF12B58A900EA4126DC0900E78E0FCA3F6
:407A0000E0FDA3E0FEA3E0FFEC1269057466FBFAF9783F1266E6C004C005C006C007900EA4E0FCA3E0FDA3E0FEA3E0FFEC126905A804A905AA06AB07D007D006D005D004E8
:407A400012688C600E400C7F0112C682E4FF12C6888020E4FF12C6827F0112C688900DD2E0601012B9D6300C05C20C129F38E4900DD2F0300C05C20C129F3822900CE8E053
:407A8000FEA3E0FFFBAA06E4900EB7E0FCA3E0FDA3E0FEA3E0C39BF529EE9AF528ED9400F527EC9400F526900CEAE0FEA3E0FFFBAA06E4900EBBE0FCA3E0FDA3E0FEA3E07B
:407AC000C39BF52DEE9AF52CED9400F52BEC9400F52A900CB3E024FE7003027C2F147003027C8D147003027D82147003027EE514700302808624056003028107900DD2E0B2
:407B00006026900CF6E0FF3395E0FEFDFC900EA8E0F8A3E0F9A3E0FAA3E0FB126BED8F258E248D238C228009E4F525F524F523F522900D26E0F8A3E0F9A3E0FAA3E0FBC348
:407B4000E5259BFFE5249AFEE52399FDE52298FC900CE0E0F8A3E0F9A3E0FAA3E0FBC3126D255044E4FFFEFDFC900CE0E0F8A3E0A3E0A3E0C3126D25602E900D26E0FCA3D3
:407B8000E0FDA3E0FEA3E0FF900CE0E0F8A3E0A3E0A3E0EF2BFFEE3AFEED39FDEC38FC900D26126DC0028107900D26E0F8A3E0F9A3E0FAA3E0FBC3E5259BFFE5249AFEE5FB
:407BC0002399FDE52298FC900CE4E0F8A3E0F9A3E0FAA3E0FBD3126D254043E4FFFEFDFC900CE4E0F8A3E0A3E0A3E0126D25602E900D26E0FCA3E0FDA3E0FEA3E0FF900CBD
:407C0000E4E0F8A3E0A3E0A3E0EF2BFFEE3AFEED39FDEC38FC900D26126DC0028107AF25AE24AD23AC22900D26126DC0028107E4FFFEFDFCAB29AA28A927A826D3126D258C
:407C4000403D900D55E0FCA3E0FDA3E0FEA3E0FFA826126BEDC006C007900CE8E0FEA3E0FFC3E49FFF74049EFEAB07FAE4F9F8D007D00612BD3E900D26126DC0028107E489
:407C8000FFFEFDFC900D26126DC0028107900DDFE0FCA3E0FDA3E0FEA3E0FF900D26126DC0E4FFFEFDFCAB29AA28A927A826D3126D254056900D72E0FFE4FCFDFEA8261291
:407CC0006BEDE47B02FAF9F8126BEDC006C007900CE8E0FEA3E0FFC3E49FFF74049EFEAB07FAE4F9F8D007D00612BD3E900DDFE0F8A3E0F9A3E0FAA3E02FFFEA3EFEE93D27
:407D0000FDE83CFC900D26126DC0E4FFFEFDFCAB2DAA2CA92BA82AD3126D255003028107900D72E0FFE4FCFDFEA82A126BEDE47B02FAF9F8126BEDC006C007900CEAE0FEF6
:407D4000A3E0FFC3E49FFF74049EFEAB07FAE4F9F8D007D00612BD3EA804A905AA06AB07900DDFE0FCA3E0FDA3E0FEA3E0C39BFFEE9AFEED99FDEC98FC900D26126DC0026B
:407D80008107900DDFE0FCA3E0FDA3E0FEA3E0FF900D26126DC0900F64E0146048147003027E5F24026003028107E4FFFEFDFCAB29AA28A927A826D3126D254009900F6465
:407DC0007401F0028107E4FFFEFDFCAB2DAA2CA92BA82AD3126D255003028107900F647402F0028107E4FFFEFDFCAB29AA28A927A826C3126D255008E4900F64F0028107E1
:407E0000900D72E0FFE4FCFDFEAB29AA28A927A826126BEDE47B02FAF9F8126BEDC006C007900CE8E0FEA3E0FFC3E49FFF74049EFEAB07FAE4F9F8D007D00612BD3E900D73
:407E4000DFE0F8A3E0F9A3E0FAA3E02FFFEA3EFEE93DFDE83CFC900D26126DC0028107E4FFFEFDFCAB2DAA2CA92BA82AC3126D255008E4900F64F0028107900D72E0FFE48C
:407E8000FCFDFEAB2DAA2CA92BA82A126BEDE47B02FAF9F8126BEDC006C007900CEAE0FEA3E0FFC3E49FFF74049EFEAB07FAE4F9F8D007D00612BD3EA804A905AA06AB0794
:407EC000900DDFE0FCA3E0FDA3E0FEA3E0C39BFFEE9AFEED99FDEC98FC900D26126DC0028107028107900DDFE0FCA3E0FDA3E0FEA3E0FF900D26126DC0900F64E01460482E
:407F0000147003027FE124026003028107E4FFFEFDFCAB29AA28A927A826D3126D254009900F647401F0028107E4FFFEFDFCAB2DAA2CA92BA82AD3126D2550030281079063
:407F40000F647402F0028107E4FFFEFDFCAB29AA28A927A826C3126D25501BE4FFFEFDFCAB2DAA2CA92BA82AC3126D255008E4900F64F0028107E4FFFEFDFCAB29AA28A937
:407F800027A826D3126D255003028107900D72E0FFE4FCFDFEA826126BED7802126D73C006C007900CE8E0FEA3E0FFC3E49FFF74049EFEAB07FAE4F9F8D007D00612BD3E06
:407FC000900DDFE0F8A3E0F9A3E0FAA3E02FFFEA3EFEE93DFDE83CFC900D26126DC0028107E4FFFEFDFCAB29AA28A927A826C3126D25501BE4FFFEFDFCAB2DAA2CA92BA89A
:408000002AC3126D255008E4900F64F0028107E4FFFEFDFCAB2DAA2CA92BA82AD3126D255003028107900CF5E0FFE4FCFDFEA82A126BED7802126D73C006C007900CEAE08E
