:40000000021415008F828E83E0540100000070F82278FFE4F6D8FD02147A900000EFF0E4F53FF540F541F54275430AC200121F87EF60057F00121FB7122067D2AF9044F4FC
:4000400074FDF0E4F53B754900754A00754B37900000E0FF70067EFF7FFF80008F4C7B017A0079017D2C7C011212FA8F3E900000E060021543E5436004E53E70C9E53E6046
:400080000302059FC3E5389407E53794004008900001E064016005753B04807E900004E0FE900003E0FDEEF53FEDF54074062540F5827400353FF583E0FE74052540F58228
:4000C0007400353FF583E0FDEEF53CEDF53DE5402407FFE4353FFED3EF9538EE95374005753B03803574072540F5827400353FF583E064176005753B04801F7B017A0079B1
:4001000001E5402404FDE4353FFC121C66EF653D7003EE653C6003753B08E4F539F53AE53B600302058E900005E0F536753B04900002E012088801553101823202083403A0
:400140007A3503883703D438020839040F3A05783B0000058B20000302058EE540453F600302058EFF120D84EF70047F0180027F00900005EFF0753900753A01E4F53B0260
:40018000058E20000302058EE5406401453F600302058EE536C39401400302058E900357E0FEA3E0F5828E83120842E4FBFA7901F81207188F24E536B5241E900357E0FE6B
:4001C000A3E0F5828E83120842E4FB7A01F9F81207187522008F238014E536D395244007E4F522F5238006752201752300E523900005F0E522A3F0A374FFF0E4A3F0F539B6
:40020000753A04F53B02058E900002E06434703C20000302058EE5406403453F600302058EE536C39440400FE536D3947F50087541007542108006754101754220AE41AF47
:40024000427D007B017A01792D1208FF20000302058EC3E5409403E53F9400500302058EE54024FDFFE53F34FFFE742D2542F974013541A801FC7D017B017A0079081209F7
:40028000E7E54024FDFFE53F34FFFEEF2542F542EE3541F541E536C394404012E536D3947F500B121DA8753F007540108006753F01754020E54265407004E541653F600369
:4002C00002036F900007E0FE900006E0FDEEF541EDF542E536D3943F506FE5367F00FEEF2542FFE5413E900259F0A3EFF0900357E0FEA3E0F5828E83120842E4FB7A01F9AA
:40030000F812071890025BEEF0A3EFF0900357E0FEA3E0F5828E83120842EFE4EF600A90025BE475F0011205DA90025BE0FEA3E0FFC390025AE09F900259E09E500B753BD5
:400340000AE4F541F54202058E7B017A01792D900263E53FF0A3E540F0AD42AC41AF36120F0BEF60047F0A80027F008F3B8003753B03E4F541F54202058E20000302058EC7
:40038000E4F541F54202059F20000302058EE5422540FFE541353FFED3EF942CEE9401502DE4F53BAE3FAF40742D2542F974013541A801FC7D017B017A0079051209E7E58F
:4003C000402542F542E53F3541F54102058E753B0302058EE540453F600302058E78257C00FD7BFF7A25791FFE7F081209E7D200753900753A08AE39AF3A78057C007D0105
:400400007B007A0079251209E7E4F53B02058E20000302058EE5406403453F600302058E900007E0FE900006E0FDEEF52FEDF530E536C394404038E536D3947F5031AE2F29
:40044000AF307C007D101208D28F348E338D328C318F4B8E4A8D498C48E4754F10F54EF54DF54CFF7E80FDFC12192C8F358050AE2FAF307C017D001208D2C004C005C006FC
:40048000C007AF36E4FCFDFEFBFA7901F812068DD003D002D001D0001206728F348E338D328C318F4B8E4A8D498C48E4F54F754E01F54DF54CFFFE7D10FC12192C8F35E588
:4004C00036D3943F5072AF367E007C207D001208D2E42FFFE43EFEED3408FDE43CFCC004A905AA06AB07AE2FAF307C007D201208D2D0001206728F348E338D328C31E4F5BA
:400500002DF52EC3E52E9420E52D9400502AE4E52E2534FFE52D3533FEE43532FDE43531A907AA06AB05121CF3EF2535F535052EE52E7002052D80CBE536702AAE2FAF301E
:40054000FCFD7BFFFAF9F8C31207C57019FD7F05120A3DC3E5359FF535E4FD7F06120A3DC3E5359FF535E535F404900005F0E4F53BF539753A018016E4FF120D84EF700604
:400580009046FA7480F01220718003753B057B017A007901853948853A49AF3B1215ED900000E0700302004330000302004322BB010689828A83E0225002E722BBFE02E399
:4005C0002289828A83E49322BB010689828A83F0225002F722BBFE01F322C5F0F8A3E028F0C5F0F8E582158270021583E038F022BB010A89828A83E0F5F0A3E022500687B6
:40060000F009E71922BBFE07E3F5F009E3192289828A83E493F5F074019322BB010789828A830205DA500B09C5F027F7C5F01937F722BBFE0D09F8E325F0F3C5F019E338A6
:40064000F322F889828A8374019325F0C5F0F8E4933822BB010A89828A83F0E5F0A3F0225006F709A7F01922BBFE06F3E5F009F31922EF2BFFEE3AFEED39FDEC38FC22C315
:40068000EF9BFFEE9AFEED99FDEC98FC22E88FF0A4CC8BF0A42CFCE98EF0A42CFC8AF0EDA42CFCEA8EF0A4CDA8F08BF0A42DCC3825F0FDE98FF0A42CCD35F0FCEB8EF0A47C
:4006C000FEA9F0EB8FF0A4CFC5F02ECD39FEE43CFCEAA42DCE35F0FDE43CFC2275F008758200EF2FFFEE33FECD33CDCC33CCC58233C5829BED9AEC99E58298400CF582EE4A
:400700009BFEED9AFDEC99FC0FD5F0D6E4CEFBE4CDFAE4CCF9A88222B800C1B90059BA002DEC8BF084CFCECDFCE5F0CBF97818EF2FFFEE33FEED33FDEC33FCEB33FB10D7C4
:4007400003994004EB99FB0FD8E5E4F9FA227818EF2FFFEE33FEED33FDEC33FCC933C910D7059BE99A4007EC9BFCE99AF90FD8E0E4C9FAE4CCFB2275F010EF2FFFEE33FE50
:40078000ED33FDCC33CCC833C810D7079BEC9AE899400AED9BFDEC9AFCE899F80FD5F0DAE4CDFBE4CCFAE4C8F922EF4BFFEE4AFEED49FDEC48FC22C3E49FFFE49EFEE49D2F
:4007C000FDE49CFC22EB9FF5F0EA9E42F0E99D42F0E89C45F022E8600FECC313FCED13FDEE13FEEF13FFD8F122E8600FEFC333FFEE33FEED33FDEC33FCD8F122BB010789DC
:40080000828A830208365005E9F8020A0DBBFE05E9F8020A1989828A83020842BB010789828A8302085E5005E9F8020A25BBFE05E9F8020A3122E0FCA3E0FDA3E0FEA3E06A
:40084000FF22E493FC740193FD740293FE740393FF22E0F8A3E0F9A3E0FAA3E0FB22ECF0A3EDF0A3EEF0A3EFF022E0FBA3E0FAA3E0F922EBF0A3EAF0A3E9F022E493FB74E9
:400880000193FA740293F922D083D082F8E4937012740193700DA3A393F8740193F5828883E4737402936860EFA3A3A380DFE5092582F582E5083583F583B50804858209B7
:4008C0002210AF06858209F50822858209F508D2AF22EC8EF0A4CCC5F0CCCDF8EFA4CEC5F02DFDE43CFCE8A42EC8C5F03DFDE43CFCEFA4FFE5F028FEE43DFDE43CFC22EF51
:400900004E6012EF60010EEDBB010B89828A83F0A3DFFCDEFA2289F05007F709DFFCA9F022BBFEFCF309DFFCA9F022E709F608DFFA8046E709F208DFFA803E88828C83E7AA
:4009400009F0A3DFFA8032E309F608DFFA806EE309F208DFFA806688828C83E309F0A3DFFA805A89828A83E0A3F608DFFA804E89828A83E0A3F208DFFA804280D280FA80F3
:40098000C680D4805580F28029801080A680EA809A80A880DA80E280CA802988848C8589828A83E493A30586F0A30586DFF5DEF3800B89828A83E493A3F608DFF9ECFAA95D
:4009C000F0EDFB2288848C8589828A83E0A30586F0A30586DFF6DEF480E389828A83E493A3F208DFF980D688F0EF60010E4E60CD88F0ED2402B4040050C3F582EB2402B455
:400A0000040050B9232345822390097B73E6FC08E6FD08E6FE08E6FF22E2FC08E2FD08E2FE08E2FF22ECF608EDF608EEF608EFF622ECF208EDF208EEF208EFF22290025D03
:400A4000EDF0AB079002627402F0E4FFFEFDFCA312085EEB1208880A79010AA6020ACB030AF0040B15050B40060B8F070B6B080BB3090BD70A00000C0190025DE0FF7E005E
:400A80007C017D001208D21207B7EF24C0FFEE34FFFEED3410FDE43CFCA312085E9002627401F0020C0C90025DE0FF7E007C017D001208D2C374C39FFF74FF9EFE74109DBD
:400AC000FDE49CFCA312085E020C0C90025DE0FF7E007C017D001208D2C374C79FFF74FF9EFE74109DFDE49CFCA312085E020C0C90025DE0FF7E007C017D001208D2C37433
:400B0000CB9FFF74FF9EFE74109DFDE49CFCA312085E020C0C90025DE0FF7E007C017D001208D2C374D09FFF74FF9EFE74109DFDE49CFCA312085E9002627401F0020C0C60
:400B400090025DE0FF7E007C017D001208D2C374D19FFF74FF9EFE74109DFDE49CFCA312085E9002627401F0020C0C90025DE0FF7E007C017D001208D2C374D69FFF74FF16
:400B80009EFE74109DFDE49CFCA312085E807D90025DE0FF7E007C017D001208D2C374D29FFF74FF9EFE74109DFDE49CFCA312085E805990025DE0FF7E007C017D00120811
:400BC000D2C374D49FFF74FF9EFE74109DFDE49CFCA312085E803590025DE0FF7E007C017D001208D2C374D89FFF74FF9EFE74109DFDE49CFCA312085E9002627404F08082
:400C00000BE4FFFEFDFC90025E12085E900262E0B4011990025E120836A907AA06AB05121CF3E4FCFDFE90026312085E900262E06402705C90025E120836EF2401FFE43E91
:400C4000FEE43DFDE43CA907AA06AB05121CF3E4FCFDFE90026312085E900263120852C000C001C002C00390025E120836A907AA06AB05121CF3E4FCFDFE78081207E9D0BA
:400C800003D002D001D0001207AA90026312085E900262E064046003020D7D90025E120836EF2403FFE43EFEE43DFDE43CA907AA06AB05121CF3E4FCFDFE90026312085E37
:400CC000900263120852C000C001C002C00390025E120836EF2402FFE43EFEE43DFDE43CA907AA06AB05121CF3E4FCFDFE78081207E9D003D002D001D0001207AA9002634F
:400D000012085E900263120852C000C001C002C00390025E120836EF2401FFE43EFEE43DFDE43CA907AA06AB05121CF3E4FCFDFE78101207E9D003D002D001D0001207AA84
:400D400090026312085E900263120852C000C001C002C00390025E120836A907AA06AB05121CF3E4FCFDFE78181207E9D003D002D001D0001207AA90026312085E90026356
:400D8000120836228F44AD447F03120A3DEF2401FFE43EFEE43DFDE43CFCE4FB7A01F9F812068DC004C005C006C007AD447F04120A3DD003D002D001D0001206728F4C8EA9
:400DC0004B8D4A8C49C201E4F54DAD447F03120A3DEF2401FFE43EFEE43DFDE43CFCE4FB7A01F9F812068D8F488E478D468C45AF4CAE4BAD4AAC49AB48AA47A946A845C337
:400E00001207C55032854882854783E493F54E6005F46002D201E54E254DF54DAF48AE47AD46AC45E47B01FAF9F81206728F488E478D468C4580B8AD447F03120A3DEF2479
:400E400001FFE43EFEE43DFDE43CFCE4FB7A01F9F812068D78031207D68F488E478D468C45E47FC07EFFFDFCAB4CAA4BA94AA849C31207C57007FF7E20FDFC800DAF4CAE21
:400E80004BAD4AAC4978031207D68F4C8E4B8D4A8C49AF4CAE4BAD4AAC49AB48AA47A946A845C31207C55039E42548FFE43547FEE5463408FDE43545A907AA06AB05121CB9
:400EC000F3EF254DF54DAF48AE47AD46AC45E47B01FAF9F81206728F488E478D468C4580B1E54DF404F54DAD447F01120A3DA804A905AA06AB07AF4DE4FCFDFEC31207C5CC
:400F000070032001037F06227F002290025EECF0A3EDF0A312087390025DEFF0E4900265F0EFD3943F500E90025DE0940140069002657401F090025DE0FFD3947F4006903A
:400F400002657401F0EFC39440400CEFD3944140069002657401F0EFD3943F501E90025EE0FEA3E0FFE4FCFDFB7A01F9F8C31207C5502F9002657401F08027D390025FE03C
:400F8000948090025EE0940040069002657401F0900263E07004A3E0641060069002657401F090026012086AE94A4B700590026504F0900265E0600302108A121EFEEF606E
:400FC0000302108490025EE0FCA3E0FDA312086A900263E0FFA3E090026CCFF0A3EFF090025DE0FF1211DE900265EFF06407600302107F904722E0540270087F01FE121EF6
:401000006480F0904722E054026009E0FF1313543FFF80027FFFEF7006900265F0800690026574FFF0900265E0705490025DE0FFA3E0FCA3E0FD900353E0FBA3E090026AD9
:40104000F0121A90900265EFF064077032904722E0540270087F01FE121E6480F0904722E054026009E0FF1313543FFF80027FFFEF7006900265F0800690026574FFF0124B
:40108000205180069002657404F0900265E0FF227B007A4679E8121CF3EF4401FD7B007A4679E8122045E4F52CE52CC3940A502CE52C75F005A42461F582E43424AF82F571
:4010C000218F22F58312087C8F82852183740393FC740493FD121F6E052C80CDE4F52CE52CC394015046E52C75F007A42413F582E43425AF82F5238F24F58312087C8B25E1
:401100008A2689278F82852383740393FE7404938E28F529740593F52A740693F52BAD29AC28FFAE2A121EB8052C80B37E207F92121DD97B017A507903121CF3EF4402FD3B
:401140007B017A5079031220457B017A507913121CF3EF4402FD7B017A5079131220459043A0E04440F09043C2E04410F07C207D827B007A5179127F087E00121EB87C2053
:401180007D8A7B007A5179227F087E00121EB89044F47401F0904322E04408F09046ECE0C394055006904689743AF090480074F1F012150690480074B1F0121F1D7B007A41
:4011C0004379A0C00179B0900005120873D0017F0E7E00121D749043B0E054FDF022900266EFF0A3ECF0A3EDF0A312087390026E7407F0904722E0540270030212EE904756
:401200002074B6F074D5F07402F0904722E0540260030212E6900266E0904720F0E490026FF0A3F090026CE0FEA3E0FF90026FE0FCA3E0FDC39FEC9E501F90026912086A8D
:40124000E92DF9EA3CFA1205AF904720F090026FE475F0011205DA80CB90026CE064017002A3E060030212F4900266E0FFD3943F40030212F47E007C207D001208D2E42F0A
:40128000FFE43EFEED3408FDE43CFCC004A905AA06AB07A3E0FEA3E0FF7C007D201208D2D00012067290027112085EE490026FF0A3F090026FE0FEA3E0FFC39420EE94005A
:4012C0005032E4FCFDA3120852120672A907AA06AB05121CF3904720EFF090026FE475F0011205DA80CC90026E7409F0800690026E7404F090026EE0FF228B448A4589469E
:401300008C478D48755505E4F54DF54EE54C75F00AA4FFC3E54E9FE54D95F0503B121B34EF6022121B347553008F54E47F19FEFDFC1218C7121B34D3EF9554E4955350E366
:40134000E4F5558013E47F01FEFDFC1218C7054EE54E7002054D80B4AB49AA4AA94BE4F5F0120653E4F54FF550121B34EFD394005003021412121B347551008F52AB49AA8D
:401380004AA94BE5518552F012061BAB49AA4AA94B1205F0C39548E5F09547505FE4F54DF54EC3E54E9552E54D95515025121C1CAB44E5462550F9E545354FFAEF1205C8C1
:4013C0000550E5507002054F054EE54E7002054D80D0AB44E55024FFFFE54F34FFFEE5462FF9E5453EFA1205AF64177003021369E47F05FEFDFC1218C7021369AB49AA4ABB
:40140000A94B1205F0C39552FFE5F095518FF0120653AF552275930078007583467582E8E04401F0009046ECE0F99046FAE0FA90034BF0B903225420B40012B8001AEA9014
:401440001FFFF07401901FFEF09046F6F0901FFEE06005901FFFE0FA90480074C0F0758156121EDE90000078007920E4F0A3D8FCD9FAEA90034BF002001175081F7509FD1F
:401480001210900214C1022079E493A3F8E493A34003F68001F208DFF48029E493A3F85407240CC8C333C4540F4420C8834004F456800146F6DFE4800B0102040810204063
:4014C00080901B83E47E019360BCA3FF543F30E509541FFEE493A360010ECF54C025E060A840B8E493A3FAE493A3F8E493A3C8C582C8CAC583CAF0A3C8C582C8CAC583CABE
:40150000DFE9DEE780BE7B007A4079807D337C001220279040827418F09043007402F09040007408F09042007403F07B0C7A017908121CF39046A1EFF07B007A4279227D68
:40154000087C001220277B007A4279207D517C12122027E4900004F07F19FEFDFC90000012085E900000120836D3EF9400EE9400403B900004E0FF64036032904225E05440
:4015800001FEEF25E04E5403900004F0E47FE07E01FDFC121D0090000012083674FFFBFAF9F812067290000012085E80B6900000120836EF4E70057F0312207F7B007A402A
:4015C00079047D007C011220279040047407F0904006E4F09040087448F0904004E4F09040017402F09043A2E04401F0228B458A46894774011205C8AB452547F9E43546AB
:40160000FAEF1205C8E549AB45E5472402F9E43546FAE5491205C8E548FFAB45E5472403F9E43546FAEF1205C8AB45AA46A947E5492404FDE43548FC121C668E4A8F4BEFCF
:40164000AB45E5492404FDE43548FCE5472DF9E5463CFAEF1205C8E54AFFAB45E5492405FDE43548FCE5472DF9E5463CFAEF1205C8AB45E5492406FFE43548FEE5472FF9FF
:40168000E5463EFA74171205C8E5492407FDE43548FC755100755200755348755496AB45AA46A947121BD122C0E0C083C082C085C084C086758600C093759300C0D075D09F
:4016C00000C001C002C003C006C007E4FBA2AF33FAD2AF9044F474FDF090646CE0FFFE541EF960069002FDE049F0EF30E54590644AE0FE9002F9E02478F582E43402F583E5
:40170000EEF07B01EB602C900276E060069002FC7401F09002F9E004F0E0C394404002E4F0900277E0FE9002F9E0B506069002767401F0EF20E5A2AF02EA24FF92AFD007BF
:40174000D006D003D002D001D0D0D093D086D084D085D082D083D0E032752106E4FF120D84EF7002F521E4F54BF54AF549F548900357E0FEA3E0F5828E831208428F4F8E82
:401780004E8D4D8C4CE4FFFE7D10FC12192C900355E0FCA3E0F5828C83E493FEC3EF9EFFF404FFB50612900357E0FEA3E0F5828E83120842EF4E70057F00121FB79046FAFB
:4017C000E054C064406004E52160099046FAE4F0FF12001A12205D22C0E0C083C082C085C084C086758600C093759300C0D075D000C006C007A2AFE433FFD2AF9044F4742E
:40180000FDF09002FAE0FE9002B8E06E602C90646EE020E2259002B8E0C394404002E4F09002B8E024B9F582E43402F583E090644DF09002B8E004F080C8EF24FF92AFD043
:4018400007D006D0D0D093D086D084D085D082D083D0E032A9079002FAE0FF9002B8E0FEEFC39E501AEE24FFFDE434FFFCEF7A00B50508EAB504047D0180027D00800CC346
:40188000EF9EB43F047D0180027D00ED70C8EEB5070D90646EE020E20690644DE9F022EFC394404002E4FF74B92FF582E43402F583E9F00F9002FAEFF090646EE030E10609
:4018C0009044D07402F02290FFFC1208AE12085E850883850982120836D3EF9400EE9480402E90034C120836121D00850883850982C083C082120836E42FFFEE3480FEEDC9
:4019000034FFFDEC34FFFCD082D08312085E80C090034212083685088385098212085212068D121D009000041208AE228F478E468D458C44E4F550D3E54F9400E54E940025
:40194000404BAF4FAE4EAD4DAC4C74FFFBFAF9F81206728F4F8E4E8D4D8C4CE547254BFFE546354AFEE5453549FDE5443548FCEF254FFFEE354EFEED354DFDEC354CA907BD
:40198000AA06AB051205AF2550F55080AAAF5022121FE190025E74FFF0121EFEEF703B7F01121E35EF6407702C7B017A0379537D021219E6EFB40215E490025EF090472228
:4019C000E0540270107F01FE121E6480F0904722E0540260D4122051800690025E7404F090025EE0FF2290025F120873900262EDF0E4A3F0900262E0FFA3E0C39F50379065
:401A00004722E054016003D38001C340097F017E00121E6480E9904720E0FF90025F12086A900263E029F9E43AFAEF1205C8900263E004F080BE900263E0FF2290025EEC49
:401A4000F0A3EDF090025DEFF0541F25E0FFE433FEE42FFFEE3444FAA9077B0112201A900260EEF0A3EFF090025DE075F002A42400FFE5F03444FAA9077B01A3E0FEA3E0EC
:401A8000FFFDAC06122029900260E0FEA3E0FF22900267ECF0A3EDF0AC077D07904722E05402603B90472074B6F074D8F07405F0904722E054027023904720ECF09002670F
:401AC000E0904720F0900267E0A3E0904720F0EBF090026AE0904720F080067D0980027D04AF0522121FE1121EFEEF703B121F3A90025EEFF06407702A904722E0540270A1
:401B0000087F01FE121E6480F0904722E054026009E0FF1313543FFF80027FFFEF700490025EF0122051800690025E7404F090025EE0FF229044C87401F09002F9E0FE905D
:401B40000277E0B5060E900276E060047F40802CE4FF80289002F9E0FE900277E0C39E500BE0FE9002F9E0C39EFF8010900277E0FEC374409EFE9002F9E02EFF9044C07420
:401B800001F022420355251A420357251B430350000000440347016E360044034200005DC04103461844034C2EE000004102FB004102B8004102FA004102FD00410277003B
:401BC0004102F900410276004102FC0041035B00008B4C8A4D894E8C4F8D50E4F555F556121E07C3E5569550E555954F501DAB4CE54E2556F9E54D3555FA1205AFFF121874
:401C0000540556E5567002055580D8AB51AA52A953E54F8550F01206537F00229044C87401F0900277E0FE9002F9E0FD900276E07004EE6D602474782EF582E43402F583EF
:401C4000E0FF0EEEC394404002E4FE900277EEF0900276E06009E4F0800590644AE0FF9044C07401F0228B4C8A4D894EE4F54FF550D3ED9400EC94004025AB4CED24FFFFD4
:401C8000EC34FFFEE54E2FF9E54D3EFA1205AF2550F550E4354FF54FED1D70011C80D2E550F4FFE54FF4FEEF2401FFE43EFE227C167DA8E4FF121A3C7D07E4FF121F55E4B7
:401CC0009002FDF090648A7469F090648C7420F07C177DD87F01121A3C7D077F01121F5590642E7406F090643E7447F090648E7402F0228B938A838982E0759300FF22000A
:401D0000EC4D4E700D78FCEF24E950032840FD2200007BF178DA0000EF28FF78FFEE38FEED38FDEC38FC50E7EF2BFFEE38FEED38FDEC38FC40F22205020304121FCC9002FD
:401D40005DEFF090649AE04420F090649CE04410F09044C07401F090649EE04410F09044D87402F09044C0F012203690025DE0FF121F9F22758600EF4E6027EF60010E75B2
:401D80009300900005E0F595A3E0F585A3E0F5848B938A838982E0A30586F0A31586DFF6DEF4E4F593F59522121FCC9043A0E04408F09043B0E04408F090470174C8F090A8
:401DC00043ACE04410F09043BCE04410F0904700E0542060F8121F9F22ACEAADA08E838F82E493F9601CA3E493F5EAA3E493F5A0A3E49360F1FAA3E493F8A3E493F2DAF6BC
:401E0000D9E48DA08CEA22121FCC90649AE04401F0E054FEF0121F9F9044C87401F0E4900277F09002F9F0900276F09002FCF09044C004F0227E07904722E05402601F9052
:401E4000472074B6F074E1F0740EF0904722E054027007904720EFF080067E0980027E04AF062200EEFA900346E0F88FF0A4FFAEF0E88AF0A42EFEE5F03400FDEF24C9FF5A
:401E800078FFEE38FEED38FDE438FC5003021D0022121FCC90649DE04401F0E054FEF0121F9F9044C87402F0E49002B8F09002FAF09044C07402F022758600EF4E601BEFCA
:401EC00060010E8C838D828B958A858984E493A30586F0A31586DFF5DEF3E4F595229046FAE054C064807015F0FD7F02120A3DEF4E600AE4FD7F02120A3D122009229002CC
:401F0000667404F0121FCC90035BE0700704F0E4900266F0121F9F900266E0FF227B0C7A0179CF121CF3EF540790586EF0EFC4540FA3F09058767444F0227F07904722E0DD
:401F40005402600E90472074B6F074E0F0740DF080027F0422AC07ED540775F020A4FFEC541F2480F582E43444F583EFF022EC4D6011ED60010C8B938A838982E4F0A3DDB0
:401F8000FCDCFA75930022121AE490025DEFF0700812199090025DEFF090025DE0FF22EF54016004D2AF8002C2AFEF5402FF9044F4E054FD4FF02290FFFF1208AEEFF090D7
:401FC00046EA7401F09000011208AE229044F4E0F84402F0E85402FF10AF012274014FFF22121FCC9043A0E04408F09043B0E04408F0121F9F229002FBE07009121CAF9087
:4020000002FB7401F0121D3B2290034BE0FA8E838F827400758101738B938A838982E0FFA3E0FE759300228B938A838982EDF0A3ECF0759300229043A2E04401F09043B26F
:40204000E04401F0228B938A838982EDF075930022121FCCE490035BF0121F9F229046FA7480F012207122121FF6121E07121E91229046F6E04401F02212175980FE2280DC
:40208000FE22007F7B007B00000030D8C800D800000016005205082309121098118814200064047E3F8A698C3A8E0F010101E204010301E6020105028702E008010604B82E
:4020C00002BE01D804DF010107021B02A702010A088501890195019901B101BF01D904DF01010B4F00400106038808010A040B111028130219641A041B0A202021082230E9
:40210000274028282A022B022E033080310232103304340836203708382239803A083C283E084028410843824A024B0152045B4068286A016B027090712072108D408E104D
:402140008F809042910493109621980199029B0C9D649E049F80A004A102A202A490A520A702AB01B021B405B602B744C00FC20FC40ECA0FCC6FCE6FD00FD208D608E0083A
:40218000E801010C4C0001021608E70A180E3F101E120114C6163918481C88208824DD262228232ADC2CC8301F320834E03A22541A560458045B045F018008824284F88698
:4021C000018704880F89028AF08D068EC792849308943996C698109C20A020A101A43FA6C0A906AA08AC30B031B106B308B501B6FFB702B982BE40BF11C062C101C5E0C6DA
:40220000CBC80EC9FFCAFFCBFFCEF0CF44D00CD804D904DA04DF01E6C0EA40EB02010D46002901100210030B04010709080209260A310D220E11108012481388151016502C
:402240001780180219021C081D021E201F20200421012208230128402920320238C839A43A083B10414042084921502053405E205F026540674887409088912093089502C2
:40228000978098409B4A9C029D259E049F04A420A504A72AB001B301C0DFC2FFC4FFCA05CC01CE0ED00CD204D6A0D8B0010E4E040906D007230B080C0C0D210E710F0E1048
:4022C00014141016AC170C18DC1A221B201E0321102410264029212A202B062D0C2F2330E03310350F361F37203A023B203F444004464049FF4A074BFF4C404D204EF04F8A
:4023000005500854015604580459045A045B045F01604061A862406320871F89198B0691019304950997029A01A506A719A919AA01AB06AF0FB201B310B507B708B908BB65
:4023400020BE04D804D904DB04DF01010F3C004404040504084809200A010B800E0810081210160418C01A011F042130224425102604270A280829212A802F2A303031047A
:402380003402370438883A103D284101500C5210581059015A886380680169046A206B406F0171407304821083408550868089048B04C005C24FC446CA7DCCC6CE6ED00101
:4023C000D60FD801E40C014005322035808180CC30E2200141038620A620E6400144058301870188C0E004E40401450F0C0857025B046401660193029889A040A301B009C2
:40240000C204D607D801E801EC0401460D8702900893029888A040A301A702AB04B40CB601E808EC02EE08014705900893029888A040A301014C0E5004544057015808607D
:40244000806702900893029888A040A301D406D607D80201500300010C010E01015101000F005100001000513000400051C000100051F000100100000A00010A800580018E
:40248000140008000140000A00014C000200015000002000008080207D050000040800130C0400030204200A031410130C0C7300088000400800004043003C404F003000DE
:4024C0000000734000303F0FC0800008002028000040003402010005C0000E12FFFFFF62A0F0410C00000000000210040404040000000100000000000040020010301000CE
:4025000010101200000000000000000000000000000000010A002493008061000026006930091E031E010100000000000000000000000000000000000000000000000000BD
:40254000000000000000000000000000000000000000000000000000000000000000000000000000000000000000000000000000000000000000000000000000000000005B
:40258000000000000000000000000000000000000000000000000000000000000000000000000000000000000000000000000000000000000000000000000000000000001B
:4025C00000000000000000000000000000000000000000000000000000000000000000000000000000000000000000000000000000000000000000000000000000000000DB
:4026000002CA65008F828E83E0540100000070F82278FFE4F6D8FD02CAF3900020EEF0A3EFF078227C007D017BFF7A53798C7E097F931295759009B57409F0A37493F07831
:40264000BC7C097D017BFF7A5D791F7E007F0F12957578CB7C097D017BFF7A5D792E7E007F1C12957578E77C097D017BFF7A5D794A7E007F1B12957578027C0A7D017BFF75
:402680007A5D79657E007F1C129575781E7C0A7D017BFF7A5D79817E007F2212957578407C0A7D017BFF7A5D79A37E007F2712957578677C0A7D017BFF7A5D79CA7E007F33
:4026C0001112957578787C0A7D017BFF7A5D79DB7E007F1912957578917C0A7D017BFF7A5D79F47E007F1112957578A27C0A7D017BFF7A5E79057E007F1C12957578BE7C18
:402700000A7D017BFF7A5E79217E007F1D12957578DB7C0A7D017BFF7A5E793E7E007F1B12957578F67C0A7D017BFF7A5E79597E007F14129575780A7C0B7D017BFF7A5EBF
:40274000796D7E007F25129575782F7C0B7D017BFF7A5E79927E007F1512957578447C0B7D017BFF7A5E79A77E007F1512957578597C0B7D017BFF7A5E79BC7E007F14121D
:402780009575786D7C0B7D017BFF7A5E79D07E007F2412957578917C0B7D017BFF7A5E79F47E007F1912957578AA7C0B7D017BFF7A5F790D7E007F1812957578C27C0B7DDF
:4027C000017BFF7A5F79257E007F1D12957578DF7C0B7D017BFF7A5F79427E007F1412957578F37C0B7D017BFF7A5F79567E007F2412957578177C0C7D017BFF7A5F797A70
:402800007E007F23129575783A7C0C7D017BFF7A5F799D7E007F11129575784B7C0C7D017BFF7A5F79AE7E007F1512957578607C0C7D017BFF7A5F79C37E007F24129575F6
:4028400078847C0C7D017BFF7A5F79E77E007F2312957578A77C0C7D017BFF7A60790A7E007F2912957578D07C0C7D017BFF7A6079337E007F2812957578F87C0C7D017BA9
:40288000FF7A60795B7E007F2C12957578247C0D7D017BFF7A6079877E007F2012957578447C0D7D017BFF7A6079A77E007F2312957578677C0D7D017BFF7A6079CA7E0088
:4028C0007F25129575788C7C0D7D017BFF7A6079EF7E007F12129575789E7C0D7D017BFF7A6179017E007F1612957578B47C0D7D017BFF7A6179177E007F1F12957578D370
:402900007C0D7D017BFF7A6179367E007F1D12957578F07C0D7D017BFF7A6179537E007F1412957578047C0E7D017BFF7A6179677E007F6412957578687C0E7D017BFF7A87
:402940006179CB7E007F3F12957578A77C0E7D017BFF7A62790A7E007F2A1295757B017A0979BC12F0788F2E7B017A0979CB12F0788F2F7B017A0979E712F0788F307B011D
:402980007A0A796712F0788F317B017A0A797812F0788F327B017A0A799112F0788F337B017A0A79BE12F0788F347B017A0A79DB12F0788F357B017A0A79F612F0788F3653
:4029C0007B017A0B792F12F0788F377B017A0B794412F0788F387B017A0B795912F0788F397B017A0B799112F0788F3A7B017A0C794B12F0788F3B7B017A0E790412F07887
:402A00008F3C7B017A0E796812F0788F3D7B017A0E79A712F0788F3E7B017A0B79DF12F0788F3F7B017A0B79F312F0788F407B017A0C791712F0788F417B017A0C793A123B
:402A4000F0788F427B017A0C79D012F0788F437B017A0C79F812F0788F447B017A0D792412F0788F457B017A0D794412F0788F467B017A0D796712F0788F477B017A0D791A
:402A80008C12F0788F487B017A0D799E12F0788F497B017A0D79B412F0788F4A7B017A0D79D312F0788F4B7B017A0D79F012F0788F4C900022740CF0A37427F0900020E006
:402AC000FEA3E0FFEE60030245B7EFB4280040030245B7902ADAF8282873022B52023F58023F6102403102410102411402411D0241260241510241CF02420C024215024288
:402B0000EB02437102438102438A0243A90243D20243DB0243F20243FB02440402440D02443F02445402448702449C0244D90244F002450702451E024533024543024553B2
:402B400002456802457D02458602458F0245980245A89000247402F0A314F0900EDBE0900026F0852E2CE52C6032FFC3E52E9FFFE49400FE74BC2FF58274093EF583E0FF5E
:402B8000E52CFDE52EC39DFDE49400FC74272DF58274003CF583EFF0152C80CA9000567407F0A37403F0900F0EE064036068900EDCE0FCA3E0FDA3E0FEA3E0FFEC128F498C
:402BC000E4FBFA79807847128E33900058129416900EE0E0FCA3E0FDA3E0FEA3E0FFEC128F49E4FBFA79807847128E3390005C129416900EE4E0FCA3E0FDA3E0FEA3E0FF2D
:402C0000EC128F49E4FBFA79807847128E339000601294168066900EF4E0FCA3E0FDA3E0FEA3E0FFEC128F49E4FBFA79807847128E33900058129416900EF8E0FCA3E0FD07
:402C4000A3E0FEA3E0FFEC128F49E4FBFA79807847128E3390005C129416900EFCE0FCA3E0FDA3E0FEA3E0FFEC128F49E4FBFA79807847128E33900060129416852F2CE5CB
:402C80002C6032FFC3E52F9FFFE49400FE74CB2FF58274093EF583E0FFE52CFDE52FC39DFDE49400FC74642DF58274003CF583EFF0152C80CA9000887407F0A37403F09057
:402CC0000F0EE064036068900EE8E0FCA3E0FDA3E0FEA3E0FFEC128F49E4FBFA79807847128E3390008A129416900EECE0FCA3E0FDA3E0FEA3E0FFEC128F49E4FBFA798022
:402D00007847128E3390008E129416900EF0E0FCA3E0FDA3E0FEA3E0FFEC128F49E4FBFA79807847128E339000921294168066900F00E0FCA3E0FDA3E0FEA3E0FFEC128FB1
:402D400049E4FBFA79807847128E3390008A129416900F04E0FCA3E0FDA3E0FEA3E0FFEC128F49E4FBFA79807847128E3390008E129416900F08E0FCA3E0FDA3E0FEA3E0B3
:402D8000FFEC128F49E4FBFA79807847128E3390009212941685302CE52C6032FFC3E5309FFFE49400FE74E72FF58274093EF583E0FFE52CFDE530C39DFDE49400FC74967C
:402DC0002DF58274003CF583EFF0152C80CAE49000BAF0A304F0900F0CE09000BCF0900F0C601C900ED474FFF0A37445F0A374B8F07B017A0A790212E2D9752D1C801A90EA
:402E00000ED474FFF0A37445F0A374BEF07B017A0A790212E2D9752D1B852D2CE52C6032FFC3E52D9FFFE49400FE74022FF582740A3EF583E0FFE52CFDE52DC39DFDE494AA
:402E400000FC74BD2DF58274003CF583EFF0152C80CA74BD252DF582E43400F5837403F0E49000ECF0A304F0900F0DE09000EEF0900F0DB407004003022F5B902E82F82887
:402E80002873022E97022EB4022ED1022EED022F09022F25022F41900ED474FFF0A37445F0A374C3F07B017A0A791E12E2D9752D14022F5B900ED474FFF0A37445F0A374E3
:402EC000C9F07B017A0A791E12E2D9752D17022F5B900ED474FFF0A37445F0A374D2F07B017A0A791E12E2D9752D21806E900ED474FFF0A37445F0A374E5F07B017A0A79DB
:402F00001E12E2D9752D1D8052900ED474FFF0A37445F0A374F4F07B017A0A791E12E2D9752D198036900ED474FFF0A37445F0A374FFF07B017A0A791E12E2D9752D228055
:402F40001A900ED474FFF0A37446F0A37413F07B017A0A791E12E2D9752D19852D2CE52C6032FFC3E52D9FFFE49400FE741E2FF582740A3EF583E0FFE52CFDE52DC39DFDAB
:402F8000E49400FC74EF2DF58274003CF583EFF0152C80CA74EF252DF582E43400F5837401F0E490011EF0A304F0900F0EE0900120F0900F0E14602614603F1460582403AE
:402FC000706E900ED474FFF0A37446F0A3741EF07B017A0A794012E2D9752D1B8052900ED474FFF0A37446F0A37429F07B017A0A794012E2D9752D168036900ED474FFF07C
:40300000A37446F0A3742FF07B017A0A794012E2D9752D1A801A900ED474FFF0A37446F0A37439F07B017A0A794012E2D9752D27852D2CE52C6032FFC3E52D9FFFE4940015
:40304000FE74402FF582740A3EF583E0FFE52CFDE52DC39DFDE49400FC74212DF58274013CF583EFF0152C80CA7421252DF582E43401F5837402F0900150F0A304F0E4F592
:403080002CE52CC39403501E740F252CF582E4340FF583E0FF7452252CF582E43401F583EFF0052C80DB85312CE52C6032FFC3E5319FFFE49400FE74672FF582740A3EF515
:4030C00083E0FFE52CFDE531C39DFDE49400FC74552DF58274013CF583EFF0152C80CA9001827403F0A3F0E4F52CE52CC394035044E52C25E025E02412F582E4340FF58301
:40310000E0FCA3E0FDA3E0FEA3E0FF740F252CF582E4340FF583E0F9F81293B575F002E52CA42484F582E5F03401F583EEF0A3EFF0052C80B585322CE52C6032FFC3E53239
:403140009FFFE49400FE74782FF582740A3EF583E0FFE52CFDE532C39DFDE49400FC748A2DF58274013CF583EFF0152C80CA9001B47407F0A37403F0E4F52CE52CC3940341
:403180005031E52C25E025E0241EF582E4340FF583E0FCA3E0FDA3E0FEA3E0FF75F004E52CA424B6F582E5F03401F583129416052C80C885332CE52C6032FFC3E5339FFF97
:4031C000E49400FE74912FF582740A3EF583E0FFE52CFDE533C39DFDE49400FC74C22DF58274013CF583EFF0152C80CAE49001E6F0A304F0900F2AE09001E8F0900F2A601A
:403200001C900ED474FFF0A37445F0A374B8F07B017A0A79A212E2D9752D1C801A900ED474FFF0A37445F0A374BEF07B017A0A79A212E2D9752D1B852D2CE52C6032FFC384
:40324000E52D9FFFE49400FE74A22FF582740A3EF583E0FFE52CFDE52DC39DFDE49400FC74E92DF58274013CF583EFF0152C80CA74E9252DF582E43401F5837403F0900224
:40328000187405F0A37402F0E4F52CE52CC394014003023316E52C25E025E0242BF582E4340FF583E0FCA3E0FDA3E0FEA3E0FF740F252CF582E4340FF583E0F9F81293B594
:4032C00075F008E52CA4241AF582E5F03402F583129416E52C25E025E02433F582E4340FF583E0FCA3E0FDA3E0FEA3E0FF740F252CF582E4340FF583E0F9F81293B575F057
:4033000008E52CA4241EF582E5F03402F583129416052C02328B85342CE52C6032FFC3E5349FFFE49400FE74BE2FF582740A3EF583E0FFE52CFDE534C39DFDE49400FC741A
:40334000222DF58274023CF583EFF0152C80CA90024A7405F0A37402F0900F3FE0FCA3E0FDA3E0FEA3E0FF90024C129416900F3BE0FCA3E0FDA3E0FEA3E0FF90025012940D
:403380001685352CE52C6032FFC3E5359FFFE49400FE74DB2FF582740A3EF583E0FFE52CFDE535C39DFDE49400FC74542DF58274023CF583EFF0152C80CA90027C7403F008
:4033C000A37401F0900F43E0FFA3E090027ECFF0A3EFF085362CE52C6032FFC3E5369FFFE49400FE74F62FF582740A3EF583E0FFE52CFDE536C39DFDE49400FC74802DF582
:403400008274023CF583EFF0152C80CAE49002AEF0A304F0900F49E09002B0F0900F49601C900ED474FFF0A37445F0A374B8F07B017A0B790A12E2D9752D25801A900ED469
:4034400074FFF0A37445F0A374BEF07B017A0B790A12E2D9752D24852D2CE52C6032FFC3E52D9FFFE49400FE740A2FF582740B3EF583E0FFE52CFDE52DC39DFDE49400FC2F
:4034800074B12DF58274023CF583EFF0152C80CA74B1252DF582E43402F5837403F09002E004F0A37402F0900F45E0FFA3E09002E2CFF0A3EFF0900F47E0FFA3E09002E4A0
:4034C000CFF0A3EFF085372CE52C6032FFC3E5379FFFE49400FE742F2FF582740B3EF583E0FFE52CFDE537C39DFDE49400FC74E62DF58274023CF583EFF0152C80CA900391
:40350000127406F0A37402F0900F4AE0FCA3E0FDA3E0FEA3E0FF900314129416900F4EE0FCA3E0FDA3E0FEA3E0FF90031812941685382CE52C6032FFC3E5389FFFE4940027
:40354000FE74442FF582740B3EF583E0FFE52CFDE538C39DFDE49400FC741C2DF58274033CF583EFF0152C80CA9003447402F0A314F0900F52E0900346F085392CE52C603D
:4035800032FFC3E5399FFFE49400FE74592FF582740B3EF583E0FFE52CFDE539C39DFDE49400FC74472DF58274033CF583EFF0152C80CAE4900376F0A304F0900F53E09097
:4035C0000378F0900F53601C900ED474FFF0A37445F0A374B8F07B017A0B796D12E2D9752D24801A900ED474FFF0A37445F0A374BEF07B017A0B796D12E2D9752D23852DED
:403600002CE52C6032FFC3E52D9FFFE49400FE746D2FF582740B3EF583E0FFE52CFDE52DC39DFDE49400FC74792DF58274033CF583EFF0152C80CA7479252DF582E4340350
:40364000F5837403F09003A87401F0A3F0900F54E09003AAF0853A2CE52C6032FFC3E53A9FFFE49400FE74912FF582740B3EF583E0FFE52CFDE53AC39DFDE49400FC74ABD9
:403680002DF58274033CF583EFF0152C80CAE49003DAF0A304F0900F55E09003DCF0900F55601C900ED474FFF0A37445F0A374B8F07B017A0B79AA12E2D9752D18801A90A1
:4036C0000ED474FFF0A37445F0A374BEF07B017A0B79AA12E2D9752D17852D2CE52C6032FFC3E52D9FFFE49400FE74AA2FF582740B3EF583E0FFE52CFDE52DC39DFDE49494
:4037000000FC74DD2DF58274033CF583EFF0152C80CA74DD252DF582E43403F5837403F0E490040CF0A304F0900F70E090040EF0900F70601C900ED474FFF0A37445F0A314
:4037400074B8F07B017A0B79C212E2D9752D1D801A900ED474FFF0A37445F0A374BEF07B017A0B79C212E2D9752D1C852D2CE52C6032FFC3E52D9FFFE49400FE74C22FF55B
:4037800082740B3EF583E0FFE52CFDE52DC39DFDE49400FC740F2DF58274043CF583EFF0152C80CA740F252DF582E43404F5837403F090043E7405F0A37401F0900F71E04B
:4037C000FCA3E0FDA3E0FEA3E0FF900F0FE0F9F81293B5900440129416853F2CE52C6032FFC3E53F9FFFE49400FE74DF2FF582740B3EF583E0FFE52CFDE53FC39DFDE49440
:4038000000FC74442DF58274043CF583EFF0152C80CA9004707407F0A37401F0900F75E0FCA3E0FDA3E0FEA3E0FF90047212941685402CE52C6032FFC3E5409FFFE494005D
:40384000FE74F32FF582740B3EF583E0FFE52CFDE540C39DFDE49400FC74762DF58274043CF583EFF0152C80CA9004A27407F0A37401F0E4FFFE7D7A7C44900F79E0F8A32D
:40388000E0F9A3E0FAA3E0FB128D2A9004A412941685412CE52C6032FFC3E5419FFFE49400FE74172FF582740C3EF583E0FFE52CFDE541C39DFDE49400FC74A82DF5827467
:4038C000043CF583EFF0152C80CA9004D47407F0A37401F0900F7DE0FCA3E0FDA3E0FEA3E0FF9004D612941685422CE52C6032FFC3E5429FFFE49400FE743A2FF582740CC3
:403900003EF583E0FFE52CFDE542C39DFDE49400FC74DA2DF58274043CF583EFF0152C80CA9005067407F0A314F0E4F52CE52CC394065031E52C25E025E02456F582E4349F
:403940000FF583E0FCA3E0FDA3E0FEA3E0FF75F004E52CA42408F582E5F03405F583129416052C80C8853B2CE52C6032FFC3E53B9FFFE49400FE744B2FF582740C3EF583C5
:40398000E0FFE52CFDE53BC39DFDE49400FC74202DF58274053CF583EFF0152C80CAE4900538F0A304F0900F83E090053AF0900F83601C900ED474FFF0A37445F0A374B8D3
:4039C000F07B017A0C796012E2D9752D24801A900ED474FFF0A37445F0A374BEF07B017A0C796012E2D9752D23852D2CE52C6032FFC3E52D9FFFE49400FE74602FF5827425
:403A00000C3EF583E0FFE52CFDE52DC39DFDE49400FC743B2DF58274053CF583EFF0152C80CA743B252DF582E43405F5837403F0E490056AF0A304F0900F81E090056CF03B
:403A4000900F81601C900ED474FFF0A37445F0A374B8F07B017A0C798412E2D9752D23801A900ED474FFF0A37445F0A374BEF07B017A0C798412E2D9752D22852D2CE52C3A
:403A80006032FFC3E52D9FFFE49400FE74842FF582740C3EF583E0FFE52CFDE52DC39DFDE49400FC746D2DF58274053CF583EFF0152C80CA746D252DF582E43405F5837419
:403AC00003F0E490059CF0A304F0900F82E090059EF0900F82601C900ED474FFF0A37445F0A374B8F07B017A0C79A712E2D9752D29801A900ED474FFF0A37445F0A374BE4C
:403B0000F07B017A0C79A712E2D9752D28852D2CE52C6032FFC3E52D9FFFE49400FE74A72FF582740C3EF583E0FFE52CFDE52DC39DFDE49400FC749F2DF58274053CF583C8
:403B4000EFF0152C80CA749F252DF582E43405F5837403F09005CE7407F0A37401F0900F84E0FCA3E0FDA3E0FEA3E0FF9005D012941685432CE52C6032FFC3E5439FFFE487
:403B80009400FE74D02FF582740C3EF583E0FFE52CFDE543C39DFDE49400FC74D42DF58274053CF583EFF0152C80CA9006007403F0A37401F0900F88E0FFA3E0900602CFF5
:403BC000F0A3EFF085442CE52C6032FFC3E5449FFFE49400FE74F82FF582740C3EF583E0FFE52CFDE544C39DFDE49400FC74042DF58274063CF583EFF0152C80CA90063211
:403C00007403F0A37401F0900F8AE0FFA3E0900634CFF0A3EFF085452CE52C6032FFC3E5459FFFE49400FE74242FF582740D3EF583E0FFE52CFDE545C39DFDE49400FC7415
:403C4000362DF58274063CF583EFF0152C80CA9006647405F0A37401F0900F8CE0FCA3E0FDA3E0FEA3E0FF90066612941685462CE52C6032FFC3E5469FFFE49400FE7444D2
:403C80002FF582740D3EF583E0FFE52CFDE546C39DFDE49400FC746A2DF58274063CF583EFF0152C80CA9006967405F0A37401F0900F90E0FCA3E0FDA3E0FEA3E0FF900663
:403CC0009812941685472CE52C6032FFC3E5479FFFE49400FE74672FF582740D3EF583E0FFE52CFDE547C39DFDE49400FC749C2DF58274063CF583EFF0152C80CA9006C887
:403D00007402F0A314F0900F94E09006CAF085482CE52C6032FFC3E5489FFFE49400FE748C2FF582740D3EF583E0FFE52CFDE548C39DFDE49400FC74CB2DF58274063CF51E
:403D400083EFF0152C80CA9006FA7402F0A314F0900F95E09006FCF085492CE52C6032FFC3E5499FFFE49400FE749E2FF582740D3EF583E0FFE52CFDE549C39DFDE49400A3
:403D8000FC74FD2DF58274063CF583EFF0152C80CA90072C7402F0A314F0900F96E090072EF0854A2CE52C6032FFC3E54A9FFFE49400FE74B42FF582740D3EF583E0FFE554
:403DC0002CFDE54AC39DFDE49400FC742F2DF58274073CF583EFF0152C80CA90075E7404F0A37401F0900F97E0FFA3E0900760CFF0A3EFF0854B2CE52C6032FFC3E54B9F55
:403E0000FFE49400FE74D32FF582740D3EF583E0FFE52CFDE54BC39DFDE49400FC74622DF58274073CF583EFF0152C80CA9007907404F0A37401F0900F99E0FFA3E0900720
:403E400092CFF0A3EFF0854C2CE52C6032FFC3E54C9FFFE49400FE74F02FF582740D3EF583E0FFE52CFDE54CC39DFDE49400FC74942DF58274073CF583EFF0152C80CA85CE
:403E80003C2CE52C6032FFC3E53C9FFFE49400FE74042FF582740E3EF583E0FFE52CFDE53CC39DFDE49400FC74C22DF58274073CF583EFF0152C80CA853D2CE52C6032FFC8
:403EC000C3E53D9FFFE49400FE74682FF582740E3EF583E0FFE52CFDE53DC39DFDE49400FC74582DF58274083CF583EFF0152C80CA853E2CE52C6032FFC3E53E9FFFE49498
:403F000000FE74A72FF582740E3EF583E0FFE52CFDE53EC39DFDE49400FC74EE2DF58274083CF583EFF0152C80CA7B017A0079229009B5E0A3E014FD12EC0B9009B5E0FC83
:403F4000A3E0FD2421F58274003CF583EFF07B017A00792212D692229010DFE0900FBAF022900F0EE064036064E4FFFE7D807C479010DFE0F8A3E0F9A3E0FAA3E0FB128D41
:403F80002A128F87900FBB129416E4FFFE7D807C479010E3E0F8A3E0F9A3E0FAA3E0FB128D2A128F87900FBF129416E4FFFE7D807C479010E7E0F8A3E0F9A3E0FAA3E0FBA4
:403FC000128D2A128F87900FC312941622E4FFFE7D807C479010DFE0F8A3E0F9A3E0FAA3E0FB128D2A128F87900FD3129416E4FFFE7D807C479010E3E0F8A3E0F9A3E0FA0D
:40400000A3E0FB128D2A128F87900FD7129416E4FFFE7D807C479010E7E0F8A3E0F9A3E0FAA3E0FB128D2A128F87900FDB12941622900F0EE064036064E4FFFE7D807C47C6
:404040009010DFE0F8A3E0F9A3E0FAA3E0FB128D2A128F87900FC7129416E4FFFE7D807C479010E3E0F8A3E0F9A3E0FAA3E0FB128D2A128F87900FCB129416E4FFFE7D80F7
:404080007C479010E7E0F8A3E0F9A3E0FAA3E0FB128D2A128F87900FCF12941622E4FFFE7D807C479010DFE0F8A3E0F9A3E0FAA3E0FB128D2A128F87900FDF129416E4FFAD
:4040C000FE7D807C479010E3E0F8A3E0F9A3E0FAA3E0FB128D2A128F87900FE3129416E4FFFE7D807C479010E7E0F8A3E0F9A3E0FAA3E0FB128D2A128F87900FE712941657
:40410000229010DFE06007900FEB7403F022E4900FEBF0229010DFE0900FECF0229010DFE0900FEDF022E4F52CE52CC3940340030245B774DF252CF582E43410F583E0FFC0
:4041400074EE252CF582E4340FF583EFF0052C80D8E4F52CE52CC394035071E52C25E024DFF582E43410F583E0FEA3E0FFEE3395E0FDFCE52C25E025E024F1F582E4340FF0
:40418000F583129416E52C25E025E024F1F582E4340FF583C083C082E0FCA3E0FDA3E0FEA3E0FF74EE252CF582E4340FF583E0F9F81293C9D082D08312941674AB252CF5D3
:4041C00082E43411F583E4F0052C8088D20A22E4F52CE52CC3940340030245B7E52C25E025E024DFF582E43410F583E0FCA3E0FDA3E0FEA3E0FFE52C25E025E024FDF58299
:40420000E4340FF583129416052C80C69010DFE0901009F022E4F52CE52CC3940240030245B7E52C75F008A424DFF582E43410F583E0FCA3E0FDA3E0FEA3E0FFE52C25E031
:4042400025E0240AF582E43410F583129416E52C75F008A424E3F582E43410F583E0FCA3E0FDA3E0FEA3E0FFE52C25E025E02412F582E43410F583129416E52C25E025E05A
:40428000240AF582E43410F583C083C082E0FCA3E0FDA3E0FEA3E0FF74EE252CF582E4340FF583E0F9F81293C9D082D083129416E52C25E025E02412F582E43410F583C044
:4042C00083C082E0FCA3E0FDA3E0FEA3E0FF74EE252CF582E4340FF583E0F9F81293C9D082D083129416052C0242189010DFE0FCA3E0FDA3E0FEA3E0FF9009B7129416E4D6
:40430000FFFEFDFC9009B7E0F8A3E0F9A3E0FAA3E0FBD312937B50149009B7E0FCA3E0FDA3E0FEA3E0FF90101E1294169010E3E0FCA3E0FDA3E0FEA3E0FF9009B71294167A
:40434000E4FFFEFDFC9009B7E0F8A3E0F9A3E0FAA3E0FBC312937B50030245B79009B7E0FCA3E0FDA3E0FEA3E0FF90101A129416229010DFE0FFA3E0901022CFF0A3EFF065
:40438000229010DFE0901028F0229010DFE0FFA3E0901024CFF0A3EFF09010E1E0FFA3E0901026CFF0A3EFF0229010DFE0FCA3E0FDA3E0FEA3E0FF9010291294169010E3CA
:4043C000E0FCA3E0FDA3E0FEA3E0FF90102D129416229010DFE0901031F0229010DFE09009BBF060079010327401F022E4901032F0229010DFE0901033F0229010DFE09013
:404400001034F0229010DFE090104FF0229010DFE0FCA3E0FDA3E0FEA3E0FF901050129416901050E0FCA3E0FDA3E0FEA3E0FF900FEEE0F9F81293C99010501294162290C3
:4044400010DFE0FCA3E0FDA3E0FEA3E0FF901054129416229010DFE0FCA3E0FDA3E0FEA3E0FF901058129416901058E0FCA3E0FDA3E0FEA3E0FFE4FBFA797A7844128E33D8
:40448000901058129416229010DFE0FCA3E0FDA3E0FEA3E0FF90105C12941622E4F52CE52CC3940640030245B7E52C25E025E024DFF582E43410F583E0FCA3E0FDA3E0FEA8
:4044C000A3E0FFE52C25E025E02435F582E43410F583129416052C80C69010DFE09009BBF060079010627401F022E4901062F0229010DFE09009BBF060079010607401F082
:4045000022E4901060F0229010DFE09009BBF060079010617401F022E4901061F0229010DFE0FCA3E0FDA3E0FEA3E0FF901063129416229010DFE0FFA3E0901067CFF0A3D1
:40454000EFF0229010DFE0FFA3E0901069CFF0A3EFF0229010DFE0FCA3E0FDA3E0FEA3E0FF90106B129416229010DFE0FCA3E0FDA3E0FEA3E0FF90106F129416229010DFDC
:40458000E0901073F0229010DFE0901074F0229010DFE0901075F0229010DFE0FFA3E0901076CFF0A3EFF0229010DFE0FFA3E0901078CFF0A3EFF022205945530000204EB6
:4045C0004F00002055736200002048616E646C65000020454D472070726F706F7274696F6E616C000020454D4720696E74656772616C000020454D472046434653000020AA
:40460000454D47204643465320416476616E6365640000204A6F79737469636B000020506F736974696F6E00002050574D00002043757272656E74000020506F7369746995
:404640006F6E20616E642043757272656E740000000D0A004669726D776172652076657273696F6E3A200053482D50524F2076362E312E32202D204D617374657220772F50
:404680005265737420706F736974696F6E20616E642048617074696320466565646261636B002E0D0A0D0A0044455649434520494E464F0D0A0049443A2025640D0A005090
:4046C000574D2072657363616C696E672061637469766174696F6E3A20005945530A004E4F0A0050574D204C696D69743A2025640D0A004D4F544F5220494E464F0D0A00EF
:404700004D6F746F72207265666572656E636500202D2043757272656E74733A2000202D2050776D3A2000202D20506F736974696F6E3A2000256420004D6F746F72206526
:404740006E61626C65643A20005945530D0A004E4F0D0A000D0A4D4541535552454D454E545320494E464F0D0A0053656E736F722076616C75653A0D0A002564202D3E206E
:404780002564004261747465727920566F6C7461676520286D56293A20256C640046756C6C2063686172676520706F7765722074656E73696F6E20286D56293A20256C6413
:4047C0000043757272656E7420286D41293A20256C64000D0A44455649434520504152414D45544552530D0A0050494420436F6E74726F6C6C65723A0D0A0050202D3E2009
:40480000256620200049202D3E20256620200044202D3E2025660D0A0043757272656E742050494420436F6E74726F6C6C65723A0D0A0053746172747570206163746976BE
:404840006174696F6E3A205945530D0A00537461727475702061637469766174696F6E3A204E4F0D0A00496E707574206D6F64653A205553420D0A00496E707574206D6F2C
:4048800064653A2048616E646C650D0A00496E707574206D6F64653A20454D472070726F706F7274696F6E616C0D0A00496E707574206D6F64653A20454D4720696E746532
:4048C0006772616C0D0A00496E707574206D6F64653A20454D4720464346530D0A00496E707574206D6F64653A20454D472046434653204144560D0A00496E707574206DA1
:404900006F64653A204A6F79737469636B0D0A00436F6E74726F6C206D6F64653A20506F736974696F6E0D0A00436F6E74726F6C206D6F64653A2050574D0D0A00436F6EE7
:4049400074726F6C206D6F64653A2043757272656E740D0A00436F6E74726F6C206D6F64653A20506F736974696F6E20616E642043757272656E740D0A004162736F6C7535
:40498000746520656E636F64657220706F736974696F6E3A205945530D0A004162736F6C75746520656E636F64657220706F736974696F6E3A204E4F0D0A004D6F746F7234
:4049C0002D48616E646C6520526174696F3A2025640D0A0053656E736F72207265736F6C7574696F6E3A0D0A004D6561737572656D656E74204F66667365743A0D0A002563
:404A000064202D3E20256C64004D6561737572656D656E74204D756C7469706C6965723A0D0A002564202D3E2025660043757272656E74206C6F6F6B7570207461626C65D0
:404A40003A0D0A00705B305D202D20705B325D3A2025662C2025662C2025660A00705B335D202D20705B355D3A2025662C2025662C2025660A00506F736974696F6E206C86
:404A8000696D6974206163746976653A20256400506F736974696F6E206C696D6974206D6F746F722025643A20696E66202D3E20256C64202000737570202D3E20256C64C7
:404AC0000D0A004D6178207374657020706F7320616E64206E65673A2025642025640043757272656E74206C696D69743A202564004A6F79737469636B20636C6F737572E5
:404B0000652073706565643A202564004A6F79737469636B206761696E3A2025687500454D47207468726573686F6C6473205B30202D20313032345D3A2025752C20257542
:404B400000454D47206D61782076616C756573205B30202D20343039365D3A20256C752C20256C750043616C6962726174696F6E20656E61626C65643A205945530D0A0097
:404B800043616C6962726174696F6E20656E61626C65643A204E4F0D0A00454D47206D61782073706565643A20256400526573742074696D652064656C617920286D732954
:404BC0003A20256600526573742076656C6F6369747920636C6F7375726520287469636B732F736563293A202566005265737420706F736974696F6E3A2025640052657368
:404C00007420726174696F3A202566004D796F656C65637472696320636173652032204D61737465723A205945530D0A004D796F656C6563747269632063617365203220B2
:404C40004D61737465723A204E4F0D0A004D6173746572207769746820466F726365206465766963653A205945530D0A004D6173746572207769746820466F726365206496
:404C800065766963653A204E4F0D0A004D617374657220776974682050726F7072696F63657074697665206465766963653A205945530D0A004D617374657220776974685D
:404CC0002050726F7072696F63657074697665206465766963653A204E4F0D0A0064656275673A20256C6400000000000000000000000000000000000000000000000000C5
:404D00000000000000000000000000000000000000000000000000000000000000000000000000000000000000000000000000000000000000000000000000000000000073
:404D40000000000000000000000000000000000000000000000000000000000000000000000000000000000000000000000000000000000000000000000000000000000033
:404D800000000000000000000000000000000000000000000000000000000000000000000000000000000000000000000000000000000000000000000000000000000000F3
:404DC00000000000000000000000000000000000000000000000000000000000000000000000000000000000000000000000000000000000000000000000000000000000B3
:405D00000000000000000000000000000000000000000000000000000000000000000031202D204465766963652049443A0032202D20506F736974696F6E20504944205B22
:405D4000502C20492C20445D3A0033202D2043757272656E7420504944205B502C20492C20445D3A0034202D20537461727475702041637469766174696F6E3A0000000010
:405D80000035202D20496E707574206D6F64653A0000000000000000000000000000000000000036202D20436F6E74726F6C206D6F64653A000000000000000000000000AF
:405DC0000000000000000000000037202D205265736F6C7574696F6E733A0038202D204D6561737572656D656E74204F6666736574733A0039202D204D756C7469706C69C9
:405E00006572733A003130202D20506F732E206C696D6974206163746976653A00000000003131202D20506F732E206C696D697473205B696E662C207375705D3A00313264
:405E4000202D204D6178207374657073205B6E65672C20706F735D3A003133202D2043757272656E74206C696D69743A003134202D20454D472063616C6962726174696F44
:405E80006E206F6E20737461727475703A00000000003135202D20454D47207468726573686F6C64733A003136202D20454D47206D61782076616C7565733A003137202D12
:405EC00020454D47206D61782073706565643A003138202D204162736F6C75746520656E636F64657220706F736974696F6E3A00000000003139202D204D6F746F72206884
:405F0000616E646C6520726174696F3A003230202D2050574D2072657363616C696E673A00000000003231202D205265737420706F736974696F6E20666C61673A00000018
:405F400000003232202D205265737420706F736974696F6E3A003233202D205265737420706F736974696F6E2074696D652064656C617920286D73293A003234202D205230
:405F80006573742076656C20636C6F7375726520287469636B732F736563293A003235202D205265737420726174696F3A003236202D2043757272656E74206C6F6F6B75F1
:405FC000703A003237202D204D796F656C65637472696320636173652032204D61737465723A00000000003238202D204D6173746572207769746820466F726365206465B6
:40600000766963653A00000000003239202D204D617374657220776974682050726F7072696F632E206465766963653A000000000000003330202D2043757272656E742026
:4060400070726F706F7274696F6E616C206761696E2028666F726365293A003331202D2043757272656E7420646966666572656E63652073617475726174696F6E20286687
:406080006F726365293A003332202D2043757272656E742064656164207A6F6E652028666F726365293A003333202D204D617820736C696465206D6F76656D656E742028DE
:4060C00070726F7072696F293A003334202D204D617820536F667448616E6420636C6F73757265202870726F7072696F293A003335202D20536F667448616E642049443A5B
:40610000003336202D20466F726365206465766963652049443A003337202D2050726F7072696F63657074697665206465766963652049443A003338202D204A6F79737409
:4061400069636B20636C6F737572652073706565643A003339202D204A6F79737469636B206761696E3A0030202D3E205573620A31202D3E2048616E646C650A32202D3E40
:4061800020454D472070726F702E0A33202D3E20454D4720496E7465672E0A34202D3E20454D4720464346530A35202D3E20454D472046434653204164762E0A36202D3E94
:4061C000204A6F79737469636B0A0030202D3E20506F736974696F6E0A31202D3E2050574D0A32202D3E2043757272656E740A33202D3E20506F736974696F6E20616E64C1
:406200002043757272656E740A0030202D3E2044656163746976617465205B4E4F5D0A31202D3E204163746976617465205B5945535D0A009006C6EBF0A3EAF0A3E9F0905D
:406240000EDBE064FA7003027A819006C6E0FBA3E0FAA3E0F8AC02AD037BFF7A467950129653900ED474FFF0A37446F0A37451F09006C6E0FBA3E0FAA3E0F912E2D9900EE7
:40628000D474FFF0A37446F0A37454F09006C6E0FBA3E0FAA3E0F912E2D9900ED474FFF0A37446F0A37467F09006C6E0FBA3E0FAA3E0F912E2D9900ED474FFF0A37446F053
:4062C000A374A2F09006C6E0FBA3E0FAA3E0F912E2D9900ED474FFF0A37446F0A374A8F09006C6E0FBA3E0FAA3E0F912E2D990073274FFF0A37446F0A374B6F0900EDBE09B
:40630000FF900735E4F0A3EFF07B017A0679CB12AF3A900ED47401F0A37406F0A374CBF09006C6E0FBA3E0FAA3E0F912E2D9900ED474FFF0A37446F0A374BFF09006C6E02A
:40634000FBA3E0FAA3E0F912E2D9900F55E0B4011E900ED474FFF0A37446F0A374DAF09006C6E0FBA3E0FAA3E0F912E2D9801C900ED474FFF0A37446F0A374DFF09006C6B5
:40638000E0FBA3E0FAA3E0F912E2D990073274FFF0A37446F0A374E3F09011D3E0FF900735E4F0A3EFF07B017A0679CB12AF3A900ED47401F0A37406F0A374CBF09006C617
:4063C000E0FBA3E0FAA3E0F912E2D9900ED474FFF0A37446F0A37451F09006C6E0FBA3E0FAA3E0F912E2D9900ED474FFF0A37446F0A374F3F09006C6E0FBA3E0FAA3E0F939
:4064000012E2D9900ED474FFF0A37447F0A37400F09006C6E0FBA3E0FAA3E0F912E2D9900FEDE0B4021E900ED474FFF0A37447F0A37410F09006C6E0FBA3E0FAA3E0F912AC
:40644000E2D98041900FEDE0B4011E900ED474FFF0A37447F0A3741EF09006C6E0FBA3E0FAA3E0F912E2D9801C900ED474FFF0A37447F0A37427F09006C6E0FBA3E0FAA3D8
:40648000E0F912E2D9E49006C9F0A3F0C39006CAE094029006C9E06480948040030265F0900FEDE06402705F90073274FFF0A37447F0A37435F09006C9E0FEA3E07802C3B2
:4064C00033CE33CED8F924A8F582740F3EF583E0A3E0A3E0FFA3E0900735CFF0A3EFF07B017A0679CB12AF3A900ED47401F0A37406F0A374CBF09006C6E0FBA3E0FAA3E0B0
:40650000F912E2D90265DF900FEDE06401705E90073274FFF0A37447F0A37435F09006C9E0FEA3E07802C333CE33CED8F924B0F582740F3EF583E0A3E0A3E0FFA3E09007A7
:4065400035CFF0A3EFF07B017A0679CB12AF3A900ED47401F0A37406F0A374CBF09006C6E0FBA3E0FAA3E0F912E2D9807290073274FFF0A37447F0A37435F09006C9E0FAD6
:40658000A3E0FBAE027802C333CE33CED8F924A0F582740F3EF583E0FCA3E0FDA3E0FEA3E0FF740F2BF582740F3AF583E0F9F81293B5900735EEF0A3EFF07B017A0679CBD9
:4065C00012AF3A900ED47401F0A37406F0A374CBF09006C6E0FBA3E0FAA3E0F912E2D99006CAE004F070069006C9E004F002648C900ED474FFF0A37446F0A37451F090060E
:40660000C6E0FBA3E0FAA3E0F912E2D9900ED474FFF0A37446F0A37451F09006C6E0FBA3E0FAA3E0F912E2D990073274FFF0A37447F0A37439F07B017A0679CB12AF3A90F7
:406640000FB8E054036019900ED474FFF0A37447F0A37449F07B017A0679CB12E2D98017900ED474FFF0A37447F0A3744FF07B017A0679CB12E2D9900ED47401F0A3740612
:40668000F0A374CBF09006C6E0FBA3E0FAA3E0F912E2D9900ED474FFF0A37447F0A37454F09006C6E0FBA3E0FAA3E0F912E2D9900ED474FFF0A37447F0A3746AF09006C6B0
:4066C000E0FBA3E0FAA3E0F912E2D9E49006C9F0A3F0C39006CAE094039006C9E064809480400302679890073274FFF0A37447F0A3747AF09006C9E0FCA3E0FD2401FEE461
:406700003C900735F0A3CEF0EDAE047802C333CE33CED8F92497F58274113EF583E0FCA3E0FDA3E0FEA3E0FF9006C9E0FAA3E0240FF582740F3AF583E0F9F81293B5900728
:4067400037EEF0A3EFF07B017A0679CB12AF3A900ED47401F0A37406F0A374CBF09006C6E0FBA3E0FAA3E0F912E2D9900ED474FFF0A37446F0A37451F09006C6E0FBA3E060
:40678000FAA3E0F912E2D99006CAE004F070069006C9E004F00266D290073274FFF0A37447F0A37483F09010BFE0FCA3E0FDA3E0FEA3E0FF9007351294167B017A0679CBF5
:4067C00012AF3A900ED47401F0A37406F0A374CBF09006C6E0FBA3E0FAA3E0F912E2D9900ED474FFF0A37446F0A37451F09006C6E0FBA3E0FAA3E0F912E2D990073274FF38
:40680000F0A37447F0A3749DF090117EE0FCA3E0FDA3E0FEA3E0FF9007351294167B017A0679CB12AF3A900ED47401F0A37406F0A374CBF09006C6E0FBA3E0FAA3E0F9123D
:40684000E2D9900ED474FFF0A37446F0A37451F09006C6E0FBA3E0FAA3E0F912E2D990073274FFF0A37447F0A374C1F09011A3E0FCA3E0FDA3E0FEA3E0FF90073512941679
:406880007B017A0679CB12AF3A900ED47401F0A37406F0A374CBF09006C6E0FBA3E0FAA3E0F912E2D9900ED474FFF0A37446F0A37451F09006C6E0FBA3E0FAA3E0F912E24C
:4068C000D9900ED474FFF0A37447F0A374D3F09006C6E0FBA3E0FAA3E0F912E2D9900ED474FFF0A37447F0A374E9F09006C6E0FBA3E0FAA3E0F912E2D9900F0EE064037051
:4069000003026A0690073274FFF0A37447F0A374FBF0900EDCE0FCA3E0FDA3E0FEA3E0FFEC128F49E4FBFA79807847128E339007351294167B017A0679CB12AF3A900ED41E
:406940007401F0A37406F0A374CBF09006C6E0FBA3E0FAA3E0F912E2D990073274FFF0A37448F0A37405F0900EE0E0FCA3E0FDA3E0FEA3E0FFEC128F49E4FBFA798078470B
:40698000128E339007351294167B017A0679CB12AF3A900ED47401F0A37406F0A374CBF09006C6E0FBA3E0FAA3E0F912E2D990073274FFF0A37448F0A3740FF0900EE4E09B
:4069C000FCA3E0FDA3E0FEA3E0FFEC128F49E4FBFA79807847128E339007351294167B017A0679CB12AF3A900ED47401F0A37406F0A374CBF09006C6E0FBA3E0FAA3E0F935
:406A000012E2D9026B0590073274FFF0A37447F0A374FBF0900EF4E0FCA3E0FDA3E0FEA3E0FFEC128F49E4FBFA79807847128E339007351294167B017A0679CB12AF3A901D
:406A40000ED47401F0A37406F0A374CBF09006C6E0FBA3E0FAA3E0F912E2D990073274FFF0A37448F0A37405F0900EF8E0FCA3E0FDA3E0FEA3E0FFEC128F49E4FBFA7980CF
:406A80007847128E339007351294167B017A0679CB12AF3A900ED47401F0A37406F0A374CBF09006C6E0FBA3E0FAA3E0F912E2D990073274FFF0A37448F0A3740FF0900E9F
:406AC000FCE0FCA3E0FDA3E0FEA3E0FFEC128F49E4FBFA79807847128E339007351294167B017A0679CB12AF3A900ED47401F0A37406F0A374CBF09006C6E0FBA3E0FAA331
:406B0000E0F912E2D9900ED474FFF0A37448F0A37419F09006C6E0FBA3E0FAA3E0F912E2D9900F0EE064037003026C2E90073274FFF0A37447F0A374FBF0900EE8E0FCA3EA
:406B4000E0FDA3E0FEA3E0FFEC128F49E4FBFA79807847128E339007351294167B017A0679CB12AF3A900ED47401F0A37406F0A374CBF09006C6E0FBA3E0FAA3E0F912E25E
:406B8000D990073274FFF0A37448F0A37405F0900EECE0FCA3E0FDA3E0FEA3E0FFEC128F49E4FBFA79807847128E339007351294167B017A0679CB12AF3A900ED47401F0B8
:406BC000A37406F0A374CBF09006C6E0FBA3E0FAA3E0F912E2D990073274FFF0A37448F0A3740FF0900EF0E0FCA3E0FDA3E0FEA3E0FFEC128F49E4FBFA79807847128E3301
:406C00009007351294167B017A0679CB12AF3A900ED47401F0A37406F0A374CBF09006C6E0FBA3E0FAA3E0F912E2D9026D2D90073274FFF0A37447F0A374FBF0900F00E047
:406C4000FCA3E0FDA3E0FEA3E0FFEC128F49E4FBFA79807847128E339007351294167B017A0679CB12AF3A900ED47401F0A37406F0A374CBF09006C6E0FBA3E0FAA3E0F9B2
:406C800012E2D990073274FFF0A37448F0A37405F0900F04E0FCA3E0FDA3E0FEA3E0FFEC128F49E4FBFA79807847128E339007351294167B017A0679CB12AF3A900ED4749B
:406CC00001F0A37406F0A374CBF09006C6E0FBA3E0FAA3E0F912E2D990073274FFF0A37448F0A3740FF0900F08E0FCA3E0FDA3E0FEA3E0FFEC128F49E4FBFA7980784712B7
:406D00008E339007351294167B017A0679CB12AF3A900ED47401F0A37406F0A374CBF09006C6E0FBA3E0FAA3E0F912E2D9900ED474FFF0A37446F0A37451F09006C6E0FB6B
:406D4000A3E0FAA3E0F912E2D9900F0CE0B4031E900ED474FFF0A37448F0A37433F09006C6E0FBA3E0FAA3E0F912E2D9801C900ED474FFF0A37448F0A3744DF09006C6E042
:406D8000FBA3E0FAA3E0F912E2D9900F0DE0B407004003026E84906D9DF8282873026DB2026DD1026DF0026E0E026E2C026E4A026E68900ED474FFF0A37448F0A37466F042
:406DC0009006C6E0FBA3E0FAA3E0F912E2D9026E84900ED474FFF0A37448F0A37478F09006C6E0FBA3E0FAA3E0F912E2D9026E84900ED474FFF0A37448F0A3748DF09006C0
:406E0000C6E0FBA3E0FAA3E0F912E2D98076900ED474FFF0A37448F0A374ACF09006C6E0FBA3E0FAA3E0F912E2D98058900ED474FFF0A37448F0A374C7F09006C6E0FBA37D
:406E4000E0FAA3E0F912E2D9803A900ED474FFF0A37448F0A374DEF09006C6E0FBA3E0FAA3E0F912E2D9801C900ED474FFF0A37448F0A374F9F09006C6E0FBA3E0FAA3E038
:406E8000F912E2D9900F0EE014602814604314605E24037076900ED474FFF0A37449F0A37410F09006C6E0FBA3E0FAA3E0F912E2D98058900ED474FFF0A37449F0A37429D7
:406EC000F09006C6E0FBA3E0FAA3E0F912E2D9803A900ED474FFF0A37449F0A3743DF09006C6E0FBA3E0FAA3E0F912E2D9801C900ED474FFF0A37449F0A37455F09006C60C
:406F0000E0FBA3E0FAA3E0F912E2D9900F53E0601E900ED474FFF0A37449F0A3747AF09006C6E0FBA3E0FAA3E0F912E2D9801C900ED474FFF0A37449F0A3749BF09006C6FE
:406F4000E0FBA3E0FAA3E0F912E2D990073274FFF0A37449F0A374BBF0900F54E0FE3395E0900735F0A3CEF07B017A0679CB12AF3A900ED47401F0A37406F0A374CBF0901B
:406F800006C6E0FBA3E0FAA3E0F912E2D9900ED474FFF0A37449F0A374D4F09006C6E0FBA3E0FAA3E0F912E2D9E49006C9F0A3F0C39006CAE094039006C9E0648094804090
:406FC0000302704C90073274FFF0A37447F0A3747AF09006C9E0FCA3E0FD2401FEE43C900735F0A3CEF0740F2DF582740F3CF583E0FF900737E4F0A3EFF07B017A0679CB19
:4070000012AF3A900ED47401F0A37406F0A374CBF09006C6E0FBA3E0FAA3E0F912E2D9900ED474FFF0A37446F0A37451F09006C6E0FBA3E0FAA3E0F912E2D99006CAE004E7
:40704000F070069006C9E004F0026FB0900ED474FFF0A37449F0A374E9F09006C6E0FBA3E0FAA3E0F912E2D9E49006C9F0A3F0C39006CAE094039006C9E06480948040036A
:4070800002713390073274FFF0A37449F0A374FFF09006C9E0FCA3E0FD2401FEE43C900735F0A3CEF0EDAE047802C333CE33CED8F92412F582740F3EF583E0FCA3E0FDA3F9
:4070C000E0FEA3E0FF9006C9E0FAA3E0240FF582740F3AF583E0F9F81293B59007371294167B017A0679CB12AF3A900ED47401F0A37406F0A374CBF09006C6E0FBA3E0FA3B
:40710000A3E0F912E2D9900ED474FFF0A37446F0A37451F09006C6E0FBA3E0FAA3E0F912E2D99006CAE004F070069006C9E004F002706F900ED474FFF0A3744AF0A374098B
:40714000F09006C6E0FBA3E0FAA3E0F912E2D9E49006C9F0A3F0C39006CAE094039006C9E064809480400302720490073274FFF0A3744AF0A37423F09006C9E0FCA3E0FD6E
:407180002401FEE43C900735F0A3CEF0EDAE047802C333CE33CED8F9241EF582740F3EF583E0FCA3E0FDA3E0FEA3E0FF9007371294167B017A0679CB12AF3A900ED47401C3
:4071C000F0A37406F0A374CBF09006C6E0FBA3E0FAA3E0F912E2D9900ED474FFF0A37446F0A37451F09006C6E0FBA3E0FAA3E0F912E2D99006CAE004F070069006C9E0045F
:40720000F0027156900ED474FFF0A3744AF0A3742CF09006C6E0FBA3E0FAA3E0F912E2D990073274FFF0A3744AF0A37444F0900F56E0FCA3E0FDA3E0FEA3E0FF9007351245
:407240009416900F5AE0FCA3E0FDA3E0FEA3E0FF900739129416900F5EE0FCA3E0FDA3E0FEA3E0FF90073D1294167B017A0679CB12AF3A900ED47401F0A37406F0A374CB93
:40728000F09006C6E0FBA3E0FAA3E0F912E2D990073274FFF0A3744AF0A3745DF0900F62E0FCA3E0FDA3E0FEA3E0FF900735129416900F66E0FCA3E0FDA3E0FEA3E0FF9024
:4072C0000739129416900F6AE0FCA3E0FDA3E0FEA3E0FF90073D1294167B017A0679CB12AF3A900ED47401F0A37406F0A374CBF09006C6E0FBA3E0FAA3E0F912E2D9900E0E
:40730000D474FFF0A37446F0A37451F09006C6E0FBA3E0FAA3E0F912E2D990073274FFF0A3744AF0A37476F0901009E0FF900735E4F0A3EFF07B017A0679CB12AF3A900EF7
:40734000D47401F0A37406F0A374CBF09006C6E0FBA3E0FAA3E0F912E2D9900ED474FFF0A37446F0A37451F09006C6E0FBA3E0FAA3E0F912E2D9E49006C9F0A3F0C3900662
:40738000CAE094019006C9E064809480400302749590073274FFF0A3744AF0A37490F09006C9E0FCA3E0FD2401FEE43C900735F0A3CEF0EDAE047802C333CE33CED8F92407
:4073C0000AF58274103EF583E0FCA3E0FDA3E0FEA3E0FF9006C9E0FAA3E024EEF582740F3AF583E0F9F81293B59007371294167B017A0679CB12AF3A900ED47401F0A3741B
:4074000006F0A374CBF09006C6E0FBA3E0FAA3E0F912E2D990073274FFF0A3744AF0A374B6F09006C9E0FAA3E0FBAE027802C333CE33CED8F92412F58274103EF583E0FC13
:40744000A3E0FDA3E0FEA3E0FF74EE2BF582740F3AF583E0F9F81293B59007351294167B017A0679CB12AF3A900ED47401F0A37406F0A374CBF09006C6E0FBA3E0FAA3E075
:40748000F912E2D99006CAE004F070069006C9E004F002737D90073274FFF0A3744AF0A374C3F090101AE0A3E0A3E0FFA3E0900735CFF0A3EFF090101EE0A3E0A3E0FFA37B
:4074C000E0900737CFF0A3EFF07B017A0679CB12AF3A900ED47401F0A37406F0A374CBF09006C6E0FBA3E0FAA3E0F912E2D9900ED474FFF0A37446F0A37451F09006C6E0F9
:40750000FBA3E0FAA3E0F912E2D990073274FFF0A3744AF0A374DFF0901022E0FFA3E0900735CFF0A3EFF07B017A0679CB12AF3A900ED47401F0A37406F0A374CBF090066F
:40754000C6E0FBA3E0FAA3E0F912E2D9900ED474FFF0A37446F0A37451F09006C6E0FBA3E0FAA3E0F912E2D990073274FFF0A3744AF0A374F1F0900F97E0FFA3E090073554
:40758000CFF0A3EFF07B017A0679CB12AF3A900ED47401F0A37406F0A374CBF09006C6E0FBA3E0FAA3E0F912E2D9900ED474FFF0A37446F0A37451F09006C6E0FBA3E0FA6E
:4075C000A3E0F912E2D990073274FFF0A3744BF0A3740CF0900F99E0FFA3E0900735CFF0A3EFF07B017A0679CB12AF3A900ED47401F0A37406F0A374CBF09006C6E0FBA33F
:40760000E0FAA3E0F912E2D9900ED474FFF0A37446F0A37451F09006C6E0FBA3E0FAA3E0F912E2D990073274FFF0A3744BF0A3741FF0901024E0FFA3E0900735CFF0A3EFC9
:40764000F0901026E0FFA3E0900737CFF0A3EFF07B017A0679CB12AF3A900ED47401F0A37406F0A374CBF09006C6E0FBA3E0FAA3E0F912E2D9900ED474FFF0A37446F0A330
:407680007451F09006C6E0FBA3E0FAA3E0F912E2D990073274FFF0A3744BF0A37441F0901029E0FCA3E0FDA3E0FEA3E0FF90073512941690102DE0FCA3E0FDA3E0FEA3E075
:4076C000FF9007391294167B017A0679CB12AF3A900ED47401F0A37406F0A374CBF09006C6E0FBA3E0FAA3E0F912E2D9900ED474FFF0A37446F0A37451F09006C6E0FBA3BD
:40770000E0FAA3E0F912E2D9901028E0601E900ED474FFF0A3744BF0A37465F09006C6E0FBA3E0FAA3E0F912E2D9801C900ED474FFF0A3744BF0A37480F09006C6E0FBA34C
:40774000E0FAA3E0F912E2D990073274FFF0A3744BF0A3749AF0901031E0FF900735E4F0A3EFF07B017A0679CB12AF3A900ED47401F0A37406F0A374CBF09006C6E0FBA32A
:40778000E0FAA3E0F912E2D9900ED474FFF0A37446F0A37451F09006C6E0FBA3E0FAA3E0F912E2D990073274FFF0A3744BF0A374ACF0901054E0FCA3E0FDA3E0FEA3E0FFAB
:4077C0009007351294167B017A0679CB12AF3A900ED47401F0A37406F0A374CBF09006C6E0FBA3E0FAA3E0F912E2D9900ED474FFF0A37446F0A37451F09006C6E0FBA3E0DF
:40780000FAA3E0F912E2D990073274FFF0A3744BF0A374C5F0E4FFFE7D7A7C44901058E0F8A3E0F9A3E0FAA3E0FB128D2A9007351294167B017A0679CB12AF3A900ED4746A
:4078400001F0A37406F0A374CBF09006C6E0FBA3E0FAA3E0F912E2D9900ED474FFF0A37446F0A37451F09006C6E0FBA3E0FAA3E0F912E2D990073274FFF0A3744BF0A3742F
:40788000EBF0901050E0FCA3E0FDA3E0FEA3E0FF900F0FE0F9F81293B5900735EEF0A3EFF07B017A0679CB12AF3A900ED47401F0A37406F0A374CBF09006C6E0FBA3E0FAF4
:4078C000A3E0F912E2D9900ED474FFF0A37446F0A37451F09006C6E0FBA3E0FAA3E0F912E2D990073274FFF0A3744BF0A374FDF090105CE0FCA3E0FDA3E0FEA3E0FF900754
:40790000351294167B017A0679CB12AF3A900ED47401F0A37406F0A374CBF09006C6E0FBA3E0FAA3E0F912E2D9900ED474FFF0A37446F0A37451F09006C6E0FBA3E0FAA397
:40794000E0F912E2D9901062E0601E900ED474FFF0A3744CF0A3740CF09006C6E0FBA3E0FAA3E0F912E2D9801C900ED474FFF0A3744CF0A3742DF09006C6E0FBA3E0FAA37A
:40798000E0F912E2D9901060E0601E900ED474FFF0A3744CF0A3744DF09006C6E0FBA3E0FAA3E0F912E2D9801C900ED474FFF0A3744CF0A3746DF09006C6E0FBA3E0FAA3BB
:4079C000E0F912E2D9901061E0601E900ED474FFF0A3744CF0A3748CF09006C6E0FBA3E0FAA3E0F912E2D9801C900ED474FFF0A3744CF0A374B5F09006C6E0FBA3E0FAA3F3
:407A0000E0F912E2D990073274FFF0A3744CF0A374DDF09010BBE0F8A3E0F9A3E0FAA3E0FB901182E0FCA3E0FDA3E0FEA3E0C39BFFEE9AFEED99FDEC98FC900735129416A2
:407A40007B017A0679CB12AF3A900ED47401F0A37406F0A374CBF09006C6E0FBA3E0FAA3E0F912E2D9900ED474FFF0A37446F0A37451F09006C6E0FBA3E0FAA3E0F912E27A
:407A8000D922E4F526F525F524F523900EDCE0FCA3E0FDA3E0FEA3E0F5468E458D448C43A3E0FCA3E0FDA3E0FEA3E0F54A8E498D488C47A3E0FCA3E0FDA3E0FEA3E0F54EF2
:407AC0008E4D8D4C8C4BA3E0FCA3E0FDA3E0FEA3E0F5528E518D508C4FA3E0FCA3E0FDA3E0FEA3E0F5568E558D548C53A3E0FCA3E0FDA3E0FEA3E0F55A8E598D588C57A385
:407B0000E0FCA3E0FDA3E0FEA3E0F55E8E5D8D5C8C5BA3E0FCA3E0FDA3E0FEA3E0F5628E618D608C5FA3E0FCA3E0FDA3E0FEA3E0F5668E658D648C63A3E0FCA3E0FDA3E003
:407B4000FEA3E0F56A8E698D688C67A3E0FCA3E0FDA3E0FEA3E0F56E8E6D8D6C8C6BA3E0FCA3E0FDA3E0FEA3E0F5728E718D708C6F900F45E0FEA3E0FFFBAA06E49011AE72
:407B8000E0FCA3E0FDA3E0FEA3E0C39BF53AEE9AF539ED9400F538EC9400F537900F47E0FEA3E0FFFBAA06E49011B2E0FCA3E0FDA3E0FEA3E0C39BF53EEE9AF53DED940074
:407BC000F53CEC9400F53B900F0DE024FE7003027D69147003027DC7147003027EBC14700302801F1470030281C0240560030282419010B6E06026900F54E0FF3395E0FE94
:407C0000FDFC901197E0F8A3E0F9A3E0FAA3E0FB1292438F368E358D348C33804E900F53E06024A3E0FF3395E0FEFDFC90119FE0F8A3E0F9A3E0FAA3E0FB1292438F368EC7
:407C4000358D348C338024900F54E0FF3395E0FEFDFC90119BE0F8A3E0F9A3E0FAA3E0FB1292438F368E358D348C33900FA0E0F8A3E0F9A3E0FAA3E0FBC3E5369BFFE535A0
:407C80009AFEE53499FDE53398FC900F3BE0F8A3E0F9A3E0FAA3E0FBC312937B5044E4FFFEFDFC900F3BE0F8A3E0A3E0A3E0C312937B602E900FA0E0FCA3E0FDA3E0FEA3EC
:407CC000E0FF900F3BE0F8A3E0A3E0A3E0EF2BFFEE3AFEED39FDEC38FC900FA0129416028241900FA0E0F8A3E0F9A3E0FAA3E0FBC3E5369BFFE5359AFEE53499FDE5339811
:407D0000FC900F3FE0F8A3E0F9A3E0FAA3E0FBD312937B4043E4FFFEFDFC900F3FE0F8A3E0A3E0A3E012937B602E900FA0E0FCA3E0FDA3E0FEA3E0FF900F3FE0F8A3E0A363
:407D4000E0A3E0EF2BFFEE3AFEED39FDEC38FC900FA0129416028241AF36AE35AD34AC33900FA0129416028241E4FFFEFDFCAB3AAA39A938A837D312937B403D901012E0B2
:407D8000FCA3E0FDA3E0FEA3E0FFA837129243C006C007900F45E0FEA3E0FFC3E49FFF74049EFEAB07FAE4F9F8D007D00612E7C8900FA0129416028241E4FFFEFDFC900F2C
:407DC000A01294160282419010C3E0FCA3E0FDA3E0FEA3E0FF900FA0129416E4FFFEFDFCAB3AAA39A938A837D312937B4056901031E0FFE4FCFDFEA837129243E47B02FA0E
:407E0000F9F8129243C006C007900F45E0FEA3E0FFC3E49FFF74049EFEAB07FAE4F9F8D007D00612E7C89010C3E0F8A3E0F9A3E0FAA3E02FFFEA3EFEE93DFDE83CFC900F64
:407E4000A0129416E4FFFEFDFCAB3EAA3DA93CA83BD312937B5003028241901031E0FFE4FCFDFEA83B129243E47B02FAF9F8129243C006C007900F47E0FEA3E0FFC3E49F88
:407E8000FF74049EFEAB07FAE4F9F8D007D00612E7C8A804A905AA06AB079010C3E0FCA3E0FDA3E0FEA3E0C39BFFEE9AFEED99FDEC98FC900FA01294160282419010C3E058
:407EC000FCA3E0FDA3E0FEA3E0FF900FA012941690126CE0146048147003027F9924026003028241E4FFFEFDFCAB3AAA39A938A837D312937B400990126C7401F002824199
:407F0000E4FFFEFDFCAB3EAA3DA93CA83BD312937B500302824190126C7402F0028241E4FFFEFDFCAB3AAA39A938A837C312937B5008E490126CF0028241901031E0FFE4B3
:407F4000FCFDFEAB3AAA39A938A837129243E47B02FAF9F8129243C006C007900F45E0FEA3E0FFC3E49FFF74049EFEAB07FAE4F9F8D007D00612E7C89010C3E0F8A3E0F998
:407F8000A3E0FAA3E02FFFEA3EFEE93DFDE83CFC900FA0129416028241E4FFFEFDFCAB3EAA3DA93CA83BC312937B5008E490126CF0028241901031E0FFE4FCFDFEAB3EAAF8
:407FC0003DA93CA83B129243E47B02FAF9F8129243C006C007900F47E0FEA3E0FFC3E49FFF74049EFEAB07FAE4F9F8D007D00612E7C8A804A905AA06AB079010C3E0FCA3A9
:40800000E0FDA3E0FEA3E0C39BFFEE9AFEED99FDEC98FC900FA01294160282410282419010C3E0FCA3E0FDA3E0FEA3E0FF900FA012941690126CE014604814700302811B68
:4080400024026003028241E4FFFEFDFCAB3AAA39A938A837D312937B400990126C7401F0028241E4FFFEFDFCAB3EAA3DA93CA83BD312937B500302824190126C7402F002E9
:408080008241E4FFFEFDFCAB3AAA39A938A837C312937B501BE4FFFEFDFCAB3EAA3DA93CA83BC312937B5008E490126CF0028241E4FFFEFDFCAB3AAA39A938A837D312931F
:4080C0007B5003028241901031E0FFE4FCFDFEA83712924378021293C9C006C007900F45E0FEA3E0FFC3E49FFF74049EFEAB07FAE4F9F8D007D00612E7C89010C3E0F8A3BD
:40810000E0F9A3E0FAA3E02FFFEA3EFEE93DFDE83CFC900FA0129416028241E4FFFEFDFCAB3AAA39A938A837C312937B501BE4FFFEFDFCAB3EAA3DA93CA83BC312937B50BA
