:40000000021415008F828E83E0540100000070F82278FFE4F6D8FD02147A900000EFF0E4F53FF540F541F54275430AC200121F87EF60057F00121FB7122067D2AF9044F4FC
:4000400074FDF0E4F53B754900754A00754B37900000E0FF70067EFF7FFF80008F4C7B017A0079017D2C7C011212FA8F3E900000E060021543E5436004E53E70C9E53E6046
:400080000302059FC3E5389407E53794004008900001E064016005753B04807E900004E0FE900003E0FDEEF53FEDF54074062540F5827400353FF583E0FE74052540F58228
:4000C0007400353FF583E0FDEEF53CEDF53DE5402407FFE4353FFED3EF9538EE95374005753B03803574072540F5827400353FF583E064176005753B04801F7B017A0079B1
:4001000001E5402404FDE4353FFC121C66EF653D7003EE653C6003753B08E4F539F53AE53B600302058E900005E0F536753B04900002E012088801553101823202083403A0
:400140007A3503883703D438020839040F3A05783B0000058B20000302058EE540453F600302058EFF120D84EF70047F0180027F00900005EFF0753900753A01E4F53B0260
:40018000058E20000302058EE5406401453F600302058EE536C39401400302058E900357E0FEA3E0F5828E83120842E4FBFA7901F81207188F24E536B5241E900357E0FE6B
:4001C000A3E0F5828E83120842E4FB7A01F9F81207187522008F238014E536D395244007E4F522F5238006752201752300E523900005F0E522A3F0A374FFF0E4A3F0F539B6
:40020000753A04F53B02058E900002E06434703C20000302058EE5406403453F600302058EE536C39440400FE536D3947F50087541007542108006754101754220AE41AF47
:40024000427D007B017A01792D1208FF20000302058EC3E5409403E53F9400500302058EE54024FDFFE53F34FFFE742D2542F974013541A801FC7D017B017A0079081209F7
:40028000E7E54024FDFFE53F34FFFEEF2542F542EE3541F541E536C394404012E536D3947F500B121DA8753F007540108006753F01754020E54265407004E541653F600369
:4002C00002036F900007E0FE900006E0FDEEF541EDF542E536D3943F506FE5367F00FEEF2542FFE5413E900259F0A3EFF0900357E0FEA3E0F5828E83120842E4FB7A01F9AA
:40030000F812071890025BEEF0A3EFF0900357E0FEA3E0F5828E83120842EFE4EF600A90025BE475F0011205DA90025BE0FEA3E0FFC390025AE09F900259E09E500B753BD5
:400340000AE4F541F54202058E7B017A01792D900263E53FF0A3E540F0AD42AC41AF36120F0BEF60047F0A80027F008F3B8003753B03E4F541F54202058E20000302058EC7
:40038000E4F541F54202059F20000302058EE5422540FFE541353FFED3EF942CEE9401502DE4F53BAE3FAF40742D2542F974013541A801FC7D017B017A0079051209E7E58F
:4003C000402542F542E53F3541F54102058E753B0302058EE540453F600302058E78257C00FD7BFF7A25791FFE7F081209E7D200753900753A08AE39AF3A78057C007D0105
:400400007B007A0079251209E7E4F53B02058E20000302058EE5406403453F600302058E900007E0FE900006E0FDEEF52FEDF530E536C394404038E536D3947F5031AE2F29
:40044000AF307C007D101208D28F348E338D328C318F4B8E4A8D498C48E4754F10F54EF54DF54CFF7E80FDFC12192C8F358050AE2FAF307C017D001208D2C004C005C006FC
:40048000C007AF36E4FCFDFEFBFA7901F812068DD003D002D001D0001206728F348E338D328C318F4B8E4A8D498C48E4F54F754E01F54DF54CFFFE7D10FC12192C8F35E588
:4004C00036D3943F5072AF367E007C207D001208D2E42FFFE43EFEED3408FDE43CFCC004A905AA06AB07AE2FAF307C007D201208D2D0001206728F348E338D328C31E4F5BA
:400500002DF52EC3E52E9420E52D9400502AE4E52E2534FFE52D3533FEE43532FDE43531A907AA06AB05121CF3EF2535F535052EE52E7002052D80CBE536702AAE2FAF301E
:40054000FCFD7BFFFAF9F8C31207C57019FD7F05120A3DC3E5359FF535E4FD7F06120A3DC3E5359FF535E535F404900005F0E4F53BF539753A018016E4FF120D84EF700604
:400580009046FA7480F01220718003753B057B017A007901853948853A49AF3B1215ED900000E0700302004330000302004322BB010689828A83E0225002E722BBFE02E399
:4005C0002289828A83E49322BB010689828A83F0225002F722BBFE01F322C5F0F8A3E028F0C5F0F8E582158270021583E038F022BB010A89828A83E0F5F0A3E022500687B6
:40060000F009E71922BBFE07E3F5F009E3192289828A83E493F5F074019322BB010789828A830205DA500B09C5F027F7C5F01937F722BBFE0D09F8E325F0F3C5F019E338A6
:40064000F322F889828A8374019325F0C5F0F8E4933822BB010A89828A83F0E5F0A3F0225006F709A7F01922BBFE06F3E5F009F31922EF2BFFEE3AFEED39FDEC38FC22C315
:40068000EF9BFFEE9AFEED99FDEC98FC22E88FF0A4CC8BF0A42CFCE98EF0A42CFC8AF0EDA42CFCEA8EF0A4CDA8F08BF0A42DCC3825F0FDE98FF0A42CCD35F0FCEB8EF0A47C
:4006C000FEA9F0EB8FF0A4CFC5F02ECD39FEE43CFCEAA42DCE35F0FDE43CFC2275F008758200EF2FFFEE33FECD33CDCC33CCC58233C5829BED9AEC99E58298400CF582EE4A
:400700009BFEED9AFDEC99FC0FD5F0D6E4CEFBE4CDFAE4CCF9A88222B800C1B90059BA002DEC8BF084CFCECDFCE5F0CBF97818EF2FFFEE33FEED33FDEC33FCEB33FB10D7C4
:4007400003994004EB99FB0FD8E5E4F9FA227818EF2FFFEE33FEED33FDEC33FCC933C910D7059BE99A4007EC9BFCE99AF90FD8E0E4C9FAE4CCFB2275F010EF2FFFEE33FE50
:40078000ED33FDCC33CCC833C810D7079BEC9AE899400AED9BFDEC9AFCE899F80FD5F0DAE4CDFBE4CCFAE4C8F922EF4BFFEE4AFEED49FDEC48FC22C3E49FFFE49EFEE49D2F
:4007C000FDE49CFC22EB9FF5F0EA9E42F0E99D42F0E89C45F022E8600FECC313FCED13FDEE13FEEF13FFD8F122E8600FEFC333FFEE33FEED33FDEC33FCD8F122BB010789DC
:40080000828A830208365005E9F8020A0DBBFE05E9F8020A1989828A83020842BB010789828A8302085E5005E9F8020A25BBFE05E9F8020A3122E0FCA3E0FDA3E0FEA3E06A
:40084000FF22E493FC740193FD740293FE740393FF22E0F8A3E0F9A3E0FAA3E0FB22ECF0A3EDF0A3EEF0A3EFF022E0FBA3E0FAA3E0F922EBF0A3EAF0A3E9F022E493FB74E9
:400880000193FA740293F922D083D082F8E4937012740193700DA3A393F8740193F5828883E4737402936860EFA3A3A380DFE5092582F582E5083583F583B50804858209B7
:4008C0002210AF06858209F50822858209F508D2AF22EC8EF0A4CCC5F0CCCDF8EFA4CEC5F02DFDE43CFCE8A42EC8C5F03DFDE43CFCEFA4FFE5F028FEE43DFDE43CFC22EF51
:400900004E6012EF60010EEDBB010B89828A83F0A3DFFCDEFA2289F05007F709DFFCA9F022BBFEFCF309DFFCA9F022E709F608DFFA8046E709F208DFFA803E88828C83E7AA
:4009400009F0A3DFFA8032E309F608DFFA806EE309F208DFFA806688828C83E309F0A3DFFA805A89828A83E0A3F608DFFA804E89828A83E0A3F208DFFA804280D280FA80F3
:40098000C680D4805580F28029801080A680EA809A80A880DA80E280CA802988848C8589828A83E493A30586F0A30586DFF5DEF3800B89828A83E493A3F608DFF9ECFAA95D
:4009C000F0EDFB2288848C8589828A83E0A30586F0A30586DFF6DEF480E389828A83E493A3F208DFF980D688F0EF60010E4E60CD88F0ED2402B4040050C3F582EB2402B455
:400A0000040050B9232345822390097B73E6FC08E6FD08E6FE08E6FF22E2FC08E2FD08E2FE08E2FF22ECF608EDF608EEF608EFF622ECF208EDF208EEF208EFF22290025D03
:400A4000EDF0AB079002627402F0E4FFFEFDFCA312085EEB1208880A79010AA6020ACB030AF0040B15050B40060B8F070B6B080BB3090BD70A00000C0190025DE0FF7E005E
:400A80007C017D001208D21207B7EF24C0FFEE34FFFEED3410FDE43CFCA312085E9002627401F0020C0C90025DE0FF7E007C017D001208D2C374C39FFF74FF9EFE74109DBD
:400AC000FDE49CFCA312085E020C0C90025DE0FF7E007C017D001208D2C374C79FFF74FF9EFE74109DFDE49CFCA312085E020C0C90025DE0FF7E007C017D001208D2C37433
:400B0000CB9FFF74FF9EFE74109DFDE49CFCA312085E020C0C90025DE0FF7E007C017D001208D2C374D09FFF74FF9EFE74109DFDE49CFCA312085E9002627401F0020C0C60
:400B400090025DE0FF7E007C017D001208D2C374D19FFF74FF9EFE74109DFDE49CFCA312085E9002627401F0020C0C90025DE0FF7E007C017D001208D2C374D69FFF74FF16
:400B80009EFE74109DFDE49CFCA312085E807D90025DE0FF7E007C017D001208D2C374D29FFF74FF9EFE74109DFDE49CFCA312085E805990025DE0FF7E007C017D00120811
:400BC000D2C374D49FFF74FF9EFE74109DFDE49CFCA312085E803590025DE0FF7E007C017D001208D2C374D89FFF74FF9EFE74109DFDE49CFCA312085E9002627404F08082
:400C00000BE4FFFEFDFC90025E12085E900262E0B4011990025E120836A907AA06AB05121CF3E4FCFDFE90026312085E900262E06402705C90025E120836EF2401FFE43E91
:400C4000FEE43DFDE43CA907AA06AB05121CF3E4FCFDFE90026312085E900263120852C000C001C002C00390025E120836A907AA06AB05121CF3E4FCFDFE78081207E9D0BA
:400C800003D002D001D0001207AA90026312085E900262E064046003020D7D90025E120836EF2403FFE43EFEE43DFDE43CA907AA06AB05121CF3E4FCFDFE90026312085E37
:400CC000900263120852C000C001C002C00390025E120836EF2402FFE43EFEE43DFDE43CA907AA06AB05121CF3E4FCFDFE78081207E9D003D002D001D0001207AA9002634F
:400D000012085E900263120852C000C001C002C00390025E120836EF2401FFE43EFEE43DFDE43CA907AA06AB05121CF3E4FCFDFE78101207E9D003D002D001D0001207AA84
:400D400090026312085E900263120852C000C001C002C00390025E120836A907AA06AB05121CF3E4FCFDFE78181207E9D003D002D001D0001207AA90026312085E90026356
:400D8000120836228F44AD447F03120A3DEF2401FFE43EFEE43DFDE43CFCE4FB7A01F9F812068DC004C005C006C007AD447F04120A3DD003D002D001D0001206728F4C8EA9
:400DC0004B8D4A8C49C201E4F54DAD447F03120A3DEF2401FFE43EFEE43DFDE43CFCE4FB7A01F9F812068D8F488E478D468C45AF4CAE4BAD4AAC49AB48AA47A946A845C337
:400E00001207C55032854882854783E493F54E6005F46002D201E54E254DF54DAF48AE47AD46AC45E47B01FAF9F81206728F488E478D468C4580B8AD447F03120A3DEF2479
:400E400001FFE43EFEE43DFDE43CFCE4FB7A01F9F812068D78031207D68F488E478D468C45E47FC07EFFFDFCAB4CAA4BA94AA849C31207C57007FF7E20FDFC800DAF4CAE21
:400E80004BAD4AAC4978031207D68F4C8E4B8D4A8C49AF4CAE4BAD4AAC49AB48AA47A946A845C31207C55039E42548FFE43547FEE5463408FDE43545A907AA06AB05121CB9
:400EC000F3EF254DF54DAF48AE47AD46AC45E47B01FAF9F81206728F488E478D468C4580B1E54DF404F54DAD447F01120A3DA804A905AA06AB07AF4DE4FCFDFEC31207C5CC
:400F000070032001037F06227F002290025EECF0A3EDF0A312087390025DEFF0E4900265F0EFD3943F500E90025DE0940140069002657401F090025DE0FFD3947F4006903A
:400F400002657401F0EFC39440400CEFD3944140069002657401F0EFD3943F501E90025EE0FEA3E0FFE4FCFDFB7A01F9F8C31207C5502F9002657401F08027D390025FE03C
:400F8000948090025EE0940040069002657401F0900263E07004A3E0641060069002657401F090026012086AE94A4B700590026504F0900265E0600302108A121EFEEF606E
:400FC0000302108490025EE0FCA3E0FDA312086A900263E0FFA3E090026CCFF0A3EFF090025DE0FF1211DE900265EFF06407600302107F904722E0540270087F01FE121EF6
:401000006480F0904722E054026009E0FF1313543FFF80027FFFEF7006900265F0800690026574FFF0900265E0705490025DE0FFA3E0FCA3E0FD900353E0FBA3E090026AD9
:40104000F0121A90900265EFF064077032904722E0540270087F01FE121E6480F0904722E054026009E0FF1313543FFF80027FFFEF7006900265F0800690026574FFF0124B
:40108000205180069002657404F0900265E0FF227B007A4679E8121CF3EF4401FD7B007A4679E8122045E4F52CE52CC3940A502CE52C75F005A42461F582E43424AF82F571
:4010C000218F22F58312087C8F82852183740393FC740493FD121F6E052C80CDE4F52CE52CC394015046E52C75F007A42413F582E43425AF82F5238F24F58312087C8B25E1
:401100008A2689278F82852383740393FE7404938E28F529740593F52A740693F52BAD29AC28FFAE2A121EB8052C80B37E207F92121DD97B017A507903121CF3EF4402FD3B
:401140007B017A5079031220457B017A507913121CF3EF4402FD7B017A5079131220459043A0E04440F09043C2E04410F07C207D827B007A5179127F087E00121EB87C2053
:401180007D8A7B007A5179227F087E00121EB89044F47401F0904322E04408F09046ECE0C394055006904689743AF090480074F1F012150690480074B1F0121F1D7B007A41
:4011C0004379A0C00179B0900005120873D0017F0E7E00121D749043B0E054FDF022900266EFF0A3ECF0A3EDF0A312087390026E7407F0904722E0540270030212EE904756
:401200002074B6F074D5F07402F0904722E0540260030212E6900266E0904720F0E490026FF0A3F090026CE0FEA3E0FF90026FE0FCA3E0FDC39FEC9E501F90026912086A8D
:40124000E92DF9EA3CFA1205AF904720F090026FE475F0011205DA80CB90026CE064017002A3E060030212F4900266E0FFD3943F40030212F47E007C207D001208D2E42F0A
:40128000FFE43EFEED3408FDE43CFCC004A905AA06AB07A3E0FEA3E0FF7C007D201208D2D00012067290027112085EE490026FF0A3F090026FE0FEA3E0FFC39420EE94005A
:4012C0005032E4FCFDA3120852120672A907AA06AB05121CF3904720EFF090026FE475F0011205DA80CC90026E7409F0800690026E7404F090026EE0FF228B448A4589469E
:401300008C478D48755505E4F54DF54EE54C75F00AA4FFC3E54E9FE54D95F0503B121B34EF6022121B347553008F54E47F19FEFDFC1218C7121B34D3EF9554E4955350E366
:40134000E4F5558013E47F01FEFDFC1218C7054EE54E7002054D80B4AB49AA4AA94BE4F5F0120653E4F54FF550121B34EFD394005003021412121B347551008F52AB49AA8D
:401380004AA94BE5518552F012061BAB49AA4AA94B1205F0C39548E5F09547505FE4F54DF54EC3E54E9552E54D95515025121C1CAB44E5462550F9E545354FFAEF1205C8C1
:4013C0000550E5507002054F054EE54E7002054D80D0AB44E55024FFFFE54F34FFFEE5462FF9E5453EFA1205AF64177003021369E47F05FEFDFC1218C7021369AB49AA4ABB
:40140000A94B1205F0C39552FFE5F095518FF0120653AF552275930078007583467582E8E04401F0009046ECE0F99046FAE0FA90034BF0B903225420B40012B8001AEA9014
:401440001FFFF07401901FFEF09046F6F0901FFEE06005901FFFE0FA90480074C0F0758156121EDE90000078007920E4F0A3D8FCD9FAEA90034BF002001175081F7509FD1F
:401480001210900214C1022079E493A3F8E493A34003F68001F208DFF48029E493A3F85407240CC8C333C4540F4420C8834004F456800146F6DFE4800B0102040810204063
:4014C00080901B83E47E019360BCA3FF543F30E509541FFEE493A360010ECF54C025E060A840B8E493A3FAE493A3F8E493A3C8C582C8CAC583CAF0A3C8C582C8CAC583CABE
:40150000DFE9DEE780BE7B007A4079807D337C001220279040827418F09043007402F09040007408F09042007403F07B0C7A017908121CF39046A1EFF07B007A4279227D68
:40154000087C001220277B007A4279207D517C12122027E4900004F07F19FEFDFC90000012085E900000120836D3EF9400EE9400403B900004E0FF64036032904225E05440
:4015800001FEEF25E04E5403900004F0E47FE07E01FDFC121D0090000012083674FFFBFAF9F812067290000012085E80B6900000120836EF4E70057F0312207F7B007A402A
:4015C00079047D007C011220279040047407F0904006E4F09040087448F0904004E4F09040017402F09043A2E04401F0228B458A46894774011205C8AB452547F9E43546AB
:40160000FAEF1205C8E549AB45E5472402F9E43546FAE5491205C8E548FFAB45E5472403F9E43546FAEF1205C8AB45AA46A947E5492404FDE43548FC121C668E4A8F4BEFCF
:40164000AB45E5492404FDE43548FCE5472DF9E5463CFAEF1205C8E54AFFAB45E5492405FDE43548FCE5472DF9E5463CFAEF1205C8AB45E5492406FFE43548FEE5472FF9FF
:40168000E5463EFA74171205C8E5492407FDE43548FC755100755200755348755496AB45AA46A947121BD122C0E0C083C082C085C084C086758600C093759300C0D075D09F
:4016C00000C001C002C003C006C007E4FBA2AF33FAD2AF9044F474FDF090646CE0FFFE541EF960069002FDE049F0EF30E54590644AE0FE9002F9E02478F582E43402F583E5
:40170000EEF07B01EB602C900276E060069002FC7401F09002F9E004F0E0C394404002E4F0900277E0FE9002F9E0B506069002767401F0EF20E5A2AF02EA24FF92AFD007BF
:40174000D006D003D002D001D0D0D093D086D084D085D082D083D0E032752106E4FF120D84EF7002F521E4F54BF54AF549F548900357E0FEA3E0F5828E831208428F4F8E82
:401780004E8D4D8C4CE4FFFE7D10FC12192C900355E0FCA3E0F5828C83E493FEC3EF9EFFF404FFB50612900357E0FEA3E0F5828E83120842EF4E70057F00121FB79046FAFB
:4017C000E054C064406004E52160099046FAE4F0FF12001A12205D22C0E0C083C082C085C084C086758600C093759300C0D075D000C006C007A2AFE433FFD2AF9044F4742E
:40180000FDF09002FAE0FE9002B8E06E602C90646EE020E2259002B8E0C394404002E4F09002B8E024B9F582E43402F583E090644DF09002B8E004F080C8EF24FF92AFD043
:4018400007D006D0D0D093D086D084D085D082D083D0E032A9079002FAE0FF9002B8E0FEEFC39E501AEE24FFFDE434FFFCEF7A00B50508EAB504047D0180027D00800CC346
:40188000EF9EB43F047D0180027D00ED70C8EEB5070D90646EE020E20690644DE9F022EFC394404002E4FF74B92FF582E43402F583E9F00F9002FAEFF090646EE030E10609
:4018C0009044D07402F02290FFFC1208AE12085E850883850982120836D3EF9400EE9480402E90034C120836121D00850883850982C083C082120836E42FFFEE3480FEEDC9
:4019000034FFFDEC34FFFCD082D08312085E80C090034212083685088385098212085212068D121D009000041208AE228F478E468D458C44E4F550D3E54F9400E54E940025
:40194000404BAF4FAE4EAD4DAC4C74FFFBFAF9F81206728F4F8E4E8D4D8C4CE547254BFFE546354AFEE5453549FDE5443548FCEF254FFFEE354EFEED354DFDEC354CA907BD
:40198000AA06AB051205AF2550F55080AAAF5022121FE190025E74FFF0121EFEEF703B7F01121E35EF6407702C7B017A0379537D021219E6EFB40215E490025EF090472228
:4019C000E0540270107F01FE121E6480F0904722E0540260D4122051800690025E7404F090025EE0FF2290025F120873900262EDF0E4A3F0900262E0FFA3E0C39F50379065
:401A00004722E054016003D38001C340097F017E00121E6480E9904720E0FF90025F12086A900263E029F9E43AFAEF1205C8900263E004F080BE900263E0FF2290025EEC49
:401A4000F0A3EDF090025DEFF0541F25E0FFE433FEE42FFFEE3444FAA9077B0112201A900260EEF0A3EFF090025DE075F002A42400FFE5F03444FAA9077B01A3E0FEA3E0EC
:401A8000FFFDAC06122029900260E0FEA3E0FF22900267ECF0A3EDF0AC077D07904722E05402603B90472074B6F074D8F07405F0904722E054027023904720ECF09002670F
:401AC000E0904720F0900267E0A3E0904720F0EBF090026AE0904720F080067D0980027D04AF0522121FE1121EFEEF703B121F3A90025EEFF06407702A904722E0540270A1
:401B0000087F01FE121E6480F0904722E054026009E0FF1313543FFF80027FFFEF700490025EF0122051800690025E7404F090025EE0FF229044C87401F09002F9E0FE905D
:401B40000277E0B5060E900276E060047F40802CE4FF80289002F9E0FE900277E0C39E500BE0FE9002F9E0C39EFF8010900277E0FEC374409EFE9002F9E02EFF9044C07420
:401B800001F022420355251A420357251B430350000000440347016E360044034200005DC04103461844034C2EE000004102FB004102B8004102FA004102FD00410277003B
:401BC0004102F900410276004102FC0041035B00008B4C8A4D894E8C4F8D50E4F555F556121E07C3E5569550E555954F501DAB4CE54E2556F9E54D3555FA1205AFFF121874
:401C0000540556E5567002055580D8AB51AA52A953E54F8550F01206537F00229044C87401F0900277E0FE9002F9E0FD900276E07004EE6D602474782EF582E43402F583EF
:401C4000E0FF0EEEC394404002E4FE900277EEF0900276E06009E4F0800590644AE0FF9044C07401F0228B4C8A4D894EE4F54FF550D3ED9400EC94004025AB4CED24FFFFD4
:401C8000EC34FFFEE54E2FF9E54D3EFA1205AF2550F550E4354FF54FED1D70011C80D2E550F4FFE54FF4FEEF2401FFE43EFE227C167DA8E4FF121A3C7D07E4FF121F55E4B7
:401CC0009002FDF090648A7469F090648C7420F07C177DD87F01121A3C7D077F01121F5590642E7406F090643E7447F090648E7402F0228B938A838982E0759300FF22000A
:401D0000EC4D4E700D78FCEF24E950032840FD2200007BF178DA0000EF28FF78FFEE38FEED38FDEC38FC50E7EF2BFFEE38FEED38FDEC38FC40F22205020304121FCC9002FD
:401D40005DEFF090649AE04420F090649CE04410F09044C07401F090649EE04410F09044D87402F09044C0F012203690025DE0FF121F9F22758600EF4E6027EF60010E75B2
:401D80009300900005E0F595A3E0F585A3E0F5848B938A838982E0A30586F0A31586DFF6DEF4E4F593F59522121FCC9043A0E04408F09043B0E04408F090470174C8F090A8
:401DC00043ACE04410F09043BCE04410F0904700E0542060F8121F9F22ACEAADA08E838F82E493F9601CA3E493F5EAA3E493F5A0A3E49360F1FAA3E493F8A3E493F2DAF6BC
:401E0000D9E48DA08CEA22121FCC90649AE04401F0E054FEF0121F9F9044C87401F0E4900277F09002F9F0900276F09002FCF09044C004F0227E07904722E05402601F9052
:401E4000472074B6F074E1F0740EF0904722E054027007904720EFF080067E0980027E04AF062200EEFA900346E0F88FF0A4FFAEF0E88AF0A42EFEE5F03400FDEF24C9FF5A
:401E800078FFEE38FEED38FDE438FC5003021D0022121FCC90649DE04401F0E054FEF0121F9F9044C87402F0E49002B8F09002FAF09044C07402F022758600EF4E601BEFCA
:401EC00060010E8C838D828B958A858984E493A30586F0A31586DFF5DEF3E4F595229046FAE054C064807015F0FD7F02120A3DEF4E600AE4FD7F02120A3D122009229002CC
:401F0000667404F0121FCC90035BE0700704F0E4900266F0121F9F900266E0FF227B0C7A0179CF121CF3EF540790586EF0EFC4540FA3F09058767444F0227F07904722E0DD
:401F40005402600E90472074B6F074E0F0740DF080027F0422AC07ED540775F020A4FFEC541F2480F582E43444F583EFF022EC4D6011ED60010C8B938A838982E4F0A3DDB0
:401F8000FCDCFA75930022121AE490025DEFF0700812199090025DEFF090025DE0FF22EF54016004D2AF8002C2AFEF5402FF9044F4E054FD4FF02290FFFF1208AEEFF090D7
:401FC00046EA7401F09000011208AE229044F4E0F84402F0E85402FF10AF012274014FFF22121FCC9043A0E04408F09043B0E04408F0121F9F229002FBE07009121CAF9087
:4020000002FB7401F0121D3B2290034BE0FA8E838F827400758101738B938A838982E0FFA3E0FE759300228B938A838982EDF0A3ECF0759300229043A2E04401F09043B26F
:40204000E04401F0228B938A838982EDF075930022121FCCE490035BF0121F9F229046FA7480F012207122121FF6121E07121E91229046F6E04401F02212175980FE2280DC
:40208000FE22007F7B007B00000030D8C800D800000016005205082309121098118814200064047E3F8A698C3A8E0F010101E204010301E6020105028702E008010604B82E
:4020C00002BE01D804DF010107021B02A702010A088501890195019901B101BF01D904DF01010B4F00400106038808010A040B111028130219641A041B0A202021082230E9
:40210000274028282A022B022E033080310232103304340836203708382239803A083C283E084028410843824A024B0152045B4068286A016B027090712072108D408E104D
:402140008F809042910493109621980199029B0C9D649E049F80A004A102A202A490A520A702AB01B021B405B602B744C00FC20FC40ECA0FCC6FCE6FD00FD208D608E0083A
:40218000E801010C4C0001021608E70A180E3F101E120114C6163918481C88208824DD262228232ADC2CC8301F320834E03A22541A560458045B045F018008824284F88698
:4021C000018704880F89028AF08D068EC792849308943996C698109C20A020A101A43FA6C0A906AA08AC30B031B106B308B501B6FFB702B982BE40BF11C062C101C5E0C6DA
:40220000CBC80EC9FFCAFFCBFFCEF0CF44D00CD804D904DA04DF01E6C0EA40EB02010D46002901100210030B04010709080209260A310D220E11108012481388151016502C
:402240001780180219021C081D021E201F20200421012208230128402920320238C839A43A083B10414042084921502053405E205F026540674887409088912093089502C2
:40228000978098409B4A9C029D259E049F04A420A504A72AB001B301C0DFC2FFC4FFCA05CC01CE0ED00CD204D6A0D8B0010E4E040906D007230B080C0C0D210E710F0E1048
:4022C00014141016AC170C18DC1A221B201E0321102410264029212A202B062D0C2F2330E03310350F361F37203A023B203F444004464049FF4A074BFF4C404D204EF04F8A
:4023000005500854015604580459045A045B045F01604061A862406320871F89198B0691019304950997029A01A506A719A919AA01AB06AF0FB201B310B507B708B908BB65
:4023400020BE04D804D904DB04DF01010F3C004404040504084809200A010B800E0810081210160418C01A011F042130224425102604270A280829212A802F2A303031047A
:402380003402370438883A103D284101500C5210581059015A886380680169046A206B406F0171407304821083408550868089048B04C005C24FC446CA7DCCC6CE6ED00101
:4023C000D60FD801E40C014005322035808180CC30E2200141038620A620E6400144058301870188C0E004E40401450F0C0857025B046401660193029889A040A301B009C2
:40240000C204D607D801E801EC0401460D8702900893029888A040A301A702AB04B40CB601E808EC02EE08014705900893029888A040A301014C0E5004544057015808607D
:40244000806702900893029888A040A301D406D607D80201500300010C010E01015101000F005100001000513000400051C000100051F000100100000A00010A800580018E
:40248000140008000140000A00014C000200015000002000008080207D050000040800130C0400030204200A031410130C0C7300088000400800004043003C404F003000DE
:4024C0000000734000303F0FC0800008002028000040003402010005C0000E12FFFFFF62A0F0410C00000000000210040404040000000100000000000040020010301000CE
:4025000010101200000000000000000000000000000000010A002493008061000026006930091E031E010100000000000000000000000000000000000000000000000000BD
:40254000000000000000000000000000000000000000000000000000000000000000000000000000000000000000000000000000000000000000000000000000000000005B
:40258000000000000000000000000000000000000000000000000000000000000000000000000000000000000000000000000000000000000000000000000000000000001B
:4025C00000000000000000000000000000000000000000000000000000000000000000000000000000000000000000000000000000000000000000000000000000000000DB
:4026000002A681008F828E83E0540100000070F82278FFE4F6D8FD02A70F2055736200002048616E646C65000020454D472070726F706F7274696F6E616C000020454D47C1
:4026400020696E74656772616C000020454D472046434653000020454D47204643465320416476616E6365640000204A6F79737469636B0000205945530000204E4F0000FA
:40268000204C65667400002052696768740000000D0A004669726D776172652076657273696F6E3A200053482D50524F2076362E322E31202D204D617374657220772F4852
:4026C000617074696320466565646261636B206D616E6167656D656E74002E0D0A0D0A0044455649434520494E464F0D0A0049443A2025640D0A000D0A4D45415355524548
:402700004D454E545320494E464F0D0A0053656E736F722076616C75653A0D0A002564202D3E202564004261747465727920566F6C7461676520286D56293A20256C64009A
:4027400046756C6C2063686172676520706F7765722074656E73696F6E20286D56293A20256C64000D0A44455649434520504152414D45544552530D0A00496E707574202A
:402780006D6F64653A205553420D0A00496E707574206D6F64653A2048616E646C650D0A00496E707574206D6F64653A20454D472070726F706F7274696F6E616C0D0A001F
:4027C000496E707574206D6F64653A20454D4720696E74656772616C0D0A00496E707574206D6F64653A20454D4720464346530D0A00496E707574206D6F64653A20454D22
:40280000472046434653204144560D0A00496E707574206D6F64653A204A6F79737469636B0D0A004D6F746F722D48616E646C6520526174696F3A2025640D0A0053656E9E
:40284000736F72207265736F6C7574696F6E3A0D0A004D6561737572656D656E74204F66667365743A0D0A002564202D3E20256C64004D6561737572656D656E74204D7550
:402880006C7469706C6965723A0D0A002564202D3E20256600506F736974696F6E206C696D6974206163746976653A20256400506F736974696F6E206C696D6974206D6F00
:4028C000746F722025643A20696E66202D3E20256C64202000737570202D3E20256C640D0A004D6178207374657020706F7320616E64206E65673A202564202564004A6FEE
:4029000079737469636B20636C6F737572652073706565643A202564004A6F79737469636B206761696E3A2025687500454D47207468726573686F6C6473205B30202D2013
:40294000313032345D3A2025752C20257500454D47206D61782076616C756573205B30202D20343039365D3A20256C752C20256C750043616C6962726174696F6E20656E15
:4029800061626C65643A205945530D0A0043616C6962726174696F6E20656E61626C65643A204E4F0D0A00454D47206D61782073706565643A20256400526573742074696E
:4029C0006D652064656C617920286D73293A20256400526573742076656C6F6369747920636C6F7375726520287469636B732F736563293A202564005265737420706F736C
:402A00006974696F6E3A202564004D796F656C65637472696320636173652032204D61737465723A205945530D0A004D796F656C65637472696320636173652032204D61B8
:402A4000737465723A204E4F0D0A004D6173746572207769746820466F726365206465766963653A205945530D0A004D6173746572207769746820466F726365206465768B
:402A80006963653A204E4F0D0A004D617374657220776974682050726F7072696F63657074697665206465766963653A205945530D0A004D617374657220776974682050EA
:402AC000726F7072696F63657074697665206465766963653A204E4F0D0A0064656275673A20256C6400000000000000000000000000000000000000000000000000000057
:402B00000000000000000000000000000000000000000000000000000000000000000000000000000000000000000000000000000000000000000000000000000000000095
:402B40000000000000000000000000000000000000000000000000000000000000000000000000000000000000000000000000000000000000000000000000000000000055
:402B80000000000000000000000000000000000000000000000000000000000000000000000000000000000000000000000000000000000000000000000000000000000015
:402BC00000000000000000000000000000000000000000000000000000000000000000000000000000000000000000000000000000000000000000000000000000000000D5
:403980000000000000000000000000000031202D204465766963652049443A0032202D20496E707574206D6F64653A00000000000000000000000000000000000000332031
:4039C0002D205265736F6C7574696F6E733A0034202D204D6561737572656D656E74204F6666736574733A0035202D204D756C7469706C696572733A0036202D20506F73F3
:403A00002E206C696D6974206163746976653A000000000037202D20506F732E206C696D697473205B696E662C207375705D3A0038202D204D6178207374657073205B6E97
:403A400065672C20706F735D3A0039202D20454D472063616C6962726174696F6E206F6E20737461727475703A00000000003130202D20454D47207468726573686F6C6420
:403A8000733A003131202D20454D47206D61782076616C7565733A003132202D20454D47206D61782073706565643A003133202D204D6F746F722068616E646C6520726186
:403AC00074696F3A003134202D204A6F79737469636B20636C6F737572652073706565643A003135202D204A6F79737469636B206761696E3A003136202D204D796F656CA0
:403B000065637472696320636173652032204D61737465723A00000000003137202D205265737420706F736974696F6E20666C61673A00000000003138202D2052657374C7
:403B400020706F736974696F6E3A003139202D205265737420706F736974696F6E2074696D652064656C617920283E3130206D73293A003230202D20526573742076656C50
:403B800020636C6F7375726520287469636B732F736563293A003231202D2043757272656E742070726F706F7274696F6E616C206761696E2028666F726365293A003232DC
:403BC000202D2043757272656E7420646966666572656E63652073617475726174696F6E2028666F726365293A003233202D2043757272656E742064656164207A6F6E65E7
:403C00002028666F726365293A003234202D204D617820736C696465206D6F76656D656E74202870726F7072696F293A003235202D204D617820536F667448616E642063AB
:403C40006C6F73757265202870726F7072696F293A003236202D204D6173746572207769746820466F726365206465766963653A00000000003237202D204D6173746572BC
:403C800020776974682050726F7072696F632E206465766963653A00000000003238202D20536F667448616E642049443A003239202D20466F726365206465766963652076
:403CC00049443A003330202D2050726F7072696F63657074697665206465766963652049443A003331202D2041726D20736964653A0000000000000030202D3E20557362E6
:403D00000A31202D3E2048616E646C650A32202D3E20454D472070726F702E0A33202D3E20454D4720496E7465672E0A34202D3E20454D4720464346530A35202D3E204549
:403D40004D472046434653204164762E0A36202D3E204A6F79737469636B0A0030202D3E2052696768740A31202D3E204C6566740A0030202D3E20446561637469766174FB
:403D800065205B4E4F5D0A31202D3E204163746976617465205B5945535D0A00900036EEF0A3EFF078387C007D017BFF7A31798A7E087F03126B2E90083B7408F0A374033B
:403DC000F078427C087D017BFF7A39798D7E007F0F126B2E78517C087D017BFF7A39799C7E007F22126B2E78737C087D017BFF7A3979BE7E007F11126B2E78847C087D014E
:403E00007BFF7A3979CF7E007F19126B2E789D7C087D017BFF7A3979E87E007F11126B2E78AE7C087D017BFF7A3979F97E007F1B126B2E78C97C087D017BFF7A3A79147EE8
:403E4000007F1C126B2E78E57C087D017BFF7A3A79307E007F1A126B2E78FF7C087D017BFF7A3A794A7E007F24126B2E78237C097D017BFF7A3A796E7E007F15126B2E78E6
:403E8000387C097D017BFF7A3A79837E007F15126B2E784D7C097D017BFF7A3A79987E007F14126B2E78617C097D017BFF7A3A79AC7E007F19126B2E787A7C097D017BFFBE
:403EC0007A3A79C57E007F1D126B2E78977C097D017BFF7A3A79E27E007F14126B2E78AB7C097D017BFF7A3A79F67E007F24126B2E78CF7C097D017BFF7A3B791A7E007F1C
:403F00001D126B2E78EC7C097D017BFF7A3B79377E007F14126B2E78007C0A7D017BFF7A3B794B7E007F28126B2E78287C0A7D017BFF7A3B79737E007F23126B2E784B7CAF
:403F40000A7D017BFF7A3B79967E007F28126B2E78737C0A7D017BFF7A3B79BE7E007F2C126B2E789F7C0A7D017BFF7A3B79EA7E007F20126B2E78BF7C0A7D017BFF7A3CA2
:403F8000790A7E007F23126B2E78E27C0A7D017BFF7A3C792D7E007F25126B2E78077C0B7D017BFF7A3C79527E007F23126B2E782A7C0B7D017BFF7A3C79757E007F27126D
:403FC0006B2E78517C0B7D017BFF7A3C799C7E007F12126B2E78637C0B7D017BFF7A3C79AE7E007F16126B2E78797C0B7D017BFF7A3C79C47E007F1F126B2E78987C0B7D28
:40400000017BFF7A3C79E37E007F15126B2E78AD7C0B7D017BFF7A3C79F87E007F64126B2E78117C0C7D017BFF7A3D795C7E007F16126B2E78277C0C7D017BFF7A3D79724B
:404040007E007F2A126B2E7B017A08794212C8B08F2D7B017A08797312C8B08F2E7B017A08798412C8B08F2F7B017A08799D12C8B08F307B017A0879C912C8B08F317B0198
:404080007A0879E512C8B08F327B017A09792312C8B08F337B017A09793812C8B08F347B017A09794D12C8B08F357B017A09796112C8B08F367B017A09797A12C8B08F3774
:4040C0007B017A09799712C8B08F387B017A0979EC12C8B08F397B017A0A790012C8B08F3A7B017A0A792812C8B08F3B7B017A0A794B12C8B08F3C7B017A0A797312C8B05A
:404100008F3D7B017A0A799F12C8B08F3E7B017A0A79BF12C8B08F3F7B017A0A79E212C8B08F407B017A0B795112C8B08F417B017A0B796312C8B08F427B017A0B7979129E
:40414000C8B08F437B017A0B79AD12C8B08F447B017A0C791112C8B08F457B017A0C792712C8B08F46900038740CF0A3741FF0900036E0FEA3E0FFEE60030254CDEFB420CB
:404180000040030254CD90418DF82828730241ED0250980250A10250AA0250D502515302519002519902526F0252F50252FE02531D02534602534F02535802536802537895
:4041C00002538F0253980253CA02540802541D02543202544202545202546702547C0254930254AA0254B30254BC0254C590003A7402F0A314F0900C5BE090003CF0852D6C
:404200002BE52B6032FFC3E52D9FFFE49400FE74422FF58274083EF583E0FFE52BFDE52DC39DFDE49400FC743D2DF58274003CF583EFF0152B80CAE490006CF0A304F0908F
:404240000C5CE090006EF0900C5CB407004003024332904259F828287302426E02428B0242A80242C40242E00242FC024318900C5474FFF0A37426F0A3741AF07B017A08E0
:40428000795112BC81752C14024332900C5474FFF0A37426F0A37420F07B017A08795112BC81752C17024332900C5474FFF0A37426F0A37429F07B017A08795112BC817590
:4042C0002C21806E900C5474FFF0A37426F0A3743CF07B017A08795112BC81752C1D8052900C5474FFF0A37426F0A3744BF07B017A08795112BC81752C198036900C54745C
:40430000FFF0A37426F0A37456F07B017A08795112BC81752C22801A900C5474FFF0A37426F0A3746AF07B017A08795112BC81752C19852C2BE52B6032FFC3E52C9FFFE4FB
:404340009400FE74512FF58274083EF583E0FFE52BFDE52CC39DFDE49400FC746F2DF58274003CF583EFF0152B80CA746F252CF582E43400F5837401F090009E04F0A304BF
:40438000F0E4F52BE52BC39403501E745D252BF582E4340CF583E0FF74A0252BF582E43400F583EFF0052B80DB852E2BE52B6032FFC3E52E9FFFE49400FE74732FF58274DF
:4043C000083EF583E0FFE52BFDE52EC39DFDE49400FC74A32DF58274003CF583EFF0152B80CA9000D07403F0A3F0E4F52BE52BC394035044E52B25E025E02460F582E4345A
:404400000CF583E0FCA3E0FDA3E0FEA3E0FF745D252BF582E4340CF583E0F9F812696E75F002E52BA424D2F582E5F03400F583EEF0A3EFF0052B80B5852F2BE52B6032FF5D
:40444000C3E52F9FFFE49400FE74842FF58274083EF583E0FFE52BFDE52FC39DFDE49400FC74D82DF58274003CF583EFF0152B80CA9001027407F0A37403F0E4F52BE52B13
:40448000C394035031E52B25E025E0246CF582E4340CF583E0FCA3E0FDA3E0FEA3E0FF75F004E52BA42404F582E5F03401F5831269CF052B80C885302BE52B6032FFC3E5DC
:4044C000309FFFE49400FE749D2FF58274083EF583E0FFE52BFDE530C39DFDE49400FC74102DF58274013CF583EFF0152B80CAE4900134F0A304F0900C78E0900136F09098
:404500000C78601C900C5474FFF0A37426F0A37475F07B017A0879AE12BC81752C1B801A900C5474FFF0A37426F0A3747BF07B017A0879AE12BC81752C1A852C2BE52B6038
:4045400032FFC3E52C9FFFE49400FE74AE2FF58274083EF583E0FFE52BFDE52CC39DFDE49400FC74372DF58274013CF583EFF0152B80CA7437252CF582E43401F5837403FE
:40458000F09001667405F0A37402F0E4F52BE52BC394014003024619E52B25E025E02479F582E4340CF583E0FCA3E0FDA3E0FEA3E0FF745D252BF582E4340CF583E0F9F864
:4045C00012696E75F008E52BA42468F582E5F03401F5831269CFE52B25E025E02481F582E4340CF583E0FCA3E0FDA3E0FEA3E0FF745D252BF582E4340CF583E0F9F8126931
:404600006E75F008E52BA4246CF582E5F03401F5831269CF052B02458E85312BE52B6032FFC3E5319FFFE49400FE74C92FF58274083EF583E0FFE52BFDE531C39DFDE494B8
:4046400000FC74702DF58274013CF583EFF0152B80CA9001987405F0A37402F0900C8DE0FCA3E0FDA3E0FEA3E0FF90019A1269CF900C89E0FCA3E0FDA3E0FEA3E0FF900177
:404680009E1269CF85322BE52B6032FFC3E5329FFFE49400FE74E52FF58274083EF583E0FFE52BFDE532C39DFDE49400FC74A22DF58274013CF583EFF0152B80CAE49001DB
:4046C000CAF0A304F0900C95E09001CCF0900C95601C900C5474FFF0A37426F0A37475F07B017A0879FF12BC81752C24801A900C5474FFF0A37426F0A3747BF07B017A083E
:4047000079FF12BC81752C23852C2BE52B6032FFC3E52C9FFFE49400FE74FF2FF58274083EF583E0FFE52BFDE52CC39DFDE49400FC74CD2DF58274013CF583EFF0152B80C3
:40474000CA74CD252CF582E43401F5837403F09001FC04F0A37402F0900C91E0FFA3E09001FECFF0A3EFF0900C93E0FFA3E0900200CFF0A3EFF085332BE52B6032FFC3E5F5
:40478000339FFFE49400FE74232FF58274093EF583E0FFE52BFDE533C39DFDE49400FC74022DF58274023CF583EFF0152B80CA90022E7406F0A37402F0900C96E0FCA3E0FC
:4047C000FDA3E0FEA3E0FF9002301269CF900C9AE0FCA3E0FDA3E0FEA3E0FF9002341269CF85342BE52B6032FFC3E5349FFFE49400FE74382FF58274093EF583E0FFE52B1F
:40480000FDE534C39DFDE49400FC74382DF58274023CF583EFF0152B80CA9002607402F0A314F0900C9EE0900262F085352BE52B6032FFC3E5359FFFE49400FE744D2FF555
:404840008274093EF583E0FFE52BFDE535C39DFDE49400FC74632DF58274023CF583EFF0152B80CA9002927401F0A3F0900C9FE0900294F085362BE52B6032FFC3E5369F4D
:40488000FFE49400FE74612FF58274093EF583E0FFE52BFDE536C39DFDE49400FC74952DF58274023CF583EFF0152B80CA9002C47404F0A37401F0900CC5E0FFA3E09002A2
:4048C000C6CFF0A3EFF085372BE52B6032FFC3E5379FFFE49400FE747A2FF58274093EF583E0FFE52BFDE537C39DFDE49400FC74C82DF58274023CF583EFF0152B80CA9093
:4049000002F67404F0A37401F0900CC7E0FFA3E09002F8CFF0A3EFF085382BE52B6032FFC3E5389FFFE49400FE74972FF58274093EF583E0FFE52BFDE538C39DFDE4940040
:40494000FC74FA2DF58274023CF583EFF0152B80CAE4900328F0A304F0900CB0E090032AF0900CB0601C900C5474FFF0A37426F0A37475F07B017A0979AB12BC81752C249C
:40498000801A900C5474FFF0A37426F0A3747BF07B017A0979AB12BC81752C23852C2BE52B6032FFC3E52C9FFFE49400FE74AB2FF58274093EF583E0FFE52BFDE52CC39D6B
:4049C000FDE49400FC742B2DF58274033CF583EFF0152B80CA742B252CF582E43403F5837403F0E490035AF0A304F0900CA1E090035CF0900CA1601C900C5474FFF0A37497
:404A000026F0A37475F07B017A0979CF12BC81752C1D801A900C5474FFF0A37426F0A3747BF07B017A0979CF12BC81752C1C852C2BE52B6032FFC3E52C9FFFE49400FE74C8
:404A4000CF2FF58274093EF583E0FFE52BFDE52CC39DFDE49400FC745D2DF58274033CF583EFF0152B80CA745D252CF582E43403F5837403F090038C7405F0A37401F09004
:404A80000CA2E0FCA3E0FDA3E0FEA3E0FF900C5DE0F9F812696E90038E1269CF85392BE52B6032FFC3E5399FFFE49400FE74EC2FF58274093EF583E0FFE52BFDE539C39DA9
:404AC000FDE49400FC74922DF58274033CF583EFF0152B80CA9003BE7405F0A37401F0900CA6E0FCA3E0FDA3E0FEA3E0FF9003C01269CF853A2BE52B6032FFC3E53A9FFFFC
:404B0000E49400FE74002FF582740A3EF583E0FFE52BFDE53AC39DFDE49400FC74C42DF58274033CF583EFF0152B80CA9003F07405F0A37401F0900CAAE0FCA3E0FDA3E04C
:404B4000FEA3E0FF9003F21269CF853B2BE52B6032FFC3E53B9FFFE49400FE74282FF582740A3EF583E0FFE52BFDE53BC39DFDE49400FC74F62DF58274033CF583EFF015E3
:404B80002B80CA9004227407F0A37401F0900CB1E0FCA3E0FDA3E0FEA3E0FF9004241269CF853C2BE52B6032FFC3E53C9FFFE49400FE744B2FF582740A3EF583E0FFE52B9C
:404BC000FDE53CC39DFDE49400FC74282DF58274043CF583EFF0152B80CA9004547403F0A37401F0900CB5E0FFA3E0900456CFF0A3EFF0853D2BE52B6032FFC3E53D9FFFAB
:404C0000E49400FE74732FF582740A3EF583E0FFE52BFDE53DC39DFDE49400FC74582DF58274043CF583EFF0152B80CA9004867403F0A37401F0900CB7E0FFA3E0900488FF
:404C4000CFF0A3EFF0853E2BE52B6032FFC3E53E9FFFE49400FE749F2FF582740A3EF583E0FFE52BFDE53EC39DFDE49400FC748A2DF58274043CF583EFF0152B80CA9004D2
:404C8000B87405F0A37401F0900CB9E0FCA3E0FDA3E0FEA3E0FF9004BA1269CF853F2BE52B6032FFC3E53F9FFFE49400FE74BF2FF582740A3EF583E0FFE52BFDE53FC39D77
:404CC000FDE49400FC74BE2DF58274043CF583EFF0152B80CA9004EA7405F0A37401F0900CBDE0FCA3E0FDA3E0FEA3E0FF9004EC1269CF85402BE52B6032FFC3E5409FFF50
:404D0000E49400FE74E22FF582740A3EF583E0FFE52BFDE540C39DFDE49400FC74F02DF58274043CF583EFF0152B80CAE490051CF0A304F0900CAEE090051EF0900CAE60BB
:404D40001C900C5474FFF0A37426F0A37475F07B017A0B790712BC81752C23801A900C5474FFF0A37426F0A3747BF07B017A0B790712BC81752C22852C2BE52B6032FFC318
:404D8000E52C9FFFE49400FE74072FF582740B3EF583E0FFE52BFDE52CC39DFDE49400FC741F2DF58274053CF583EFF0152B80CA741F252CF582E43405F5837403F0E49012
:404DC000054EF0A304F0900CAFE0900550F0900CAF601C900C5474FFF0A37426F0A37475F07B017A0B792A12BC81752C27801A900C5474FFF0A37426F0A3747BF07B017AC9
:404E00000B792A12BC81752C26852C2BE52B6032FFC3E52C9FFFE49400FE742A2FF582740B3EF583E0FFE52BFDE52CC39DFDE49400FC74512DF58274053CF583EFF0152B4D
:404E400080CA7451252CF582E43405F5837403F090058014F0A314F0900CC1E0900582F085412BE52B6032FFC3E5419FFFE49400FE74512FF582740B3EF583E0FFE52BFD40
:404E8000E541C39DFDE49400FC74832DF58274053CF583EFF0152B80CA9005B27402F0A314F0900CC2E09005B4F085422BE52B6032FFC3E5429FFFE49400FE74632FF582F1
:404EC000740B3EF583E0FFE52BFDE542C39DFDE49400FC74B52DF58274053CF583EFF0152B80CA9005E47402F0A314F0900CC3E09005E6F085432BE52B6032FFC3E5439FE8
:404F0000FFE49400FE74792FF582740B3EF583E0FFE52BFDE543C39DFDE49400FC74E72DF58274053CF583EFF0152B80CAE4900616F0A304F0900CC4E0900618F0900CC465
:404F4000601C900C5474FFF0A37426F0A37480F07B017A0B799812BC81752C14801A900C5474FFF0A37426F0A37487F07B017A0B799812BC81752C15852C2BE52B6032FF5C
:404F8000C3E52C9FFFE49400FE74982FF582740B3EF583E0FFE52BFDE52CC39DFDE49400FC74192DF58274063CF583EFF0152B80CA7419252CF582E43406F5837402F085B6
:404FC000442BE52B6032FFC3E5449FFFE49400FE74AD2FF582740B3EF583E0FFE52BFDE544C39DFDE49400FC74482DF58274063CF583EFF0152B80CA85452BE52B6032FF32
:40500000C3E5459FFFE49400FE74112FF582740C3EF583E0FFE52BFDE545C39DFDE49400FC74DE2DF58274063CF583EFF0152B80CA85462BE52B6032FFC3E5469FFFE494FF
:4050400000FE74272FF582740C3EF583E0FFE52BFDE546C39DFDE49400FC74742DF58274073CF583EFF0152B80CA7B017A00793890083BE0A3E014FD12C4A390083BE0FC99
:40508000A3E0FD2437F58274003CF583EFF07B017A00793812B31522900D91E0900CD7F022900D91E0900CD8F022E4F52BE52BC3940340030254CD7491252BF582E4340D08
:4050C000F583E0FF74D9252BF582E4340CF583EFF0052B80D8E4F52BE52BC394035071E52B25E02491F582E4340DF583E0FEA3E0FFEE3395E0FDFCE52B25E025E024DCF537
:4051000082E4340CF5831269CFE52B25E025E024DCF582E4340CF583C083C082E0FCA3E0FDA3E0FEA3E0FF74D9252BF582E4340CF583E0F9F8126982D082D0831269CF7415
:4051400043252BF582E4340EF583E4F0052B8088D20A22E4F52BE52BC3940340030254CDE52B25E025E02491F582E4340DF583E0FCA3E0FDA3E0FEA3E0FFE52B25E025E04D
:4051800024E8F582E4340CF5831269CF052B80C6900D91E0900CF4F022E4F52BE52BC3940240030254CDE52B75F008A42491F582E4340DF583E0FCA3E0FDA3E0FEA3E0FF44
:4051C000E52B25E025E024F5F582E4340CF5831269CFE52B75F008A42495F582E4340DF583E0FCA3E0FDA3E0FEA3E0FFE52B25E025E024FDF582E4340CF5831269CFE52B2A
:4052000025E025E024F5F582E4340CF583C083C082E0FCA3E0FDA3E0FEA3E0FF74D9252BF582E4340CF583E0F9F8126982D082D0831269CFE52B25E025E024FDF582E4341D
:405240000CF583C083C082E0FCA3E0FDA3E0FEA3E0FF74D9252BF582E4340CF583E0F9F8126982D082D0831269CF052B02519C900D91E0FCA3E0FDA3E0FEA3E0FF90083DD8
:405280001269CFE4FFFEFDFC90083DE0F8A3E0F9A3E0FAA3E0FBD3126934501490083DE0FCA3E0FDA3E0FEA3E0FF900D091269CF900D95E0FCA3E0FDA3E0FEA3E0FF900873
:4052C0003D1269CFE4FFFEFDFC90083DE0F8A3E0F9A3E0FAA3E0FBC312693450030254CD90083DE0FCA3E0FDA3E0FEA3E0FF900D051269CF22900D91E0900D11F022900D94
:4053000091E0FFA3E0900D0DCFF0A3EFF0900D93E0FFA3E0900D0FCFF0A3EFF022900D91E0FCA3E0FDA3E0FEA3E0FF900D121269CF900D95E0FCA3E0FDA3E0FEA3E0FF9047
:405340000D161269CF22900D91E0900D1AF022900D91E0900D1BF022900D91E0FFA3E0900D41CFF0A3EFF022900D91E0FFA3E0900D43CFF0A3EFF022900D91E0900841F074
:405380006007900D2C7401F022E4900D2CF022900D91E0900D1DF022900D91E0FCA3E0FDA3E0FEA3E0FF900D1E1269CF900D1EE0FCA3E0FDA3E0FEA3E0FF900CD9E0F9F8AB
:4053C000126982900D1E1269CF22900D91E0FCA3E0FDA3E0FEA3E0FF900D221269CFE47F0AFEFDFC900D22E0F8A3E0F9A3E0FAA3E0FBC312693440030254CDE47F0AFEFD41
:40540000FC900D221269CF22900D91E0FCA3E0FDA3E0FEA3E0FF900D261269CF22900D91E0FCA3E0FDA3E0FEA3E0FF900D2D1269CF22900D91E0FFA3E0900D31CFF0A3EF17
:40544000F022900D91E0FFA3E0900D33CFF0A3EFF022900D91E0FCA3E0FDA3E0FEA3E0FF900D351269CF22900D91E0FCA3E0FDA3E0FEA3E0FF900D391269CF22900D91E0AF
:40548000900841F06007900D2A7401F022E4900D2AF022900D91E0900841F06007900D2B7401F022E4900D2BF022900D91E0900D3DF022900D91E0900D3EF022900D91E063
:4054C000900D3FF022900D91E0900D40F0229006DCEBF0A3EAF0A3E9F0900C5BE064FA70030261FC9006DCE0FBA3E0FAA3E0F8AC02AD037BFF7A26798F126C0C900C5474C1
:40550000FFF0A37426F0A37490F09006DCE0FBA3E0FAA3E0F912BC81900C5474FFF0A37426F0A37493F09006DCE0FBA3E0FAA3E0F912BC81900C5474FFF0A37426F0A374DD
:40554000A6F09006DCE0FBA3E0FAA3E0F912BC81900C5474FFF0A37426F0A374DAF09006DCE0FBA3E0FAA3E0F912BC81900C5474FFF0A37426F0A374E0F09006DCE0FBA3B3
:40558000E0FAA3E0F912BC8190074874FFF0A37426F0A374EEF0900C5BE0FF90074BE4F0A3EFF07B017A0679E1128B61900C547401F0A37406F0A374E1F09006DCE0FBA346
:4055C000E0FAA3E0F912BC81900C5474FFF0A37426F0A374F7F09006DCE0FBA3E0FAA3E0F912BC81900C5474FFF0A37427F0A3740DF09006DCE0FBA3E0FAA3E0F912BC81C9
:40560000E49006DFF0A3F0C39006E0E094039006DFE06480948040030256CD90074874FFF0A37427F0A3741DF09006DFE0FCA3E0FD2401FEE43C90074BF0A3CEF0EDAE04AF
:405640007802C333CE33CED8F92437F582740E3EF583E0FCA3E0FDA3E0FEA3E0FF9006DFE0FAA3E0245DF582740C3AF583E0F9F812696E90074DEEF0A3EFF07B017A067942
:40568000E1128B61900C547401F0A37406F0A374E1F09006DCE0FBA3E0FAA3E0F912BC81900C5474FFF0A37426F0A37490F09006DCE0FBA3E0FAA3E0F912BC819006E0E02A
:4056C00004F070069006DFE004F002560790074874FFF0A37427F0A37426F0900D82E0FCA3E0FDA3E0FEA3E0FF90074B1269CF7B017A0679E1128B61900C547401F0A37491
:4057000006F0A374E1F09006DCE0FBA3E0FAA3E0F912BC81900C5474FFF0A37426F0A37490F09006DCE0FBA3E0FAA3E0F912BC8190074874FFF0A37427F0A37440F0900EF5
:405740001FE0FCA3E0FDA3E0FEA3E0FF90074B1269CF7B017A0679E1128B61900C547401F0A37406F0A374E1F09006DCE0FBA3E0FAA3E0F912BC81900C5474FFF0A37426BC
:40578000F0A37490F09006DCE0FBA3E0FAA3E0F912BC81900C5474FFF0A37427F0A37464F09006DCE0FBA3E0FAA3E0F912BC81900C5CE0B4070040030258A99057C2F828AA
:4057C00028730257D70257F602581502583302585102586F02588D900C5474FFF0A37427F0A3747AF09006DCE0FBA3E0FAA3E0F912BC810258A9900C5474FFF0A37427F01D
:40580000A3748CF09006DCE0FBA3E0FAA3E0F912BC810258A9900C5474FFF0A37427F0A374A1F09006DCE0FBA3E0FAA3E0F912BC818076900C5474FFF0A37427F0A374C031
:40584000F09006DCE0FBA3E0FAA3E0F912BC818058900C5474FFF0A37427F0A374DBF09006DCE0FBA3E0FAA3E0F912BC81803A900C5474FFF0A37427F0A374F2F09006DC2D
:40588000E0FBA3E0FAA3E0F912BC81801C900C5474FFF0A37428F0A3740DF09006DCE0FBA3E0FAA3E0F912BC8190074874FFF0A37428F0A37424F0900C9FE0FE3395E09011
:4058C000074BF0A3CEF07B017A0679E1128B61900C547401F0A37406F0A374E1F09006DCE0FBA3E0FAA3E0F912BC81900C5474FFF0A37428F0A3743DF09006DCE0FBA3E03C
:40590000FAA3E0F912BC81E49006DFF0A3F0C39006E0E094039006DFE06480948040030259AA90074874FFF0A37427F0A3741DF09006DFE0FCA3E0FD2401FEE43C90074BF7
:40594000F0A3CEF0745D2DF582740C3CF583E0FF90074DE4F0A3EFF07B017A0679E1128B61900C547401F0A37406F0A374E1F09006DCE0FBA3E0FAA3E0F912BC81900C54F1
:4059800074FFF0A37426F0A37490F09006DCE0FBA3E0FAA3E0F912BC819006E0E004F070069006DFE004F002590E900C5474FFF0A37428F0A37452F09006DCE0FBA3E0FA14
:4059C000A3E0F912BC81E49006DFF0A3F0C39006E0E094039006DFE0648094804003025A9190074874FFF0A37428F0A37468F09006DFE0FCA3E0FD2401FEE43C90074BF00D
:405A0000A3CEF0EDAE047802C333CE33CED8F92460F582740C3EF583E0FCA3E0FDA3E0FEA3E0FF9006DFE0FAA3E0245DF582740C3AF583E0F9F812696E90074D1269CF7B67
:405A4000017A0679E1128B61900C547401F0A37406F0A374E1F09006DCE0FBA3E0FAA3E0F912BC81900C5474FFF0A37426F0A37490F09006DCE0FBA3E0FAA3E0F912BC81C2
:405A80009006E0E004F070069006DFE004F00259CD900C5474FFF0A37428F0A37472F09006DCE0FBA3E0FAA3E0F912BC81E49006DFF0A3F0C39006E0E094039006DFE064E0
:405AC0008094804003025B6290074874FFF0A37428F0A3748CF09006DFE0FCA3E0FD2401FEE43C90074BF0A3CEF0EDAE047802C333CE33CED8F9246CF582740C3EF583E0F9
:405B0000FCA3E0FDA3E0FEA3E0FF90074D1269CF7B017A0679E1128B61900C547401F0A37406F0A374E1F09006DCE0FBA3E0FAA3E0F912BC81900C5474FFF0A37426F0A362
:405B40007490F09006DCE0FBA3E0FAA3E0F912BC819006E0E004F070069006DFE004F0025AB490074874FFF0A37428F0A37495F0900CF4E0FF90074BE4F0A3EFF07B017AD9
:405B80000679E1128B61900C547401F0A37406F0A374E1F09006DCE0FBA3E0FAA3E0F912BC81900C5474FFF0A37426F0A37490F09006DCE0FBA3E0FAA3E0F912BC81E49088
:405BC00006DFF0A3F0C39006E0E094019006DFE0648094804003025CDD90074874FFF0A37428F0A374AFF09006DFE0FCA3E0FD2401FEE43C90074BF0A3CEF0EDAE0478023D
:405C0000C333CE33CED8F924F5F582740C3EF583E0FCA3E0FDA3E0FEA3E0FF9006DFE0FAA3E024D9F582740C3AF583E0F9F812696E90074D1269CF7B017A0679E1128B61F5
:405C4000900C547401F0A37406F0A374E1F09006DCE0FBA3E0FAA3E0F912BC8190074874FFF0A37428F0A374D5F09006DFE0FAA3E0FBAE027802C333CE33CED8F924FDF555
:405C800082740C3EF583E0FCA3E0FDA3E0FEA3E0FF74D92BF582740C3AF583E0F9F812696E90074B1269CF7B017A0679E1128B61900C547401F0A37406F0A374E1F0900692
:405CC000DCE0FBA3E0FAA3E0F912BC819006E0E004F070069006DFE004F0025BC590074874FFF0A37428F0A374E2F0900D05E0A3E0A3E0FFA3E090074BCFF0A3EFF0900D56
:405D000009E0A3E0A3E0FFA3E090074DCFF0A3EFF07B017A0679E1128B61900C547401F0A37406F0A374E1F09006DCE0FBA3E0FAA3E0F912BC81900C5474FFF0A37426F01A
:405D4000A37490F09006DCE0FBA3E0FAA3E0F912BC8190074874FFF0A37428F0A374FEF0900CC5E0FFA3E090074BCFF0A3EFF07B017A0679E1128B61900C547401F0A374DB
:405D800006F0A374E1F09006DCE0FBA3E0FAA3E0F912BC81900C5474FFF0A37426F0A37490F09006DCE0FBA3E0FAA3E0F912BC8190074874FFF0A37429F0A37419F0900C96
:405DC000C7E0FFA3E090074BCFF0A3EFF07B017A0679E1128B61900C547401F0A37406F0A374E1F09006DCE0FBA3E0FAA3E0F912BC81900C5474FFF0A37426F0A37490F00D
:405E00009006DCE0FBA3E0FAA3E0F912BC8190074874FFF0A37429F0A3742CF0900D0DE0FFA3E090074BCFF0A3EFF0900D0FE0FFA3E090074DCFF0A3EFF07B017A0679E170
:405E4000128B61900C547401F0A37406F0A374E1F09006DCE0FBA3E0FAA3E0F912BC81900C5474FFF0A37426F0A37490F09006DCE0FBA3E0FAA3E0F912BC8190074874FF47
:405E8000F0A37429F0A3744EF0900D12E0FCA3E0FDA3E0FEA3E0FF90074B1269CF900D16E0FCA3E0FDA3E0FEA3E0FF90074F1269CF7B017A0679E1128B61900C547401F048
:405EC000A37406F0A374E1F09006DCE0FBA3E0FAA3E0F912BC81900C5474FFF0A37426F0A37490F09006DCE0FBA3E0FAA3E0F912BC81900D11E0601E900C5474FFF0A374F6
:405F000029F0A37472F09006DCE0FBA3E0FAA3E0F912BC81801C900C5474FFF0A37429F0A3748DF09006DCE0FBA3E0FAA3E0F912BC8190074874FFF0A37429F0A374A7F0D2
:405F4000900D1AE0FF90074BE4F0A3EFF07B017A0679E1128B61900C547401F0A37406F0A374E1F09006DCE0FBA3E0FAA3E0F912BC81900C5474FFF0A37426F0A37490F009
:405F80009006DCE0FBA3E0FAA3E0F912BC8190074874FFF0A37429F0A374B9F0900D22E0A3E0A3E0FFA3E090074BCFF0A3EFF07B017A0679E1128B61900C547401F0A37410
:405FC00006F0A374E1F09006DCE0FBA3E0FAA3E0F912BC81900C5474FFF0A37426F0A37490F09006DCE0FBA3E0FAA3E0F912BC8190074874FFF0A37429F0A374D2F0900D9A
:4060000026E0A3E0A3E0FFA3E090074BCFF0A3EFF07B017A0679E1128B61900C547401F0A37406F0A374E1F09006DCE0FBA3E0FAA3E0F912BC81900C5474FFF0A37426F0FC
:40604000A37490F09006DCE0FBA3E0FAA3E0F912BC8190074874FFF0A37429F0A374F8F0900D1EE0FCA3E0FDA3E0FEA3E0FF900C5DE0F9F812696E90074BEEF0A3EFF07BF9
:40608000017A0679E1128B61900C547401F0A37406F0A374E1F09006DCE0FBA3E0FAA3E0F912BC81900C5474FFF0A37426F0A37490F09006DCE0FBA3E0FAA3E0F912BC817C
:4060C000900D2CE0601E900C5474FFF0A3742AF0A3740AF09006DCE0FBA3E0FAA3E0F912BC81801C900C5474FFF0A3742AF0A3742BF09006DCE0FBA3E0FAA3E0F912BC8168
:40610000900D2AE0601E900C5474FFF0A3742AF0A3744BF09006DCE0FBA3E0FAA3E0F912BC81801C900C5474FFF0A3742AF0A3746BF09006DCE0FBA3E0FAA3E0F912BC81A8
:40614000900D2BE0601E900C5474FFF0A3742AF0A3748AF09006DCE0FBA3E0FAA3E0F912BC81801C900C5474FFF0A3742AF0A374B3F09006DCE0FBA3E0FAA3E0F912BC81E0
:4061800090074874FFF0A3742AF0A374DBF0900D7EE0F8A3E0F9A3E0FAA3E0FB900E23E0FCA3E0FDA3E0FEA3E0C39BFFEE9AFEED99FDEC98FC90074B1269CF7B017A067978
:4061C000E1128B61900C547401F0A37406F0A374E1F09006DCE0FBA3E0FAA3E0F912BC81900C5474FFF0A37426F0A37490F09006DCE0FBA3E0FAA3E0F912BC81220265BEEE
:40620000E86480F8E933E83360110460F0ED33EC337009E8FCE9FDEAFEEBFF220460DED3EB9FEA9EE99DE8C2E78CF0C2F795F0400CE8CCF8E9CDF9EACEFAEBCFFB12658922
:4062400085D0F05804700320D5B3E80470075002B2D50265C892D5EC0460F7E4CCC0E0C398F8603B94186008400DD0E0FB0265A0E4FBFAC9FC8028E830E406E4C9FBE4CA5A
:40628000FCE830E305E4C9CACBFCE854076010F8C3E913F9EA13FAEB13FBEC13FCD8F130F52FC3E49CFCEF9BFFEE9AFEED99FDD0E0FBEF4E4D4C701222DB030265C5EC2C21
:4062C000FCEF33FFEE33FEED33FDED30E7EB0265A0EF2BFFEE3AFEED39FDD0E0FB50130BBB00030265C8ED13FDEE13FEEF13FFEC13FC0265A0EC4D6011E8497017ED33EC7A
:406300003304600DE4FCFFFEFD22E933E8330470F80265BE12658958046009E4CC248150062850090265C82840030265C5C0E0EB4A7044B98006D0E0FB0265B4EF4E701CE7
:40634000BD8008EBFFEAFEE9FD80EBE98DF0A4FEE5F00263DEE9CDF9EAFEEBFFEF89F0A4FCE5F0CE89F0A42EFFE435F0CD89F0A42DFEE435F08067EF4E7005BD80D780C308
:40638000EF8BF0A4ACF0EE8BF0A42CFCE435F0F8EF8AF0A42CE5F038FCE433CB8DF0A42CFCE5F03BF8EE8AF0A42CFCE5F038F8E433CF89F0A42CFCE5F038CF3400CE89F0CD
:4063C000A42FFFE5F03EFEE433C98DF0A42EFEE5F039CD8AF0A42FFFE5F03EFEE43DFD33D0E0FB50070BBB000F0265C8EC2CFCEF33FFEE33FEED33FD0265A00265C8EC5D0E
:40640000046005E8590470030265BE126589580460F6EC4860F2EC7004FDFEFF22C860DB2481C85009C398600250060265C59850CAF582E9294B4A7005AB820265B475F068
:40644000007C1A7880C3EF9BEE9AED99400DC3EF9BFFEE9AFEED99FDE842F0DC23ACF0D0E0FFD0E0FED0E0FDAB8220E7101BEB60BAEC2CFCEF33FFEE33FEED33FD0265A0F6
:40648000E803F830E705C0F075F000EF2FFFEE33FEED33FD40B830E7C280AA74F8CC6480CCC86480C8F58204604FC3EB9FF5F0EA9E42F0E99D42F0E89C45F0603C501DE5A3
:4064C000825FFFE582D313CB5BCBF42B5582FB50280ABA002409B9002008801DE5825BFBE582D313CF5FCFF4C3132F5582FF50090EBE00050DBD00010CC3EB9FF5F0EA9E15
:4065000042F0E99D42F0E89C45F06007CC4820E701B3EC2275F020800E75F010800575F0087D007E007F003392D530D503126926EC334010EF33FFEE33FEED33FDEC33FC56
:40654000D5F0ED22E5F0247EA2D513CC92E7CDCEFF22EDD2E7CD33EC3392D524814006E4FFFEFDFC22FCE4CFCECDCC24E0501174FF80EDC3CC13CCCD13CDCE13CECF13CF5C
:406580000470F030D5DE026926E9D2E7C933E833F892D5EDD2E7CD33EC33FC5002B2D522EC30E7100FBF000C0EBE00080DBD00040BEB6014A2D5EB13FCED92E7FD2274FFCD
:4065C000FCFDFEFF22E480F8A2D574FF13FC7D80E480EFF920E73624F950037907E4F42402FBE582158270021583DBF6E024FB501BE96014E4F0E582158270021583E0045F
:40660000F0B40A08E4F0D9EE7401F00A22C2D522ED33EC3392D5FA602AB4FF33EDC2E77BFF60067A667935E4227A66793E20D5047A667939224E614E002B494E46002D49E6
:406640004E4600E47A08F0A3DAFC7B00740722C083C082ECC0E0EDC0E0EEC0E0EFC0E0EA75F010A4CAABF075F04DA42BFBE435F0FCEA2410FAEB34C5FBEC34D9FCEDC2E779
:40668000FF75F056A4F42411C5F0F434C58FF0A42AE5F03BE43CF020E714126745D0E0FFD0E0FED0E0FDD0E0FC1263FE8014F404126745D0E0FFD0E0FED0E0FDD0E0FC1230
:4066C00062F5D082D083E0FAEDD2E7CD33EC332482FBE4C3CF33CFCE33CECD33CD33DBF37B0775F00A846004F0A31B0AE5F0F0A38FF0740AA4FFACF08EF0740AA42CFEAC9E
:40670000F050010C8DF0740AA42CFDE435F0F0A3DBDE7407223F8000004120000042C80000447A0000461C400047C35000497424004B1896804CBEBC205A0E1BCA6753C265
:406740001C749DC5AEFB60065407601C2323126773EB5438600912675F12676E1262F5ECF8EDF9EEFAEFCB22EB12676E80F1543803241C906715FE93FC0EEE93FD0EEE93B3
:406780000ECE93FF22BB010689828A83E0225002E722BBFE02E32289828A83E49322BB010CE58229F582E5833AF583E0225006E92582F8E622BBFE06E92582F8E222E5821E
:4067C00029F582E5833AF583E49322BB010689828A83F0225002F722BBFE01F322BB010A89828A83F0E5F0A3F0225006F709A7F01922BBFE06F3E5F009F31922E88FF0A4D7
:40680000CC8BF0A42CFCE98EF0A42CFC8AF0EDA42CFCEA8EF0A4CDA8F08BF0A42DCC3825F0FDE98FF0A42CCD35F0FCEB8EF0A4FEA9F0EB8FF0A4CFC5F02ECD39FEE43CFC62
:40684000EAA42DCE35F0FDE43CFC2275F008758200EF2FFFEE33FECD33CDCC33CCC58233C5829BED9AEC99E58298400CF582EE9BFEED9AFDEC99FC0FD5F0D6E4CEFBE4CD39
:40688000FAE4CCF9A88222B800C1B90059BA002DEC8BF084CFCECDFCE5F0CBF97818EF2FFFEE33FEED33FDEC33FCEB33FB10D703994004EB99FB0FD8E5E4F9FA227818EFE6
:4068C0002FFFEE33FEED33FDEC33FCC933C910D7059BE99A4007EC9BFCE99AF90FD8E0E4C9FAE4CCFB2275F010EF2FFFEE33FEED33FDCC33CCC833C810D7079BEC9AE899D7
:40690000400AED9BFDEC9AFCE899F80FD5F0DAE4CDFBE4CCFAE4C8F922CFF4CFCEF4CECDF4CDCCF4CC22C3E49FFFE49EFEE49DFDE49CFC22EB9FF5F0EA9E42F0E99D42F0A2
:40694000EC6480C864809845F022EB9FF5F0EA9E42F0E99D42F0E89C45F022E8600FECC313FCED13FDEE13FEEF13FFD8F122E86010ECA2E713FCED13FDEE13FEEF13FFD842
:40698000F022E8600FEFC333FFEE33FEED33FDEC33FCD8F122BB010789828A83026C615005E9F8026C55BBFE05E9F8026C6D89828A83026C79BB010789828A830269CF50C7
:4069C00005E9F8026C89BBFE05E9F8026C9522ECF0A3EDF0A3EEF0A3EFF022F8E0FBA3A3E0F925F0F0E582158270021583E0FA38F022EBF0A3EAF0A3E9F022D083D082F8BF
:406A0000E4937012740193700DA3A393F8740193F5828883E4737402936860EFA3A3A380DFE54A2582F582E5493583F583B5490485824A2210AF0685824AF5492285824A37
:406A4000F549D2AF22EC8EF0A4CCC5F0CCCDF8EFA4CEC5F02DFDE43CFCE8A42EC8C5F03DFDE43CFCEFA4FFE5F028FEE43DFDE43CFC22E709F608DFFA8046E709F208DFFAF3
:406A8000803E88828C83E709F0A3DFFA8032E309F608DFFA806EE309F208DFFA806688828C83E309F0A3DFFA805A89828A83E0A3F608DFFA804E89828A83E0A3F208DFFAA2
:406AC000804280D280FA80C680D4805580F28029801080A680EA809A80A880DA80E280CA802988848C8589828A83E493A30586F0A30586DFF5DEF3800B89828A83E493A313
:406B0000F608DFF9ECFAA9F0EDFB2288848C8589828A83E0A30586F0A30586DFF6DEF480E389828A83E493A3F208DFF980D688F0EF60010E4E60CD88F0ED2402B40400504D
:406B4000C3F582EB2402B4040050B92323458223906AC273E709F60870FA8046E709F20870FA803E88828C83E709F0A370FA8074E309F60870FA806CE309F20870FA80640C
:406B800088828C83E309F0A370FA805889828A83E0A3F60870FA804C89828A83E0A3F20870FA804080D280FA80C680D4805180F28027801080A680EA809A80A880DA80E2FF
:406BC00080CA802788848C8589828A83E493A30586F0A3058670F5800B89828A83E493A3F60870F9ECFAA9F0EDFB2288848C8589828A83E0A30586F0A3058670F680E589E5
:406C0000828A83E493A3F20870F980D888F0ED2402B4040050CEF582EB2402B4040050C42323458223906BA473C5F0F8A3E028F0C5F0F8E582158270021583E038F022A32F
:406C4000F8E0C5F025F0F0E582158270021583E0C838F0E822E6FC08E6FD08E6FE08E6FF22E0FCA3E0FDA3E0FEA3E0FF22E2FC08E2FD08E2FE08E2FF22E493FC740193FD27
:406C8000740293FE740393FF22ECF608EDF608EEF608EFF622ECF208EDF208EEF208EFF22212CC29EF700A300CF7C20C12A2F880F0900E2CE0249AFF900E2BE034F9FE3327
:406CC00095E0FDFCE47BA07A07F9F81267FC780712696E900D821269CF300C05C20C12A2F8900CC9E06077300D74900F4FE004F0E064E87002740370657F287E23FDFC906A
:406D00000D82E0F8A3E0F9A3E0FAA3E0FBC3126934500FE47F407E1FFDFC900E1F1269CF8037E47FC87E32FDFC900D82E0F8A3E0F9A3E0FAA3E0FBC3126934500FE47FE057
:406D40007E2EFDFC900E1F1269CF800DE47FC07E5DFDFC900E1F1269CFE4900CC9F0E47F587E1BFDFC900D82E0F8A3E0F9A3E0FAA3E0FBD31269345003027588E47FE87E4B
:406D800003FDFC900F50E0F8A3E0F9A3E0FAA3E0FB12694A7004D20D8036900F50E0FCA3E0FDA3E0FEA3E02401FFE43EFEE43DFDE43CFC900F501269CF900D82E0FCA3E047
:406DC000FDA3E0FEA3E0FF12B951900E331269CF300C05C20C12A2F8900D11E07004F50EF50F900C5CE064066003027138E510147003026EEB147003026EFE147003026F84
:406E00001D147003026F8024046003026F8B900E2FE0FEA3E0FFEE3395E08F258E24F523F522C3E5259519FFE5249518FEE5239517FDE5229516FC126514C004C005C00677
:406E4000C007AF19AE18AD17AC16EC126514A804A905AA06AB07D007D006D005D0041263FEC004C005C006C007900D43E0FCA3E0FDE4126519D003D002D001D0001262F5C6
:406E80001265528F258E248D238C22300C05C20C12A2F87F007EFC7DFF7CFFAB25AA24A923A822C3126934500C7525007524FC7523FF7522FFE4FF7E04FDFCAB25AA24A997
:406EC00023A822D3126934400AE4F525752404F523F522900E68E524F0A3E525F0200C03026F8BC20C12A2F8026F8BE4F512F513F519F518F517F516751004026F8B051310
:406F0000E5137002051264644512707FF512F513300C05C20C12A2F8751003806E0513E51370020512900E2FE0FEA3E0FFEE3395E0FDFCE5192FF519E5183EF518E5173D71
:406F4000F517E5163CF516300C05C20C12A2F8E51364C845127034AF19AE18AD17AC167BC8FAF9F812C1708F198E188D178C16300C05C20C12A2F8E4F512F513F510800B92
:406F8000E50E7007E50F7003751002300C05C20C12A2F8E51114700302708E1470030270A11470030270C014700302711B2404600302712A900E31E0FEA3E0FFEE3395E0EC
:406FC0008F258E24F523F522C3E525951DFFE524951CFEE523951BFDE522951AFC126514C004C005C006C007AF1DAE1CAD1BAC1AEC126514A804A905AA06AB07D007D006BA
:40700000D005D0041263FEC004C005C006C007900D43E0FCA3E0FDE4126519D003D002D001D0001262F51265528F258E248D238C22300C05C20C12A2F87F007EFC7DFF7C86
:40704000FFAB25AA24A923A822C3126934500C7525007524FC7523FF7522FFE4FF7E04FDFCAB25AA24A923A822D3126934400AE4F525752404F523F522300C05C20C12A2C8
:40708000F8900E66E524F0A3E525F002712AE4F514F515F51DF51CF51BF51A75110402712A0515E5157002051464644514707BF514F515300C05C20C12A2F8751103806A55
:4070C0000515E51570020514900E31E0FEA3E0FFEE3395E0FDFCE51D2FF51DE51C3EF51CE51B3DF51BE51A3CF51AE51564C845147038AF1DAE1CAD1BAC1A7BC8FAF9F8127E
:40710000C1708F1D8E1C8D1B8C1A300C05C20C12A2F8E4F514F515F511800FE50E700BE50F7007E5107003751102200C030275C9C20C12A2F80275C9E50E1470030272143F
:4071400014700302722B14700302726824036003027315900E2FE0FEA3E0FFEE3395E08F258E24F523F522E4FFFEFDFCAB25AA24A923A822C31269345009E4F525F524F535
:4071800023F522AF25AE24AD23AC2212AD048F258E248D238C22780A126982900D12E0F8A3E0F9A3E0FAA3E0FB1268878F258E248D238C22300C05C20C12A2F8E4FFFEFDEF
:4071C000FCAB25AA24A923A822C3126934500BE4F525F524F523F522801EE4FF7E04FDFCAB25AA24A923A822D3126934400AE4F525752404F523F522AF25AE24AD23AC2242
:40720000900E461269CF200C03027315C20C12A2F8027315E4900F4BF0A3F0FFFEFDFC900D121269CF750E02027315900F4CE004F07006900F4BE004F0900F4BE064017082
:4072400004A3E064F46003027315900F4BF0A3F07F0112CC47E4FF12CC4D300C05C20C12A2F8750E03027315900F4CE004F07006900F4BE004F0C3900E2FE06480948050AC
:4072800004E4F0A3F0900D12E0F8A3E0F9A3E0FAA3E0FBC000C001C002C003900E2FE0FEA3E0FFEE3395E0FDFC12AD04D003D002D001D000EB2FFFEA3EFEE93DFDE83CFC18
:4072C000900D121269CF300C05C20C12A2F8900F4BE064037004A3E064E87039900D12E0FCA3E0FDA3E0FEA3E0FFE47BE87A03F9F8126887900D121269CF300C05C20C12DF
:40730000A2F8E4FF12CC47E4FF12CC4DE4900F4BF0A3F0F50E300C05C20C12A2F8E50F1470030273FA1470030274191470030274561470030275091470030275122405609B
:407340000302757E900E31E0FEA3E0FFEE3395E08F258E24F523F522E4FFFEFDFCAB25AA24A923A822C31269345009E4F525F524F523F522AF25AE24AD23AC2212ADB98F51
:40738000258E248D238C22780A126982900D16E0F8A3E0F9A3E0FAA3E0FB1268878F258E248D238C22300C05C20C12A2F8E4FFFEFDFCAB25AA24A923A822C3126934500BBC
:4073C000E4F525F524F523F522801EE4FF7E04FDFCAB25AA24A923A822D3126934400AE4F525752404F523F522AF25AE24AD23AC22900E4A1269CF02757EE4900F4DF0A3B3
:40740000F0FFFEFDFC900D161269CF300C05C20C12A2F8750F0402757E900F4EE004F07006900F4DE004F0900F4DE064017004A3E064F4600302757E900F4DF0A3F07F0173
:4074400012CC47E4FF12CC4D300C05C20C12A2F8750F0302757E900F4EE004F07006900F4DE004F0C3900E31E0648094805004E4F0A3F0900D16E0F8A3E0F9A3E0FAA3E07F
:40748000FBC000C001C002C003900E31E0FEA3E0FFEE3395E0FDFC12ADB9D003D002D001D000EB2FFFEA3EFEE93DFDE83CFC900D161269CF300C05C20C12A2F8900F4DE049
:4074C00064037004A3E064E8600302757E900D16E0FCA3E0FDA3E0FEA3E0FFE47BE87A03F9F8126887900D161269CFE4FF12CC47E4FF12CC4DE4900F4DF0A3F0300C05C259
:407500000C12A2F8750F058075E50E7071750F02806C900F4EE004F07006900F4DE004F0900F4DE064017004A3E064F47050900F4DF0A3F0300C05C20C12A2F8900C5CE096
:40754000FF6402600EEF64036009EF64046004EFB40528900E37E0FCA3E0FDA3E0FEA3E0FF900CCE1269CF900E3BE0FCA3E0FDA3E0FEA3E0FF900CD21269CFE4F50F300CF2
:4075800048C20C12A2F88041750E01750F01751001751101C20D7F0112CC47E4FF12CC4D300C05C20C12A2F8E4FFFEFDFC900E461269CFE4FFFEFDFC900E4A1269CFE4906D
:4075C0000E66F0A3F0A3F0A3F0900CC9E06003027677200D03027677E50E6003027677E50F6003027677900D82E0FCA3E0FDA3E0FEA3E0FF12B951900E331269CF900E1FBB
:40760000E0FCA3E0FDA3E0FEA3E0FFEC1265147B1F7A85796B783F1262F5C004C005C006C007900E33E0FCA3E0FDA3E0FEA3E0FFEC126514A804A905AA06AB07D007D006B1
:40764000D005D00412649B600E400C7F0112CC47E4FF12CC4D8020E4FF12CC477F0112CC4D900D79E0601012BE08300C05C20C12A2F8E4900D79F0300C05C20C12A2F822D0
:407680008F22E522C394034003027E5C300A227B03AF031BEF6018E4FFFEFDFCEB25E025E024F4F582E4340EF5831269CF80E2C20AE522701812CB52780112695BEFEEED40
:4076C0005403FDE4FC9000021269CF8033E522B4011812CB20780112695BEFEEED5403FDE4FC9000021269CF801612CB16780112695BEFEEED5403FDE4FC9000021269CF1B
:407700007B017A00790212BC164003027942900002E0FCA3E0FDA3E0FEA3E054C0FFEEED5403FDE42FFFE43EFEED34FEFDE434FFFC780212695BEE3395E0FDFCE52225E074
:4077400025E024DCF582E4340CF583E0F8A3E0F9A3E0FAA3E02FFFEA3EFEE93DFDE83CFC9000061269CF300E27900006E0FCA3E0FDA3E0FEA3E0FFE52225E025E024F4F5AE
:4077800082E4340EF5831269CFE522B40202C20EE52225E025E024F4F582E4340EF583E0F8A3E0F9A3E0FAA3E0FB900006E0FCA3E0FDA3E0FEA3E0C39BFFEE9AFEED99FDE7
:4077C000EC98FC9000121269CFE4FF7EC0FDFC900012E0F8A3E0F9A3E0FAA3E0FBD3126934401074432522F582E4340EF583E014F080687F007E407DFF7CFF900012E0F8B3
:40780000A3E0F9A3E0FAA3E0FBC3126934501074432522F582E4340EF583E004F0803C900012E0A3E0A3E0FEA3E0FF12CAD5D3EF9400EE648094C0402274002522F582E4AF
:40784000340FF583E004F074002522F582E4340FF583E0C3940A5003027E5C74002522F582E4340FF583E4F0900006E0FCA3E0FDA3E0FEA3E0FFE52225E025E024F4F582FE
:40788000E4340EF5831269CF900006E0F8A3E0F9A3E0FAA3E0FBC00074432522F582E4340EF583E0FF3395E0FEFDFC7810126982D000EB2FFFEA3EFEE93DFDE83CFC900043
:4078C000061269CFE52225E025E0246CF582E4340CF583E0FCA3E0FDA3E0FEA3E0FFE4FBFA7980783F12649B6038900006E0FCA3E0FDA3E0FEA3E0FFEC126514E52225E07B
:4079000025E0246CF582E4340CF583E0F8A3E0F9A3E0FAA3E0FB1262F51265529000061269CF900006E0FCA3E0FDA3E0FEA3E0FFE52225E025E02437F582E4340EF58312B6
:4079400069CFE5221470030279F8147003027A9924026003027B37E47F03FEFDFC900006E0F8A3E0F9A3E0FAA3E0FB1267FC900F03E0F8A3E0F9A3E0FAA3E02FFFEA3EFEF4
:40798000E93DFDE83CFC900F0FE0F8A3E0F9A3E0FAA3E0FBC3EF9BFFEE9AFEED99FDEC98FCC004C005C006C007E47F03FEFDFC900F1BE0F8A3E0F9A3E0FAA3E0FB1267FCC1
:4079C000A804A905AA06AB07D007D006D005D004C3EF9BFFEE9AFEED99FDEC98FCE47B0AFAF9F81267FC12B63FEE3395E0FDFC90000A1269CF027B37E47F03FEFDFC9000BC
:407A000006E0F8A3E0F9A3E0FAA3E0FB1267FC900F07E0F8A3E0F9A3E0FAA3E02FFFEA3EFEE93DFDE83CFC900F13E0F8A3E0F9A3E0FAA3E0FBC3EF9BFFEE9AFEED99FDECA9
:407A400098FCC004C005C006C007E47F03FEFDFC900F1FE0F8A3E0F9A3E0FAA3E0FB1267FCA804A905AA06AB07D007D006D005D004C3EF9BFFEE9AFEED99FDEC98FCE47B37
:407A80000AFAF9F81267FC12B6C2EE3395E0FDFC90000A1269CF027B37E47F03FEFDFC900006E0F8A3E0F9A3E0FAA3E0FB1267FC900F0BE0F8A3E0F9A3E0FAA3E02FFFEADE
:407AC0003EFEE93DFDE83CFC900F17E0F8A3E0F9A3E0FAA3E0FBC3EF9BFFEE9AFEED99FDEC98FCC004C005C006C007E47F03FEFDFC900F23E0F8A3E0F9A3E0FAA3E0FB1297
:407B000067FCA804A905AA06AB07D007D006D005D004C3EF9BFFEE9AFEED99FDEC98FCE47B0AFAF9F81267FC12B745EE3395E0FDFC90000A1269CF90000AE0FCA3E0FDA318
:407B4000E0FEA3E0FFE52225E025E0244EF582E4340EF5831269CFE522147003027C0D147003027CAE24026003027D4CE47F03FEFDFC90000AE0F8A3E0F9A3E0FAA3E0FB5D
:407B80001267FC900F27E0F8A3E0F9A3E0FAA3E02FFFEA3EFEE93DFDE83CFC900F33E0F8A3E0F9A3E0FAA3E0FBC3EF9BFFEE9AFEED99FDEC98FCC004C005C006C007E47F30
:407BC00003FEFDFC900F3FE0F8A3E0F9A3E0FAA3E0FB1267FCA804A905AA06AB07D007D006D005D004C3EF9BFFEE9AFEED99FDEC98FCE47B0AFAF9F81267FC12B7C8EE3387
:407C000095E0FDFC90000E1269CF027D4CE47F03FEFDFC90000AE0F8A3E0F9A3E0FAA3E0FB1267FC900F2BE0F8A3E0F9A3E0FAA3E02FFFEA3EFEE93DFDE83CFC900F37E0FD
:407C4000F8A3E0F9A3E0FAA3E0FBC3EF9BFFEE9AFEED99FDEC98FCC004C005C006C007E47F03FEFDFC900F43E0F8A3E0F9A3E0FAA3E0FB1267FCA804A905AA06AB07D00714
:407C8000D006D005D004C3EF9BFFEE9AFEED99FDEC98FCE47B0AFAF9F81267FC12B84BEE3395E0FDFC90000E1269CF027D4CE47F03FEFDFC90000AE0F8A3E0F9A3E0FAA3E5
:407CC000E0FB1267FC900F2FE0F8A3E0F9A3E0FAA3E02FFFEA3EFEE93DFDE83CFC900F3BE0F8A3E0F9A3E0FAA3E0FBC3EF9BFFEE9AFEED99FDEC98FCC004C005C006C00767
:407D0000E47F03FEFDFC900F47E0F8A3E0F9A3E0FAA3E0FB1267FCA804A905AA06AB07D007D006D005D004C3EF9BFFEE9AFEED99FDEC98FCE47B0AFAF9F81267FC12B8CEF4
:407D4000EE3395E0FDFC90000E1269CF90000EE0FCA3E0FDA3E0FEA3E0FFE52225E025E0245AF582E4340EF5831269CFE52225E025E0240FF582E4340FF583E0FCA3E0FDEB
:407D8000A3E0FEA3E0FFE52225E025E0241BF582E4340FF5831269CFE52225E025E02403F582E4340FF583E0FCA3E0FDA3E0FEA3E0FFE52225E025E0240FF582E4340FF58C
:407DC000831269CF900006E0FCA3E0FDA3E0FEA3E0FFE52225E025E02403F582E4340FF5831269CFE52225E025E02433F582E4340FF583E0FCA3E0FDA3E0FEA3E0FFE52245
:407E000025E025E0243FF582E4340FF5831269CFE52225E025E02427F582E4340FF583E0FCA3E0FDA3E0FEA3E0FFE52225E025E02433F582E4340FF5831269CF90000AE062
:407E4000FCA3E0FDA3E0FEA3E0FFE52225E025E02427F582E4340FF5831269CF22900C91E0FEA3E0FFFBAA06E4900E46E0FCA3E0FDA3E0FEA3E0C39BF529EE9AF528ED94A3
:407E800000F527EC9400F526900C93E0FEA3E0FFFBAA06E4900E4AE0FCA3E0FDA3E0FEA3E0C39BF52DEE9AF52CED9400F52BEC9400F52A900C5CE024FE70030280101470B9
:407EC0000302806E1470030281631470030282C6147003028467240560030284E8900D79E06026900C9FE0FF3395E0FEFDFC900E37E0F8A3E0F9A3E0FAA3E0FB1267FC8F86
:407F0000258E248D238C228009E4F525F524F523F522900CCEE0F8A3E0F9A3E0FAA3E0FBC3E5259BFFE5249AFEE52399FDE52298FC900C89E0F8A3E0F9A3E0FAA3E0FBC30C
:407F40001269345044E4FFFEFDFC900C89E0F8A3E0A3E0A3E0C3126934602E900CCEE0FCA3E0FDA3E0FEA3E0FF900C89E0F8A3E0A3E0A3E0EF2BFFEE3AFEED39FDEC38FC8D
:407F8000900CCE1269CF0284E8900CCEE0F8A3E0F9A3E0FAA3E0FBC3E5259BFFE5249AFEE52399FDE52298FC900C8DE0F8A3E0F9A3E0FAA3E0FBD31269344043E4FFFEFD4A
