:1026000002C9E7008F828E83E0540100000070F859
:102610002278FFE4F6D8FD02CA75900020EEF0A300
:10262000EFF078227C007D017BFF7A5279567E099B
:102630007F2F1294889009517409F0A3742FF078B9
:10264000587C097D017BFF7A5B79857E007F0F12C4
:10265000948878677C097D017BFF7A5B79947E00A2
:102660007F1C12948878837C097D017BFF7A5B79DB
:10267000B07E007F1B129488789E7C097D017BFFD1
:102680007A5B79CB7E007F1C12948878BA7C097DB6
:10269000017BFF7A5B79E77E007F2212948878DCE9
:1026A0007C097D017BFF7A5C79097E007F2712948B
:1026B0008878037C0A7D017BFF7A5C79307E007F1D
:1026C0001112948878147C0A7D017BFF7A5C794131
:1026D0007E007F19129488782D7C0A7D017BFF7A19
:1026E0005C795A7E007F11129488783E7C0A7D01C5
:1026F0007BFF7A5C796B7E007F1C129488785A7C11
:102700000A7D017BFF7A5C79877E007F1D129488A9
:1027100078777C0A7D017BFF7A5C79A47E007F1B41
:1027200012948878927C0A7D017BFF7A5C79BF7E67
:10273000007F1412948878A67C0A7D017BFF7A5C66
:1027400079D37E007F2512948878CB7C0A7D017B2B
:10275000FF7A5C79F87E007F1512948878E07C0A15
:102760007D017BFF7A5D790D7E007F15129488785C
:10277000F57C0A7D017BFF7A5D79227E007F141251
:10278000948878097C0B7D017BFF7A5D79367E0029
:102790007F24129488782D7C0B7D017BFF7A5D79F4
:1027A0005A7E007F1912948878467C0B7D017BFF4E
:1027B0007A5D79737E007F18129488785E7C0B7D39
:1027C000017BFF7A5D798B7E007F1D129488787B78
:1027D0007C0B7D017BFF7A5D79A87E007F141294CB
:1027E00088788F7C0B7D017BFF7A5D79BC7E007FD2
:1027F0002412948878B37C0B7D017BFF7A5D79E0AD
:102800007E007F2312948878D67C0B7D017BFF7A33
:102810005E79037E007F1112948878E77C0B7D013E
:102820007BFF7A5E79147E007F1512948878FC7C99
:102830000B7D017BFF7A5E79297E007F24129488CC
:1028400078207C0C7D017BFF7A5E794D7E007F23B2
:1028500012948878437C0C7D017BFF7A5E79707ED0
:10286000007F29129488786C7C0C7D017BFF7A5E56
:1028700079997E007F2812948878947C0C7D017B66
:10288000FF7A5E79C17E007F2C12948878C07C0C20
:102890007D017BFF7A5E79ED7E007F20129488783F
:1028A000E07C0C7D017BFF7A5F790D7E007F231237
:1028B000948878037C0D7D017BFF7A5F79307E0000
:1028C0007F2512948878287C0D7D017BFF7A5F79C3
:1028D000557E007F12129488783A7C0D7D017BFF33
:1028E0007A5F79677E007F1612948878507C0D7D20
:1028F000017BFF7A5F797D7E007F1F129488786F5D
:102900007C0D7D017BFF7A5F799C7E007F63129452
:102910008878D27C0D7D017BFF7A5F79FF7E007F16
:102920003F12948878117C0E7D017BFF7A60793E9E
:102930007E007F2A1294887B017A09795812F0D19F
:102940008F2E7B017A09796712F0D18F2F7B017A64
:1029500009798312F0D18F307B017A0A790312F062
:10296000D18F317B017A0A791412F0D18F327B0139
:102970007A0A792D12F0D18F337B017A0A795A12B3
:10298000F0D18F347B017A0A797712F0D18F357BC1
:10299000017A0A799212F0D18F367B017A0A79CBCB
:1029A00012F0D18F377B017A0A79E012F0D18F389B
:1029B0007B017A0A79F512F0D18F397B017A0B7994
:1029C0002D12F0D18F3A7B017A0B79E712F0D18F7B
:1029D0003B7B017A0D796F12F0D18F3C7B017A0D30
:1029E00079D212F0D18F3D7B017A0E791112F0D19C
:1029F0008F3E7B017A0B797B12F0D18F3F7B017A7E
:102A00000B798F12F0D18F407B017A0B79B312F0E2
:102A1000D18F417B017A0B79D612F0D18F427B01A5
:102A20007A0C796C12F0D18F437B017A0C79941275
:102A3000F0D18F447B017A0C79C012F0D18F457BA5
:102A4000017A0C79E012F0D18F467B017A0D79037F
:102A500012F0D18F477B017A0D792812F0D18F487F
:102A60007B017A0D793A12F0D18F497B017A0D7989
:102A70005012F0D18F4A900022740CF0A37425F00C
:102A8000900020E0FEA3E0FFEE6003024489EFB473
:102A900026004003024489902A9EF8282873022BBE
:102AA00010023E4A023E53023F23023FF302400619
:102AB00002400F0240180240430240C10240FE02A1
:102AC00041070241DD02426302427302427C02423C
:102AD0009B0242C40242CD0242E40242ED0242F6AF
:102AE0000242FF02433102434602437902438E020F
:102AF00043CB0243E20243F902441002442502445C
:102B00003502444502445A02446F0244780244812B
:102B10009000247402F0A314F0900E45E09000267B
:102B2000F0852E2CE52C6032FFC3E52E9FFFE49448
:102B300000FE74582FF58274093EF583E0FFE52C02
:102B4000FDE52EC39DFDE49400FC74272DF58274F1
:102B5000003CF583EFF0152C80CA9000567407F006
:102B6000A37403F0900E78E064036068900E46E072
:102B7000FCA3E0FDA3E0FEA3E0FFEC128D87E4FBE5
:102B8000FA79807847128C719000581292F8900E62
:102B90004AE0FCA3E0FDA3E0FEA3E0FFEC128D877A
:102BA000E4FBFA79807847128C7190005C1292F8FD
:102BB000900E4EE0FCA3E0FDA3E0FEA3E0FFEC12CC
:102BC0008D87E4FBFA79807847128C71900060124F
:102BD00092F88066900E5EE0FCA3E0FDA3E0FEA309
:102BE000E0FFEC128D87E4FBFA79807847128C7154
:102BF0009000581292F8900E62E0FCA3E0FDA3E072
:102C0000FEA3E0FFEC128D87E4FBFA79807847128F
:102C10008C7190005C1292F8900E66E0FCA3E0FDCF
:102C2000A3E0FEA3E0FFEC128D87E4FBFA79807845
:102C300047128C719000601292F8852F2CE52C6061
:102C400032FFC3E52F9FFFE49400FE74672FF582E7
:102C500074093EF583E0FFE52CFDE52FC39DFDE4FF
:102C60009400FC74642DF58274003CF583EFF0153C
:102C70002C80CA9000887407F0A37403F0900E783B
:102C8000E064036068900E52E0FCA3E0FDA3E0FE68
:102C9000A3E0FFEC128D87E4FBFA79807847128C71
:102CA0007190008A1292F8900E56E0FCA3E0FDA30A
:102CB000E0FEA3E0FFEC128D87E4FBFA7980784711
:102CC000128C7190008E1292F8900E5AE0FCA3E0E4
:102CD000FDA3E0FEA3E0FFEC128D87E4FBFA798010
:102CE0007847128C719000921292F88066900E6A6A
:102CF000E0FCA3E0FDA3E0FEA3E0FFEC128D87E47F
:102D0000FBFA79807847128C7190008A1292F890C1
:102D10000E6EE0FCA3E0FDA3E0FEA3E0FFEC128D4D
:102D200087E4FBFA79807847128C7190008E1292BA
:102D3000F8900E72E0FCA3E0FDA3E0FEA3E0FFEC40
:102D4000128D87E4FBFA79807847128C719000929B
:102D50001292F885302CE52C6032FFC3E5309FFFDE
:102D6000E49400FE74832FF58274093EF583E0FF3E
:102D7000E52CFDE530C39DFDE49400FC74962DF533
:102D80008274003CF583EFF0152C80CAE49000BA01
:102D9000F0A304F0900E76E09000BCF0900E766008
:102DA0001C900E3E74FFF0A37444F0A3748AF07B71
:102DB000017A09799E12E3AC752D1C801A900E3EA3
:102DC00074FFF0A37444F0A37490F07B017A097946
:102DD0009E12E3AC752D1B852D2CE52C6032FFC3B4
:102DE000E52D9FFFE49400FE749E2FF58274093E4A
:102DF000F583E0FFE52CFDE52DC39DFDE49400FC8B
:102E000074BD2DF58274003CF583EFF0152C80CA5B
:102E100074BD252DF582E43400F5837403F0E4904D
:102E200000ECF0A304F0900E77E09000EEF0900E2E
:102E30007714603314604C14606514607E14700362
:102E4000022ED724056003022EF1900E3E74FFF08F
:102E5000A37444F0A37495F07B017A0979BA12E364
:102E6000AC752D14022EF1900E3E74FFF0A3744445
:102E7000F0A3749BF07B017A0979BA12E3AC752D4B
:102E800017806E900E3E74FFF0A37444F0A374A4F8
:102E9000F07B017A0979BA12E3AC752D218052904A
:102EA0000E3E74FFF0A37444F0A374B7F07B017A74
:102EB0000979BA12E3AC752D1D8036900E3E74FF71
:102EC000F0A37444F0A374C6F07B017A0979BA12B6
:102ED000E3AC752D19801A900E3E74FFF0A3744474
:102EE000F0A374D1F07B017A0979BA12E3AC752DA5
:102EF00022852D2CE52C6032FFC3E52D9FFFE49445
:102F000000FE74BA2FF58274093EF583E0FFE52CCC
:102F1000FDE52DC39DFDE49400FC74EF2DF5827456
:102F2000003CF583EFF0152C80CA74EF252DF58257
:102F3000E43400F5837401F0E490011EF0A304F082
:102F4000900E78E0900120F0900E781460261460C6
:102F50003F1460582403706E900E3E74FFF0A3740B
:102F600044F0A374E5F07B017A0979DC12E3AC75D7
:102F70002D1B8052900E3E74FFF0A37444F0A37496
:102F8000F0F07B017A0979DC12E3AC752D168036FE
:102F9000900E3E74FFF0A37444F0A374F6F07B012E
:102FA0007A0979DC12E3AC752D1A801A900E3E7402
:102FB000FFF0A37445F0A37400F07B017A0979DC7B
:102FC00012E3AC752D27852D2CE52C6032FFC3E56F
:102FD0002D9FFFE49400FE74DC2FF58274093EF50A
:102FE00083E0FFE52CFDE52DC39DFDE49400FC741A
:102FF000212DF58274013CF583EFF0152C80CA7405
:1030000021252DF582E43401F5837402F0900150FE
:10301000F0A304F0E4F52CE52CC39403501E74795E
:10302000252CF582E4340EF583E0FF7452252CF54F
:1030300082E43401F583EFF0052C80DB85312CE54B
:103040002C6032FFC3E5319FFFE49400FE74032F30
:10305000F582740A3EF583E0FFE52CFDE531C39D62
:10306000FDE49400FC74552DF58274013CF583EF6A
:10307000F0152C80CA9001827403F0A3F0E4F52CC3
:10308000E52CC394035044E52C25E025E0247CF591
:1030900082E4340EF583E0FCA3E0FDA3E0FEA3E0B0
:1030A000FF7479252CF582E4340EF583E0F9F812EB
:1030B000926B75F002E52CA42484F582E5F03401CE
:1030C000F583EEF0A3EFF0052C80B585322CE52CCE
:1030D0006032FFC3E5329FFFE49400FE74142FF5C5
:1030E00082740A3EF583E0FFE52CFDE532C39DFDC9
:1030F000E49400FC748A2DF58274013CF583EFF0B2
:10310000152C80CA9001B47407F0A37403F0E4F5A1
:103110002CE52CC394035031E52C25E025E02488D0
:10312000F582E4340EF583E0FCA3E0FDA3E0FEA30A
:10313000E0FF75F004E52CA424B6F582E5F0340137
:10314000F5831292F8052C80C885332CE52C60326B
:10315000FFC3E5339FFFE49400FE742D2FF58274C6
:103160000A3EF583E0FFE52CFDE533C39DFDE494C5
:1031700000FC74C22DF58274013CF583EFF0152C30
:1031800080CAE49001E6F0A304F0900E94E0900170
:10319000E8F0900E94601C900E3E74FFF0A374440F
:1031A000F0A3748AF07B017A0A793E12E3AC752DA4
:1031B0001C801A900E3E74FFF0A37444F0A3749028
:1031C000F07B017A0A793E12E3AC752D1B852D2C1C
:1031D000E52C6032FFC3E52D9FFFE49400FE743EB2
:1031E0002FF582740A3EF583E0FFE52CFDE52DC343
:1031F0009DFDE49400FC74E92DF58274013CF58397
:10320000EFF0152C80CA74E9252DF582E43401F520
:10321000837403F09002187405F0A37402F0E4F5CF
:103220002CE52CC3940140030232ACE52C25E025AB
:10323000E02495F582E4340EF583E0FCA3E0FDA3E1
:10324000E0FEA3E0FF7479252CF582E4340EF583CB
:10325000E0F9F812926B75F008E52CA4241AF582B7
:10326000E5F03402F5831292F8E52C25E025E02400
:103270009DF582E4340EF583E0FCA3E0FDA3E0FEBF
:10328000A3E0FF7479252CF582E4340EF583E0F990
:10329000F812926B75F008E52CA4241EF582E5F077
:1032A0003402F5831292F8052C02322185342CE584
:1032B0002C6032FFC3E5349FFFE49400FE745A2F64
:1032C000F582740A3EF583E0FFE52CFDE534C39DED
:1032D000FDE49400FC74222DF58274023CF583EF2A
:1032E000F0152C80CA90024A7405F0A37402F09085
:1032F0000EA9E0FCA3E0FDA3E0FEA3E0FF90024CDA
:103300001292F8900EA5E0FCA3E0FDA3E0FEA3E07E
:10331000FF9002501292F885352CE52C6032FFC3E5
:10332000E5359FFFE49400FE74772FF582740A3E22
:10333000F583E0FFE52CFDE535C39DFDE49400FC3D
:1033400074542DF58274023CF583EFF0152C80CA7D
:1033500090027C7403F0A37401F0900EADE0FFA323
:10336000E090027ECFF0A3EFF085362CE52C6032A2
:10337000FFC3E5369FFFE49400FE74922FF582743C
:103380000A3EF583E0FFE52CFDE536C39DFDE494A0
:1033900000FC74802DF58274023CF583EFF0152C4F
:1033A00080CAE49002AEF0A304F0900EB3E0900265
:1033B000B0F0900EB3601C900E3E74FFF0A3744406
:1033C000F0A3748AF07B017A0A79A612E3AC752D1A
:1033D00025801A900E3E74FFF0A37444F0A37490FD
:1033E000F07B017A0A79A612E3AC752D24852D2C89
:1033F000E52C6032FFC3E52D9FFFE49400FE74A628
:103400002FF582740A3EF583E0FFE52CFDE52DC320
:103410009DFDE49400FC74B12DF58274023CF583AB
:10342000EFF0152C80CA74B1252DF582E43402F535
:10343000837403F09002E004F0A37402F0900EAFE6
:10344000E0FFA3E09002E2CFF0A3EFF0900EB1E036
:10345000FFA3E09002E4CFF0A3EFF085372CE52C3A
:103460006032FFC3E5379FFFE49400FE74CB2FF575
:1034700082740A3EF583E0FFE52CFDE537C39DFD30
:10348000E49400FC74E62DF58274023CF583EFF0C1
:10349000152C80CA9003127406F0A37402F0900EEB
:1034A000B4E0FCA3E0FDA3E0FEA3E0FF9003141250
:1034B00092F8900EB8E0FCA3E0FDA3E0FEA3E0FFCD
:1034C0009003181292F885382CE52C6032FFC3E582
:1034D000389FFFE49400FE74E02FF582740A3EF5F5
:1034E00083E0FFE52CFDE538C39DFDE49400FC740A
:1034F0001C2DF58274033CF583EFF0152C80CA90E7
:1035000003447402F0A314F0900EBCE0900346F064
:1035100085392CE52C6032FFC3E5399FFFE4940028
:10352000FE74F52FF582740A3EF583E0FFE52CFD6D
:10353000E539C39DFDE49400FC74472DF5827403C6
:103540003CF583EFF0152C80CAE4900376F0A304D9
:10355000F0900EBDE0900378F0900EBD601C900ED0
:103560003E74FFF0A37444F0A3748AF07B017A0BDD
:10357000790912E3AC752D24801A900E3E74FFF089
:10358000A37444F0A37490F07B017A0B790912E3E1
:10359000AC752D23852D2CE52C6032FFC3E52D9FC6
:1035A000FFE49400FE74092FF582740B3EF583E06E
:1035B000FFE52CFDE52DC39DFDE49400FC74792D01
:1035C000F58274033CF583EFF0152C80CA747925DD
:1035D0002DF582E43403F5837403F09003A874019D
:1035E000F0A3F0900EBEE09003AAF0853A2CE52CF3
:1035F0006032FFC3E53A9FFFE49400FE742D2FF57F
:1036000082740B3EF583E0FFE52CFDE53AC39DFD9A
:10361000E49400FC74AB2DF58274033CF583EFF069
:10362000152C80CAE49003DAF0A304F0900EBFE0FA
:103630009003DCF0900EBF601C900E3E74FFF0A370
:103640007444F0A3748AF07B017A0B794612E3ACE0
:10365000752D18801A900E3E74FFF0A37444F0A3E9
:103660007490F07B017A0B794612E3AC752D1785C7
:103670002D2CE52C6032FFC3E52D9FFFE49400FE66
:1036800074462FF582740B3EF583E0FFE52CFDE5D3
:103690002DC39DFDE49400FC74DD2DF58274033C84
:1036A000F583EFF0152C80CA74DD252DF582E43406
:1036B00003F5837403F0E490040CF0A304F0900E7F
:1036C000DAE090040EF0900EDA601C900E3E74FF6B
:1036D000F0A37444F0A3748AF07B017A0B795E1234
:1036E000E3AC752D1D801A900E3E74FFF0A3744458
:1036F000F0A37490F07B017A0B795E12E3AC752D28
:103700001C852D2CE52C6032FFC3E52D9FFFE49432
:1037100000FE745E2FF582740B3EF583E0FFE52C0E
:10372000FDE52DC39DFDE49400FC740F2DF582741E
:10373000043CF583EFF0152C80CA740F252DF5821B
:10374000E43404F5837403F090043E7405F0A3742C
:1037500001F0900EDBE0FCA3E0FDA3E0FEA3E0FFA0
:10376000900E79E0F9F812926B9004401292F8856D
:103770003F2CE52C6032FFC3E53F9FFFE49400FE41
:10378000747B2FF582740B3EF583E0FFE52CFDE59D
:103790003FC39DFDE49400FC74442DF58274043C09
:1037A000F583EFF0152C80CA9004707407F0A374B1
:1037B00001F0900EDFE0FCA3E0FDA3E0FEA3E0FF3C
:1037C0009004721292F885402CE52C6032FFC3E51C
:1037D000409FFFE49400FE748F2FF582740B3EF53A
:1037E00083E0FFE52CFDE540C39DFDE49400FC74FF
:1037F000762DF58274043CF583EFF0152C80CA9089
:1038000004A27407F0A37401F0E4FFFE7D7A7C4407
:10381000900EE3E0F8A3E0F9A3E0FAA3E0FB128B3B
:10382000689004A41292F885412CE52C6032FFC305
:10383000E5419FFFE49400FE74B32FF582740B3EC4
:10384000F583E0FFE52CFDE541C39DFDE49400FC1C
:1038500074A82DF58274043CF583EFF0152C80CA12
:103860009004D47407F0A37401F0900EE7E0FCA379
:10387000E0FDA3E0FEA3E0FF9004D61292F885429B
:103880002CE52C6032FFC3E5429FFFE49400FE74F8
:10389000D62FF582740B3EF583E0FFE52CFDE54263
:1038A000C39DFDE49400FC74DA2DF58274043CF5AC
:1038B00083EFF0152C80CA9005067407F0A314F06E
:1038C000E4F52CE52CC394065031E52C25E025E0E9
:1038D00024C0F582E4340EF583E0FCA3E0FDA3E010
:1038E000FEA3E0FF75F004E52CA42408F582E5F0C2
:1038F0003405F5831292F8052C80C8853B2CE52C05
:103900006032FFC3E53B9FFFE49400FE74E72FF5B0
:1039100082740B3EF583E0FFE52CFDE53BC39DFD86
:10392000E49400FC74202DF58274053CF583EFF0DF
:10393000152C80CAE4900538F0A304F0900EEDE059
:1039400090053AF0900EED601C900E3E74FFF0A3CF
:103950007444F0A3748AF07B017A0B79FC12E3AC17
:10396000752D24801A900E3E74FFF0A37444F0A3CA
:103970007490F07B017A0B79FC12E3AC752D2385F2
:103980002D2CE52C6032FFC3E52D9FFFE49400FE53
:1039900074FC2FF582740B3EF583E0FFE52CFDE50A
:1039A0002DC39DFDE49400FC743B2DF58274053C11
:1039B000F583EFF0152C80CA743B252DF582E43495
:1039C00005F5837403F0E490056AF0A304F0900E0B
:1039D000EBE090056CF0900EEB601C900E3E74FFD7
:1039E000F0A37444F0A3748AF07B017A0C7920125E
:1039F000E3AC752D23801A900E3E74FFF0A374443F
:103A0000F0A37490F07B017A0C792012E3AC752D51
:103A100022852D2CE52C6032FFC3E52D9FFFE49419
:103A200000FE74202FF582740C3EF583E0FFE52C38
:103A3000FDE52DC39DFDE49400FC746D2DF58274AD
:103A4000053CF583EFF0152C80CA746D252DF582A9
:103A5000E43405F5837403F0E490059CF0A304F0CE
:103A6000900EECE090059EF0900EEC601C900E3EE7
:103A700074FFF0A37444F0A3748AF07B017A0C798C
:103A80004312E3AC752D29801A900E3E74FFF0A30B
:103A90007444F0A37490F07B017A0C794312E3AC88
:103AA000752D28852D2CE52C6032FFC3E52D9FFF59
:103AB000E49400FE74432FF582740C3EF583E0FF1E
:103AC000E52CFDE52DC39DFDE49400FC749F2DF5D0
:103AD0008274053CF583EFF0152C80CA749F252D68
:103AE000F582E43405F5837403F09005CE7407F095
:103AF000A37401F0900EEEE0FCA3E0FDA3E0FEA3B2
:103B0000E0FF9005D01292F885432CE52C6032FF3F
:103B1000C3E5439FFFE49400FE746C2FF582740CA0
:103B20003EF583E0FFE52CFDE543C39DFDE49400F5
:103B3000FC74D42DF58274053CF583EFF0152C80D0
:103B4000CA9006007403F0A37401F0900EF2E0FF37
:103B5000A3E0900602CFF0A3EFF085442CE52C60A3
:103B600032FFC3E5449FFFE49400FE74942FF58276
:103B7000740C3EF583E0FFE52CFDE544C39DFDE4B8
:103B80009400FC74042DF58274063CF583EFF01567
:103B90002C80CA9006327403F0A37401F0900EF4E6
:103BA000E0FFA3E0900634CFF0A3EFF085452CE5CD
:103BB0002C6032FFC3E5459FFFE49400FE74C02FE4
:103BC000F582740C3EF583E0FFE52CFDE545C39DD1
:103BD000FDE49400FC74362DF58274063CF583EF09
:103BE000F0152C80CA9006647405F0A37401F0905F
:103BF0000EF6E0FCA3E0FDA3E0FEA3E0FF90066666
:103C00001292F885462CE52C6032FFC3E5469FFFF3
:103C1000E49400FE74E02FF582740C3EF583E0FF1F
:103C2000E52CFDE546C39DFDE49400FC746A2DF58A
:103C30008274063CF583EFF0152C80CA90069674CA
:103C400005F0A37401F0900EFAE0FCA3E0FDA3E000
:103C5000FEA3E0FF9006981292F885472CE52C60B1
:103C600032FFC3E5479FFFE49400FE74032FF58203
:103C7000740D3EF583E0FFE52CFDE547C39DFDE4B3
:103C80009400FC749C2DF58274063CF583EFF015CE
:103C90002C80CA9006C87402F0A314F0900EFEE0C7
:103CA0009006CAF085482CE52C6032FFC3E5489F9A
:103CB000FFE49400FE74282FF582740D3EF583E036
:103CC000FFE52CFDE548C39DFDE49400FC74CB2D7D
:103CD000F58274063CF583EFF0152C80CA9006FA45
:103CE0007402F0A314F0900EFFE09006FCF08549FA
:103CF0002CE52C6032FFC3E5499FFFE49400FE747D
:103D00003A2FF582740D3EF583E0FFE52CFDE54981
:103D1000C39DFDE49400FC74FD2DF58274063CF512
:103D200083EFF0152C80CA90072C7402F0A314F0D6
:103D3000900F00E090072EF0854A2CE52C6032FFB2
:103D4000C3E54A9FFFE49400FE74502FF582740D82
:103D50003EF583E0FFE52CFDE54AC39DFDE49400BC
:103D6000FC742F2DF58274073CF583EFF0152C8041
:103D7000CA853C2CE52C6032FFC3E53C9FFFE494F0
:103D800000FE746F2FF582740D3EF583E0FFE52C85
:103D9000FDE53CC39DFDE49400FC745E2DF582744A
:103DA000073CF583EFF0152C80CA853D2CE52C608F
:103DB00032FFC3E53D9FFFE49400FE74D22FF582ED
:103DC000740D3EF583E0FFE52CFDE53DC39DFDE46C
:103DD0009400FC74F42DF58274073CF583EFF01524
:103DE0002C80CA853E2CE52C6032FFC3E53E9FFF48
:103DF000E49400FE74112FF582740E3EF583E0FF0B
:103E0000E52CFDE53EC39DFDE49400FC748A2DF590
:103E10008274083CF583EFF0152C80CA7B017A0090
:103E20007922900951E0A3E014FD12EC7990095138
:103E3000E0FCA3E0FD2421F58274003CF583EFF063
:103E40007B017A00792212D7E92290103DE0900F91
:103E500020F022900E78E064036064E4FFFE7D8031
:103E60007C4790103DE0F8A3E0F9A3E0FAA3E0FB63
:103E7000128B68128DC5900F211292F8E4FFFE7D1F
:103E8000807C47901041E0F8A3E0F9A3E0FAA3E0BA
:103E9000FB128B68128DC5900F251292F8E4FFFE7D
:103EA0007D807C47901045E0F8A3E0F9A3E0FAA3F9
:103EB000E0FB128B68128DC5900F291292F822E454
:103EC000FFFE7D807C4790103DE0F8A3E0F9A3E081
:103ED000FAA3E0FB128B68128DC5900F391292F88D
:103EE000E4FFFE7D807C47901041E0F8A3E0F9A359
:103EF000E0FAA3E0FB128B68128DC5900F3D129281
:103F0000F8E4FFFE7D807C47901045E0F8A3E0F9DF
:103F1000A3E0FAA3E0FB128B68128DC5900F41124B
:103F200092F822900E78E064036064E4FFFE7D80E6
:103F30007C4790103DE0F8A3E0F9A3E0FAA3E0FB92
:103F4000128B68128DC5900F2D1292F8E4FFFE7D42
:103F5000807C47901041E0F8A3E0F9A3E0FAA3E0E9
:103F6000FB128B68128DC5900F311292F8E4FFFEA0
:103F70007D807C47901045E0F8A3E0F9A3E0FAA328
:103F8000E0FB128B68128DC5900F351292F822E477
:103F9000FFFE7D807C4790103DE0F8A3E0F9A3E0B0
:103FA000FAA3E0FB128B68128DC5900F451292F8B0
:103FB000E4FFFE7D807C47901041E0F8A3E0F9A388
:103FC000E0FAA3E0FB128B68128DC5900F491292A4
:103FD000F8E4FFFE7D807C47901045E0F8A3E0F90F
:103FE000A3E0FAA3E0FB128B68128DC5900F4D126F
:103FF00092F82290103DE06007900F517403F02278
:10400000E4900F51F02290103DE0900F52F022907A
:10401000103DE0900F53F022E4F52CE52CC39403FF
:104020004003024489743D252CF582E43410F58365
:10403000E0FF7454252CF582E4340FF583EFF0058E
:104040002C80D8E4F52CE52CC394035071E52C2585
:10405000E0243DF582E43410F583E0FEA3E0FFEEBA
:104060003395E0FDFCE52C25E025E02457F582E4BE
:10407000340FF5831292F8E52C25E025E02457F55E
:1040800082E4340FF583C083C082E0FCA3E0FDA38B
:10409000E0FEA3E0FF7454252CF582E4340FF58391
:1040A000E0F9F812927FD082D0831292F874092539
:1040B0002CF582E43411F583E4F0052C8088D20AD3
:1040C00022E4F52CE52CC394034003024489E52C3B
:1040D00025E025E0243DF582E43410F583E0FCA3DF
:1040E000E0FDA3E0FEA3E0FFE52C25E025E024634E
:1040F000F582E4340FF5831292F8052C80C69010F7
:104100003DE0900F6FF022E4F52CE52CC3940240C3
:1041100003024489E52C75F008A4243DF582E434BB
:1041200010F583E0FCA3E0FDA3E0FEA3E0FFE52C97
:1041300025E025E02470F582E4340FF5831292F82F
:10414000E52C75F008A42441F582E43410F583E0F1
:10415000FCA3E0FDA3E0FEA3E0FFE52C25E025E0C5
:104160002478F582E4340FF5831292F8E52C25E0EB
:1041700025E02470F582E4340FF583C083C082E02B
:10418000FCA3E0FDA3E0FEA3E0FF7454252CF58220
:10419000E4340FF583E0F9F812927FD082D08312D5
:1041A00092F8E52C25E025E02478F582E4340FF53B
:1041B00083C083C082E0FCA3E0FDA3E0FEA3E0FF98
:1041C0007454252CF582E4340FF583E0F9F812924B
:1041D0007FD082D0831292F8052C02410A90103DC4
:1041E000E0FCA3E0FDA3E0FEA3E0FF9009531292E0
:1041F000F8E4FFFEFDFC900953E0F8A3E0F9A3E02A
:10420000FAA3E0FBD31292315014900953E0FCA3BF
:10421000E0FDA3E0FEA3E0FF900F841292F890105F
:1042200041E0FCA3E0FDA3E0FEA3E0FF90095312F0
:1042300092F8E4FFFEFDFC900953E0F8A3E0F9A337
:10424000E0FAA3E0FBC312923150030244899009C3
:1042500053E0FCA3E0FDA3E0FEA3E0FF900F80127B
:1042600092F82290103DE0FFA3E0900F88CFF0A3DA
:10427000EFF02290103DE0900F8EF02290103DE084
:10428000FFA3E0900F8ACFF0A3EFF090103FE0FF84
:10429000A3E0900F8CCFF0A3EFF02290103DE0FC54
:1042A000A3E0FDA3E0FEA3E0FF900F8F1292F89031
:1042B0001041E0FCA3E0FDA3E0FEA3E0FF900F931C
:1042C0001292F82290103DE0900F97F02290103D4E
:1042D000E0900957F06007900F987401F022E49085
:1042E0000F98F02290103DE0900F99F02290103D31
:1042F000E0900F9AF02290103DE0900FB5F02290E0
:10430000103DE0FCA3E0FDA3E0FEA3E0FF900FB6AC
:104310001292F8900FB6E0FCA3E0FDA3E0FEA3E04C
:10432000FF900F54E0F9F812927F900FB61292F8B6
:104330002290103DE0FCA3E0FDA3E0FEA3E0FF908F
:104340000FBA1292F82290103DE0FCA3E0FDA3E02A
:10435000FEA3E0FF900FBE1292F8900FBEE0FCA308
:10436000E0FDA3E0FEA3E0FFE4FBFA797A784412D3
:104370008C71900FBE1292F82290103DE0FCA3E0E9
:10438000FDA3E0FEA3E0FF900FC21292F822E4F535
:104390002CE52CC394064003024489E52C25E02536
:1043A000E0243DF582E43410F583E0FCA3E0FDA3B6
:1043B000E0FEA3E0FFE52C25E025E0249BF582E468
:1043C000340FF5831292F8052C80C690103DE090D2
:1043D0000957F06007900FC87401F022E4900FC8ED
:1043E000F02290103DE0900957F06007900FC674DE
:1043F00001F022E4900FC6F02290103DE0900957A2
:10440000F06007900FC77401F022E4900FC7F0220C
:1044100090103DE0FCA3E0FDA3E0FEA3E0FF900FC1
:10442000C91292F82290103DE0FFA3E0900FCDCF8B
:10443000F0A3EFF02290103DE0FFA3E0900FCFCF6C
:10444000F0A3EFF02290103DE0FCA3E0FDA3E0FE1E
:10445000A3E0FF900FD11292F82290103DE0FCA350
:10446000E0FDA3E0FEA3E0FF900FD51292F82290AA
:10447000103DE0900FD9F02290103DE0900FDAF05F
:104480002290103DE0900FDBF022205945530000B0
:10449000204E4F00002055736200002048616E647A
:1044A0006C65000020454D472070726F706F72740C
:1044B000696F6E616C000020454D4720696E746520
:1044C0006772616C000020454D472046434653000B
:1044D0000020454D47204643465320416476616E97
:1044E000636564000020506F736974696F6E00002B
:1044F0002050574D00002043757272656E740000A5
:1045000020506F736974696F6E20616E642043750B
:104510007272656E740000000D0A004669726D7754
:104520006172652076657273696F6E3A2000534838
:104530002D50524F2076362E312E32202D204D61B7
:104540007374657220772F5265737420706F73696E
:1045500074696F6E20616E642048617074696320B5
:10456000466565646261636B002E0D0A0D0A0044A6
:10457000455649434520494E464F0D0A0049443AA5
:104580002025640D0A0050574D2072657363616CDD
:10459000696E672061637469766174696F6E3A2031
:1045A000005945530A004E4F0A0050574D204C69A0
:1045B0006D69743A2025640D0A004D4F544F522006
:1045C000494E464F0D0A004D6F746F72207265663A
:1045D0006572656E636500202D2043757272656E8D
:1045E00074733A2000202D2050776D3A2000202D42
:1045F00020506F736974696F6E3A20002564200043
:104600004D6F746F7220656E61626C65643A200054
:104610005945530D0A004E4F0D0A000D0A4D4541F4
:10462000535552454D454E545320494E464F0D0A61
:104630000053656E736F722076616C75653A0D0A72
:10464000002564202D3E202564004261747465724B
:104650007920566F6C7461676520286D56293A2061
:10466000256C640046756C6C206368617267652018
:10467000706F7765722074656E73696F6E20286D38
:1046800056293A20256C640043757272656E742059
:10469000286D41293A20256C64000D0A444556498D
:1046A000434520504152414D45544552530D0A0057
:1046B00050494420436F6E74726F6C6C65723A0D92
:1046C0000A0050202D3E20256620200049202D3E46
:1046D00020256620200044202D3E2025660D0A005E
:1046E00043757272656E742050494420436F6E7436
:1046F000726F6C6C65723A0D0A0053746172747556
:10470000702061637469766174696F6E3A205945EF
:10471000530D0A005374617274757020616374697B
:10472000766174696F6E3A204E4F0D0A00496E70C3
:104730007574206D6F64653A205553420D0A004927
:104740006E707574206D6F64653A2048616E646C9C
:10475000650D0A00496E707574206D6F64653A20AE
:10476000454D472070726F706F7274696F6E616C27
:104770000D0A00496E707574206D6F64653A2045AE
:104780004D4720696E74656772616C0D0A00496E51
:10479000707574206D6F64653A20454D472046431F
:1047A00046530D0A00496E707574206D6F64653A4A
:1047B00020454D472046434653204144560D0A00AC
:1047C000436F6E74726F6C206D6F64653A20506F2A
:1047D000736974696F6E0D0A00436F6E74726F6C4B
:1047E000206D6F64653A2050574D0D0A00436F6E7F
:1047F00074726F6C206D6F64653A204375727265D8
:104800006E740D0A00436F6E74726F6C206D6F646E
:10481000653A20506F736974696F6E20616E642011
:1048200043757272656E740D0A004162736F6C7528
:10483000746520656E636F64657220706F73697450
:10484000696F6E3A205945530D0A004162736F6CCF
:1048500075746520656E636F64657220706F73692F
:1048600074696F6E3A204E4F0D0A004D6F746F726F
:104870002D48616E646C6520526174696F3A202521
:10488000640D0A0053656E736F72207265736F6CEE
:104890007574696F6E3A0D0A004D656173757265C6
:1048A0006D656E74204F66667365743A0D0A002557
:1048B00064202D3E20256C64004D65617375726522
:1048C0006D656E74204D756C7469706C6965723AB3
:1048D0000D0A002564202D3E202566004375727266
:1048E000656E74206C6F6F6B7570207461626C659F
:1048F0003A0D0A00705B305D202D20705B325D3A0E
:104900002025662C2025662C2025660A00705B3346
:104910005D202D20705B355D3A2025662C202566B4
:104920002C2025660A00506F736974696F6E206CC5
:10493000696D6974206163746976653A2025640045
:10494000506F736974696F6E206C696D6974206D46
:104950006F746F722025643A20696E66202D3E20A8
:10496000256C64202000737570202D3E20256C641A
:104970000D0A004D6178207374657020706F73208C
:10498000616E64206E65673A2025642025640043CB
:10499000757272656E74206C696D69743A20256455
:1049A00000454D47207468726573686F6C647320AE
:1049B0005B30202D20313032345D3A2025752C209B
:1049C000257500454D47206D61782076616C7565D1
:1049D00073205B30202D20343039365D3A20256C31
:1049E000752C20256C750043616C69627261746975
:1049F0006F6E20656E61626C65643A205945530D97
:104A00000A0043616C6962726174696F6E20656E41
:104A100061626C65643A204E4F0D0A00454D472097
:104A20006D61782073706565643A20256400526575
:104A300073742074696D652064656C617920286DDC
:104A400073293A20256600526573742076656C6F71
:104A50006369747920636C6F73757265202874695B
:104A6000636B732F736563293A2025660052657363
:104A70007420706F736974696F6E3A2025640052F8
:104A800065737420726174696F3A202566005465FD
:104A90006E73696F6E20636F756E743A20256C6457
:104AA0000054656E73696F6E2076616C69643A209C
:104AB000257500426174746572792046696C74656D
:104AC00072656420566F6C7461676520286D562985
:104AD0003A20256C64004D796F656C65637472696A
:104AE0006320636173652032204D61737465723A8F
:104AF000205945530D0A004D796F656C65637472DA
:104B0000696320636173652032204D61737465723F
:104B10003A204E4F0D0A004D61737465722077691B
:104B2000746820466F726365206465766963653AD0
:104B3000205945530D0A004D6173746572207769E1
:104B4000746820466F726365206465766963653AB0
:104B5000204E4F0D0A004D617374657220776974A1
:104B6000682050726F7072696F63657074697665E2
:104B7000206465766963653A205945530D0A004DF6
:104B8000617374657220776974682050726F7072F7
:104B9000696F6365707469766520646576696365BD
:104BA0003A204E4F0D0A0064656275673A20256C05
:104BB0006400000000000000000000000000000091
:104BC00000000000000000000000000000000000E5
:104BD00000000000000000000000000000000000D5
:104BE00000000000000000000000000000000000C5
:104BF00000000000000000000000000000000000B5
:105B8000000000000031202D204465766963652007
:105B900049443A0032202D20506F736974696F6E4A
:105BA00020504944205B502C20492C20445D3A0071
:105BB00033202D2043757272656E74205049442045
:105BC0005B502C20492C20445D3A0034202D20537A
:105BD0007461727475702041637469766174696F61
:105BE0006E3A000000000035202D20496E7075745B
:105BF000206D6F64653A00000000000000000000A6
:105C000000000000000000000036202D20436F6ED1
:105C100074726F6C206D6F64653A000000000000C4
:105C20000000000000000000000000000000000074
:105C300037202D205265736F6C7574696F6E733ADF
:105C40000038202D204D6561737572656D656E7429
:105C5000204F6666736574733A0039202D204D75A8
:105C60006C7469706C696572733A003130202D2054
:105C7000506F732E206C696D69742061637469764E
:105C8000653A00000000003131202D20506F732E46
:105C9000206C696D697473205B696E662C20737566
:105CA000705D3A003132202D204D6178207374658B
:105CB0007073205B6E65672C20706F735D3A0031E6
:105CC00033202D2043757272656E74206C696D6986
:105CD000743A003134202D20454D472063616C69B2
:105CE00062726174696F6E206F6E2073746172747A
:105CF00075703A00000000003135202D20454D47D9
:105D0000207468726573686F6C64733A0031362072
:105D10002D20454D47206D61782076616C75657347
:105D20003A003137202D20454D47206D6178207392
:105D3000706565643A003138202D204162736F6CC4
:105D400075746520656E636F64657220706F73692A
:105D500074696F6E3A00000000003139202D204D2B
:105D60006F746F722068616E646C65207261746913
:105D70006F3A003230202D2050574D2072657363EA
:105D8000616C696E673A00000000003231202D20FE
:105D90005265737420706F736974696F6E20666CDE
:105DA00061673A00000000003232202D20526573F6
:105DB0007420706F736974696F6E3A003233202DEE
:105DC000205265737420706F736974696F6E2074EC
:105DD000696D652064656C617920286D73293A00CE
:105DE0003234202D20526573742076656C20636CEC
:105DF0006F7375726520287469636B732F736563A5
:105E0000293A003235202D20526573742072617456
:105E1000696F3A003236202D2043757272656E74B8
:105E2000206C6F6F6B75703A003237202D204D79E2
:105E30006F656C656374726963206361736520329A
:105E4000204D61737465723A000000000032382002
:105E50002D204D6173746572207769746820466FD8
:105E6000726365206465766963653A00000000002E
:105E70003239202D204D6173746572207769746802
:105E80002050726F7072696F632E2064657669634B
:105E9000653A000000000000003330202D204375DB
:105EA0007272656E742070726F706F7274696F6E4B
:105EB000616C206761696E2028666F726365293A9C
:105EC000003331202D2043757272656E7420646931
:105ED00066666572656E6365207361747572617460
:105EE000696F6E2028666F726365293A003332202D
:105EF0002D2043757272656E742064656164207A2A
:105F00006F6E652028666F726365293A003333200F
:105F10002D204D617820736C696465206D6F766506
:105F20006D656E74202870726F7072696F293A0007
:105F30003334202D204D617820536F667448616E94
:105F40006420636C6F73757265202870726F707255
:105F5000696F293A003335202D20536F66744861EC
:105F60006E642049443A003336202D20466F726318
:105F700065206465766963652049443A00333720BB
:105F80002D2050726F7072696F63657074697665E9
:105F9000206465766963652049443A0030202D3ECF
:105FA000205573620A31202D3E2048616E646C6575
:105FB0000A32202D3E20454D472070726F706F725F
:105FC00074696F6E616C0A33202D3E20454D472069
:105FD000496E74656772616C0A34202D3E20454D10
:105FE0004720464346530A35202D3E20454D472045
:105FF0004643465320416476616E6365640A00300F
:10600000202D3E20506F736974696F6E0A31202D08
:106010003E2050574D0A32202D3E20437572726546
:106020006E740A33202D3E20506F736974696F6E51
:1060300020616E642043757272656E740A003020B0
:106040002D3E2044656163746976617465205B4E02
:106050004F5D0A31202D3E2041637469766174657D
:10606000205B5945535D0A009006C6EBF0A3EAF0A9
:10607000A3E9F0900E45E064FA70030279509006AF
:10608000C6E0FBA3E0FAA3E0F8AC02AD037BFF7A25
:10609000457917129566900E3E74FFF0A37445F093
:1060A000A37418F09006C6E0FBA3E0FAA3E0F9128F
:1060B000E3AC900E3E74FFF0A37445F0A3741BF0A4
:1060C0009006C6E0FBA3E0FAA3E0F912E3AC900E61
:1060D0003E74FFF0A37445F0A3742EF09006C6E062
:1060E000FBA3E0FAA3E0F912E3AC900E3E74FFF0DC
:1060F000A37445F0A37469F09006C6E0FBA3E0FA30
:10610000A3E0F912E3AC900E3E74FFF0A37445F0E7
:10611000A3746FF09006C6E0FBA3E0FAA3E0F912C7
:10612000E3AC90073274FFF0A37445F0A3747DF0E4
:10613000900E45E0FF900735E4F0A3EFF07B017A85
:106140000679CB12AAA8900E3E7401F0A37406F053
:10615000A374CBF09006C6E0FBA3E0FAA3E0F9122B
:10616000E3AC900E3E74FFF0A37445F0A37486F088
:106170009006C6E0FBA3E0FAA3E0F912E3AC900EB0
:10618000BFE0B4011E900E3E74FFF0A37445F0A36F
:1061900074A1F09006C6E0FBA3E0FAA3E0F912E3D5
:1061A000AC801C900E3E74FFF0A37445F0A374A65F
:1061B000F09006C6E0FBA3E0FAA3E0F912E3AC908E
:1061C000073274FFF0A37445F0A374AAF090112D68
:1061D000E0FF900735E4F0A3EFF07B017A0679CB7E
:1061E00012AAA8900E3E7401F0A37406F0A374CB1B
:1061F000F09006C6E0FBA3E0FAA3E0F912E3AC904E
:106200000E3E74FFF0A37445F0A37418F09006C618
:10621000E0FBA3E0FAA3E0F912E3AC900E3E74FFBA
:10622000F0A37445F0A374BAF09006C6E0FBA3E0B7
:10623000FAA3E0F912E3AC900E3E74FFF0A37445AC
:10624000F0A374C7F09006C6E0FBA3E0FAA3E0F960
:1062500012E3AC900F53E0B4021E900E3E74FFF0B8
:10626000A37445F0A374D7F09006C6E0FBA3E0FA50
:10627000A3E0F912E3AC8041900F53E0B4011E900B
:106280000E3E74FFF0A37445F0A374E5F09006C6CB
:10629000E0FBA3E0FAA3E0F912E3AC801C900E3E11
:1062A00074FFF0A37445F0A374EEF09006C6E0FB13
:1062B000A3E0FAA3E0F912E3ACE49006C9F0A3F07E
:1062C000C39006CAE094029006C9E06480948040BE
:1062D00003026424900F53E06402705F90073274ED
:1062E000FFF0A37445F0A374FCF09006C9E0FEA390
:1062F000E07802C333CE33CED8F9240EF582740F82
:106300003EF583E0A3E0A3E0FFA3E0900735CFF0E4
:10631000A3EFF07B017A0679CB12AAA8900E3E7407
:1063200001F0A37406F0A374CBF09006C6E0FBA3C3
:10633000E0FAA3E0F912E3AC026413900F53E064B7
:1063400001705E90073274FFF0A37445F0A374FCF3
:10635000F09006C9E0FEA3E07802C333CE33CED876
:10636000F92416F582740F3EF583E0A3E0A3E0FF65
:10637000A3E0900735CFF0A3EFF07B017A0679CB4D
:1063800012AAA8900E3E7401F0A37406F0A374CB79
:10639000F09006C6E0FBA3E0FAA3E0F912E3AC80BC
:1063A0007290073274FFF0A37445F0A374FCF09070
:1063B00006C9E0FAA3E0FBAE027802C333CE33CEC7
:1063C000D8F92406F582740F3EF583E0FCA3E0FDC6
:1063D000A3E0FEA3E0FF74792BF582740E3AF583F7
:1063E000E0F9F812926B900735EEF0A3EFF07B0125
:1063F0007A0679CB12AAA8900E3E7401F0A3740617
:10640000F0A374CBF09006C6E0FBA3E0FAA3E0F99A
:1064100012E3AC9006CAE004F070069006C9E004EE
:10642000F00262C0900E3E74FFF0A37445F0A374B6
:1064300018F09006C6E0FBA3E0FAA3E0F912E3AC83
:10644000900E3E74FFF0A37445F0A37418F090060C
:10645000C6E0FBA3E0FAA3E0F912E3AC90073274C4
:10646000FFF0A37446F0A37400F07B017A0679CBA9
:1064700012AAA8900F1EE054036019900E3E74FFFC
:10648000F0A37446F0A37410F07B017A0679CB1266
:10649000E3AC8017900E3E74FFF0A37446F0A37433
:1064A00016F07B017A0679CB12E3AC900E3E7401B4
:1064B000F0A37406F0A374CBF09006C6E0FBA3E053
:1064C000FAA3E0F912E3AC900E3E74FFF0A3744619
:1064D000F0A3741BF09006C6E0FBA3E0FAA3E0F97A
:1064E00012E3AC900E3E74FFF0A37446F0A3743137
:1064F000F09006C6E0FBA3E0FAA3E0F912E3ACE4F7
:106500009006C9F0A3F0C39006CAE094039006C9B0
:10651000E06480948040030265CC90073274FFF001
:10652000A37446F0A37441F09006C9E0FCA3E0FD1B
:106530002401FEE43C900735F0A3CEF0EDAE0478E4
:1065400002C333CE33CED8F924F5F58274103EF56C
:1065500083E0FCA3E0FDA3E0FEA3E0FF9006C9E01A
:10656000FAA3E02479F582740E3AF583E0F9F81283
:10657000926B900737EEF0A3EFF07B017A0679CBB0
:1065800012AAA8900E3E7401F0A37406F0A374CB77
:10659000F09006C6E0FBA3E0FAA3E0F912E3AC90AA
:1065A0000E3E74FFF0A37445F0A37418F09006C675
:1065B000E0FBA3E0FAA3E0F912E3AC9006CAE00422
:1065C000F070069006C9E004F00265069007327488
:1065D000FFF0A37446F0A3744AF090101DE0FCA3F2
:1065E000E0FDA3E0FEA3E0FF9007351292F87B01E7
:1065F0007A0679CB12AAA8900E3E7401F0A3740615
:10660000F0A374CBF09006C6E0FBA3E0FAA3E0F998
:1066100012E3AC900E3E74FFF0A37445F0A374181F
:10662000F09006C6E0FBA3E0FAA3E0F912E3AC9019
:10663000073274FFF0A37446F0A37464F09010DC8A
:10664000E0FCA3E0FDA3E0FEA3E0FF90073512927B
:10665000F87B017A0679CB12AAA8900E3E7401F05D
:10666000A37406F0A374CBF09006C6E0FBA3E0FA97
:10667000A3E0F912E3AC900E3E74FFF0A37445F072
:10668000A37418F09006C6E0FBA3E0FAA3E0F912A9
:10669000E3AC90073274FFF0A37446F0A37488F063
:1066A000901101E0FCA3E0FDA3E0FEA3E0FF900752
:1066B000351292F87B017A0679CB12AAA8900E3E89
:1066C0007401F0A37406F0A374CBF09006C6E0FB4F
:1066D000A3E0FAA3E0F912E3AC900E3E74FFF0A33E
:1066E0007445F0A37418F09006C6E0FBA3E0FAA38B
:1066F000E0F912E3AC900E3E74FFF0A37446F0A3F1
:10670000749AF09006C6E0FBA3E0FAA3E0F912E366
:10671000AC900E3E74FFF0A37446F0A374B0F090FA
:1067200006C6E0FBA3E0FAA3E0F912E3AC900E7812
:10673000E06403700302683A90073274FFF0A374B8
:1067400046F0A374C2F0900E46E0FCA3E0FDA3E087
:10675000FEA3E0FFEC128D87E4FBFA798078471204
:106760008C719007351292F87B017A0679CB12AAC8
:10677000A8900E3E7401F0A37406F0A374CBF090C1
:1067800006C6E0FBA3E0FAA3E0F912E3AC900732FF
:1067900074FFF0A37446F0A374CCF0900E4AE0FCB2
:1067A000A3E0FDA3E0FEA3E0FFEC128D87E4FBFA7B
:1067B00079807847128C719007351292F87B017AB4
:1067C0000679CB12AAA8900E3E7401F0A37406F0CD
:1067D000A374CBF09006C6E0FBA3E0FAA3E0F912A5
:1067E000E3AC90073274FFF0A37446F0A374D6F0C4
:1067F000900E4EE0FCA3E0FDA3E0FEA3E0FFEC1250
:106800008D87E4FBFA79807847128C7190073512F6
:1068100092F87B017A0679CB12AAA8900E3E7401F9
:10682000F0A37406F0A374CBF09006C6E0FBA3E0DF
:10683000FAA3E0F912E3AC02693990073274FFF071
:10684000A37446F0A374C2F0900E5EE0FCA3E0FDDA
:10685000A3E0FEA3E0FFEC128D87E4FBFA798078D9
:1068600047128C719007351292F87B017A0679CB2A
:1068700012AAA8900E3E7401F0A37406F0A374CB84
:10688000F09006C6E0FBA3E0FAA3E0F912E3AC90B7
:10689000073274FFF0A37446F0A374CCF0900E623C
:1068A000E0FCA3E0FDA3E0FEA3E0FFEC128D87E493
:1068B000FBFA79807847128C719007351292F87B39
:1068C000017A0679CB12AAA8900E3E7401F0A37447
:1068D00006F0A374CBF09006C6E0FBA3E0FAA3E0B9
:1068E000F912E3AC90073274FFF0A37446F0A3747E
:1068F000D6F0900E66E0FCA3E0FDA3E0FEA3E0FF6F
:10690000EC128D87E4FBFA79807847128C7190073E
:10691000351292F87B017A0679CB12AAA8900E3E26
:106920007401F0A37406F0A374CBF09006C6E0FBEC
:10693000A3E0FAA3E0F912E3AC900E3E74FFF0A3DB
:106940007446F0A374E0F09006C6E0FBA3E0FAA35F
:10695000E0F912E3AC900E78E064037003026A621F
:1069600090073274FFF0A37446F0A374C2F0900E47
:1069700052E0FCA3E0FDA3E0FEA3E0FFEC128D8754
:10698000E4FBFA79807847128C719007351292F8FF
:106990007B017A0679CB12AAA8900E3E7401F0A36F
:1069A0007406F0A374CBF09006C6E0FBA3E0FAA354
:1069B000E0F912E3AC90073274FFF0A37446F0A341
:1069C00074CCF0900E56E0FCA3E0FDA3E0FEA3E043
:1069D000FFEC128D87E4FBFA79807847128C719076
:1069E00007351292F87B017A0679CB12AAA8900E8D
:1069F0003E7401F0A37406F0A374CBF09006C6E0D9
:106A0000FBA3E0FAA3E0F912E3AC90073274FFF0C5
:106A1000A37446F0A374D6F0900E5AE0FCA3E0FDF8
:106A2000A3E0FEA3E0FFEC128D87E4FBFA79807807
:106A300047128C719007351292F87B017A0679CB58
:106A400012AAA8900E3E7401F0A37406F0A374CBB2
:106A5000F09006C6E0FBA3E0FAA3E0F912E3AC0273
:106A60006B6190073274FFF0A37446F0A374C2F018
:106A7000900E6AE0FCA3E0FDA3E0FEA3E0FFEC12B1
:106A80008D87E4FBFA79807847128C719007351274
:106A900092F87B017A0679CB12AAA8900E3E740177
:106AA000F0A37406F0A374CBF09006C6E0FBA3E05D
:106AB000FAA3E0F912E3AC90073274FFF0A3744636
:106AC000F0A374CCF0900E6EE0FCA3E0FDA3E0FE1A
:106AD000A3E0FFEC128D87E4FBFA79807847128CF3
:106AE000719007351292F87B017A0679CB12AAA829
:106AF000900E3E7401F0A37406F0A374CBF09006E0
:106B0000C6E0FBA3E0FAA3E0F912E3AC900732740D
:106B1000FFF0A37446F0A374D6F0900E72E0FCA3CD
:106B2000E0FDA3E0FEA3E0FFEC128D87E4FBFA7921
:106B3000807847128C719007351292F87B017A06A3
:106B400079CB12AAA8900E3E7401F0A37406F0A3AC
:106B500074CBF09006C6E0FBA3E0FAA3E0F912E3E1
:106B6000AC900E3E74FFF0A37445F0A37418F0903F
:106B700006C6E0FBA3E0FAA3E0F912E3AC900E76C0
:106B8000E0B4031E900E3E74FFF0A37446F0A374AD
:106B9000FAF09006C6E0FBA3E0FAA3E0F912E3AC3A
:106BA000801C900E3E74FFF0A37447F0A37414F0A1
:106BB0009006C6E0FBA3E0FAA3E0F912E3AC900E66
:106BC00077E014603814605314606E147003026C24
:106BD00057147003026C7524056003026C91900ECB
:106BE0003E74FFF0A37447F0A3742DF09006C6E046
:106BF000FBA3E0FAA3E0F912E3AC026C91900E3E25
:106C000074FFF0A37447F0A3743FF09006C6E0FB56
:106C1000A3E0FAA3E0F912E3AC8076900E3E74FF95
:106C2000F0A37447F0A37454F09006C6E0FBA3E011
:106C3000FAA3E0F912E3AC8058900E3E74FFF0A383
:106C40007447F0A37473F09006C6E0FBA3E0FAA3C8
:106C5000E0F912E3AC803A900E3E74FFF0A3744763
:106C6000F0A3748EF09006C6E0FBA3E0FAA3E0F96F
:106C700012E3AC801C900E3E74FFF0A37447F0A3A7
:106C800074A5F09006C6E0FBA3E0FAA3E0F912E3D6
:106C9000AC900E78E014602814604314605E240306
:106CA0007076900E3E74FFF0A37447F0A374C0F0AA
:106CB0009006C6E0FBA3E0FAA3E0F912E3AC80582B
:106CC000900E3E74FFF0A37447F0A374D9F09006C1
:106CD000C6E0FBA3E0FAA3E0F912E3AC803A900E21
:106CE0003E74FFF0A37447F0A374EDF09006C6E085
:106CF000FBA3E0FAA3E0F912E3AC801C900E3E7413
:106D0000FFF0A37448F0A37405F09006C6E0FBA35F
:106D1000E0FAA3E0F912E3AC900EBDE0601E900E25
:106D20003E74FFF0A37448F0A3742AF09006C6E006
:106D3000FBA3E0FAA3E0F912E3AC801C900E3E74D2
:106D4000FFF0A37448F0A3744BF09006C6E0FBA3D9
:106D5000E0FAA3E0F912E3AC90073274FFF0A374F9
:106D600048F0A3746BF0900EBEE0FE3395E0900700
:106D700035F0A3CEF07B017A0679CB12AAA8900E4B
:106D80003E7401F0A37406F0A374CBF09006C6E045
:106D9000FBA3E0FAA3E0F912E3AC900E3E74FFF01F
:106DA000A37448F0A37484F09006C6E0FBA3E0FA55
:106DB000A3E0F912E3ACE49006C9F0A3F0C3900697
:106DC000CAE094039006C9E0648094804003026E98
:106DD0005990073274FFF0A37446F0A37441F09009
:106DE00006C9E0FCA3E0FD2401FEE43C900735F079
:106DF000A3CEF074792DF582740E3CF583E0FF90FC
:106E00000737E4F0A3EFF07B017A0679CB12AAA84A
:106E1000900E3E7401F0A37406F0A374CBF09006BC
:106E2000C6E0FBA3E0FAA3E0F912E3AC900E3E74D7
:106E3000FFF0A37445F0A37418F09006C6E0FBA31E
:106E4000E0FAA3E0F912E3AC9006CAE004F07006A1
:106E50009006C9E004F0026DBD900E3E74FFF0A3F1
:106E60007448F0A37499F09006C6E0FBA3E0FAA37F
:106E7000E0F912E3ACE49006C9F0A3F0C39006CAAF
:106E8000E094039006C9E0648094804003026F4060
:106E900090073274FFF0A37448F0A374AFF090062B
:106EA000C9E0FCA3E0FD2401FEE43C900735F0A31B
:106EB000CEF0EDAE047802C333CE33CED8F9247CC5
:106EC000F582740E3EF583E0FCA3E0FDA3E0FEA393
:106ED000E0FF9006C9E0FAA3E02479F582740E3A47
:106EE000F583E0F9F812926B9007371292F87B0164
:106EF0007A0679CB12AAA8900E3E7401F0A374060C
:106F0000F0A374CBF09006C6E0FBA3E0FAA3E0F98F
:106F100012E3AC900E3E74FFF0A37445F0A3741816
:106F2000F09006C6E0FBA3E0FAA3E0F912E3AC9010
:106F300006CAE004F070069006C9E004F0026E7C18
:106F4000900E3E74FFF0A37448F0A374B9F090065D
:106F5000C6E0FBA3E0FAA3E0F912E3ACE49006C9B3
:106F6000F0A3F0C39006CAE094039006C9E06480E1
:106F70009480400302701190073274FFF0A37448AC
:106F8000F0A374D3F09006C9E0FCA3E0FD2401FE59
:106F9000E43C900735F0A3CEF0EDAE047802C333A5
:106FA000CE33CED8F92488F582740E3EF583E0FC0A
:106FB000A3E0FDA3E0FEA3E0FF9007371292F87B69
:106FC000017A0679CB12AAA8900E3E7401F0A37440
:106FD00006F0A374CBF09006C6E0FBA3E0FAA3E0B2
:106FE000F912E3AC900E3E74FFF0A37445F0A37465
:106FF00018F09006C6E0FBA3E0FAA3E0F912E3ACB8
:107000009006CAE004F070069006C9E004F0026F32
:1070100063900E3E74FFF0A37448F0A374DCF0900C
:1070200006C6E0FBA3E0FAA3E0F912E3AC90073256
:1070300074FFF0A37448F0A374F4F0900EC0E0FC69
:10704000A3E0FDA3E0FEA3E0FF9007351292F890C5
:107050000EC4E0FCA3E0FDA3E0FEA3E0FF9007392F
:107060001292F8900EC8E0FCA3E0FDA3E0FEA3E0BE
:10707000FF90073D1292F87B017A0679CB12AAA8FD
:10708000900E3E7401F0A37406F0A374CBF090064A
:10709000C6E0FBA3E0FAA3E0F912E3AC9007327478
:1070A000FFF0A37449F0A3740DF0900ECCE0FCA3A4
:1070B000E0FDA3E0FEA3E0FF9007351292F8900EEA
:1070C000D0E0FCA3E0FDA3E0FEA3E0FF90073912AF
:1070D00092F8900ED4E0FCA3E0FDA3E0FEA3E0FF55
:1070E00090073D1292F87B017A0679CB12AAA890FC
:1070F0000E3E7401F0A37406F0A374CBF09006C6A4
:10710000E0FBA3E0FAA3E0F912E3AC900E3E74FFBB
:10711000F0A37445F0A37418F09006C6E0FBA3E05A
:10712000FAA3E0F912E3AC90073274FFF0A37449BC
:10713000F0A37426F0900F6FE0FF900735E4F0A302
:10714000EFF07B017A0679CB12AAA8900E3E74016B
:10715000F0A37406F0A374CBF09006C6E0FBA3E0A6
:10716000FAA3E0F912E3AC900E3E74FFF0A374456D
:10717000F0A37418F09006C6E0FBA3E0FAA3E0F9D0
:1071800012E3ACE49006C9F0A3F0C39006CAE09401
:10719000019006C9E06480948040030272A29007C7
:1071A0003274FFF0A37449F0A37440F09006C9E074
:1071B000FCA3E0FD2401FEE43C900735F0A3CEF0F3
:1071C000EDAE047802C333CE33CED8F92470F58205
:1071D000740F3EF583E0FCA3E0FDA3E0FEA3E0FF17
:1071E0009006C9E0FAA3E02454F582740F3AF583BF
:1071F000E0F9F812926B9007371292F87B017A0649
:1072000079CB12AAA8900E3E7401F0A37406F0A3E5
:1072100074CBF09006C6E0FBA3E0FAA3E0F912E31A
:10722000AC90073274FFF0A37449F0A37466F09039
:1072300006C9E0FAA3E0FBAE027802C333CE33CE38
:10724000D8F92478F582740F3EF583E0FCA3E0FDC5
:10725000A3E0FEA3E0FF74542BF582740F3AF5838C
:10726000E0F9F812926B9007351292F87B017A06DA
:1072700079CB12AAA8900E3E7401F0A37406F0A375
:1072800074CBF09006C6E0FBA3E0FAA3E0F912E3AA
:10729000AC9006CAE004F070069006C9E004F00263
:1072A000718A90073274FFF0A37449F0A37473F0ED
:1072B000900F80E0A3E0A3E0FFA3E0900735CFF0BC
:1072C000A3EFF0900F84E0A3E0A3E0FFA3E090071A
:1072D00037CFF0A3EFF07B017A0679CB12AAA89002
:1072E0000E3E7401F0A37406F0A374CBF09006C6B2
:1072F000E0FBA3E0FAA3E0F912E3AC900E3E74FFCA
:10730000F0A37445F0A37418F09006C6E0FBA3E068
:10731000FAA3E0F912E3AC90073274FFF0A37449CA
:10732000F0A3748FF0900F88E0FFA3E0900735CFB3
:10733000F0A3EFF07B017A0679CB12AAA8900E3E5B
:107340007401F0A37406F0A374CBF09006C6E0FBC2
:10735000A3E0FAA3E0F912E3AC900E3E74FFF0A3B1
:107360007445F0A37418F09006C6E0FBA3E0FAA3FE
:10737000E0F912E3AC90073274FFF0A37449F0A374
:1073800074A1F0900F8AE0FFA3E0900735CFF0A33F
:10739000EFF0900F8CE0FFA3E0900737CFF0A3EF62
:1073A000F07B017A0679CB12AAA8900E3E7401F008
:1073B000A37406F0A374CBF09006C6E0FBA3E0FA3A
:1073C000A3E0F912E3AC900E3E74FFF0A37445F015
:1073D000A37418F09006C6E0FBA3E0FAA3E0F9124C
:1073E000E3AC90073274FFF0A37449F0A374C3F0C8
:1073F000900F8FE0FCA3E0FDA3E0FEA3E0FF900769
:10740000351292F8900F93E0FCA3E0FDA3E0FEA3F9
:10741000E0FF9007391292F87B017A0679CB12AA25
:10742000A8900E3E7401F0A37406F0A374CBF09004
:1074300006C6E0FBA3E0FAA3E0F912E3AC900E3E2F
:1074400074FFF0A37445F0A37418F09006C6E0FB37
:10745000A3E0FAA3E0F912E3AC900F8EE0601E9077
:107460000E3E74FFF0A37449F0A374E7F09006C6D3
:10747000E0FBA3E0FAA3E0F912E3AC801C900E3E1F
:1074800074FFF0A3744AF0A37402F09006C6E0FB08
:10749000A3E0FAA3E0F912E3AC90073274FFF0A383
:1074A000744AF0A3741CF0900F97E0FF900735E446
:1074B000F0A3EFF07B017A0679CB12AAA8900E3EDA
:1074C0007401F0A37406F0A374CBF09006C6E0FB41
:1074D000A3E0FAA3E0F912E3AC900E3E74FFF0A330
:1074E0007445F0A37418F09006C6E0FBA3E0FAA37D
:1074F000E0F912E3AC90073274FFF0A3744AF0A3F2
:10750000742EF0900FBAE0FCA3E0FDA3E0FEA3E030
:10751000FF9007351292F87B017A0679CB12AAA860
:10752000900E3E7401F0A37406F0A374CBF09006A5
:10753000C6E0FBA3E0FAA3E0F912E3AC900E3E74C0
:10754000FFF0A37445F0A37418F09006C6E0FBA307
:10755000E0FAA3E0F912E3AC90073274FFF0A374F1
:107560004AF0A37447F0E4FFFE7D7A7C44900FBE9E
:10757000E0F8A3E0F9A3E0FAA3E0FB128B68900720
:10758000351292F87B017A0679CB12AAA8900E3EAA
:107590007401F0A37406F0A374CBF09006C6E0FB70
:1075A000A3E0FAA3E0F912E3AC900E3E74FFF0A35F
:1075B0007445F0A37418F09006C6E0FBA3E0FAA3AC
:1075C000E0F912E3AC90073274FFF0A3744AF0A321
:1075D000746DF0900FB6E0FCA3E0FDA3E0FEA3E025
:1075E000FF900E79E0F9F812926B900735EEF0A358
:1075F000EFF07B017A0679CB12AAA8900E3E7401B7
:10760000F0A37406F0A374CBF09006C6E0FBA3E0F1
:10761000FAA3E0F912E3AC900E3E74FFF0A37445B8
:10762000F0A37418F09006C6E0FBA3E0FAA3E0F91B
:1076300012E3AC90073274FFF0A3744AF0A3747F96
:10764000F0900FC2E0FCA3E0FDA3E0FEA3E0FF90FA
:1076500007351292F87B017A0679CB12AAA8900E10
:107660003E7401F0A37406F0A374CBF09006C6E05C
:10767000FBA3E0FAA3E0F912E3AC900E3E74FFF036
:10768000A37445F0A37418F09006C6E0FBA3E0FADB
:10769000A3E0F912E3AC90073274FFF0A3744AF050
:1076A000A3748EF0900F02E0FCA3E0FDA3E0FEA324
:1076B000E0FF9007351292F87B017A0679CB12AA87
:1076C000A8900E3E7401F0A37406F0A374CBF09062
:1076D00006C6E0FBA3E0FAA3E0F912E3AC900E3E8D
:1076E00074FFF0A37445F0A37418F09006C6E0FB95
:1076F000A3E0FAA3E0F912E3AC90073274FFF0A321
:10770000744AF0A374A1F0A20DE433A3F07B017AD4
:107710000679CB12AAA8900E3E7401F0A37406F06D
:10772000A374CBF09006C6E0FBA3E0FAA3E0F91245
:10773000E3AC900E3E74FFF0A37445F0A37418F010
:107740009006C6E0FBA3E0FAA3E0F912E3AC9007D1
:107750003274FFF0A37446F0A3744AF090101DE059
:10776000FCA3E0FDA3E0FEA3E0FF9007351292F832
:107770007B017A0679CB12AAA8900E3E7401F0A381
:107780007406F0A374CBF09006C6E0FBA3E0FAA366
:10779000E0F912E3AC900E3E74FFF0A37445F0A341
:1077A0007418F09006C6E0FBA3E0FAA3E0F912E338
:1077B000AC90073274FFF0A3744AF0A374B3F09056
:1077C00010F1E0FCA3E0FDA3E0FEA3E0FF9007358D
:1077D0001292F87B017A0679CB12AAA8900E3E7419
:1077E00001F0A37406F0A374CBF09006C6E0FBA3EF
:1077F000E0FAA3E0F912E3AC900E3E74FFF0A3743C
:1078000045F0A37418F09006C6E0FBA3E0FAA3E0ED
:10781000F912E3AC900FC8E0601E900E3E74FFF0CA
:10782000A3744AF0A374D6F09006C6E0FBA3E0FA76
:10783000A3E0F912E3AC801C900E3E74FFF0A37439
:107840004AF0A374F7F09006C6E0FBA3E0FAA3E0C9
:10785000F912E3AC900FC6E0601E900E3E74FFF08C
:10786000A3744BF0A37417F09006C6E0FBA3E0FAF4
:10787000A3E0F912E3AC801C900E3E74FFF0A374F9
:107880004BF0A37437F09006C6E0FBA3E0FAA3E048
:10789000F912E3AC900FC7E0601E900E3E74FFF04B
:1078A000A3744BF0A37456F09006C6E0FBA3E0FA75
:1078B000A3E0F912E3AC801C900E3E74FFF0A374B9
:1078C0004BF0A3747FF09006C6E0FBA3E0FAA3E0C0
:1078D000F912E3AC90073274FFF0A3744BF0A37479
:1078E000A7F0901019E0F8A3E0F9A3E0FAA3E0FBF9
:1078F0009010E0E0FCA3E0FDA3E0FEA3E0C39BFF4B
:10790000EE9AFEED99FDEC98FC9007351292F87B0B
:10791000017A0679CB12AAA8900E3E7401F0A374E6
:1079200006F0A374CBF09006C6E0FBA3E0FAA3E058
:10793000F912E3AC900E3E74FFF0A37445F0A3740B
:1079400018F09006C6E0FBA3E0FAA3E0F912E3AC5E
:1079500022E4F526F525F524F523900E46E0FCA358
:10796000E0FDA3E0FEA3E0F5428E418D408C3FA3F5
:10797000E0FCA3E0FDA3E0FEA3E0F5468E458D44C8
:107980008C43A3E0FCA3E0FDA3E0FEA3E0F54A8E58
:10799000498D488C47A3E0FCA3E0FDA3E0FEA3E0F3
:1079A000F54E8E4D8D4C8C4BA3E0FCA3E0FDA3E087
:1079B000FEA3E0F5528E518D508C4FA3E0FCA3E066
:1079C000FDA3E0FEA3E0F5568E558D548C53A3E045
:1079D000FCA3E0FDA3E0FEA3E0F55A8E598D588C80
:1079E00057A3E0FCA3E0FDA3E0FEA3E0F55E8E5DFF
:1079F0008D5C8C5BA3E0FCA3E0FDA3E0FEA3E0F5BF
:107A0000628E618D608C5FA3E0FCA3E0FDA3E0FECD
:107A1000A3E0F5668E658D648C63A3E0FCA3E0FDB6
:107A2000A3E0FEA3E0F56A8E698D688C67A3E0FC95
:107A3000A3E0FDA3E0FEA3E0F56E8E6D8D6C8C6B74
:107A4000900EAFE0FEA3E0FFFBAA06E490110CE06D
:107A5000FCA3E0FDA3E0FEA3E0C39BF53AEE9AF59C
:107A600039ED9400F538EC9400F537900EB1E0FE56
:107A7000A3E0FFFBAA06E4901110E0FCA3E0FDA345
:107A8000E0FEA3E0C39BF53EEE9AF53DED9400F5D4
:107A90003CEC9400F53B900E77E024FE7003027CF2
:107AA00032147003027C90147003027D85147003FD
:107AB000027EE82404600302807F901014E06026B8
:107AC000900EBEE0FF3395E0FEFDFC9010F5E0F86F
:107AD000A3E0F9A3E0FAA3E0FB1290F98F368E350C
:107AE0008D348C33804E900EBDE06024A3E0FF33D4
:107AF00095E0FEFDFC9010FDE0F8A3E0F9A3E0FAAC
:107B0000A3E0FB1290F98F368E358D348C338024B0
:107B1000900EBEE0FF3395E0FEFDFC9010F9E0F81A
:107B2000A3E0F9A3E0FAA3E0FB1290F98F368E35BB
:107B30008D348C33900F06E0F8A3E0F9A3E0FAA3AC
:107B4000E0FBC3E5369BFFE5359AFEE53499FDE59C
:107B50003398FC900EA5E0F8A3E0F9A3E0FAA3E0C7
:107B6000FBC31292315044E4FFFEFDFC900EA5E0F1
:107B7000F8A3E0A3E0A3E0C3129231602E900F06B9
:107B8000E0FCA3E0FDA3E0FEA3E0FF900EA5E0F87B
:107B9000A3E0A3E0A3E0EF2BFFEE3AFEED39FDEC0E
:107BA00038FC900F061292F802807F900F06E0F8E2
:107BB000A3E0F9A3E0FAA3E0FBC3E5369BFFE535BC
:107BC0009AFEE53499FDE53398FC900EA9E0F8A300
:107BD000E0F9A3E0FAA3E0FBD31292314043E4FFC3
:107BE000FEFDFC900EA9E0F8A3E0A3E0A3E0129252
:107BF00031602E900F06E0FCA3E0FDA3E0FEA3E0C1
:107C0000FF900EA9E0F8A3E0A3E0A3E0EF2BFFEEC6
:107C10003AFEED39FDEC38FC900F061292F8028026
:107C20007FAF36AE35AD34AC33900F061292F8020A
:107C3000807FE4FFFEFDFCAB3AAA39A938A837D310
:107C4000129231403D900F78E0FCA3E0FDA3E0FEEE
:107C5000A3E0FFA8371290F9C006C007900EAFE06E
:107C6000FEA3E0FFC3E49FFF74049EFEAB07FAE4AB
:107C7000F9F8D007D00612E89B900F061292F8028E
:107C8000807FE4FFFEFDFC900F061292F802807FD9
:107C9000901021E0FCA3E0FDA3E0FEA3E0FF900F25
:107CA000061292F8E4FFFEFDFCAB3AAA39A938A807
:107CB00037D31292314056900F97E0FFE4FCFDFE5F
:107CC000A8371290F9E47B02FAF9F81290F9C0068D
:107CD000C007900EAFE0FEA3E0FFC3E49FFF740473
:107CE0009EFEAB07FAE4F9F8D007D00612E89B90A5
:107CF0001021E0F8A3E0F9A3E0FAA3E02FFFEA3EA9
:107D0000FEE93DFDE83CFC900F061292F8E4FFFE10
:107D1000FDFCAB3EAA3DA93CA83BD31292315003D7
:107D200002807F900F97E0FFE4FCFDFEA83B1290DD
:107D3000F9E47B02FAF9F81290F9C006C007900E38
:107D4000B1E0FEA3E0FFC3E49FFF74049EFEAB0717
:107D5000FAE4F9F8D007D00612E89BA804A905AA0E
:107D600006AB07901021E0FCA3E0FDA3E0FEA3E03A
:107D7000C39BFFEE9AFEED99FDEC98FC900F061266
:107D800092F802807F901021E0FCA3E0FDA3E0FECA
:107D9000A3E0FF900F061292F89011C6E01460481D
:107DA000147003027E622402600302807FE4FFFEFF
:107DB000FDFCAB3AAA39A938A837D3129231400951
:107DC0009011C67401F002807FE4FFFEFDFCAB3E23
:107DD000AA3DA93CA83BD3129231500302807F9068
:107DE00011C67402F002807FE4FFFEFDFCAB3AAAEC
:107DF00039A938A837C31292315008E49011C6F05F
:107E000002807F900F97E0FFE4FCFDFEAB3AAA39B9
:107E1000A938A8371290F9E47B02FAF9F81290F920
:107E2000C006C007900EAFE0FEA3E0FFC3E49FFFD3
:107E300074049EFEAB07FAE4F9F8D007D00612E806
:107E40009B901021E0F8A3E0F9A3E0FAA3E02FFF54
:107E5000EA3EFEE93DFDE83CFC900F061292F80276
:107E6000807FE4FFFEFDFCAB3EAA3DA93CA83BC3DE
:107E70001292315008E49011C6F002807F900F9763
:107E8000E0FFE4FCFDFEAB3EAA3DA93CA83B1290FE
:107E9000F9E47B02FAF9F81290F9C006C007900ED7
:107EA000B1E0FEA3E0FFC3E49FFF74049EFEAB07B6
:107EB000FAE4F9F8D007D00612E89BA804A905AAAD
:107EC00006AB07901021E0FCA3E0FDA3E0FEA3E0D9
:107ED000C39BFFEE9AFEED99FDEC98FC900F061205
:107EE00092F802807F02807F901021E0FCA3E0FDE9
:107EF000A3E0FEA3E0FF900F061292F89011C6E0F7
:107F0000146048147003027FE42402600302807F3F
:107F1000E4FFFEFDFCAB3AAA39A938A837D3129288
:107F20003140099011C67401F002807FE4FFFEFD2C
:107F3000FCAB3EAA3DA93CA83BD3129231500302B0
:107F4000807F9011C67402F002807FE4FFFEFDFC8A
:107F5000AB3AAA39A938A837C3129231501BE4FFB3
:107F6000FEFDFCAB3EAA3DA93CA83BC3129231509A
:107F700008E49011C6F002807FE4FFFEFDFCAB3AFE
:107F8000AA39A938A837D3129231500302807F90C2
:107F90000F97E0FFE4FCFDFEA8371290F97802127B
:107FA000927FC006C007900EAFE0FEA3E0FFC3E4DF
:107FB0009FFF74049EFEAB07FAE4F9F8D007D006E1
:107FC00012E89B901021E0F8A3E0F9A3E0FAA3E007
:107FD0002FFFEA3EFEE93DFDE83CFC900F061292C1
:107FE000F802807FE4FFFEFDFCAB3AAA39A938A86D
:107FF00037C3129231501AE4FFFEFDFCAB3EAA3D9E
:10800000A93CA83BC31292315007E49011C6F080FE
:108010006EE4FFFEFDFCAB3EAA3DA93CA83BD3129B
:108020009231405B900EBCE0FFE4FCFDFEA83B12E9
:1080300090F9780212927FC006C007900EB1E0FE60
:10804000A3E0FFC3E49FFF74049EFEAB07FAE4F9CC
:10805000F8D007D00612E89BA804A905AA06AB072A
:10806000901021E0FCA3E0FDA3E0FEA3E0C39BFF92
:10807000EE9AFEED99FDEC98FC900F061292F890A6
:108080000E94E0606AA3E0FCA3E0FDA3E0FEA3E0A1
:10809000FF900F06E0F8A3E0F9A3E0FAA3E0FBC32A
:1080A0001292315014900E95E0FCA3E0FDA3E0FE87
:1080B000A3E0FF900F061292F8900E9DE0FCA3E063
:1080C000FDA3E0FEA3E0FF900F06E0F8A3E0F9A314
:1080D000E0FAA3E0FBD31292314014900E9DE0FC35
:1080E000A3E0FDA3E0FEA3E0FF900F061292F8903C
:1080F0000EDAE0640160030281A890112CE0B40163
:10810000149010D8E0FCA3E0FDA3E0FEA3E0FF90F4
:108110000F061292F8900FDCE0640160030281A860
:10812000FFFEFDFCAB3EAA3DA93CA83BD312923119
:10813000405D900FB6E0FCA3E0FDA3E0FEA3E0FFEE
:10814000A83B1290F9C006C007900EB1E0FEA3E074
:10815000FFC3E49FFF74049EFEAB07FAE4F9F8D076
:1081600007D00612E89BA804A905AA06AB07900F42
:10817000B6E0FCA3E0FDA3E0FEA3E0C39BFFEE9A04
:10818000FEED99FDEC98FC900F061292F880199084
:108190000FB6E0FCA3E0FDA3E0FEA3E0FF900F0616
:1081A0001292F8E4900FDCF0900E78E070030285F4
:1081B0009314700302894D14700302872114600325
:1081C0000289BB9010F5E0F8A3E0F9A3E0FAA3E080
:1081D000FB900F06E0FCA3E0FDA3E0FEA3E0C39B41
:1081E000F52AEE9AF529ED99F528EC98F5279011E6
:1081F000B6E0FCA3E0FDA3E0FEA3E0252AFFEE35F8
:1082000029FEED3528FDEC3527FC9011B61292F8C9
:108210007F807EF07DFA7C029011B6E0F8A3E0F951
:10822000A3E0FAA3E0FBD312923140107F807EF0EE
:108230007DFA7C029011B61292F8802A7F807E0F20
:108240007D057CFD9011B6E0F8A3E0F9A3E0FAA368
:10825000E0FBC3129231500E7F807E0F7D057CFDC6
:108260009011B61292F8E4F532F531F530F52FFFA2
:10827000FEFDFCAB5AAA59A958A857C31292316007
:1082800026AF2AAE29AD28AC27A8571290F978104E
:1082900012926BE5322FF532E5313EF531E5303D96
:1082A000F530E52F3CF52FE4FFFEFDFCAB5EAA5D4B
:1082B000A95CA85BC3129231602C9011B6E0FCA3BC
:1082C000E0FDA3E0FEA3E0FFA85B1290F978101296
:1082D000926BE5322FF532E5313EF531E5303DF573
:1082E00030E52F3CF52FE4FFFEFDFCAB62AA61A94F
:1082F00060A85FC312923160439011BEE0F8A3E022
:10830000F9A3E0FAA3E0FBC3E52A9BFFE5299AFE67
:10831000E52899FDE52798FCAB62AA61A960A85FF2
:108320001290F9781012926BE5322FF532E5313E5A
:10833000F531E5303DF530E52F3CF52FAF2AAE297C
:10834000AD28AC279011BE1292F8E4FFFEFDFCAB05
:1083500032AA31A930A82FC31292314004D20E8024
:1083600002C20E900EADE0FEA3E0FFEE3395E0FDFD
:10837000FCAB32AA31A930A82FD31292314016900B
:108380000EADE0FEA3E0FFEE3395E08F328E31F5C7
:1083900030F52F803C900EADE0FEA3E0FFC3E49FDC
:1083A000FFE49EFE3395E0FDFCAB32AA31A930A874
:1083B0002FC3129231501A900EADE0FEA3E0FFC31E
:1083C000E49FFFE49EFE3395E08F328E31F530F569
:1083D0002F901101E0F8A3E0F9A3E0FAA3E0FBC3BA
:1083E000E5329BF52EE5319AF52DE53099F52CE532
:1083F0002F98F52B9011BAE0FCA3E0FDA3E0FEA3BB
:10840000E0252EFFEE352DFEED352CFDEC352BFC59
:108410009011BA1292F87FA07E867D017C009011A7
:10842000BAE0F8A3E0F9A3E0FAA3E0FBD31292319B
:1084300040107FA07E867D017C009011BA1292F8D8
:10844000802A7F607E797DFE7CFF9011BAE0F8A3E0
:10845000E0F9A3E0FAA3E0FBC3129231500E7F6073
:108460007E797DFE7CFF9011BA1292F8E4F526F534
:1084700025F524F523FFFEFDFCAB66AA65A964A8DB
:1084800063C31292316026AF2EAE2DAD2CAC2BA85B
:10849000631290F9781012926BE5262FF526E525E8
:1084A0003EF525E5243DF524E5233CF523E4FFFED8
:1084B000FDFCAB6AAA69A968A867C3129231602C57
:1084C0009011BAE0FCA3E0FDA3E0FEA3E0FFA867E3
:1084D0001290F9781012926BE5262FF526E5253ECD
:1084E000F525E5243DF524E5233CF523E4FFFEFDD9
:1084F000FCAB6EAA6DA96CA86BC31292316043905D
:1085000011C2E0F8A3E0F9A3E0FAA3E0FBC3E52E73
:108510009BFFE52D9AFEE52C99FDE52B98FCAB6EB3
:10852000AA6DA96CA86B1290F9781012926BE526CF
:108530002FF526E5253EF525E5243DF524E5233CEC
:10854000F52374FF7F9CFEFDFCAB26AA25A924A879
:1085500023C3129231500D74FF75269CF525F52426
:10856000F523801EE47F64FEFDFCAB26AA25A9242A
:10857000A823D3129231400AE4752664F525F52428
:10858000F523AF2EAE2DAD2CAC2B9011C21292F86C
:108590000289BB9010F5E0F8A3E0F9A3E0FAA3E0AC
:1085A000FB900F06E0FCA3E0FDA3E0FEA3E0C39B6D
:1085B000F52AEE9AF529ED99F528EC98F527901112
:1085C000B6E0FCA3E0FDA3E0FEA3E0252AFFEE3524
:1085D00029FEED3528FDEC3527FC9011B61292F8F6
:1085E000E47FE87E03FDFC9011B6E0F8A3E0F9A378
:1085F000E0FAA3E0FBD3129231400FE47FE87E0360
:10860000FDFC9011B61292F8802A7F187EFC7DFF47
:108610007CFF9011B6E0F8A3E0F9A3E0FAA3E0FB39
:10862000C3129231500E7F187EFC7DFF7CFF9011AB
:10863000B61292F8E4FFFEFDFCAB42AA41A940A8A5
:108640003FC3129231601AAF2AAE29AD28AC27A8D9
:108650003F1290F9781012926B8F268E258D248C04
:1086600023E4FFFEFDFCAB46AA45A944A843C31280
:108670009231602C9011B6E0FCA3E0FDA3E0FEA3D4
:10868000E0FFA8431290F9781012926BE5262FF5BF
:1086900026E5253EF525E5243DF524E5233CF52397
:1086A000E4FFFEFDFCAB4AAA49A948A847C31292C1
:1086B0003160439011BEE0F8A3E0F9A3E0FAA3E033
:1086C000FBC3E52A9BFFE5299AFEE52899FDE527EE
:1086D00098FCAB4AAA49A948A8471290F978101209
:1086E000926BE5262FF526E5253EF525E5243DF59B
:1086F00024E5233CF523AF2AAE29AD28AC27901101
:10870000BE1292F8E4FFFEFDFCAB26AA25A924A820
:1087100023D31292314005D20E0289BBC20E0289C8
:10872000BB900F1EE070030289BB200D030289BBC2
:10873000900F0EE0FCA3E0FDA3E0FEA3E0F5328E77
:10874000318D308C2F900EADE0FEA3E0FFEE33951F
:10875000E0FDFCAB32AA31A930A82FD312923140F0
:1087600016900EADE0FEA3E0FFEE3395E08F328E63
:1087700031F530F52F803C900EADE0FEA3E0FFC355
:10878000E49FFFE49EFE3395E0FDFCAB32AA31A9E5
:1087900030A82FC3129231501A900EADE0FEA3E024
:1087A000FFC3E49FFFE49EFE3395E08F328E31F5E8
:1087B00030F52F901101E0F8A3E0F9A3E0FAA3E06F
:1087C000FBC3E5329BF52EE5319AF52DE53099F5A1
:1087D0002CE52F98F52B9011BAE0FCA3E0FDA3E067
:1087E000FEA3E0252EFFEE352DFEED352CFDEC35FC
:1087F0002BFC9011BA1292F87FA07E867D017C003E
:108800009011BAE0F8A3E0F9A3E0FAA3E0FBD312D9
:10881000923140107FA07E867D017C009011BA12BB
:1088200092F8802A7F607E797DFE7CFF9011BAE00D
:10883000F8A3E0F9A3E0FAA3E0FBC3129231500ED3
:108840007F607E797DFE7CFF9011BA1292F8E4F58C
:1088500026F525F524F523FFFEFDFCAB4EAA4DA918
:108860004CA84BC31292316026AF2EAE2DAD2CAC6E
:108870002BA84B1290F9781012926BE5262FF52653
:10888000E5253EF525E5243DF524E5233CF523E4E7
:10889000FFFEFDFCAB52AA51A950A84FC312923162
:1088A000602C9011BAE0FCA3E0FDA3E0FEA3E0FF82
:1088B000A84F1290F9781012926BE5262FF526E555
:1088C000253EF525E5243DF524E5233CF523E4FF8D
:1088D000FEFDFCAB56AA55A954A853C312923160B1
:1088E000439011C2E0F8A3E0F9A3E0FAA3E0FBC3D0
:1088F000E52E9BFFE52D9AFEE52C99FDE52B98FCD6
:10890000AB56AA55A954A8531290F9781012926B3D
:10891000E5262FF526E5253EF525E5243DF524E55C
:10892000233CF523AF2EAE2DAD2CAC2B9011C212F3
:1089300092F8E4FFFEFDFCAB26AA25A924A823C3D8
:108940001292314004D20E8072C20E806E900F16C9
:10895000E0FCA3E0FDA3E0FEA3E0F5268E258D2438
:108960008C23E4FFFEFDFCAB26AA25A924A823D373
:108970001292314004D20E8002C20E74FF7F9CFE20
:10898000FDFCAB26AA25A924A823C3129231500DC1
:1089900074FF75269CF525F524F523801EE47F647D
:1089A000FEFDFCAB26AA25A924A823D312923140B0
:1089B0000AE4752664F525F524F523E47F64FEFDBD
:1089C000FCAB26AA25A924A823D3129231400AE49D
:1089D000752664F525F524F52374FF7F9CFEFDFCC8
:1089E000AB26AA25A924A823C3129231500B74FFE9
:1089F00075269CF525F524F523900E78E06401603A
:108A000037AF26AE25AD24AC23780A12927FE47BE3
:108A100064FAF9F812E89BA804A905AA06AB079026
:108A2000112DE0FFE4FCFDFE1290F9780A12926B22
:108A30008F268E258D248C23E4FFFEFDFCAB26AA19
:108A400025A924A823C312923140047F0180027F0C
:108A5000FF9010F0EFF0300E077F0112F4648005F4
:108A6000E4FF12F464AE25AF2612F33812F44C2260
:108A7000028E31E86480F8E933E83360110460F075
:108A8000ED33EC337009E8FCE9FDEAFEEBFF22046C
:108A900060DED3EB9FEA9EE99DE8C2E78CF0C2F767
:108AA00095F0400CE8CCF8E9CDF9EACEFAEBCFFB33
:108AB000128DFC85D0F05804700320D5B3E8047003
:108AC000075002B2D5028E3B92D5EC0460F7E4CC9D
:108AD000C0E0C398F8603B94186008400DD0E0FBFC
:108AE000028E13E4FBFAC9FC8028E830E406E4C9EE
:108AF000FBE4CAFCE830E305E4C9CACBFCE8540750
:108B00006010F8C3E913F9EA13FAEB13FBEC13FC5A
:108B1000D8F130F52FC3E49CFCEF9BFFEE9AFEEDFD
:108B200099FDD0E0FBEF4E4D4C701222DB03028E1C
:108B300038EC2CFCEF33FFEE33FEED33FDED30E788
:108B4000EB028E13EF2BFFEE3AFEED39FDD0E0FB8A
:108B500050130BBB0003028E3BED13FDEE13FEEF33
:108B600013FFEC13FC028E13EC4D6011E8497017F3
:108B7000ED33EC3304600DE4FCFFFEFD22E933E845
:108B8000330470F8028E31128DFC58046009E4CC75
:108B900024815006285009028E3B284003028E385B
:108BA000C0E0EB4A7044B98006D0E0FB028E27EFAC
:108BB0004E701CBD8008EBFFEAFEE9FD80EBE98DFD
:108BC000F0A4FEE5F0028C51E9CDF9EAFEEBFFEFEF
:108BD00089F0A4FCE5F0CE89F0A42EFFE435F0CDB9
:108BE00089F0A42DFEE435F08067EF4E7005BD805E
:108BF000D780C3EF8BF0A4ACF0EE8BF0A42CFCE498
:108C000035F0F8EF8AF0A42CE5F038FCE433CB8D96
:108C1000F0A42CFCE5F03BF8EE8AF0A42CFCE5F087
:108C200038F8E433CF89F0A42CFCE5F038CF3400D9
:108C3000CE89F0A42FFFE5F03EFEE433C98DF0A409
:108C40002EFEE5F039CD8AF0A42FFFE5F03EFEE4DC
:108C50003DFD33D0E0FB50070BBB000F028E3BEC19
:108C60002CFCEF33FFEE33FEED33FD028E13028E4C
:108C70003BEC5D046005E859047003028E31128DEF
:108C8000FC580460F6EC4860F2EC7004FDFEFF2234
:108C9000C860DB2481C85009C39860025006028E68
:108CA000389850CAF582E9294B4A7005AB82028E8A
:108CB0002775F0007C1A7880C3EF9BEE9AED9940FF
:108CC0000DC3EF9BFFEE9AFEED99FDE842F0DC2329
:108CD000ACF0D0E0FFD0E0FED0E0FDAB8220E710AA
:108CE0001BEB60BAEC2CFCEF33FFEE33FEED33FDF3
:108CF000028E13E803F830E705C0F075F000EF2F9F
:108D0000FFEE33FEED33FD40B830E7C280AA74F8C1
:108D1000CC6480CCC86480C8F58204604FC3EB9FEC
:108D2000F5F0EA9E42F0E99D42F0E89C45F0603C97
:108D3000501DE5825FFFE582D313CB5BCBF42B554F
:108D400082FB50280ABA002409B9002008801DE5DA
:108D5000825BFBE582D313CF5FCFF4C3132F558221
:108D6000FF50090EBE00050DBD00010CC3EB9FF5C1
:108D7000F0EA9E42F0E99D42F0E89C45F06007CCA5
:108D80004820E701B3EC2275F020800E75F01080CA
:108D90000575F0087D007E007F003392D530D50345
:108DA000129223EC334010EF33FFEE33FEED33FD30
:108DB000EC33FCD5F0ED22E5F0247EA2D513CC9265
:108DC000E7CDCEFF22EDD2E7CD33EC3392D524812F
:108DD0004006E4FFFEFDFC22FCE4CFCECDCC24E037
:108DE000501174FF80EDC3CC13CCCD13CDCE13CE78
:108DF000CF13CF0470F030D5DE029223E9D2E7C959
:108E000033E833F892D5EDD2E7CD33EC33FC5002A2
:108E1000B2D522EC30E7100FBF000C0EBE00080DDB
:108E2000BD00040BEB6014A2D5EB13FCED92E7FD43
:108E30002274FFFCFDFEFF22E480F8A2D574FF132C
:108E4000FC7D80E480EFED33EC33601004700FEDB7
:108E5000547F7005740292E0227404220422E422FA
:108E6000ED33EC33600A047003BD8004ECB2E7FC20
:108E700022F920E73624F950037907E4F42402FBB1
:108E8000E582158270021583DBF6E024FB501BE9B6
:108E90006014E4F0E582158270021583E004F0B4FA
:108EA0000A08E4F0D9EE7401F00A22C2D522ED33AB
:108EB000EC3392D5FA602AB4FF33EDC2E77BFF6052
:108EC000067A8E79D3E4227A8E79DC20D5047A8EE4
:108ED00079D7224E614E002B494E46002D494E4611
:108EE00000E47A08F0A3DAFC7B00740722C083C098
:108EF00082ECC0E0EDC0E0EEC0E0EFC0E0EA75F06B
:108F000010A4CAABF075F04DA42BFBE435F0FCEADD
:108F10002410FAEB34C5FBEC34D9FCEDC2E7FF7545
:108F2000F056A4F42411C5F0F434C58FF0A42AE55A
:108F3000F03BE43CF020E714128FE3D0E0FFD0E0F8
:108F4000FED0E0FDD0E0FC128C718014F404128F8E
:108F5000E3D0E0FFD0E0FED0E0FDD0E0FC128B6873
:108F6000D082D083E0FAEDD2E7CD33EC332482FB1C
:108F7000E4C3CF33CFCE33CECD33CD33DBF37B075A
:108F800075F00A846004F0A31B0AE5F0F0A38FF0EB
:108F9000740AA4FFACF08EF0740AA42CFEACF0505E
:108FA000010C8DF0740AA42CFDE435F0F0A3DBDE97
:108FB0007407223F8000004120000042C8000044A6
:108FC0007A0000461C400047C35000497424004BFF
:108FD0001896804CBEBC205A0E1BCA6753C21C7424
:108FE0009DC5AEFB60065407601C2323129011EB55
:108FF00054386009128FFD12900C128B68ECF8ED5A
:10900000F9EEFAEFCB22EB12900C80F154380324E6
:109010001C908FB3FE93FC0EEE93FD0EEE930ECEDE
:1090200093FF22C0E0EFFBEEFAEDF9ECF8128B684B
:10903000D0E0F5F0EFFBEEFAEDF9ECF81292CCA3EC
:10904000A3A3A3E8C0E0E9C0E0EAC0E0EBC0E0C051
:10905000F0128B681292E8A3A3A3A3128A77D0F030
