:1026000002A036008F828E83E0540100000070F833
:102610002278FFE4F6D8FD02A0C4205573620000C2
:102620002048616E646C65000020454D4720707243
:102630006F706F7274696F6E616C000020454D475A
:1026400020696E74656772616C000020454D4720FB
:1026500046434653000020454D47204643465320FD
:10266000416476616E6365640000204A6F7973741B
:1026700069636B0000205945530000204E4F000055
:10268000204C656674000020526967687400000081
:102690000D0A004669726D77617265207665727306
:1026A000696F6E3A2000536F667448616E642076DD
:1026B000362E33202D204D617374657220772F568E
:1026C0006962726F74616374696C6520666220531D
:1026D0006F636B6574205B544F4153545D002E0D46
:1026E0000A0D0A0044455649434520494E464F0DC0
:1026F0000A0049443A2025640D0A000D0A4D45415F
:10270000535552454D454E545320494E464F0D0AA0
:102710000053656E736F722076616C75653A0D0AB1
:10272000002564202D3E202564004261747465728A
:102730007920566F6C7461676520286D56293A20A0
:10274000256C640046756C6C206368617267652057
:10275000706F7765722074656E73696F6E20286D77
:1027600056293A20256C64000D0A444556494345D4
:1027700020504152414D45544552530D0A00496E77
:10278000707574206D6F64653A205553420D0A00D0
:10279000496E707574206D6F64653A2048616E648F
:1027A0006C650D0A00496E707574206D6F64653A32
:1027B00020454D472070726F706F7274696F6E6143
:1027C0006C0D0A00496E707574206D6F64653A2057
:1027D000454D4720696E74656772616C0D0A00494A
:1027E0006E707574206D6F64653A20454D472046C4
:1027F0004346530D0A00496E707574206D6F646511
:102800003A20454D472046434653204144560D0A41
:1028100000496E707574206D6F64653A204A6F7957
:10282000737469636B0D0A004D6F746F722D48618C
:102830006E646C6520526174696F3A2025640D0ADC
:102840000053656E736F72207265736F6C75746977
:102850006F6E3A0D0A004D6561737572656D656E38
:1028600074204F66667365743A0D0A002564202D46
:102870003E20256C64004D6561737572656D656EF3
:1028800074204D756C7469706C6965723A0D0A003C
:102890002564202D3E20256600506F736974696F92
:1028A0006E206C696D6974206163746976653A2085
:1028B000256400506F736974696F6E206C696D696F
:1028C00074206D6F746F722025643A20696E6620E3
:1028D0002D3E20256C64202000737570202D3E2035
:1028E000256C640D0A004D6178207374657020704A
:1028F0006F7320616E64206E65673A202564202521
:1029000064004A6F79737469636B20636C6F7375CD
:1029100072652073706565643A202564004A6F799A
:10292000737469636B206761696E3A20256875006E
:10293000454D47207468726573686F6C6473205BE3
:1029400030202D20313032345D3A2025752C202561
:102950007500454D47206D61782076616C75657313
:10296000205B30202D20343039365D3A20256C75BF
:102970002C20256C750043616C6962726174696F0B
:102980006E20656E61626C65643A205945530D0A8C
:102990000043616C6962726174696F6E20656E617B
:1029A000626C65643A204E4F0D0A00454D47206D1C
:1029B00061782073706565643A2025640052657300
:1029C000742074696D652064656C617920286D736D
:1029D000293A20256400526573742076656C6F6314
:1029E00069747920636C6F737572652028746963EC
:1029F0006B732F736563293A2025640052657374E5
:102A000020706F736974696F6E3A202564004D7988
:102A10006F656C65637472696320636173652032EE
:102A2000204D61737465723A205945530D0A004D6B
:102A3000796F656C65637472696320636173652087
:102A400032204D61737465723A204E4F0D0A004D6D
:102A50006173746572207769746820466F7263656C
:102A6000206465766963653A205945530D0A004D27
:102A70006173746572207769746820466F7263654C
:102A8000206465766963653A204E4F0D0A004D61FA
:102A90007374657220776974682050726F70726900
:102AA0006F63657074697665206465766963653AFD
:102AB000205945530D0A004D617374657220776982
:102AC00074682050726F7072696F63657074697694
:102AD00065206465766963653A204E4F0D0A004DA6
:102AE0006173746572207769746820566962726FC9
:102AF00074616374696C65206465766963653A2006
:102B00005945530D0A004D617374657220776974DD
:102B10006820566962726F74616374696C652064C1
:102B200065766963653A204E4F0D0A0064656275EB
:102B3000673A20256C6400000000000000000000DF
:102B40000000000000000000000000000000000085
:102B50000000000000000000000000000000000075
:102B60000000000000000000000000000000000065
:102B70000000000000000000000000000000000055
:103A70000000000031202D204465766963652049EF
:103A8000443A0032202D20496E707574206D6F64A9
:103A9000653A000000000000000000000000000087
:103AA000000000000033202D205265736F6C757488
:103AB000696F6E733A0034202D204D656173757205
:103AC000656D656E74204F6666736574733A003574
:103AD000202D204D756C7469706C696572733A00A5
:103AE00036202D20506F732E206C696D6974206113
:103AF00063746976653A000000000037202D20507D
:103B00006F732E206C696D697473205B696E662C0F
:103B1000207375705D3A0038202D204D6178207338
:103B200074657073205B6E65672C20706F735D3AEF
:103B30000039202D20454D472063616C6962726118
:103B400074696F6E206F6E20737461727475703A51
:103B500000000000003130202D20454D47207468C2
:103B6000726573686F6C64733A003131202D2045A3
:103B70004D47206D61782076616C7565733A003130
:103B800032202D20454D47206D617820737065658A
:103B9000643A003133202D204D6F746F72206861BC
:103BA0006E646C6520726174696F3A003134202D47
:103BB000204A6F79737469636B20636C6F737572DD
:103BC000652073706565643A003135202D204A6F99
:103BD00079737469636B206761696E3A00313620CE
:103BE0002D204D796F656C65637472696320636124
:103BF00073652032204D61737465723A00000000D5
:103C0000003137202D205265737420706F736974F2
:103C1000696F6E20666C61673A0000000000313801
:103C2000202D205265737420706F736974696F6EF4
:103C30003A003139202D205265737420706F7369FA
:103C400074696F6E2074696D652064656C6179209C
:103C5000283E3130206D73293A003230202D205219
:103C60006573742076656C20636C6F737572652064
:103C7000287469636B732F736563293A00323120AE
:103C80002D2043757272656E742070726F706F7242
:103C900074696F6E616C206761696E2028666F724F
:103CA0006365293A003232202D2043757272656EA9
:103CB0007420646966666572656E636520736174FD
:103CC00075726174696F6E2028666F726365293A38
:103CD000003233202D2043757272656E7420646546
:103CE0006164207A6F6E652028666F726365293A79
:103CF000003234202D204D617820736C696465207A
:103D00006D6F76656D656E74202870726F70726964
:103D10006F293A003235202D204D617820536F668F
:103D20007448616E6420636C6F73757265202870CF
:103D3000726F7072696F293A003236202D204D6102
:103D400073746572207769746820466F72636520AA
:103D50006465766963653A00000000003237202D03
:103D6000204D617374657220776974682050726F9A
:103D70007072696F632E206465766963653A00002E
:103D80000000003238202D204D6173746572207759
:103D900069746820566962726F542064657669633D
:103DA000653A00000000003239202D20536F667400
:103DB00048616E642049443A003330202D20466F1C
:103DC000726365206465766963652049443A00330F
:103DD00031202D2050726F7072696F636570746945
:103DE0007665206465766963652049443A0033321C
:103DF000202D2041726D20736964653A0000000037
:103E000000000030202D3E205573620A31202D3EE7
:103E10002048616E646C650A32202D3E20454D4776
:103E20002070726F702E0A33202D3E20454D4720A2
:103E3000496E7465672E0A34202D3E20454D47207B
:103E4000464346530A35202D3E20454D47204643E4
:103E50004653204164762E0A36202D3E204A6F7943
:103E6000737469636B0A0030202D3E2052696768C5
:103E7000740A31202D3E204C6566740A0030202DD6
:103E80003E2044656163746976617465205B4E4FC2
:103E90005D0A31202D3E204163746976617465208E
:103EA0005B5945535D0A00900036EEF0A3EFF078C1
:103EB000387C007D017BFF7A32793F7E087F3512A6
:103EC0006D3890086D7408F0A37435F078747C0830
:103ED0007D017BFF7A3A79747E007F0F126D38780E
:103EE000837C087D017BFF7A3A79837E007F2212F2
:103EF0006D3878A57C087D017BFF7A3A79A57E0034
:103F00007F11126D3878B67C087D017BFF7A3A7993
:103F1000B67E007F19126D3878CF7C087D017BFF5B
:103F20007A3A79CF7E007F11126D3878E07C087D77
:103F3000017BFF7A3A79E07E007F1B126D3878FBB7
:103F40007C087D017BFF7A3A79FB7E007F1C126D35
:103F50003878177C097D017BFF7A3B79177E007FDB
:103F60001A126D3878317C097D017BFF7A3B7931FB
:103F70007E007F24126D3878557C097D017BFF7AA5
:103F80003B79557E007F15126D38786A7C097D017A
:103F90007BFF7A3B796A7E007F15126D38787F7CD3
:103FA000097D017BFF7A3B797F7E007F14126D389B
:103FB00078937C097D017BFF7A3B79937E007F19A2
:103FC000126D3878AC7C097D017BFF7A3B79AC7E41
:103FD000007F1D126D3878C97C097D017BFF7A3B1B
:103FE00079C97E007F14126D3878DD7C097D017BF4
:103FF000FF7A3B79DD7E007F24126D3878017C0AE0
:104000007D017BFF7A3C79017E007F1D126D38783F
:104010001E7C0A7D017BFF7A3C791E7E007F141294
:104020006D3878327C0A7D017BFF7A3C79327E00E4
:104030007F28126D38785A7C0A7D017BFF7A3C79A3
:104040005A7E007F23126D38787D7C0A7D017BFFCC
:104050007A3C797D7E007F28126D3878A57C0A7DB8
:10406000017BFF7A3C79A57E007F2C126D3878D1D8
:104070007C0A7D017BFF7A3C79D17E007F20126D26
:104080003878F17C0A7D017BFF7A3C79F17E007FF4
:1040900023126D3878147C0B7D017BFF7A3D7914F7
:1040A0007E007F25126D3878397C0B7D017BFF7A8D
:1040B0003D79397E007F23126D38785C7C0B7D0161
:1040C0007BFF7A3D795C7E007F27126D3878837C98
:1040D0000B7D017BFF7A3D79837E007F24126D3852
:1040E00078A77C0B7D017BFF7A3D79A77E007F124C
:1040F000126D3878B97C0B7D017BFF7A3D79B97EF2
:10410000007F16126D3878CF7C0B7D017BFF7A3DE6
:1041100079CF7E007F1F126D3878EE7C0B7D017B9E
:10412000FF7A3D79EE7E007F15126D3878037C0CA6
:104130007D017BFF7A3E79037E007F64126D3878C3
:10414000677C0C7D017BFF7A3E79677E007F1612CB
:104150006D38787D7C0C7D017BFF7A3E797D7E0019
:104160007F2A126D387B017A08797412BE748F2D04
:104170007B017A0879A512BE748F2E7B017A0879AB
:10418000B612BE748F2F7B017A0879CF12BE748F5E
:10419000307B017A0879FB12BE748F317B017A097A
:1041A000791712BE748F327B017A09795512BE7469
:1041B0008F337B017A09796A12BE748F347B017A5E
:1041C00009797F12BE748F357B017A09799312BE0B
:1041D000748F367B017A0979AC12BE748F377B01FC
:1041E0007A0979C912BE748F387B017A0A791E1256
:1041F000BE748F397B017A0A793212BE748F3A7B92
:10420000017A0A795A12BE748F3B7B017A0A797D52
:1042100012BE748F3C7B017A0A79A512BE748F3D61
:104220007B017A0A79D112BE748F3E7B017A0A79BA
:10423000F112BE748F3F7B017A0B791412BE748F1A
:10424000407B017A0B79A712BE748F417B017A0BF8
:1042500079B912BE748F427B017A0B79CF12BE748A
:104260008F437B017A0C790312BE748F447B017AF1
:104270000C796712BE748F457B017A0C797D12BE72
:10428000748F46900038740CF0A37420F0900036C0
:10429000E0FEA3E0FFEE6003025697EFB42100407A
:1042A000030256979042ABF828287302430E02523D
:1042B0004B02525402525D0252880253060253438B
:1042C00002534C0254220254A80254B10254D002A8
:1042D00054F902550202550B02551B02552B02558B
:1042E0004202554B02557D0255BB0255D00255E5A1
:1042F0000255F502560502561A02562F025646027C
:10430000565D02567402567D02568602568F900004
:104310003A7402F0A314F0900CB1E090003CF085E8
:104320002D2BE52B6032FFC3E52D9FFFE49400FEAB
:1043300074742FF58274083EF583E0FFE52BFDE5EC
:104340002DC39DFDE49400FC743D2DF58274003C6A
:10435000F583EFF0152B80CAE490006CF0A304F015
:10436000900CB2E090006EF0900CB2B407004003E5
:1043700002445390437AF828287302438F0243ACD7
:104380000243C90243E502440102441D024439903C
:104390000CAA74FFF0A37426F0A3741AF07B017AC0
:1043A00008798312B29E752C14024453900CAA749F
:1043B000FFF0A37426F0A37420F07B017A087983C0
:1043C00012B29E752C17024453900CAA74FFF0A3EE
:1043D0007426F0A37429F07B017A08798312B29EC7
:1043E000752C21806E900CAA74FFF0A37426F0A3A4
:1043F000743CF07B017A08798312B29E752C1D8083
:1044000052900CAA74FFF0A37426F0A3744BF07BB7
:10441000017A08798312B29E752C198036900CAA05
:1044200074FFF0A37426F0A37456F07B017A087928
:104430008312B29E752C22801A900CAA74FFF0A3EE
:104440007426F0A3746AF07B017A08798312B29E15
:10445000752C19852C2BE52B6032FFC3E52C9FFFB3
:10446000E49400FE74832FF58274083EF583E0FF28
:10447000E52BFDE52CC39DFDE49400FC746F2DF548
:104480008274003CF583EFF0152B80CA746F252CE5
:10449000F582E43400F5837401F090009E04F0A3EB
:1044A00004F0E4F52BE52BC39403501E74B3252BC5
:1044B000F582E4340CF583E0FF74A0252BF582E44B
:1044C0003400F583EFF0052B80DB852E2BE52B6088
:1044D00032FFC3E52E9FFFE49400FE74A52FF58202
:1044E00074083EF583E0FFE52BFDE52EC39DFDE45A
:1044F0009400FC74A32DF58274003CF583EFF01555
:104500002B80CA9000D07403F0A3F0E4F52BE52BC8
:10451000C394035044E52B25E025E024B6F582E45E
:10452000340CF583E0FCA3E0FDA3E0FEA3E0FF7400
:10453000B3252BF582E4340CF583E0F9F8126B789F
:1045400075F002E52BA424D2F582E5F03400F58362
:10455000EEF0A3EFF0052B80B5852F2BE52B603215
:10456000FFC3E52F9FFFE49400FE74B62FF582741D
:10457000083EF583E0FFE52BFDE52FC39DFDE494A8
:1045800000FC74D82DF58274003CF583EFF0152BF8
:1045900080CA9001027407F0A37403F0E4F52BE5E0
:1045A0002BC394035031E52B25E025E024C2F5828E
:1045B000E4340CF583E0FCA3E0FDA3E0FEA3E0FF00
:1045C00075F004E52BA42404F582E5F03401F583AD
:1045D000126BD9052B80C885302BE52B6032FFC3C9
:1045E000E5309FFFE49400FE74CF2FF58274083EFF
:1045F000F583E0FFE52BFDE530C39DFDE49400FC71
:1046000074102DF58274013CF583EFF0152B80CAF0
:10461000E4900134F0A304F0900CCEE0900136F069
:10462000900CCE601C900CAA74FFF0A37426F0A32B
:104630007475F07B017A0879E012B29E752C1B80AC
:104640001A900CAA74FFF0A37426F0A3747BF07B7D
:10465000017A0879E012B29E752C1A852C2BE52B75
:104660006032FFC3E52C9FFFE49400FE74E02FF559
:104670008274083EF583E0FFE52BFDE52CC39DFD2C
:10468000E49400FC74372DF58274013CF583EFF05F
:10469000152B80CA7437252CF582E43401F5837418
:1046A00003F09001667405F0A37402F0E4F52BE5C5
:1046B0002BC39401400302473AE52B25E025E02473
:1046C000CFF582E4340CF583E0FCA3E0FDA3E0FE2B
:1046D000A3E0FF74B3252BF582E4340CF583E0F9F5
:1046E000F8126B7875F008E52BA42468F582E5F0E4
:1046F0003401F583126BD9E52B25E025E024D7F5AD
:1047000082E4340CF583E0FCA3E0FDA3E0FEA3E02B
:10471000FF74B3252BF582E4340CF583E0F9F8122D
:104720006B7875F008E52BA4246CF582E5F0340174
:10473000F583126BD9052B0246AF85312BE52B6033
:1047400032FFC3E5319FFFE49400FE74FB2FF58236
:1047500074083EF583E0FFE52BFDE531C39DFDE4E4
:104760009400FC74702DF58274013CF583EFF01514
:104770002B80CA9001987405F0A37402F0900CE3AA
:10478000E0FCA3E0FDA3E0FEA3E0FF90019A126B22
:10479000D9900CDFE0FCA3E0FDA3E0FEA3E0FF90D6
:1047A000019E126BD985322BE52B6032FFC3E532B7
:1047B0009FFFE49400FE74172FF58274093EF58381
:1047C000E0FFE52BFDE532C39DFDE49400FC74A2FF
:1047D0002DF58274013CF583EFF0152B80CAE4902F
:1047E00001CAF0A304F0900CEBE09001CCF0900C27
:1047F000EB601C900CAA74FFF0A37426F0A37475F0
:10480000F07B017A09793112B29E752C24801A90BE
:104810000CAA74FFF0A37426F0A3747BF07B017ADA
:1048200009793112B29E752C23852C2BE52B603231
:10483000FFC3E52C9FFFE49400FE74312FF58274D2
:10484000093EF583E0FFE52BFDE52CC39DFDE494D7
:1048500000FC74CD2DF58274013CF583EFF0152B2F
:1048600080CA74CD252CF582E43401F5837403F0FD
:104870009001FC04F0A37402F0900CE7E0FFA3E0C9
:104880009001FECFF0A3EFF0900CE9E0FFA3E090E1
:104890000200CFF0A3EFF085332BE52B6032FFC38E
:1048A000E5339FFFE49400FE74552FF58274093EB2
:1048B000F583E0FFE52BFDE533C39DFDE49400FCAB
:1048C00074022DF58274023CF583EFF0152B80CA3B
:1048D00090022E7406F0A37402F0900CECE0FCA39E
:1048E000E0FDA3E0FEA3E0FF900230126BD9900C34
:1048F000F0E0FCA3E0FDA3E0FEA3E0FF9002341291
:104900006BD985342BE52B6032FFC3E5349FFFE480
:104910009400FE746A2FF58274093EF583E0FFE58A
:104920002BFDE534C39DFDE49400FC74382DF58225
:1049300074023CF583EFF0152B80CA90026074027C
:10494000F0A314F0900CF4E0900262F085352BE5B2
:104950002B6032FFC3E5359FFFE49400FE747F2F88
:10496000F58274093EF583E0FFE52BFDE535C39D37
:10497000FDE49400FC74632DF58274023CF583EF32
:10498000F0152B80CA9002927401F0A3F0900CF500
:10499000E0900294F085362BE52B6032FFC3E536BC
:1049A0009FFFE49400FE74932FF58274093EF58313
:1049B000E0FFE52BFDE536C39DFDE49400FC749516
:1049C0002DF58274023CF583EFF0152B80CA90021E
:1049D000C47404F0A37401F0900D1CE0FFA3E090F8
:1049E00002C6CFF0A3EFF085372BE52B6032FFC373
:1049F000E5379FFFE49400FE74AC2FF58274093E06
:104A0000F583E0FFE52BFDE537C39DFDE49400FC55
:104A100074C82DF58274023CF583EFF0152B80CA23
:104A20009002F67404F0A37401F0900D1EE0FFA351
:104A3000E09002F8CFF0A3EFF085382BE52B603241
:104A4000FFC3E5389FFFE49400FE74C92FF582741C
:104A5000093EF583E0FFE52BFDE538C39DFDE494B9
:104A600000FC74FA2DF58274023CF583EFF0152BEF
:104A700080CAE4900328F0A304F0900D07E09003AF
:104A80002AF0900D07601C900CAA74FFF0A3742606
:104A9000F0A37475F07B017A0979DD12B29E752C52
:104AA00024801A900CAA74FFF0A37426F0A3747BE0
:104AB000F07B017A0979DD12B29E752C23852C2BAF
:104AC000E52B6032FFC3E52C9FFFE49400FE74DD0C
:104AD0002FF58274093EF583E0FFE52BFDE52CC33D
:104AE0009DFDE49400FC742B2DF58274033CF5834A
:104AF000EFF0152B80CA742B252CF582E43403F5D6
:104B0000837403F0E490035AF0A304F0900CF7E0F0
:104B100090035CF0900CF7601C900CAA74FFF0A35B
:104B20007426F0A37475F07B017A0A790112B29EA3
:104B3000752C1D801A900CAA74FFF0A37426F0A3A4
:104B4000747BF07B017A0A790112B29E752C1C8568
:104B50002C2BE52B6032FFC3E52C9FFFE49400FE75
:104B600074012FF582740A3EF583E0FFE52BFDE525
:104B70002CC39DFDE49400FC745D2DF58274033C10
:104B8000F583EFF0152B80CA745D252CF582E43493
:104B900003F5837403F090038C7405F0A37401F0A3
:104BA000900CF8E0FCA3E0FDA3E0FEA3E0FF900C76
:104BB000B3E0F9F8126B7890038E126BD985392B1C
:104BC000E52B6032FFC3E5399FFFE49400FE741EBD
:104BD0002FF582740A3EF583E0FFE52BFDE539C32E
:104BE0009DFDE49400FC74922DF58274033CF583E2
:104BF000EFF0152B80CA9003BE7405F0A37401F08A
:104C0000900CFCE0FCA3E0FDA3E0FEA3E0FF90031A
:104C1000C0126BD9853A2BE52B6032FFC3E53A9F72
:104C2000FFE49400FE74322FF582740A3EF583E0AF
:104C3000FFE52BFDE53AC39DFDE49400FC74C42D13
:104C4000F58274033CF583EFF0152B80CA9003F0D6
:104C50007405F0A37401F0900D00E0FCA3E0FDA347
:104C6000E0FEA3E0FF9003F2126BD9853B2BE52B0E
:104C70006032FFC3E53B9FFFE49400FE745A2FF5BA
:104C800082740A3EF583E0FFE52BFDE53BC39DFD05
:104C9000E49400FC74F62DF58274033CF583EFF088
:104CA000152B80CA9004227407F0A37401F0900DB4
:104CB00008E0FCA3E0FDA3E0FEA3E0FF90042412C3
:104CC0006BD9853C2BE52B6032FFC3E53C9FFFE4AD
:104CD0009400FE747D2FF582740A3EF583E0FFE5B3
:104CE0002BFDE53CC39DFDE49400FC74282DF5826A
:104CF00074043CF583EFF0152B80CA9004547403C0
:104D0000F0A37401F0900D0CE0FFA3E0900456CFE7
:104D1000F0A3EFF0853D2BE52B6032FFC3E53D9F0F
:104D2000FFE49400FE74A52FF582740A3EF583E03B
:104D3000FFE52BFDE53DC39DFDE49400FC74582D7B
:104D4000F58274043CF583EFF0152B80CA9004863D
:104D50007403F0A37401F0900D0EE0FFA3E0900443
:104D600088CFF0A3EFF0853E2BE52B6032FFC3E543
:104D70003E9FFFE49400FE74D12FF582740A3EF545
:104D800083E0FFE52BFDE53EC39DFDE49400FC744C
:104D90008A2DF58274043CF583EFF0152B80CA90C0
:104DA00004B87405F0A37401F0900D10E0FCA3E0CA
:104DB000FDA3E0FEA3E0FF9004BA126BD9853F2B60
:104DC000E52B6032FFC3E53F9FFFE49400FE74F1E2
:104DD0002FF582740A3EF583E0FFE52BFDE53FC326
:104DE0009DFDE49400FC74BE2DF58274043CF583B3
:104DF000EFF0152B80CA9004EA7405F0A37401F05B
:104E0000900D14E0FCA3E0FDA3E0FEA3E0FF9004FE
:104E1000EC126BD985402BE52B6032FFC3E5409F38
:104E2000FFE49400FE74142FF582740B3EF583E0CA
:104E3000FFE52BFDE540C39DFDE49400FC74F02DDF
:104E4000F58274043CF583EFF0152B80CAE49005DD
:104E50001CF0A304F0900D04E090051EF0900D04EA
:104E6000601C900CAA74FFF0A37426F0A37475F074
:104E70007B017A0B793912B29E752C23801A900C23
:104E8000AA74FFF0A37426F0A3747BF07B017A0B65
:104E9000793912B29E752C22852C2BE52B6032FFBE
:104EA000C3E52C9FFFE49400FE74392FF582740B48
:104EB0003EF583E0FFE52BFDE52CC39DFDE494006A
:104EC000FC741F2DF58274053CF583EFF0152B80E3
:104ED000CA741F252CF582E43405F5837403F0E4CD
:104EE00090054EF0A304F0900D05E0900550F09071
:104EF0000D05601C900CAA74FFF0A37426F0A37437
:104F000075F07B017A0B795C12B29E752C27801AA2
:104F1000900CAA74FFF0A37426F0A3747BF07B01BD
:104F20007A0B795C12B29E752C26852C2BE52B60B2
:104F300032FFC3E52C9FFFE49400FE745C2FF582E2
:104F4000740B3EF583E0FFE52BFDE52CC39DFDE4EE
:104F50009400FC74512DF58274053CF583EFF01537
:104F60002B80CA7451252CF582E43405F583740333
:104F7000F0E4900580F0A304F0900D06E090058227
:104F8000F0900D06601C900CAA74FFF0A37426F03C
:104F9000A37475F07B017A0B798312B29E752C2471
:104FA000801A900CAA74FFF0A37426F0A3747BF00F
:104FB0007B017A0B798312B29E752C23852C2BE50D
:104FC0002B6032FFC3E52C9FFFE49400FE74832F17
:104FD000F582740B3EF583E0FFE52BFDE52CC39DC8
:104FE000FDE49400FC74832DF58274053CF583EF99
:104FF000F0152B80CA7483252CF582E43405F583E3
:105000007403F09005B214F0A314F0900D18E09022
:1050100005B4F085412BE52B6032FFC3E5419FFFCE
:10502000E49400FE74A72FF582740B3EF583E0FF35
:10503000E52BFDE541C39DFDE49400FC74B52DF521
:105040008274053CF583EFF0152B80CA9005E4745B
:1050500002F0A314F0900D19E09005E6F085422BC4
:10506000E52B6032FFC3E5429FFFE49400FE74B974
:105070002FF582740B3EF583E0FFE52BFDE542C37F
:105080009DFDE49400FC74E72DF58274053CF583E6
:10509000EFF0152B80CA9006167402F0A314F0905E
:1050A0000D1AE0900618F085432BE52B6032FFC304
:1050B000E5439FFFE49400FE74CF2FF582740B3E0E
:1050C000F583E0FFE52BFDE543C39DFDE49400FC83
:1050D00074192DF58274063CF583EFF0152B80CA08
:1050E000E4900648F0A304F0900D1BE090064AF00F
:1050F000900D1B601C900CAA74FFF0A37426F0A303
:105100007480F07B017A0B79EE12B29E752C1480BC
:105110001A900CAA74FFF0A37426F0A37487F07B96
:10512000017A0B79EE12B29E752C15852C2BE52B8E
:105130006032FFC3E52C9FFFE49400FE74EE2FF570
:1051400082740B3EF583E0FFE52BFDE52CC39DFD4E
:10515000E49400FC744B2DF58274063CF583EFF06B
:10516000152B80CA744B252CF582E43406F5837424
:1051700002F085442BE52B6032FFC3E5449FFFE43A
:105180009400FE74032FF582740C3EF583E0FFE576
:105190002BFDE544C39DFDE49400FC747A2DF5825B
:1051A00074063CF583EFF0152B80CA85452BE52B63
:1051B0006032FFC3E5459FFFE49400FE74672FF55E
:1051C00082740C3EF583E0FFE52BFDE545C39DFDB4
:1051D000E49400FC74102DF58274073CF583EFF025
:1051E000152B80CA85462BE52B6032FFC3E5469F11
:1051F000FFE49400FE747D2FF582740C3EF583E08D
:10520000FFE52BFDE546C39DFDE49400FC74A62D4F
:10521000F58274073CF583EFF0152B80CA7B017A89
:1052200000793890086DE0A3E014FD12BAA290084E
:105230006DE0FCA3E0FD2437F58274003CF583EFBC
:10524000F07B017A00793812ACAF22900DE9E09042
:105250000D2EF022900DE9E0900D2FF022E4F52BB9
:10526000E52BC39403400302569774E9252BF5827E
:10527000E4340DF583E0FF7430252BF582E4340D22
:10528000F583EFF0052B80D8E4F52BE52BC39403D1
:105290005071E52B25E024E9F582E4340DF583E037
:1052A000FEA3E0FFEE3395E0FDFCE52B25E025E0D5
:1052B0002433F582E4340DF583126BD9E52B25E018
:1052C00025E02433F582E4340DF583C083C082E009
:1052D000FCA3E0FDA3E0FEA3E0FF7430252BF582E4
:1052E000E4340DF583E0F9F8126B8CD082D0831290
:1052F0006BD9749B252BF582E4340EF583E4F0051D
:105300002B8088D20A22E4F52BE52BC394034003BB
:10531000025697E52B25E025E024E9F582E4340DDB
:10532000F583E0FCA3E0FDA3E0FEA3E0FFE52B2571
:10533000E025E0243FF582E4340DF583126BD905B6
:105340002B80C6900DE9E0900D4BF022E4F52BE5A3
:105350002BC394024003025697E52B75F008A42452
:10536000E9F582E4340DF583E0FCA3E0FDA3E0FE63
:10537000A3E0FFE52B25E025E0244CF582E4340D85
:10538000F583126BD9E52B75F008A424EDF582E4C2
:10539000340DF583E0FCA3E0FDA3E0FEA3E0FFE510
:1053A0002B25E025E02454F582E4340DF583126BBF
:1053B000D9E52B25E025E0244CF582E4340DF58376
:1053C000C083C082E0FCA3E0FDA3E0FEA3E0FF7485
:1053D00030252BF582E4340DF583E0F9F8126B8C5F
:1053E000D082D083126BD9E52B25E025E02454F53B
:1053F00082E4340DF583C083C082E0FCA3E0FDA30A
:10540000E0FEA3E0FF7430252BF582E4340DF58334
:10541000E0F9F8126B8CD082D083126BD9052B0285
:10542000534F900DE9E0FCA3E0FDA3E0FEA3E0FFF5
:1054300090086F126BD9E4FFFEFDFC90086FE0F856
:10544000A3E0F9A3E0FAA3E0FBD3126B3E50149063
:10545000086FE0FCA3E0FDA3E0FEA3E0FF900D6079
:10546000126BD9900DEDE0FCA3E0FDA3E0FEA3E0FC
:10547000FF90086F126BD9E4FFFEFDFC90086FE00F
:10548000F8A3E0F9A3E0FAA3E0FBC3126B3E5003DC
:1054900002569790086FE0FCA3E0FDA3E0FEA3E0B6
:1054A000FF900D5C126BD922900DE9E0900D68F031
:1054B00022900DE9E0FFA3E0900D64CFF0A3EFF0A0
:1054C000900DEBE0FFA3E0900D66CFF0A3EFF0228C
:1054D000900DE9E0FCA3E0FDA3E0FEA3E0FF900D4A
:1054E00069126BD9900DEDE0FCA3E0FDA3E0FEA3F3
:1054F000E0FF900D6D126BD922900DE9E0900D71D7
:10550000F022900DE9E0900D72F022900DE9E0FF9D
:10551000A3E0900D99CFF0A3EFF022900DE9E0FF0A
:10552000A3E0900D9BCFF0A3EFF022900DE9E09067
:105530000873F06007900D847401F022E4900D84EC
:10554000F022900DE9E0900D74F022900DE9E0FC5E
:10555000A3E0FDA3E0FEA3E0FF900D75126BD990D0
:105560000D75E0FCA3E0FDA3E0FEA3E0FF900D308D
:10557000E0F9F8126B8C900D75126BD922900DE941
:10558000E0FCA3E0FDA3E0FEA3E0FF900D79126B29
:10559000D9E47F0AFEFDFC900D79E0F8A3E0F9A3C1
:1055A000E0FAA3E0FBC3126B3E4003025697E47F90
:1055B0000AFEFDFC900D79126BD922900DE9E0FCFA
:1055C000A3E0FDA3E0FEA3E0FF900D7D126BD922C6
:1055D000900DE9E0FCA3E0FDA3E0FEA3E0FF900D49
:1055E00085126BD922900DE9E0FFA3E0900D89CFE1
:1055F000F0A3EFF022900DE9E0FFA3E0900D8BCF38
:10560000F0A3EFF022900DE9E0FCA3E0FDA3E0FEA3
:10561000A3E0FF900D8D126BD922900DE9E0FCA361
:10562000E0FDA3E0FEA3E0FF900D91126BD9229064
:105630000DE9E0900873F06007900D817401F0228D
:10564000E4900D81F022900DE9E0900873F060077E
:10565000900D827401F022E4900D82F022900DE909
:10566000E0900873F06007900D837401F022E490DD
:105670000D83F022900DE9E0900D95F022900DE958
:10568000E0900D96F022900DE9E0900D97F02290B9
:105690000DE9E0900D98F022900740EBF0A3EAF0BE
:1056A000A3E9F0900CB1E064FA700302640690077D
:1056B00040E0FBA3E0FAA3E0F8AC02AD037BFF7A85
:1056C00026798F126E16900CAA74FFF0A37426F040
:1056D000A37490F0900740E0FBA3E0FAA3E0F91276
:1056E000B29E900CAA74FFF0A37426F0A37493F0FA
:1056F000900740E0FBA3E0FAA3E0F912B29E900C01
:10570000AA74FFF0A37426F0A374A6F0900740E0FB
:10571000FBA3E0FAA3E0F912B29E900CAA74FFF08A
:10572000A37426F0A374DEF0900740E0FBA3E0FA38
:10573000A3E0F912B29E900CAA74FFF0A37426F0B5
:10574000A374E4F0900740E0FBA3E0FAA3E0F912B1
:10575000B29E9007AC74FFF0A37426F0A374F2F02D
:10576000900CB1E0FF9007AFE4F0A3EFF07B017A7B
:10577000077945128534900CAA7401F0A37407F0E0
:10578000A37445F0900740E0FBA3E0FAA3E0F91210
:10579000B29E900CAA74FFF0A37426F0A374FBF0E1
:1057A000900740E0FBA3E0FAA3E0F912B29E900C50
:1057B000AA74FFF0A37427F0A37411F0900740E0DF
:1057C000FBA3E0FAA3E0F912B29EE4900743F0A332
:1057D000F0C3900744E09403900743E06480948012
:1057E00040030258979007AC74FFF0A37427F0A30E
:1057F0007421F0900743E0FCA3E0FD2401FEE43CAB
:105800009007AFF0A3CEF0EDAE047802C333CE33F1
:10581000CED8F9248FF582740E3EF583E0FCA3E028
:10582000FDA3E0FEA3E0FF900743E0FAA3E024B36A
:10583000F582740C3AF583E0F9F8126B789007B1B1
:10584000EEF0A3EFF07B017A077945128534900CD6
:10585000AA7401F0A37407F0A37445F0900740E028
:10586000FBA3E0FAA3E0F912B29E900CAA74FFF039
:10587000A37426F0A37490F0900740E0FBA3E0FA35
:10588000A3E0F912B29E900744E004F0700690077E
:1058900043E004F00257D19007AC74FFF0A37427E3
:1058A000F0A3742AF0900DDAE0FCA3E0FDA3E0FE83
:1058B000A3E0FF9007AF126BD97B017A07794512FD
:1058C0008534900CAA7401F0A37407F0A37445F01A
:1058D000900740E0FBA3E0FAA3E0F912B29E900C1F
:1058E000AA74FFF0A37426F0A37490F0900740E030
:1058F000FBA3E0FAA3E0F912B29E9007AC74FFF0AC
:10590000A37427F0A37444F0900E77E0FCA3E0FDAD
:10591000A3E0FEA3E0FF9007AF126BD97B017A07EB
:105920007945128534900CAA7401F0A37407F0A392
:105930007445F0900740E0FBA3E0FAA3E0F912B24F
:105940009E900CAA74FFF0A37426F0A37490F090BC
:105950000740E0FBA3E0FAA3E0F912B29E900CAA84
:1059600074FFF0A37427F0A37468F0900740E0FB85
:10597000A3E0FAA3E0F912B29E900CB2E0B40700E3
:105980004003025A7390598CF82828730259A102D7
:1059900059C00259DF0259FD025A1B025A39025AF4
:1059A00057900CAA74FFF0A37427F0A3747EF090B4
:1059B0000740E0FBA3E0FAA3E0F912B29E025A739B
:1059C000900CAA74FFF0A37427F0A37490F09007D2
:1059D00040E0FBA3E0FAA3E0F912B29E025A7390F2
:1059E0000CAA74FFF0A37427F0A374A5F0900740ED
:1059F000E0FBA3E0FAA3E0F912B29E8076900CAA35
:105A000074FFF0A37427F0A374C4F0900740E0FB88
:105A1000A3E0FAA3E0F912B29E8058900CAA74FF9A
:105A2000F0A37427F0A374DFF0900740E0FBA3E03D
:105A3000FAA3E0F912B29E803A900CAA74FFF0A388
:105A40007427F0A374F6F0900740E0FBA3E0FAA3FC
:105A5000E0F912B29E801C900CAA74FFF0A3742887
:105A6000F0A37411F0900740E0FBA3E0FAA3E0F983
:105A700012B29E9007AC74FFF0A37428F0A37428B0
:105A8000F0900CF5E0FE3395E09007AFF0A3CEF078
:105A90007B017A077945128534900CAA7401F0A332
:105AA0007407F0A37445F0900740E0FBA3E0FAA36D
:105AB000E0F912B29E900CAA74FFF0A37428F0A330
:105AC0007441F0900740E0FBA3E0FAA3E0F912B2C2
:105AD0009EE4900743F0A3F0C3900744E094039042
:105AE0000743E0648094804003025B749007AC74C9
:105AF000FFF0A37427F0A37421F0900743E0FCA308
:105B0000E0FD2401FEE43C9007AFF0A3CEF074B3B7
:105B10002DF582740C3CF583E0FF9007B1E4F0A30F
:105B2000EFF07B017A077945128534900CAA740155
:105B3000F0A37407F0A37445F0900740E0FBA3E0E6
:105B4000FAA3E0F912B29E900CAA74FFF0A3742697
:105B5000F0A37490F0900740E0FBA3E0FAA3E0F913
:105B600012B29E900744E004F07006900743E004F0
:105B7000F0025AD8900CAA74FFF0A37428F0A37412
:105B800056F0900740E0FBA3E0FAA3E0F912B29EC2
:105B9000E4900743F0A3F0C3900744E09403900718
:105BA00043E0648094804003025C5B9007AC74FF28
:105BB000F0A37428F0A3746CF0900743E0FCA3E01A
:105BC000FD2401FEE43C9007AFF0A3CEF0EDAE045F
:105BD0007802C333CE33CED8F924B6F582740C3EA6
:105BE000F583E0FCA3E0FDA3E0FEA3E0FF90074304
:105BF000E0FAA3E024B3F582740C3AF583E0F9F8F7
:105C0000126B789007B1126BD97B017A0779451234
:105C10008534900CAA7401F0A37407F0A37445F0C6
:105C2000900740E0FBA3E0FAA3E0F912B29E900CCB
:105C3000AA74FFF0A37426F0A37490F0900740E0DC
:105C4000FBA3E0FAA3E0F912B29E900744E004F04F
:105C50007006900743E004F0025B97900CAA74FF73
:105C6000F0A37428F0A37476F0900740E0FBA3E063
:105C7000FAA3E0F912B29EE4900743F0A3F0C390B8
:105C80000744E09403900743E0648094804003025B
:105C90005D2C9007AC74FFF0A37428F0A37490F00F
:105CA000900743E0FCA3E0FD2401FEE43C9007AF35
:105CB000F0A3CEF0EDAE047802C333CE33CED8F9E4
:105CC00024C2F582740C3EF583E0FCA3E0FDA3E062
:105CD000FEA3E0FF9007B1126BD97B017A077945EB
:105CE000128534900CAA7401F0A37407F0A37445D4
:105CF000F0900740E0FBA3E0FAA3E0F912B29E9017
:105D00000CAA74FFF0A37426F0A37490F0900740DF
:105D1000E0FBA3E0FAA3E0F912B29E900744E0048E
:105D2000F07006900743E004F0025C7E9007AC74CC
:105D3000FFF0A37428F0A37499F0900D4BE0FF904E
:105D400007AFE4F0A3EFF07B017A077945128534C1
:105D5000900CAA7401F0A37407F0A37445F09007A7
:105D600040E0FBA3E0FAA3E0F912B29E900CAA7403
:105D7000FFF0A37426F0A37490F0900740E0FBA31B
:105D8000E0FAA3E0F912B29EE4900743F0A3F0C357
:105D9000900744E09401900743E0648094804003BE
:105DA000025EA79007AC74FFF0A37428F0A374B34D
:105DB000F0900743E0FCA3E0FD2401FEE43C9007E3
:105DC000AFF0A3CEF0EDAE047802C333CE33CED81D
:105DD000F9244CF582740D3EF583E0FCA3E0FDA3AD
:105DE000E0FEA3E0FF900743E0FAA3E02430F58251
:105DF000740D3AF583E0F9F8126B789007B1126BE5
:105E0000D97B017A077945128534900CAA7401F088
:105E1000A37407F0A37445F0900740E0FBA3E0FAF9
:105E2000A3E0F912B29E9007AC74FFF0A37428F0BF
:105E3000A374D9F0900743E0FAA3E0FBAE02780226
:105E4000C333CE33CED8F92454F582740D3EF58396
:105E5000E0FCA3E0FDA3E0FEA3E0FF74302BF5829D
:105E6000740D3AF583E0F9F8126B789007AF126B76
:105E7000D97B017A077945128534900CAA7401F018
:105E8000A37407F0A37445F0900740E0FBA3E0FA89
:105E9000A3E0F912B29E900744E004F07006900768
:105EA00043E004F0025D8F9007AC74FFF0A3742808
:105EB000F0A374E6F0900D5CE0A3E0A3E0FFA3E0A4
:105EC0009007AFCFF0A3EFF0900D60E0A3E0A3E068
:105ED000FFA3E09007B1CFF0A3EFF07B017A077941
:105EE00045128534900CAA7401F0A37407F0A374D2
:105EF00045F0900740E0FBA3E0FAA3E0F912B29E60
:105F0000900CAA74FFF0A37426F0A37490F090078D
:105F100040E0FBA3E0FAA3E0F912B29E9007AC7454
:105F2000FFF0A37429F0A37402F0900D1CE0FFA30E
:105F3000E09007AFCFF0A3EFF07B017A077945122D
:105F40008534900CAA7401F0A37407F0A37445F093
:105F5000900740E0FBA3E0FAA3E0F912B29E900C98
:105F6000AA74FFF0A37426F0A37490F0900740E0A9
:105F7000FBA3E0FAA3E0F912B29E9007AC74FFF025
:105F8000A37429F0A3741DF0900D1EE0FFA3E09010
:105F900007AFCFF0A3EFF07B017A07794512853484
:105FA000900CAA7401F0A37407F0A37445F0900755
:105FB00040E0FBA3E0FAA3E0F912B29E900CAA74B1
:105FC000FFF0A37426F0A37490F0900740E0FBA3C9
:105FD000E0FAA3E0F912B29E9007AC74FFF0A3744C
:105FE00029F0A37430F0900D64E0FFA3E09007AFB8
:105FF000CFF0A3EFF0900D66E0FFA3E09007B1CFE4
:10600000F0A3EFF07B017A077945128534900CAA52
:106010007401F0A37407F0A37445F0900740E0FB0F
:10602000A3E0FAA3E0F912B29E900CAA74FFF0A3C9
:106030007426F0A37490F0900740E0FBA3E0FAA36D
:10604000E0F912B29E9007AC74FFF0A37429F0A39C
:106050007452F0900D69E0FCA3E0FDA3E0FEA3E024
:10606000FF9007AF126BD9900D6DE0FCA3E0FDA38C
:10607000E0FEA3E0FF9007B3126BD97B017A0779AA
:1060800045128534900CAA7401F0A37407F0A37430
:1060900045F0900740E0FBA3E0FAA3E0F912B29EBE
:1060A000900CAA74FFF0A37426F0A37490F09007EC
:1060B00040E0FBA3E0FAA3E0F912B29E900D68E085
:1060C000601E900CAA74FFF0A37429F0A37476F0FC
:1060D000900740E0FBA3E0FAA3E0F912B29E801C17
:1060E000900CAA74FFF0A37429F0A37491F09007A8
:1060F00040E0FBA3E0FAA3E0F912B29E9007AC7473
:10610000FFF0A37429F0A374ABF0900D71E0FF9041
:1061100007AFE4F0A3EFF07B017A077945128534ED
:10612000900CAA7401F0A37407F0A37445F09007D3
:1061300040E0FBA3E0FAA3E0F912B29E900CAA742F
:10614000FFF0A37426F0A37490F0900740E0FBA347
:10615000E0FAA3E0F912B29E9007AC74FFF0A374CA
:1061600029F0A374BDF0900D79E0A3E0A3E0FFA3B4
:10617000E09007AFCFF0A3EFF07B017A07794512EB
:106180008534900CAA7401F0A37407F0A37445F051
:10619000900740E0FBA3E0FAA3E0F912B29E900C56
:1061A000AA74FFF0A37426F0A37490F0900740E067
:1061B000FBA3E0FAA3E0F912B29E9007AC74FFF0E3
:1061C000A37429F0A374D6F0900D7DE0A3E0A3E0C2
:1061D000FFA3E09007AFCFF0A3EFF07B017A077940
:1061E00045128534900CAA7401F0A37407F0A374CF
:1061F00045F0900740E0FBA3E0FAA3E0F912B29E5D
:10620000900CAA74FFF0A37426F0A37490F090078A
:1062100040E0FBA3E0FAA3E0F912B29E9007AC7451
:10622000FFF0A37429F0A374FCF0900D75E0FCA3BB
:10623000E0FDA3E0FEA3E0FF900CB3E0F9F8126BE1
:10624000789007AFEEF0A3EFF07B017A0779451263
:106250008534900CAA7401F0A37407F0A37445F080
:10626000900740E0FBA3E0FAA3E0F912B29E900C85
:10627000AA74FFF0A37426F0A37490F0900740E096
:10628000FBA3E0FAA3E0F912B29E900D84E0601E39
:10629000900CAA74FFF0A3742AF0A3740EF0900778
:1062A00040E0FBA3E0FAA3E0F912B29E801C900C40
:1062B000AA74FFF0A3742AF0A3742FF0900740E0B3
:1062C000FBA3E0FAA3E0F912B29E900D81E0601EFC
:1062D000900CAA74FFF0A3742AF0A3744FF09007F7
:1062E00040E0FBA3E0FAA3E0F912B29E801C900C00
:1062F000AA74FFF0A3742AF0A3746FF0900740E033
:10630000FBA3E0FAA3E0F912B29E900D82E0601EBA
:10631000900CAA74FFF0A3742AF0A3748EF0900777
:1063200040E0FBA3E0FAA3E0F912B29E801C900CBF
:10633000AA74FFF0A3742AF0A374B7F0900740E0AA
:10634000FBA3E0FAA3E0F912B29E900D83E0601E79
:10635000900CAA74FFF0A3742AF0A374DFF09007E6
:1063600040E0FBA3E0FAA3E0F912B29E801C900C7F
:10637000AA74FFF0A3742BF0A37406F0900740E01A
:10638000FBA3E0FAA3E0F912B29E9007AC74FFF011
:10639000A3742BF0A3742CF0900DD6E0F8A3E0F9D1
:1063A000A3E0FAA3E0FB900E7BE0FCA3E0FDA3E0FA
:1063B000FEA3E0C39BFFEE9AFEED99FDEC98FC90E6
:1063C00007AF126BD97B017A077945128534900C9F
:1063D000AA7401F0A37407F0A37445F0900740E09D
:1063E000FBA3E0FAA3E0F912B29E900CAA74FFF0AE
:1063F000A37426F0A37490F0900740E0FBA3E0FAAA
:10640000A3E0F912B29E220267C8E86480F8E9337B
:10641000E83360110460F0ED33EC337009E8FCE917
:10642000FDEAFEEBFF220460DED3EB9FEA9EE99DCE
:10643000E8C2E78CF0C2F795F0400CE8CCF8E9CD63
:10644000F9EACEFAEBCFFB12679385D0F0580470CF
:106450000320D5B3E80470075002B2D50267D29288
:10646000D5EC0460F7E4CCC0E0C398F8603B941826
:106470006008400DD0E0FB0267AAE4FBFAC9FC808B
:1064800028E830E406E4C9FBE4CAFCE830E305E4AC
:10649000C9CACBFCE854076010F8C3E913F9EA1342
:1064A000FAEB13FBEC13FCD8F130F52FC3E49CFCA2
:1064B000EF9BFFEE9AFEED99FDD0E0FBEF4E4D4CC9
:1064C000701222DB030267CFEC2CFCEF33FFEE33BC
:1064D000FEED33FDED30E7EB0267AAEF2BFFEE3A5E
:1064E000FEED39FDD0E0FB50130BBB00030267D279
:1064F000ED13FDEE13FEEF13FFEC13FC0267AAECA5
:106500004D6011E8497017ED33EC3304600DE4FC85
:10651000FFFEFD22E933E8330470F80267C8126712
:106520009358046009E4CC2481500628500902677E
:10653000D22840030267CFC0E0EB4A7044B980061E
:10654000D0E0FB0267BEEF4E701CBD8008EBFFEA97
:10655000FEE9FD80EBE98DF0A4FEE5F00265E8E9D7
:10656000CDF9EAFEEBFFEF89F0A4FCE5F0CE89F06F
:10657000A42EFFE435F0CD89F0A42DFEE435F080A3
:1065800067EF4E7005BD80D780C3EF8BF0A4ACF0F1
:10659000EE8BF0A42CFCE435F0F8EF8AF0A42CE5A7
:1065A000F038FCE433CB8DF0A42CFCE5F03BF8EEA6
:1065B0008AF0A42CFCE5F038F8E433CF89F0A42C61
:1065C000FCE5F038CF3400CE89F0A42FFFE5F03E93
:1065D000FEE433C98DF0A42EFEE5F039CD8AF0A497
:1065E0002FFFE5F03EFEE43DFD33D0E0FB50070B0E
:1065F000BB000F0267D2EC2CFCEF33FFEE33FEED55
:1066000033FD0267AA0267D2EC5D046005E8590415
:1066100070030267C8126793580460F6EC4860F292
:10662000EC7004FDFEFF22C860DB2481C85009C362
:1066300098600250060267CF9850CAF582E9294B4C
:106640004A7005AB820267BE75F0007C1A7880C381
:10665000EF9BEE9AED99400DC3EF9BFFEE9AFEED96
:1066600099FDE842F0DC23ACF0D0E0FFD0E0FED0B2
:10667000E0FDAB8220E7101BEB60BAEC2CFCEF33A3
:10668000FFEE33FEED33FD0267AAE803F830E705BD
:10669000C0F075F000EF2FFFEE33FEED33FD40B894
:1066A00030E7C280AA74F8CC6480CCC86480C8F596
:1066B0008204604FC3EB9FF5F0EA9E42F0E99D42F1
:1066C000F0E89C45F0603C501DE5825FFFE582D319
:1066D00013CB5BCBF42B5582FB50280ABA0024095C
:1066E000B9002008801DE5825BFBE582D313CF5FF4
:1066F000CFF4C3132F5582FF50090EBE00050DBD08
:1067000000010CC3EB9FF5F0EA9E42F0E99D42F0D8
:10671000E89C45F06007CC4820E701B3EC2275F017
:1067200020800E75F010800575F0087D007E007FDA
:10673000003392D530D503126B30EC334010EF3379
:10674000FFEE33FEED33FDEC33FCD5F0ED22E5F04A
:10675000247EA2D513CC92E7CDCEFF22EDD2E7CD99
:1067600033EC3392D524814006E4FFFEFDFC22FC8D
:10677000E4CFCECDCC24E0501174FF80EDC3CC1318
:10678000CCCD13CDCE13CECF13CF0470F030D5DEE9
:10679000026B30E9D2E7C933E833F892D5EDD2E79E
:1067A000CD33EC33FC5002B2D522EC30E7100FBFF2
:1067B000000C0EBE00080DBD00040BEB6014A2D54A
:1067C000EB13FCED92E7FD2274FFFCFDFEFF22E4DB
:1067D00080F8A2D574FF13FC7D80E480EFF920E7F8
:1067E0003624F950037907E4F42402FBE58215828C
:1067F00070021583DBF6E024FB501BE96014E4F023
:10680000E582158270021583E004F0B40A08E4F012
:10681000D9EE7401F00A22C2D522ED33EC3392D5C1
:10682000FA602AB4FF33EDC2E77BFF60067A68792D
:106830003FE4227A68794820D5047A687943224E69
:10684000614E002B494E46002D494E4600E47A0821
:10685000F0A3DAFC7B00740722C083C082ECC0E0A6
:10686000EDC0E0EEC0E0EFC0E0EA75F010A4CAAB06
:10687000F075F04DA42BFBE435F0FCEA2410FAEBA4
:1068800034C5FBEC34D9FCEDC2E7FF75F056A4F437
:106890002411C5F0F434C58FF0A42AE5F03BE43CA4
:1068A000F020E71412694FD0E0FFD0E0FED0E0FD09
:1068B000D0E0FC1266088014F40412694FD0E0FFA7
:1068C000D0E0FED0E0FDD0E0FC1264FFD082D083A7
:1068D000E0FAEDD2E7CD33EC332482FBE4C3CF33CF
:1068E000CFCE33CECD33CD33DBF37B0775F00A84C7
:1068F0006004F0A31B0AE5F0F0A38FF0740AA4FF74
:10690000ACF08EF0740AA42CFEACF050010C8DF0AB
:10691000740AA42CFDE435F0F0A3DBDE7407223FFB
:106920008000004120000042C80000447A00004678
:106930001C400047C35000497424004B1896804CFB
:10694000BEBC205A0E1BCA6753C21C749DC5AEFB49
:1069500060065407601C232312697DEB54386009DC
:106960001269691269781264FFECF8EDF9EEFAEF3A
:10697000CB22EB12697880F1543803241C90691FF4
:10698000FE93FC0EEE93FD0EEE930ECE93FF22BB14
:10699000010689828A83E0225002E722BBFE02E3DD
:1069A0002289828A83E49322BB010CE58229F58245
:1069B000E5833AF583E0225006E92582F8E622BB1A
:1069C000FE06E92582F8E222E58229F582E5833A8E
:1069D000F583E49322BB010689828A83F022500268
:1069E000F722BBFE01F322BB010A89828A83F0E50C
:1069F000F0A3F0225006F709A7F01922BBFE06F318
:106A0000E5F009F31922E88FF0A4CC8BF0A42CFC5C
:106A1000E98EF0A42CFC8AF0EDA42CFCEA8EF0A404
:106A2000CDA8F08BF0A42DCC3825F0FDE98FF0A493
:106A30002CCD35F0FCEB8EF0A4FEA9F0EB8FF0A48A
:106A4000CFC5F02ECD39FEE43CFCEAA42DCE35F0C6
:106A5000FDE43CFC2275F008758200EF2FFFEE3359
:106A6000FECD33CDCC33CCC58233C5829BED9AECC1
:106A700099E58298400CF582EE9BFEED9AFDEC992B
:106A8000FC0FD5F0D6E4CEFBE4CDFAE4CCF9A88235
:106A900022B800C1B90059BA002DEC8BF084CFCEDA
:106AA000CDFCE5F0CBF97818EF2FFFEE33FEED3398
:106AB000FDEC33FCEB33FB10D703994004EB99FB5F
:106AC0000FD8E5E4F9FA227818EF2FFFEE33FEED48
:106AD00033FDEC33FCC933C910D7059BE99A400755
:106AE000EC9BFCE99AF90FD8E0E4C9FAE4CCFB226C
:106AF00075F010EF2FFFEE33FEED33FDCC33CCC835
:106B000033C810D7079BEC9AE899400AED9BFDEC3F
:106B10009AFCE899F80FD5F0DAE4CDFBE4CCFAE47E
:106B2000C8F922CFF4CFCEF4CECDF4CDCCF4CC2224
:106B3000C3E49FFFE49EFEE49DFDE49CFC22EB9FEA
:106B4000F5F0EA9E42F0E99D42F0EC6480C8648072
:106B50009845F022EB9FF5F0EA9E42F0E99D42F065
:106B6000E89C45F022E8600FECC313FCED13FDEE4A
:106B700013FEEF13FFD8F122E86010ECA2E713FC3C
:106B8000ED13FDEE13FEEF13FFD8F022E8600FEFD8
:106B9000C333FFEE33FEED33FDEC33FCD8F122BB03
:106BA000010789828A83026E6B5005E9F8026E5FE5
:106BB000BBFE05E9F8026E7789828A83026E83BB89
:106BC000010789828A83026BD95005E9F8026E9326
:106BD000BBFE05E9F8026E9F22ECF0A3EDF0A3EEF8
:106BE000F0A3EFF022F8E0FBA3A3E0F925F0F0E535
:106BF00082158270021583E0FA38F022EBF0A3EAE6
:106C0000F0A3E9F022D083D082F8E49370127401EB
:106C100093700DA3A393F8740193F5828883E473B2
:106C20007402936860EFA3A3A380DFE54A2582F591
:106C300082E5493583F583B5490485824A2210AF40
:106C40000685824AF5492285824AF549D2AF22EC6F
:106C50008EF0A4CCC5F0CCCDF8EFA4CEC5F02DFDC0
:106C6000E43CFCE8A42EC8C5F03DFDE43CFCEFA4E8
:106C7000FFE5F028FEE43DFDE43CFC22E709F608D0
:106C8000DFFA8046E709F208DFFA803E88828C83CB
:106C9000E709F0A3DFFA8032E309F608DFFA806E35
:106CA000E309F208DFFA806688828C83E309F0A3A7
:106CB000DFFA805A89828A83E0A3F608DFFA804EE1
:106CC00089828A83E0A3F208DFFA804280D280FAC8
:106CD00080C680D4805580F28029801080A680EA0A
:106CE000809A80A880DA80E280CA802988848C8596
:106CF00089828A83E493A30586F0A30586DFF5DE07
:106D0000F3800B89828A83E493A3F608DFF9ECFA17
:106D1000A9F0EDFB2288848C8589828A83E0A30513
:106D200086F0A30586DFF6DEF480E389828A83E4B9
:106D300093A3F208DFF980D688F0EF60010E4E6071
:106D4000CD88F0ED2402B4040050C3F582EB240298
:106D5000B4040050B92323458223906CCC73E70917
:106D6000F60870FA8046E709F20870FA803E8882D9
:106D70008C83E709F0A370FA8074E309F60870FACF
:106D8000806CE309F20870FA806488828C83E309DE
:106D9000F0A370FA805889828A83E0A3F60870FA1B
:106DA000804C89828A83E0A3F20870FA804080D206
:106DB00080FA80C680D4805180F28027801080A61F
:106DC00080EA809A80A880DA80E280CA802788845E
:106DD0008C8589828A83E493A30586F0A305867057
:106DE000F5800B89828A83E493A3F60870F9ECFAA4
:106DF000A9F0EDFB2288848C8589828A83E0A30533
:106E000086F0A3058670F680E589828A83E493A3E1
:106E1000F20870F980D888F0ED2402B4040050CE56
:106E2000F582EB2402B4040050C42323458223904E
:106E30006DAE73C5F0F8A3E028F0C5F0F8E5821553
:106E40008270021583E038F022A3F8E0C5F025F047
:106E5000F0E582158270021583E0C838F0E822E67A
:106E6000FC08E6FD08E6FE08E6FF22E0FCA3E0FDE4
:106E7000A3E0FEA3E0FF22E2FC08E2FD08E2FE0838
:106E8000E2FF22E493FC740193FD740293FE740309
:106E900093FF22ECF608EDF608EEF608EFF622EC8A
:106EA000F208EDF208EEF208EFF22212C0A8EF703D
:106EB0000A300CF7C20C129DD880F0900E84E024AA
:106EC0009AFF900E83E034F9FE3395E0FDFCE47BFD
:106ED000A07A07F9F8126A067807126B78900DDA33
:106EE000126BD9300C05C20C129DD8900D20E060B9
:106EF00077300D74900F50E004F0E064E870027495
:106F00000370657F287E23FDFC900DDAE0F8A3E096
:106F1000F9A3E0FAA3E0FBC3126B3E500FE47F40FD
:106F20007E1FFDFC900E77126BD98037E47FC87E00
:106F300032FDFC900DDAE0F8A3E0F9A3E0FAA3E05B
:106F4000FBC3126B3E500FE47FE07E2EFDFC900EE3
:106F500077126BD9800DE47FC07E5DFDFC900E77CB
:106F6000126BD9E4900D20F0E47F587E1BFDFC905D
:106F70000DDAE0F8A3E0F9A3E0FAA3E0FBD3126B8B
:106F80003E5003027792E47FE87E03FDFC900F51B0
:106F9000E0F8A3E0F9A3E0FAA3E0FB126B5470045D
:106FA000D20D8036900F51E0FCA3E0FDA3E0FEA3DC
:106FB000E02401FFE43EFEE43DFDE43CFC900F5183
:106FC000126BD9900DDAE0FCA3E0FDA3E0FEA3E094
:106FD000FF12AFD9900E8B126BD9300C05C20C1278
:106FE0009DD8900D68E07004F50EF50F900CB2E09E
:106FF00064066003027342E5101470030270F51416
:107000007003027108147003027127147003027177
:107010008A24046003027195900E87E0FEA3E0FFCE
:10702000EE3395E08F258E24F523F522C3E52595D3
:1070300019FFE5249518FEE5239517FDE522951621
:10704000FC12671EC004C005C006C007AF19AE1809
:10705000AD17AC16EC12671EA804A905AA06AB076B
:10706000D007D006D005D004126608C004C005C001
:1070700006C007900D9BE0FCA3E0FDE4126723D05F
:1070800003D002D001D0001264FF12675C8F258EFE
:10709000248D238C22300C05C20C129DD87F007EDB
:1070A000FC7DFF7CFFAB25AA24A923A822C3126B79
:1070B0003E500C7525007524FC7523FF7522FFE4F6
:1070C000FF7E04FDFCAB25AA24A923A822D3126BC2
:1070D0003E400AE4F525752404F523F522900EC000
:1070E000E524F0A3E525F0200C03027195C20C12F3
:1070F0009DD8027195E4F512F513F519F518F517F9
:10710000F5167510040271950513E513700205124A
:1071100064644512707FF512F513300C05C20C1231
:107120009DD8751003806E0513E51370020512904B
:107130000E87E0FEA3E0FFEE3395E0FDFCE5192F9E
:10714000F519E5183EF518E5173DF517E5163CF578
:1071500016300C05C20C129DD8E51364C845127098
:1071600034AF19AE18AD17AC167BC8FAF9F812B7E0
:107170008D8F198E188D178C16300C05C20C129D30
:10718000D8E4F512F513F510800BE50E7007E50F46
:107190007003751002300C05C20C129DD8E5111455
:1071A00070030272981470030272AB1470030272BF
:1071B000CA14700302732524046003027334900E12
:1071C00089E0FEA3E0FFEE3395E08F258E24F523C2
:1071D000F522C3E525951DFFE524951CFEE52395C5
:1071E0001BFDE522951AFC12671EC004C005C006EF
:1071F000C007AF1DAE1CAD1BAC1AEC12671EA80475
:10720000A905AA06AB07D007D006D005D0041266A0
:1072100008C004C005C006C007900D9BE0FCA3E0B9
:10722000FDE4126723D003D002D001D0001264FF26
:1072300012675C8F258E248D238C22300C05C20CA6
:10724000129DD87F007EFC7DFF7CFFAB25AA24A980
:1072500023A822C3126B3E500C7525007524FC75C3
:1072600023FF7522FFE4FF7E04FDFCAB25AA24A9C1
:1072700023A822D3126B3E400AE4F525752404F5B9
:1072800023F522300C05C20C129DD8900EBEE524C9
:10729000F0A3E525F0027334E4F514F515F51DF5BA
:1072A0001CF51BF51A7511040273340515E51570EC
:1072B00002051464644514707BF514F515300C0553
:1072C000C20C129DD8751103806A0515E515700270
:1072D0000514900E89E0FEA3E0FFEE3395E0FDFC7F
:1072E000E51D2FF51DE51C3EF51CE51B3DF51BE5D9
:1072F0001A3CF51AE51564C845147038AF1DAE1C6C
:10730000AD1BAC1A7BC8FAF9F812B78D8F1D8E1C15
:107310008D1B8C1A300C05C20C129DD8E4F514F5A7
:1073200015F511800FE50E700BE50F7007E5107075
:1073300003751102200C030277D3C20C129DD802F0
:1073400077D3E50E14700302741E147003027435B3
:107350001470030274722403600302751F900E8779
:10736000E0FEA3E0FFEE3395E08F258E24F523F5B4
:1073700022E4FFFEFDFCAB25AA24A923A822C31208
:107380006B3E5009E4F525F524F523F522AF25AE33
:1073900024AD23AC2212A69E8F258E248D238C2211
:1073A000780A126B8C900D69E0F8A3E0F9A3E0FA7B
:1073B000A3E0FB126A918F258E248D238C22300C42
:1073C00005C20C129DD8E4FFFEFDFCAB25AA24A942
:1073D00023A822C3126B3E500BE4F525F524F523B8
:1073E000F522801EE4FF7E04FDFCAB25AA24A92320
:1073F000A822D3126B3E400AE4F525752404F52338
:10740000F522AF25AE24AD23AC22900E9E126BD98F
:10741000200C0302751FC20C129DD802751FE49048
:107420000F4CF0A3F0FFFEFDFC900D69126BD975B7
:107430000E0202751F900F4DE004F07006900F4C85
:10744000E004F0900F4CE064017004A3E064F46089
:107450000302751F900F4CF0A3F07F0112C0C6E429
:10746000FF12C0CC300C05C20C129DD8750E030261
:10747000751F900F4DE004F07006900F4CE004F083
:10748000C3900E87E0648094805004E4F0A3F090F1
:107490000D69E0F8A3E0F9A3E0FAA3E0FBC000C0A7
:1074A00001C002C003900E87E0FEA3E0FFEE33951B
:1074B000E0FDFC12A69ED003D002D001D000EB2F3D
:1074C000FFEA3EFEE93DFDE83CFC900D69126BD9F8
:1074D000300C05C20C129DD8900F4CE06403700470
:1074E000A3E064E87039900D69E0FCA3E0FDA3E03F
:1074F000FEA3E0FFE47BE87A03F9F8126A91900DAD
:1075000069126BD9300C05C20C129DD8E4FF12C071
:10751000C6E4FF12C0CCE4900F4CF0A3F0F50E309F
:107520000C05C20C129DD8E50F14700302760414EA
:1075300070030276231470030276601470030277DE
:107540001314700302771C24056003027788900EE1
:1075500089E0FEA3E0FFEE3395E08F258E24F5232E
:10756000F522E4FFFEFDFCAB25AA24A923A822C333
:10757000126B3E5009E4F525F524F523F522AF25DD
:10758000AE24AD23AC2212A7538F258E248D238CDD
:1075900022780A126B8C900D6DE0F8A3E0F9A3E05D
:1075A000FAA3E0FB126A918F258E248D238C223062
:1075B0000C05C20C129DD8E4FFFEFDFCAB25AA24ED
:1075C000A923A822C3126B3E500BE4F525F524F540
:1075D00023F522801EE4FF7E04FDFCAB25AA24A92E
:1075E00023A822D3126B3E400AE4F525752404F546
:1075F00023F522AF25AE24AD23AC22900EA2126B50
:10760000D9027788E4900F4EF0A3F0FFFEFDFC90C6
:107610000D6D126BD9300C05C20C129DD8750F047C
:10762000027788900F4FE004F07006900F4EE00450
:10763000F0900F4EE064017004A3E064F460030274
:107640007788900F4EF0A3F07F0112C0C6E4FF12BE
:10765000C0CC300C05C20C129DD8750F0302778880
:10766000900F4FE004F07006900F4EE004F0C390CE
:107670000E89E0648094805004E4F0A3F0900D6DD6
:10768000E0F8A3E0F9A3E0FAA3E0FBC000C001C06A
:1076900002C003900E89E0FEA3E0FFEE3395E0FD0B
:1076A000FC12A753D003D002D001D000EB2FFFEA89
:1076B0003EFEE93DFDE83CFC900D6D126BD9300CAF
:1076C00005C20C129DD8900F4EE064037004A3E035
:1076D00064E86003027788900D6DE0FCA3E0FDA3F1
:1076E000E0FEA3E0FFE47BE87A03F9F8126A9190E8
:1076F0000D6D126BD9E4FF12C0C6E4FF12C0CCE4DA
:10770000900F4EF0A3F0300C05C20C129DD8750FEF
:10771000058075E50E7071750F02806C900F4FE05B
:1077200004F07006900F4EE004F0900F4EE06401FC
:107730007004A3E064F47050900F4EF0A3F0300C8E
:1077400005C20C129DD8900CB2E0FF6402600EEFEF
:1077500064036009EF64046004EFB40528900E8FA1
:10776000E0FCA3E0FDA3E0FEA3E0FF900D25126B7B
:10777000D9900E93E0FCA3E0FDA3E0FEA3E0FF9010
:107780000D29126BD9E4F50F300C48C20C129DD8AC
:107790008041750E01750F01751001751101C20D43
:1077A0007F0112C0C6E4FF12C0CC300C05C20C121F
:1077B0009DD8E4FFFEFDFC900E9E126BD9E4FFFE07
:1077C000FDFC900EA2126BD9E4900EBEF0A3F0A3C4
:1077D000F0A3F0900D20E06003027881200D0302F9
:1077E0007881E50E6003027881E50F6003027881FD
:1077F000900DDAE0FCA3E0FDA3E0FEA3E0FF12AFF2
:10780000D9900E8B126BD9900E77E0FCA3E0FDA30C
:10781000E0FEA3E0FFEC12671E7B1F7A85796B7890
:107820003F1264FFC004C005C006C007900E8BE085
:10783000FCA3E0FDA3E0FEA3E0FFEC12671EA8049A
:10784000A905AA06AB07D007D006D005D00412665A
:10785000A5600E400C7F0112C0C6E4FF12C0CC80B0
:1078600020E4FF12C0C67F0112C0CC900DD1E060B1
:107870001012B425300C05C20C129DD8E4900DD125
:10788000F0300C05C20C129DD822900CE7E0FEA34C
:10789000E0FFFBAA06E4900E9EE0FCA3E0FDA3E05F
:1078A000FEA3E0C39BF529EE9AF528ED9400F52799
:1078B000EC9400F526900CE9E0FEA3E0FFFBAA069D
:1078C000E4900EA2E0FCA3E0FDA3E0FEA3E0C39BD6
:1078D000F52DEE9AF52CED9400F52BEC9400F52A9D
:1078E000900CB2E024FE7003027A3D147003027A19
:1078F0009B147003027B90147003027CF3147003DA
:10790000027E9424056003027F15900DD1E060266D
:10791000900CF5E0FF3395E0FEFDFC900E8FE0F853
:10792000A3E0F9A3E0FAA3E0FB126A068F258E24F8
:107930008D238C228009E4F525F524F523F522908A
:107940000D25E0F8A3E0F9A3E0FAA3E0FBC3E525E9
:107950009BFFE5249AFEE52399FDE52298FC900C17
:10796000DFE0F8A3E0F9A3E0FAA3E0FBC3126B3E6B
:107970005044E4FFFEFDFC900CDFE0F8A3E0A3E040
:10798000A3E0C3126B3E602E900D25E0FCA3E0FD4A
:10799000A3E0FEA3E0FF900CDFE0F8A3E0A3E0A3E8
:1079A000E0EF2BFFEE3AFEED39FDEC38FC900D25B3
:1079B000126BD9027F15900D25E0F8A3E0F9A3E042
:1079C000FAA3E0FBC3E5259BFFE5249AFEE5239996
:1079D000FDE52298FC900CE3E0F8A3E0F9A3E0FABF
:1079E000A3E0FBD3126B3E4043E4FFFEFDFC900C92
:1079F000E3E0F8A3E0A3E0A3E0126B3E602E900D5D
:107A000025E0FCA3E0FDA3E0FEA3E0FF900CE3E093
:107A1000F8A3E0A3E0A3E0EF2BFFEE3AFEED39FD83
:107A2000EC38FC900D25126BD9027F15AF25AE24E2
:107A3000AD23AC22900D25126BD9027F15E4FFFE19
:107A4000FDFCAB29AA28A927A826D3126B3E403DEE
:107A5000900D54E0FCA3E0FDA3E0FEA3E0FFA82608
:107A6000126A06C006C007900CE7E0FEA3E0FFC361
:107A7000E49FFF74049EFEAB07FAE4F9F8D007D048
:107A80000612B78D900D25126BD9027F15E4FFFE0B
:107A9000FDFC900D25126BD9027F15900DDEE0FCE8
:107AA000A3E0FDA3E0FEA3E0FF900D25126BD9E457
:107AB000FFFEFDFCAB29AA28A927A826D3126B3EFE
:107AC0004056900D71E0FFE4FCFDFEA826126A0608
:107AD000E47B02FAF9F8126A06C006C007900CE7C8
:107AE000E0FEA3E0FFC3E49FFF74049EFEAB07FA31
:107AF000E4F9F8D007D00612B78D900DDEE0F8A3B8
:107B0000E0F9A3E0FAA3E02FFFEA3EFEE93DFDE83D
:107B10003CFC900D25126BD9E4FFFEFDFCAB2DAAB9
:107B20002CA92BA82AD3126B3E5003027F15900D6F
:107B300071E0FFE4FCFDFEA82A126A06E47B02FA6B
:107B4000F9F8126A06C006C007900CE9E0FEA3E04F
:107B5000FFC3E49FFF74049EFEAB07FAE4F9F8D07C
:107B600007D00612B78DA804A905AA06AB07900D89
:107B7000DEE0FCA3E0FDA3E0FEA3E0C39BFFEE9AE2
:107B8000FEED99FDEC98FC900D25126BD9027F1546
:107B9000900DDEE0FCA3E0FDA3E0FEA3E0FF900D6E
:107BA00025126BD9900F4BE0146048147003027CCF
:107BB0006D24026003027F15E4FFFEFDFCAB29AAE1
:107BC00028A927A826D3126B3E4009900F4B7401B9
:107BD000F0027F15E4FFFEFDFCAB2DAA2CA92BA81B
:107BE0002AD3126B3E5003027F15900F4B7402F0A4
:107BF000027F15E4FFFEFDFCAB29AA28A927A826D1
:107C0000C3126B3E5008E4900F4BF0027F15900DAD
:107C100071E0FFE4FCFDFEAB29AA28A927A82612E3
:107C20006A06E47B02FAF9F8126A06C006C00790F9
:107C30000CE7E0FEA3E0FFC3E49FFF74049EFEABED
:107C400007FAE4F9F8D007D00612B78D900DDEE000
:107C5000F8A3E0F9A3E0FAA3E02FFFEA3EFEE93D36
:107C6000FDE83CFC900D25126BD9027F15E4FFFE68
:107C7000FDFCAB2DAA2CA92BA82AC3126B3E5008E1
:107C8000E4900F4BF0027F15900D71E0FFE4FCFDD6
:107C9000FEAB2DAA2CA92BA82A126A06E47B02FAB5
:107CA000F9F8126A06C006C007900CE9E0FEA3E0EE
:107CB000FFC3E49FFF74049EFEAB07FAE4F9F8D01B
:107CC00007D00612B78DA804A905AA06AB07900D28
:107CD000DEE0FCA3E0FDA3E0FEA3E0C39BFFEE9A81
:107CE000FEED99FDEC98FC900D25126BD9027F15E5
:107CF000027F15900DDEE0FCA3E0FDA3E0FEA3E013
:107D0000FF900D25126BD9900F4BE0146048147052
:107D100003027DEF24026003027F15E4FFFEFDFCF9
:107D2000AB29AA28A927A826D3126B3E4009900F99
:107D30004B7401F0027F15E4FFFEFDFCAB2DAA2C75
:107D4000A92BA82AD3126B3E5003027F15900F4B2C
:107D50007402F0027F15E4FFFEFDFCAB29AA28A9FE
:107D600027A826C3126B3E501BE4FFFEFDFCAB2D83
:107D7000AA2CA92BA82AC3126B3E5008E4900F4BE3
:107D8000F0027F15E4FFFEFDFCAB29AA28A927A875
:107D900026D3126B3E5003027F15900D71E0FFE475
:107DA000FCFDFEA826126A067802126B8CC006C083
:107DB00007900CE7E0FEA3E0FFC3E49FFF74049E7E
:107DC000FEAB07FAE4F9F8D007D00612B78D900D94
:107DD000DEE0F8A3E0F9A3E0FAA3E02FFFEA3EFE1D
:107DE000E93DFDE83CFC900D25126BD9027F15E4BE
:107DF000FFFEFDFCAB29AA28A927A826C3126B3ECB
:107E0000501BE4FFFEFDFCAB2DAA2CA92BA82AC316
:107E1000126B3E5008E4900F4BF0027F15E4FFFE1A
:107E2000FDFCAB2DAA2CA92BA82AD3126B3E500324
:107E3000027F15900CF4E0FFE4FCFDFEA82A126A14
:107E4000067802126B8CC006C007900CE9E0FEA316
:107E5000E0FFC3E49FFF74049EFEAB07FAE4F9F869
:107E6000D007D00612B78DA804A905AA06AB0790C3
:107E70000DDEE0FCA3E0FDA3E0FEA3E0C39BFFEE6C
:107E80009AFEED99FDEC98FC900D25126BD9027FBE
:107E900015027F15900D1EE0FCA3E0FDE4126723A0
:107EA000E4FBFAF97840126608C004C005C006C0B9
:107EB00007900EBEE0FCA3E0FDEC126723D003D0D8
:107EC00002D001D0001266088F318E308D2F8C2E9B
:107ED000900D1CE0FCA3E0FDE4126723AB31AA3057
:107EE000A92FA82E1264FFC004C005C006C00790C9
:107EF0000DDEE0FCA3E0FDA3E0FEA3E0FFEC1267D3
:107F00001ED003D002D001D00012640E12675C9024
:107F10000D25126BD9900CCEE0606AA3E0FCA3E0C3
:107F2000FDA3E0FEA3E0FF900D25E0F8A3E0F9A398
:107F3000E0FAA3E0FBC3126B3E5014900CCFE0FCC0
:107F4000A3E0FDA3E0FEA3E0FF900D25126BD99006
:107F50000CD7E0FCA3E0FDA3E0FEA3E0FF900D251D
:107F6000E0F8A3E0F9A3E0FAA3E0FBD3126B3E40F4
:107F700014900CD7E0FCA3E0FDA3E0FEA3E0FF908B
:107F80000D25126BD9900CF7E06401600302803D6F
:107F9000900EC2E0B40114900E73E0FCA3E0FDA3C8
:107FA000E0FEA3E0FF900D25126BD9900D9DE064DB
:107FB00001600302803DFFFEFDFCAB2DAA2CA92B26
:107FC000A82AD3126B3E405C900D75E0FCA3E0FD47
:107FD000A3E0FEA3E0FFA82A126A06C006C007902D
:107FE0000CE9E0FEA3E0FFC3E49FFF74049EFEAB38
:107FF00007FAE4F9F8D007D00612B78DA804A9054E
:10800000AA06AB07900D75E0FCA3E0FDA3E0FEA37C
:10801000E0C39BFFEE9AFEED99FDEC98FC900D25D8
:10802000126BD922900D75E0FCA3E0FDA3E0FEA346
:10803000E0FF900D25126BD9E4900D9DF022E4FF36
:10804000FEFDFC900002126BD9900D7DE0FCA3E0D8
:10805000FDA3E0FEA3E0FFEC12671EE4FBFA797AD1
:108060007844126608900006126BD9900FB5E06054
:1080700010E4FFFEFDFC900FB0126BD9E4900FB539
:10808000F0900DD2E0FCA3E0FDA3E0FEA3E0FF90A2
:108090000D30E0F9F8126B78900002126BD9900C59
:1080A000B2E0FFC39402403AEFD394055034E47F2A
:1080B000C8FEFDFC900E9EE0F8A3E0F9A3E0FAA351
:1080C000E0FBC3126B3E501AE47FC8FEFDFC900E2D
:1080D000A2E0F8A3E0F9A3E0FAA3E0FBC3126B3E31
:1080E0004024900CB2E06406705F900EBEE0FEA3E8
:1080F000E0FFC39432EE64809480504DEF94CEEE56
:108100006480947F4043E47F107E27FDFC90000252
:10811000E0F8A3E0F9A3E0FAA3E0FBC3126B3E5042
:1081200028900FB4E0B40136900FB0E0FCA3E0FD5E
:10813000A3E0FEA3E02401FFE43EFEE43DFDE43CB9
:10814000FC900FB0126BD98015E4FFFEFDFC900F80
:10815000B0126BD9E4900EC2F0900FB404F0E47B3F
:108160000AFAF9F8900D79E0FCA3E0FDA3E0FEA384
:10817000E0FF12B78D900FB0E0F8A3E0F9A3E0FAAA
:10818000A3E0FBC3126B546003028324900EC2046D
:10819000F0900DD2E0FCA3E0FDA3E0FEA3E0FF9091
:1081A0000E73126BD9900DD2E0F8A3E0F9A3E0FAB8
:1081B000A3E0FB900D75E0FCA3E0FDA3E0FEA3E0CF
:1081C000C39BFFEE9AFEED99FDEC98FC12671EC072
:1081D00004C005C006C007900D75E0FCA3E0FDA338
:1081E000E0FEA3E0FFEC12671EA804A905AA06ABF7
:1081F00007D007D006D005D004126608900006E02C
:10820000F8A3E0F9A3E0FAA3E0FB1264FF900FB635
:10821000126BD9E4FFFE7DC87C42900FB6E0F8A354
:10822000E0F9A3E0FAA3E0FB1264FF12675C900D93
:1082300030E0F9F8126B8C900FBA126BD9E4FFFEA4
:10824000FDFC900FBAE0F8A3E0F9A3E0FAA3E0FB8D
:10825000D3126B3E4010900FBAE0FCA3E0FDA3E008
:10826000FEA3E0FF8011900FBAE0FCA3E0FDA3E0C5
:10827000FEA3E0FF126B30900FBA126BD9900DD2B3
:10828000E0F8A3E0F9A3E0FAA3E0FB900D75E0FCB1
:10829000A3E0FDA3E0FEA3E0C39BFFEE9AFEED99F1
:1082A000FDEC98FC900FC2126BD9E4FFFE7D207CA0
:1082B00041900FB6E0F8A3E0F9A3E0FAA3E0FB12C7
:1082C00064FF12675C900D30E0F9F8126B8C900F30
:1082D000BE126BD9E4FFFEFDFC900FBEE0F8A3E0F8
:1082E000F9A3E0FAA3E0FBD3126B3E4010900FBE5F
:1082F000E0FCA3E0FDA3E0FEA3E0FF8011900FBE31
:10830000E0FCA3E0FDA3E0FEA3E0FF126B30900FC2
:10831000BE126BD9E4FFFEFDFC900FB0126BD9E4E6
:10832000900FB4F0900EC2E0700302845E900FBA1A
:10833000E0FCA3E0FDA3E0FEA3E0FF900FC2E0F8A5
:10834000A3E0F9A3E0FAA3E0FBC3126B3E50539005
:108350000FBAE0FCA3E0FDA3E0FEA3E0FF126B3048
:10836000900FC2E0F8A3E0A3E0A3E0D3126B3E407D
:1083700031900D75E0FCA3E0FDA3E0FEA3E0FF90CB
:108380000E73126BD9900CB2E0C394024006900DAC
:108390009D7401F0E4FFFEFDFC900FB0126BD9025A
:1083A000845E900DD2E0F8A3E0F9A3E0FAA3E0FB2D
:1083B000900D75E0FCA3E0FDA3E0FEA3E0C39BFFEE
:1083C000EE9AFEED99FDEC98FC900FC2126BD9E489
:1083D000FFFEFDFC900FC2E0F8A3E0F9A3E0FAA3D2
:1083E000E0FBD3126B3E402E900E73E0FCA3E0FD49
:1083F000A3E0FEA3E0FF900FBEE0F8A3E0F9A3E046
:10840000FAA3E0FBEF2BFFEE3AFEED39FDEC38FC72
:10841000900E73126BD9E4FFFEFDFC900FC2E0F8E2
:10842000A3E0F9A3E0FAA3E0FBC3126B3E502F9048
:108430000E73E0FCA3E0FDA3E0FEA3E0FF900FBEFF
:10844000E0F8A3E0F9A3E0FAA3E0FBC3EF9BFFEEA3
:108450009AFEED99FDEC98FC900E73126BD9900C7E
:10846000CEE0606AA3E0FCA3E0FDA3E0FEA3E0FF92
:10847000900E73E0F8A3E0F9A3E0FAA3E0FBC312C7
:108480006B3E5014900CCFE0FCA3E0FDA3E0FEA3F4
:10849000E0FF900E73126BD9900CD7E0FCA3E0FDC7
:1084A000A3E0FEA3E0FF900E73E0F8A3E0F9A3E0E1
:1084B000FAA3E0FBD3126B3E4014900CD7E0FCA370
:1084C000E0FDA3E0FEA3E0FF900E73126BD922E55E
:1084D0002B24ACF582E43407F583E0052B229007CA
:1084E000A93008039007ACE475F001126BE502694E
:1084F0008F2001E97F2ED2018018EF540F2490D4F1
:108500003440D4FF30050BEF24BFB41A00500324CD
:1085100061FFE52C6002152C052FE52F7002052E5A
:1085200030080E9007A9E475F001126BE5EF0269BF
:10853000D502BC767403D2088003E4C208F52B9000
:1085400007A9126BFCE4F52CF52EF52FE52C60073E
:108550007F2012851280F5752DFFC202C201C20371
:10856000C204C206C207C2091284DEFF700D3008C1
:10857000057F00128523AF2FAE2E22B4255FC2D512
:10858000C2051284DEFF24D0B40A00501A75F00A26
:10859000782C30D50508B6FF0106C6A426F620D5EE
:1085A000047002D20480D924CFB41A00EF5004C260
:1085B000E5D205028815D20280C6D20180C0D2035E
:1085C00080BCD2D580BAD20680B47F20128512201A
:1085D00003077401B52C0040F11284CFFF128512FD
:1085E00002854CD209D20780951284CFFB1284CF2A
:1085F000FA1284CFF94A4B700679137A897BFF20EF
:10860000032EE52C602A7E008E827583001269A8F5
:1086100060060EEE652D70F0C2D5EBC0E0EAC0E05A
:10862000E9C0E0EE128876D0E0F9D0E0FAD0E0FBC5
:1086300012698FFF60AAEBC0E0EAC0E0E9C0E01277
:108640008512D0E02401F9D0E03400FAD0E0FBE557
:108650002D0460DCD52DD98087D20380A2128858E2
:1086600060F7E52D7001041267DDA92D600DE52D81
:10867000600914F52D128900EF60F3EA30E702F487
:1086800004C3995079EAF4252D0430E701E404F598
:108690002D800D12885860C1EA052D252D1267DD49
:1086A000EA9007D8F030E701E4252D04D52D042009
:1086B000060114128876E4C0E01289009007D8E021
:1086C000601320E70714F01284FA802204F0D0E04F
:1086D00014C0E07F001284FAE52D60071284F115C2
:1086E0002D800B3006031284F1D0E002854CD0E0DF
:1086F0000480C4128858609EE52D041267DD90073F
:10870000D8EAF0E52D2006026001042404128876E0
:1087100074FF04C0E01289001284FAE52D200602DD
:1087200060031284F1D0E0B52DE87F4512850490F6
:1087300007D8E07F2B30E7047F2DF404C0E01285DA
:1087400012D0E075F00A84C0F01284FBD0E01284ED
:10875000FB02854C791080027908C207C2098008A3
:10876000D2D5790A8004790AC2D5E52D047002F5C4
:108770002DE4FAFDFEFF1284CFFC7B0820021312C9
:1087800084CFFD7B1030010A1284CFFE1284CFFF0C
:108790007B20EC3382D592D55013C3E43001069F81
:1087A000FFE49EFEE42002039DFDE49CFCE4CBF884
:1087B000C202EC700CCFCECDCCE824F8F870F38078
:1087C00017C3EF33FFEE33FEED33FDEC33FCEB3339
:1087D000FB994002FB0FD8E9EB300205F8D0E0C46A
:1087E00048B202C0E00AEC4D4E4F78207B0070C2C8
:1087F000EAB52D0040BCC0E0128878D0F0D0E0206F
:108800000204C4C0E0C4B202C0F01284FBD0F0D5B0
:10881000F0EB02854C126C0585E95387545885BAF4
:108820004C85B64287584F87604487604985CF435F
:1088300087665586934686F345865D47893350851E
:10884000BE2D85C22E85E52B85C62385E320891C98
:108850002A857E48000085DDE52DB4FF03752D06D1
:108860001284CFFC1284CFFD1284CFFE1284CFFF7E
:108870009007D102681A790AA2D52004143006099B
:10888000B910020404B9080104A2D520070250015E
:10889000042003689203B52C005034C0E07F2030E0
:1088A00004197F30A20372077206500F1288CFC2DC
:1088B00003C207C206C2097F30800F300603E9C039
:1088C000E0128512300603D0E0F9D0E0B52CCC30B0
:1088D00006177F30B9100C1285127F583005077FBC
:1088E000788003B908031285123003057F2D0285B5
:1088F000127F202009F87F2B2007F322920380CFDC
:108900007F00B40700500B24D1F582E43407F583CF
:10891000E0FF22286E756C6C2900D2021284CF30E1
:1089200002F8C202782C30D50108F602857E2D505F
:108930004349581284CF2403B405004001E49089D0
:108940002E93128503743A128503D204752C040207
:108950008754752B02900CB2E06003028BF9900CE7
:10896000B6E0FCA3E0FDA3E0FEA3E0FF900036121A
:108970006BD9900CBAE0FCA3E0FDA3E0FEA3E0FFFE
:1089800090003A126BD9900CC2E0FCA3E0FDA3E08A
:10899000FEA3E0FF90003E126BD9900CC6E0FCA352
:1089A000E0FDA3E0FEA3E0FF900042126BD9900E21
:1089B0006BE0FCA3E0FDA3E0FEA3E0FFEC12671E6A
:1089C00090003EE0F8A3E0F9A3E0FAA3E0FB126612
:1089D0000812675C900E6B126BD9900E6FE0FCA3CF
:1089E000E0FDA3E0FEA3E0FFEC12671E900042E072
:1089F000F8A3E0F9A3E0FAA3E0FB12660812675CB3
:108A0000900E6F126BD9900E6BE0FCA3E0FDA3E01B
:108A1000FEA3E0FFEC12671E900D3FE0F8A3E0F923
:108A2000A3E0FAA3E0FB1264FF12675C900E6B12E6
:108A30006BD9900E6FE0FCA3E0FDA3E0FEA3E0FF86
:108A4000EC12671E900D43E0F8A3E0F9A3E0FAA34F
:108A5000E0FB1264FF12675C900E6F126BD9900EF0
:108A60006BE0F8A3E0F9A3E0FAA3E0FBC000C001CB
:108A7000C002C003900036E0FCA3E0FDA3E0FEA32B
:108A8000E0FFFBAA06A905A804900D33E0FCA3E0D3
:108A9000FDA3E0FEA3E0C39BFFEE9AFEED99FDEC83
:108AA00098FCD003D002D001D000EB2FFFEA3EFEAD
:108AB000E93DFDE83CFC900E6B126BD9900E6FE027
:108AC000F8A3E0F9A3E0FAA3E0FBC000C001C002F4
:108AD000C00390003AE0FCA3E0FDA3E0FEA3E0FFAA
:108AE000FBAA06A905A804900D37E0FCA3E0FDA3AE
:108AF000E0FEA3E0C39BFFEE9AFEED99FDEC98FC2F
:108B0000D003D002D001D000EB2FFFEA3EFEE93DBA
:108B1000FDE83CFC900E6F126BD9900CCEE0700318
:108B2000028BF9A3E0FCA3E0FDA3E0FEA3E0FF902D
:108B30000E6BE0F8A3E0F9A3E0FAA3E0FBC3126B2D
:108B40003E5014900CCFE0FCA3E0FDA3E0FEA3E0B8
:108B5000FF900E6B126BD9900CD3E0FCA3E0FDA349
:108B6000E0FEA3E0FF900E6FE0F8A3E0F9A3E0FAC7
:108B7000A3E0FBC3126B3E5014900CD3E0FCA3E0C7
:108B8000FDA3E0FEA3E0FF900E6F126BD9900CD70F
:108B9000E0FCA3E0FDA3E0FEA3E0FF900E6BE0F895
:108BA000A3E0F9A3E0FAA3E0FBD3126B3E401490DC
:108BB0000CD7E0FCA3E0FDA3E0FEA3E0FF900E6B6A
:108BC000126BD9900CDBE0FCA3E0FDA3E0FEA3E078
:108BD000FF900E6FE0F8A3E0F9A3E0FAA3E0FBD367
:108BE000126B3E4014900CDBE0FCA3E0FDA3E0FE22
:108BF000A3E0FF900E6F126BD9900D2EE0FF900C4A
:108C0000B1E0FE6F603F8E2EE4FFFE12AA1CEF6003
:108C10001B752C01752D017B007A00792CE52BFD4D
:108C20007C0090004BE52EF012AC2222E4F52CF5EE
:108C30002DFB7A00792CE52BFD7C0090004BE52E76
:108C4000F012AC2222E4FFFE12AA1CEF60067F01A4
:108C500012BE3522E4FF12BE352212A4F9900002A2
:108C6000EEF0A3EFF0900D89E0FCA3E0FDC39FEED2
:108C70006480F8EC6480985008900002ECF0A3ED5A
:108C8000F0900D8BE0FEA3E0FF900002E0FCA3E07B
:108C9000FDC39FEE6480F8EC6480985009E4900076
:108CA00002F0A3F08015900D8BE0FEA3E0FFC3ED72
:108CB0009FFFEC9E900002F0A3EFF0900E7FE0FC8F
:108CC000A3E0FDA3E0FEA3E0FF900D30E0F9F81271
:108CD0006B78900004126BD9900D8DE0FCA3E0FD41
:108CE000A3E0FEA3E0FF900004E0F8A3E0F9A3E016
:108CF000FAA3E0FB126A06900D91E0F8A3E0F9A355
:108D0000E0FAA3E0FB12B78D900010126BD990002F
:108D100002E0FCA3E0FDEC126723900D85E0F8A3D0
:108D2000E0F9A3E0FAA3E0FB1264FF7B007AFF798D
:108D30007F78471264FFE4FBFA79B478441266083E
:108D400012675C900014126BD9900D1BE0605F906D
:108D50000010E0FCA3E0FDA3E0FEA3E0FF126B30F7
:108D6000A3E0F8A3E0F9A3E0FAA3E0FBC3EF9BFFC5
:108D7000EE9AFEED99FDEC98FC900008126BD990EC
:108D80000010E0FCA3E0FDA3E0FEA3E0FF126B30C7
:108D9000A3E0F8A3E0F9A3E0FAA3E02FFFEA3EFE88
:108DA000E93DFDE83CFC90000C126BD98059900025
:108DB00014E0F8A3E0F9A3E0FAA3E0FB900010E0D0
:108DC000FCA3E0FDA3E0FEA3E0C39BFFEE9AFEED53
:108DD00099FDEC98FC900008126BD9900014E0FC0F
:108DE000A3E0FDA3E0FEA3E0FF900010E0F8A3E005
:108DF000F9A3E0FAA3E02FFFEA3EFEE93DFDE83CDF
:108E0000FC90000C126BD9752282900008E0A3E060
:108E1000A3E0FEA3E08E23F524A3E0A3E0A3E0FEFD
:108E2000A3E08E25F5267B007A0079227D0512BA13
:108E3000A28F277B007A007922900D19E090003BE9
:108E4000F07D067C0012AF5622900D2E7401F0E4E6
:108E5000A3F0900D4B04F0900D307403F0A3F0A339
:108E6000F0E4FBEBC39402503AE4FFFEFDFCEB257B
:108E7000E025E0244CF582E4340DF583126BD9E44F
:108E80007F387E4AFDFC900D30E0F9F8126B8CEBD8
:108E900025E025E02454F582E4340DF583126BD9E6
:108EA0000B80C0E4FBEBC394035041E4FFFE7D80E4
:108EB0007C3FEB25E025E0243FF582E4340DF5838B
:108EC000126BD9E4FFFEFDFC74302BF582E4340D07
:108ED000F583E0F9F8126B8CEB25E025E02433F5FF
:108EE00082E4340DF583126BD90B80B9E4FFFEFDEB
:108EF000FC900D85126BD9E4900D89F0A3F0A3F0DE
:108F0000A3F0FFFEFDFC900D5C126BD9E4FFFEFDAB
:108F1000FC900D60126BD9E4900D68F0FF7E04FDAB
:108F2000FCA3126BD9E4FF7E04FDFC900D6D126B67
:108F3000D9900D64E4F0A37464F0A3E4F0A3746426
:108F4000F0900D71F0A37416F0900D99E4F0A374F5
:108F500096F0A37404F0A3E4F0900D74F07F587EB3
:108F60001BFDFC900D30E0F9F8126B8C900D751222
:108F70006BD9E47F0AFEFDFC900D79126BD9E47F7A
:108F8000107E27FDFC900D7D126BD9E4900D81F0D1
:108F9000A3F0A3F0A304F07F9A7E997D997C3EA371
:108FA000126BD9900D897403F0A374E8F0A3E4F078
:108FB000A3744BF0E47F107E27FDFCA3126BD990C5
:108FC0000D54E0FCA3E0FDA3E0FEA3E0FF900D3014
