:1026000002B1A7008F828E83E0540100000070F8B1
:102610002278FFE4F6D8FD02B235900036EEF0A342
:10262000EFF078387C007D017BFF7A4C79247E08BE
:102630007F9912728A9008D17408F0A37499F07887
:10264000D87C087D017BFF7A5479BD7E007F0F1214
:10265000728A78E77C087D017BFF7A5479CC7E0012
:102660007F1C12728A78037C097D017BFF7A547982
:10267000E87E007F1C12728A781F7C097D017BFF37
:102680007A5579047E007F2212728A78417C097D16
:10269000017BFF7A5579267E007F1112728A78526B
:1026A0007C097D017BFF7A5579377E007F19127294
:1026B0008A786B7C097D017BFF7A5579507E007F9B
:1026C0001112728A787C7C097D017BFF7A557961D1
:1026D0007E007F1B12728A78977C097D017BFF7ACE
:1026E00055797C7E007F1C12728A78B37C097D014B
:1026F0007BFF7A5579987E007F1B12728A78CE7C98
:10270000097D017BFF7A5579B37E007F2512728A9D
:1027100078F37C097D017BFF7A5579D87E007F159F
:1027200012728A78087C0A7D017BFF7A5579ED7EEA
:10273000007F1512728A781D7C0A7D017BFF7A5614
:1027400079027E007F1412728A78317C0A7D017BC7
:10275000FF7A5679167E007F1912728A784A7C0AAF
:102760007D017BFF7A56792F7E007F1812728A785E
:10277000627C0A7D017BFF7A5679477E007F1D12BD
:10278000728A787F7C0A7D017BFF7A5679647E00AD
:102790007F1412728A78937C0A7D017BFF7A5679C6
:1027A000787E007F2812728A78BB7C0A7D017BFFCD
:1027B0007A5679A07E007F2312728A78DE7C0A7DA9
:1027C000017BFF7A5679C37E007F2412728A7802D9
:1027D0007C0B7D017BFF7A5679E77E007F231272A6
:1027E0008A78257C0B7D017BFF7A57790A7E007FF2
:1027F0002712728A784C7C0B7D017BFF7A577931E6
:102800007E007F2812728A78747C0B7D017BFF7AB0
:102810005779597E007F2C12728A78A07C0B7D013B
:102820007BFF7A5779857E007F2012728A78C07C80
:102830000B7D017BFF7A5779A57E007F2312728A78
:1028400078E37C0B7D017BFF7A5779C87E007F257A
:1028500012728A78087C0C7D017BFF7A5779ED7EB5
:10286000007F1212728A781A7C0C7D017BFF7A57E6
:1028700079FF7E007F1612728A78307C0C7D017B96
:10288000FF7A5879157E007F1F12728A784F7C0C70
:102890007D017BFF7A5879347E007F1512728A7829
:1028A000647C0C7D017BFF7A5879497E007F1D1284
:1028B000728A78817C0C7D017BFF7A5879667E0074
:1028C0007F1412728A78957C0C7D017BFF7A58798F
:1028D0007A7E007F6412728A78F97C0C7D017BFF1E
:1028E0007A5879DE7E007F1612728A780F7C0D7D11
:1028F000017BFF7A5879F47E007F2A12728A7B016D
:102900007A0879D812D4E58F2E7B017A0879E712FC
:10291000D4E58F2F7B017A09794112D4E58F307B82
:10292000017A09795212D4E58F317B017A09796BEA
:1029300012D4E58F327B017A09799712D4E58F336F
:102940007B017A0979B312D4E58F347B017A097956
:10295000F312D4E58F357B017A0A790812D4E58F1A
:10296000367B017A0A791D12D4E58F377B017A0A0A
:10297000793112D4E58F387B017A0C799512D4E540
:102980008F397B017A0D790F12D4E58F3A7B017A6A
:102990000A797F12D4E58F3B7B017A0A799312D4AE
:1029A000E58F3C7B017A0A79BB12D4E58F3D7B0130
:1029B0007A0B794C12D4E58F3E7B017A0B79741235
:1029C000D4E58F3F7B017A0B79A012D4E58F407B51
:1029D000017A0B79C012D4E58F417B017A0B79E340
:1029E00012D4E58F427B017A0C790812D4E58F432B
:1029F0007B017A0C791A12D4E58F447B017A0C7929
:102A00003012D4E58F457B017A0C79F912D4E58F29
:102A1000467B017A0C796412D4E58F477B017A0CEE
:102A2000798112D4E58F48900038740CF0A3742299
:102A3000F0900036E0FEA3E0FFEE6003023FE6EF19
:102A4000B423004003023FE6902A4FF8282873027F
:102A50002AB8023B31023B3A023B9E023BB1023BA9
:102A6000BA023BE5023C63023CA0023CA9023D7F66
:102A7000023E05023E0E023E2D023E56023E5F021F
:102A80003E68023E71023E7A023EAC023EEA023EDF
:102A9000FF023F16023F2D023F44023F59023F69A9
:102AA000023F79023F8E023FA3023FAC023FB502D4
:102AB0003FBE023FC7023FD790003A7402F0A31412
:102AC000F0900D43E090003CF0852E2CE52C603218
:102AD000FFC3E52E9FFFE49400FE74D82FF58274A7
:102AE000083EF583E0FFE52CFDE52EC39DFDE49453
:102AF00000FC743D2DF58274003CF583EFF0152C3D
:102B000080CA90006C7407F0A37403F0900D44E049
:102B1000FCA3E0FDA3E0FEA3E0FFEC126C70E4FB7D
:102B2000FA79807847126B5A90006E12712B900DD3
:102B300048E0FCA3E0FDA3E0FEA3E0FFEC126C7014
:102B4000E4FBFA79807847126B5A90007212712B6D
:102B5000900D4CE0FCA3E0FDA3E0FEA3E0FFEC122F
:102B60006C70E4FBFA79807847126B5A9000761209
:102B7000712B852F2CE52C6032FFC3E52F9FFFE4DE
:102B80009400FE74E72FF58274083EF583E0FFE5BC
:102B90002CFDE52FC39DFDE49400FC747A2DF58295
:102BA00074003CF583EFF0152C80CAE490009EF091
:102BB000A304F0900D50E09000A0F0900D50601C28
:102BC000900D3C74FFF0A3743FF0A374E7F07B0119
:102BD0007A09790312C853752D1C801A900D3C7424
:102BE000FFF0A3743FF0A374EDF07B017A09790341
:102BF00012C853752D1B852D2CE52C6032FFC3E5C3
:102C00002D9FFFE49400FE74032FF58274093EF5B6
:102C100083E0FFE52CFDE52DC39DFDE49400FC74ED
:102C2000A12DF58274003CF583EFF0152C80CA7459
:102C3000A1252DF582E43400F5837403F0E49000BF
:102C4000D0F0A304F0900D51E09000D2F0900D511F
:102C5000B407004003022D38902C5FF82828730237
:102C60002C74022C91022CAE022CCA022CE6022DEE
:102C700002022D1E900D3C74FFF0A3743FF0A3746C
:102C8000F2F07B017A09791F12C853752D14022DB9
:102C900038900D3C74FFF0A3743FF0A374F8F07B00
:102CA000017A09791F12C853752D17022D38900D1E
:102CB0003C74FFF0A37440F0A37401F07B017A0927
:102CC000791F12C853752D21806E900D3C74FFF052
:102CD000A37440F0A37414F07B017A09791F12C821
:102CE00053752D1D8052900D3C74FFF0A37440F07D
:102CF000A37423F07B017A09791F12C853752D192B
:102D00008036900D3C74FFF0A37440F0A3742EF055
:102D10007B017A09791F12C853752D22801A900DF4
:102D20003C74FFF0A37440F0A37442F07B017A0975
:102D3000791F12C853752D19852D2CE52C6032FF93
:102D4000C3E52D9FFFE49400FE741F2FF5827409E4
:102D50003EF583E0FFE52CFDE52DC39DFDE49400E9
:102D6000FC74D32DF58274003CF583EFF0152C80B4
:102D7000CA74D3252DF582E43400F5837401F090F4
:102D8000010204F0A304F0E4F52CE52CC3940350F5
:102D90001E7452252CF582E4340DF583E0FF740493
:102DA000252CF582E43401F583EFF0052C80DB85DA
:102DB000302CE52C6032FFC3E5309FFFE49400FE29
:102DC00074412FF58274093EF583E0FFE52CFDE5A3
:102DD00030C39DFDE49400FC74072DF58274013C22
:102DE000F583EFF0152C80CA9001347403F0A3F042
:102DF000E4F52CE52CC394035044E52C25E025E0B4
:102E00002455F582E4340DF583E0FCA3E0FDA3E056
:102E1000FEA3E0FF7452252CF582E4340DF583E027
:102E2000F9F81270CA75F002E52CA42436F582E593
:102E3000F03401F583EEF0A3EFF0052C80B5853179
:102E40002CE52C6032FFC3E5319FFFE49400FE7453
:102E5000522FF58274093EF583E0FFE52CFDE53144
:102E6000C39DFDE49400FC743C2DF58274013CF597
:102E700083EFF0152C80CA9001667407F0A37403E9
:102E8000F0E4F52CE52CC394035031E52C25E02526
:102E9000E02461F582E4340DF583E0FCA3E0FDA3BA
:102EA000E0FEA3E0FF75F004E52CA42468F582E5BC
:102EB000F03401F58312712B052C80C885322CE586
:102EC0002C6032FFC3E5329FFFE49400FE746B2F49
:102ED000F58274093EF583E0FFE52CFDE532C39DE4
:102EE000FDE49400FC74742DF58274013CF583EFCD
:102EF000F0152C80CAE4900198F0A304F0900D6DB9
:102F0000E090019AF0900D6D601C900D3C74FFF004
:102F1000A3743FF0A374E7F07B017A09797C12C8AF
:102F200053752D1B801A900D3C74FFF0A3743FF075
:102F3000A374EDF07B017A09797C12C853752D1AC0
:102F4000852D2CE52C6032FFC3E52D9FFFE4940016
:102F5000FE747C2FF58274093EF583E0FFE52CFDBD
:102F6000E52DC39DFDE49400FC749B2DF582740156
:102F70003CF583EFF0152C80CA749B252DF582E477
:102F80003401F5837403F09001CA7405F0A3740250
:102F9000F0E4F52CE52CC39401400302301FE52C2E
:102FA00025E025E0246EF582E4340DF583E0FCA3F2
:102FB000E0FDA3E0FEA3E0FF7452252CF582E4348B
:102FC0000DF583E0F9F81270CA75F008E52CA42419
:102FD000CCF582E5F03401F58312712BE52C25E068
:102FE00025E02476F582E4340DF583E0FCA3E0FDD2
:102FF000A3E0FEA3E0FF7452252CF582E4340DF526
:1030000083E0F9F81270CA75F008E52CA424D0F515
:1030100082E5F03401F58312712B052C022F948583
:10302000332CE52C6032FFC3E5339FFFE49400FEB0
:1030300074972FF58274093EF583E0FFE52CFDE5DA
:1030400033C39DFDE49400FC74D42DF58274013CDF
:10305000F583EFF0152C80CA9001FC7405F0A37481
:1030600002F0900D82E0FCA3E0FDA3E0FEA3E0FFF0
:103070009001FE12712B900D7EE0FCA3E0FDA3E019
:10308000FEA3E0FF90020212712B85342CE52C6028
:1030900032FFC3E5349FFFE49400FE74B32FF58242
:1030A00074093EF583E0FFE52CFDE534C39DFDE4A6
:1030B0009400FC74062DF58274023CF583EFF01544
:1030C0002C80CAE490022EF0A304F0900D8AE090C8
:1030D0000230F0900D8A601C900D3C74FFF0A374D8
:1030E0003FF0A374E7F07B017A0979CE12C85375DB
:1030F0002D25801A900D3C74FFF0A3743FF0A3744B
:10310000EDF07B017A0979CE12C853752D24852DF7
:103110002CE52C6032FFC3E52D9FFFE49400FE7484
:10312000CE2FF58274093EF583E0FFE52CFDE52DF9
:10313000C39DFDE49400FC74312DF58274023CF5CE
:1031400083EFF0152C80CA7431252DF582E434020A
:10315000F5837403F090026004F0A37402F0900D04
:1031600086E0FFA3E0900262CFF0A3EFF0900D881D
:10317000E0FFA3E0900264CFF0A3EFF085352CE5EB
:103180002C6032FFC3E5359FFFE49400FE74F32FFB
:10319000F58274093EF583E0FFE52CFDE535C39D1E
:1031A000FDE49400FC74662DF58274023CF583EF17
:1031B000F0152C80CA9002927406F0A37402F0906D
:1031C0000D8BE0FCA3E0FDA3E0FEA3E0FF900294E2
:1031D00012712B900D8FE0FCA3E0FDA3E0FEA3E0B5
:1031E000FF90029812712B85362CE52C6032FFC3BC
:1031F000E5369FFFE49400FE74082FF582740A3EC2
:10320000F583E0FFE52CFDE536C39DFDE49400FC6D
:10321000749C2DF58274023CF583EFF0152C80CA66
:103220009002C47402F0A314F0900D93E09002C6D3
:10323000F085372CE52C6032FFC3E5379FFFE4941F
:1032400000FE741D2FF582740A3EF583E0FFE52C25
:10325000FDE537C39DFDE49400FC74C72DF5827431
:10326000023CF583EFF0152C80CA9002F67401F051
:10327000A3F0900D94E09002F8F085382CE52C60D6
:1032800032FFC3E5389FFFE49400FE74312FF582CE
:10329000740A3EF583E0FFE52CFDE538C39DFDE4AF
:1032A0009400FC74F92DF58274023CF583EFF0155F
:1032B0002C80CAE4900328F0A304F0900D95E090D0
:1032C000032AF0900D95601C900D3C74FFF0A374E0
:1032D0003FF0A374E7F07B017A0A794A12C853756C
:1032E0002D18801A900D3C74FFF0A3743FF0A37466
:1032F000EDF07B017A0A794A12C853752D17852D96
:103300002CE52C6032FFC3E52D9FFFE49400FE7492
:103310004A2FF582740A3EF583E0FFE52CFDE52D8A
:10332000C39DFDE49400FC742B2DF58274033CF5E1
:1033300083EFF0152C80CA742B252DF582E434031D
:10334000F5837403F0E490035AF0A304F0900D9811
:10335000E090035CF0900D98601C900D3C74FFF0C1
:10336000A3743FF0A374E7F07B017A0A796212C874
:1033700053752D1D801A900D3C74FFF0A3743FF01F
:10338000A374EDF07B017A0A796212C853752D1C83
:10339000852D2CE52C6032FFC3E52D9FFFE49400C2
:1033A000FE74622FF582740A3EF583E0FFE52CFD82
:1033B000E52DC39DFDE49400FC745D2DF58274033E
:1033C0003CF583EFF0152C80CA745D252DF582E461
:1033D0003403F5837403F090038C7405F0A3740137
:1033E000F0900D99E0FCA3E0FDA3E0FEA3E0FF90C8
:1033F0000D52E0F9F81270CA90038E12712B853BC2
:103400002CE52C6032FFC3E53B9FFFE49400FE7483
:103410007F2FF582740A3EF583E0FFE52CFDE53B46
:10342000C39DFDE49400FC74922DF58274033CF579
:1034300083EFF0152C80CA9003BE7405F0A37401CD
:10344000F0900D9DE0FCA3E0FDA3E0FEA3E0FF9063
:1034500003C012712B853C2CE52C6032FFC3E53C88
:103460009FFFE49400FE74932FF582740A3EF58367
:10347000E0FFE52CFDE53CC39DFDE49400FC74C435
:103480002DF58274033CF583EFF0152C80CA900370
:10349000F07405F0A37401F0900DA1E0FCA3E0FD31
:1034A000A3E0FEA3E0FF9003F212712B853D2CE513
:1034B0002C6032FFC3E53D9FFFE49400FE74BB2FF8
:1034C000F582740A3EF583E0FFE52CFDE53DC39DE2
:1034D000FDE49400FC74F62DF58274033CF583EF53
:1034E000F0152C80CAE4900422F0A304F0900DA7FC
:1034F000E0900424F0900DA7601C900D3C74FFF048
:10350000A3743FF0A374E7F07B017A0A79DE12C856
:1035100053752D24801A900D3C74FFF0A3743FF076
:10352000A374EDF07B017A0A79DE12C853752D235E
:10353000852D2CE52C6032FFC3E52D9FFFE4940020
:10354000FE74DE2FF582740A3EF583E0FFE52CFD64
:10355000E52DC39DFDE49400FC74252DF5827404D3
:103560003CF583EFF0152C80CA7425252DF582E4F7
:103570003404F5837403F0E4900454F0A304F09051
:103580000DA5E0900456F0900DA5601C900D3C74C4
:10359000FFF0A3743FF0A374E7F07B017A0B79028C
:1035A00012C853752D23801A900D3C74FFF0A3743C
:1035B0003FF0A374EDF07B017A0B790212C85375CA
:1035C0002D22852D2CE52C6032FFC3E52D9FFFE4D5
:1035D0009400FE74022FF582740B3EF583E0FFE544
:1035E0002CFDE52DC39DFDE49400FC74572DF58260
:1035F00074043CF583EFF0152C80CA7457252DF523
:1036000082E43404F5837403F0E4900486F0A304A8
:10361000F0900DA6E0900488F0900DA6601C900D2F
:103620003C74FFF0A3743FF0A374E7F07B017A0BC6
:10363000792512C853752D27801A900D3C74FFF020
:10364000A3743FF0A374EDF07B017A0B792512C8C7
:1036500053752D26852D2CE52C6032FFC3E52D9F5B
:10366000FFE49400FE74252FF582740B3EF583E091
:10367000FFE52CFDE52DC39DFDE49400FC74892D30
:10368000F58274043CF583EFF0152C80CA7489250B
:103690002DF582E43404F5837403F09004B87407C4
:1036A000F0A37401F0900DA8E0FCA3E0FDA3E0FE00
:1036B000A3E0FF9004BA12712B853E2CE52C6032FA
:1036C000FFC3E53E9FFFE49400FE744C2FF5827427
:1036D0000B3EF583E0FFE52CFDE53EC39DFDE49444
:1036E00000FC74BE2DF58274043CF583EFF0152CBC
:1036F00080CA9004EA7403F0A37401F0900DACE06A
:10370000FFA3E09004ECCFF0A3EFF0853F2CE52C75
:103710006032FFC3E53F9FFFE49400FE74742FF511
:1037200082740B3EF583E0FFE52CFDE53FC39DFD74
:10373000E49400FC74EE2DF58274043CF583EFF004
:10374000152C80CA90051C7403F0A37401F0900D31
:10375000AEE0FFA3E090051ECFF0A3EFF085402C74
:10376000E52C6032FFC3E5409FFFE49400FE74A0A7
:103770002FF582740B3EF583E0FFE52CFDE540C399
:103780009DFDE49400FC74202DF58274053CF583C6
:10379000EFF0152C80CA90054E7405F0A37401F06B
:1037A000900DB0E0FCA3E0FDA3E0FEA3E0FF9005D8
:1037B0005012712B85412CE52C6032FFC3E5419FEF
:1037C000FFE49400FE74C02FF582740B3EF583E095
:1037D000FFE52CFDE541C39DFDE49400FC74542DF0
:1037E000F58274053CF583EFF0152C80CA900580B6
:1037F0007405F0A37401F0900DB4E0FCA3E0FDA308
:10380000E0FEA3E0FF90058212712B85422CE52C8F
:103810006032FFC3E5429FFFE49400FE74E32FF59E
:1038200082740B3EF583E0FFE52CFDE542C39DFD70
:10383000E49400FC74862DF58274053CF583EFF06A
:10384000152C80CA9005B27402F0A314F0900DB844
:10385000E09005B4F085432CE52C6032FFC3E543CE
:103860009FFFE49400FE74082FF582740C3EF583EC
:10387000E0FFE52CFDE543C39DFDE49400FC74B539
:103880002DF58274053CF583EFF0152C80CA900568
:10389000E47402F0A314F0900DB9E09005E6F08511
:1038A000442CE52C6032FFC3E5449FFFE49400FE06
:1038B000741A2FF582740C3EF583E0FFE52CFDE5CC
:1038C00044C39DFDE49400FC74E72DF58274053C2F
:1038D000F583EFF0152C80CA9006167402F0A3143D
:1038E000F0900DBAE0900618F085452CE52C60327A
:1038F000FFC3E5459FFFE49400FE74302FF582740A
:103900000C3EF583E0FFE52CFDE545C39DFDE49409
:1039100000FC74192DF58274063CF583EFF0152C2C
:1039200080CAE4900648F0A304F0900DBBE0900636
:103930004AF0900DBB601C900D3C74FFF0A37440E6
:10394000F0A3744DF07B017A0C794F12C853752D9A
:1039500014801A900D3C74FFF0A37440F0A37454CB
:10396000F07B017A0C794F12C853752D15852D2CDB
:10397000E52C6032FFC3E52D9FFFE49400FE744FF9
:103980002FF582740C3EF583E0FFE52CFDE52DC399
:103990009DFDE49400FC744B2DF58274063CF58388
:1039A000EFF0152C80CA744B252DF582E43406F512
:1039B000837402F090067A7404F0A37401F0900D01
:1039C000BCE0FFA3E090067CCFF0A3EFF085472C8E
:1039D000E52C6032FFC3E5479FFFE49400FE74646A
:1039E0002FF582740C3EF583E0FFE52CFDE547C31F
:1039F0009DFDE49400FC747E2DF58274063CF583F5
:103A0000EFF0152C80CA9006AC7404F0A37401F09A
:103A1000900DBEE0FFA3E09006AECFF0A3EFF085DF
:103A2000482CE52C6032FFC3E5489FFFE49400FE7C
:103A300074812FF582740C3EF583E0FFE52CFDE5E3
:103A400048C39DFDE49400FC74B02DF58274063CDF
:103A5000F583EFF0152C80CA85392CE52C6032FFF8
:103A6000C3E5399FFFE49400FE74952FF582740C32
:103A70003EF583E0FFE52CFDE539C39DFDE49400B0
:103A8000FC74DE2DF58274063CF583EFF0152C8076
:103A9000CA85462CE52C6032FFC3E5469FFFE494BF
:103AA00000FE74F92FF582740C3EF583E0FFE52CDF
:103AB000FDE546C39DFDE49400FC74742DF582740D
:103AC000073CF583EFF0152C80CA853A2CE52C6075
:103AD00032FFC3E53A9FFFE49400FE740F2FF58296
:103AE000740D3EF583E0FFE52CFDE53AC39DFDE452
:103AF0009400FC740A2DF58274083CF583EFF015F0
:103B00002C80CA7B017A0079389008D1E0A3E014B8
:103B1000FD12D0D69008D1E0FCA3E0FD2437F58259
:103B200074003CF583EFF07B017A00793812BE71A6
:103B300022900EB9E0900DDFF022E4FFFE7D807C44
:103B400047900EB9E0F8A3E0F9A3E0FAA3E0FB1276
:103B50006A51126CAE900DE012712BE4FFFE7D8075
:103B60007C47900EBDE0F8A3E0F9A3E0FAA3E0FBE8
:103B7000126A51126CAE900DE412712BE4FFFE7DBF
:103B8000807C47900EC1E0F8A3E0F9A3E0FAA3E03F
:103B9000FB126A51126CAE900DE812712B22900E3E
:103BA000B9E06007900DEC7403F022E4900DECF0A6
:103BB00022900EB9E0900DEDF022E4F52CE52CC337
:103BC00094034003023FE674B9252CF582E4340ED9
:103BD000F583E0FF74EE252CF582E4340DF583EFD8
:103BE000F0052C80D8E4F52CE52CC394035071E546
:103BF0002C25E024B9F582E4340EF583E0FEA3E041
:103C0000FFEE3395E0FDFCE52C25E025E024F1F501
:103C100082E4340DF58312712BE52C25E025E02498
:103C2000F1F582E4340DF583C083C082E0FCA3E0AB
:103C3000FDA3E0FEA3E0FF74EE252CF582E4340D35
:103C4000F583E0F9F81270DED082D08312712B7404
:103C500081252CF582E4340FF583E4F0052C80886F
:103C6000D20A22E4F52CE52CC394034003023FE67C
:103C7000E52C25E025E024B9F582E4340EF583E057
:103C8000FCA3E0FDA3E0FEA3E0FFE52C25E025E09A
:103C900024FDF582E4340DF58312712B052C80C6CA
:103CA000900EB9E0900E09F022E4F52CE52CC394B7
:103CB000024003023FE6E52C75F008A424B9F58222
:103CC000E4340EF583E0FCA3E0FDA3E0FEA3E0FFF7
:103CD000E52C25E025E0240AF582E4340EF5831274
:103CE000712BE52C75F008A424BDF582E4340EF5A3
:103CF00083E0FCA3E0FDA3E0FEA3E0FFE52C25E0CC
:103D000025E02412F582E4340EF58312712BE52CA4
:103D100025E025E0240AF582E4340EF583C083C053
:103D200082E0FCA3E0FDA3E0FEA3E0FF74EE252CFF
:103D3000F582E4340DF583E0F9F81270DED082D01C
:103D40008312712BE52C25E025E02412F582E43462
:103D50000EF583C083C082E0FCA3E0FDA3E0FEA3D8
:103D6000E0FF74EE252CF582E4340DF583E0F9F8DC
:103D70001270DED082D08312712B052C023CAC90E5
:103D80000EB9E0FCA3E0FDA3E0FEA3E0FF9008D3A2
:103D900012712BE4FFFEFDFC9008D3E0F8A3E0F9DC
:103DA000A3E0FAA3E0FBD312709050149008D3E084
:103DB000FCA3E0FDA3E0FEA3E0FF900E1E12712B1A
:103DC000900EBDE0FCA3E0FDA3E0FEA3E0FF9008A1
:103DD000D312712BE4FFFEFDFC9008D3E0F8A3E0C2
:103DE000F9A3E0FAA3E0FBC31270905003023FE690
:103DF0009008D3E0FCA3E0FDA3E0FEA3E0FF900E5B
:103E00001A12712B22900EB9E0900E26F022900E1D
:103E1000B9E0FFA3E0900E22CFF0A3EFF0900EBB2D
:103E2000E0FFA3E0900E24CFF0A3EFF022900EB9B4
:103E3000E0FCA3E0FDA3E0FEA3E0FF900E271271DB
:103E40002B900EBDE0FCA3E0FDA3E0FEA3E0FF90FD
:103E50000E2B12712B22900EB9E0900E2FF02290B3
:103E60000EB9E0900E30F022900EB9E0900E31F0D5
:103E700022900EB9E0900E34F022900EB9E0FCA32F
:103E8000E0FDA3E0FEA3E0FF900E3512712B900E33
:103E900035E0FCA3E0FDA3E0FEA3E0FF900DEEE023
:103EA000F9F81270DE900E3512712B22900EB9E0E7
:103EB000FCA3E0FDA3E0FEA3E0FF900E3912712BFE
:103EC000E47F0AFEFDFC900E39E0F8A3E0F9A3E0E0
:103ED000FAA3E0FBC31270904003023FE6E47F0ABE
:103EE000FEFDFC900E3912712B22900EB9E0FCA35E
:103EF000E0FDA3E0FEA3E0FF900E3D12712B2290A7
:103F00000EB9E09008D7F06007900E437401F022DC
:103F1000E4900E43F022900EB9E09008D7F06007CD
:103F2000900E417401F022E4900E41F022900EB9FF
:103F3000E09008D7F06007900E427401F022E49000
:103F40000E42F022900EB9E0FCA3E0FDA3E0FEA338
:103F5000E0FF900E4412712B22900EB9E0FFA3E017
:103F6000900E48CFF0A3EFF022900EB9E0FFA3E04F
:103F7000900E4ACFF0A3EFF022900EB9E0FCA3E040
:103F8000FDA3E0FEA3E0FF900E4C12712B22900ED9
:103F9000B9E0FCA3E0FDA3E0FEA3E0FF900E501209
:103FA000712B22900EB9E0900E54F022900EB9E0E1
:103FB000900E55F022900EB9E0900E56F022900E21
:103FC000B9E0900E57F022900EB9E0FFA3E0900EFA
:103FD00058CFF0A3EFF022900EB9E0FFA3E0900ECF
:103FE0005ACFF0A3EFF022205945530000204E4F46
:103FF00000002055736200002048616E646C65000B
:104000000020454D472070726F706F7274696F6E3B
:10401000616C000020454D4720696E7465677261D0
:104020006C000020454D4720464346530000204584
:104030004D47204643465320416476616E63656474
:104040000000204A6F79737469636B0000204C652F
:10405000667400002052696768740000000D0A0051
:104060004669726D776172652076657273696F6EED
:104070003A200053482D50524F2076362E32202DB4
:10408000204D617374657220772F48617074696385
:1040900020466565646261636B206D616E61676572
:1040A0006D656E74002E0D0A0D0A00444556494395
:1040B0004520494E464F0D0A0049443A2025640DDB
:1040C0000A0050574D2072657363616C696E6720FA
:1040D00061637469766174696F6E3A200059455363
:1040E0000A004E4F0A0050574D204C696D69743AD2
:1040F0002025640D0A004D4F544F5220494E464F23
:104100000D0A004D6F746F72207265666572656E80
:104110006365004D6F746F7220656E61626C6564DB
:104120003A20005945530D0A004E4F0D0A000D0A62
:104130004D4541535552454D454E545320494E46E9
:104140004F0D0A0053656E736F722076616C756552
:104150003A0D0A002564202D3E202564004261743A
:104160007465727920566F6C7461676520286D568E
:10417000293A20256C640046756C6C206368617276
:10418000676520706F7765722074656E73696F6EF6
:1041900020286D56293A20256C64000D0A444556A6
:1041A00049434520504152414D45544552530D0A13
:1041B0000050494420436F6E74726F6C6C65723AA4
:1041C0000D0A0050202D3E20256620200049202D7C
:1041D0003E20256620200044202D3E2025660D0A25
:1041E00000537461727475702061637469766174D0
:1041F000696F6E3A205945530D0A00537461727409
:1042000075702061637469766174696F6E3A204ECF
:104210004F0D0A00496E707574206D6F64653A2009
:104220005553420D0A00496E707574206D6F6465B8
:104230003A2048616E646C650D0A00496E707574B1
:10424000206D6F64653A20454D472070726F706F26
:104250007274696F6E616C0D0A00496E707574201E
:104260006D6F64653A20454D4720696E74656772CD
:10427000616C0D0A00496E707574206D6F64653A4B
:1042800020454D4720464346530D0A00496E707540
:1042900074206D6F64653A20454D47204643465370
:1042A000204144560D0A00496E707574206D6F648C
:1042B000653A204A6F79737469636B0D0A004D6F1C
:1042C000746F722D48616E646C6520526174696F01
:1042D0003A2025640D0A0053656E736F7220726573
:1042E000736F6C7574696F6E3A0D0A004D6561737A
:1042F0007572656D656E74204F66667365743A0DF0
:104300000A002564202D3E20256C64004D656173F4
:104310007572656D656E74204D756C7469706C692D
:1043200065723A0D0A002564202D3E202566005056
:104330006F736974696F6E206C696D697420616355
:10434000746976653A20256400506F736974696FEB
:104350006E206C696D6974206D6F746F72202564B6
:104360003A20696E66202D3E20256C642020007363
:104370007570202D3E20256C640D0A004D6178205B
:104380007374657020706F7320616E64206E656752
:104390003A202564202564004A6F79737469636B41
:1043A00020636C6F737572652073706565643A2065
:1043B0002564004A6F79737469636B206761696E65
:1043C0003A2025687500454D47207468726573680A
:1043D0006F6C6473205B30202D20313032345D3AB5
:1043E0002025752C20257500454D47206D617820CE
:1043F00076616C756573205B30202D203430393642
:104400005D3A20256C752C20256C750043616C6924
:1044100062726174696F6E20656E61626C65643A88
:10442000205945530D0A0043616C696272617469D9
:104430006F6E20656E61626C65643A204E4F0D0AA6
:1044400000454D47206D61782073706565643A20A2
:10445000256400526573742074696D652064656C11
:10446000617920286D73293A2025640052657374A0
:104470002076656C6F6369747920636C6F737572F5
:104480006520287469636B732F736563293A20254F
:1044900064005265737420706F736974696F6E3A4B
:1044A000202564004D796F656C65637472696320C3
:1044B000636173652032204D61737465723A2059CF
:1044C00045530D0A004D796F656C656374726963BD
:1044D00020636173652032204D61737465723A20E8
:1044E0004E4F0D0A004D61737465722077697468D0
:1044F00020466F726365206465766963653A20596A
:1045000045530D0A004D61737465722077697468B4
:1045100020466F726365206465766963653A204E54
:104520004F0D0A004D6173746572207769746820BD
:1045300050726F7072696F6365707469766520641C
:1045400065766963653A205945530D0A004D6173DC
:1045500074657220776974682050726F7072696F29
:1045600063657074697665206465766963653A2071
:104570004E4F0D0A0064656275673A20256C640031
:10458000000000000000000000000000000000002B
:10459000000000000000000000000000000000001B
:1045A000000000000000000000000000000000000B
:1045B00000000000000000000000000000000000FB
:1054B0000000000000000000000000000031202D6E
:1054C000204465766963652049443A0032202D20E6
:1054D000506F736974696F6E20504944205B502C83
:1054E00020492C20445D3A0033202D2053746172F2
:1054F0007475702041637469766174696F6E3A00E7
:105500000000000034202D20496E707574206D6FEE
:1055100064653A0000000000000000000000000088
:1055200000000000000035202D205265736F6C755F
:1055300074696F6E733A0036202D204D6561737566
:1055400072656D656E74204F6666736574733A009C
:1055500037202D204D756C7469706C696572733AD3
:105560000038202D20506F732E206C696D697420D7
:105570006163746976653A000000000039202D20CF
:10558000506F732E206C696D697473205B696E6651
:105590002C207375705D3A003130202D204D6178DC
:1055A000207374657073205B6E65672C20706F7359
:1055B0005D3A003131202D20454D472063616C69F3
:1055C00062726174696F6E206F6E207374617274A1
:1055D00075703A00000000003132202D20454D4703
:1055E000207468726573686F6C64733A003133209D
:1055F0002D20454D47206D61782076616C7565736F
:105600003A003134202D20454D47206D61782073BC
:10561000706565643A003135202D204D6F746F72CE
:105620002068616E646C6520726174696F3A003144
:1056300036202D2050574D2072657363616C696E62
:10564000673A00000000003137202D205265737446
:1056500020706F736974696F6E20666C61673A00C1
:10566000000000003138202D205265737420706FC7
:10567000736974696F6E3A003139202D2052657359
:105680007420706F736974696F6E2074696D652022
:1056900064656C617920283E3130206D73293A00B1
:1056A0003230202D20526573742076656C20636C37
:1056B0006F7375726520287469636B732F736563EC
:1056C000293A003231202D204D796F656C65637465
:1056D00072696320636173652032204D6173746564
:1056E000723A00000000003232202D204D617374A8
:1056F0006572207769746820466F726365206465FF
:10570000766963653A00000000003233202D204D99
:10571000617374657220776974682050726F70725B
:10572000696F632E206465766963653A0000000046
:10573000003234202D2043757272656E74207072B1
:105740006F706F7274696F6E616C206761696E2033
:1057500028666F726365293A003235202D20437523
:105760007272656E7420646966666572656E6365E3
:105770002073617475726174696F6E2028666F7230
:105780006365293A003236202D2043757272656EAA
:10579000742064656164207A6F6E652028666F727C
:1057A0006365293A003237202D204D617820736CD3
:1057B000696465206D6F76656D656E742028707202
:1057C0006F7072696F293A003238202D204D617850
:1057D00020536F667448616E6420636C6F737572DA
:1057E00065202870726F7072696F293A0032392013
:1057F0002D20536F667448616E642049443A00332B
:1058000030202D20466F726365206465766963657C
:105810002049443A003331202D2050726F70726954
:105820006F63657074697665206465766963652069
:1058300049443A003332202D2041726D207369644F
:10584000653A000000000000003333202D204A6F2D
:1058500079737469636B20636C6F73757265207301
:10586000706565643A003334202D204A6F79737473
:1058700069636B206761696E3A0030202D3E2055C8
:1058800073620A31202D3E2048616E646C650A32D5
:10589000202D3E20454D472070726F702E0A332018
:1058A0002D3E20454D4720496E7465672E0A3420F1
:1058B0002D3E20454D4720464346530A35202D3E78
:1058C00020454D472046434653204164762E0A36F4
:1058D000202D3E204A6F79737469636B0A00302073
:1058E0002D3E2052696768740A31202D3E204C6598
:1058F00066740A0030202D3E204465616374697629
:10590000617465205B4E4F5D0A31202D3E2041635E
:10591000746976617465205B5945535D0A00900691
:10592000DCEBF0A3EAF0A3E9F0900D43E064FA7039
:10593000030269589006DCE0FBA3E0FAA3E0F8ACB0
:1059400002AD037BFF7A40795C127368900D3C7462
:10595000FFF0A37440F0A3745DF09006DCE0FBA3BD
:10596000E0FAA3E0F912C853900D3C74FFF0A37461
:1059700040F0A37460F09006DCE0FBA3E0FAA3E043
:10598000F912C853900D3C74FFF0A37440F0A37457
:1059900073F09006DCE0FBA3E0FAA3E0F912C85331
:1059A000900D3C74FFF0A37440F0A374A5F0900632
:1059B000DCE0FBA3E0FAA3E0F912C853900D3C74BD
:1059C000FFF0A37440F0A374ABF09006DCE0FBA3FF
:1059D000E0FAA3E0F912C85390074874FFF0A374EB
:1059E00040F0A374B9F0900D43E0FF90074BE4F052
:1059F000A3EFF07B017A0679E11295E1900D3C74FA
:105A000001F0A37406F0A374E1F09006DCE0FBA3C0
:105A1000E0FAA3E0F912C853900D3C74FFF0A374B0
:105A200040F0A374C2F09006DCE0FBA3E0FAA3E030
:105A3000F912C853900D95E0B4011E900D3C74FF0F
:105A4000F0A37440F0A374DDF09006DCE0FBA3E06B
:105A5000FAA3E0F912C853801C900D3C74FFF0A328
:105A60007440F0A374E2F09006DCE0FBA3E0FAA33C
:105A7000E0F912C85390074874FFF0A37440F0A3F4
:105A800074E6F0900FA9E0FF90074BE4F0A3EFF06D
:105A90007B017A0679E11295E1900D3C7401F0A347
:105AA0007406F0A374E1F09006DCE0FBA3E0FAA337
:105AB000E0F912C853900D3C74FFF0A37440F0A3BA
:105AC000745DF09006DCE0FBA3E0FAA3E0F912C8F5
:105AD00053900D3C74FFF0A37440F0A374F6F09063
:105AE00006DCE0FBA3E0FAA3E0F912C853900D3CFA
:105AF00074FFF0A37441F0A37403F09006DCE0FBA4
:105B0000A3E0FAA3E0F912C853900D3C74FFF0A390
:105B10007440F0A3745DF09006DCE0FBA3E0FAA310
:105B2000E0F912C853900D3C74FFF0A37440F0A349
:105B3000745DF09006DCE0FBA3E0FAA3E0F912C884
:105B40005390074874FFF0A37441F0A37413F07BE3
:105B5000017A0679E11295E1900DDDE054036019B8
:105B6000900D3C74FFF0A37441F0A37423F07B010B
:105B70007A0679E112C8538017900D3C74FFF0A3A8
:105B80007441F0A37429F07B017A0679E112C853BD
:105B9000900D3C7401F0A37406F0A374E1F090063C
:105BA000DCE0FBA3E0FAA3E0F912C853900D3C74CB
:105BB000FFF0A37441F0A3742EF09006DCE0FBA389
:105BC000E0FAA3E0F912C853900D3C74FFF0A374FF
:105BD00041F0A37444F09006DCE0FBA3E0FAA3E0FC
:105BE000F912C853E49006DFF0A3F0C39006E0E09A
:105BF00094039006DFE0648094804003025CB190DF
:105C0000074874FFF0A37441F0A37454F09006DFCA
:105C1000E0FCA3E0FD2401FEE43C90074BF0A3CEA2
:105C2000F0EDAE047802C333CE33CED8F92475F547
:105C300082740F3EF583E0FCA3E0FDA3E0FEA3E049
:105C4000FF9006DFE0FAA3E02452F582740D3AF5E6
:105C500083E0F9F81270CA90074DEEF0A3EFF07BE5
:105C6000017A0679E11295E1900D3C7401F0A3747C
:105C700006F0A374E1F09006DCE0FBA3E0FAA3E0F9
:105C8000F912C853900D3C74FFF0A37440F0A37454
:105C90005DF09006DCE0FBA3E0FAA3E0F912C85344
:105CA0009006E0E004F070069006DFE004F0025B8E
:105CB000EB90074874FFF0A37441F0A3745DF0907B
:105CC0000E99E0FCA3E0FDA3E0FEA3E0FF90074BEC
:105CD00012712B7B017A0679E11295E1900D3C74EB
:105CE00001F0A37406F0A374E1F09006DCE0FBA3DE
:105CF000E0FAA3E0F912C853900D3C74FFF0A374CE
:105D000040F0A3745DF09006DCE0FBA3E0FAA3E0B2
:105D1000F912C85390074874FFF0A37441F0A374BC
:105D200077F0900F58E0FCA3E0FDA3E0FEA3E0FFB6
:105D300090074B12712B7B017A0679E11295E19065
:105D40000D3C7401F0A37406F0A374E1F09006DC3E
:105D5000E0FBA3E0FAA3E0F912C853900D3C74FFF6
:105D6000F0A37440F0A3745DF09006DCE0FBA3E0C8
:105D7000FAA3E0F912C853900D3C74FFF0A37441EC
:105D8000F0A3749BF09006DCE0FBA3E0FAA3E0F93B
:105D900012C853900D3C74FFF0A37441F0A374B18A
:105DA000F09006DCE0FBA3E0FAA3E0F912C8539000
:105DB000074874FFF0A37441F0A374C3F0900D443E
:105DC000E0FCA3E0FDA3E0FEA3E0FFEC126C70E4B6
:105DD000FBFA79807847126B5A90074B12712B7B34
:105DE000017A0679E11295E1900D3C7401F0A374FB
:105DF00006F0A374E1F09006DCE0FBA3E0FAA3E078
:105E0000F912C85390074874FFF0A37441F0A374CB
:105E1000CDF0900D48E0FCA3E0FDA3E0FEA3E0FF81
:105E2000EC126C70E4FBFA79807847126B5A900799
:105E30004B12712B7B017A0679E11295E1900D3CB2
:105E40007401F0A37406F0A374E1F09006DCE0FBAB
:105E5000A3E0FAA3E0F912C85390074874FFF0A337
:105E60007441F0A374D7F0900D4CE0FCA3E0FDA3C7
:105E7000E0FEA3E0FFEC126C70E4FBFA7980784757
:105E8000126B5A90074B12712B7B017A0679E11243
:105E900095E1900D3C7401F0A37406F0A374E1F059
:105EA0009006DCE0FBA3E0FAA3E0F912C853900DE2
:105EB0003C74FFF0A37440F0A3745DF09006DCE046
:105EC000FBA3E0FAA3E0F912C853900D50E0B4032D
:105ED0001E900D3C74FFF0A37441F0A374E1F090A8
:105EE00006DCE0FBA3E0FAA3E0F912C853801C90A3
:105EF0000D3C74FFF0A37441F0A374FBF09006DC3A
:105F0000E0FBA3E0FAA3E0F912C853900D51E0B40E
:105F100007004003026005905F1EF8282873025FA7
:105F200033025F52025F71025F8F025FAD025FCB8F
:105F3000025FE9900D3C74FFF0A37442F0A3741467
:105F4000F09006DCE0FBA3E0FAA3E0F912C85302EC
:105F50006005900D3C74FFF0A37442F0A37426F02A
:105F60009006DCE0FBA3E0FAA3E0F912C85302605C
:105F700005900D3C74FFF0A37442F0A3743BF090C5
:105F800006DCE0FBA3E0FAA3E0F912C853807690A8
:105F90000D3C74FFF0A37442F0A3745AF09006DC39
:105FA000E0FBA3E0FAA3E0F912C8538058900D3C3F
:105FB00074FFF0A37442F0A37475F09006DCE0FB6C
:105FC000A3E0FAA3E0F912C853803A900D3C74FFA5
:105FD000F0A37442F0A3748CF09006DCE0FBA3E025
:105FE000FAA3E0F912C853801C900D3C74FFF0A393
:105FF0007442F0A374A7F09006DCE0FBA3E0FAA3E0
:10600000E0F912C85390074874FFF0A37442F0A35C
:1060100074BEF0900D94E0FE3395E090074BF0A332
:10602000CEF07B017A0679E11295E1900D3C740186
:10603000F0A37406F0A374E1F09006DCE0FBA3E0AB
:10604000FAA3E0F912C853900D3C74FFF0A3744218
:10605000F0A374D7F09006DCE0FBA3E0FAA3E0F92C
:1060600012C853E49006DFF0A3F0C39006E0E0947A
:10607000039006DFE064809480400302610690078D
:106080004874FFF0A37441F0A37454F09006DFE06D
:10609000FCA3E0FD2401FEE43C90074BF0A3CEF00E
:1060A00074522DF582740D3CF583E0FF90074DE4AA
:1060B000F0A3EFF07B017A0679E11295E1900D3CB7
:1060C0007401F0A37406F0A374E1F09006DCE0FB29
:1060D000A3E0FAA3E0F912C853900D3C74FFF0A3BB
:1060E0007440F0A3745DF09006DCE0FBA3E0FAA33B
:1060F000E0F912C8539006E0E004F070069006DF65
:10610000E004F002606A900D3C74FFF0A37442F06A
:10611000A374ECF09006DCE0FBA3E0FAA3E0F91234
:10612000C853E49006DFF0A3F0C39006E0E09403C8
:106130009006DFE06480948040030261ED900748A0
:1061400074FFF0A37443F0A37402F09006DFE0FC48
:10615000A3E0FD2401FEE43C90074BF0A3CEF0ED5C
:10616000AE047802C333CE33CED8F92455F5827409
:106170000D3EF583E0FCA3E0FDA3E0FEA3E0FF906D
:1061800006DFE0FAA3E02452F582740D3AF583E0CD
:10619000F9F81270CA90074D12712B7B017A0679BB
:1061A000E11295E1900D3C7401F0A37406F0A37424
:1061B000E1F09006DCE0FBA3E0FAA3E0F912C8539B
:1061C000900D3C74FFF0A37440F0A3745DF0900652
:1061D000DCE0FBA3E0FAA3E0F912C8539006E0E08C
:1061E00004F070069006DFE004F0026129900D3C97
:1061F00074FFF0A37443F0A3740CF09006DCE0FB92
:10620000A3E0FAA3E0F912C853E49006DFF0A3F08C
:10621000C39006E0E094039006DFE0648094804041
:10622000030262BE90074874FFF0A37443F0A374A6
:1062300026F09006DFE0FCA3E0FD2401FEE43C90A4
:10624000074BF0A3CEF0EDAE047802C333CE33CECD
:10625000D8F92461F582740D3EF583E0FCA3E0FDDE
:10626000A3E0FEA3E0FF90074D12712B7B017A069D
:1062700079E11295E1900D3C7401F0A37406F0A34E
:1062800074E1F09006DCE0FBA3E0FAA3E0F912C8A9
:1062900053900D3C74FFF0A37440F0A3745DF09034
:1062A00006DCE0FBA3E0FAA3E0F912C8539006E095
:1062B000E004F070069006DFE004F0026210900740
:1062C0004874FFF0A37443F0A3742FF0900E09E01C
:1062D000FF90074BE4F0A3EFF07B017A0679E1121F
:1062E00095E1900D3C7401F0A37406F0A374E1F005
:1062F0009006DCE0FBA3E0FAA3E0F912C853900D8E
:106300003C74FFF0A37440F0A3745DF09006DCE0F1
:10631000FBA3E0FAA3E0F912C853E49006DFF0A370
:10632000F0C39006E0E094019006DFE06480948082
:10633000400302643990074874FFF0A37443F0A34C
:106340007449F09006DFE0FCA3E0FD2401FEE43C8C
:1063500090074BF0A3CEF0EDAE047802C333CE33FA
:10636000CED8F9240AF582740E3EF583E0FCA3E052
:10637000FDA3E0FEA3E0FF9006DFE0FAA3E024EE39
:10638000F582740D3AF583E0F9F81270CA90074D62
:1063900012712B7B017A0679E11295E1900D3C7424
:1063A00001F0A37406F0A374E1F09006DCE0FBA317
:1063B000E0FAA3E0F912C85390074874FFF0A37401
:1063C00043F0A3746FF09006DFE0FAA3E0FBAE02A7
:1063D0007802C333CE33CED8F92412F582740E3E40
:1063E000F583E0FCA3E0FDA3E0FEA3E0FF74EE2B49
:1063F000F582740D3AF583E0F9F81270CA90074BF4
:1064000012712B7B017A0679E11295E1900D3C74B3
:1064100001F0A37406F0A374E1F09006DCE0FBA3A6
:10642000E0FAA3E0F912C8539006E0E004F0700629
:106430009006DFE004F002632190074874FFF0A3A8
:106440007443F0A3747CF0900E1AE0A3E0A3E0FF85
:10645000A3E090074BCFF0A3EFF0900E1EE0A3E077
:10646000A3E0FFA3E090074DCFF0A3EFF07B017A0C
:106470000679E11295E1900D3C7401F0A37406F0E9
:10648000A374E1F09006DCE0FBA3E0FAA3E0F912CC
:10649000C853900D3C74FFF0A37440F0A3745DF0FA
:1064A0009006DCE0FBA3E0FAA3E0F912C8539007E2
:1064B0004874FFF0A37443F0A37498F0900DBCE00F
:1064C000FFA3E090074BCFF0A3EFF07B017A0679B2
:1064D000E11295E1900D3C7401F0A37406F0A374F1
:1064E000E1F09006DCE0FBA3E0FAA3E0F912C85368
:1064F000900D3C74FFF0A37440F0A3745DF090061F
:10650000DCE0FBA3E0FAA3E0F912C853900748745B
:10651000FFF0A37443F0A374B3F0900DBEE0FFA3AB
:10652000E090074BCFF0A3EFF07B017A0679E11200
:1065300095E1900D3C7401F0A37406F0A374E1F0B2
:106540009006DCE0FBA3E0FAA3E0F912C853900D3B
:106550003C74FFF0A37440F0A3745DF09006DCE09F
:10656000FBA3E0FAA3E0F912C85390074874FFF0C8
:10657000A37443F0A374C6F0900E22E0FFA3E09052
:10658000074BCFF0A3EFF0900E24E0FFA3E09007BD
:106590004DCFF0A3EFF07B017A0679E11295E190FF
:1065A0000D3C7401F0A37406F0A374E1F09006DCD6
:1065B000E0FBA3E0FAA3E0F912C853900D3C74FF8E
:1065C000F0A37440F0A3745DF09006DCE0FBA3E060
:1065D000FAA3E0F912C85390074874FFF0A374437C
:1065E000F0A374E8F0900E27E0FCA3E0FDA3E0FE2A
:1065F000A3E0FF90074B12712B900E2BE0FCA3E061
:10660000FDA3E0FEA3E0FF90074F12712B7B017A00
:106610000679E11295E1900D3C7401F0A37406F047
:10662000A374E1F09006DCE0FBA3E0FAA3E0F9122A
:10663000C853900D3C74FFF0A37440F0A3745DF058
:106640009006DCE0FBA3E0FAA3E0F912C853900E39
:1066500026E0601E900D3C74FFF0A37444F0A37418
:106660000CF09006DCE0FBA3E0FAA3E0F912C853BB
:10667000801C900D3C74FFF0A37444F0A37427F0C9
:106680009006DCE0FBA3E0FAA3E0F912C853900700
:106690004874FFF0A37444F0A37441F0900E2FE00F
:1066A000FF90074BE4F0A3EFF07B017A0679E1124B
:1066B00095E1900D3C7401F0A37406F0A374E1F031
:1066C0009006DCE0FBA3E0FAA3E0F912C853900DBA
:1066D0003C74FFF0A37440F0A3745DF09006DCE01E
:1066E000FBA3E0FAA3E0F912C85390074874FFF047
:1066F000A37444F0A37453F0900E39E0A3E0A3E038
:10670000FFA3E090074BCFF0A3EFF07B017A06796F
:10671000E11295E1900D3C7401F0A37406F0A374AE
:10672000E1F09006DCE0FBA3E0FAA3E0F912C85325
:10673000900D3C74FFF0A37440F0A3745DF09006DC
:10674000DCE0FBA3E0FAA3E0F912C8539007487419
:10675000FFF0A37444F0A3746CF0900E3DE0A3E04E
:10676000A3E0FFA3E090074BCFF0A3EFF07B017A0B
:106770000679E11295E1900D3C7401F0A37406F0E6
:10678000A374E1F09006DCE0FBA3E0FAA3E0F912C9
:10679000C853900D3C74FFF0A37440F0A3745DF0F7
:1067A0009006DCE0FBA3E0FAA3E0F912C8539007DF
:1067B0004874FFF0A37444F0A37492F0900E35E097
:1067C000FCA3E0FDA3E0FEA3E0FF900D52E0F9F88A
:1067D0001270CA90074BEEF0A3EFF07B017A0679B6
:1067E000E11295E1900D3C7401F0A37406F0A374DE
:1067F000E1F09006DCE0FBA3E0FAA3E0F912C85355
:10680000900D3C74FFF0A37440F0A3745DF090060B
:10681000DCE0FBA3E0FAA3E0F912C853900E43E0DA
:10682000601E900D3C74FFF0A37444F0A374A4F0B8
:106830009006DCE0FBA3E0FAA3E0F912C853801C49
:10684000900D3C74FFF0A37444F0A374C5F090065F
:10685000DCE0FBA3E0FAA3E0F912C853900E41E09C
:10686000601E900D3C74FFF0A37444F0A374E5F037
:106870009006DCE0FBA3E0FAA3E0F912C853801C09
:10688000900D3C74FFF0A37445F0A37405F09006DE
:10689000DCE0FBA3E0FAA3E0F912C853900E42E05B
:1068A000601E900D3C74FFF0A37445F0A37424F0B7
:1068B0009006DCE0FBA3E0FAA3E0F912C853801CC9
:1068C000900D3C74FFF0A37445F0A3744DF0900656
:1068D000DCE0FBA3E0FAA3E0F912C8539007487488
:1068E000FFF0A37445F0A37475F0900E95E0F8A343
:1068F000E0F9A3E0FAA3E0FB900F5CE0FCA3E0FD6D
:10690000A3E0FEA3E0C39BFFEE9AFEED99FDEC9899
:10691000FC90074B12712B7B017A0679E11295E10D
:10692000900D3C7401F0A37406F0A374E1F090069E
:10693000DCE0FBA3E0FAA3E0F912C853900D3C742D
:10694000FFF0A37440F0A3745DF09006DCE0FBA3BD
:10695000E0FAA3E0F912C85322026D1AE86480F845
:10696000E933E83360110460F0ED33EC337009E88B
:10697000FCE9FDEAFEEBFF220460DED3EB9FEA9E1A
:10698000E99DE8C2E78CF0C2F795F0400CE8CCF83E
:10699000E9CDF9EACEFAEBCFFB126CE585D0F058E1
:1069A00004700320D5B3E80470075002B2D5026D1D
:1069B0002492D5EC0460F7E4CCC0E0C398F8603BC7
:1069C00094186008400DD0E0FB026CFCE4FBFAC9AF
:1069D000FC8028E830E406E4C9FBE4CAFCE830E3C4
:1069E00005E4C9CACBFCE854076010F8C3E913F901
:1069F000EA13FAEB13FBEC13FCD8F130F52FC3E4E8
:106A00009CFCEF9BFFEE9AFEED99FDD0E0FBEF4E74
:106A10004D4C701222DB03026D21EC2CFCEF33FF96
:106A2000EE33FEED33FDED30E7EB026CFCEF2BFFB8
:106A3000EE3AFEED39FDD0E0FB50130BBB00030234
:106A40006D24ED13FDEE13FEEF13FFEC13FC026C4F
:106A5000FCEC4D6011E8497017ED33EC3304600D28
:106A6000E4FCFFFEFD22E933E8330470F8026D1AFE
:106A7000126CE558046009E4CC24815006285009C2
:106A8000026D24284003026D21C0E0EB4A7044B936
:106A90008006D0E0FB026D10EF4E701CBD8008EB4D
:106AA000FFEAFEE9FD80EBE98DF0A4FEE5F0026B64
:106AB0003AE9CDF9EAFEEBFFEF89F0A4FCE5F0CE70
:106AC00089F0A42EFFE435F0CD89F0A42DFEE43545
:106AD000F08067EF4E7005BD80D780C3EF8BF0A4C8
:106AE000ACF0EE8BF0A42CFCE435F0F8EF8AF0A4C7
:106AF0002CE5F038FCE433CB8DF0A42CFCE5F03B26
:106B0000F8EE8AF0A42CFCE5F038F8E433CF89F0F5
:106B1000A42CFCE5F038CF3400CE89F0A42FFFE59B
:106B2000F03EFEE433C98DF0A42EFEE5F039CD8AA7
:106B3000F0A42FFFE5F03EFEE43DFD33D0E0FB5036
:106B4000070BBB000F026D24EC2CFCEF33FFEE3380
:106B5000FEED33FD026CFC026D24EC5D046005E883
:106B600059047003026D1A126CE5580460F6EC4883
:106B700060F2EC7004FDFEFF22C860DB2481C85087
:106B800009C39860025006026D219850CAF582E947
:106B9000294B4A7005AB82026D1075F0007C1A78A3
:106BA00080C3EF9BEE9AED99400DC3EF9BFFEE9AE9
:106BB000FEED99FDE842F0DC23ACF0D0E0FFD0E040
:106BC000FED0E0FDAB8220E7101BEB60BAEC2CFCA2
:106BD000EF33FFEE33FEED33FD026CFCE803F830DB
:106BE000E705C0F075F000EF2FFFEE33FEED33FD4B
:106BF00040B830E7C280AA74F8CC6480CCC8648006
:106C0000C8F58204604FC3EB9FF5F0EA9E42F0E9BD
:106C10009D42F0E89C45F0603C501DE5825FFFE539
:106C200082D313CB5BCBF42B5582FB50280ABA00DE
:106C30002409B9002008801DE5825BFBE582D3139F
:106C4000CF5FCFF4C3132F5582FF50090EBE00054E
:106C50000DBD00010CC3EB9FF5F0EA9E42F0E99DEB
:106C600042F0E89C45F06007CC4820E701B3EC22F5
:106C700075F020800E75F010800575F0087D007E9F
:106C8000007F003392D530D503127082EC33401070
:106C9000EF33FFEE33FEED33FDEC33FCD5F0ED22A8
:106CA000E5F0247EA2D513CC92E7CDCEFF22EDD223
:106CB000E7CD33EC3392D524814006E4FFFEFDFCA2
:106CC00022FCE4CFCECDCC24E0501174FF80EDC384
:106CD000CC13CCCD13CDCE13CECF13CF0470F03068
:106CE000D5DE027082E9D2E7C933E833F892D5EDF8
:106CF000D2E7CD33EC33FC5002B2D522EC30E710B2
:106D00000FBF000C0EBE00080DBD00040BEB60149D
:106D1000A2D5EB13FCED92E7FD2274FFFCFDFEFF14
:106D200022E480F8A2D574FF13FC7D80E480EFF9A3
:106D300020E73624F950037907E4F42402FBE582C6
:106D4000158270021583DBF6E024FB501BE960140A
:106D5000E4F0E582158270021583E004F0B40A08BD
:106D6000E4F0D9EE7401F00A22C2D522ED33EC33FF
:106D700092D5FA602AB4FF33EDC2E77BFF60067A52
:106D80006D7991E4227A6D799A20D5047A6D79959E
:106D9000224E614E002B494E46002D494E4600E4DE
:106DA0007A08F0A3DAFC7B00740722C083C082EC6F
:106DB000C0E0EDC0E0EEC0E0EFC0E0EA75F010A486
:106DC000CAABF075F04DA42BFBE435F0FCEA2410BF
:106DD000FAEB34C5FBEC34D9FCEDC2E7FF75F05695
:106DE000A4F42411C5F0F434C58FF0A42AE5F03BD7
:106DF000E43CF020E714126EA1D0E0FFD0E0FED01A
:106E0000E0FDD0E0FC126B5A8014F404126EA1D0A5
:106E1000E0FFD0E0FED0E0FDD0E0FC126A51D0826D
:106E2000D083E0FAEDD2E7CD33EC332482FBE4C328
:106E3000CF33CFCE33CECD33CD33DBF37B0775F0FD
:106E40000A846004F0A31B0AE5F0F0A38FF0740A33
:106E5000A4FFACF08EF0740AA42CFEACF050010C30
:106E60008DF0740AA42CFDE435F0F0A3DBDE74078A
:106E7000223F8000004120000042C80000447A0008
:106E800000461C400047C35000497424004B18962C
:106E9000804CBEBC205A0E1BCA6753C21C749DC5D1
:106EA000AEFB60065407601C2323126ECFEB5438F0
:106EB0006009126EBB126ECA126A51ECF8EDF9EE5F
:106EC000FAEFCB22EB126ECA80F1543803241C90E7
:106ED0006E71FE93FC0EEE93FD0EEE930ECE93FFBD
:106EE00022BB010689828A83E0225002E722BBFE90
:106EF00002E32289828A83E49322BB010CE5822982
:106F0000F582E5833AF583E0225006E92582F8E62A
:106F100022BBFE06E92582F8E222E58229F582E518
:106F2000833AF583E49322BB010689828A83F022A7
:106F30005002F722BBFE01F322BB010A89828A8339
:106F4000F0E5F0A3F0225006F709A7F01922BBFEE6
:106F500006F3E5F009F31922E88FF0A4CC8BF0A436
:106F60002CFCE98EF0A42CFC8AF0EDA42CFCEA8E1B
:106F7000F0A4CDA8F08BF0A42DCC3825F0FDE98F3E
:106F8000F0A42CCD35F0FCEB8EF0A4FEA9F0EB8F35
:106F9000F0A4CFC5F02ECD39FEE43CFCEAA42DCE02
:106FA00035F0FDE43CFC2275F008758200EF2FFF00
:106FB000EE33FECD33CDCC33CCC58233C5829BEDD1
:106FC0009AEC99E58298400CF582EE9BFEED9AFDD5
:106FD000EC99FC0FD5F0D6E4CEFBE4CDFAE4CCF985
:106FE000A88222B800C1B90059BA002DEC8BF084F8
:106FF000CFCECDFCE5F0CBF97818EF2FFFEE33FEC6
:10700000ED33FDEC33FCEB33FB10D703994004EB7D
:1070100099FB0FD8E5E4F9FA227818EF2FFFEE3349
:10702000FEED33FDEC33FCC933C910D7059BE99A5B
:107030004007EC9BFCE99AF90FD8E0E4C9FAE4CCEC
:10704000FB2275F010EF2FFFEE33FEED33FDCC3356
:10705000CCC833C810D7079BEC9AE899400AED9B3F
:10706000FDEC9AFCE899F80FD5F0DAE4CDFBE4CC1E
:10707000FAE4C8F922CFF4CFCEF4CECDF4CDCCF4DF
:10708000CC22C3E49FFFE49EFEE49DFDE49CFC2231
:10709000EB9FF5F0EA9E42F0E99D42F0EC6480C877
:1070A00064809845F022EB9FF5F0EA9E42F0E99D5E
:1070B00042F0E89C45F022E8600FECC313FCED13AE
:1070C000FDEE13FEEF13FFD8F122E86010ECA2E70B
:1070D00013FCED13FDEE13FEEF13FFD8F022E86072
:1070E0000FEFC333FFEE33FEED33FDEC33FCD8F18D
:1070F00022BB010789828A830273BD5005E9F80229
:1071000073B1BBFE05E9F80273C989828A830273F1
:10711000D5BB010789828A8302712B5005E9F802E9
:1071200073E5BBFE05E9F80273F122ECF0A3EDF084
:10713000A3EEF0A3EFF022F8E0FBA3A3E0F925F023
:10714000F0E582158270021583E0FA38F022EBF048
:10715000A3EAF0A3E9F022D083D082F8E49370127E
:10716000740193700DA3A393F8740193F58288833F
:10717000E4737402936860EFA3A3A380DFE54C255A
:1071800082F582E54B3583F583B54B0485824C222D
:1071900010AF0685824CF54B2285824CF54BD2AF61
:1071A00022EC8EF0A4CCC5F0CCCDF8EFA4CEC5F087
:1071B0002DFDE43CFCE8A42EC8C5F03DFDE43CFCFC
:1071C000EFA4FFE5F028FEE43DFDE43CFC22E709E6
:1071D000F608DFFA8046E709F208DFFA803E888287
:1071E0008C83E709F0A3DFFA8032E309F608DFFABF
:1071F000806EE309F208DFFA806688828C83E309F7
:10720000F0A3DFFA805A89828A83E0A3F608DFFAC6
:10721000804E89828A83E0A3F208DFFA804280D21E
:1072200080FA80C680D4805580F28029801080A6A4
:1072300080EA809A80A880DA80E280CA80298884E7
:107240008C8589828A83E493A30586F0A30586DF73
:10725000F5DEF3800B89828A83E493A3F608DFF9D5
:10726000ECFAA9F0EDFB2288848C8589828A83E080
:10727000A30586F0A30586DFF6DEF480E389828A23
:1072800083E493A3F208DFF980D688F0EF60010E63
:107290004E60CD88F0ED2402B4040050C3F582EBBB
:1072A0002402B4040050B9232345822390721E7334
:1072B000E709F60870FA8046E709F20870FA803E9E
:1072C00088828C83E709F0A370FA8074E309F608DA
:1072D00070FA806CE309F20870FA806488828C830B
:1072E000E309F0A370FA805889828A83E0A3F60844
:1072F00070FA804C89828A83E0A3F20870FA804099
:1073000080D280FA80C680D4805180F2802780109D
:1073100080A680EA809A80A880DA80E280CA8027EE
:1073200088848C8589828A83E493A30586F0A305EB
:107330008670F5800B89828A83E493A3F60870F93E
:10734000ECFAA9F0EDFB2288848C8589828A83E09F
:10735000A30586F0A3058670F680E589828A83E41A
:1073600093A3F20870F980D888F0ED2402B40400E9
:1073700050CEF582EB2402B4040050C4232345828E
:107380002390730073C5F0F8A3E028F0C5F0F8E58A
:1073900082158270021583E038F022A3F8E0C5F070
:1073A00025F0F0E582158270021583E0C838F0E818
:1073B00022E6FC08E6FD08E6FE08E6FF22E0FCA364
:1073C000E0FDA3E0FEA3E0FF22E2FC08E2FD08E20C
:1073D000FE08E2FF22E493FC740193FD740293FE25
:1073E000740393FF22ECF608EDF608EEF608EFF6CC
:1073F00022ECF208EDF208EEF208EFF222E4F526B4
:10740000F525F524F523900D44E0FCA3E0FDA3E071
:10741000FEA3E0F53E8E3D8D3C8C3BA3E0FCA3E05B
:10742000FDA3E0FEA3E0F5428E418D408C3FA3E03A
:10743000FCA3E0FDA3E0FEA3E0F5468E458D448C61
:1074400043900D86E0FEA3E0FFFBAA06E4900F84C4
:10745000E0FCA3E0FDA3E0FEA3E0C39BF532EE9ABF
:10746000F531ED9400F530EC9400F52F900D88E0A7
:10747000FEA3E0FFFBAA06E4900F88E0FCA3E0FD7A
:10748000A3E0FEA3E0C39BF536EE9AF535ED94003C
:10749000F534EC9400F533900D51E024FE700302B6
:1074A00075F4147003027652147003027747147057
:1074B000030278AA147003027A4B24056003027A4F
:1074C000CC900E90E06026900D94E0FF3395E0FEA6
:1074D000FDFC900F75E0F8A3E0F9A3E0FAA3E0FB50
:1074E000126F588F2E8E2D8D2C8C2B8009E4F52E4B
:1074F000F52DF52CF52B900DC5E0F8A3E0F9A3E0F0
:10750000FAA3E0FBC3E52E9BFFE52D9AFEE52C993F
:10751000FDE52B98FC900D7EE0F8A3E0F9A3E0FADE
:10752000A3E0FBC31270905044E4FFFEFDFC900DFD
:107530007EE0F8A3E0A3E0A3E0C3127090602E9079
:107540000DC5E0FCA3E0FDA3E0FEA3E0FF900D7EEF
:10755000E0F8A3E0A3E0A3E0EF2BFFEE3AFEED3965
:10756000FDEC38FC900DC512712B027ACC900DC544
:10757000E0F8A3E0F9A3E0FAA3E0FBC3E52E9BFF4C
:10758000E52D9AFEE52C99FDE52B98FC900D82E007
:10759000F8A3E0F9A3E0FAA3E0FBD3127090404314
:1075A000E4FFFEFDFC900D82E0F8A3E0A3E0A3E081
:1075B000127090602E900DC5E0FCA3E0FDA3E0FEEC
:1075C000A3E0FF900D82E0F8A3E0A3E0A3E0EF2B9F
:1075D000FFEE3AFEED39FDEC38FC900DC512712B33
:1075E000027ACCAF2EAE2DAD2CAC2B900DC5127106
:1075F0002B027ACCE4FFFEFDFCAB32AA31A930A805
:107600002FD3127090403D900E12E0FCA3E0FDA33A
:10761000E0FEA3E0FFA82F126F58C006C007900D30
:1076200086E0FEA3E0FFC3E49FFF74049EFEAB0769
:10763000FAE4F9F8D007D00612CD42900DC51271C8
:107640002B027ACCE4FFFEFDFC900DC512712B02DB
:107650007ACC900E9DE0FCA3E0FDA3E0FEA3E0FF4A
:10766000900DC512712BE4FFFEFDFCAB32AA31A9CF
:1076700030A82FD31270904056900E2FE0FFE4FCFC
:10768000FDFEA82F126F58E47B02FAF9F8126F582A
:10769000C006C007900D86E0FEA3E0FFC3E49FFF95
:1076A00074049EFEAB07FAE4F9F8D007D00612CDB9
:1076B00042900E9DE0F8A3E0F9A3E0FAA3E02FFFCB
:1076C000EA3EFEE93DFDE83CFC900DC512712BE45D
:1076D000FFFEFDFCAB36AA35A934A833D312709057
:1076E0005003027ACC900E2FE0FFE4FCFDFEA8339D
:1076F000126F58E47B02FAF9F8126F58C006C007FF
:10770000900D88E0FEA3E0FFC3E49FFF74049EFE9B
:10771000AB07FAE4F9F8D007D00612CD42A804A9C5
:1077200005AA06AB07900E9DE0FCA3E0FDA3E0FEDA
:10773000A3E0C39BFFEE9AFEED99FDEC98FC900D43
:10774000C512712B027ACC900E9DE0FCA3E0FDA344
:10775000E0FEA3E0FF900DC512712B90103AE014EB
:10776000604814700302782424026003027ACCE497
:10777000FFFEFDFCAB32AA31A930A82FD3127090C6
:10778000400990103A7401F0027ACCE4FFFEFDFC4F
:10779000AB36AA35A934A833D31270905003027ABD
:1077A000CC90103A7402F0027ACCE4FFFEFDFCAB00
:1077B00032AA31A930A82FC31270905008E490105B
:1077C0003AF0027ACC900E2FE0FFE4FCFDFEAB32E3
:1077D000AA31A930A82F126F58E47B02FAF9F812E7
:1077E0006F58C006C007900D86E0FEA3E0FFC3E41B
:1077F0009FFF74049EFEAB07FAE4F9F8D007D006A9
:1078000012CD42900E9DE0F8A3E0F9A3E0FAA3E0C8
:107810002FFFEA3EFEE93DFDE83CFC900DC51271EC
:107820002B027ACCE4FFFEFDFCAB36AA35A934A8C6
:1078300033C31270905008E490103AF0027ACC9062
:107840000E2FE0FFE4FCFDFEAB36AA35A934A833C9
:10785000126F58E47B02FAF9F8126F58C006C0079D
:10786000900D88E0FEA3E0FFC3E49FFF74049EFE3A
:10787000AB07FAE4F9F8D007D00612CD42A804A964
:1078800005AA06AB07900E9DE0FCA3E0FDA3E0FE79
:10789000A3E0C39BFFEE9AFEED99FDEC98FC900DE2
:1078A000C512712B027ACC027ACC900E9DE0FCA31B
:1078B000E0FDA3E0FEA3E0FF900DC512712B901038
:1078C0003AE01460481470030279A62402600302AF
:1078D0007ACCE4FFFEFDFCAB32AA31A930A82FD34D
:1078E000127090400990103A7401F0027ACCE4FFD3
:1078F000FEFDFCAB36AA35A934A833D312709050E4
:1079000003027ACC90103A7402F0027ACCE4FFFEC3
:10791000FDFCAB32AA31A930A82FC3127090501BC6
:10792000E4FFFEFDFCAB36AA35A934A833C31270C0
:10793000905008E490103AF0027ACCE4FFFEFDFC8F
:10794000AB32AA31A930A82FD31270905003027A1B
:10795000CC900E2FE0FFE4FCFDFEA82F126F5878AC
:10796000021270DEC006C007900D86E0FEA3E0FFA5
:10797000C3E49FFF74049EFEAB07FAE4F9F8D00756
:10798000D00612CD42900E9DE0F8A3E0F9A3E0FAF4
:10799000A3E02FFFEA3EFEE93DFDE83CFC900DC56B
:1079A00012712B027ACCE4FFFEFDFCAB32AA31A9A6
:1079B00030A82FC3127090501BE4FFFEFDFCAB36C5
:1079C000AA35A934A833C31270905008E490103A35
:1079D000F0027ACCE4FFFEFDFCAB36AA35A934A850
:1079E00033D31270905003027ACC900D93E0FFE4F1
:1079F000FCFDFEA833126F5878021270DEC006C07C
:107A000007900D88E0FEA3E0FFC3E49FFF74049E8F
:107A1000FEAB07FAE4F9F8D007D00612CD42A8046D
:107A2000A905AA06AB07900E9DE0FCA3E0FDA3E02C
:107A3000FEA3E0C39BFFEE9AFEED99FDEC98FC904F
:107A40000DC512712B027ACC027ACC900DBEE0FCEF
:107A5000A3E0FDE4126C75E4FBFAF97840126B5A6E
:107A6000C004C005C006C007900FA4E0FCA3E0FD61
:107A7000EC126C75D003D002D001D000126B5A8F7B
:107A80003A8E398D388C37900DBCE0FCA3E0FDE4D4
:107A9000126C75AB3AAA39A938A837126A51C004DA
:107AA000C005C006C007900E9DE0FCA3E0FDA3E06A
:107AB000FEA3E0FFEC126C70D003D002D001D00026
:107AC000126960126CAE900DC512712B900D6DE0B5
:107AD000606AA3E0FCA3E0FDA3E0FEA3E0FF900D3D
:107AE000C5E0F8A3E0F9A3E0FAA3E0FBC3127090AD
:107AF0005014900D6EE0FCA3E0FDA3E0FEA3E0FFB8
:107B0000900DC512712B900D76E0FCA3E0FDA3E073
:107B1000FEA3E0FF900DC5E0F8A3E0F9A3E0FAA30F
:107B2000E0FBD31270904014900D76E0FCA3E0FDD2
:107B3000A3E0FEA3E0FF900DC512712B900D98E01D
:107B400064016003027BF5900FA8E0B40114900F6C
:107B500054E0FCA3E0FDA3E0FEA3E0FF900DC512FE
:107B6000712B900E5CE064016003027BF5FFFEFD6B
:107B7000FCAB36AA35A934A833D3127090405D907F
:107B80000E35E0FCA3E0FDA3E0FEA3E0FFA8331266
:107B90006F58C006C007900D88E0FEA3E0FFC3E465
:107BA0009FFF74049EFEAB07FAE4F9F8D007D006F5
:107BB00012CD42A804A905AA06AB07900E35E0FC39
:107BC000A3E0FDA3E0FEA3E0C39BFFEE9AFEED99C8
:107BD000FDEC98FC900DC512712B8019900E35E0CC
:107BE000FCA3E0FDA3E0FEA3E0FF900DC512712B06
:107BF000E4900E5CF0900F75E0F8A3E0F9A3E0FAD2
:107C0000A3E0FB900DC5E0FCA3E0FDA3E0FEA3E034
:107C1000C39BF52AEE9AF529ED99F528EC98F527FE
:107C2000901032E0FCA3E0FDA3E0FEA3E0252AFFD4
:107C3000EE3529FEED3528FDEC3527FC901032128B
:107C4000712BE47FE87E03FDFC901032E0F8A3E0A6
:107C5000F9A3E0FAA3E0FBD3127090400FE47FE8B1
:107C60007E03FDFC90103212712B802A7F187EFC5F
:107C70007DFF7CFF901032E0F8A3E0F9A3E0FAA3C7
:107C8000E0FBC3127090500E7F187EFC7DFF7CFFDE
:107C900090103212712BE4FFFEFDFCAB3EAA3DA911
:107CA0003CA83BC3127090601AAF2AAE29AD28AC35
:107CB00027A83B126F5878101270CA8F268E258D18
:107CC000248C23E4FFFEFDFCAB42AA41A940A83F5F
:107CD000C3127090602C901032E0FCA3E0FDA3E092
:107CE000FEA3E0FFA83F126F5878101270CAE52675
:107CF0002FF526E5253EF525E5243DF524E5233C35
:107D0000F523E4FFFEFDFCAB46AA45A944A843C306
:107D10001270906043901036E0F8A3E0F9A3E0FA07
:107D2000A3E0FBC3E52A9BFFE5299AFEE52899FD20
:107D3000E52798FCAB46AA45A944A843126F58789A
:107D4000101270CAE5262FF526E5253EF525E52417
:107D50003DF524E5233CF523AF2AAE29AD28AC2719
:107D600090103612712BE4FFFEFDFCAB26AA25A96C
:107D700024A823D31270904004D20E8002C20EE4D5
:107D80007F64FEFDFCAB26AA25A924A823D312708C
:107D900090400AE4752664F525F524F52374FF7FE9
:107DA0009CFEFDFCAB26AA25A924A823C312709033
:107DB000500B74FF75269CF525F524F523AF26AEF0
:107DC00025AD24AC23780A1270DEE47B64FAF9F85E
:107DD00012CD42A804A905AA06AB07900FA9E0FF9F
:107DE000E4FCFDFE126F58780A1270CA8F268E25A9
:107DF0008D248C23E4FFFEFDFCAB26AA25A924A834
:107E000023C312709040047F0180027FFF900F70A7
:107E1000EFF0300E077F0112D8318005E4FF12D851
:107E200031AE25AF2612D71D12D8192212D89DEFD8
:107E3000700A300CF7C20C12AE1E80F0900F69E091
:107E4000249AFF900F68E034F9FE3395E0FDFCE4DE
:107E50007BA07A07F9F8126F5878071270CA900E53
:107E60009912712B300C05C20C12AE1E900DC0E0A1
:107E70006077300D74901097E004F0E064E87002D1
:107E8000740370657F287E23FDFC900E99E0F8A3B3
:107E9000E0F9A3E0FAA3E0FBC3127090500FE47F77
:107EA000407E1FFDFC900F5812712B8037E47FC875
:107EB0007E32FDFC900E99E0F8A3E0F9A3E0FAA36E
:107EC000E0FBC3127090500FE47FE07E2EFDFC902B
:107ED0000F5812712B800DE47FC07E5DFDFC900F6A
:107EE0005812712BE4900DC0F0E47F587E1BFDFC0E
:107EF000900E99E0F8A3E0F9A3E0FAA3E0FBD31217
:107F000070905003028729E47FE87E03FDFC901007
:107F100098E0F8A3E0F9A3E0FAA3E0FB1270A670E2
:107F200004D20D8036901098E0FCA3E0FDA3E0FEA3
:107F3000A3E02401FFE43EFEE43DFDE43CFC9010A0
:107F40009812712B900E99E0FCA3E0FDA3E0FEA334
:107F5000E0FF12C4AD900F7112712B900E31E060F2
:107F60000312C693300C05C20C12AE1E900E26E012
:107F70007004F50EF50F900D51E064066003028267
:107F8000CCE51014700302807F14700302809214F9
:107F900070030280B1147003028114240460030290
:107FA000811F900F6CE0FEA3E0FFEE3395E08F267B
:107FB0008E25F524F523C3E5269519FFE5259518AB
:107FC000FEE5249517FDE5239516FC126C70C004A0
:107FD000C005C006C007AF19AE18AD17AC16EC123D
:107FE0006C70A804A905AA06AB07D007D006D00577
:107FF000D004126B5AC004C005C006C007900E5AC8
:10800000E0FCA3E0FDE4126C75D003D002D001D0F7
:1080100000126A51126CAE8F268E258D248C23306F
:108020000C05C20C12AE1E7F007EFC7DFF7CFFABF8
:1080300026AA25A924A823C3127090500C752600E7
:108040007525FC7524FF7523FFE4FF7E04FDFCAB62
:1080500026AA25A924A823D3127090400AE4F52665
:10806000752504F524F523900FA6E525F0A3E52654
:10807000F0200C0302811FC20C12AE1E02811FE40D
:10808000F512F513F519F518F517F5167510040224
:10809000811F0513E5137002051264644512707F99
:1080A000F512F513300C05C20C12AE1E75100380CC
:1080B0006E0513E51370020512900F6CE0FEA3E04D
:1080C000FFEE3395E0FDFCE5192FF519E5183EF5B7
:1080D00018E5173DF517E5163CF516300C05C20CF2
:1080E00012AE1EE51364C845127034AF19AE18AD58
:1080F00017AC167BC8FAF9F812CD428F198E188D7D
:10810000178C16300C05C20C12AE1EE4F512F513D6
:10811000F510800BE50E7007E50F70037510023047
:108120000C05C20C12AE1EE511147003028222145B
:1081300070030282351470030282541470030282A9
:10814000AF240460030282BE900F6EE0FEA3E0FF46
:10815000EE3395E08F268E25F524F523C3E526958D
:108160001DFFE525951CFEE524951BFDE523951ACD
:10817000FC126C70C004C005C006C007AF1DAE1C69
:10818000AD1BAC1AEC126C70A804A905AA06AB07CB
:10819000D007D006D005D004126B5AC004C005C069
:1081A00006C007900E5AE0FCA3E0FDE4126C75D007
:1081B00003D002D001D000126A51126CAE8F268E0D
:1081C000258D248C23300C05C20C12AE1E7F007E40
:1081D000FC7DFF7CFFAB26AA25A924A823C312702F
:1081E00090500C7526007525FC7524FF7523FFE45F
:1081F000FF7E04FDFCAB26AA25A924A823D3127078
:1082000090400AE4F526752504F524F523300C0585
:10821000C20C12AE1E900FA4E525F0A3E526F002D5
:1082200082BEE4F514F515F51DF51CF51BF51A7560
:1082300011040282BE0515E515700205146464453B
:1082400014707BF514F515300C05C20C12AE1E75BA
:108250001103806A0515E51570020514900F6EE094
:10826000FEA3E0FFEE3395E0FDFCE51D2FF51DE5D7
:108270001C3EF51CE51B3DF51BE51A3CF51AE51502
:1082800064C845147038AF1DAE1CAD1BAC1A7BC85A
:10829000FAF9F812CD428F1D8E1C8D1B8C1A300CF2
:1082A00005C20C12AE1EE4F514F515F511800FE5AC
:1082B0000E700BE50F7007E5107003751102200CAE
:1082C00003028790C20C12AE1E028790E50E147056
:1082D000030283A81470030283BF1470030283FC9B
:1082E000240360030284A9900F6CE0FEA3E0FFEE7C
:1082F0003395E08F268E25F524F523E4FFFEFDFC63
:10830000AB26AA25A924A823C31270905009E4F52E
:1083100026F525F524F523AF26AE25AD24AC231292
:10832000B90E8F268E258D248C23780A1270DE904C
:108330000E27E0F8A3E0F9A3E0FAA3E0FB126FE355
:108340008F268E258D248C23300C05C20C12AE1E78
:10835000E4FFFEFDFCAB26AA25A924A823C31270C6
:1083600090500BE4F526F525F524F523801EE4FF57
:108370007E04FDFCAB26AA25A924A823D312709065
:10838000400AE4F526752504F524F523AF26AE252D
:10839000AD24AC23900F8412712B200C030284A90E
:1083A000C20C12AE1E0284A9E4901093F0A3F0FF59
:1083B000FEFDFC900E2712712B750E020284A9900F
:1083C0001094E004F07006901093E004F090109385
:1083D000E064017004A3E064F460030284A99010D7
:1083E00093F0A3F07F0112D8BBE4FF12D8C1300C88
:1083F00005C20C12AE1E750E030284A9901094E003
:1084000004F07006901093E004F0C3900F6CE064E9
:108410008094805004E4F0A3F0900E27E0F8A3E0ED
:10842000F9A3E0FAA3E0FBC000C001C002C00390C2
:108430000F6CE0FEA3E0FFEE3395E0FDFC12B90EF9
:10844000D003D002D001D000EB2FFFEA3EFEE93D81
:10845000FDE83CFC900E2712712B300C05C20C126B
:10846000AE1E901093E064037004A3E064E87039DA
:10847000900E27E0FCA3E0FDA3E0FEA3E0FFE47B79
:10848000E87A03F9F8126FE3900E2712712B300C83
:1084900005C20C12AE1EE4FF12D8BBE4FF12D8C115
:1084A000E4901093F0A3F0F50E300C05C20C12AE60
:1084B0001EE50F14700302858E1470030285AD143F
:1084C00070030285EA14700302869E14700302860C
:1084D000A72405600302871F900F6EE0FEA3E0FF54
:1084E000EE3395E08F268E25F524F523E4FFFEFD7F
:1084F000FCAB26AA25A924A823C31270905009E436
:10850000F526F525F524F523AF26AE25AD24AC23BD
:1085100012B9C38F268E258D248C23780A1270DE23
:10852000900E2BE0F8A3E0F9A3E0FAA3E0FB126FB2
:10853000E38F268E258D248C23300C05C20C12AEC1
:108540001EE4FFFEFDFCAB26AA25A924A823C31226
:108550007090500BE4F526F525F524F523801EE4F4
:10856000FF7E04FDFCAB26AA25A924A823D3127004
:1085700090400AE4F526752504F524F523AF26AED0
:1085800025AD24AC23900F8812712B02871FE49035
:108590001095F0A3F0FFFEFDFC900E2B12712B3016
:1085A0000C05C20C12AE1E750F0402871F901096A8
:1085B000E004F07006901095E004F0901095E064EF
:1085C000017004A3E064F4600302871F901095F02B
:1085D000A3F07F0112D8BBE4FF12D8C1300C05C252
:1085E0000C12AE1E750F0302871F901096E004F068
:1085F0007006901095E004F0C3900F6EE0648094D4
:10860000805004E4F0A3F0900E2BE0F8A3E0F9A36F
:10861000E0FAA3E0FBC000C001C002C003900F6EEF
:10862000E0FEA3E0FFEE3395E0FDFC12B9C3D003FA
:10863000D002D001D000EB2FFFEA3EFEE93DFDE87D
:108640003CFC900E2B12712B300C05C20C12AE1E8E
:10865000901095E064037004A3E064E8600302876F
:108660001F900E2BE0FCA3E0FDA3E0FEA3E0FFE4DF
:108670007BE87A03F9F8126FE3900E2B12712BE46A
:10868000FF12D8BBE4FF12D8C1E4901095F0A3F01C
:10869000300C05C20C12AE1E750F0502871FE50EC9
:1086A000707D750F028078901096E004F07006904F
:1086B0001095E004F0901095E064017004A3E0646C
:1086C000F4705C901095F0A3F0300C05C20C12AE63
:1086D0001E900D51E0FF6402600EEF64036009EF2D
:1086E00064046004EFB40534900F75E0FCA3E0FD72
:1086F000A3E0FEA3E0FF900DC512712B900F79E06F
:10870000FCA3E0FDA3E0FEA3E0FF900DC912712BD6
:10871000900D50E0FF900DDDF012D86DE4F50F30B4
:108720000C6EC20C12AE1E8067750E01750F0175BE
:108730001001751101C20D7F0112D8BBE4FF12D8E0
:10874000C1300C05C20C12AE1E900D8AE060209064
:108750000D51E0FF6402600EEF64036009EF6404F2
:108760006004EFB40509E4900DDDF0FF12D86DE46C
:10877000FFFEFDFC900F8412712BE4FFFEFDFC90C8
:108780000F8812712BE4900FA4F0A3F0A3F0A3F0D4
:10879000900DC0E06003028849200D03028849E57E
:1087A0000E6003028849E50F6003028849900E9924
:1087B000E0FCA3E0FDA3E0FEA3E0FF12C4AD900F38
:1087C0007112712B900F58E0FCA3E0FDA3E0FEA313
:1087D000E0FFEC126C707B1F7A85796B783F126A30
:1087E00051C004C005C006C007900F71E0FCA3E0B3
:1087F000FDA3E0FEA3E0FFEC126C70A804A905AA9B
:1088000006AB07D007D006D005D004126BF7600E78
:10881000400C7F0112D8BBE4FF12D8C1802BE4FFCB
:1088200012D8BB7F0112D8C1900E90E0601212C91D
:10883000DA300C05C20C12AE1EE4900E90F08009E6
:10884000E4900F53F0FF12D86D300C05C20C12AE3D
:108850001E228F23E523C394034003029090300A25
:10886000227B03AF031BEF6018E4FFFEFDFCEB254A
:10887000E025E0243BF582E43410F58312712B806F
:10888000E2C20AE523701812D79A78011270B7EF86
:10889000EEED5403FDE4FC90000212712B8033E5F1
:1088A00023B4011812D76878011270B7EFEEED54B7
:1088B00003FDE4FC90000212712B801612D75E7843
:1088C000011270B7EFEEED5403FDE4FC90000212CC
:1088D000712B7B017A00790212C7E84003028B14E6
:1088E000900002E0FCA3E0FDA3E0FEA3E054C0FF83
:1088F000EEED5403FDE42FFFE43EFEED34FEFDE417
:1089000034FFFC78021270B7EE3395E0FDFCE523EE
:1089100025E025E024F1F582E4340DF583E0F8A3A9
:10892000E0F9A3E0FAA3E02FFFEA3EFEE93DFDE80F
:108930003CFC90000612712B300F27900006E0FCE3
:10894000A3E0FDA3E0FEA3E0FFE52325E025E0246E
:108950003BF582E43410F58312712BE523B4020257
:10896000C20FE52325E025E0243BF582E43410F531
:1089700083E0F8A3E0F9A3E0FAA3E0FB900006E0AF
:10898000FCA3E0FDA3E0FEA3E0C39BFFEE9AFEED97
:1089900099FDEC98FC90001212712BE4FF7EC0FD53
:1089A000FC900012E0F8A3E0F9A3E0FAA3E0FBD307
:1089B000127090401074812523F582E4340FF58302
:1089C000E014F080687F007E407DFF7CFF90001205
:1089D000E0F8A3E0F9A3E0FAA3E0FBC31270905023
:1089E0001074812523F582E4340FF583E004F080D0
:1089F0003C900012E0A3E0A3E0FEA3E0FF12D71D2D
:108A0000D3EF9400EE648094C0402274472523F590
:108A100082E43410F583E004F074472523F582E402
:108A20003410F583E0C3940A5003029090744725F4
:108A300023F582E43410F583E4F0900006E0FCA313
:108A4000E0FDA3E0FEA3E0FFE52325E025E0243BD5
:108A5000F582E43410F58312712B900006E0F8A340
:108A6000E0F9A3E0FAA3E0FBC00074812523F582BE
:108A7000E4340FF583E0FF3395E0FEFDFC7810123F
:108A800070DED000EB2FFFEA3EFEE93DFDE83CFC46
:108A900090000612712BE52325E025E02461F58284
:108AA000E4340DF583E0FCA3E0FDA3E0FEA3E0FFCA
:108AB000E4FBFA7980783F126BF76038900006E0AB
:108AC000FCA3E0FDA3E0FEA3E0FFEC126C70E52345
:108AD00025E025E02461F582E4340DF583E0F8A378
:108AE000E0F9A3E0FAA3E0FB126A51126CAE900029
:108AF0000612712B900006E0FCA3E0FDA3E0FEA3AC
:108B0000E0FFE52325E025E02475F582E4340FF548
:108B10008312712BE523147003028BCA14700302B5
:108B20008C6B24026003028D09E47F03FEFDFC9040
:108B30000006E0F8A3E0F9A3E0FAA3E0FB126F5807
:108B400090104BE0F8A3E0F9A3E0FAA3E02FFFEACE
:108B50003EFEE93DFDE83CFC901057E0F8A3E0F94B
:108B6000A3E0FAA3E0FBC3EF9BFFEE9AFEED99FDB5
:108B7000EC98FCC004C005C006C007E47F03FEFDFE
:108B8000FC901063E0F8A3E0F9A3E0FAA3E0FB1285
:108B90006F58A804A905AA06AB07D007D006D005D0
:108BA000D004C3EF9BFFEE9AFEED99FDEC98FCE438
:108BB0007B0AFAF9F8126F5812C19BEE3395E0FD6B
:108BC000FC90000A12712B028D09E47F03FEFDFC6C
:108BD000900006E0F8A3E0F9A3E0FAA3E0FB126F2F
:108BE0005890104FE0F8A3E0F9A3E0FAA3E02FFFBC
:108BF000EA3EFEE93DFDE83CFC90105BE0F8A3E0B6
:108C0000F9A3E0FAA3E0FBC3EF9BFFEE9AFEED9918
:108C1000FDEC98FCC004C005C006C007E47F03FE5D
:108C2000FDFC901067E0F8A3E0F9A3E0FAA3E0FBF5
:108C3000126F58A804A905AA06AB07D007D006D022
:108C400005D004C3EF9BFFEE9AFEED99FDEC98FC76
:108C5000E47B0AFAF9F8126F5812C21EEE3395E05F
:108C6000FDFC90000A12712B028D09E47F03FEFDCA
:108C7000FC900006E0F8A3E0F9A3E0FAA3E0FB1201
:108C80006F58901053E0F8A3E0F9A3E0FAA3E02FA7
:108C9000FFEA3EFEE93DFDE83CFC90105FE0F8A3F2
:108CA000E0F9A3E0FAA3E0FBC3EF9BFFEE9AFEED31
:108CB00099FDEC98FCC004C005C006C007E47F0322
:108CC000FEFDFC90106BE0F8A3E0F9A3E0FAA3E04E
:108CD000FB126F58A804A905AA06AB07D007D00657
:108CE000D005D004C3EF9BFFEE9AFEED99FDEC9802
:108CF000FCE47B0AFAF9F8126F5812C2A1EE339520
:108D0000E0FDFC90000A12712B90000AE0FCA3E049
:108D1000FDA3E0FEA3E0FFE52325E025E0248CF59C
:108D200082E4340FF58312712BE523147003028D56
:108D3000DF147003028E8024026003028F1EE47F22
:108D400003FEFDFC90000AE0F8A3E0F9A3E0FAA31B
:108D5000E0FB126F5890106FE0F8A3E0F9A3E0FA7F
:108D6000A3E02FFFEA3EFEE93DFDE83CFC90107BCE
:108D7000E0F8A3E0F9A3E0FAA3E0FBC3EF9BFFEE6A
:108D80009AFEED99FDEC98FCC004C005C006C00732
:108D9000E47F03FEFDFC901087E0F8A3E0F9A3E078
:108DA000FAA3E0FB126F58A804A905AA06AB07D0E6
:108DB00007D006D005D004C3EF9BFFEE9AFEED99D5
:108DC000FDEC98FCE47B0AFAF9F8126F5812C32400
:108DD000EE3395E0FDFC90000E12712B028F1EE425
:108DE0007F03FEFDFC90000AE0F8A3E0F9A3E0FA9F
:108DF000A3E0FB126F58901073E0F8A3E0F9A3E032
:108E0000FAA3E02FFFEA3EFEE93DFDE83CFC9010AE
:108E10007FE0F8A3E0F9A3E0FAA3E0FBC3EF9BFF38
:108E2000EE9AFEED99FDEC98FCC004C005C006C0AA
:108E300007E47F03FEFDFC90108BE0F8A3E0F9A3AC
:108E4000E0FAA3E0FB126F58A804A905AA06AB0735
:108E5000D007D006D005D004C3EF9BFFEE9AFEEDFD
:108E600099FDEC98FCE47B0AFAF9F8126F5812C3EA
:108E7000A7EE3395E0FDFC90000E12712B028F1EC1
:108E8000E47F03FEFDFC90000AE0F8A3E0F9A3E014
:108E9000FAA3E0FB126F58901077E0F8A3E0F9A373
:108EA000E0FAA3E02FFFEA3EFEE93DFDE83CFC903E
:108EB0001083E0F8A3E0F9A3E0FAA3E0FBC3EF9B83
:108EC000FFEE9AFEED99FDEC98FCC004C005C006CB
:108ED000C007E47F03FEFDFC90108FE0F8A3E0F9EB
:108EE000A3E0FAA3E0FB126F58A804A905AA06ABF9
:108EF00007D007D006D005D004C3EF9BFFEE9AFE43
:108F0000ED99FDEC98FCE47B0AFAF9F8126F58121F
:108F1000C42AEE3395E0FDFC90000E12712B9000F8
:108F20000EE0FCA3E0FDA3E0FEA3E0FFE52325E0C7
:108F300025E02498F582E4340FF58312712BE523A4
:108F400025E025E02457F582E43410F583E0FCA306
:108F5000E0FDA3E0FEA3E0FFE52325E025E0246398
:108F6000F582E43410F58312712BE52325E025E02A
:108F7000244BF582E43410F583E0FCA3E0FDA3E08C
:108F8000FEA3E0FFE52325E025E02457F582E43445
:108F900010F58312712B900006E0FCA3E0FDA3E026
:108FA000FEA3E0FFE52325E025E0244BF582E43431
:108FB00010F58312712BE52325E025E0247BF58253
:108FC000E43410F583E0FCA3E0FDA3E0FEA3E0FFA2
