:1026000002B8E8008F828E83E0540100000070F869
:102610002278FFE4F6D8FD02B9769005FAEBF0A334
:10262000EAF0A3E9F0900A75E064FA7003023E1044
:102630009005FAE0FBA3E0FAA3E0F8AC02AD037B5F
:10264000FF7A56794812873F900A6E74FFF0A374A0
:1026500056F0A37449F09005FAE0FBA3E0FAA3E07A
:10266000F912D21A900A6E74FFF0A37456F0A37494
:102670004CF09005FAE0FBA3E0FAA3E0F912D21ABD
:10268000900A6E74FFF0A37456F0A3745FF0900587
:10269000FAE0FBA3E0FAA3E0F912D21A900A6E74F2
:1026A000FFF0A37456F0A37486F09005FAE0FBA344
:1026B000E0FAA3E0F912D21A900A6E74FFF0A37444
:1026C00056F0A3748CF09005FAE0FBA3E0FAA3E0C7
:1026D000F912D21A90066674FFF0A37456F0A37430
:1026E0009AF0900A75E0FF900669E4F0A3EFF07BA2
:1026F000017A0579FF129C00900A6E7401F0A374B0
:1027000005F0A374FFF09005FAE0FBA3E0FAA3E064
:10271000F912D21A900A6E74FFF0A37456F0A374E3
:10272000A3F09005FAE0FBA3E0FAA3E0F912D21AB5
:10273000900AEFE0B4011E900A6E74FFF0A3745685
:10274000F0A374BEF09005FAE0FBA3E0FAA3E0F971
:1027500012D21A801C900A6E74FFF0A37456F0A374
:1027600074C3F09005FAE0FBA3E0FAA3E0F912D2FB
:102770001A90066674FFF0A37456F0A374C7F09025
:102780000D37E0FF900669E4F0A3EFF07B017A05D6
:1027900079FF129C00900A6E7401F0A37405F0A3F7
:1027A00074FFF09005FAE0FBA3E0FAA3E0F912D27F
:1027B0001A900A6E74FFF0A37456F0A37449F09057
:1027C00005FAE0FBA3E0FAA3E0F912D21A900A6E30
:1027D00074FFF0A37456F0A374D7F09005FAE0FBF1
:1027E000A3E0FAA3E0F912D21A900A6E74FFF0A3E4
:1027F0007456F0A374E4F09005FAE0FBA3E0FAA3AA
:10280000E0F912D21A900B68E0B4021E900A6E74BE
:10281000FFF0A37456F0A374F4F09005FAE0FBA364
:10282000E0FAA3E0F912D21A8041900B68E0B401FB
:102830001E900A6E74FFF0A37457F0A37402F09018
:1028400005FAE0FBA3E0FAA3E0F912D21A801C908B
:102850000A6E74FFF0A37457F0A3740BF09005FA9E
:10286000E0FBA3E0FAA3E0F912D21AE49005FDF030
:10287000A3F0C39005FEE094029005FDE06480940F
:102880008040030229D6900B68E06402705F9006D6
:102890006674FFF0A37457F0A37419F09005FDE07F
:1028A000FEA3E07802C333CE33CED8F92423F582D9
:1028B000740B3EF583E0A3E0A3E0FFA3E09006697C
:1028C000CFF0A3EFF07B017A0579FF129C00900A0C
:1028D0006E7401F0A37405F0A374FFF09005FAE0A4
:1028E000FBA3E0FAA3E0F912D21A0229C5900B6803
:1028F000E06401705E90066674FFF0A37457F0A365
:102900007419F09005FDE0FEA3E07802C333CE33E6
:10291000CED8F9242BF582740B3EF583E0A3E0A317
:10292000E0FFA3E0900669CFF0A3EFF07B017A050A
:1029300079FF129C00900A6E7401F0A37405F0A355
:1029400074FFF09005FAE0FBA3E0FAA3E0F912D2DD
:102950001A807290066674FFF0A37457F0A374197E
:10296000F09005FDE0FAA3E0FBAE027802C333CE9F
:1029700033CED8F9241BF582740B3EF583E0FCA31B
:10298000E0FDA3E0FEA3E0FF74A92BF582740A3AF0
:10299000F583E0F9F8128444900669EEF0A3EFF0B5
:1029A0007B017A0579FF129C00900A6E7401F0A3F6
:1029B0007405F0A374FFF09005FAE0FBA3E0FAA31E
:1029C000E0F912D21A9005FEE004F070069005FDC1
:1029D000E004F0022872900A6E74FFF0A37456F0BF
:1029E000A37449F09005FAE0FBA3E0FAA3E0F91222
:1029F000D21A900A6E74FFF0A37456F0A37449F0D3
:102A00009005FAE0FBA3E0FAA3E0F912D21A9006CF
:102A10006674FFF0A37457F0A3741DF07B017A0570
:102A200079FF129C00900B33E054036019900A6EFA
:102A300074FFF0A37457F0A3742DF07B017A05792D
:102A4000FF12D21A8017900A6E74FFF0A37457F029
:102A5000A37433F07B017A0579FF12D21A900A6EC3
:102A60007401F0A37405F0A374FFF09005FAE0FB85
:102A7000A3E0FAA3E0F912D21A900A6E74FFF0A351
:102A80007457F0A37438F09005FAE0FBA3E0FAA3C2
:102A9000E0F912D21A900A6E74FFF0A37457F0A3F3
:102AA000744EF09005FAE0FBA3E0FAA3E0F912D22D
:102AB0001AE49005FDF0A3F0C39005FEE0940390A6
:102AC00005FDE0648094804003022B7E90066674CE
:102AD000FFF0A37457F0A3745EF09005FDE0FCA333
:102AE000E0FD2401FEE43C900669F0A3CEF0EDAEDB
:102AF000047802C333CE33CED8F924FBF582740CAC
:102B00003EF583E0FCA3E0FDA3E0FEA3E0FF90051B
:102B1000FDE0FAA3E024A9F582740A3AF583E0F90E
:102B2000F812844490066BEEF0A3EFF07B017A0577
:102B300079FF129C00900A6E7401F0A37405F0A353
:102B400074FFF09005FAE0FBA3E0FAA3E0F912D2DB
:102B50001A900A6E74FFF0A37456F0A37449F090B3
:102B600005FAE0FBA3E0FAA3E0F912D21A9005FE01
:102B7000E004F070069005FDE004F0022AB890062B
:102B80006674FFF0A37457F0A37467F0900C1FE015
:102B9000FCA3E0FDA3E0FEA3E0FF9006691284D150
:102BA0007B017A0579FF129C00900A6E7401F0A3F4
:102BB0007405F0A374FFF09005FAE0FBA3E0FAA31C
:102BC000E0F912D21A900A6E74FFF0A37456F0A3C3
:102BD0007449F09005FAE0FBA3E0FAA3E0F912D201
:102BE0001A90066674FFF0A37457F0A37479F090FE
:102BF0000D07E0FCA3E0FDA3E0FEA3E0FF90066963
:102C00001284D17B017A0579FF129C00900A6E74C0
:102C100001F0A37405F0A374FFF09005FAE0FBA3A4
:102C2000E0FAA3E0F912D21A900A6E74FFF0A374CE
:102C300056F0A37449F09005FAE0FBA3E0FAA3E094
:102C4000F912D21A900A6E74FFF0A37457F0A374AD
:102C50008BF09005FAE0FBA3E0FAA3E0F912D21A98
:102C6000900A6E74FFF0A37457F0A374A1F090055E
:102C7000FAE0FBA3E0FAA3E0F912D21A900AA8E066
:102C800064037003022D8990066674FFF0A37457E5
:102C9000F0A374B3F0900A76E0FCA3E0FDA3E0FE9D
:102CA000A3E0FFEC127F60E4FBFA79807847127EA4
:102CB0004A9006691284D17B017A0579FF129C0043
:102CC000900A6E7401F0A37405F0A374FFF09005F0
:102CD000FAE0FBA3E0FAA3E0F912D21A90066674B8
:102CE000FFF0A37457F0A374BDF0900A7AE0FCA340
:102CF000E0FDA3E0FEA3E0FFEC127F60E4FBFA79C5
:102D0000807847127E4A9006691284D17B017A0549
:102D100079FF129C00900A6E7401F0A37405F0A371
:102D200074FFF09005FAE0FBA3E0FAA3E0F912D2F9
:102D30001A90066674FFF0A37457F0A374C7F0905E
:102D40000A7EE0FCA3E0FDA3E0FEA3E0FFEC127F1F
:102D500060E4FBFA79807847127E4A900669128413
:102D6000D17B017A0579FF129C00900A6E7401F004
:102D7000A37405F0A374FFF09005FAE0FBA3E0FA5A
:102D8000A3E0F912D21A022E8890066674FFF0A30F
:102D90007457F0A374B3F0900A8EE0FCA3E0FDA397
:102DA000E0FEA3E0FFEC127F60E4FBFA7980784755
:102DB000127E4A9006691284D17B017A0579FF124E
:102DC0009C00900A6E7401F0A37405F0A374FFF0E8
:102DD0009005FAE0FBA3E0FAA3E0F912D21A9006FC
:102DE0006674FFF0A37457F0A374BDF0900A92E0EC
:102DF000FCA3E0FDA3E0FEA3E0FFEC127F60E4FB98
:102E0000FA79807847127E4A9006691284D17B0154
:102E10007A0579FF129C00900A6E7401F0A3740584
:102E2000F0A374FFF09005FAE0FBA3E0FAA3E0F949
:102E300012D21A90066674FFF0A37457F0A374C7F9
:102E4000F0900A96E0FCA3E0FDA3E0FEA3E0FFEC17
:102E5000127F60E4FBFA79807847127E4A90066917
:102E60001284D17B017A0579FF129C00900A6E745E
:102E700001F0A37405F0A374FFF09005FAE0FBA342
:102E8000E0FAA3E0F912D21A900A6E74FFF0A3746C
:102E900057F0A374D1F09005FAE0FBA3E0FAA3E0A9
:102EA000F912D21A900AA8E064037003022FB190BD
:102EB000066674FFF0A37457F0A374B3F0900A820F
:102EC000E0FCA3E0FDA3E0FEA3E0FFEC127F60E4E2
:102ED000FBFA79807847127E4A9006691284D17B8A
:102EE000017A0579FF129C00900A6E7401F0A374B8
:102EF00005F0A374FFF09005FAE0FBA3E0FAA3E06D
:102F0000F912D21A90066674FFF0A37457F0A374F6
:102F1000BDF0900A86E0FCA3E0FDA3E0FEA3E0FF85
:102F2000EC127F60E4FBFA79807847127E4A9006C3
:102F3000691284D17B017A0579FF129C00900A6E98
:102F40007401F0A37405F0A374FFF09005FAE0FBA0
:102F5000A3E0FAA3E0F912D21A90066674FFF0A378
:102F60007457F0A374C7F0900A8AE0FCA3E0FDA3B5
:102F7000E0FEA3E0FFEC127F60E4FBFA7980784783
:102F8000127E4A9006691284D17B017A0579FF127C
:102F90009C00900A6E7401F0A37405F0A374FFF016
:102FA0009005FAE0FBA3E0FAA3E0F912D21A02308E
:102FB000B090066674FFF0A37457F0A374B3F0905A
:102FC0000A9AE0FCA3E0FDA3E0FEA3E0FFEC127F81
:102FD00060E4FBFA79807847127E4A900669128491
:102FE000D17B017A0579FF129C00900A6E7401F082
:102FF000A37405F0A374FFF09005FAE0FBA3E0FAD8
:10300000A3E0F912D21A90066674FFF0A37457F089
:10301000A374BDF0900A9EE0FCA3E0FDA3E0FEA334
:10302000E0FFEC127F60E4FBFA79807847127E4A79
:103030009006691284D17B017A0579FF129C009079
:103040000A6E7401F0A37405F0A374FFF09005FA02
:10305000E0FBA3E0FAA3E0F912D21A90066674FF2F
:10306000F0A37457F0A374C7F0900AA2E0FCA3E0A9
:10307000FDA3E0FEA3E0FFEC127F60E4FBFA7980A1
:103080007847127E4A9006691284D17B017A0579CD
:10309000FF129C00900A6E7401F0A37405F0A374F3
:1030A000FFF09005FAE0FBA3E0FAA3E0F912D21AD0
:1030B000900A6E74FFF0A37456F0A37449F0900563
:1030C000FAE0FBA3E0FAA3E0F912D21A900AA6E014
:1030D000B4031E900A6E74FFF0A37457F0A374EB50
:1030E000F09005FAE0FBA3E0FAA3E0F912D21A800F
:1030F0001C900A6E74FFF0A37458F0A37405F0904E
:1031000005FAE0FBA3E0FAA3E0F912D21A900AA7AD
:10311000E014603814605314606E1470030231A61A
:103120001470030231C4240560030231E0900A6E7A
:1031300074FFF0A37458F0A3741EF09005FAE0FB3E
:10314000A3E0FAA3E0F912D21A0231E0900A6E74F9
:10315000FFF0A37458F0A37430F09005FAE0FBA3DD
:10316000E0FAA3E0F912D21A8076900A6E74FFF0AA
:10317000A37458F0A37445F09005FAE0FBA3E0FABD
:10318000A3E0F912D21A8058900A6E74FFF0A3746B
:1031900058F0A37464F09005FAE0FBA3E0FAA3E012
:1031A000F912D21A803A900A6E74FFF0A37458F0A4
:1031B000A3747FF09005FAE0FBA3E0FAA3E0F91214
:1031C000D21A801C900A6E74FFF0A37458F0A37496
:1031D00096F09005FAE0FBA3E0FAA3E0F912D21A08
:1031E000900AA8E014602E14604914606414607F93
:1031F0002404600302328B900A6E74FFF0A37458AB
:10320000F0A374B1F09005FAE0FBA3E0FAA3E0F9B3
:1032100012D21A8076900A6E74FFF0A37458F0A34D
:1032200074CAF09005FAE0FBA3E0FAA3E0F912D229
:103230001A8058900A6E74FFF0A37458F0A374DEDD
:10324000F09005FAE0FBA3E0FAA3E0F912D21A80AD
:103250003A900A6E74FFF0A37458F0A374F6F090DD
:1032600005FAE0FBA3E0FAA3E0F912D21A801C9061
:103270000A6E74FFF0A37459F0A3741BF09005FA62
:10328000E0FBA3E0FAA3E0F912D21A900AEDE060A5
:103290001E900A6E74FFF0A37459F0A37443F0906B
:1032A00005FAE0FBA3E0FAA3E0F912D21A801C9021
:1032B0000A6E74FFF0A37459F0A37464F09005FAD9
:1032C000E0FBA3E0FAA3E0F912D21A90066674FFBD
:1032D000F0A37459F0A37484F0900AEEE0FE3395E5
:1032E000E0900669F0A3CEF07B017A0579FF129C8D
:1032F00000900A6E7401F0A37405F0A374FFF090BF
:1033000005FAE0FBA3E0FAA3E0F912D21A900A6EE4
:1033100074FFF0A37459F0A3749DF09005FAE0FBDC
:10332000A3E0FAA3E0F912D21AE49005FDF0A3F0AD
:10333000C39005FEE094039005FDE0648094804016
:10334000030233CC90066674FFF0A37457F0A374A5
:103350005EF09005FDE0FCA3E0FD2401FEE43C905E
:103360000669F0A3CEF074A92DF582740A3CF583AA
:10337000E0FF90066BE4F0A3EFF07B017A0579FFA4
:10338000129C00900A6E7401F0A37405F0A374FF00
:10339000F09005FAE0FBA3E0FAA3E0F912D21A904C
:1033A0000A6E74FFF0A37456F0A37449F09005FA06
:1033B000E0FBA3E0FAA3E0F912D21A9005FEE004C4
:1033C000F070069005FDE004F0023330900A6E7450
:1033D000FFF0A37459F0A374B2F09005FAE0FBA3D8
:1033E000E0FAA3E0F912D21AE49005FDF0A3F0C3CD
:1033F0009005FEE094039005FDE064809480400316
:103400000234B390066674FFF0A37459F0A374C835
:10341000F09005FDE0FCA3E0FD2401FEE43C9006F5
:1034200069F0A3CEF0EDAE047802C333CE33CED82C
:10343000F924ACF582740A3EF583E0FCA3E0FDA319
:10344000E0FEA3E0FF9005FDE0FAA3E024A9F582E9
:10345000740A3AF583E0F9F812844490066B1284FA
:10346000D17B017A0579FF129C00900A6E7401F0FD
:10347000A37405F0A374FFF09005FAE0FBA3E0FA53
:10348000A3E0F912D21A900A6E74FFF0A37456F0FA
:10349000A37449F09005FAE0FBA3E0FAA3E0F91267
:1034A000D21A9005FEE004F070069005FDE004F0ED
:1034B0000233EF900A6E74FFF0A37459F0A374D234
:1034C000F09005FAE0FBA3E0FAA3E0F912D21AE4C7
:1034D0009005FDF0A3F0C39005FEE094039005FD78
:1034E000E064809480400302358490066674FFF0A7
:1034F000A37459F0A374ECF09005FDE0FCA3E0FD8B
:103500002401FEE43C900669F0A3CEF0EDAE047811
:1035100002C333CE33CED8F924B8F582740A3EF50F
:1035200083E0FCA3E0FDA3E0FEA3E0FF90066B12A6
:1035300084D17B017A0579FF129C00900A6E740198
:10354000F0A37405F0A374FFF09005FAE0FBA3E08C
:10355000FAA3E0F912D21A900A6E74FFF0A374561F
:10356000F0A37449F09005FAE0FBA3E0FAA3E0F9B8
:1035700012D21A9005FEE004F070069005FDE004FA
:10358000F00234D6900A6E74FFF0A37459F0A3745D
:10359000F5F09005FAE0FBA3E0FAA3E0F912D21AE5
:1035A00090066674FFF0A3745AF0A3740DF0900AAD
:1035B000F0E0FCA3E0FDA3E0FEA3E0FF90066912AB
:1035C00084D1900AF4E0FCA3E0FDA3E0FEA3E0FFB9
:1035D00090066D1284D1900AF8E0FCA3E0FDA3E010
:1035E000FEA3E0FF9006711284D17B017A0579FF7A
:1035F000129C00900A6E7401F0A37405F0A374FF8E
:10360000F09005FAE0FBA3E0FAA3E0F912D21A90D9
:10361000066674FFF0A3745AF0A37426F0900AFCB7
:10362000E0FCA3E0FDA3E0FEA3E0FF9006691284A6
:10363000D1900B00E0FCA3E0FDA3E0FEA3E0FF902F
:10364000066D1284D1900B04E0FCA3E0FDA3E0FE24
:10365000A3E0FF9006711284D17B017A0579FF12F5
:103660009C00900A6E7401F0A37405F0A374FFF03F
:103670009005FAE0FBA3E0FAA3E0F912D21A900A4F
:103680006E74FFF0A37456F0A37449F09005FAE04D
:10369000FBA3E0FAA3E0F912D21A90066674FFF0D9
:1036A000A3745AF0A3743FF0900B84E0FF90066976
:1036B000E4F0A3EFF07B017A0579FF129C00900AF9
:1036C0006E7401F0A37405F0A374FFF09005FAE0A6
:1036D000FBA3E0FAA3E0F912D21A900A6E74FFF08D
:1036E000A37456F0A37449F09005FAE0FBA3E0FA46
:1036F000A3E0F912D21AE49005FDF0A3F0C39005FF
:10370000FEE094019005FDE064809480400302385F
:103710001590066674FFF0A3745AF0A37459F090E4
:1037200005FDE0FCA3E0FD2401FEE43C900669F009
:10373000A3CEF0EDAE047802C333CE33CED8F92455
:1037400085F582740B3EF583E0FCA3E0FDA3E0FE6B
:10375000A3E0FF9005FDE0FAA3E02469F582740B75
:103760003AF583E0F9F812844490066B1284D17B19
:10377000017A0579FF129C00900A6E7401F0A3741F
:1037800005F0A374FFF09005FAE0FBA3E0FAA3E0D4
:10379000F912D21A90066674FFF0A3745AF0A3745B
:1037A0007FF09005FDE0FAA3E0FBAE027802C333A0
:1037B000CE33CED8F9248DF582740B3EF583E0FC30
:1037C000A3E0FDA3E0FEA3E0FF74692BF582740B78
:1037D0003AF583E0F9F81284449006691284D17BAB
:1037E000017A0579FF129C00900A6E7401F0A374AF
:1037F00005F0A374FFF09005FAE0FBA3E0FAA3E064
:10380000F912D21A9005FEE004F070069005FDE072
:1038100004F00236FD90066674FFF0A3745AF0A31C
:10382000748CF0900B95E0A3E0A3E0FFA3E090067A
:1038300069CFF0A3EFF0900B99E0A3E0A3E0FFA322
:10384000E090066BCFF0A3EFF07B017A0579FF12D1
:103850009C00900A6E7401F0A37405F0A374FFF04D
:103860009005FAE0FBA3E0FAA3E0F912D21A900A5D
:103870006E74FFF0A37456F0A37449F09005FAE05B
:10388000FBA3E0FAA3E0F912D21A90066674FFF0E7
:10389000A3745AF0A374A8F0900B9DE0FFA3E090EE
:1038A0000669CFF0A3EFF07B017A0579FF129C0047
:1038B000900A6E7401F0A37405F0A374FFF09005F4
:1038C000FAE0FBA3E0FAA3E0F912D21A900A6E74B0
:1038D000FFF0A37456F0A37449F09005FAE0FBA33F
:1038E000E0FAA3E0F912D21A90066674FFF0A3740E
:1038F0005AF0A374BAF0900B9FE0FFA3E090066922
:10390000CFF0A3EFF0900BA1E0FFA3E090066BCF08
:10391000F0A3EFF07B017A0579FF129C00900A6E0C
:103920007401F0A37405F0A374FFF09005FAE0FBB6
:10393000A3E0FAA3E0F912D21A900A6E74FFF0A382
:103940007456F0A37449F09005FAE0FBA3E0FAA3E3
:10395000E0F912D21A90066674FFF0A3745AF0A32D
:1039600074DCF0900BA4E0FCA3E0FDA3E0FEA3E078
:10397000FF9006691284D1900BA8E0FCA3E0FDA3A0
:10398000E0FEA3E0FF90066D1284D17B017A0579F9
:10399000FF129C00900A6E7401F0A37405F0A374EA
:1039A000FFF09005FAE0FBA3E0FAA3E0F912D21AC7
:1039B000900A6E74FFF0A37456F0A37449F090055A
:1039C000FAE0FBA3E0FAA3E0F912D21A900BA3E00D
:1039D000601E900A6E74FFF0A3745BF0A37400F095
:1039E0009005FAE0FBA3E0FAA3E0F912D21A801CDA
:1039F000900A6E74FFF0A3745BF0A3741BF0900543
:103A0000FAE0FBA3E0FAA3E0F912D21A900666747A
:103A1000FFF0A3745BF0A37435F0900BACE0FF9063
:103A20000669E4F0A3EFF07B017A0579FF129C00B0
:103A3000900A6E7401F0A37405F0A374FFF0900572
:103A4000FAE0FBA3E0FAA3E0F912D21A900A6E742E
:103A5000FFF0A37456F0A37449F09005FAE0FBA3BD
:103A6000E0FAA3E0F912D21A90066674FFF0A3748C
:103A70005BF0A37447F0900BCEE0FCA3E0FDA3E065
:103A8000FEA3E0FF9006691284D17B017A0579FFDD
:103A9000129C00900A6E7401F0A37405F0A374FFE9
:103AA000F09005FAE0FBA3E0FAA3E0F912D21A9035
:103AB0000A6E74FFF0A37456F0A37449F09005FAEF
:103AC000E0FBA3E0FAA3E0F912D21A90066674FFB5
:103AD000F0A3745BF0A37460F0E4FFFE7D7A7C4495
:103AE000900BD2E0F8A3E0F9A3E0FAA3E0FB127D8B
:103AF000419006691284D17B017A0579FF129C00FE
:103B0000900A6E7401F0A37405F0A374FFF09005A1
:103B1000FAE0FBA3E0FAA3E0F912D21A900A6E745D
:103B2000FFF0A37456F0A37449F09005FAE0FBA3EC
:103B3000E0FAA3E0F912D21A90066674FFF0A374BB
:103B40005BF0A37486F0900BCAE0FCA3E0FDA3E059
:103B5000FEA3E0FF900AA9E0F9F8128444900669F8
:103B6000EEF0A3EFF07B017A0579FF129C00900A3A
:103B70006E7401F0A37405F0A374FFF09005FAE0F1
:103B8000FBA3E0FAA3E0F912D21A900A6E74FFF0D8
:103B9000A37456F0A37449F09005FAE0FBA3E0FA91
:103BA000A3E0F912D21A90066674FFF0A3745BF0DA
:103BB000A37498F0900BD6E0FCA3E0FDA3E0FEA375
:103BC000E0FF9006691284D17B017A0579FF129C8F
:103BD00000900A6E7401F0A37405F0A374FFF090D6
:103BE00005FAE0FBA3E0FAA3E0F912D21A900A6EFC
:103BF00074FFF0A37456F0A37449F09005FAE0FB4B
:103C0000A3E0FAA3E0F912D21A90066674FFF0A3BB
:103C1000745BF0A374A7F0900C12E0A3E0A3E0FFA4
:103C2000A3E0900669CFF0A3EFF07B017A0579FF5E
:103C3000129C00900A6E7401F0A37405F0A374FF47
:103C4000F09005FAE0FBA3E0FAA3E0F912D21A9093
:103C50000A6E74FFF0A37456F0A37449F09005FA4D
:103C6000E0FBA3E0FAA3E0F912D21A90066674FF13
:103C7000F0A3745BF0A374B5F0900CDAE0FFA3E05E
:103C8000900669CFF0A3EFF07B017A0579FF129CD3
:103C900000900A6E7401F0A37405F0A374FFF09015
:103CA00005FAE0FBA3E0FAA3E0F912D21A900A6E3B
:103CB00074FFF0A37456F0A37449F09005FAE0FB8A
:103CC000A3E0FAA3E0F912D21A90066674FFF0A3FB
:103CD000745BF0A374BFF0900CE2E0A3E0A3E0FFFC
:103CE000A3E0900669CFF0A3EFF07B017A0579FF9E
:103CF000129C00900A6E7401F0A37405F0A374FF87
:103D0000F09005FAE0FBA3E0FAA3E0F912D21A90D2
:103D10000A6E74FFF0A37456F0A37449F09005FA8C
:103D2000E0FBA3E0FAA3E0F912D21A90066674FF52
:103D3000F0A3745BF0A374CBF0900CE0E0FF90066E
:103D400069E4F0A3EFF0900CE1E0FF90066BE4F083
:103D5000A3EFF07B017A0579FF129C00900A6E7444
:103D600001F0A37405F0A374FFF09005FAE0FBA343
:103D7000E0FAA3E0F912D21A900A6E74FFF0A3746D
:103D800056F0A37449F09005FAE0FBA3E0FAA3E033
:103D9000F912D21A90066674FFF0A3745BF0A37454
:103DA000E1F0900C1BE0F8A3E0F9A3E0FAA3E0FB3C
:103DB000900CE6E0FCA3E0FDA3E0FEA3E0C39BFFC4
:103DC000EE9AFEED99FDEC98FC9006691284D17B89
:103DD000017A0579FF129C00900A6E7401F0A374B9
:103DE00005F0A374FFF09005FAE0FBA3E0FAA3E06E
:103DF000F912D21A900A6E74FFF0A37456F0A374ED
:103E000049F09005FAE0FBA3E0FAA3E0F912D21A18
:103E10002290001CEEF0A3EFF0781E7C007D017B69
:103E2000FF7A6179C87E067FD71286619006F574A5
:103E300006F0A374D7F078FB7C067D017BFF7A68DF
:103E4000799F7E007F0F128661780A7C077D017B57
:103E5000FF7A6879AE7E007F1C12866178267C0727
:103E60007D017BFF7A6879CA7E007F1B12866178AC
:103E7000417C077D017BFF7A6879E57E007F1C121B
:103E80008661785D7C077D017BFF7A6979017E0020
:103E90007F22128661787F7C077D017BFF7A6979BA
:103EA000237E007F2712866178A67C077D017BFF39
:103EB0007A69794A7E007F1112866178B77C077D26
:103EC000017BFF7A69795B7E007F1912866178D069
:103ED0007C077D017BFF7A6979747E007F111286F1
:103EE0006178E17C077D017BFF7A6979857E007FBF
:103EF0001C12866178FD7C077D017BFF7A6979A1C0
:103F00007E007F1D128661781A7C087D017BFF7A16
:103F10006979BE7E007F1B12866178357C087D0141
:103F20007BFF7A6979D97E007F1412866178497C9B
:103F3000087D017BFF7A6979ED7E007F251286611D
:103F4000786E7C087D017BFF7A6A79127E007F158E
:103F500012866178837C087D017BFF7A6A79277EEF
:103F6000007F1512866178987C087D017BFF7A6A54
:103F7000793C7E007F1412866178AC7C087D017BE1
:103F8000FF7A6A79507E007F2412866178D07C089F
:103F90007D017BFF7A6A79747E007F1912866178D1
:103FA000E97C087D017BFF7A6A798D7E007F18129B
:103FB000866178017C097D017BFF7A6A79A57E00A4
:103FC0007F1412866178157C097D017BFF7A6A79FE
:103FD000B97E007F2412866178397C097D017BFFE0
:103FE0007A6A79DD7E007F23128661785C7C097DA8
:103FF000017BFF7A6B79007E007F11128661786DFC
:104000007C097D017BFF7A6B79117E007F1512861A
:104010006178827C097D017BFF7A6B79267E007F47
:104020006312866178E57C097D017BFF7A6B798973
:104030007E007F5C12866178417C0A7D017BFF7A7D
:104040006B79E57E007F2A1286617B017A0679FB17
:1040500012DF248F2C7B017A07790A12DF248F2D3F
:104060007B017A07792612DF248F2E7B017A07796C
:10407000A612DF248F2F7B017A0779B712DF248FF6
:10408000307B017A0779D012DF248F317B017A07E8
:1040900079FD12DF248F327B017A08791A12DF242E
:1040A0008F337B017A08793512DF248F347B017AD4
:1040B00008796E12DF248F357B017A08798312DF4D
:1040C000248F367B017A08799812DF248F377B01A1
:1040D0007A0879D012DF248F387B017A09796D1242
:1040E000DF248F397B017A09798212DF248F3A7BB2
:1040F000017A0979E512DF248F3B7B017A0A794145
:1041000012DF248F3C7B017A09790112DF248F3D75
:104110007B017A09791512DF248F3E7B017A0979B8
:104120003912DF248F3F7B017A09795C12DF248FFB
:104130004090001E740CF0A37419F090001CE0FE77
:10414000A3E0FFEE60030255A6EFB41A004003029D
:1041500055A6904159F82828730241A7025034020D
:10416000503D02510D0251DD0251F00251F902524F
:104170000202522D0252AB0252E80252F10253C720
:1041800002544D02545D0254660254850254AE023C
:1041900054B70254CB0254D40254DD02550F0255D9
:1041A0002402555702556C9000207402F0A314F0BD
:1041B000900A75E0900022F0852C2AE52A6032FFF3
:1041C000C3E52C9FFFE49400FE74FB2FF582740678
:1041D0003EF583E0FFE52AFDE52CC39DFDE4940058
:1041E000FC74232DF58274003CF583EFF0152A80D2
:1041F000CA9000527407F0A37403F0900AA8E06418
:10420000036068900A76E0FCA3E0FDA3E0FEA3E073
:10421000FFEC127F60E4FBFA79807847127E4A90C7
:1042200000541284D1900A7AE0FCA3E0FDA3E0FEE2
:10423000A3E0FFEC127F60E4FBFA79807847127EFE
:104240004A9000581284D1900A7EE0FCA3E0FDA3BE
:10425000E0FEA3E0FFEC127F60E4FBFA7980784790
:10426000127E4A90005C1284D18066900A8EE0FC37
:10427000A3E0FDA3E0FEA3E0FFEC127F60E4FBFA05
:1042800079807847127E4A9000541284D1900A9225
:10429000E0FCA3E0FDA3E0FEA3E0FFEC127F60E4FE
:1042A000FBFA79807847127E4A9000581284D190A8
:1042B0000A96E0FCA3E0FDA3E0FEA3E0FFEC127F82
:1042C00060E4FBFA79807847127E4A90005C1284A1
:1042D000D1852D2AE52A6032FFC3E52D9FFFE494A6
:1042E00000FE740A2FF58274073EF583E0FFE52A8D
:1042F000FDE52DC39DFDE49400FC74602DF58274F2
:10430000003CF583EFF0152A80CA9000847407F012
:10431000A37403F0900AA8E064036068900A82E046
:10432000FCA3E0FDA3E0FEA3E0FFEC127F60E4FB52
:10433000FA79807847127E4A9000861284D1900ADA
:1043400086E0FCA3E0FDA3E0FEA3E0FFEC127F60AB
:10435000E4FBFA79807847127E4A90008A1284D171
:10436000900A8AE0FCA3E0FDA3E0FEA3E0FFEC12CC
:104370007F60E4FBFA79807847127E4A90008E12C3
:1043800084D18066900A9AE0FCA3E0FDA3E0FEA33E
:10439000E0FFEC127F60E4FBFA79807847127E4AF6
:1043A0009000861284D1900A9EE0FCA3E0FDA3E079
:1043B000FEA3E0FFEC127F60E4FBFA7980784712FD
:1043C0007E4A90008A1284D1900AA2E0FCA3E0FD0C
:1043D000A3E0FEA3E0FFEC127F60E4FBFA798078B3
:1043E00047127E4A90008E1284D1852E2AE52A60DB
:1043F00032FFC3E52E9FFFE49400FE74262FF58262
:1044000074073EF583E0FFE52AFDE52EC39DFDE43C
:104410009400FC74922DF58274003CF583EFF01546
:104420002A80CAE49000B6F0A304F0900AA6E090B7
:1044300000B8F0900AA6601C900A6E74FFF0A37496
:1044400055F0A374A7F07B017A07794112D21A754F
:104450002B1C801A900A6E74FFF0A37455F0A3749D
:10446000ADF07B017A07794112D21A752B1B852B8F
:104470002AE52A6032FFC3E52B9FFFE49400FE7417
:10448000412FF58274073EF583E0FFE52AFDE52B19
:10449000C39DFDE49400FC74B92DF58274003CF5D5
:1044A00083EFF0152A80CA74B9252BF582E4340015
:1044B000F5837403F0E49000E8F0A304F0900AA7F9
:1044C000E09000EAF0900AA714603314604C146086
:1044D0006514607E14700302456E24056003024576
:1044E00088900A6E74FFF0A37455F0A374B2F07B49
:1044F000017A07795D12D21A752B14024588900A49
:104500006E74FFF0A37455F0A374B8F07B017A07C2
:10451000795D12D21A752B17806E900A6E74FFF0B7
:10452000A37455F0A374C1F07B017A07795D12D2B0
:104530001A752B218052900A6E74FFF0A37455F007
:10454000A374D4F07B017A07795D12D21A752B1D02
:104550008036900A6E74FFF0A37455F0A374E3F0F4
:104560007B017A07795D12D21A752B19801A900A8D
:104570006E74FFF0A37455F0A374EEF07B017A071C
:10458000795D12D21A752B22852B2AE52A6032FF1B
:10459000C3E52B9FFFE49400FE745D2FF582740742
:1045A0003EF583E0FFE52AFDE52BC39DFDE4940085
:1045B000FC74EB2DF58274003CF583EFF0152A8036
:1045C000CA74EB252BF582E43400F5837401F0E422
:1045D00090011AF0A304F0900AA8E090011CF0905A
:1045E0000AA814602C14604514605E1460772404DB
:1045F000600302467F900A6E74FFF0A37456F0A326
:104600007402F07B017A07797F12D21A752B1B8016
:104610006E900A6E74FFF0A37456F0A3740DF07BD5
:10462000017A07797F12D21A752B168052900A6E82
:1046300074FFF0A37456F0A37413F07B017A07792A
:104640007F12D21A752B1A8036900A6E74FFF0A36F
:104650007456F0A3741DF07B017A07797F12D21A89
:10466000752B27801A900A6E74FFF0A37456F0A37E
:104670007434F07B017A07797F12D21A752B248566
:104680002B2AE52A6032FFC3E52B9FFFE49400FE4E
:10469000747F2FF58274073EF583E0FFE52AFDE580
:1046A0002BC39DFDE49400FC741D2DF58274013C28
:1046B000F583EFF0152A80CA741D252BF582E434AA
:1046C00001F5837402F090014CF0A304F0E4F52AA4
:1046D000E52AC39403501E74A9252AF582E4340AFE
:1046E000F583E0FF744E252AF582E43401F583EF6B
:1046F000F0052A80DB852F2AE52A6032FFC3E52FEB
:104700009FFFE49400FE74A62FF58274073EF583A4
:10471000E0FFE52AFDE52FC39DFDE49400FC745104
:104720002DF58274013CF583EFF0152A80CA9001C3
:104730007E7403F0A3F0E4F52AE52AC39403504401
:10474000E52A25E025E024ACF582E4340AF583E08F
:10475000FCA3E0FDA3E0FEA3E0FF74A9252AF582F7
:10476000E4340AF583E0F9F812844475F002E52A8E
:10477000A42480F582E5F03401F583EEF0A3EFF098
:10478000052A80B585302AE52A6032FFC3E5309FCF
:10479000FFE49400FE74B72FF58274073EF583E0C2
:1047A000FFE52AFDE530C39DFDE49400FC74862DF1
:1047B000F58274013CF583EFF0152A80CA9001B0B0
:1047C0007407F0A37403F0E4F52AE52AC3940350B8
:1047D00031E52A25E025E024B8F582E4340AF583A2
:1047E000E0FCA3E0FDA3E0FEA3E0FF75F004E52AF2
:1047F000A424B2F582E5F03401F5831284D1052AB0
:1048000080C885312AE52A6032FFC3E5319FFFE485
:104810009400FE74D02FF58274073EF583E0FFE527
:104820002AFDE531C39DFDE49400FC74BE2DF582A4
:1048300074013CF583EFF0152A80CAE49001E2F0A0
:10484000A304F0900AC4E09001E4F0900AC4601C54
:10485000900A6E74FFF0A37455F0A374A7F07B0167
:104860007A0779E112D21A752B1C801A900A6E749D
:10487000FFF0A37455F0A374ADF07B017A0779E1E2
:1048800012D21A752B1B852B2AE52A6032FFC3E54D
:104890002B9FFFE49400FE74E12FF58274073EF530
:1048A00083E0FFE52AFDE52BC39DFDE49400FC7445
:1048B000E52DF58274013CF583EFF0152A80CA746A
:1048C000E5252BF582E43401F5837403F09002149E
:1048D0007405F0A37402F0E4F52AE52AC3940140BC
:1048E00003024965E52A25E025E024C5F582E43484
:1048F0000AF583E0FCA3E0FDA3E0FEA3E0FF74A9BA
:10490000252AF582E4340AF583E0F9F81284447527
:10491000F008E52AA42416F582E5F03402F58312A6
:1049200084D1E52A25E025E024CDF582E4340AF59A
:1049300083E0FCA3E0FDA3E0FEA3E0FF74A9252A29
:10494000F582E4340AF583E0F9F812844475F0083E
:10495000E52AA4241AF582E5F03402F5831284D105
:10496000052A0248DA85322AE52A6032FFC3E53299
:104970009FFFE49400FE74FD2FF58274073EF583DB
:10498000E0FFE52AFDE532C39DFDE49400FC741EC2
:104990002DF58274023CF583EFF0152A80CA90024F
:1049A000467405F0A37402F0900AD9E0FCA3E0FD80
:1049B000A3E0FEA3E0FF9002481284D1900AD5E064
:1049C000FCA3E0FDA3E0FEA3E0FF90024C1284D123
:1049D00085332AE52A6032FFC3E5339FFFE4940064
:1049E000FE741A2FF58274083EF583E0FFE52AFD78
:1049F000E533C39DFDE49400FC74502DF5827402F0
:104A00003CF583EFF0152A80CA9002787403F0A376
:104A10007401F0900ADDE0FFA3E090027ACFF0A3EA
:104A2000EFF085342AE52A6032FFC3E5349FFFE4C6
:104A30009400FE74352FF58274083EF583E0FFE59F
:104A40002AFDE534C39DFDE49400FC747C2DF582C1
:104A500074023CF583EFF0152A80CAE49002AAF0B4
:104A6000A304F0900AE3E09002ACF0900AE3601C2B
:104A7000900A6E74FFF0A37455F0A374A7F07B0145
:104A80007A08794912D21A752B25801A900A6E7409
:104A9000FFF0A37455F0A374ADF07B017A08794957
:104AA00012D21A752B24852B2AE52A6032FFC3E522
:104AB0002B9FFFE49400FE74492FF58274083EF5A5
:104AC00083E0FFE52AFDE52BC39DFDE49400FC7423
:104AD000AD2DF58274023CF583EFF0152A80CA747F
:104AE000AD252BF582E43402F5837403F09002DCEB
:104AF00004F0A37402F0900ADFE0FFA3E09002DE6E
:104B0000CFF0A3EFF0900AE1E0FFA3E09002E0CF46
:104B1000F0A3EFF085352AE52A6032FFC3E5359F23
:104B2000FFE49400FE746E2FF58274083EF583E076
:104B3000FFE52AFDE535C39DFDE49400FC74E22DFC
:104B4000F58274023CF583EFF0152A80CA90030EBB
:104B50007406F0A37402F0900AE4E0FCA3E0FDA365
:104B6000E0FEA3E0FF9003101284D1900AE8E0FC7D
:104B7000A3E0FDA3E0FEA3E0FF9003141284D1851F
:104B8000362AE52A6032FFC3E5369FFFE49400FE33
:104B900074832FF58274083EF583E0FFE52AFDE576
:104BA00036C39DFDE49400FC74182DF58274033C1B
:104BB000F583EFF0152A80CA9003407402F0A31425
:104BC000F0900AECE0900342F085372AE52A603243
:104BD000FFC3E5379FFFE49400FE74982FF58274BD
:104BE000083EF583E0FFE52AFDE537C39DFDE4942B
:104BF00000FC74432DF58274033CF583EFF0152A15
:104C000080CAE4900372F0A304F0900AEDE09003F0
:104C100074F0900AED601C900A6E74FFF0A3745556
:104C2000F0A374A7F07B017A0879AC12D21A752B25
:104C300024801A900A6E74FFF0A37455F0A374AD2B
:104C4000F07B017A0879AC12D21A752B23852B2AB6
:104C5000E52A6032FFC3E52B9FFFE49400FE74ACAD
:104C60002FF58274083EF583E0FFE52AFDE52BC3AE
:104C70009DFDE49400FC74752DF58274033CF5836E
:104C8000EFF0152A80CA7475252BF582E43403F5FC
:104C9000837403F09003A47401F0A3F0900AEEE093
:104CA0009003A6F085382AE52A6032FFC3E5389FD5
:104CB000FFE49400FE74D02FF58274083EF583E083
:104CC000FFE52AFDE538C39DFDE49400FC74A72DA3
:104CD000F58274033CF583EFF0152A80CAE4900353
:104CE000D6F0A304F0900AEFE09003D8F0900AEF1A
:104CF000601C900A6E74FFF0A37455F0A374A7F0C3
:104D00007B017A0879E912D21A752B18801A900A59
:104D10006E74FFF0A37455F0A374ADF07B017A08B4
:104D200079E912D21A752B17852B2AE52A6032FFF2
:104D3000C3E52B9FFFE49400FE74E92FF58274080D
:104D40003EF583E0FFE52AFDE52BC39DFDE49400DD
:104D5000FC74D92DF58274033CF583EFF0152A809D
:104D6000CA74D9252BF582E43403F5837403F090DB
:104D700004087405F0A37401F0900B0AE0FCA3E0B2
:104D8000FDA3E0FEA3E0FF900AA9E0F9F812844435
:104D900090040A1284D1853D2AE52A6032FFC3E5DA
:104DA0003D9FFFE49400FE74012FF58274093EF5E7
:104DB00083E0FFE52AFDE53DC39DFDE49400FC741E
:104DC0000E2DF58274043CF583EFF0152A80CA900D
:104DD000043A7407F0A37401F0900B0EE0FCA3E01A
:104DE000FDA3E0FEA3E0FF90043C1284D1853E2A9F
:104DF000E52A6032FFC3E53E9FFFE49400FE741590
:104E00002FF58274093EF583E0FFE52AFDE53EC3F8
:104E10009DFDE49400FC74402DF58274043CF58300
:104E2000EFF0152A80CA90046C7407F0A37401F0A7
:104E3000E4FFFE7D7A7C44900B12E0F8A3E0F9A336
:104E4000E0FAA3E0FB127D4190046E1284D1853F0D
:104E50002AE52A6032FFC3E53F9FFFE49400FE7419
:104E6000392FF58274093EF583E0FFE52AFDE53F21
:104E7000C39DFDE49400FC74722DF58274043CF52E
:104E800083EFF0152A80CA90049E7407F0A3740182
:104E9000F0900B16E0FCA3E0FDA3E0FEA3E0FF9082
:104EA00004A01284D185402AE52A6032FFC3E54080
:104EB0009FFFE49400FE745C2FF58274093EF58335
:104EC000E0FFE52AFDE540C39DFDE49400FC74A4E9
:104ED0002DF58274043CF583EFF0152A80CA900406
:104EE000D07407F0A314F0E4F52AE52AC394065021
:104EF00031E52A25E025E024F0F582E4340AF58343
:104F0000E0FCA3E0FDA3E0FEA3E0FF75F004E52ACA
:104F1000A424D2F582E5F03404F5831284D1052A65
:104F200080C885392AE52A6032FFC3E5399FFFE44E
:104F30009400FE746D2FF58274093EF583E0FFE561
:104F40002AFDE539C39DFDE49400FC74EA2DF58249
:104F500074043CF583EFF0152A80CA853A2AE52AC5
:104F60006032FFC3E53A9FFFE49400FE74822FF5A0
:104F70008274093EF583E0FFE52AFDE53AC39DFD15
:104F8000E49400FC74022DF58274053CF583EFF087
:104F9000152A80CA853B2AE52A6032FFC3E53B9F7C
:104FA000FFE49400FE74E52FF58274093EF583E07A
:104FB000FFE52AFDE53BC39DFDE49400FC74982DBC
:104FC000F58274053CF583EFF0152A80CA853C2AEA
:104FD000E52A6032FFC3E53C9FFFE49400FE744184
:104FE0002FF582740A3EF583E0FFE52AFDE53CC318
:104FF0009DFDE49400FC742E2DF58274063CF5832F
:10500000EFF0152A80CA7B017A00791E9006F5E040
:10501000A3E014FD12DAD69006F5E0FCA3E0FD242F
:105020001DF58274003CF583EFF07B017A00791E58
:1050300012C65422900C3FE0900B35F022900AA843
:10504000E064036064E4FFFE7D807C47900C3FE0F9
:10505000F8A3E0F9A3E0FAA3E0FB127D41127F9EE2
:10506000900B361284D1E4FFFE7D807C47900C4388
:10507000E0F8A3E0F9A3E0FAA3E0FB127D41127F80
:105080009E900B3A1284D1E4FFFE7D807C47900C09
:1050900047E0F8A3E0F9A3E0FAA3E0FB127D411298
:1050A0007F9E900B3E1284D122E4FFFE7D807C47E0
:1050B000900C3FE0F8A3E0F9A3E0FAA3E0FB127D37
:1050C00041127F9E900B4E1284D1E4FFFE7D807CC6
:1050D00047900C43E0F8A3E0F9A3E0FAA3E0FB1249
:1050E0007D41127F9E900B521284D1E4FFFE7D80A1
:1050F0007C47900C47E0F8A3E0F9A3E0FAA3E0FBBB
:10510000127D41127F9E900B561284D122900AA8E4
:10511000E064036064E4FFFE7D807C47900C3FE028
:10512000F8A3E0F9A3E0FAA3E0FB127D41127F9E11
:10513000900B421284D1E4FFFE7D807C47900C43AB
:10514000E0F8A3E0F9A3E0FAA3E0FB127D41127FAF
:105150009E900B461284D1E4FFFE7D807C47900C2C
:1051600047E0F8A3E0F9A3E0FAA3E0FB127D4112C7
:105170007F9E900B4A1284D122E4FFFE7D807C4703
:10518000900C3FE0F8A3E0F9A3E0FAA3E0FB127D66
:1051900041127F9E900B5A1284D1E4FFFE7D807CE9
:1051A00047900C43E0F8A3E0F9A3E0FAA3E0FB1278
:1051B0007D41127F9E900B5E1284D1E4FFFE7D80C4
:1051C0007C47900C47E0F8A3E0F9A3E0FAA3E0FBEA
:1051D000127D41127F9E900B621284D122900C3F6F
:1051E000E06007900B667403F022E4900B66F022F7
:1051F000900C3FE0900B67F022900C3FE0900B6822
:10520000F022E4F52AE52AC3940340030255A6746C
:105210003F252AF582E4340CF583E0FF7469252AE2
:10522000F582E4340BF583EFF0052A80D8E4F52A03
:10523000E52AC394035071E52A25E0243FF582E472
:10524000340CF583E0FEA3E0FFEE3395E0FDFCE5D2
:105250002A25E025E0246CF582E4340BF5831284E2
:10526000D1E52A25E025E0246CF582E4340BF583B2
:10527000C083C082E0FCA3E0FDA3E0FEA3E0FF74D6
:1052800069252AF582E4340BF583E0F9F812845895
:10529000D082D0831284D1740F252AF582E4340D94
:1052A000F583E4F0052A8088D20A22E4F52AE52A6B
:1052B000C3940340030255A6E52A25E025E0243FD8
:1052C000F582E4340CF583E0FCA3E0FDA3E0FEA34B
:1052D000E0FFE52A25E025E02478F582E4340BF5AB
:1052E000831284D1052A80C6900C3FE0900B84F095
:1052F00022E4F52AE52AC3940240030255A6E52AD2
:1053000075F008A4243FF582E4340CF583E0FCA397
:10531000E0FDA3E0FEA3E0FFE52A25E025E02485EB
:10532000F582E4340BF5831284D1E52A75F008A4E4
:105330002443F582E4340CF583E0FCA3E0FDA3E014
:10534000FEA3E0FFE52A25E025E0248DF582E43484
:105350000BF5831284D1E52A25E025E02485F5822A
:10536000E4340BF583C083C082E0FCA3E0FDA3E03E
:10537000FEA3E0FF7469252AF582E4340BF583E08F
:10538000F9F8128458D082D0831284D1E52A25E01E
:1053900025E0248DF582E4340BF583C083C082E0E0
:1053A000FCA3E0FDA3E0FEA3E0FF7469252AF582DB
:1053B000E4340BF583E0F9F8128458D082D08312DC
:1053C00084D1052A0252F4900C3FE0FCA3E0FDA337
:1053D000E0FEA3E0FF9006F71284D1E4FFFEFDFC9F
:1053E0009006F7E0F8A3E0F9A3E0FAA3E0FBD312FC
:1053F000840A50149006F7E0FCA3E0FDA3E0FEA3AE
:10540000E0FF900B991284D1900C43E0FCA3E0FDE7
:10541000A3E0FEA3E0FF9006F71284D1E4FFFEFDB7
:10542000FC9006F7E0F8A3E0F9A3E0FAA3E0FBC3E1
:1054300012840A50030255A69006F7E0FCA3E0FD93
:10544000A3E0FEA3E0FF900B951284D122900C3FC5
:10545000E0FFA3E0900B9DCFF0A3EFF022900C3F74
:10546000E0900BA3F022900C3FE0FFA3E0900B9F95
:10547000CFF0A3EFF0900C41E0FFA3E0900BA1CFA1
:10548000F0A3EFF022900C3FE0FCA3E0FDA3E0FED0
:10549000A3E0FF900BA41284D1900C43E0FCA3E0A6
:1054A000FDA3E0FEA3E0FF900BA81284D122900C94
:1054B0003FE0900BACF022900C3FE0FF6007900BB8
:1054C000AD7401F022E4900BADF022900C3FE0901F
:1054D0000BAEF022900C3FE0900BAFF022900C3F0F
:1054E000E0FCA3E0FDA3E0FEA3E0FF900BCA128462
:1054F000D1900BCAE0FCA3E0FDA3E0FEA3E0FF9087
:105500000B69E0F9F8128458900BCA1284D12290EA
:105510000C3FE0FCA3E0FDA3E0FEA3E0FF900BCE78
:105520001284D122900C3FE0FCA3E0FDA3E0FEA397
:10553000E0FF900BD21284D1900BD2E0FCA3E0FDEF
:10554000A3E0FEA3E0FFE4FBFA797A7844127E4AF6
:10555000900BD21284D122900C3FE0FCA3E0FDA37B
:10556000E0FEA3E0FF900BD61284D122E4F52AE5F9
:105570002AC394065030E52A25E025E0243FF58231
:10558000E4340CF583E0FCA3E0FDA3E0FEA3E0FF20
:10559000E52A25E025E024B0F582E4340BF58312FA
:1055A00084D1052A80C922205945530000204E4F3E
:1055B00000002055736200002048616E646C650035
:1055C0000020454D472070726F706F7274696F6E66
:1055D000616C000020454D4720696E7465677261FB
:1055E0006C000020454D47204643465300002045AF
:1055F0004D47204643465320416476616E6365649F
:10560000000020506F736974696F6E00002050575E
:105610004D00002043757272656E74000020506F5B
:10562000736974696F6E20616E6420437572726570
:105630006E74000020506F736974696F6E20616E24
:105640006420526573740000000D0A004669726D93
:10565000776172652076657273696F6E3A200053C8
:10566000482D50524F2076362E312E31202D204D90
:10567000617374657220772F5265737420706F7335
:105680006974696F6E002E0D0A0D0A004445564973
:10569000434520494E464F0D0A0049443A202564AF
:1056A0000D0A0050574D2072657363616C696E6717
:1056B0002061637469766174696F6E3A20005945A0
:1056C000530A004E4F0A0050574D204C696D6974C3
:1056D0003A2025640D0A004D4F544F5220494E4642
:1056E0004F0D0A004D6F746F7220726566657265AA
:1056F0006E636500202D2043757272656E74733A77
:105700002000202D2050776D3A2000202D20506F52
:10571000736974696F6E3A2000256420004D6F74C0
:105720006F7220656E61626C65643A200059455362
:105730000D0A004E4F0D0A000D0A4D4541535552BA
:10574000454D454E545320494E464F0D0A00536572
:105750006E736F722076616C75653A0D0A00256470
:10576000202D3E20256400566F6C746167652028EB
:105770006D56293A20256C640043757272656E740B
:1057800020286D41293A20256C64000D0A444556B5
:1057900049434520504152414D45544552530D0A0D
:1057A0000050494420436F6E74726F6C6C65723A9E
:1057B0000D0A0050202D3E20256620200049202D76
:1057C0003E20256620200044202D3E2025660D0A1F
:1057D0000043757272656E742050494420436F6EA9
:1057E00074726F6C6C65723A0D0A00537461727456
:1057F00075702061637469766174696F6E3A2059BF
:1058000045530D0A0053746172747570206163749E
:1058100069766174696F6E3A204E4F0D0A00496EC9
:10582000707574206D6F64653A205553420D0A00FF
:10583000496E707574206D6F64653A2048616E64BE
:105840006C650D0A00496E707574206D6F64653A61
:1058500020454D472070726F706F7274696F6E6172
:105860006C0D0A00496E707574206D6F64653A2086
:10587000454D4720696E74656772616C0D0A004979
:105880006E707574206D6F64653A20454D472046F3
:105890004346530D0A00496E707574206D6F646540
:1058A0003A20454D472046434653204144560D0A71
:1058B00000436F6E74726F6C206D6F64653A205098
:1058C0006F736974696F6E0D0A00436F6E74726F47
:1058D0006C206D6F64653A2050574D0D0A00436F80
:1058E0006E74726F6C206D6F64653A2043757272CE
:1058F000656E740D0A00436F6E74726F6C206D6F6D
:1059000064653A20506F736974696F6E20616E64CC
:105910002043757272656E740D0A00436F6E747267
:105920006F6C206D6F64653A20506F736974696F96
:105930006E20616E64205265737420636865636BCA
:105940000D0A004162736F6C75746520656E636F3C
:1059500064657220706F736974696F6E3A2059457F
:10596000530D0A004162736F6C75746520656E6338
:105970006F64657220706F736974696F6E3A204E40
:105980004F0D0A004D6F746F722D48616E646C6527
:1059900020526174696F3A2025640D0A0053656EC8
:1059A000736F72207265736F6C7574696F6E3A0DE8
:1059B0000A004D6561737572656D656E74204F6682
:1059C000667365743A0D0A002564202D3E20256C0F
:1059D00064004D6561737572656D656E74204D75FB
:1059E0006C7469706C6965723A0D0A002564202D2B
:1059F0003E2025660043757272656E74206C6F6F71
:105A00006B7570207461626C653A0D0A00705B30D2
:105A10005D202D20705B325D3A2025662C202566A6
:105A20002C2025660A00705B335D202D20705B35CD
:105A30005D3A2025662C2025662C2025660A00501C
:105A40006F736974696F6E206C696D69742061632E
:105A5000746976653A20256400506F736974696FC4
:105A60006E206C696D6974206D6F746F722025648F
:105A70003A20696E66202D3E20256C64202000733C
:105A80007570202D3E20256C640D0A004D61782034
:105A90007374657020706F7320616E64206E65672B
:105AA0003A2025642025640043757272656E742067
:105AB0006C696D69743A20256400454D472074680F
:105AC000726573686F6C6473205B30202D203130F9
:105AD00032345D3A2025752C20257500454D472030
:105AE0006D61782076616C756573205B30202D20A8
:105AF000343039365D3A20256C752C20256C7500C4
:105B000043616C6962726174696F6E20656E616277
:105B10006C65643A205945530D0A0043616C696213
:105B2000726174696F6E20656E61626C65643A20A3
:105B30004E4F0D0A00454D47206D6178207370650A
:105B400065643A20256400526573742074696D653C
:105B50002064656C617920286D73293A20256600E0
:105B6000526573742076656C6F6369747920636C19
:105B70006F7375726520287469636B732F73656327
:105B8000293A202566005265737420706F7369741A
:105B9000696F6E3A202564005265737420726174D7
:105BA000696F3A2025660048616E64206D656173F7
:105BB0003A20256400436865636B3A2025640043FE
:105BC0006865636B20353A20256400436865636B24
:105BD000203320616E6420343A2025642C20256413
:105BE0000064656275673A20256C6400000000005F
:105BF00000000000000000000000000000000000A5
:105C00000000000000000000000000000000000094
:105C10000000000000000000000000000000000084
:105C20000000000000000000000000000000000074
:1068900000000000000000000000000000000031C7
:1068A000202D204465766963652049443A003220F2
:1068B0002D20506F736974696F6E20504944205BBE
:1068C000502C20492C20445D3A0033202D20437564
:1068D0007272656E7420504944205B502C20492C04
:1068E00020445D3A0034202D205374617274757019
:1068F0002041637469766174696F6E3A000000002C
:106900000035202D20496E707574206D6F64653AD6
:106910000000000000000000000000000000000077
:1069200000000036202D20436F6E74726F6C206D56
:106930006F64653A000000000000000000000000E5
:106940000000000000000000000037202D205265EC
:10695000736F6C7574696F6E733A0038202D204D1B
:106960006561737572656D656E74204F66667365DB
:1069700074733A0039202D204D756C7469706C6900
:106980006572733A003130202D20506F732E206CC9
:10699000696D6974206163746976653A000000006E
:1069A000003131202D20506F732E206C696D697479
:1069B00073205B696E662C207375705D3A0031320E
:1069C000202D204D6178207374657073205B6E6597
:1069D000672C20706F735D3A003133202D20437592
:1069E0007272656E74206C696D69743A003134207E
:1069F0002D20454D472063616C6962726174696F37
:106A00006E206F6E20737461727475703A000000AE
:106A100000003135202D20454D4720746872657384
:106A2000686F6C64733A003136202D20454D472045
:106A30006D61782076616C7565733A003137202D71
:106A400020454D47206D61782073706565643A007C
:106A50003138202D204162736F6C75746520656E2E
:106A6000636F64657220706F736974696F6E3A004A
:106A7000000000003139202D204D6F746F722068A6
:106A8000616E646C6520726174696F3A0032302007
:106A90002D2050574D2072657363616C696E673AA3
:106AA00000000000003231202D20526573742070E8
:106AB0006F736974696F6E3A003232202D2052650F
:106AC000737420706F736974696F6E2074696D657B
:106AD0002064656C617920286D73293A0032332077
:106AE0002D20526573742076656C20636C6F73750E
:106AF000726520287469636B732F736563293A008C
:106B00003234202D205265737420726174696F3A9B
:106B1000003235202D2043757272656E74206C6FC3
:106B20006F6B75703A0030202D3E205573620A312C
:106B3000202D3E2048616E646C650A32202D3E2077
:106B4000454D472070726F706F7274696F6E616C23
:106B50000A33202D3E20454D4720496E74656772EB
:106B6000616C0A34202D3E20454D47204643465354
:106B70000A35202D3E20454D4720464346532041AF
:106B80006476616E6365640A0030202D3E20506F8C
:106B9000736974696F6E0A31202D3E2050574D0A7B
:106BA00032202D3E2043757272656E740A33202D9B
:106BB0003E20506F736974696F6E20616E6420436C
:106BC000757272656E740A34202D3E20506F7369A1
:106BD00074696F6E20772E20726573742063686508
:106BE000636B0A000030202D3E20446561637469A8
:106BF00076617465205B4E4F5D0A31202D3E204149
:106C000063746976617465205B5945535D0A00E4DD
:106C1000F526F525F524F523900A76E0FCA3E0FDA2
:106C2000A3E0FEA3E0F5428E418D408C3FA3E0FC43
:106C3000A3E0FDA3E0FEA3E0F5468E458D448C4322
:106C4000A3E0FCA3E0FDA3E0FEA3E0F54A8E498D9E
:106C5000488C47A3E0FCA3E0FDA3E0FEA3E0F54ED3
:106C60008E4D8D4C8C4BA3E0FCA3E0FDA3E0FEA376
:106C7000E0F5528E518D508C4FA3E0FCA3E0FDA3B4
:106C8000E0FEA3E0F5568E558D548C53A3E0FCA393
:106C9000E0FDA3E0FEA3E0F55A8E598D588C57A372
:106CA000E0FCA3E0FDA3E0FEA3E0F55E8E5D8D5C5D
:106CB0008C5BA3E0FCA3E0FDA3E0FEA3E0F5628E05
:106CC000618D608C5FA3E0FCA3E0FDA3E0FEA3E088
:106CD000F5668E658D648C63A3E0FCA3E0FDA3E004
:106CE000FEA3E0F56A8E698D688C67A3E0FCA3E0E3
:106CF000FDA3E0FEA3E0F56E8E6D8D6C8C6B900AAB
:106D0000DFE0FEA3E0FFFBAA06E4900D12E0FCA387
:106D1000E0FDA3E0FEA3E0C39BF53AEE9AF539ED62
:106D20009400F538EC9400F537900AE1E0FEA3E01A
:106D3000FFFBAA06E4900D16E0FCA3E0FDA3E0FE35
:106D4000A3E0C39BF53EEE9AF53DED9400F53CECD7
:106D50009400F53B900AA7E024FE7003026EC41471
:106D60007003026F22147003027017147003027113
:106D70007A24046003027311900AEDE06024A3E01A
:106D8000FF3395E0FEFDFC900D03E0F8A3E0F9A3CE
:106D9000E0FAA3E0FB1282D28F368E358D348C332D
:106DA0008024900AEEE0FF3395E0FEFDFC900CFF9E
:106DB000E0F8A3E0F9A3E0FAA3E0FB1282D28F3659
:106DC0008E358D348C33900B1BE0F8A3E0F9A3E0F3
:106DD000FAA3E0FBC3E5369BFFE5359AFEE534995F
:106DE000FDE53398FC900AD5E0F8A3E0F9A3E0FABA
:106DF000A3E0FBC312840A5044E4FFFEFDFC900AAA
:106E0000D5E0F8A3E0A3E0A3E0C312840A602E90CB
:106E10000B1BE0FCA3E0FDA3E0FEA3E0FF900AD57E
:106E2000E0F8A3E0A3E0A3E0EF2BFFEE3AFEED399C
:106E3000FDEC38FC900B1B1284D1027311900B1BDC
:106E4000E0F8A3E0F9A3E0FAA3E0FBC3E5369BFF7B
:106E5000E5359AFEE53499FDE53398FC900AD9E0D2
:106E6000F8A3E0F9A3E0FAA3E0FBD312840A4043BD
:106E7000E4FFFEFDFC900AD9E0F8A3E0A3E0A3E064
:106E800012840A602E900B1BE0FCA3E0FDA3E0FE41
:106E9000A3E0FF900AD9E0F8A3E0A3E0A3E0EF2B82
:106EA000FFEE3AFEED39FDEC38FC900B1B1284D15D
:106EB000027311AF36AE35AD34AC33900B1B128478
:106EC000D1027311E4FFFEFDFCAB3AAA39A938A840
:106ED00037D312840A403D900B8DE0FCA3E0FDA364
:106EE000E0FEA3E0FFA8371282D2C006C007900AD6
:106EF000DFE0FEA3E0FFC3E49FFF74049EFEAB0748
:106F0000FAE4F9F8D007D00612D70A900B1B1284C6
:106F1000D1027311E4FFFEFDFC900B1B1284D10221
:106F20007311900C23E0FCA3E0FDA3E0FEA3E0FFBF
:106F3000900B1B1284D1E4FFFEFDFCAB3AAA39A9E9
:106F400038A837D312840A4056900BACE0FFE4FC1B
:106F5000FDFEA8371282D2E47B02FAF9F81282D23F
:106F6000C006C007900ADFE0FEA3E0FFC3E49FFF76
:106F700074049EFEAB07FAE4F9F8D007D00612D7E6
:106F80000A900C23E0F8A3E0F9A3E0FAA3E02FFFB6
:106F9000EA3EFEE93DFDE83CFC900B1B1284D1E487
:106FA000FFFEFDFCAB3EAA3DA93CA83BD312840AE0
:106FB0005003027311900BACE0FFE4FCFDFEA83B14
:106FC0001282D2E47B02FAF9F81282D2C006C0071C
:106FD000900AE1E0FEA3E0FFC3E49FFF74049EFE7D
:106FE000AB07FAE4F9F8D007D00612D70AA804A92B
:106FF00005AA06AB07900C23E0FCA3E0FDA3E0FE8E
:10700000A3E0C39BFFEE9AFEED99FDEC98FC900B7C
:107010001B1284D1027311900C23E0FCA3E0FDA3AA
:10702000E0FEA3E0FF900B1B1284D1900DD0E01482
:1070300060481470030270F424026003027311E4C8
:10704000FFFEFDFCAB3AAA39A938A837D312840A4F
:107050004009900DD07401F0027311E4FFFEFDFCB5
:10706000AB3EAA3DA93CA83BD312840A500302734D
:1070700011900DD07402F0027311E4FFFEFDFCAB21
:107080003AAA39A938A837C312840A5008E4900DE7
:10709000D0F0027311900BACE0FFE4FCFDFEAB3AC4
:1070A000AA39A938A8371282D2E47B02FAF9F81279
:1070B00082D2C006C007900ADFE0FEA3E0FFC3E46F
:1070C0009FFF74049EFEAB07FAE4F9F8D007D006E0
:1070D00012D70A900C23E0F8A3E0F9A3E0FAA3E0AA
:1070E0002FFFEA3EFEE93DFDE83CFC900B1B1284BD
:1070F000D1027311E4FFFEFDFCAB3EAA3DA93CA802
:107100003BC312840A5008E4900DD0F00273119032
:107110000BACE0FFE4FCFDFEAB3EAA3DA93CA83B66
:107120001282D2E47B02FAF9F81282D2C006C007BA
:10713000900AE1E0FEA3E0FFC3E49FFF74049EFE1B
:10714000AB07FAE4F9F8D007D00612D70AA804A9C9
:1071500005AA06AB07900C23E0FCA3E0FDA3E0FE2C
:10716000A3E0C39BFFEE9AFEED99FDEC98FC900B1B
:107170001B1284D1027311027311900C23E0FCA343
:10718000E0FDA3E0FEA3E0FF900B1B1284D1900D65
:10719000D0E0146048147003027276240260030287
:1071A0007311E4FFFEFDFCAB3AAA39A938A837D326
:1071B00012840A4009900DD07401F0027311E4FFAB
:1071C000FEFDFCAB3EAA3DA93CA83BD312840A506D
:1071D00003027311900DD07402F0027311E4FFFEEC
:1071E000FDFCAB3AAA39A938A837C312840A501B50
:1071F000E4FFFEFDFCAB3EAA3DA93CA83BC31284C4
:107200000A5008E4900DD0F0027311E4FFFEFDFC7B
:10721000AB3AAA39A938A837D312840A50030273AB
:1072200011900BACE0FFE4FCFDFEA8371282D2788F
:1072300002128458C006C007900ADFE0FEA3E0FFF8
:10724000C3E49FFF74049EFEAB07FAE4F9F8D0078D
:10725000D00612D70A900C23E0F8A3E0F9A3E0FAD5
:10726000A3E02FFFEA3EFEE93DFDE83CFC900B1B4E
:107270001284D1027311E4FFFEFDFCAB3AAA39A9D6
:1072800038A837C312840A501AE4FFFEFDFCAB3E57
:10729000AA3DA93CA83BC312840A5007E4900DD034
:1072A000F0806EE4FFFEFDFCAB3EAA3DA93CA83B8E
:1072B000D312840A405B900AECE0FFE4FCFDFEA8D8
:1072C0003B1282D27802128458C006C007900AE1AD
:1072D000E0FEA3E0FFC3E49FFF74049EFEAB07FA49
:1072E000E4F9F8D007D00612D70AA804A905AA061F
:1072F000AB07900C23E0FCA3E0FDA3E0FEA3E0C3FA
:107300009BFFEE9AFEED99FDEC98FC900B1B12840E
:10731000D1900AC4E0606AA3E0FCA3E0FDA3E0FE14
:10732000A3E0FF900B1BE0F8A3E0F9A3E0FAA3E0D1
:10733000FBC312840A5014900AC5E0FCA3E0FDA32D
:10734000E0FEA3E0FF900B1B1284D1900ACDE0FC7D
:10735000A3E0FDA3E0FEA3E0FF900B1BE0F8A3E099
:10736000F9A3E0FAA3E0FBD312840A4014900ACDFB
:10737000E0FCA3E0FDA3E0FEA3E0FF900B1B128462
:10738000D1900AA8E0700302776C147003027B2688
:107390001470030278FA146003027B94900CFBE0F3
:1073A000F8A3E0F9A3E0FAA3E0FB900B1BE0FCA339
:1073B000E0FDA3E0FEA3E0C39BF52AEE9AF529EDDC
:1073C00099F528EC98F527900DC0E0FCA3E0FDA30B
:1073D000E0FEA3E0252AFFEE3529FEED3528FDEC81
:1073E0003527FC900DC01284D17F807EF07DFA7C21
:1073F00002900DC0E0F8A3E0F9A3E0FAA3E0FBD30C
:1074000012840A40107F807EF07DFA7C02900DC0CD
:107410001284D1802A7F807E0F7D057CFD900DC077
:10742000E0F8A3E0F9A3E0FAA3E0FBC312840A505A
:107430000E7F807E0F7D057CFD900DC01284D1E40F
:10744000F532F531F530F52FFFFEFDFCAB5AAA59A8
:10745000A958A857C312840A6026AF2AAE29AD28BE
:10746000AC27A8571282D27810128444E5322FF547
:1074700032E5313EF531E5303DF530E52F3CF52F75
:10748000E4FFFEFDFCAB5EAA5DA95CA85BC31284B1
:107490000A602C900DC0E0FCA3E0FDA3E0FEA3E099
:1074A000FFA85B1282D27810128444E5322FF532A5
:1074B000E5313EF531E5303DF530E52F3CF52FE483
:1074C000FFFEFDFCAB62AA61A960A85FC312840A3B
:1074D0006043900DC8E0F8A3E0F9A3E0FAA3E0FB55
:1074E000C3E52A9BFFE5299AFEE52899FDE5279843
:1074F000FCAB62AA61A960A85F1282D278101284E4
:1075000044E5322FF532E5313EF531E5303DF530D9
:10751000E52F3CF52FAF2AAE29AD28AC27900DC83A
:107520001284D1E4FFFEFDFCAB32AA31A930A82FB2
:10753000C312840A4004D20E8002C20E900ADDE01B
:10754000FEA3E0FFEE3395E0FDFCAB32AA31A9309B
:10755000A82FD312840A4016900ADDE0FEA3E0FFB4
:10756000EE3395E08F328E31F530F52F803C900A66
:10757000DDE0FEA3E0FFC3E49FFFE49EFE3395E061
:10758000FDFCAB32AA31A930A82FC312840A501ACD
:10759000900ADDE0FEA3E0FFC3E49FFFE49EFE331C
:1075A00095E08F328E31F530F52F900D07E0F8A37E
:1075B000E0F9A3E0FAA3E0FBC3E5329BF52EE53149
:1075C0009AF52DE53099F52CE52F98F52B900DC403
:1075D000E0FCA3E0FDA3E0FEA3E0252EFFEE352DA9
:1075E000FEED352CFDEC352BFC900DC41284D17FC3
:1075F000A07E867D017C00900DC4E0F8A3E0F9A395
:10760000E0FAA3E0FBD312840A40107FA07E867DBF
:10761000017C00900DC41284D1802A7F607E797D28
:10762000FE7CFF900DC4E0F8A3E0F9A3E0FAA3E02C
:10763000FBC312840A500E7F607E797DFE7CFF9032
:107640000DC41284D1E4F526F525F524F523FFFEBB
:10765000FDFCAB66AA65A964A863C312840A602610
:10766000AF2EAE2DAD2CAC2BA8631282D2781012A7
:107670008444E5262FF526E5253EF525E5243DF550
:1076800024E5233CF523E4FFFEFDFCAB6AAA69A9CF
:1076900068A867C312840A602C900DC4E0FCA3E0C4
:1076A000FDA3E0FEA3E0FFA8671282D27810128447
:1076B00044E5262FF526E5253EF525E5243DF52470
:1076C000E5233CF523E4FFFEFDFCAB6EAA6DA96C3F
:1076D000A86BC312840A6043900DCCE0F8A3E0F9D4
:1076E000A3E0FAA3E0FBC3E52E9BFFE52D9AFEE5A0
:1076F0002C99FDE52B98FCAB6EAA6DA96CA86B12BA
:1077000082D27810128444E5262FF526E5253EF531
:1077100025E5243DF524E5233CF52374FF7F9CFEFD
:10772000FDFCAB26AA25A924A823C312840A500D68
:1077300074FF75269CF525F524F523801EE47F64EF
:10774000FEFDFCAB26AA25A924A823D312840A4057
:107750000AE4752664F525F524F523AF2EAE2DAD8C
:107760002CAC2B900DCC1284D1027B94900CFBE0BE
:10777000F8A3E0F9A3E0FAA3E0FB900B1BE0FCA365
:10778000E0FDA3E0FEA3E0C39BF52AEE9AF529ED08
:1077900099F528EC98F527900DC0E0FCA3E0FDA337
:1077A000E0FEA3E0252AFFEE3529FEED3528FDECAD
:1077B0003527FC900DC01284D1E47FE87E03FDFCE8
:1077C000900DC0E0F8A3E0F9A3E0FAA3E0FBD31228
:1077D000840A400FE47FE87E03FDFC900DC0128414
:1077E000D1802A7F187EFC7DFF7CFF900DC0E0F8E1
:1077F000A3E0F9A3E0FAA3E0FBC312840A500E7FD2
:10780000187EFC7DFF7CFF900DC01284D1E4FFFE4A
:10781000FDFCAB42AA41A940A83FC312840A601AEA
:10782000AF2AAE29AD28AC27A83F1282D278101219
:1078300084448F268E258D248C23E4FFFEFDFCAB33
:1078400046AA45A944A843C312840A602C900DC0DF
:10785000E0FCA3E0FDA3E0FEA3E0FFA8431282D278
:107860007810128444E5262FF526E5253EF525E51A
:10787000243DF524E5233CF523E4FFFEFDFCAB4A63
:10788000AA49A948A847C312840A6043900DC8E0DA
:10789000F8A3E0F9A3E0FAA3E0FBC3E52A9BFFE528
:1078A000299AFEE52899FDE52798FCAB4AAA49A943
:1078B00048A8471282D27810128444E5262FF52674
:1078C000E5253EF525E5243DF524E5233CF523AFEC
:1078D0002AAE29AD28AC27900DC81284D1E4FFFE52
:1078E000FDFCAB26AA25A924A823D312840A4005AF
:1078F000D20E027B94C20E027B94900B33E0700395
:10790000027B94200D03027B94900B23E0FCA3E008
:10791000FDA3E0FEA3E0F5328E318D308C2F900A6E
:10792000DDE0FEA3E0FFEE3395E0FDFCAB32AA31D3
:10793000A930A82FD312840A4016900ADDE0FEA3D6
:10794000E0FFEE3395E08F328E31F530F52F803C3D
:10795000900ADDE0FEA3E0FFC3E49FFFE49EFE3358
:1079600095E0FDFCAB32AA31A930A82FC312840ADE
:10797000501A900ADDE0FEA3E0FFC3E49FFFE49EFF
:10798000FE3395E08F328E31F530F52F900D07E004
:10799000F8A3E0F9A3E0FAA3E0FBC3E5329BF52EE0
:1079A000E5319AF52DE53099F52CE52F98F52B90DA
:1079B0000DC4E0FCA3E0FDA3E0FEA3E0252EFFEE56
:1079C000352DFEED352CFDEC352BFC900DC41284CD
:1079D000D17FA07E867D017C00900DC4E0F8A3E0FD
:1079E000F9A3E0FAA3E0FBD312840A40107FA07E43
:1079F000867D017C00900DC41284D1802A7F607E38
:107A0000797DFE7CFF900DC4E0F8A3E0F9A3E0FAD5
:107A1000A3E0FBC312840A500E7F607E797DFE7C5A
:107A2000FF900DC41284D1E4F526F525F524F52345
:107A3000FFFEFDFCAB4EAA4DA94CA84BC312840A15
:107A40006026AF2EAE2DAD2CAC2BA84B1282D27877
:107A500010128444E5262FF526E5253EF525E5247C
:107A60003DF524E5233CF523E4FFFEFDFCAB52AAE3
:107A700051A950A84FC312840A602C900DC4E0FC99
:107A8000A3E0FDA3E0FEA3E0FFA84F1282D278108E
:107A9000128444E5262FF526E5253EF525E5243D0F
:107AA000F524E5233CF523E4FFFEFDFCAB56AA5587
:107AB000A954A853C312840A6043900DCCE0F8A3E4
:107AC000E0F9A3E0FAA3E0FBC3E52E9BFFE52D9AC6
:107AD000FEE52C99FDE52B98FCAB56AA55A954A8B8
:107AE000531282D27810128444E5262FF526E5251C
:107AF0003EF525E5243DF524E5233CF523AF2EAEE8
:107B00002DAD2CAC2B900DCC1284D1E4FFFEFDFCEE
:107B1000AB26AA25A924A823C312840A4004D20EA6
:107B20008072C20E806E900B2BE0FCA3E0FDA3E000
:107B3000FEA3E0F5268E258D248C23E4FFFEFDFCBC
:107B4000AB26AA25A924A823D312840A4004D20E66
:107B50008002C20E74FF7F9CFEFDFCAB26AA25A905
:107B600024A823C312840A500D74FF75269CF525A2
:107B7000F524F523801EE47F64FEFDFCAB26AA25D8
:107B8000A924A823D312840A400AE4752664F525A3
:107B9000F524F523E47F64FEFDFCAB26AA25A92489
:107BA000A823D312840A400AE4752664F525F52437
:107BB000F52374FF7F9CFEFDFCAB26AA25A924A813
:107BC00023C312840A500B74FF75269CF525F524F7
:107BD000F523900AA8E064016037AF26AE25AD24F6
:107BE000AC23780A128458E47B64FAF9F812D70AB5
:107BF000A804A905AA06AB07900D37E0FFE4FCFD39
:107C0000FE1282D2780A1284448F268E258D248C0F
:107C100023E4FFFEFDFCAB26AA25A924A823C3125A
:107C2000840A40047F0180027FFF900CF6EFF03061
:107C30000E077F0112E2B78005E4FF12E2B7AE251E
:107C4000AF2612E18B12E29F2202800AE86480F8DC
:107C5000E933E83360110460F0ED33EC337009E888
:107C6000FCE9FDEAFEEBFF220460DED3EB9FEA9E17
:107C7000E99DE8C2E78CF0C2F795F0400CE8CCF83B
:107C8000E9CDF9EACEFAEBCFFB127FD585D0F058DB
:107C900004700320D5B3E80470075002B2D5028007
:107CA0001492D5EC0460F7E4CCC0E0C398F8603BD4
:107CB00094186008400DD0E0FB027FECE4FBFAC9A9
:107CC000FC8028E830E406E4C9FBE4CAFCE830E3C1
:107CD00005E4C9CACBFCE854076010F8C3E913F9FE
:107CE000EA13FAEB13FBEC13FCD8F130F52FC3E4E5
:107CF0009CFCEF9BFFEE9AFEED99FDD0E0FBEF4E72
:107D00004D4C701222DB03028011EC2CFCEF33FF90
:107D1000EE33FEED33FDED30E7EB027FECEF2BFFB2
:107D2000EE3AFEED39FDD0E0FB50130BBB00030231
:107D30008014ED13FDEE13FEEF13FFEC13FC027F36
:107D4000ECEC4D6011E8497017ED33EC3304600D35
:107D5000E4FCFFFEFD22E933E8330470F802800AF8
:107D6000127FD558046009E4CC24815006285009BC
:107D7000028014284003028011C0E0EB4A7044B92D
:107D80008006D0E0FB028000EF4E701CBD8008EB47
:107D9000FFEAFEE9FD80EBE98DF0A4FEE5F0027E4E
:107DA0002AE9CDF9EAFEEBFFEF89F0A4FCE5F0CE7D
:107DB00089F0A42EFFE435F0CD89F0A42DFEE43542
:107DC000F08067EF4E7005BD80D780C3EF8BF0A4C5
:107DD000ACF0EE8BF0A42CFCE435F0F8EF8AF0A4C4
:107DE0002CE5F038FCE433CB8DF0A42CFCE5F03B23
:107DF000F8EE8AF0A42CFCE5F038F8E433CF89F0F3
:107E0000A42CFCE5F038CF3400CE89F0A42FFFE598
:107E1000F03EFEE433C98DF0A42EFEE5F039CD8AA4
:107E2000F0A42FFFE5F03EFEE43DFD33D0E0FB5033
:107E3000070BBB000F028014EC2CFCEF33FFEE337A
:107E4000FEED33FD027FEC028014EC5D046005E87A
:107E50005904700302800A127FD5580460F6EC487A
:107E600060F2EC7004FDFEFF22C860DB2481C85084
:107E700009C398600250060280119850CAF582E941
:107E8000294B4A7005AB8202800075F0007C1A789D
:107E900080C3EF9BEE9AED99400DC3EF9BFFEE9AE6
:107EA000FEED99FDE842F0DC23ACF0D0E0FFD0E03D
:107EB000FED0E0FDAB8220E7101BEB60BAEC2CFC9F
:107EC000EF33FFEE33FEED33FD027FECE803F830D5
:107ED000E705C0F075F000EF2FFFEE33FEED33FD48
:107EE00040B830E7C280AA74F8CC6480CCC8648003
:107EF000C8F58204604FC3EB9FF5F0EA9E42F0E9BB
:107F00009D42F0E89C45F0603C501DE5825FFFE536
:107F100082D313CB5BCBF42B5582FB50280ABA00DB
:107F20002409B9002008801DE5825BFBE582D3139C
:107F3000CF5FCFF4C3132F5582FF50090EBE00054B
:107F40000DBD00010CC3EB9FF5F0EA9E42F0E99DE8
:107F500042F0E89C45F06007CC4820E701B3EC22F2
:107F600075F020800E75F010800575F0087D007E9C
:107F7000007F003392D530D5031283FCEC334010E0
:107F8000EF33FFEE33FEED33FDEC33FCD5F0ED22A5
:107F9000E5F0247EA2D513CC92E7CDCEFF22EDD220
:107FA000E7CD33EC3392D524814006E4FFFEFDFC9F
:107FB00022FCE4CFCECDCC24E0501174FF80EDC381
:107FC000CC13CCCD13CDCE13CECF13CF0470F03065
:107FD000D5DE0283FCE9D2E7C933E833F892D5ED68
:107FE000D2E7CD33EC33FC5002B2D522EC30E710AF
:107FF0000FBF000C0EBE00080DBD00040BEB60149B
:10800000A2D5EB13FCED92E7FD2274FFFCFDFEFF11
:1080100022E480F8A2D574FF13FC7D80E480EFEDAC
:1080200033EC33601004700FED547F7005740292CE
:10803000E0227404220422E422ED33EC33600A04CB
:108040007003BD8004ECB2E7FC22F920E73624F986
:1080500050037907E4F42402FBE5821582700215CF
:1080600083DBF6E024FB501BE96014E4F0E58215A5
:108070008270021583E004F0B40A08E4F0D9EE74CB
:1080800001F00A22C2D522ED33EC3392D5FA602AF0
:10809000B4FF33EDC2E77BFF60067A8079ACE4225F
:1080A0007A8079B520D5047A8079B0224E614E006D
:1080B0002B494E46002D494E4600E47A08F0A3DADB
:1080C000FC7B00740722C083C082ECC0E0EDC0E0FE
:1080D000EEC0E0EFC0E0EA75F010A4CAABF075F0B6
:1080E0004DA42BFBE435F0FCEA2410FAEB34C5FB7D
:1080F000EC34D9FCEDC2E7FF75F056A4F42411C5A9
:10810000F0F434C58FF0A42AE5F03BE43CF020E71E
:10811000141281BCD0E0FFD0E0FED0E0FDD0E0FC46
:10812000127E4A8014F4041281BCD0E0FFD0E0FE3D
:10813000D0E0FDD0E0FC127D41D082D083E0FAEDAA
:10814000D2E7CD33EC332482FBE4C3CF33CFCE333D
:10815000CECD33CD33DBF37B0775F00A846004F0BA
:10816000A31B0AE5F0F0A38FF0740AA4FFACF08E15
:10817000F0740AA42CFEACF050010C8DF0740AA42B
:108180002CFDE435F0F0A3DBDE7407223F80000015
:108190004120000042C80000447A0000461C400014
:1081A00047C35000497424004B1896804CBEBC2035
:1081B0005A0E1BCA6753C21C749DC5AEFB600654A1
:1081C00007601C23231281EAEB543860091281D620
:1081D0001281E5127D41ECF8EDF9EEFAEFCB22EBDE
:1081E0001281E580F1543803241C90818CFE93FCAD
:1081F0000EEE93FD0EEE930ECE93FF22C0E0EFFB4A
:10820000EEFAEDF9ECF8127D41D0E0F5F0EFFBEE7F
:10821000FAEDF9ECF81284A5A3A3A3A3E8C0E0E962
:10822000C0E0EAC0E0EBC0E0C0F0127D411284C1C2
:10823000A3A3A3A3127C50D0F0D0E0FBD0E0FAD0EF
:10824000E0F9D0E0F8D5F0D422BB010689828A8318
:10825000E0225002E722BBFE02E32289828A83E405
:108260009322BB010CE58229F582E5833AF583E090
:10827000225006E92582F8E622BBFE06E92582F8AF
:10828000E222E58229F582E5833AF583E49322BB75
:10829000010689828A83F0225002F722BBFE01F395
:1082A00022EF8DF0A4A8F0CF8CF0A428CE8DF0A4FE
:1082B0002EFE22BB010A89828A83F0E5F0A3F02218
:1082C0005006F709A7F01922BBFE06F3E5F009F303
:1082D0001922E88FF0A4CC8BF0A42CFCE98EF0A43A
:1082E0002CFC8AF0EDA42CFCEA8EF0A4CDA8F08B37
:1082F000F0A42DCC3825F0FDE98FF0A42CCD35F07D
:10830000FCEB8EF0A4FEA9F0EB8FF0A4CFC5F02E0D
:10831000CD39FEE43CFCEAA42DCE35F0FDE43CFC76
:108320002275F008758200EF2FFFEE33FECD33CDBE
:10833000CC33CCC58233C5829BED9AEC99E582980B
:10834000400CF582EE9BFEED9AFDEC99FC0FD5F00A
:10835000D6E4CEFBE4CDFAE4CCF9A88222B800C181
:10836000B90059BA002DEC8BF084CFCECDFCE5F0EE
:10837000CBF97818EF2FFFEE33FEED33FDEC33FC35
:10838000EB33FB10D703994004EB99FB0FD8E5E4DE
:10839000F9FA227818EF2FFFEE33FEED33FDEC33C0
:1083A000FCC933C910D7059BE99A4007EC9BFCE94F
:1083B0009AF90FD8E0E4C9FAE4CCFB2275F010EF8B
:1083C0002FFFEE33FEED33FDCC33CCC833C810D7CE
:1083D000079BEC9AE899400AED9BFDEC9AFCE89922
:1083E000F80FD5F0DAE4CDFBE4CCFAE4C8F922CFFB
:1083F000F4CFCEF4CECDF4CDCCF4CC22C3E49FFFA9
:10840000E49EFEE49DFDE49CFC22EB9FF5F0EA9ED9
:1084100042F0E99D42F0EC6480C864809845F02207
:10842000EB9FF5F0EA9E42F0E99D42F0E89C45F0B2
:1084300022E8600FECC313FCED13FDEE13FEEF1307
:10844000FFD8F122E86010ECA2E713FCED13FDEE7B
:1084500013FEEF13FFD8F022E8600FEFC333FFEEF7
:1084600033FEED33FDEC33FCD8F122BB01078982EA
:108470008A830287945005E9F8028788BBFE05E9E4
:10848000F80287A089828A830284A5BB01078982BA
:108490008A830284D15005E9F80287ACBBFE05E966
:1084A000F80287B822E493FC740193FD740293FEF2
:1084B000740393FF22E0F8A3E0F9A3E0FAA3E0FB42
:1084C00022E493F8740193F9740293FA740393FB12
:1084D00022ECF0A3EDF0A3EEF0A3EFF022A882854A
:1084E00083F0D083D0821284F41284F41284F412C4
:1084F00084F4E473E493A3C583C5F0C583C8C5823F
:10850000C8F0A3C583C5F0C583C8C582C822F8E0FA
:10851000FBA3A3E0F925F0F0E58215827002158334
:10852000E0FA38F022EBF0A3EAF0A3E9F022D083DE
:10853000D082F8E4937012740193700DA3A393F8A2
:10854000740193F5828883E4737402936860EFA3E7
:10855000A3A380DFE5132582F582E5123583F58339
:10856000B512048582132210AF06858213F51222FC
:10857000858213F512D2AF22EC8EF0A4CCC5F0CCDC
:10858000CDF8EFA4CEC5F02DFDE43CFCE8A42EC848
:10859000C5F03DFDE43CFCEFA4FFE5F028FEE43D22
:1085A000FDE43CFC22E709F608DFFA8046E709F221
:1085B00008DFFA803E88828C83E709F0A3DFFA8027
:1085C00032E309F608DFFA806EE309F208DFFA8089
:1085D0006688828C83E309F0A3DFFA805A89828A55
:1085E00083E0A3F608DFFA804E89828A83E0A3F253
:1085F00008DFFA804280D280FA80C680D48055801D
:10860000F28029801080A680EA809A80A880DA8093
:10861000E280CA802988848C8589828A83E493A336
:108620000586F0A30586DFF5DEF3800B89828A8359
:10863000E493A3F608DFF9ECFAA9F0EDFB228884B5
:108640008C8589828A83E0A30586F0A30586DFF600
:10865000DEF480E389828A83E493A3F208DFF98061
:10866000D688F0EF60010E4E60CD88F0ED2402B4A4
:10867000040050C3F582EB2402B4040050B9232354
:108680004582239085F573E709F60870FA8046E77E
:1086900009F20870FA803E88828C83E709F0A370A3
:1086A000FA8074E309F60870FA806CE309F2087046
:1086B000FA806488828C83E309F0A370FA80588979
:1086C000828A83E0A3F60870FA804C89828A83E06C
:1086D000A3F20870FA804080D280FA80C680D480ED
:1086E0005180F28027801080A680EA809A80A8803E
:1086F000DA80E280CA802788848C8589828A83E434
:1087000093A30586F0A3058670F5800B89828A8382
:10871000E493A3F60870F9ECFAA9F0EDFB22888443
:108720008C8589828A83E0A30586F0A3058670F68E
:1087300080E589828A83E493A3F20870F980D8885F
:10874000F0ED2402B4040050CEF582EB2402B40410
:108750000050C423234582239086D773C5F0F8A325
:10876000E028F0C5F0F8E582158270021583E03844
:10877000F022A3F8E0C5F025F0F0E5821582700242
:108780001583E0C838F0E822E6FC08E6FD08E6FEBE
:1087900008E6FF22E0FCA3E0FDA3E0FEA3E0FF2249
:1087A000E2FC08E2FD08E2FE08E2FF22ECF608ED3A
:1087B000F608EEF608EFF622ECF208EDF208EEF21B
:1087C00008EFF2228F23E523C39403400302903580
:1087D000300A227B03AF031BEF6018E4FFFEFDFCB1
:1087E000EB25E025E024D1F582E4340DF5831284F5
:1087F000D180E2C20AE523701812E20878011284DF
:1088000031EFEEED5403FDE4FC9000021284D180C0
:1088100033E523B4011812E1D67801128431EFEE6A
:10882000ED5403FDE4FC9000021284D1801612E1A5
:10883000CC7801128431EFEEED5403FDE4FC90009E
:10884000021284D17B017A00790212D1AF40030277
:108850008A86900002E0FCA3E0FDA3E0FEA3E054C2
:10886000C0FFEEED5403FDE42FFFE43EFEED34FEC9
:10887000FDE434FFFC7802128431EE3395E0FDFC18
:10888000E52325E025E0246CF582E4340BF583E054
:10889000F8A3E0F9A3E0FAA3E02FFFEA3EFEE93DEA
:1088A000FDE83CFC9000061284D1300F27900006B2
:1088B000E0FCA3E0FDA3E0FEA3E0FFE52325E02527
:1088C000E024D1F582E4340DF5831284D1E523B49C
:1088D0000202C20FE52325E025E024D1F582E4342D
:1088E0000DF583E0F8A3E0F9A3E0FAA3E0FB900024
:1088F00006E0FCA3E0FDA3E0FEA3E0C39BFFEE9A2D
:10890000FEED99FDEC98FC9000121284D1E4FF7EFC
:10891000C0FDFC900012E0F8A3E0F9A3E0FAA3E0A8
:10892000FBD312840A4010740F2523F582E4340D22
:10893000F583E014F080687F007E407DFF7CFF902F
:108940000012E0F8A3E0F9A3E0FAA3E0FBC312846D
:108950000A5010740F2523F582E4340DF583E004EA
:10896000F0803C900012E0A3E0A3E0FEA3E0FF1241
:10897000E18BD3EF9400EE648094C0402274DD2537
:1089800023F582E4340DF583E004F074DD2523F54E
:1089900082E4340DF583E0C3940A500302903574E9
:1089A000DD2523F582E4340DF583E4F0900006E044
:1089B000FCA3E0FDA3E0FEA3E0FFE52325E025E026
:1089C00024D1F582E4340DF5831284D1900006E0C1
:1089D000F8A3E0F9A3E0FAA3E0FBC000740F25239D
:1089E000F582E4340DF583E0FF3395E0FEFDFC787D
:1089F00010128458D000EB2FFFEA3EFEE93DFDE85F
:108A00003CFC9000061284D1E52325E025E024B843
:108A1000F582E4340AF583E0FCA3E0FDA3E0FEA3C5
:108A2000E0FFE4FBFA7980783F127EE7603890003F
:108A300006E0FCA3E0FDA3E0FEA3E0FFEC127F60F4
:108A4000E52325E025E024B8F582E4340AF583E047
:108A5000F8A3E0F9A3E0FAA3E0FB127D41127F9EA8
:108A60009000061284D1900006E0FCA3E0FDA3E094
:108A7000FEA3E0FFE52325E025E024FBF582E434B6
:108A80000CF5831284D1E523147003028B3C14701F
:108A900003028BDD24026003028C7BE47F03FEFD76
:108AA000FC900006E0F8A3E0F9A3E0FAA3E0FB12D3
:108AB00082D2900DE1E0F8A3E0F9A3E0FAA3E02F61
:108AC000FFEA3EFEE93DFDE83CFC900DEDE0F8A339
:108AD000E0F9A3E0FAA3E0FBC3EF9BFFEE9AFEED03
:108AE00099FDEC98FCC004C005C006C007E47F03F4
:108AF000FEFDFC900DF9E0F8A3E0F9A3E0FAA3E095
:108B0000FB1282D2A804A905AA06AB07D007D0069B
:108B1000D005D004C3EF9BFFEE9AFEED99FDEC98D3
:108B2000FCE47B0AFAF9F81282D212C97FEE33957F
:108B3000E0FDFC90000A1284D1028C7BE47F03FEEE
:108B4000FDFC900006E0F8A3E0F9A3E0FAA3E0FB47
:108B50001282D2900DE5E0F8A3E0F9A3E0FAA3E0D9
:108B60002FFFEA3EFEE93DFDE83CFC900DF1E0F808
:108B7000A3E0F9A3E0FAA3E0FBC3EF9BFFEE9AFEAC
:108B8000ED99FDEC98FCC004C005C006C007E47F69
:108B900003FEFDFC900DFDE0F8A3E0F9A3E0FAA3CD
:108BA000E0FB1282D2A804A905AA06AB07D007D021
:108BB00006D005D004C3EF9BFFEE9AFEED99FDECC5
:108BC00098FCE47B0AFAF9F81282D212CA02EE3358
:108BD00095E0FDFC90000A1284D1028C7BE47F03B7
:108BE000FEFDFC900006E0F8A3E0F9A3E0FAA3E0A4
:108BF000FB1282D2900DE9E0F8A3E0F9A3E0FAA31A
:108C0000E02FFFEA3EFEE93DFDE83CFC900DF5E07B
:108C1000F8A3E0F9A3E0FAA3E0FBC3EF9BFFEE9A11
:108C2000FEED99FDEC98FCC004C005C006C007E449
:108C30007F03FEFDFC900E01E0F8A3E0F9A3E0FA4B
:108C4000A3E0FB1282D2A804A905AA06AB07D007AD
:108C5000D006D005D004C3EF9BFFEE9AFEED99FD40
:108C6000EC98FCE47B0AFAF9F81282D212CA85EE7B
:108C70003395E0FDFC90000A1284D190000AE0FCDC
:108C8000A3E0FDA3E0FEA3E0FFE52325E025E0242B
:108C90001AF582E4340DF5831284D1E523147003B0
:108CA000028D51147003028DF224026003028E9033
:108CB000E47F03FEFDFC90000AE0F8A3E0F9A3E0E6
:108CC000FAA3E0FB1282D2900E05E0F8A3E0F9A32C
:108CD000E0FAA3E02FFFEA3EFEE93DFDE83CFC9010
:108CE0000E11E0F8A3E0F9A3E0FAA3E0FBC3EF9BC9
:108CF000FFEE9AFEED99FDEC98FCC004C005C0069D
:108D0000C007E47F03FEFDFC900E1DE0F8A3E0F930
:108D1000A3E0FAA3E0FB1282D2A804A905AA06AB3D
:108D200007D007D006D005D004C3EF9BFFEE9AFE14
:108D3000ED99FDEC98FCE47B0AFAF9F81282D21264
