:40000000021415008F828E83E0540100000070F82278FFE4F6D8FD02147A900000EFF0E4F53FF540F541F54275430AC200121F87EF60057F00121FB7122067D2AF9044F4FC
:4000400074FDF0E4F53B754900754A00754B37900000E0FF70067EFF7FFF80008F4C7B017A0079017D2C7C011212FA8F3E900000E060021543E5436004E53E70C9E53E6046
:400080000302059FC3E5389407E53794004008900001E064016005753B04807E900004E0FE900003E0FDEEF53FEDF54074062540F5827400353FF583E0FE74052540F58228
:4000C0007400353FF583E0FDEEF53CEDF53DE5402407FFE4353FFED3EF9538EE95374005753B03803574072540F5827400353FF583E064176005753B04801F7B017A0079B1
:4001000001E5402404FDE4353FFC121C66EF653D7003EE653C6003753B08E4F539F53AE53B600302058E900005E0F536753B04900002E012088801553101823202083403A0
:400140007A3503883703D438020839040F3A05783B0000058B20000302058EE540453F600302058EFF120D84EF70047F0180027F00900005EFF0753900753A01E4F53B0260
:40018000058E20000302058EE5406401453F600302058EE536C39401400302058E900357E0FEA3E0F5828E83120842E4FBFA7901F81207188F24E536B5241E900357E0FE6B
:4001C000A3E0F5828E83120842E4FB7A01F9F81207187522008F238014E536D395244007E4F522F5238006752201752300E523900005F0E522A3F0A374FFF0E4A3F0F539B6
:40020000753A04F53B02058E900002E06434703C20000302058EE5406403453F600302058EE536C39440400FE536D3947F50087541007542108006754101754220AE41AF47
:40024000427D007B017A01792D1208FF20000302058EC3E5409403E53F9400500302058EE54024FDFFE53F34FFFE742D2542F974013541A801FC7D017B017A0079081209F7
:40028000E7E54024FDFFE53F34FFFEEF2542F542EE3541F541E536C394404012E536D3947F500B121DA8753F007540108006753F01754020E54265407004E541653F600369
:4002C00002036F900007E0FE900006E0FDEEF541EDF542E536D3943F506FE5367F00FEEF2542FFE5413E900259F0A3EFF0900357E0FEA3E0F5828E83120842E4FB7A01F9AA
:40030000F812071890025BEEF0A3EFF0900357E0FEA3E0F5828E83120842EFE4EF600A90025BE475F0011205DA90025BE0FEA3E0FFC390025AE09F900259E09E500B753BD5
:400340000AE4F541F54202058E7B017A01792D900263E53FF0A3E540F0AD42AC41AF36120F0BEF60047F0A80027F008F3B8003753B03E4F541F54202058E20000302058EC7
:40038000E4F541F54202059F20000302058EE5422540FFE541353FFED3EF942CEE9401502DE4F53BAE3FAF40742D2542F974013541A801FC7D017B017A0079051209E7E58F
:4003C000402542F542E53F3541F54102058E753B0302058EE540453F600302058E78257C00FD7BFF7A25791FFE7F081209E7D200753900753A08AE39AF3A78057C007D0105
:400400007B007A0079251209E7E4F53B02058E20000302058EE5406403453F600302058E900007E0FE900006E0FDEEF52FEDF530E536C394404038E536D3947F5031AE2F29
:40044000AF307C007D101208D28F348E338D328C318F4B8E4A8D498C48E4754F10F54EF54DF54CFF7E80FDFC12192C8F358050AE2FAF307C017D001208D2C004C005C006FC
:40048000C007AF36E4FCFDFEFBFA7901F812068DD003D002D001D0001206728F348E338D328C318F4B8E4A8D498C48E4F54F754E01F54DF54CFFFE7D10FC12192C8F35E588
:4004C00036D3943F5072AF367E007C207D001208D2E42FFFE43EFEED3408FDE43CFCC004A905AA06AB07AE2FAF307C007D201208D2D0001206728F348E338D328C31E4F5BA
:400500002DF52EC3E52E9420E52D9400502AE4E52E2534FFE52D3533FEE43532FDE43531A907AA06AB05121CF3EF2535F535052EE52E7002052D80CBE536702AAE2FAF301E
:40054000FCFD7BFFFAF9F8C31207C57019FD7F05120A3DC3E5359FF535E4FD7F06120A3DC3E5359FF535E535F404900005F0E4F53BF539753A018016E4FF120D84EF700604
:400580009046FA7480F01220718003753B057B017A007901853948853A49AF3B1215ED900000E0700302004330000302004322BB010689828A83E0225002E722BBFE02E399
:4005C0002289828A83E49322BB010689828A83F0225002F722BBFE01F322C5F0F8A3E028F0C5F0F8E582158270021583E038F022BB010A89828A83E0F5F0A3E022500687B6
:40060000F009E71922BBFE07E3F5F009E3192289828A83E493F5F074019322BB010789828A830205DA500B09C5F027F7C5F01937F722BBFE0D09F8E325F0F3C5F019E338A6
:40064000F322F889828A8374019325F0C5F0F8E4933822BB010A89828A83F0E5F0A3F0225006F709A7F01922BBFE06F3E5F009F31922EF2BFFEE3AFEED39FDEC38FC22C315
:40068000EF9BFFEE9AFEED99FDEC98FC22E88FF0A4CC8BF0A42CFCE98EF0A42CFC8AF0EDA42CFCEA8EF0A4CDA8F08BF0A42DCC3825F0FDE98FF0A42CCD35F0FCEB8EF0A47C
:4006C000FEA9F0EB8FF0A4CFC5F02ECD39FEE43CFCEAA42DCE35F0FDE43CFC2275F008758200EF2FFFEE33FECD33CDCC33CCC58233C5829BED9AEC99E58298400CF582EE4A
:400700009BFEED9AFDEC99FC0FD5F0D6E4CEFBE4CDFAE4CCF9A88222B800C1B90059BA002DEC8BF084CFCECDFCE5F0CBF97818EF2FFFEE33FEED33FDEC33FCEB33FB10D7C4
:4007400003994004EB99FB0FD8E5E4F9FA227818EF2FFFEE33FEED33FDEC33FCC933C910D7059BE99A4007EC9BFCE99AF90FD8E0E4C9FAE4CCFB2275F010EF2FFFEE33FE50
:40078000ED33FDCC33CCC833C810D7079BEC9AE899400AED9BFDEC9AFCE899F80FD5F0DAE4CDFBE4CCFAE4C8F922EF4BFFEE4AFEED49FDEC48FC22C3E49FFFE49EFEE49D2F
:4007C000FDE49CFC22EB9FF5F0EA9E42F0E99D42F0E89C45F022E8600FECC313FCED13FDEE13FEEF13FFD8F122E8600FEFC333FFEE33FEED33FDEC33FCD8F122BB010789DC
:40080000828A830208365005E9F8020A0DBBFE05E9F8020A1989828A83020842BB010789828A8302085E5005E9F8020A25BBFE05E9F8020A3122E0FCA3E0FDA3E0FEA3E06A
:40084000FF22E493FC740193FD740293FE740393FF22E0F8A3E0F9A3E0FAA3E0FB22ECF0A3EDF0A3EEF0A3EFF022E0FBA3E0FAA3E0F922EBF0A3EAF0A3E9F022E493FB74E9
:400880000193FA740293F922D083D082F8E4937012740193700DA3A393F8740193F5828883E4737402936860EFA3A3A380DFE5092582F582E5083583F583B50804858209B7
:4008C0002210AF06858209F50822858209F508D2AF22EC8EF0A4CCC5F0CCCDF8EFA4CEC5F02DFDE43CFCE8A42EC8C5F03DFDE43CFCEFA4FFE5F028FEE43DFDE43CFC22EF51
:400900004E6012EF60010EEDBB010B89828A83F0A3DFFCDEFA2289F05007F709DFFCA9F022BBFEFCF309DFFCA9F022E709F608DFFA8046E709F208DFFA803E88828C83E7AA
:4009400009F0A3DFFA8032E309F608DFFA806EE309F208DFFA806688828C83E309F0A3DFFA805A89828A83E0A3F608DFFA804E89828A83E0A3F208DFFA804280D280FA80F3
:40098000C680D4805580F28029801080A680EA809A80A880DA80E280CA802988848C8589828A83E493A30586F0A30586DFF5DEF3800B89828A83E493A3F608DFF9ECFAA95D
:4009C000F0EDFB2288848C8589828A83E0A30586F0A30586DFF6DEF480E389828A83E493A3F208DFF980D688F0EF60010E4E60CD88F0ED2402B4040050C3F582EB2402B455
:400A0000040050B9232345822390097B73E6FC08E6FD08E6FE08E6FF22E2FC08E2FD08E2FE08E2FF22ECF608EDF608EEF608EFF622ECF208EDF208EEF208EFF22290025D03
:400A4000EDF0AB079002627402F0E4FFFEFDFCA312085EEB1208880A79010AA6020ACB030AF0040B15050B40060B8F070B6B080BB3090BD70A00000C0190025DE0FF7E005E
:400A80007C017D001208D21207B7EF24C0FFEE34FFFEED3410FDE43CFCA312085E9002627401F0020C0C90025DE0FF7E007C017D001208D2C374C39FFF74FF9EFE74109DBD
:400AC000FDE49CFCA312085E020C0C90025DE0FF7E007C017D001208D2C374C79FFF74FF9EFE74109DFDE49CFCA312085E020C0C90025DE0FF7E007C017D001208D2C37433
:400B0000CB9FFF74FF9EFE74109DFDE49CFCA312085E020C0C90025DE0FF7E007C017D001208D2C374D09FFF74FF9EFE74109DFDE49CFCA312085E9002627401F0020C0C60
:400B400090025DE0FF7E007C017D001208D2C374D19FFF74FF9EFE74109DFDE49CFCA312085E9002627401F0020C0C90025DE0FF7E007C017D001208D2C374D69FFF74FF16
:400B80009EFE74109DFDE49CFCA312085E807D90025DE0FF7E007C017D001208D2C374D29FFF74FF9EFE74109DFDE49CFCA312085E805990025DE0FF7E007C017D00120811
:400BC000D2C374D49FFF74FF9EFE74109DFDE49CFCA312085E803590025DE0FF7E007C017D001208D2C374D89FFF74FF9EFE74109DFDE49CFCA312085E9002627404F08082
:400C00000BE4FFFEFDFC90025E12085E900262E0B4011990025E120836A907AA06AB05121CF3E4FCFDFE90026312085E900262E06402705C90025E120836EF2401FFE43E91
:400C4000FEE43DFDE43CA907AA06AB05121CF3E4FCFDFE90026312085E900263120852C000C001C002C00390025E120836A907AA06AB05121CF3E4FCFDFE78081207E9D0BA
:400C800003D002D001D0001207AA90026312085E900262E064046003020D7D90025E120836EF2403FFE43EFEE43DFDE43CA907AA06AB05121CF3E4FCFDFE90026312085E37
:400CC000900263120852C000C001C002C00390025E120836EF2402FFE43EFEE43DFDE43CA907AA06AB05121CF3E4FCFDFE78081207E9D003D002D001D0001207AA9002634F
:400D000012085E900263120852C000C001C002C00390025E120836EF2401FFE43EFEE43DFDE43CA907AA06AB05121CF3E4FCFDFE78101207E9D003D002D001D0001207AA84
:400D400090026312085E900263120852C000C001C002C00390025E120836A907AA06AB05121CF3E4FCFDFE78181207E9D003D002D001D0001207AA90026312085E90026356
:400D8000120836228F44AD447F03120A3DEF2401FFE43EFEE43DFDE43CFCE4FB7A01F9F812068DC004C005C006C007AD447F04120A3DD003D002D001D0001206728F4C8EA9
:400DC0004B8D4A8C49C201E4F54DAD447F03120A3DEF2401FFE43EFEE43DFDE43CFCE4FB7A01F9F812068D8F488E478D468C45AF4CAE4BAD4AAC49AB48AA47A946A845C337
:400E00001207C55032854882854783E493F54E6005F46002D201E54E254DF54DAF48AE47AD46AC45E47B01FAF9F81206728F488E478D468C4580B8AD447F03120A3DEF2479
:400E400001FFE43EFEE43DFDE43CFCE4FB7A01F9F812068D78031207D68F488E478D468C45E47FC07EFFFDFCAB4CAA4BA94AA849C31207C57007FF7E20FDFC800DAF4CAE21
:400E80004BAD4AAC4978031207D68F4C8E4B8D4A8C49AF4CAE4BAD4AAC49AB48AA47A946A845C31207C55039E42548FFE43547FEE5463408FDE43545A907AA06AB05121CB9
:400EC000F3EF254DF54DAF48AE47AD46AC45E47B01FAF9F81206728F488E478D468C4580B1E54DF404F54DAD447F01120A3DA804A905AA06AB07AF4DE4FCFDFEC31207C5CC
:400F000070032001037F06227F002290025EECF0A3EDF0A312087390025DEFF0E4900265F0EFD3943F500E90025DE0940140069002657401F090025DE0FFD3947F4006903A
:400F400002657401F0EFC39440400CEFD3944140069002657401F0EFD3943F501E90025EE0FEA3E0FFE4FCFDFB7A01F9F8C31207C5502F9002657401F08027D390025FE03C
:400F8000948090025EE0940040069002657401F0900263E07004A3E0641060069002657401F090026012086AE94A4B700590026504F0900265E0600302108A121EFEEF606E
:400FC0000302108490025EE0FCA3E0FDA312086A900263E0FFA3E090026CCFF0A3EFF090025DE0FF1211DE900265EFF06407600302107F904722E0540270087F01FE121EF6
:401000006480F0904722E054026009E0FF1313543FFF80027FFFEF7006900265F0800690026574FFF0900265E0705490025DE0FFA3E0FCA3E0FD900353E0FBA3E090026AD9
:40104000F0121A90900265EFF064077032904722E0540270087F01FE121E6480F0904722E054026009E0FF1313543FFF80027FFFEF7006900265F0800690026574FFF0124B
:40108000205180069002657404F0900265E0FF227B007A4679E8121CF3EF4401FD7B007A4679E8122045E4F52CE52CC3940A502CE52C75F005A42461F582E43424AF82F571
:4010C000218F22F58312087C8F82852183740393FC740493FD121F6E052C80CDE4F52CE52CC394015046E52C75F007A42413F582E43425AF82F5238F24F58312087C8B25E1
:401100008A2689278F82852383740393FE7404938E28F529740593F52A740693F52BAD29AC28FFAE2A121EB8052C80B37E207F92121DD97B017A507903121CF3EF4402FD3B
:401140007B017A5079031220457B017A507913121CF3EF4402FD7B017A5079131220459043A0E04440F09043C2E04410F07C207D827B007A5179127F087E00121EB87C2053
:401180007D8A7B007A5179227F087E00121EB89044F47401F0904322E04408F09046ECE0C394055006904689743AF090480074F1F012150690480074B1F0121F1D7B007A41
:4011C0004379A0C00179B0900005120873D0017F0E7E00121D749043B0E054FDF022900266EFF0A3ECF0A3EDF0A312087390026E7407F0904722E0540270030212EE904756
:401200002074B6F074D5F07402F0904722E0540260030212E6900266E0904720F0E490026FF0A3F090026CE0FEA3E0FF90026FE0FCA3E0FDC39FEC9E501F90026912086A8D
:40124000E92DF9EA3CFA1205AF904720F090026FE475F0011205DA80CB90026CE064017002A3E060030212F4900266E0FFD3943F40030212F47E007C207D001208D2E42F0A
:40128000FFE43EFEED3408FDE43CFCC004A905AA06AB07A3E0FEA3E0FF7C007D201208D2D00012067290027112085EE490026FF0A3F090026FE0FEA3E0FFC39420EE94005A
:4012C0005032E4FCFDA3120852120672A907AA06AB05121CF3904720EFF090026FE475F0011205DA80CC90026E7409F0800690026E7404F090026EE0FF228B448A4589469E
:401300008C478D48755505E4F54DF54EE54C75F00AA4FFC3E54E9FE54D95F0503B121B34EF6022121B347553008F54E47F19FEFDFC1218C7121B34D3EF9554E4955350E366
:40134000E4F5558013E47F01FEFDFC1218C7054EE54E7002054D80B4AB49AA4AA94BE4F5F0120653E4F54FF550121B34EFD394005003021412121B347551008F52AB49AA8D
:401380004AA94BE5518552F012061BAB49AA4AA94B1205F0C39548E5F09547505FE4F54DF54EC3E54E9552E54D95515025121C1CAB44E5462550F9E545354FFAEF1205C8C1
:4013C0000550E5507002054F054EE54E7002054D80D0AB44E55024FFFFE54F34FFFEE5462FF9E5453EFA1205AF64177003021369E47F05FEFDFC1218C7021369AB49AA4ABB
:40140000A94B1205F0C39552FFE5F095518FF0120653AF552275930078007583467582E8E04401F0009046ECE0F99046FAE0FA90034BF0B903225420B40012B8001AEA9014
:401440001FFFF07401901FFEF09046F6F0901FFEE06005901FFFE0FA90480074C0F0758156121EDE90000078007920E4F0A3D8FCD9FAEA90034BF002001175081F7509FD1F
:401480001210900214C1022079E493A3F8E493A34003F68001F208DFF48029E493A3F85407240CC8C333C4540F4420C8834004F456800146F6DFE4800B0102040810204063
:4014C00080901B83E47E019360BCA3FF543F30E509541FFEE493A360010ECF54C025E060A840B8E493A3FAE493A3F8E493A3C8C582C8CAC583CAF0A3C8C582C8CAC583CABE
:40150000DFE9DEE780BE7B007A4079807D337C001220279040827418F09043007402F09040007408F09042007403F07B0C7A017908121CF39046A1EFF07B007A4279227D68
:40154000087C001220277B007A4279207D517C12122027E4900004F07F19FEFDFC90000012085E900000120836D3EF9400EE9400403B900004E0FF64036032904225E05440
:4015800001FEEF25E04E5403900004F0E47FE07E01FDFC121D0090000012083674FFFBFAF9F812067290000012085E80B6900000120836EF4E70057F0312207F7B007A402A
:4015C00079047D007C011220279040047407F0904006E4F09040087448F0904004E4F09040017402F09043A2E04401F0228B458A46894774011205C8AB452547F9E43546AB
:40160000FAEF1205C8E549AB45E5472402F9E43546FAE5491205C8E548FFAB45E5472403F9E43546FAEF1205C8AB45AA46A947E5492404FDE43548FC121C668E4A8F4BEFCF
:40164000AB45E5492404FDE43548FCE5472DF9E5463CFAEF1205C8E54AFFAB45E5492405FDE43548FCE5472DF9E5463CFAEF1205C8AB45E5492406FFE43548FEE5472FF9FF
:40168000E5463EFA74171205C8E5492407FDE43548FC755100755200755348755496AB45AA46A947121BD122C0E0C083C082C085C084C086758600C093759300C0D075D09F
:4016C00000C001C002C003C006C007E4FBA2AF33FAD2AF9044F474FDF090646CE0FFFE541EF960069002FDE049F0EF30E54590644AE0FE9002F9E02478F582E43402F583E5
:40170000EEF07B01EB602C900276E060069002FC7401F09002F9E004F0E0C394404002E4F0900277E0FE9002F9E0B506069002767401F0EF20E5A2AF02EA24FF92AFD007BF
:40174000D006D003D002D001D0D0D093D086D084D085D082D083D0E032752106E4FF120D84EF7002F521E4F54BF54AF549F548900357E0FEA3E0F5828E831208428F4F8E82
:401780004E8D4D8C4CE4FFFE7D10FC12192C900355E0FCA3E0F5828C83E493FEC3EF9EFFF404FFB50612900357E0FEA3E0F5828E83120842EF4E70057F00121FB79046FAFB
:4017C000E054C064406004E52160099046FAE4F0FF12001A12205D22C0E0C083C082C085C084C086758600C093759300C0D075D000C006C007A2AFE433FFD2AF9044F4742E
:40180000FDF09002FAE0FE9002B8E06E602C90646EE020E2259002B8E0C394404002E4F09002B8E024B9F582E43402F583E090644DF09002B8E004F080C8EF24FF92AFD043
:4018400007D006D0D0D093D086D084D085D082D083D0E032A9079002FAE0FF9002B8E0FEEFC39E501AEE24FFFDE434FFFCEF7A00B50508EAB504047D0180027D00800CC346
:40188000EF9EB43F047D0180027D00ED70C8EEB5070D90646EE020E20690644DE9F022EFC394404002E4FF74B92FF582E43402F583E9F00F9002FAEFF090646EE030E10609
:4018C0009044D07402F02290FFFC1208AE12085E850883850982120836D3EF9400EE9480402E90034C120836121D00850883850982C083C082120836E42FFFEE3480FEEDC9
:4019000034FFFDEC34FFFCD082D08312085E80C090034212083685088385098212085212068D121D009000041208AE228F478E468D458C44E4F550D3E54F9400E54E940025
:40194000404BAF4FAE4EAD4DAC4C74FFFBFAF9F81206728F4F8E4E8D4D8C4CE547254BFFE546354AFEE5453549FDE5443548FCEF254FFFEE354EFEED354DFDEC354CA907BD
:40198000AA06AB051205AF2550F55080AAAF5022121FE190025E74FFF0121EFEEF703B7F01121E35EF6407702C7B017A0379537D021219E6EFB40215E490025EF090472228
:4019C000E0540270107F01FE121E6480F0904722E0540260D4122051800690025E7404F090025EE0FF2290025F120873900262EDF0E4A3F0900262E0FFA3E0C39F50379065
:401A00004722E054016003D38001C340097F017E00121E6480E9904720E0FF90025F12086A900263E029F9E43AFAEF1205C8900263E004F080BE900263E0FF2290025EEC49
:401A4000F0A3EDF090025DEFF0541F25E0FFE433FEE42FFFEE3444FAA9077B0112201A900260EEF0A3EFF090025DE075F002A42400FFE5F03444FAA9077B01A3E0FEA3E0EC
:401A8000FFFDAC06122029900260E0FEA3E0FF22900267ECF0A3EDF0AC077D07904722E05402603B90472074B6F074D8F07405F0904722E054027023904720ECF09002670F
:401AC000E0904720F0900267E0A3E0904720F0EBF090026AE0904720F080067D0980027D04AF0522121FE1121EFEEF703B121F3A90025EEFF06407702A904722E0540270A1
:401B0000087F01FE121E6480F0904722E054026009E0FF1313543FFF80027FFFEF700490025EF0122051800690025E7404F090025EE0FF229044C87401F09002F9E0FE905D
:401B40000277E0B5060E900276E060047F40802CE4FF80289002F9E0FE900277E0C39E500BE0FE9002F9E0C39EFF8010900277E0FEC374409EFE9002F9E02EFF9044C07420
:401B800001F022420355251A420357251B430350000000440347016E360044034200005DC04103461844034C2EE000004102FB004102B8004102FA004102FD00410277003B
:401BC0004102F900410276004102FC0041035B00008B4C8A4D894E8C4F8D50E4F555F556121E07C3E5569550E555954F501DAB4CE54E2556F9E54D3555FA1205AFFF121874
:401C0000540556E5567002055580D8AB51AA52A953E54F8550F01206537F00229044C87401F0900277E0FE9002F9E0FD900276E07004EE6D602474782EF582E43402F583EF
:401C4000E0FF0EEEC394404002E4FE900277EEF0900276E06009E4F0800590644AE0FF9044C07401F0228B4C8A4D894EE4F54FF550D3ED9400EC94004025AB4CED24FFFFD4
:401C8000EC34FFFEE54E2FF9E54D3EFA1205AF2550F550E4354FF54FED1D70011C80D2E550F4FFE54FF4FEEF2401FFE43EFE227C167DA8E4FF121A3C7D07E4FF121F55E4B7
:401CC0009002FDF090648A7469F090648C7420F07C177DD87F01121A3C7D077F01121F5590642E7406F090643E7447F090648E7402F0228B938A838982E0759300FF22000A
:401D0000EC4D4E700D78FCEF24E950032840FD2200007BF178DA0000EF28FF78FFEE38FEED38FDEC38FC50E7EF2BFFEE38FEED38FDEC38FC40F22205020304121FCC9002FD
:401D40005DEFF090649AE04420F090649CE04410F09044C07401F090649EE04410F09044D87402F09044C0F012203690025DE0FF121F9F22758600EF4E6027EF60010E75B2
:401D80009300900005E0F595A3E0F585A3E0F5848B938A838982E0A30586F0A31586DFF6DEF4E4F593F59522121FCC9043A0E04408F09043B0E04408F090470174C8F090A8
:401DC00043ACE04410F09043BCE04410F0904700E0542060F8121F9F22ACEAADA08E838F82E493F9601CA3E493F5EAA3E493F5A0A3E49360F1FAA3E493F8A3E493F2DAF6BC
:401E0000D9E48DA08CEA22121FCC90649AE04401F0E054FEF0121F9F9044C87401F0E4900277F09002F9F0900276F09002FCF09044C004F0227E07904722E05402601F9052
:401E4000472074B6F074E1F0740EF0904722E054027007904720EFF080067E0980027E04AF062200EEFA900346E0F88FF0A4FFAEF0E88AF0A42EFEE5F03400FDEF24C9FF5A
:401E800078FFEE38FEED38FDE438FC5003021D0022121FCC90649DE04401F0E054FEF0121F9F9044C87402F0E49002B8F09002FAF09044C07402F022758600EF4E601BEFCA
:401EC00060010E8C838D828B958A858984E493A30586F0A31586DFF5DEF3E4F595229046FAE054C064807015F0FD7F02120A3DEF4E600AE4FD7F02120A3D122009229002CC
:401F0000667404F0121FCC90035BE0700704F0E4900266F0121F9F900266E0FF227B0C7A0179CF121CF3EF540790586EF0EFC4540FA3F09058767444F0227F07904722E0DD
:401F40005402600E90472074B6F074E0F0740DF080027F0422AC07ED540775F020A4FFEC541F2480F582E43444F583EFF022EC4D6011ED60010C8B938A838982E4F0A3DDB0
:401F8000FCDCFA75930022121AE490025DEFF0700812199090025DEFF090025DE0FF22EF54016004D2AF8002C2AFEF5402FF9044F4E054FD4FF02290FFFF1208AEEFF090D7
:401FC00046EA7401F09000011208AE229044F4E0F84402F0E85402FF10AF012274014FFF22121FCC9043A0E04408F09043B0E04408F0121F9F229002FBE07009121CAF9087
:4020000002FB7401F0121D3B2290034BE0FA8E838F827400758101738B938A838982E0FFA3E0FE759300228B938A838982EDF0A3ECF0759300229043A2E04401F09043B26F
:40204000E04401F0228B938A838982EDF075930022121FCCE490035BF0121F9F229046FA7480F012207122121FF6121E07121E91229046F6E04401F02212175980FE2280DC
:40208000FE22007F7B007B00000030D8C800D800000016005205082309121098118814200064047E3F8A698C3A8E0F010101E204010301E6020105028702E008010604B82E
:4020C00002BE01D804DF010107021B02A702010A088501890195019901B101BF01D904DF01010B4F00400106038808010A040B111028130219641A041B0A202021082230E9
:40210000274028282A022B022E033080310232103304340836203708382239803A083C283E084028410843824A024B0152045B4068286A016B027090712072108D408E104D
:402140008F809042910493109621980199029B0C9D649E049F80A004A102A202A490A520A702AB01B021B405B602B744C00FC20FC40ECA0FCC6FCE6FD00FD208D608E0083A
:40218000E801010C4C0001021608E70A180E3F101E120114C6163918481C88208824DD262228232ADC2CC8301F320834E03A22541A560458045B045F018008824284F88698
:4021C000018704880F89028AF08D068EC792849308943996C698109C20A020A101A43FA6C0A906AA08AC30B031B106B308B501B6FFB702B982BE40BF11C062C101C5E0C6DA
:40220000CBC80EC9FFCAFFCBFFCEF0CF44D00CD804D904DA04DF01E6C0EA40EB02010D46002901100210030B04010709080209260A310D220E11108012481388151016502C
:402240001780180219021C081D021E201F20200421012208230128402920320238C839A43A083B10414042084921502053405E205F026540674887409088912093089502C2
:40228000978098409B4A9C029D259E049F04A420A504A72AB001B301C0DFC2FFC4FFCA05CC01CE0ED00CD204D6A0D8B0010E4E040906D007230B080C0C0D210E710F0E1048
:4022C00014141016AC170C18DC1A221B201E0321102410264029212A202B062D0C2F2330E03310350F361F37203A023B203F444004464049FF4A074BFF4C404D204EF04F8A
:4023000005500854015604580459045A045B045F01604061A862406320871F89198B0691019304950997029A01A506A719A919AA01AB06AF0FB201B310B507B708B908BB65
:4023400020BE04D804D904DB04DF01010F3C004404040504084809200A010B800E0810081210160418C01A011F042130224425102604270A280829212A802F2A303031047A
:402380003402370438883A103D284101500C5210581059015A886380680169046A206B406F0171407304821083408550868089048B04C005C24FC446CA7DCCC6CE6ED00101
:4023C000D60FD801E40C014005322035808180CC30E2200141038620A620E6400144058301870188C0E004E40401450F0C0857025B046401660193029889A040A301B009C2
:40240000C204D607D801E801EC0401460D8702900893029888A040A301A702AB04B40CB601E808EC02EE08014705900893029888A040A301014C0E5004544057015808607D
:40244000806702900893029888A040A301D406D607D80201500300010C010E01015101000F005100001000513000400051C000100051F000100100000A00010A800580018E
:40248000140008000140000A00014C000200015000002000008080207D050000040800130C0400030204200A031410130C0C7300088000400800004043003C404F003000DE
:4024C0000000734000303F0FC0800008002028000040003402010005C0000E12FFFFFF62A0F0410C00000000000210040404040000000100000000000040020010301000CE
:4025000010101200000000000000000000000000000000010A002493008061000026006930091E031E010100000000000000000000000000000000000000000000000000BD
:40254000000000000000000000000000000000000000000000000000000000000000000000000000000000000000000000000000000000000000000000000000000000005B
:40258000000000000000000000000000000000000000000000000000000000000000000000000000000000000000000000000000000000000000000000000000000000001B
:4025C00000000000000000000000000000000000000000000000000000000000000000000000000000000000000000000000000000000000000000000000000000000000DB
:4026000002C908008F828E83E0540100000070F82278FFE4F6D8FD02C99690002CEEF0A3EFF0782E7C007D017BFF7A5379857E097F9312956C9009C17409F0A37493F078D9
:40264000C87C097D017BFF7A5D79187E007F0F12956C78D77C097D017BFF7A5D79277E007F1C12956C78F37C097D017BFF7A5D79437E007F1B12956C780E7C0A7D017BFF75
:402680007A5D795E7E007F1C12956C782A7C0A7D017BFF7A5D797A7E007F2212956C784C7C0A7D017BFF7A5D799C7E007F2712956C78737C0A7D017BFF7A5D79C37E007F46
:4026C0001112956C78847C0A7D017BFF7A5D79D47E007F1912956C789D7C0A7D017BFF7A5D79ED7E007F1112956C78AE7C0A7D017BFF7A5D79FE7E007F1C12956C78CA7C22
:402700000A7D017BFF7A5E791A7E007F1D12956C78E77C0A7D017BFF7A5E79377E007F1B12956C78027C0B7D017BFF7A5E79527E007F1412956C78167C0B7D017BFF7A5ECA
:4027400079667E007F2512956C783B7C0B7D017BFF7A5E798B7E007F1512956C78507C0B7D017BFF7A5E79A07E007F1512956C78657C0B7D017BFF7A5E79B57E007F141230
:40278000956C78797C0B7D017BFF7A5E79C97E007F2412956C789D7C0B7D017BFF7A5E79ED7E007F1912956C78B67C0B7D017BFF7A5F79067E007F1812956C78CE7C0B7DE8
:4027C000017BFF7A5F791E7E007F1D12956C78EB7C0B7D017BFF7A5F793B7E007F1412956C78FF7C0B7D017BFF7A5F794F7E007F2412956C78237C0C7D017BFF7A5F797383
:402800007E007F2312956C78467C0C7D017BFF7A5F79967E007F1112956C78577C0C7D017BFF7A5F79A77E007F1512956C786C7C0C7D017BFF7A5F79BC7E007F2412956C0B
:4028400078907C0C7D017BFF7A5F79E07E007F2312956C78B37C0C7D017BFF7A6079037E007F2712956C78DA7C0C7D017BFF7A60792A7E007F2812956C78027C0D7D017BB0
:40288000FF7A6079527E007F2C12956C782E7C0D7D017BFF7A60797E7E007F2012956C784E7C0D7D017BFF7A60799E7E007F2312956C78717C0D7D017BFF7A6079C17E00A9
:4028C0007F2512956C78967C0D7D017BFF7A6079E67E007F1212956C78A87C0D7D017BFF7A6079F87E007F1612956C78BE7C0D7D017BFF7A61790E7E007F1F12956C78DD88
:402900007C0D7D017BFF7A61792D7E007F1D12956C78FA7C0D7D017BFF7A61794A7E007F1412956C780E7C0E7D017BFF7A61795E7E007F6412956C78727C0E7D017BFF7A9F
:402940006179C27E007F3F12956C78B17C0E7D017BFF7A6279017E007F2A12956C7B017A0979C812F1018F2E7B017A0979D712F1018F2F7B017A0979F312F1018F307B0175
:402980007A0A797312F1018F317B017A0A798412F1018F327B017A0A799D12F1018F337B017A0A79CA12F1018F347B017A0A79E712F1018F357B017A0B790212F1018F36CE
:4029C0007B017A0B793B12F1018F377B017A0B795012F1018F387B017A0B796512F1018F397B017A0B799D12F1018F3A7B017A0C795712F1018F3B7B017A0E790E12F10105
:402A00008F3C7B017A0E797212F1018F3D7B017A0E79B112F1018F3E7B017A0B79EB12F1018F3F7B017A0B79FF12F1018F407B017A0C792312F1018F417B017A0C79461245
:402A4000F1018F427B017A0C79DA12F1018F437B017A0D790212F1018F447B017A0D792E12F1018F457B017A0D794E12F1018F467B017A0D797112F1018F477B017A0D79AB
:402A80009612F1018F487B017A0D79A812F1018F497B017A0D79BE12F1018F4A7B017A0D79DD12F1018F4B7B017A0D79FA12F1018F4C90002E740CF0A37427F090002CE00A
:402AC000FEA3E0FFEE60030245B7EFB4280040030245B7902ADAF8282873022B52023F58023F6102403102410102411402411D0241260241510241CF02420C024215024288
:402B0000EB02437102438102438A0243A90243D20243DB0243F20243FB02440402440D02443F02445402448702449C0244D90244F002450702451E024533024543024553B2
:402B400002456802457D02458602458F0245980245A89000307402F0A314F0900EE5E0900032F0852E2CE52C6032FFC3E52E9FFFE49400FE74C82FF58274093EF583E0FF30
:402B8000E52CFDE52EC39DFDE49400FC74332DF58274003CF583EFF0152C80CA9000627407F0A37403F0900F18E064036068900EE6E0FCA3E0FDA3E0FEA3E0FFEC128F4069
:402BC000E4FBFA79807847128E2A90006412940D900EEAE0FCA3E0FDA3E0FEA3E0FFEC128F40E4FBFA79807847128E2A90006812940D900EEEE0FCA3E0FDA3E0FEA3E0FF2E
:402C0000EC128F40E4FBFA79807847128E2A90006C12940D8066900EFEE0FCA3E0FDA3E0FEA3E0FFEC128F40E4FBFA79807847128E2A90006412940D900F02E0FCA3E0FD10
:402C4000A3E0FEA3E0FFEC128F40E4FBFA79807847128E2A90006812940D900F06E0FCA3E0FDA3E0FEA3E0FFEC128F40E4FBFA79807847128E2A90006C12940D852F2CE5DE
:402C80002C6032FFC3E52F9FFFE49400FE74D72FF58274093EF583E0FFE52CFDE52FC39DFDE49400FC74702DF58274003CF583EFF0152C80CA9000947407F0A37403F09033
:402CC0000F18E064036068900EF2E0FCA3E0FDA3E0FEA3E0FFEC128F40E4FBFA79807847128E2A90009612940D900EF6E0FCA3E0FDA3E0FEA3E0FFEC128F40E4FBFA79801C
:402D00007847128E2A90009A12940D900EFAE0FCA3E0FDA3E0FEA3E0FFEC128F40E4FBFA79807847128E2A90009E12940D8066900F0AE0FCA3E0FDA3E0FEA3E0FFEC128FB2
:402D400040E4FBFA79807847128E2A90009612940D900F0EE0FCA3E0FDA3E0FEA3E0FFEC128F40E4FBFA79807847128E2A90009A12940D900F12E0FCA3E0FDA3E0FEA3E0BD
:402D8000FFEC128F40E4FBFA79807847128E2A90009E12940D85302CE52C6032FFC3E5309FFFE49400FE74F32FF58274093EF583E0FFE52CFDE530C39DFDE49400FC74A273
:402DC0002DF58274003CF583EFF0152C80CAE49000C6F0A304F0900F16E09000C8F0900F16601C900EDE74FFF0A37445F0A374B8F07B017A0A790E12E2E8752D1C801A9099
:402E00000EDE74FFF0A37445F0A374BEF07B017A0A790E12E2E8752D1B852D2CE52C6032FFC3E52D9FFFE49400FE740E2FF582740A3EF583E0FFE52CFDE52DC39DFDE49479
:402E400000FC74C92DF58274003CF583EFF0152C80CA74C9252DF582E43400F5837403F0E49000F8F0A304F0900F17E09000FAF0900F17B407004003022F5B902E82F82843
:402E80002873022E97022EB4022ED1022EED022F09022F25022F41900EDE74FFF0A37445F0A374C3F07B017A0A792A12E2E8752D14022F5B900EDE74FFF0A37445F0A374B4
:402EC000C9F07B017A0A792A12E2E8752D17022F5B900EDE74FFF0A37445F0A374D2F07B017A0A792A12E2E8752D21806E900EDE74FFF0A37445F0A374E5F07B017A0A7991
:402F00002A12E2E8752D1D8052900EDE74FFF0A37445F0A374F4F07B017A0A792A12E2E8752D198036900EDE74FFF0A37445F0A374FFF07B017A0A792A12E2E8752D2280F0
:402F40001A900EDE74FFF0A37446F0A37413F07B017A0A792A12E2E8752D19852D2CE52C6032FFC3E52D9FFFE49400FE742A2FF582740A3EF583E0FFE52CFDE52DC39DFD7A
:402F8000E49400FC74FB2DF58274003CF583EFF0152C80CA74FB252DF582E43400F5837401F0E490012AF0A304F0900F18E090012CF0900F1814602614603F14605824036A
:402FC000706E900EDE74FFF0A37446F0A3741EF07B017A0A794C12E2E8752D1B8052900EDE74FFF0A37446F0A37429F07B017A0A794C12E2E8752D168036900EDE74FFF028
:40300000A37446F0A3742FF07B017A0A794C12E2E8752D1A801A900EDE74FFF0A37446F0A37439F07B017A0A794C12E2E8752D27852D2CE52C6032FFC3E52D9FFFE49400D5
:40304000FE744C2FF582740A3EF583E0FFE52CFDE52DC39DFDE49400FC742D2DF58274013CF583EFF0152C80CA742D252DF582E43401F5837402F090015CF0A304F0E4F562
:403080002CE52CC39403501E7419252CF582E4340FF583E0FF745E252CF582E43401F583EFF0052C80DB85312CE52C6032FFC3E5319FFFE49400FE74732FF582740A3EF5F3
:4030C00083E0FFE52CFDE531C39DFDE49400FC74612DF58274013CF583EFF0152C80CA90018E7403F0A3F0E4F52CE52CC394035044E52C25E025E0241CF582E4340FF583DF
:40310000E0FCA3E0FDA3E0FEA3E0FF7419252CF582E4340FF583E0F9F81293AC75F002E52CA42490F582E5F03401F583EEF0A3EFF0052C80B585322CE52C6032FFC3E5322C
:403140009FFFE49400FE74842FF582740A3EF583E0FFE52CFDE532C39DFDE49400FC74962DF58274013CF583EFF0152C80CA9001C07407F0A37403F0E4F52CE52CC394031D
:403180005031E52C25E025E02428F582E4340FF583E0FCA3E0FDA3E0FEA3E0FF75F004E52CA424C2F582E5F03401F58312940D052C80C885332CE52C6032FFC3E5339FFF8A
:4031C000E49400FE749D2FF582740A3EF583E0FFE52CFDE533C39DFDE49400FC74CE2DF58274013CF583EFF0152C80CAE49001F2F0A304F0900F34E09001F4F0900F3460D6
:403200001C900EDE74FFF0A37445F0A374B8F07B017A0A79AE12E2E8752D1C801A900EDE74FFF0A37445F0A374BEF07B017A0A79AE12E2E8752D1B852D2CE52C6032FFC33A
:40324000E52D9FFFE49400FE74AE2FF582740A3EF583E0FFE52CFDE52DC39DFDE49400FC74F52DF58274013CF583EFF0152C80CA74F5252DF582E43401F5837403F0900200
:40328000247405F0A37402F0E4F52CE52CC394014003023316E52C25E025E02435F582E4340FF583E0FCA3E0FDA3E0FEA3E0FF7419252CF582E4340FF583E0F9F81293AC7D
:4032C00075F008E52CA42426F582E5F03402F58312940DE52C25E025E0243DF582E4340FF583E0FCA3E0FDA3E0FEA3E0FF7419252CF582E4340FF583E0F9F81293AC75F049
:4033000008E52CA4242AF582E5F03402F58312940D052C02328B85342CE52C6032FFC3E5349FFFE49400FE74CA2FF582740A3EF583E0FFE52CFDE534C39DFDE49400FC740B
:403340002E2DF58274023CF583EFF0152C80CA9002567405F0A37402F0900F49E0FCA3E0FDA3E0FEA3E0FF90025812940D900F45E0FCA3E0FDA3E0FEA3E0FF90025C1294D2
:403380000D85352CE52C6032FFC3E5359FFFE49400FE74E72FF582740A3EF583E0FFE52CFDE535C39DFDE49400FC74602DF58274023CF583EFF0152C80CA9002887403F0ED
:4033C000A37401F0900F4DE0FFA3E090028ACFF0A3EFF085362CE52C6032FFC3E5369FFFE49400FE74022FF582740B3EF583E0FFE52CFDE536C39DFDE49400FC748C2DF553
:403400008274023CF583EFF0152C80CAE49002BAF0A304F0900F53E09002BCF0900F53601C900EDE74FFF0A37445F0A374B8F07B017A0B791612E2E8752D25801A900EDE0E
:4034400074FFF0A37445F0A374BEF07B017A0B791612E2E8752D24852D2CE52C6032FFC3E52D9FFFE49400FE74162FF582740B3EF583E0FFE52CFDE52DC39DFDE49400FC08
:4034800074BD2DF58274023CF583EFF0152C80CA74BD252DF582E43402F5837403F09002EC04F0A37402F0900F4FE0FFA3E09002EECFF0A3EFF0900F51E0FFA3E09002F050
:4034C000CFF0A3EFF085372CE52C6032FFC3E5379FFFE49400FE743B2FF582740B3EF583E0FFE52CFDE537C39DFDE49400FC74F22DF58274023CF583EFF0152C80CA900379
:403500001E7406F0A37402F0900F54E0FCA3E0FDA3E0FEA3E0FF90032012940D900F58E0FCA3E0FDA3E0FEA3E0FF90032412940D85382CE52C6032FFC3E5389FFFE4940001
:40354000FE74502FF582740B3EF583E0FFE52CFDE538C39DFDE49400FC74282DF58274033CF583EFF0152C80CA9003507402F0A314F0900F5CE0900352F085392CE52C6003
:4035800032FFC3E5399FFFE49400FE74652FF582740B3EF583E0FFE52CFDE539C39DFDE49400FC74532DF58274033CF583EFF0152C80CAE4900382F0A304F0900F5DE09069
:4035C0000384F0900F5D601C900EDE74FFF0A37445F0A374B8F07B017A0B797912E2E8752D24801A900EDE74FFF0A37445F0A374BEF07B017A0B797912E2E8752D23852D8D
:403600002CE52C6032FFC3E52D9FFFE49400FE74792FF582740B3EF583E0FFE52CFDE52DC39DFDE49400FC74852DF58274033CF583EFF0152C80CA7485252DF582E434032C
:40364000F5837403F09003B47401F0A3F0900F5EE09003B6F0853A2CE52C6032FFC3E53A9FFFE49400FE749D2FF582740B3EF583E0FFE52CFDE53AC39DFDE49400FC74B79F
:403680002DF58274033CF583EFF0152C80CAE49003E6F0A304F0900F5FE09003E8F0900F5F601C900EDE74FFF0A37445F0A374B8F07B017A0B79B612E2E8752D18801A9050
:4036C0000EDE74FFF0A37445F0A374BEF07B017A0B79B612E2E8752D17852D2CE52C6032FFC3E52D9FFFE49400FE74B62FF582740B3EF583E0FFE52CFDE52DC39DFDE49463
:4037000000FC74E92DF58274033CF583EFF0152C80CA74E9252DF582E43403F5837403F0E4900418F0A304F0900F7AE090041AF0900F7A601C900EDE74FFF0A37445F0A3C6
:4037400074B8F07B017A0B79CE12E2E8752D1D801A900EDE74FFF0A37445F0A374BEF07B017A0B79CE12E2E8752D1C852D2CE52C6032FFC3E52D9FFFE49400FE74CE2FF50F
:4037800082740B3EF583E0FFE52CFDE52DC39DFDE49400FC741B2DF58274043CF583EFF0152C80CA741B252DF582E43404F5837403F090044A7405F0A37401F0900F7BE01D
:4037C000FCA3E0FDA3E0FEA3E0FF900F19E0F9F81293AC90044C12940D853F2CE52C6032FFC3E53F9FFFE49400FE74EB2FF582740B3EF583E0FFE52CFDE53FC39DFDE49430
:4038000000FC74502DF58274043CF583EFF0152C80CA90047C7407F0A37401F0900F7FE0FCA3E0FDA3E0FEA3E0FF90047E12940D85402CE52C6032FFC3E5409FFFE4940038
:40384000FE74FF2FF582740B3EF583E0FFE52CFDE540C39DFDE49400FC74822DF58274043CF583EFF0152C80CA9004AE7407F0A37401F0E4FFFE7D7A7C44900F83E0F8A3FF
:40388000E0F9A3E0FAA3E0FB128D219004B012940D85412CE52C6032FFC3E5419FFFE49400FE74232FF582740C3EF583E0FFE52CFDE541C39DFDE49400FC74B42DF5827455
:4038C000043CF583EFF0152C80CA9004E07407F0A37401F0900F87E0FCA3E0FDA3E0FEA3E0FF9004E212940D85422CE52C6032FFC3E5429FFFE49400FE74462FF582740C9E
:403900003EF583E0FFE52CFDE542C39DFDE49400FC74E62DF58274043CF583EFF0152C80CA9005127407F0A314F0E4F52CE52CC394065031E52C25E025E02460F582E4347D
:403940000FF583E0FCA3E0FDA3E0FEA3E0FF75F004E52CA42414F582E5F03405F58312940D052C80C8853B2CE52C6032FFC3E53B9FFFE49400FE74572FF582740C3EF583B6
:40398000E0FFE52CFDE53BC39DFDE49400FC742C2DF58274053CF583EFF0152C80CAE4900544F0A304F0900F8DE0900546F0900F8D601C900EDE74FFF0A37445F0A374B891
:4039C000F07B017A0C796C12E2E8752D24801A900EDE74FFF0A37445F0A374BEF07B017A0C796C12E2E8752D23852D2CE52C6032FFC3E52D9FFFE49400FE746C2FF58274D9
:403A00000C3EF583E0FFE52CFDE52DC39DFDE49400FC74472DF58274053CF583EFF0152C80CA7447252DF582E43405F5837403F0E4900576F0A304F0900F8BE0900578F001
:403A4000900F8B601C900EDE74FFF0A37445F0A374B8F07B017A0C799012E2E8752D23801A900EDE74FFF0A37445F0A374BEF07B017A0C799012E2E8752D22852D2CE52CE6
:403A80006032FFC3E52D9FFFE49400FE74902FF582740C3EF583E0FFE52CFDE52DC39DFDE49400FC74792DF58274053CF583EFF0152C80CA7479252DF582E43405F58374F5
:403AC00003F0E49005A8F0A304F0900F8CE09005AAF0900F8C601C900EDE74FFF0A37445F0A374B8F07B017A0C79B312E2E8752D27801A900EDE74FFF0A37445F0A374BEF3
:403B0000F07B017A0C79B312E2E8752D26852D2CE52C6032FFC3E52D9FFFE49400FE74B32FF582740C3EF583E0FFE52CFDE52DC39DFDE49400FC74AB2DF58274053CF58397
:403B4000EFF0152C80CA74AB252DF582E43405F5837403F09005DA7407F0A37401F0900F8EE0FCA3E0FDA3E0FEA3E0FF9005DC12940D85432CE52C6032FFC3E5439FFFE462
:403B80009400FE74DA2FF582740C3EF583E0FFE52CFDE543C39DFDE49400FC74E02DF58274053CF583EFF0152C80CA90060C7403F0A37401F0900F92E0FFA3E090060ECFBD
:403BC000F0A3EFF085442CE52C6032FFC3E5449FFFE49400FE74022FF582740D3EF583E0FFE52CFDE544C39DFDE49400FC74102DF58274063CF583EFF0152C80CA90063EEE
:403C00007403F0A37401F0900F94E0FFA3E0900640CFF0A3EFF085452CE52C6032FFC3E5459FFFE49400FE742E2FF582740D3EF583E0FFE52CFDE545C39DFDE49400FC74F5
:403C4000422DF58274063CF583EFF0152C80CA9006707405F0A37401F0900F96E0FCA3E0FDA3E0FEA3E0FF90067212940D85462CE52C6032FFC3E5469FFFE49400FE744EA3
:403C80002FF582740D3EF583E0FFE52CFDE546C39DFDE49400FC74762DF58274063CF583EFF0152C80CA9006A27405F0A37401F0900F9AE0FCA3E0FDA3E0FEA3E0FF900641
:403CC000A412940D85472CE52C6032FFC3E5479FFFE49400FE74712FF582740D3EF583E0FFE52CFDE547C39DFDE49400FC74A82DF58274063CF583EFF0152C80CA9006D462
:403D00007402F0A314F0900F9EE09006D6F085482CE52C6032FFC3E5489FFFE49400FE74962FF582740D3EF583E0FFE52CFDE548C39DFDE49400FC74D72DF58274063CF5F2
:403D400083EFF0152C80CA9007067402F0A314F0900F9FE0900708F085492CE52C6032FFC3E5499FFFE49400FE74A82FF582740D3EF583E0FFE52CFDE549C39DFDE4940075
:403D8000FC74092DF58274073CF583EFF0152C80CA9007387402F0A314F0900FA0E090073AF0854A2CE52C6032FFC3E54A9FFFE49400FE74BE2FF582740D3EF583E0FFE51B
:403DC0002CFDE54AC39DFDE49400FC743B2DF58274073CF583EFF0152C80CA90076A7404F0A37401F0900FA1E0FFA3E090076CCFF0A3EFF0854B2CE52C6032FFC3E54B9F27
:403E0000FFE49400FE74DD2FF582740D3EF583E0FFE52CFDE54BC39DFDE49400FC746E2DF58274073CF583EFF0152C80CA90079C7404F0A37401F0900FA3E0FFA3E09007F4
:403E40009ECFF0A3EFF0854C2CE52C6032FFC3E54C9FFFE49400FE74FA2FF582740D3EF583E0FFE52CFDE54CC39DFDE49400FC74A02DF58274073CF583EFF0152C80CA85AC
:403E80003C2CE52C6032FFC3E53C9FFFE49400FE740E2FF582740E3EF583E0FFE52CFDE53CC39DFDE49400FC74CE2DF58274073CF583EFF0152C80CA853D2CE52C6032FFB2
:403EC000C3E53D9FFFE49400FE74722FF582740E3EF583E0FFE52CFDE53DC39DFDE49400FC74642DF58274083CF583EFF0152C80CA853E2CE52C6032FFC3E53E9FFFE49482
:403F000000FE74B12FF582740E3EF583E0FFE52CFDE53EC39DFDE49400FC74FA2DF58274083CF583EFF0152C80CA7B017A00792E9009C1E0A3E014FD12EC799009C1E0FCDB
:403F4000A3E0FD242DF58274003CF583EFF07B017A00792E12D718229010E9E0900FC4F022900F18E064036064E4FFFE7D807C479010E9E0F8A3E0F9A3E0FAA3E0FB128D7A
:403F800021128F7E900FC512940DE4FFFE7D807C479010EDE0F8A3E0F9A3E0FAA3E0FB128D21128F7E900FC912940DE4FFFE7D807C479010F1E0F8A3E0F9A3E0FAA3E0FBB2
:403FC000128D21128F7E900FCD12940D22E4FFFE7D807C479010E9E0F8A3E0F9A3E0FAA3E0FB128D21128F7E900FDD12940DE4FFFE7D807C479010EDE0F8A3E0F9A3E0FA1B
:40400000A3E0FB128D21128F7E900FE112940DE4FFFE7D807C479010F1E0F8A3E0F9A3E0FAA3E0FB128D21128F7E900FE512940D22900F18E064036064E4FFFE7D807C47D4
:404040009010E9E0F8A3E0F9A3E0FAA3E0FB128D21128F7E900FD112940DE4FFFE7D807C479010EDE0F8A3E0F9A3E0FAA3E0FB128D21128F7E900FD512940DE4FFFE7D8005
:404080007C479010F1E0F8A3E0F9A3E0FAA3E0FB128D21128F7E900FD912940D22E4FFFE7D807C479010E9E0F8A3E0F9A3E0FAA3E0FB128D21128F7E900FE912940DE4FFBB
:4040C000FE7D807C479010EDE0F8A3E0F9A3E0FAA3E0FB128D21128F7E900FED12940DE4FFFE7D807C479010F1E0F8A3E0F9A3E0FAA3E0FB128D21128F7E900FF112940D65
:40410000229010E9E06007900FF57403F022E4900FF5F0229010E9E0900FF6F0229010E9E0900FF7F022E4F52CE52CC3940340030245B774E9252CF582E43410F583E0FF70
:4041400074F8252CF582E4340FF583EFF0052C80D8E4F52CE52CC394035071E52C25E024E9F582E43410F583E0FEA3E0FFEE3395E0FDFCE52C25E025E024FBF582E4340FD2
:40418000F58312940DE52C25E025E024FBF582E4340FF583C083C082E0FCA3E0FDA3E0FEA3E0FF74F8252CF582E4340FF583E0F9F81293C0D082D08312940D74B9252CF5CC
:4041C00082E43411F583E4F0052C8088D20A22E4F52CE52CC3940340030245B7E52C25E025E024E9F582E43410F583E0FCA3E0FDA3E0FEA3E0FFE52C25E025E02407F58285
:40420000E43410F58312940D052C80C69010E9E0901013F022E4F52CE52CC3940240030245B7E52C75F008A424E9F582E43410F583E0FCA3E0FDA3E0FEA3E0FFE52C25E01B
:4042400025E02414F582E43410F58312940DE52C75F008A424EDF582E43410F583E0FCA3E0FDA3E0FEA3E0FFE52C25E025E0241CF582E43410F58312940DE52C25E025E04E
:404280002414F582E43410F583C083C082E0FCA3E0FDA3E0FEA3E0FF74F8252CF582E4340FF583E0F9F81293C0D082D08312940DE52C25E025E0241CF582E43410F583C038
:4042C00083C082E0FCA3E0FDA3E0FEA3E0FF74F8252CF582E4340FF583E0F9F81293C0D082D08312940D052C0242189010E9E0FCA3E0FDA3E0FEA3E0FF9009C312940DE4D1
:40430000FFFEFDFC9009C3E0F8A3E0F9A3E0FAA3E0FBD312937250149009C3E0FCA3E0FDA3E0FEA3E0FF90102812940D9010EDE0FCA3E0FDA3E0FEA3E0FF9009C312940D5D
:40434000E4FFFEFDFC9009C3E0F8A3E0F9A3E0FAA3E0FBC312937250030245B79009C3E0FCA3E0FDA3E0FEA3E0FF90102412940D229010E9E0FFA3E090102CCFF0A3EFF041
:40438000229010E9E0901032F0229010E9E0FFA3E090102ECFF0A3EFF09010EBE0FFA3E0901030CFF0A3EFF0229010E9E0FCA3E0FDA3E0FEA3E0FF90103312940D9010ED79
:4043C000E0FCA3E0FDA3E0FEA3E0FF90103712940D229010E9E090103BF0229010E9E09009C7F0600790103C7401F022E490103CF0229010E9E090103DF0229010E9E090B6
:40440000103EF0229010E9E0901059F0229010E9E0FCA3E0FDA3E0FEA3E0FF90105A12940D90105AE0FCA3E0FDA3E0FEA3E0FF900FF8E0F9F81293C090105A12940D22908E
:4044400010E9E0FCA3E0FDA3E0FEA3E0FF90105E12940D229010E9E0FCA3E0FDA3E0FEA3E0FF90106212940D901062E0FCA3E0FDA3E0FEA3E0FFE4FBFA797A7844128E2AC1
:4044800090106212940D229010E9E0FCA3E0FDA3E0FEA3E0FF90106612940D22E4F52CE52CC3940640030245B7E52C25E025E024E9F582E43410F583E0FCA3E0FDA3E0FE92
:4044C000A3E0FFE52C25E025E0243FF582E43410F58312940D052C80C69010E9E09009C7F0600790106C7401F022E490106CF0229010E9E09009C7F0600790106A7401F037
:4045000022E490106AF0229010E9E09009C7F0600790106B7401F022E490106BF0229010E9E0FCA3E0FDA3E0FEA3E0FF90106D12940D229010E9E0FFA3E0901071CFF0A37E
:40454000EFF0229010E9E0FFA3E0901073CFF0A3EFF0229010E9E0FCA3E0FDA3E0FEA3E0FF90107512940D229010E9E0FCA3E0FDA3E0FEA3E0FF90107912940D229010E9A8
:40458000E090107DF0229010E9E090107EF0229010E9E090107FF0229010E9E0FFA3E0901080CFF0A3EFF0229010E9E0FFA3E0901082CFF0A3EFF022205945530000204E5C
:4045C0004F00002055736200002048616E646C65000020454D472070726F706F7274696F6E616C000020454D4720696E74656772616C000020454D472046434653000020AA
:40460000454D47204643465320416476616E6365640000204A6F79737469636B000020506F736974696F6E00002050574D00002043757272656E74000020506F7369746995
:404640006F6E20616E642043757272656E740000000D0A004669726D776172652076657273696F6E3A200053482D50524F2076362E312E33202D204D617374657220772F4F
:4046800048617074696320466565646261636B206D616E6167656D656E74002E0D0A0D0A0044455649434520494E464F0D0A0049443A2025640D0A0050574D207265736388
:4046C000616C696E672061637469766174696F6E3A20005945530A004E4F0A0050574D204C696D69743A2025640D0A004D4F544F5220494E464F0D0A004D6F746F722072BD
:4047000065666572656E636500202D2043757272656E74733A2000202D2050776D3A2000202D20506F736974696F6E3A2000256420004D6F746F7220656E61626C65643A29
:4047400020005945530D0A004E4F0D0A000D0A4D4541535552454D454E545320494E464F0D0A0053656E736F722076616C75653A0D0A002564202D3E2025640042617474FA
:4047800065727920566F6C7461676520286D56293A20256C640046756C6C2063686172676520706F7765722074656E73696F6E20286D56293A20256C640043757272656EB8
:4047C0007420286D41293A20256C64000D0A44455649434520504152414D45544552530D0A0050494420436F6E74726F6C6C65723A0D0A0050202D3E202566202000492044
:404800002D3E20256620200044202D3E2025660D0A0043757272656E742050494420436F6E74726F6C6C65723A0D0A00537461727475702061637469766174696F6E3A207D
:404840005945530D0A00537461727475702061637469766174696F6E3A204E4F0D0A00496E707574206D6F64653A205553420D0A00496E707574206D6F64653A2048616E67
:40488000646C650D0A00496E707574206D6F64653A20454D472070726F706F7274696F6E616C0D0A00496E707574206D6F64653A20454D4720696E74656772616C0D0A00AF
:4048C000496E707574206D6F64653A20454D4720464346530D0A00496E707574206D6F64653A20454D472046434653204144560D0A00496E707574206D6F64653A204A6F13
:4049000079737469636B0D0A00436F6E74726F6C206D6F64653A20506F736974696F6E0D0A00436F6E74726F6C206D6F64653A2050574D0D0A00436F6E74726F6C206D6F75
:4049400064653A2043757272656E740D0A00436F6E74726F6C206D6F64653A20506F736974696F6E20616E642043757272656E740D0A004162736F6C75746520656E636F54
:4049800064657220706F736974696F6E3A205945530D0A004162736F6C75746520656E636F64657220706F736974696F6E3A204E4F0D0A004D6F746F722D48616E646C6559
:4049C00020526174696F3A2025640D0A0053656E736F72207265736F6C7574696F6E3A0D0A004D6561737572656D656E74204F66667365743A0D0A002564202D3E20256C3C
:404A000064004D6561737572656D656E74204D756C7469706C6965723A0D0A002564202D3E2025660043757272656E74206C6F6F6B7570207461626C653A0D0A00705B3024
:404A40005D202D20705B325D3A2025662C2025662C2025660A00705B335D202D20705B355D3A2025662C2025662C2025660A00506F736974696F6E206C696D69742061633B
:404A8000746976653A20256400506F736974696F6E206C696D6974206D6F746F722025643A20696E66202D3E20256C64202000737570202D3E20256C640D0A004D61782001
:404AC0007374657020706F7320616E64206E65673A2025642025640043757272656E74206C696D69743A202564004A6F79737469636B20636C6F73757265207370656564AC
:404B00003A202564004A6F79737469636B206761696E3A2025687500454D47207468726573686F6C6473205B30202D20313032345D3A2025752C20257500454D47206D6111
:404B4000782076616C756573205B30202D20343039365D3A20256C752C20256C750043616C6962726174696F6E20656E61626C65643A205945530D0A0043616C69627261B0
:404B800074696F6E20656E61626C65643A204E4F0D0A00454D47206D61782073706565643A20256400526573742074696D652064656C617920286D73293A20256600526566
:404BC00073742076656C6F6369747920636C6F7375726520287469636B732F736563293A202566005265737420706F736974696F6E3A202564005265737420726174696F51
:404C00003A202566004D796F656C65637472696320636173652032204D61737465723A205945530D0A004D796F656C65637472696320636173652032204D61737465723ABF
:404C4000204E4F0D0A004D6173746572207769746820466F726365206465766963653A205945530D0A004D6173746572207769746820466F726365206465766963653A20D6
:404C80004E4F0D0A004D617374657220776974682050726F7072696F63657074697665206465766963653A205945530D0A004D617374657220776974682050726F70726927
:404CC0006F63657074697665206465766963653A204E4F0D0A0064656275673A20256C64000000000000000000000000000000000000000000000000000000000000000061
:404D00000000000000000000000000000000000000000000000000000000000000000000000000000000000000000000000000000000000000000000000000000000000073
:404D40000000000000000000000000000000000000000000000000000000000000000000000000000000000000000000000000000000000000000000000000000000000033
:404D800000000000000000000000000000000000000000000000000000000000000000000000000000000000000000000000000000000000000000000000000000000000F3
:404DC00000000000000000000000000000000000000000000000000000000000000000000000000000000000000000000000000000000000000000000000000000000000B3
:405D000000000000000000000000000000000000000000000000000031202D204465766963652049443A0032202D20506F736974696F6E20504944205B502C20492C2044AD
:405D40005D3A0033202D2043757272656E7420504944205B502C20492C20445D3A0034202D20537461727475702041637469766174696F6E3A000000000035202D20496E2C
:405D8000707574206D6F64653A0000000000000000000000000000000000000036202D20436F6E74726F6C206D6F64653A0000000000000000000000000000000000000008
:405DC00000000037202D205265736F6C7574696F6E733A0038202D204D6561737572656D656E74204F6666736574733A0039202D204D756C7469706C696572733A003130E4
:405E0000202D20506F732E206C696D6974206163746976653A00000000003131202D20506F732E206C696D697473205B696E662C207375705D3A003132202D204D61782096
:405E40007374657073205B6E65672C20706F735D3A003133202D2043757272656E74206C696D69743A003134202D20454D472063616C6962726174696F6E206F6E20737485
:405E800061727475703A00000000003135202D20454D47207468726573686F6C64733A003136202D20454D47206D61782076616C7565733A003137202D20454D47206D619D
:405EC000782073706565643A003138202D204162736F6C75746520656E636F64657220706F736974696F6E3A00000000003139202D204D6F746F722068616E646C652072D5
:405F00006174696F3A003230202D2050574D2072657363616C696E673A00000000003231202D205265737420706F736974696F6E20666C61673A00000000003232202D20DD
:405F40005265737420706F736974696F6E3A003233202D205265737420706F736974696F6E2074696D652064656C617920286D73293A003234202D20526573742076656C4E
:405F800020636C6F7375726520287469636B732F736563293A003235202D205265737420726174696F3A003236202D2043757272656E74206C6F6F6B75703A003237202D44
:405FC000204D796F656C65637472696320636173652032204D61737465723A00000000003238202D204D6173746572207769746820466F726365206465766963653A000035
:406000000000003239202D204D617374657220776974682050726F7072696F632E206465766963653A00000000003330202D2043757272656E742070726F706F7274696F19
:406040006E616C206761696E2028666F726365293A003331202D2043757272656E7420646966666572656E63652073617475726174696F6E2028666F726365293A00333204
:40608000202D2043757272656E742064656164207A6F6E652028666F726365293A003333202D204D617820736C696465206D6F76656D656E74202870726F7072696F293AE1
:4060C000003334202D204D617820536F667448616E6420636C6F73757265202870726F7072696F293A003335202D20536F667448616E642049443A003336202D20466F72CC
:406100006365206465766963652049443A003337202D2050726F7072696F63657074697665206465766963652049443A003338202D204A6F79737469636B20636C6F737589
:4061400072652073706565643A003339202D204A6F79737469636B206761696E3A0030202D3E205573620A31202D3E2048616E646C650A32202D3E20454D472070726F70E3
:406180002E0A33202D3E20454D4720496E7465672E0A34202D3E20454D4720464346530A35202D3E20454D472046434653204164762E0A36202D3E204A6F79737469636BFE
:4061C0000A0030202D3E20506F736974696F6E0A31202D3E2050574D0A32202D3E2043757272656E740A33202D3E20506F736974696F6E20616E642043757272656E740A24
:406200000030202D3E2044656163746976617465205B4E4F5D0A31202D3E204163746976617465205B5945535D0A009006D2EBF0A3EAF0A3E9F0900EE5E064FA7003027A3E
:40624000789006D2E0FBA3E0FAA3E0F8AC02AD037BFF7A46795012964A900EDE74FFF0A37446F0A37451F09006D2E0FBA3E0FAA3E0F912E2E8900EDE74FFF0A37446F0A3AD
:406280007454F09006D2E0FBA3E0FAA3E0F912E2E8900EDE74FFF0A37446F0A37467F09006D2E0FBA3E0FAA3E0F912E2E8900EDE74FFF0A37446F0A3749BF09006D2E0FB4B
:4062C000A3E0FAA3E0F912E2E8900EDE74FFF0A37446F0A374A1F09006D2E0FBA3E0FAA3E0F912E2E890073E74FFF0A37446F0A374AFF0900EE5E0FF900741E4F0A3EFF012
:406300007B017A0679D712AF31900EDE7401F0A37406F0A374D7F09006D2E0FBA3E0FAA3E0F912E2E8900EDE74FFF0A37446F0A374B8F09006D2E0FBA3E0FAA3E0F912E220
:40634000E8900F5FE0B4011E900EDE74FFF0A37446F0A374D3F09006D2E0FBA3E0FAA3E0F912E2E8801C900EDE74FFF0A37446F0A374D8F09006D2E0FBA3E0FAA3E0F91271
:40638000E2E890073E74FFF0A37446F0A374DCF09011E1E0FF900741E4F0A3EFF07B017A0679D712AF31900EDE7401F0A37406F0A374D7F09006D2E0FBA3E0FAA3E0F912C4
:4063C000E2E8900EDE74FFF0A37446F0A37451F09006D2E0FBA3E0FAA3E0F912E2E8900EDE74FFF0A37446F0A374ECF09006D2E0FBA3E0FAA3E0F912E2E8900EDE74FFF021
:40640000A37446F0A374F9F09006D2E0FBA3E0FAA3E0F912E2E8900FF7E0B4021E900EDE74FFF0A37447F0A37409F09006D2E0FBA3E0FAA3E0F912E2E88041900FF7E0B46D
:40644000011E900EDE74FFF0A37447F0A37417F09006D2E0FBA3E0FAA3E0F912E2E8801C900EDE74FFF0A37447F0A37420F09006D2E0FBA3E0FAA3E0F912E2E8E49006D543
:40648000F0A3F0C39006D6E094029006D5E06480948040030265E7900FF7E06402705F90073E74FFF0A37447F0A3742EF09006D5E0FEA3E07802C333CE33CED8F924B2F5D3
:4064C00082740F3EF583E0A3E0A3E0FFA3E0900741CFF0A3EFF07B017A0679D712AF31900EDE7401F0A37406F0A374D7F09006D2E0FBA3E0FAA3E0F912E2E80265D6900F62
:40650000F7E06401705E90073E74FFF0A37447F0A3742EF09006D5E0FEA3E07802C333CE33CED8F924BAF582740F3EF583E0A3E0A3E0FFA3E0900741CFF0A3EFF07B017AB5
:406540000679D712AF31900EDE7401F0A37406F0A374D7F09006D2E0FBA3E0FAA3E0F912E2E8807290073E74FFF0A37447F0A3742EF09006D5E0FAA3E0FBAE027802C3335F
:40658000CE33CED8F924AAF582740F3EF583E0FCA3E0FDA3E0FEA3E0FF74192BF582740F3AF583E0F9F81293AC900741EEF0A3EFF07B017A0679D712AF31900EDE7401F081
:4065C000A37406F0A374D7F09006D2E0FBA3E0FAA3E0F912E2E89006D6E004F070069006D5E004F0026483900EDE74FFF0A37446F0A37451F09006D2E0FBA3E0FAA3E0F9FA
:4066000012E2E8900EDE74FFF0A37446F0A37451F09006D2E0FBA3E0FAA3E0F912E2E890073E74FFF0A37447F0A37432F07B017A0679D712AF31900FC2E054036019900E36
:40664000DE74FFF0A37447F0A37442F07B017A0679D712E2E88017900EDE74FFF0A37447F0A37448F07B017A0679D712E2E8900EDE7401F0A37406F0A374D7F09006D2E0CB
:40668000FBA3E0FAA3E0F912E2E8900EDE74FFF0A37447F0A3744DF09006D2E0FBA3E0FAA3E0F912E2E8900EDE74FFF0A37447F0A37463F09006D2E0FBA3E0FAA3E0F9128C
:4066C000E2E8E49006D5F0A3F0C39006D6E094039006D5E064809480400302678F90073E74FFF0A37447F0A37473F09006D5E0FCA3E0FD2401FEE43C900741F0A3CEF0EDBA
:40670000AE047802C333CE33CED8F924A5F58274113EF583E0FCA3E0FDA3E0FEA3E0FF9006D5E0FAA3E02419F582740F3AF583E0F9F81293AC900743EEF0A3EFF07B017ABA
:406740000679D712AF31900EDE7401F0A37406F0A374D7F09006D2E0FBA3E0FAA3E0F912E2E8900EDE74FFF0A37446F0A37451F09006D2E0FBA3E0FAA3E0F912E2E89006BB
:40678000D6E004F070069006D5E004F00266C990073E74FFF0A37447F0A3747CF09010C9E0FCA3E0FDA3E0FEA3E0FF90074112940D7B017A0679D712AF31900EDE7401F0CE
:4067C000A37406F0A374D7F09006D2E0FBA3E0FAA3E0F912E2E8900EDE74FFF0A37446F0A37451F09006D2E0FBA3E0FAA3E0F912E2E890073E74FFF0A37447F0A37496F0D7
:40680000901188E0FCA3E0FDA3E0FEA3E0FF90074112940D7B017A0679D712AF31900EDE7401F0A37406F0A374D7F09006D2E0FBA3E0FAA3E0F912E2E8900EDE74FFF0A3A1
:406840007446F0A37451F09006D2E0FBA3E0FAA3E0F912E2E890073E74FFF0A37447F0A374BAF09011B1E0FCA3E0FDA3E0FEA3E0FF90074112940D7B017A0679D712AF313D
:40688000900EDE7401F0A37406F0A374D7F09006D2E0FBA3E0FAA3E0F912E2E8900EDE74FFF0A37446F0A37451F09006D2E0FBA3E0FAA3E0F912E2E8900EDE74FFF0A37462
:4068C00047F0A374CCF09006D2E0FBA3E0FAA3E0F912E2E8900EDE74FFF0A37447F0A374E2F09006D2E0FBA3E0FAA3E0F912E2E8900F18E0640370030269FD90073E74FF27
:40690000F0A37447F0A374F4F0900EE6E0FCA3E0FDA3E0FEA3E0FFEC128F40E4FBFA79807847128E2A90074112940D7B017A0679D712AF31900EDE7401F0A37406F0A37445
:40694000D7F09006D2E0FBA3E0FAA3E0F912E2E890073E74FFF0A37447F0A374FEF0900EEAE0FCA3E0FDA3E0FEA3E0FFEC128F40E4FBFA79807847128E2A90074112940D13
:406980007B017A0679D712AF31900EDE7401F0A37406F0A374D7F09006D2E0FBA3E0FAA3E0F912E2E890073E74FFF0A37448F0A37408F0900EEEE0FCA3E0FDA3E0FEA3E033
:4069C000FFEC128F40E4FBFA79807847128E2A90074112940D7B017A0679D712AF31900EDE7401F0A37406F0A374D7F09006D2E0FBA3E0FAA3E0F912E2E8026AFC90073E86
:406A000074FFF0A37447F0A374F4F0900EFEE0FCA3E0FDA3E0FEA3E0FFEC128F40E4FBFA79807847128E2A90074112940D7B017A0679D712AF31900EDE7401F0A37406F0D0
:406A4000A374D7F09006D2E0FBA3E0FAA3E0F912E2E890073E74FFF0A37447F0A374FEF0900F02E0FCA3E0FDA3E0FEA3E0FFEC128F40E4FBFA79807847128E2A9007411283
:406A8000940D7B017A0679D712AF31900EDE7401F0A37406F0A374D7F09006D2E0FBA3E0FAA3E0F912E2E890073E74FFF0A37448F0A37408F0900F06E0FCA3E0FDA3E0FEFB
:406AC000A3E0FFEC128F40E4FBFA79807847128E2A90074112940D7B017A0679D712AF31900EDE7401F0A37406F0A374D7F09006D2E0FBA3E0FAA3E0F912E2E8900EDE744F
:406B0000FFF0A37448F0A37412F09006D2E0FBA3E0FAA3E0F912E2E8900F18E064037003026C2590073E74FFF0A37447F0A374F4F0900EF2E0FCA3E0FDA3E0FEA3E0FFEC86
:406B4000128F40E4FBFA79807847128E2A90074112940D7B017A0679D712AF31900EDE7401F0A37406F0A374D7F09006D2E0FBA3E0FAA3E0F912E2E890073E74FFF0A374DD
:406B800047F0A374FEF0900EF6E0FCA3E0FDA3E0FEA3E0FFEC128F40E4FBFA79807847128E2A90074112940D7B017A0679D712AF31900EDE7401F0A37406F0A374D7F09059
:406BC00006D2E0FBA3E0FAA3E0F912E2E890073E74FFF0A37448F0A37408F0900EFAE0FCA3E0FDA3E0FEA3E0FFEC128F40E4FBFA79807847128E2A90074112940D7B017AD7
:406C00000679D712AF31900EDE7401F0A37406F0A374D7F09006D2E0FBA3E0FAA3E0F912E2E8026D2490073E74FFF0A37447F0A374F4F0900F0AE0FCA3E0FDA3E0FEA3E00B
:406C4000FFEC128F40E4FBFA79807847128E2A90074112940D7B017A0679D712AF31900EDE7401F0A37406F0A374D7F09006D2E0FBA3E0FAA3E0F912E2E890073E74FFF008
:406C8000A37447F0A374FEF0900F0EE0FCA3E0FDA3E0FEA3E0FFEC128F40E4FBFA79807847128E2A90074112940D7B017A0679D712AF31900EDE7401F0A37406F0A374D7A8
:406CC000F09006D2E0FBA3E0FAA3E0F912E2E890073E74FFF0A37448F0A37408F0900F12E0FCA3E0FDA3E0FEA3E0FFEC128F40E4FBFA79807847128E2A90074112940D7BB8
:406D0000017A0679D712AF31900EDE7401F0A37406F0A374D7F09006D2E0FBA3E0FAA3E0F912E2E8900EDE74FFF0A37446F0A37451F09006D2E0FBA3E0FAA3E0F912E2E810
:406D4000900F16E0B4031E900EDE74FFF0A37448F0A3742CF09006D2E0FBA3E0FAA3E0F912E2E8801C900EDE74FFF0A37448F0A37446F09006D2E0FBA3E0FAA3E0F912E2E9
:406D8000E8900F17E0B407004003026E7B906D94F8282873026DA9026DC8026DE7026E05026E23026E41026E5F900EDE74FFF0A37448F0A3745FF09006D2E0FBA3E0FAA3FC
:406DC000E0F912E2E8026E7B900EDE74FFF0A37448F0A37471F09006D2E0FBA3E0FAA3E0F912E2E8026E7B900EDE74FFF0A37448F0A37486F09006D2E0FBA3E0FAA3E0F953
:406E000012E2E88076900EDE74FFF0A37448F0A374A5F09006D2E0FBA3E0FAA3E0F912E2E88058900EDE74FFF0A37448F0A374C0F09006D2E0FBA3E0FAA3E0F912E2E88029
:406E40003A900EDE74FFF0A37448F0A374D7F09006D2E0FBA3E0FAA3E0F912E2E8801C900EDE74FFF0A37448F0A374F2F09006D2E0FBA3E0FAA3E0F912E2E8900F18E0142E
:406E8000602814604314605E24037076900EDE74FFF0A37449F0A37409F09006D2E0FBA3E0FAA3E0F912E2E88058900EDE74FFF0A37449F0A37422F09006D2E0FBA3E0FA6D
:406EC000A3E0F912E2E8803A900EDE74FFF0A37449F0A37436F09006D2E0FBA3E0FAA3E0F912E2E8801C900EDE74FFF0A37449F0A3744EF09006D2E0FBA3E0FAA3E0F9128E
:406F0000E2E8900F5DE0601E900EDE74FFF0A37449F0A37473F09006D2E0FBA3E0FAA3E0F912E2E8801C900EDE74FFF0A37449F0A37494F09006D2E0FBA3E0FAA3E0F912B8
:406F4000E2E890073E74FFF0A37449F0A374B4F0900F5EE0FE3395E0900741F0A3CEF07B017A0679D712AF31900EDE7401F0A37406F0A374D7F09006D2E0FBA3E0FAA3E00B
:406F8000F912E2E8900EDE74FFF0A37449F0A374CDF09006D2E0FBA3E0FAA3E0F912E2E8E49006D5F0A3F0C39006D6E094039006D5E064809480400302704390073E74FFE6
:406FC000F0A37447F0A37473F09006D5E0FCA3E0FD2401FEE43C900741F0A3CEF074192DF582740F3CF583E0FF900743E4F0A3EFF07B017A0679D712AF31900EDE7401F010
:40700000A37406F0A374D7F09006D2E0FBA3E0FAA3E0F912E2E8900EDE74FFF0A37446F0A37451F09006D2E0FBA3E0FAA3E0F912E2E89006D6E004F070069006D5E004F0BC
:40704000026FA7900EDE74FFF0A37449F0A374E2F09006D2E0FBA3E0FAA3E0F912E2E8E49006D5F0A3F0C39006D6E094039006D5E064809480400302712A90073E74FFF0F5
:40708000A37449F0A374F8F09006D5E0FCA3E0FD2401FEE43C900741F0A3CEF0EDAE047802C333CE33CED8F9241CF582740F3EF583E0FCA3E0FDA3E0FEA3E0FF9006D5E005
:4070C000FAA3E02419F582740F3AF583E0F9F81293AC90074312940D7B017A0679D712AF31900EDE7401F0A37406F0A374D7F09006D2E0FBA3E0FAA3E0F912E2E8900EDEDD
:4071000074FFF0A37446F0A37451F09006D2E0FBA3E0FAA3E0F912E2E89006D6E004F070069006D5E004F0027066900EDE74FFF0A3744AF0A37402F09006D2E0FBA3E0FA69
:40714000A3E0F912E2E8E49006D5F0A3F0C39006D6E094039006D5E06480948040030271FB90073E74FFF0A3744AF0A3741CF09006D5E0FCA3E0FD2401FEE43C900741F0CD
:40718000A3CEF0EDAE047802C333CE33CED8F92428F582740F3EF583E0FCA3E0FDA3E0FEA3E0FF90074312940D7B017A0679D712AF31900EDE7401F0A37406F0A374D7F0CD
:4071C0009006D2E0FBA3E0FAA3E0F912E2E8900EDE74FFF0A37446F0A37451F09006D2E0FBA3E0FAA3E0F912E2E89006D6E004F070069006D5E004F002714D900EDE74FF37
:40720000F0A3744AF0A37425F09006D2E0FBA3E0FAA3E0F912E2E890073E74FFF0A3744AF0A3743DF0900F60E0FCA3E0FDA3E0FEA3E0FF90074112940D900F64E0FCA3E0B1
:40724000FDA3E0FEA3E0FF90074512940D900F68E0FCA3E0FDA3E0FEA3E0FF90074912940D7B017A0679D712AF31900EDE7401F0A37406F0A374D7F09006D2E0FBA3E0FABC
:40728000A3E0F912E2E890073E74FFF0A3744AF0A37456F0900F6CE0FCA3E0FDA3E0FEA3E0FF90074112940D900F70E0FCA3E0FDA3E0FEA3E0FF90074512940D900F74E0AB
:4072C000FCA3E0FDA3E0FEA3E0FF90074912940D7B017A0679D712AF31900EDE7401F0A37406F0A374D7F09006D2E0FBA3E0FAA3E0F912E2E8900EDE74FFF0A37446F0A38B
:407300007451F09006D2E0FBA3E0FAA3E0F912E2E890073E74FFF0A3744AF0A3746FF0901013E0FF900741E4F0A3EFF07B017A0679D712AF31900EDE7401F0A37406F0A3F2
:4073400074D7F09006D2E0FBA3E0FAA3E0F912E2E8900EDE74FFF0A37446F0A37451F09006D2E0FBA3E0FAA3E0F912E2E8E49006D5F0A3F0C39006D6E094019006D5E064F9
:40738000809480400302748C90073E74FFF0A3744AF0A37489F09006D5E0FCA3E0FD2401FEE43C900741F0A3CEF0EDAE047802C333CE33CED8F92414F58274103EF583E030
:4073C000FCA3E0FDA3E0FEA3E0FF9006D5E0FAA3E024F8F582740F3AF583E0F9F81293AC90074312940D7B017A0679D712AF31900EDE7401F0A37406F0A374D7F09006D25D
:40740000E0FBA3E0FAA3E0F912E2E890073E74FFF0A3744AF0A374AFF09006D5E0FAA3E0FBAE027802C333CE33CED8F9241CF58274103EF583E0FCA3E0FDA3E0FEA3E0FF8A
:4074400074F82BF582740F3AF583E0F9F81293AC90074112940D7B017A0679D712AF31900EDE7401F0A37406F0A374D7F09006D2E0FBA3E0FAA3E0F912E2E89006D6E004AA
:40748000F070069006D5E004F002737490073E74FFF0A3744AF0A374BCF0901024E0A3E0A3E0FFA3E0900741CFF0A3EFF0901028E0A3E0A3E0FFA3E0900743CFF0A3EFF062
:4074C0007B017A0679D712AF31900EDE7401F0A37406F0A374D7F09006D2E0FBA3E0FAA3E0F912E2E8900EDE74FFF0A37446F0A37451F09006D2E0FBA3E0FAA3E0F912E2B6
:40750000E890073E74FFF0A3744AF0A374D8F090102CE0FFA3E0900741CFF0A3EFF07B017A0679D712AF31900EDE7401F0A37406F0A374D7F09006D2E0FBA3E0FAA3E0F96E
:4075400012E2E8900EDE74FFF0A37446F0A37451F09006D2E0FBA3E0FAA3E0F912E2E890073E74FFF0A3744AF0A374EAF0900FA1E0FFA3E0900741CFF0A3EFF07B017A0662
:4075800079D712AF31900EDE7401F0A37406F0A374D7F09006D2E0FBA3E0FAA3E0F912E2E8900EDE74FFF0A37446F0A37451F09006D2E0FBA3E0FAA3E0F912E2E890073E34
:4075C00074FFF0A3744BF0A37405F0900FA3E0FFA3E0900741CFF0A3EFF07B017A0679D712AF31900EDE7401F0A37406F0A374D7F09006D2E0FBA3E0FAA3E0F912E2E8905B
:407600000EDE74FFF0A37446F0A37451F09006D2E0FBA3E0FAA3E0F912E2E890073E74FFF0A3744BF0A37418F090102EE0FFA3E0900741CFF0A3EFF0901030E0FFA3E0908A
:407640000743CFF0A3EFF07B017A0679D712AF31900EDE7401F0A37406F0A374D7F09006D2E0FBA3E0FAA3E0F912E2E8900EDE74FFF0A37446F0A37451F09006D2E0FBA3F3
:40768000E0FAA3E0F912E2E890073E74FFF0A3744BF0A3743AF0901033E0FCA3E0FDA3E0FEA3E0FF90074112940D901037E0FCA3E0FDA3E0FEA3E0FF90074512940D7B01CF
:4076C0007A0679D712AF31900EDE7401F0A37406F0A374D7F09006D2E0FBA3E0FAA3E0F912E2E8900EDE74FFF0A37446F0A37451F09006D2E0FBA3E0FAA3E0F912E2E890B8
:407700001032E0601E900EDE74FFF0A3744BF0A3745EF09006D2E0FBA3E0FAA3E0F912E2E8801C900EDE74FFF0A3744BF0A37479F09006D2E0FBA3E0FAA3E0F912E2E89006
:40774000073E74FFF0A3744BF0A37493F090103BE0FF900741E4F0A3EFF07B017A0679D712AF31900EDE7401F0A37406F0A374D7F09006D2E0FBA3E0FAA3E0F912E2E890DB
:407780000EDE74FFF0A37446F0A37451F09006D2E0FBA3E0FAA3E0F912E2E890073E74FFF0A3744BF0A374A5F090105EE0FCA3E0FDA3E0FEA3E0FF90074112940D7B017AA9
:4077C0000679D712AF31900EDE7401F0A37406F0A374D7F09006D2E0FBA3E0FAA3E0F912E2E8900EDE74FFF0A37446F0A37451F09006D2E0FBA3E0FAA3E0F912E2E890072A
:407800003E74FFF0A3744BF0A374BEF0E4FFFE7D7A7C44901062E0F8A3E0F9A3E0FAA3E0FB128D2190074112940D7B017A0679D712AF31900EDE7401F0A37406F0A374D742
:40784000F09006D2E0FBA3E0FAA3E0F912E2E8900EDE74FFF0A37446F0A37451F09006D2E0FBA3E0FAA3E0F912E2E890073E74FFF0A3744BF0A374E4F090105AE0FCA3E096
:40788000FDA3E0FEA3E0FF900F19E0F9F81293AC900741EEF0A3EFF07B017A0679D712AF31900EDE7401F0A37406F0A374D7F09006D2E0FBA3E0FAA3E0F912E2E8900EDE18
:4078C00074FFF0A37446F0A37451F09006D2E0FBA3E0FAA3E0F912E2E890073E74FFF0A3744BF0A374F6F0901066E0FCA3E0FDA3E0FEA3E0FF90074112940D7B017A06797C
:40790000D712AF31900EDE7401F0A37406F0A374D7F09006D2E0FBA3E0FAA3E0F912E2E8900EDE74FFF0A37446F0A37451F09006D2E0FBA3E0FAA3E0F912E2E890106CE012
:40794000601E900EDE74FFF0A3744CF0A37405F09006D2E0FBA3E0FAA3E0F912E2E8801C900EDE74FFF0A3744CF0A37426F09006D2E0FBA3E0FAA3E0F912E2E890106AE036
:40798000601E900EDE74FFF0A3744CF0A37446F09006D2E0FBA3E0FAA3E0F912E2E8801C900EDE74FFF0A3744CF0A37466F09006D2E0FBA3E0FAA3E0F912E2E890106BE074
:4079C000601E900EDE74FFF0A3744CF0A37485F09006D2E0FBA3E0FAA3E0F912E2E8801C900EDE74FFF0A3744CF0A374AEF09006D2E0FBA3E0FAA3E0F912E2E890073E744F
:407A0000FFF0A3744CF0A374D6F09010C5E0F8A3E0F9A3E0FAA3E0FB90118CE0FCA3E0FDA3E0FEA3E0C39BFFEE9AFEED99FDEC98FC90074112940D7B017A0679D712AF3137
:407A4000900EDE7401F0A37406F0A374D7F09006D2E0FBA3E0FAA3E0F912E2E8900EDE74FFF0A37446F0A37451F09006D2E0FBA3E0FAA3E0F912E2E822E4F526F525F52432
:407A8000F523900EE6E0FCA3E0FDA3E0FEA3E0F5468E458D448C43A3E0FCA3E0FDA3E0FEA3E0F54A8E498D488C47A3E0FCA3E0FDA3E0FEA3E0F54E8E4D8D4C8C4BA3E0FC0B
:407AC000A3E0FDA3E0FEA3E0F5528E518D508C4FA3E0FCA3E0FDA3E0FEA3E0F5568E558D548C53A3E0FCA3E0FDA3E0FEA3E0F55A8E598D588C57A3E0FCA3E0FDA3E0FEA30F
:407B0000E0F55E8E5D8D5C8C5BA3E0FCA3E0FDA3E0FEA3E0F5628E618D608C5FA3E0FCA3E0FDA3E0FEA3E0F5668E658D648C63A3E0FCA3E0FDA3E0FEA3E0F56A8E698D68B7
:407B40008C67A3E0FCA3E0FDA3E0FEA3E0F56E8E6D8D6C8C6BA3E0FCA3E0FDA3E0FEA3E0F5728E718D708C6F900F4FE0FEA3E0FFFBAA06E49011BCE0FCA3E0FDA3E0FEA3A6
:407B8000E0C39BF53AEE9AF539ED9400F538EC9400F537900F51E0FEA3E0FFFBAA06E49011C0E0FCA3E0FDA3E0FEA3E0C39BF53EEE9AF53DED9400F53CEC9400F53B900F5C
:407BC00017E024FE7003027D60147003027DBE147003027EB31470030280161470030281B7240560030282389010C0E06026900F5EE0FF3395E0FEFDFC9011A5E0F8A3E092
:407C0000F9A3E0FAA3E0FB12923A8F368E358D348C33804E900F5DE06024A3E0FF3395E0FEFDFC9011ADE0F8A3E0F9A3E0FAA3E0FB12923A8F368E358D348C338024900F55
:407C40005EE0FF3395E0FEFDFC9011A9E0F8A3E0F9A3E0FAA3E0FB12923A8F368E358D348C33900FAAE0F8A3E0F9A3E0FAA3E0FBC3E5369BFFE5359AFEE53499FDE5339888
:407C8000FC900F45E0F8A3E0F9A3E0FAA3E0FBC31293725044E4FFFEFDFC900F45E0F8A3E0A3E0A3E0C3129372602E900FAAE0FCA3E0FDA3E0FEA3E0FF900F45E0F8A3E0B9
:407CC000A3E0A3E0EF2BFFEE3AFEED39FDEC38FC900FAA12940D028238900FAAE0F8A3E0F9A3E0FAA3E0FBC3E5369BFFE5359AFEE53499FDE53398FC900F49E0F8A3E0F9EB
:407D0000A3E0FAA3E0FBD31293724043E4FFFEFDFC900F49E0F8A3E0A3E0A3E0129372602E900FAAE0FCA3E0FDA3E0FEA3E0FF900F49E0F8A3E0A3E0A3E0EF2BFFEE3AFEE3
:407D4000ED39FDEC38FC900FAA12940D028238AF36AE35AD34AC33900FAA12940D028238E4FFFEFDFCAB3AAA39A938A837D3129372403D90101CE0FCA3E0FDA3E0FEA3E0E3
:407D8000FFA83712923AC006C007900F4FE0FEA3E0FFC3E49FFF74049EFEAB07FAE4F9F8D007D00612E83C900FAA12940D028238E4FFFEFDFC900FAA12940D028238901085
:407DC000CDE0FCA3E0FDA3E0FEA3E0FF900FAA12940DE4FFFEFDFCAB3AAA39A938A837D3129372405690103BE0FFE4FCFDFEA83712923AE47B02FAF9F812923AC006C00770
:407E0000900F4FE0FEA3E0FFC3E49FFF74049EFEAB07FAE4F9F8D007D00612E83C9010CDE0F8A3E0F9A3E0FAA3E02FFFEA3EFEE93DFDE83CFC900FAA12940DE4FFFEFDFC09
:407E4000AB3EAA3DA93CA83BD3129372500302823890103BE0FFE4FCFDFEA83B12923AE47B02FAF9F812923AC006C007900F51E0FEA3E0FFC3E49FFF74049EFEAB07FAE42B
:407E8000F9F8D007D00612E83CA804A905AA06AB079010CDE0FCA3E0FDA3E0FEA3E0C39BFFEE9AFEED99FDEC98FC900FAA12940D0282389010CDE0FCA3E0FDA3E0FEA3E0FA
:407EC000FF900FAA12940D90127AE0146048147003027F9024026003028238E4FFFEFDFCAB3AAA39A938A837D3129372400990127A7401F0028238E4FFFEFDFCAB3EAA3D76
:407F0000A93CA83BD3129372500302823890127A7402F0028238E4FFFEFDFCAB3AAA39A938A837C31293725008E490127AF002823890103BE0FFE4FCFDFEAB3AAA39A938C4
:407F4000A83712923AE47B02FAF9F812923AC006C007900F4FE0FEA3E0FFC3E49FFF74049EFEAB07FAE4F9F8D007D00612E83C9010CDE0F8A3E0F9A3E0FAA3E02FFFEA3E6B
:407F8000FEE93DFDE83CFC900FAA12940D028238E4FFFEFDFCAB3EAA3DA93CA83BC31293725008E490127AF002823890103BE0FFE4FCFDFEAB3EAA3DA93CA83B12923AE489
:407FC0007B02FAF9F812923AC006C007900F51E0FEA3E0FFC3E49FFF74049EFEAB07FAE4F9F8D007D00612E83CA804A905AA06AB079010CDE0FCA3E0FDA3E0FEA3E0C39BBA
:40800000FFEE9AFEED99FDEC98FC900FAA12940D0282380282389010CDE0FCA3E0FDA3E0FEA3E0FF900FAA12940D90127AE014604814700302811224026003028238E4FF80
:40804000FEFDFCAB3AAA39A938A837D3129372400990127A7401F0028238E4FFFEFDFCAB3EAA3DA93CA83BD3129372500302823890127A7402F0028238E4FFFEFDFCAB3AA9
:40808000AA39A938A837C3129372501BE4FFFEFDFCAB3EAA3DA93CA83BC31293725008E490127AF0028238E4FFFEFDFCAB3AAA39A938A837D3129372500302823890103B52
:4080C000E0FFE4FCFDFEA83712923A78021293C0C006C007900F4FE0FEA3E0FFC3E49FFF74049EFEAB07FAE4F9F8D007D00612E83C9010CDE0F8A3E0F9A3E0FAA3E02FFFA3
:40810000EA3EFEE93DFDE83CFC900FAA12940D028238E4FFFEFDFCAB3AAA39A938A837C3129372501BE4FFFEFDFCAB3EAA3DA93CA83BC31293725008E490127AF002823827
